:020000040800F2
:10000000B86B0020C9640008D1640008D3640008FC
:10001000D5640008D7640008D96400080000000017
:10002000000000000000000000000000DB64000889
:10003000DD64000800000000BF8A0008238D00086E
:10004000E3640008E3640008E3640008E364000874
:10005000E3640008E3640008E3640008E364000864
:10006000E3640008E3640008E3640008E364000854
:10007000E3640008E3640008E3640008E364000844
:10008000E364000809140008E3640008E36400085E
:10009000B9030008E3640008E3640008E3640008AF
:1000A000E3640008E3640008E3640008E364000814
:1000B000A5410008CB110008E3640008E3640008D0
:1000C000E3640008E3640008E3640008E3640008F4
:1000D000E3640008E36400082F140008E3640008E8
:1000E000E3640008E3640008E3640008E3640008D4
:1000F000E3640008E3640008E3640008E3640008C4
:10010000E3640008E3640008E3640008E3640008B3
:10011000E3640008E3640008E3640008E3640008A3
:10012000E3640008E3640008E3640008E364000893
:10013000E3640008E3640008E3640008E364000883
:10014000F506000807090008E3640008E3640008F6
:10015000E3640008E3640008F9120008E36400089F
:10016000E3640008E3640008E3640008E364000853
:10017000E3640008E3640008E3640008E364000843
:10018000E3640008E3640008DFF80CD008F0BCFF6B
:100190000048004743100008B86B002030BF72B61B
:1001A000704762B6704780F3088870471CB500201E
:1001B000009003460122110201900D4804F0DAF983
:1001C0001CBD70B5044600250EE04FF48070084950
:1001D0000883642000F030F94FF4807004494883AC
:1001E000642000F029F96D1CA542EEDB70BD000013
:1001F0000000024000B58BB00121480605F043FD28
:100200000121084605F00CFD09220B21864805F066
:100210004CFB09220C21844805F047FB02208DF895
:100220001C004FF4C050069006A97F4805F0B2FAB2
:1002300000208DF826008DF827008DF828008DF815
:1002400029008DF82A008DF82B008DF822008DF8FA
:10025000230008208DF8240003208DF82500ADF838
:10026000200008A9714804F074FB00208DF81200EA
:100270008DF8130001208DF814000820ADF8080057
:100280004FF4C050ADF80A0040F2FF70ADF80C001A
:100290004FF6F870ADF80E000020ADF81000012008
:1002A0008DF8150002A804F0DEFB01208DF8120085
:1002B00000208DF8130001208DF814000820ADF8FF
:1002C00008000020ADF80A0040F2FF70ADF80C0005
:1002D0004FF6F870ADF80E000020ADF810000120C8
:1002E0008DF8150002A804F0BEFB14208DF8040060
:1002F00003208DF8050000208DF8060001208DF800
:10030000070001A804F0A1FA01220221474804F0E5
:10031000A9FE0BB000BD10B586B0044644488078F5
:1003200000F0010048B14248807800F0020020B996
:100330003F48807800F00400F8B9207A30B90020F6
:100340008DF80C0020688038019006E0207A04289F
:1003500003D18DF80C003748029000208DF80D0075
:10036000A07A8DF80E00A27A04F10B01084608F07D
:1003700021FD01A92D4804F065FC06B010BD10B5A3
:1003800086B00446A4F18000019000208DF80C0096
:100390008DF80D0005208DF80E0042208DF80F001D
:1003A00042218DF8101047218DF8111001A91F4826
:1003B00004F048FC06B010BD00B585B002211B4812
:1003C00004F0B8FE68B30221184804F04EFF022181
:1003D000164804F08CFE6A460021144804F027FDFC
:1003E0000320134988709DF80800042819D19DF84E
:1003F0000900B0B99DF80B0090B99DF80C00432896
:100400000ED19DF80D0057280AD19DF80E004828FE
:1004100006D19DF80F00552802D16846FFF77BFFF3
:1004200000BF05B000BD00000000024000640040B5
:10043000280000200101030010B5002107E04AF266
:10044000104200BF131EA2F10102FBD1491C8142E0
:10045000F5D310BD10B5002106E0282200BF131E01
:10046000A2F10102FBD1491C8142F6D310BD00006C
:1004700000B58BB00121880605F005FC0922052195
:10048000FD4805F012FA09220621FB4805F00DFA95
:1004900002208DF818006020059005A9F64805F0A7
:1004A00079F940208DF8280002208DF829000020DD
:1004B0008DF82A0001208DF82B000AA804F0C5F958
:1004C00041208DF8280002208DF8290001208DF8A8
:1004D0002A008DF82B000AA804F0B7F900208DF847
:1004E00022008DF823008DF824008DF825008DF86A
:1004F00026008DF827008DF81E008DF81F000820BB
:100500008DF8200003208DF82100ADF81C0007A90C
:10051000DA4804F01EFA0E208DF80E0001208DF846
:100520000F0000208DF8100044F22000ADF8040008
:1005300044F24000ADF8060044F26000ADF8080057
:100540004FF48140ADF80A000020ADF80C00012006
:100550008DF8110001A804F086FA0F208DF80E0026
:1005600001208DF80F0000208DF8100044F2A0004B
:10057000ADF8040044F2C000ADF8060044F2E0001B
:10058000ADF808004FF48240ADF80A000020ADF845
:100590000C0001208DF8110001A804F064FA10206D
:1005A0008DF80E0001208DF80F0000208DF810004E
:1005B00045F22000ADF8040045F24000ADF8060019
:1005C00045F26000ADF808004FF4A140ADF80A0014
:1005D0000120ADF80C008DF8110001A804F043FAD9
:1005E00011208DF80E0001208DF80F0000208DF8ED
:1005F000100045F2A000ADF8040045F2C000ADF8CF
:10060000060045F2E000ADF808004FF4A240ADF856
:100610000A000120ADF80C008DF8110001A804F0CB
:1006200022FA12208DF80E0001208DF80F00002014
:100630008DF810004FF48150ADF804004FF4825053
:10064000ADF806004FF48350ADF808004FF4845025
:10065000ADF80A000120ADF80C008DF8110001A8DA
:1006600004F001FA13208DF80E0001208DF80F0020
:1006700000208DF810004FF48550ADF804004FF4C1
:100680008650ADF806004FF48750ADF808004FF4DF
:100690008850ADF80A000120ADF80C008DF811006B
:1006A00001A804F0E0F914208DF80E0000208DF868
:1006B0000F0001208DF810000020ADF804004FF469
:1006C0009040ADF806004FF6FF70ADF808004FF40B
:1006D0007840ADF80A000120ADF80C008DF811004B
:1006E00001A804F0C0F901221021644804F0BAFC0A
:1006F0000BB000BD10B586B00221604804F01AFDB1
:1007000000287DD001AA00215C4804F090FB022162
:100710005A4804F0AAFD0198B0F5007F71D90198FC
:10072000B0F5027F6DD89DF80D00002869D10198C1
:10073000401EC4B204A9481E00F00CFD0DF11201C8
:10074000481E00F007FD05A9481E00F003FDBDF896
:100750000F1004EBC40000EB0410494A02EBC00088
:100760000184BDF8111004EBC40000EB041002EB8F
:10077000C0000183BDF8131004EBC40000EB0410AB
:1007800002EBC000C18204EBC40000EB0410114670
:1007900001EBC000C06900EE100AB8EEC00ADFED40
:1007A000390A60EE200A04EBC40000EB041001EBF0
:1007B000C00090F8C20000EE100AB8EE400A80EEC9
:1007C000801A04EBC40000EB041001EBC000B0F889
:1007D000C00000EE100AB8EE400AC1EE000ABDEEFD
:1007E000E00A10EE100A00B204EBC40101EB0411A0
:1007F00002EBC101888204EBC40000EB041001E0AD
:100800006EE06CE0114611F83000E8B308F010F922
:1008100004EBC40101EB0411194A02EBC101D1F848
:10082000B810411A04EBC40000EB041002EBC00046
:10083000B0F8BC0081423CD904EBC40000EB0410CA
:10084000114601EBC00090F8B400401CC1B204EBAB
:10085000C40000EB041002EBC00080F8B4100A29B9
:100860001CDD012104EBC40000EB041002EBC0000E
:1008700080F83710002108E00004024000680040C2
:10088000B82500200000B44313E004EBC40000EBE3
:10089000041002EBC00080F8B41014E0002104EB57
:1008A000C40000EB0410FE4A02EBC00080F83710D1
:1008B00009E0002104EBC40000EB0410F84A02EB4D
:1008C000C00080F8B41008F0B3F804EBC40101EBE9
:1008D0000411F34A02EBC101C1F8B80000BF00BF28
:1008E00006B010BD4168491C4160002101730169D7
:1008F000491E0161818A491C1E2291FBF2F302FB11
:1009000013118182704710B586B01021E54804F0BC
:1009100011FC002873D001AA0121E24804F087FAF3
:100920001021E04804F0A1FC1021DE4804F0DFFBB8
:100930000198B0F5207F75D90198B0F5227F71D864
:100940009DF80D0000286DD10198A0F28120C4B25D
:100950009DF80F0041280BD19DF81000432807D1C6
:100960009DF8120000F04000012801D0012000E0B5
:1009700000209DF80F1042290BD19DF81010472937
:1009800007D19DF8121001F04001012901D0012189
:1009900000E0002108439DF80F104A290BD19DF873
:1009A0001010562907D19DF8121001F040010129BD
:1009B00001D0012100E0002108439DF80F104D29CE
:1009C0000BD19DF810104F2907D19DF8121001F09E
:1009D0004001012901D0012100E0002108439DF8D8
:1009E0000F1050290CD19DF81010522908D19DF8F4
:1009F000121001F04001012902D0012101E04DE176
:100A0000002108439DF80F1053290CD19DF81010B8
:100A1000442908D19DF8121001F04001012902D0AB
:100A2000012101E028E1002108439DF80F1053291E
:100A30000BD19DF81010542907D19DF8121001F028
:100A40004001012901D0012100E0002108439DF867
:100A50000F1054290BD19DF81010432907D19DF890
:100A6000121001F04001012901D0012100E0002114
:100A700008439DF80F1055290BD19DF810104D29F2
:100A800007D19DF8121001F04001012901D0012188
:100A900000E00021084330B1C4EB8411824A02EB2C
:100AA000C100FFF71FFF9DF80F004D2815D19DF8DD
:100AB00010004F2811D19DF8120000F040000128CD
:100AC0000BD09DF8130008B1012000E0002004EBDA
:100AD0008401764A02EB011148709DF80F005628F8
:100AE00027D19DF81000582823D19DF8120000F05E
:100AF000400001281DD0DDF8131004EB84006B4A80
:100B000002EB0010416104EB8400114601EB001080
:100B1000B0F848000F2190FBF1F104EB840002EBE8
:100B20000010406990FBF1F104EB840002EB00102F
:100B300041619DF80F00502836D19DF810005828CB
:100B400032D19DF8120000F0400001282CD0DDF8D1
:100B5000131004EB8400554A02EB0010816104EB92
:100B6000840102EB011189694FF4B47201FB02F0B8
:100B7000C11700EB9141891300EE101AB8EEC00ABC
:100B800004EB8401494A02EB0111D1ED130A80EE16
:100B9000201ABDEEC10A10EE101A09B204EB84024D
:100BA000424B03EB021211829DF80F00492812D12B
:100BB0009DF8100051280ED19DF8120000F0400061
:100BC000012808D0BDF8130001B204EB8400374AB5
:100BD00002EB0010418204EB8400344901EB001069
:100BE000407800B307F024FF04EB84012F4A02EBA6
:100BF0000111096C411A04EB840002EB0010B0F8FB
:100C0000440081420FD904EB8400114601EB00102F
:100C100090F83C00401CC1B204EB840002EB0010D1
:100C200080F83C1007E0002104EB84001F4A02EB2F
:100C3000001080F83C1004EB84001C4901EB00100C
:100C400090F83C000A2807DD012104EB8400174AD4
:100C500002EB0010C17706E0002104EB8400134A88
:100C600002EB0010C17707F0E3FE04EB84010F4AAA
:100C700002EB0111086400BF019881280DD301988F
:100C800088280AD89DF80D0038B901998139C8B271
:100C900000BF0121064A117000BF00BF06B010BDA1
:100CA000B825002000680040D8370020784A00208E
:100CB0005825002070B5044604EBC40000EB041076
:100CC000524901EBC000B0F90600002808DD04EB32
:100CD000C40000EB041001EBC000B0F9060009E00D
:100CE00004EBC40000EB0410484901EBC000B0F96C
:100CF0000600404204EBC40101EB0411434A02EB3D
:100D0000C101B1F8C410884220DD04EBC40000EB3F
:100D10000410114601EBC000B0F90600002801DB09
:100D2000012001E04FF0FF3004EBC40101EB04119E
:100D3000364A02EBC101B1F8C410484301B204EBDA
:100D4000C40000EB041002EBC000C18004EBC4003F
:100D500000EB04102D4911F8300040B9002104EBDC
:100D6000C40000EB0410294A02EBC000C180042C2F
:100D700004DA4FF400702649086003E040F2FF10E7
:100D800023490860002022494872087208208872AE
:100D900004F00B00450004EBC40000EB04101B49F9
:100DA00001EBC000C1881A480B30415302466B1C4E
:100DB000D118501900F0CEF9032C01D0072C03D123
:100DC0001349144803F03EFF70BD30B585B00546A9
:100DD0000C461148019000208DF8090004208DF880
:100DE000080003208DF80A0056208DF80B004C21D6
:100DF0008DF80C108DF80D408DF80E5069460548A1
:100E000003F020FF0548847005B030BDB8250020F0
:100E1000C4000020006800400101030058250020A4
:100E20001CB50120022100230246CDE900104FF439
:100E300040711A4803F09EFB4FF48071174804F08C
:100E400025FD4FF40071154804F022FD1CBD70B55E
:100E50000446112C00DD11241148055D00261AE01E
:100E60004FF480710D4804F013FD05F0010028B126
:100E70004FF40071094804F009FD04E04FF40071DB
:100E8000064804F005FD4FF48071044804F0FEFCB0
:100E90006D10701CC6B2082EE2DB70BD000402406B
:100EA0008C9A00081CB50020009003460122F02116
:100EB00001901F4803F05EFB1CBD10B510201C49BB
:100EC00048834FF4FA6007F003FD20201849488357
:100ED0004FF4FA6007F0FCFC4020154948834FF4BA
:100EE000FA6007F0F5FC8020114948834FF4FA605E
:100EF00007F0EEFC10200E4908834FF4FA6007F06B
:100F0000E7FC20200A4908834FF4FA6007F0E0FC70
:100F10004020074908834FF4FA6007F0D9FC80208D
:100F2000034908834FF4FA6007F0D2FC10BD0000BB
:100F30000000024014E00021084603F0B9F8002246
:100F40000121104602F0A6FD0021084602F04BFBED
:100F500000220121104602F094FB142007F0B8FC97
:100F6000E9E700BF03E04FF47A7007F0B1FCFAE75D
:100F70001CE001F08EFA5C48007810B1012810D115
:100F800002E0FFF79AFF0CE010205849488308461A
:100F9000406980F020004861402008838020088359
:100FA00000BF00BF4FF47A7007F092FCE1E705E064
:100FB00000F019FB4FF47A7007F08AFCF8E770B57F
:100FC0000446002500BF07F0C2FE07F057FD0546A6
:100FD000002006F0ECFE464908601923454A00212E
:100FE000454807F02FF91E23444A0021444807F0E2
:100FF00029F92823434A0021434807F023F93223E3
:10100000424A0021424807F01DF9424802F0B6F872
:10101000052007F05DFC3F4802F0B0F8052007F01E
:1010200057FC3C4802F0AAF8052007F051FC0020CC
:10103000FFF70DFF052007F083FB284607F022FD90
:1010400070BD10B540F6B830FFF7F6F905F0A2F91B
:101050004FF4806101F007022F4B18684FF6FF0331
:1010600018402E4B034343EA02202B4B186000BF6D
:101070002B48006840F0070029490860FFF712FF7D
:10108000FFF794F8FFF7CCFE01F04CF9FFF7B2F848
:10109000FFF7EEF900F0C2F800F050F900F062F846
:1010A00000F04EF801F07EFA02211E4801F07CFDAE
:1010B00005F054FB05231C4A00211C4807F0C2F828
:1010C00005F073FC002010BD0CE0194AB2F9E010E5
:1010D000D2F8E42010B200231A4603F04AF91E2089
:1010E00007F0F6FBF1E70000582500200000024061
:1010F00000000020D40C0020AF0F0008D40E002008
:10110000710F0008D41E0020630F0008D4200020B7
:10111000350F0008006800400CED00E00000FA0503
:1011200030380240D8370020D4040020BF0F000818
:10113000B825002000200A490870012088717047F6
:1011400010B5FFF7F7FF00F007FB01F067FF01F0B4
:10115000FBFA10BD00220A7803780B70027070470A
:101160005825002010B52748006840F002002549A6
:10117000086042F22730244908600720091F0880D0
:1011800021482C38008840F480701F492C39088091
:101190001D481C38008820F001001B491C390880BC
:1011A000081F008840F00100091F088016482C38ED
:1011B000008840F0010014492C39088003231D22C7
:1011C0000021012003F028F910BD10B50E481C388D
:1011D000008800F0010058B10C490D4801F0EAF90F
:1011E0000C48807920B1022208490B4801F01CFD0F
:1011F00005481C38008820F0010003491C3908808C
:1012000010BD0000403802402C0400407047002010
:101210000068004058250020D83700201CB5404801
:10122000006840F010003E4908603D4814380068EE
:1012300040F480003A49143908600120022100235B
:101240000A46CDE900104FF4C061364803F092F928
:1012500007220921334803F06DF907220A2131489A
:1012600003F068F940F2D9202F4908814FF4037048
:1012700088810846008820F020000880032325226A
:101280000121062003F0C8F84FF48070274B264A4E
:10129000121D04210090264802F0AAFF012210210D
:1012A000234804F09EF9032346220021072003F07F
:1012B000B3F81D48808A40F080001B4988820846A8
:1012C000808940F4005088811CBD70B504460D46ED
:1012D0001848807A78B92A462146144807F06AFDF2
:1012E0002946134804F011F90121114804F0ECF8E3
:1012F00001201049887270BD10B50F490C4804F0E8
:101300008DF901280AD10C49094804F056F90A4917
:10131000074804F0ADF900200649887210BD0000AE
:10132000443802400000024000100140D822002052
:10133000B864024058250020008000281CB5F948F8
:10134000006840F40030F7490860F648103800683B
:1013500040F40010F34910390860012002210023F5
:101360000A46CDE900100C21EF4803F003F90722EB
:101370000221ED4803F0DEF807220321EA4803F0DA
:10138000D9F84FF4B670E94908800C20091D08808F
:10139000E6480838008820F02000E4490839088031
:1013A000E248001D008840F02000E049091D088047
:1013B000032326220121042003F02EF84FF480702D
:1013C000DB4BDA4A121F04210090DA4802F010FFCA
:1013D00001221021D74804F004F90323112201212E
:1013E000072003F019F8D1480C30008840F0800045
:1013F000CE490C310880CD48001D008840F40050D3
:10140000CA49091D08801CBD10B5CB49C94804F064
:1014100005F901280AD1C849C64804F0CEF8C649E2
:10142000C44804F025F90020C449C87210BD10B5A5
:101430002DED028B002440F22531BC48083804F021
:10144000F4FE58B1B948083804F02DFE0020BC491C
:1014500008702021BB4807F0C6FCB0E040F22551DF
:10146000B248083804F0E1FE0028F6D02021AF4849
:10147000083804F0D1FE40F22551AC48083804F099
:101480000BFFAA48083804F00EFEC4B2AC4800783E
:1014900000F0400008B3AA48007800F0800020BBAC
:1014A000FF2C06D1A648007840F08000A4490870BF
:1014B0001BE0A348007800F03F01A2484454A04834
:1014C0000078401C9E4908700846007800F03F00F4
:1014D00028280ADD0020087007E0EE2C05D1984886
:1014E000007840F04000964908709548007800F078
:1014F0008000002863D0944890F82302022856D137
:10150000914890F8250209284ED2DFE800F04D05F9
:1015100014232A31363D45008A48C01D08F0D0F812
:10152000B0EE408AF0EE608A51EC180B07F076FCC2
:101530008649886039E08348C01D08F0C1F8B0EEE4
:10154000408AF0EE608A51EC180B07F067FC7F4987
:10155000C8602AE000231A460221012002F09AFA0C
:1015600023E0012300220221184602F08AF81CE041
:101570000021012001F0B2FE17E000231A460221EB
:10158000012002F07EF810E07048C36800220221BA
:10159000012002F057F908E06C488368002202211C
:1015A000012002F094FB00E000BF00BF00BF00BFBD
:1015B0000020634908702021624807F014FCBDEC4C
:1015C000028B10BD10B504465C48C07A50B9214664
:1015D000584803F09AFF0121564803F075FF012097
:1015E0005649C87210BD10B50024EE222146641C75
:1015F0004F484254B1222146641C425410222146D5
:10160000641C425400222146641C42542146641C3E
:1016100042542146641C425405222146641C425413
:1016200001222046611CCCB241490A54FF222046C7
:10163000611CCCB23E490A54FC222046611CCCB24B
:101640003B490A54FF222046611CCCB238490A5457
:101650002046611CCCB236490A54EE222046611C59
:10166000CCB233490A54B1222046611CCCB2304975
:101670000A5412222046611CCCB22D490A54002281
:101680002046611CCCB22A490A5402222046611C21
:10169000CCB227490A5400222046611CCCB224490E
:1016A0000A540A222046611CCCB221490A54002265
:1016B0002046611CCCB21E490A542448B0F91020BF
:1016C00023A1244807F0E8FF224807F097FBC2B2A5
:1016D0002046611CCCB216490A5408191D4907F06E
:1016E00094FB1C4807F08AFB2044C4B2FF2220462A
:1016F000611CCCB20E490A54FC222046611CCCB2BB
:101700000B490A54FF222046611CCCB208490A54F6
:101710002046611CCCB206490A542046FFF752FF0E
:1017200010BD000040380240000002400844004064
:10173000F8230020A06002400080202058250020CF
:1017400004000020F8240020D8220020784A00203D
:10175000253564006425002010B54FF40050FE4983
:101760000880FE4908802420FB4988701320FB492B
:10177000887042F22830F849888043F69910F7497A
:1017800088800020F64908709FEDF60A084680ED33
:10179000010A012008724FF47A7048810120087311
:1017A0004FF47A70C88140000882EF498883002492
:1017B0009DE004EBC40000EB0410EC4901EBC00019
:1017C000E9490968C0F8A010E748416804EBC40083
:1017D00000EB0410E54A02EBC000C0F8A41004EBD3
:1017E000C40101EB041102EBC10101F1A8000A22BE
:1017F000DD49083107F0DEFADB48418A04EBC4001A
:1018000000EB0410D94A02EBC000A0F8B21004EBC0
:10181000C40000EB0410114601EBC000A030D24B15
:1018200059699A69DB6914300EC004EBC40000EBFF
:101830000410CE4901EBC000D0ED240A04EBC40033
:1018400000EB041001EBC00090F8C20000EE100A9B
:10185000B8EE400A60EE800A04EBC40000EB04100E
:1018600001EBC000B0F8C00000EE100AB8EE400A6C
:1018700020EE800ADFEDBE0A80EE201ABCEEC10A1F
:1018800004EBC40000EB041001EBC00080ED280A5B
:1018900004EBC40000EB041001EBC000818804EBF2
:1018A000C40000EB0410B14A02EBC00090F8C20083
:1018B00011FB00F004EBC40101EB041102EBC101C8
:1018C000B1F8C010484300EE100AB8EEC00ADFEDD0
:1018D000A80A80EE201ABDEEC10A10EE100A04EB31
:1018E000C40101EB041102EBC101C860641C082CA7
:1018F000FFF65FAF10BD002239210A54C2610021FA
:101900008182704710B5044604EBC40000EB04105C
:10191000964901EBC000D0ED1D0A04EBC40000EBBA
:10192000041001EBC000B0F9080000EE100AB8EE98
:10193000C00A20EE800ABDEEC00A10EE100A04EBC9
:10194000C40101EB0411894A02EBC101486604EBB2
:10195000C40000EB0410114601EBC000B0F91810F0
:1019600004EBC40000EB041002EBC000C16704EB01
:10197000C40101EB041102EBC10101F1640001F0AB
:101980001DFB04EBC40000EB0410784901EBC00020
:10199000C18804EBC40000EB0410744A02EBC000E1
:1019A000806F084401B204EBC40000EB041002EBAA
:1019B000C000C18010BD10B5044604EBC40000EBAC
:1019C00004106A4901EBC000818804EBC40000EBFD
:1019D0000410664A02EBC00090F8C20011FB00F050
:1019E00004EBC40101EB041102EBC101B1F8C0101A
:1019F000484300EE100AB8EEC00ADFED5D0A80EE43
:101A0000201ABDEEC10A10EE100A04EBC40101EB6E
:101A1000041102EBC101C86004EBC40000EB041028
:101A2000114601EBC000C06804EBC40101EB0411D6
:101A300002EBC101C86304EBC40000EB04101146C3
:101A400001EBC000407870B904EBC40000EB041057
:101A500001EBC000D0F8A40004EBC40101EB0411B9
:101A600002EBC101C86304EBC40000EB04103F4962
:101A700001EBC00090F88C0080B304EBC40000EBD5
:101A8000041001EBC000C06B002807DD04EBC400AC
:101A900000EB041001EBC000C06B08E004EBC400D5
:101AA00000EB0410314901EBC000C06B404204EB75
:101AB000C40101EB04112D4A02EBC101D1F8A010C1
:101AC00088421FD904EBC40000EB0410114601EB5F
:101AD000C000C06B002802DB012002E012E04FF0E2
:101AE000FF3004EBC40101EB0411204A02EBC101F9
:101AF000D1F8A010484304EBC40101EB041102EB40
:101B0000C101C86304EBC40000EB0410174901EBEA
:101B1000C000C16904EBC40000EB0410134A02EBDF
:101B2000C000416504EBC40101EB041102EBC101EB
:101B300001F13C0001F042FA04EBC40000EB041098
:101B40000A4901EBC000416E04EBC40000EB041035
:101B5000064A02EBC0000DE0060000200C00002049
:101B6000842500200000FA4398250020B825002095
:101B70000000B443006D084400EE100AB8EEC00A3D
:101B800004EBC40000EB0410114601EBC000D0EDE3
:101B9000130A20EE200ABDEEC00A10EE100A04EB74
:101BA000C40101EB041102EBC101486604EBC4005F
:101BB00000EB0410114601EBC00090F8940080B3D4
:101BC00004EBC40000EB041001EBC000406E0028E1
:101BD00007DD04EBC40000EB041001EBC000406E15
:101BE00008E004EBC40000EB0410FD4901EBC00069
:101BF000406E404204EBC40101EB0411F84A02EBD1
:101C0000C101B1F8961088421FDD04EBC40000EB5F
:101C10000410114601EBC000406E002802DB0120D9
:101C200002E012E04FF0FF3004EBC40101EB0411BD
:101C3000EB4A02EBC101B1F89610484304EBC40132
:101C400001EB041102EBC101486604EBC40000EB98
:101C50000410E34901EBC000B0F9181004EBC40014
:101C600000EB0410DE4A02EBC000C16704EBC401C4
:101C700001EB041102EBC10101F1640001F09EF9D6
:101C800004EBC40000EB0410D54901EBC000C1888F
:101C900004EBC40000EB0410D14A02EBC000806FDB
:101CA000084401B204EBC40000EB041002EBC000D6
:101CB000C18004EBC40000EB0410114601EBC0002E
:101CC000D0F8AC00002808DD04EBC40000EB0410E1
:101CD00001EBC000D0F8AC0009E004EBC40000EB5D
:101CE0000410BF4901EBC000D0F8AC0040423C28D2
:101CF0000ADA012004EBC40101EB0411B84A02EB3B
:101D0000C10181F8340009E0002004EBC40101EBBB
:101D10000411B34A02EBC10181F8340010BD10B5C3
:101D2000044604EBC40000EB0410AD4901EBC00015
:101D3000B0F89A0004EBC40101EB0411A84A02EBCD
:101D4000C101486604EBC40000EB0410114601EB2E
:101D5000C000B0F9181004EBC40000EB041002EB53
:101D6000C000C16704EBC40101EB041102EBC10127
:101D700001F1640001F022F904EBC40000EB04104F
:101D8000974901EBC000C18804EBC40000EB0410CC
:101D9000934A02EBC000806F084401B204EBC40018
:101DA00000EB041002EBC000C18004EBC40000EBA8
:101DB0000410114601EBC000B0F90600002808DD50
:101DC00004EBC40000EB041001EBC000B0F9060006
:101DD00009E004EBC40000EB0410814901EBC000F2
:101DE000B0F9060040427F49098A88421ADD04EBB7
:101DF000C40000EB04107A4901EBC000B0F9060002
:101E0000002801DB012001E04FF0FF307549098A0D
:101E1000484301B204EBC40000EB0410704A02EB2B
:101E2000C000C18004EBC40000EB04106C4901EB5E
:101E3000C000B0F8A800F8B904EBC40000EB04102F
:101E400001EBC000C06941F28831884214DD04EB27
:101E5000C40000EB0410624901EBC000B0F8B00010
:101E6000401C81B204EBC40000EB04105C4A02EB9E
:101E7000C000A0F8B01009E0002104EBC40000EBA2
:101E80000410574A02EBC000A0F8B01004EBC400E5
:101E900000EB0410524901EBC000B0F8B000FA2882
:101EA00021DD002104EBC40000EB04104C4A02EBDE
:101EB000C000A0F8B01004EBC40000EB041002EB6B
:101EC000C000C161052004EBC40101EB041102EB69
:101ED000C1018870012104EBC40000EB041002EB87
:101EE000C00080F8351010BD10B5002495E104EB5A
:101EF000C40000EB04103A4901EBC000018C04EB74
:101F0000C40000EB0410364A02EBC000008E081A31
:101F100001B204EBC40000EB041002EBC000A0F817
:101F2000A81004EBC40000EB0410114601EBC00044
:101F3000808A04EBC40101EB041102EBC101888427
:101F400004EBC40000EB0410114601EBC000C18A91
:101F500004EBC40000EB041002EBC000C18404EBEE
:101F6000C40000EB0410114601EBC000018B04EB30
:101F7000C40000EB041002EBC000018504EBC400B8
:101F800000EB0410114601EBC000C16904EBC40072
:101F900000EB041002EBC000C16204EBC40000EBD4
:101FA0000410114601EBC000018C04EBC40000EBEF
:101FB000041002EBC000018604EBC40000EB041027
:101FC000114601EBC000B0F9A80000280CDD04EBBD
:101FD000C40000EB041001EBC000B0F9A8000DE054
:101FE000B82500208425002004EBC40000EB041079
:101FF0008C4901EBC000B0F9A8004042B0F57A6FFF
:102000002CDD04EBC40000EB0410864901EBC0009A
:10201000B0F9A81004EBC40000EB0410814A02EBF5
:10202000C000B0F9A800002801DB012001E04FF05A
:10203000FF3004EBC40202EB04127A4B03EBC20242
:10204000B2F8C02000FB121001B204EBC40000EB98
:1020500004101A4602EBC000A0F8A81004EBC4005C
:1020600000EB04106F4901EBC000C16904EBC40030
:1020700000EB04106B4A02EBC000B0F9A800014469
:1020800004EBC40000EB041002EBC000C16104EBE0
:10209000C40000EB0410114601EBC000C16804EB62
:1020A000C40000EB041002EBC000C069091A04EB85
:1020B000C40000EB041002EBC000C0F8AC1004EB4D
:1020C000C40000EB0410114611F8300000286DD058
:1020D00004EBC40000EB041001EBC000B0F90600F3
:1020E000002808DD04EBC40000EB041001EBC00085
:1020F000B0F9060009E004EBC40000EB0410494904
:1021000001EBC000B0F90600404204EBC40101EB52
:102110000411444A02EBC101B1F8C410491E8842BF
:1021200044DD04EBC40000EB0410114601EBC000D9
:10213000B0F8B200401C81B204EBC40000EB041004
:1021400002EBC000A0F8B21004EBC40000EB0410D6
:10215000114601EBC000B0F8B200B0F57A7F1ADD8D
:10216000012104EBC40000EB041002EBC00080F876
:10217000361004EBC40000EB0410114601EBC00064
:1021800090F89800E0B1002004EBC40101EB0411C9
:1021900002F8310014E0002104EBC40000EB04104D
:1021A000204A02EBC00080F8361009E0002104EB61
:1021B000C40000EB04101B4A02EBC000A0F8B210F0
:1021C00004EBC40000EB0410164901EBC00040789A
:1021D00078B104EBC40000EB041001EBC000C1694E
:1021E00004EBC40000EB04100E4A02EBC000C0F880
:1021F000A41004EBC40000EB04100A4901EBC0007A
:1022000090F8390040B104EBC40101EB0411054A18
:1022100002EBC100FFF76FFB641C082CFFF667AEF2
:1022200010BD0000B825002008B590ED000A8DED26
:10223000000ABDF800200A70BDF80020120A4A709A
:10224000BDF802208A70BDF80220120ACA7008BDCB
:1022500008B50A88ADF800204A88ADF802209DED47
:10226000000A80ED000A08BD30B50C0E15686B1C25
:1022700013604455C1F3074415686B1C1360445543
:10228000C1F3072415686B1C1360445515686B1C5B
:102290001360415530BD10B502460B68D35C1C0677
:1022A0000B685B1CD35C44EA03440B689B1CD35C47
:1022B00044EA03230C68E41C145D43EA04000B6841
:1022C0001B1D0B6010BD10B502460B685B1CD35C78
:1022D0000C68145D43EA042318B20B689B1C0B6066
:1022E00010BD30B50446F0EE400A0D4629462046A2
:1022F000FFF7D1FF00EE100AB8EEC01A81EE200AF7
:1023000030BD30B50446F0EE400A0D462946204661
:10231000FFF7D9FF00EE100AB8EEC01A81EE200ACE
:1023200030BD00001CB5012000210B460246CDE95E
:1023300000104FF470418D4802F01CF9012000217B
:102340000B460A46CDE900104FF47071884802F040
:1023500011F91CBD2DE9FC41FF25FF24FF260022B9
:102360004FF47041814803F095FA0120FEF772F8AE
:1023700040217F4803F070FA074680217C4803F033
:102380006BFA47EA4007611C794803F065FA47EAAF
:1023900080074FF40071764803F05EFA47EAC00008
:1023A00004400F2C5ED00A20FEF746F8402170480A
:1023B00003F052FA074680216D4803F04DFA47EAD0
:1023C0004007691C6A4803F047FA47EA80074FF460
:1023D0000071674803F040FA47EAC00004400F2C40
:1023E00040D0012000210B460246CDE900104FF4F9
:1023F00070715F4802F0BEF8012000210B460A46CA
:10240000CDE900104FF47041584802F0B3F80022B3
:102410004FF47071564803F03DFA0220FEF70CF8B5
:102420004FF48051514803F017FAC7004FF40051A0
:102430004E4803F011FA47EA80074FF480414B48B9
:1024400003F00AFA47EA40074FF40041474803F017
:1024500003FA3843054044EA0510C043C6B230468B
:10246000BDE8FC81F043C0B2FAE710B5082140484E
:1024700003F0F2F9044604213D4803F0EDF944EA83
:10248000400401213A4803F0E7F944EA8000C0B271
:1024900010BD10B5FFF75EFF412844D012DC2128A3
:1024A00031D008DC11281ED0122820D0142822D0C8
:1024B000182858D123E0222829D024282BD02828D6
:1024C00051D12CE081283ED006DC42282FD0442870
:1024D00031D0482847D132E0822838D084283AD0F9
:1024E000882840D13BE00120FEF7B1FC3BE0022010
:1024F000FEF7ADFC37E00320FEF7A9FC33E0042033
:10250000FEF7A5FC2FE00520FEF7A1FC2BE006203E
:10251000FEF79DFC27E00720FEF799FC23E008204A
:10252000FEF795FC1FE00920FEF791FC1BE00A2056
:10253000FEF78DFC17E00B20FEF789FC13E00C2062
:10254000FEF785FC0FE00D20FEF781FC0BE00E206E
:10255000FEF77DFC07E00F20FEF779FC03E000208A
:10256000FEF775FC00BF00BF10BD00000004024074
:1025700000080240014608884A88904201D10120A3
:1025800070470020FCE701464888401C1E2290FB53
:10259000F2F302FB13000A88904201D10120704738
:1025A0000020FCE700205F49488008805E494880A1
:1025B0000880704730B585B005460C4600205B4961
:1025C00008702046FFF7D6FF18B10120584948721D
:1025D000A5E02188201D00EB01104079422810D190
:1025E0002188201D00EB01108079472809D120881F
:1025F000401C1E2190FBF1F201FB1200208005B06F
:1026000030BD2188201D00EB01100068B0F5806FFF
:1026100009D200208DF808002188201D00EB011050
:10262000006800901CE02188201D00EB011000686C
:1026300000F0704058B12188201D00EB01100068A7
:1026400020F070412288201D00EB02100160042060
:102650008DF808002188201D00EB01100068019012
:102660003448854205D101222E49334800F0DBFB76
:1026700004E002222C49314800F0D5FB2188201DBE
:1026800000EB011000798DF80A0000208DF8090098
:102690009DF80A202388201D00EB0310411D0DF139
:1026A0000B0006F087FB2088401C1E2190FBF1F2F6
:1026B00001FB1200208017E01C480078401C1B49D9
:1026C0000870084600780A280EDD1A48854205D1B0
:1026D0001B480068401C1A49086004E0194800685B
:1026E000401C1849086005E06946284602F0AAFA2D
:1026F0000428E1D000BF12480068052805DB01204E
:102700000B49087000200E4908600E480068052833
:1027100005DB01200649087000200A49086000BF57
:102720006DE700008C450020704700201700002056
:102730005825002000640040082C0020D8370020D5
:10274000180000201C00002010B50720FE4908706A
:102750004FF4FA60FD490881FD48FB49097880F88B
:1027600038100020FA490870487002208870B2EED4
:10277000040A084680ED010A4FF47A718160002155
:10278000C160B7EE000A80ED040AEF49097880F8CD
:1027900074100020EE4981F83C000021EC4880F8DC
:1027A0003D10022180F83E10B2EE040A80ED100ABE
:1027B0004FF47A71416400218164B7EE000A80ED24
:1027C000130AE149097880F8B0100020E04981F847
:1027D00078000021DE4880F87910022180F87A1014
:1027E000B2EE040A80ED1F0A4FF47A71C0F880102F
:1027F0000021C0F88410B7EE000A80ED220AD24909
:10280000097880F8EC100020D14981F8B40000214B
:10281000CF4880F8B510022180F8B610B2EE040A55
:1028200080ED2E0A4FF47A71C0F8BC100021C0F878
:10283000C010B7EE000A80ED310A002012E0C54951
:1028400091ED000AC0EB0011C14A02EB810181ED5C
:102850000D0AC0EB001102EB8101BC4C1CCC2831ED
:102860001CC1401C0428EADB10BD30B52DED028BE5
:1028700081B00446B0EE408A0D4600200090B64874
:102880004088401C1E2190FBF1F201FB1200B2496E
:102890000988884206D10120B049087201B0BDEC18
:1028A000028B30BD9FEDAE0A28EE000ABDEEC00AD5
:1028B00010EE101AA84A5388121D02EB0312501D85
:1028C0006A46FFF7D1FC44F07040A3494A88091DCD
:1028D00001EB021108600098C1B29F484288001DB8
:1028E00000EB021001719C484188001D00EB0110B3
:1028F000457399484088401C1E2190FBF1F201FB72
:1029000012009549488000BFC8E7F8B504460E4656
:1029100015460020009090484088401C1E2190FBE6
:10292000F1F201FB12008C490988884203D1012091
:102930008A490872F8BD88494A88091D01EB0211CD
:10294000481D6A463146FFF78FFC44F0704040F462
:10295000407181484288001D00EB02100160009820
:10296000C1B27D484288001D00EB021001717A4817
:102970004188001D00EB0110457377484088401CDA
:102980001E2190FBF1F201FB12007349488000BF49
:10299000D0E730B52DED028B81B00446B0EE408A11
:1029A0000D46002000906C484088401C1E2190FB82
:1029B000F1F201FB120068490988884206D1012022
:1029C0006649087201B0BDEC028B30BD9FED650A0F
:1029D00028EE000ABDEEC00A10EE101A5E4A5388B7
:1029E000121D02EB0312501D6A46FFF73DFC44F036
:1029F000704040F4807158484288001D00EB02107E
:102A000001600098C1B254484288001D00EB0210DA
:102A1000017151484188001D00EB011045734E487B
:102A20004088401C1E2190FBF1F201FB12004A4934
:102A3000488000BFC6E730B52DED028B81B004465B
:102A4000B0EE408A0D460020009043484088401C6C
:102A50001E2190FBF1F201FB12003F4909888842D8
:102A600006D101203D49087201B0BDEC028B30BD9A
:102A70009FED3C0A28EE000ABDEEC00A10EE101AC7
:102A8000354A5388121D02EB0312501D6A46FFF7A8
:102A9000EBFB44F0704040F400712F484288001D69
:102AA00000EB021001600098C1B22B484288001D63
:102AB00000EB0210017128484188001D00EB011055
:102AC000457325484088401C1E2190FBF1F201FB14
:102AD00012002149488000BFC6E730B52DED028BBA
:102AE00081B00446B0EE408A0D46002000901A489E
:102AF0004088401C1E2190FBF1F201FB1200164998
:102B00000988884206D101201449087201B0BDEC41
:102B1000028B30BD9FED130A28EE000ABDEEC00AFD
:102B200010EE101A0C4A5388121D02EB0312501DAE
:102B30006A46FFF799FB44F0704040F44061064854
:102B40004288001D10E000002000002054490020B1
:102B500060490020240000207047002058250020F4
:102B60000050C34700007A4400EB02100160009857
:102B7000C1B20C484288001D00EB021001710948E7
:102B80004188001D00EB0110457306484088401C39
:102B90001E2190FBF1F201FB12000249488000BFA8
:102BA000B4E700007047002030B502460023012939
:102BB00004D10120F64C6071062303E00120F44C9F
:102BC000A071062300202CE00024C0EB801502EB4E
:102BD000C5052C61C0EB801502EBC5052C73C0EB5D
:102BE000801542F83540C0EB801502EBC5056C60DE
:102BF0000025C0EB801402EBC404E5820024C0EB86
:102C0000801502EBC505AC82C0EB801502EBC50553
:102C1000AC600025C0EB801402EBC40484F825509E
:102C2000401C9842D0DB30BD2DE9F04105460E46F0
:102C300017464FF00008012F02D14FF0060801E0BF
:102C40004FF006080024E9E0C4EB841005EBC00057
:102C5000006901287EDBC4EB841005EBC000017B1A
:102C6000C4EB841005EBC000007B401CC4EB841255
:102C700005EBC20210731E296DDB3046FFF783FCA3
:102C800060B1C4EB841005EBC0008068401CC4EB4D
:102C9000841105EBC1018860BDE8F081C4EB8411AB
:102CA00005EBC10101F11400FFF764FC30B1002015
:102CB000C4EB841105EBC1018860EDE7C4EB84101F
:102CC00005EBC0000069401EC4EB841105EBC10197
:102CD00008610020C4EB841105EBC1010873C4EB4B
:102CE000841105EBC1018860C4EB841005EBC000C2
:102CF0001830C4EB841105EBC101898A00EB011087
:102D000072880168301D00EB02100160C4EB841072
:102D100005EBC0001830C4EB841105EBC101898AB2
:102D200000EB011001797288301D00EB0210017177
:102D3000C4EB841005EBC0001830C4EB841105EB24
:102D4000C101898A00EB0110417B7288301D00EBC4
:102D5000021001E052E031E04173C4EB841305EB53
:102D6000C3031833C4EB841C05EBCC0CBCF814C0B3
:102D700003EB0C13591DB6F802C0331D03EB0C1303
:102D80001A79331D03EB0C13581D06F013F87088E5
:102D9000401C1E2190FBF1F201FB12007080C4EB7D
:102DA000841005EBC000808A401C90FBF1F201FB0F
:102DB0001200C4EB841105EBC1018882C4EB8410BE
:102DC00005EBC00080680A280BD8C4EB841055F8C6
:102DD0003000C4EB841105EBC1014968401A322868
:102DE0001BDD4FF480706B4908836B48C4EB841182
:102DF00005EBC1010861012F01D100BF0DE014B145
:102E0000012C08D103E001206149087004E0012091
:102E10005F49087000E000BF00BF641C4445FFF636
:102E200013AF00BF38E72DE9F04104460E461746C0
:102E30004FF00008FF253188301D00EB0110407B6A
:102E400008B9BDE8F081012F02D14FF0060809E072
:102E50004FF006083188301D00EB01100088A0F209
:102E6000013085B245450DDAC5EB851104EBC10192
:102E700001F11400FFF787FB48B1012F03D10120B6
:102E80004349C87182E00120414908727EE0C5EBE8
:102E9000851004EBC0000069401CC5EB851104EBF4
:102EA000C1010861C5EB851054F83000401CC5EB2A
:102EB000851144F831003188301D00EB01100268A3
:102EC000C5EB851004EBC0001830C5EB851104EB91
:102ED000C101C98A00EB011002603188301D00EB8E
:102EE00001100279C5EB851004EBC0001830C5EB6A
:102EF000851104EBC101C98A00EB01100271318810
:102F0000301D00EB0110427BC5EB851004EBC000C7
:102F10001830C5EB851104EBC101C98A00EB011023
:102F20004273C5EB851304EBC3031833C5EB851C53
:102F300004EBCC0CBCF816C003EB0C131A79C5EBF0
:102F4000851304EBC3031833C5EB851C04EBCC0CD1
:102F5000BCF816C003EB0C13581DB6F800C0331DA7
:102F600003EB0C13591D05F025FFC5EB851004EB91
:102F7000C000C08A401C1E2190FBF1F201FB120030
:102F800081B2C5EB851004EBC000C18200BF58E7D9
:102F90005825002000000240F0D8FFFF0022826187
:102FA0000160C26100230362436280ED031A80ED79
:102FB000010AC0ED020AC0ED041A70470168826977
:102FC000891AC161C269016A511A00EE101AB8EE7D
:102FD000C00AD0ED010A20EE200A90ED021AC16964
:102FE00000EE901AF8EEE00A01EE200AC269416A8A
:102FF0000A44016AA2EB410100EE901AF8EEE00AE1
:1030000090ED031A01EE200ABDEEC00A10EE101A70
:103010004161026A4262C2690262704710B54FF4B0
:103020008050FA490880B7EE000A084680ED010A90
:103030004FF48050F6490880B7EE000A084680ED4C
:10304000010A4FF48050F3490880B7EE000AF248B5
:1030500080ED010A4FF48050EF490880B7EE000A76
:10306000084680ED010A0020EC4908709FEDEC0A4B
:10307000084680ED010A012008724FF47A704881F9
:10308000012008734FF4FA70C881C0000882401014
:10309000E4490882E448DE4A06CAC0E91212002068
:1030A000E1494870052008704FF4967088806421CB
:1030B000DD488160C1800021C1605030D44A06CA19
:1030C000C0E912120021503880F851100520D6496D
:1030D00081F850004FF49671D348A0F85410642141
:1030E0008165A0F856100021C165A030C84A06CA03
:1030F000C0E912120021A03880F8A1100520CA49A9
:1031000081F8A0004FF49671C748A0F8A41064217C
:10311000C0F8A810A0F8A6100021C0F8AC10002438
:1031200029E004EB8401C04A02EB011101F1200007
:103130001422BA4905F03EFE04EB8400BA4901EBC3
:103140000010B8490A68426389880187B548C18878
:1031500004EB8400B44A02EB0010418704EB8400C6
:10316000114601EB0010AF4B9A68D9681B69C0E9A2
:103170001013C263641C052CD3DB10BD10B586B0E0
:103180000446002001908DF80D008DF80C000820F9
:103190008DF80E0001208DF80F0000218DF8101021
:1031A0008DF811108DF812108DF813108DF8141081
:1031B0008DF815108DF8161001A9204601F042FD7A
:1031C00006B010BD0FB438B506AB0093009B02CB20
:1031D0000093009B04CB0093944B5B885B1C1E24E4
:1031E00093FBF4F504FB1533904C2488A34205D1DE
:1031F00001238F4C237238BC5DF814FB00F540733B
:103200008A4C6588241D04EB051423609DF8143056
:10321000012B22D10424854B5D881B1D03EB051374
:103220001C714124814B5D881B1D03EB05135C71F0
:1032300043247E4B5D881B1D03EB05139C7100240A
:103240007A4B5D881B1D03EB0513DC71774B5D88A2
:103250001B1D03EB05131C722CE09DF81430022B90
:1032600028D10824714B5D881B1D03EB05131C71CD
:1032700041246E4B5D881B1D03EB05135C714324D9
:103280006A4B5D881B1D03EB05139C710024674B83
:103290005D881B1D03EB0513DC71644B5D881B1DF2
:1032A00003EB05131C72614B5C881B1D03EB0413BD
:1032B000C3F809205D4B5D881B1D03EB0513597393
:1032C0005A4B5B885B1C1E2493FBF4F504FB1533FF
:1032D000564C63800023009300BF8CE710B5534A1F
:1032E0005288521C1E2392FBF3F403FB14224F4B13
:1032F0001B889A4203D101224D4B1A7210BD00F572
:1033000040724A4B5C881B1D03EB04131A600423B4
:10331000464A5488121D02EB041213714223434A99
:103320005488121D02EB0412537147233F4A5488FC
:10333000121D02EB0412937100233C4A5488121DA3
:1033400002EB0412D371394A5488121D02EB0412A5
:103350001372364A5388121D02EB03125173334A1B
:103360005288521C1E2392FBF3F403FB14222F4BB2
:103370005A8000BFC2E70FB438B506AB0093009B7C
:1033800002CB0093009B04CB0093284B5B885B1C13
:103390001E2493FBF4F504FB1533244C2488A3422C
:1033A00005D10123224C237238BC5DF814FB00F5D3
:1033B00040731E4C6588241D04EB051423609DF8A2
:1033C0001430012B36D10424184B5D881B1D03EBF0
:1033D00005131C714424154B5D881B1D03EB05135D
:1033E0005C714324114B5D881B1D03EB05139C711D
:1033F00000240E4B5D881B1D03EB0513DC710B4B8A
:103400005D881B1D03EB05131C7240E02C0000209F
:10341000340000203C00002044000020504A0020DE
:1034200000003444644A0020784A0020704700209D
:10343000582500209DF81430022B28D10824FD4B7C
:103440005D881B1D03EB05131C714424F94B5D883B
:103450001B1D03EB05135C714324F64B5D881B1D9C
:1034600003EB05139C710024F24B5D881B1D03EBDD
:103470000513DC71EF4B5D881B1D03EB05131C72FC
:10348000EC4B5C881B1D03EB0413C3F80920E94BCC
:103490005D881B1D03EB05135973E64B5B885B1CB2
:1034A0001E2493FBF4F504FB1533E24C63800023E8
:1034B000009300BF78E70FB478B507AB0093009B8B
:1034C00002CB0093009B04CB0093DA4B5B885B1C20
:1034D0001E2493FBF4F504FB1533D64C2488A34239
:1034E00005D10123D44C237278BC5DF814FB00F5A0
:1034F0004073D04C6588241D04EB051423609DF8AF
:103500001830012B22D10424CA4B5D881B1D03EB0C
:1035100005131C714A24C74B5D881B1D03EB051363
:103520005C715624C34B5D881B1D03EB05139C7116
:103530000024C04B5D881B1D03EB0513DC71BD4BE4
:103540005D881B1D03EB05131C7238E09DF81830D5
:10355000022B34D100EB8004B84D05EB0414B4F811
:10356000484054433C2594FBF5F30825B14C66884C
:10357000241D04EB061425714A25AE4C6688241DD3
:1035800004EB061465715625AA4C6688241D04EBCD
:103590000614A5710025A74C6688241D04EB0614AB
:1035A000E571A44C6688241D04EB06142572A14C19
:1035B0006588241D04EB0514C4F8093000BF9D4B39
:1035C0005D881B1D03EB051359739A4B5B885B1CCD
:1035D0001E2493FBF4F504FB1533964C6380002303
:1035E000009300BF80E710B5924A5288521C1E23F8
:1035F00092FBF3F403FB14228E4B1B889A4203D1F7
:1036000001228D4B1A7210BD00F54072894B5C8807
:103610001B1D03EB04131A600423864A5488121DF1
:1036200002EB041213714923824A5488121D02EBE3
:103630000412537151237F4A5488121D02EB041265
:10364000937100237B4A5488121D02EB0412D3713C
:103650008023784A5488121D02EB04121372754AB3
:103660005388121D02EB03125173724A5288521C86
:103670001E2392FBF3F403FB14226E4B5A8000BF0F
:10368000C1E70FB438B506AB0093009B02CB0093A3
:10369000009B04CB0093674B5B885B1C1E2493FB51
:1036A000F4F504FB1533634C2488A34205D10123B0
:1036B000614C237238BC5DF814FB00F540735D4C1F
:1036C0006588241D04EB051423609DF81430012B3C
:1036D00022D10424574B5D881B1D03EB05131C717D
:1036E0004D24544B5D881B1D03EB05135C714F2467
:1036F000504B5D881B1D03EB05139C7100244D4B43
:103700005D881B1D03EB0513DC714A4B5D881B1D97
:1037100003EB05131C723DE09DF81430022B39D1E8
:103720000824444B5D881B1D03EB05131C714D24BD
:10373000404B5D881B1D03EB05135C714F243D4B13
:103740005D881B1D03EB05139C710024394B5D88BC
:103750001B1D03EB0513DC71364B5D881B1D03EB52
:1037600005131C72334B5D881B1D03EB05135A7246
:10377000304B5D881B1D03EB05139C722D4B5D8840
:103780001B1D03EB0513DC722A4B5D881B1D03EB2D
:1037900005131C73274B5D881B1D03EB0513597321
:1037A000244B5B885B1C1E2493FBF4F504FB153350
:1037B000204C63800023009300BF7BE770B586B088
:1037C00006460C46154600208DF80C008DF80D00BD
:1037D00006F540700190012C0ED104208DF80E00EA
:1037E0004D208DF80F004F218DF8101000218DF81D
:1037F00011108DF8121017E0022C15D108208DF849
:103800000E004D208DF80F004F218DF81010002173
:103810008DF811108DF812108DF813508DF81410CA
:103820008DF815108DF8161001A9054801F00AFA57
:1038300006B070BD7047002058250020784A00204F
:10384000006400400FB438B50021002206AB00939D
:10385000009B02CB0093009B04CB0093F94B5B8849
:103860005B1C1E2493FBF4F504FB1533F54C2488F4
:10387000A34205D10123F44C237238BC5DF814FB3C
:1038800000F54073EF4C6588241D04EB051423609C
:103890009DF81430012B22D10424EA4B5D881B1DB6
:1038A00003EB05131C715024E64B5D881B1D03EBD5
:1038B00005135C714124E34B5D881B1D03EB05136D
:1038C0009C710024DF4B5D881B1D03EB0513DC712D
:1038D000DC4B5D881B1D03EB05131C722CE09DF86F
:1038E0001430022B28D10824D64B5D881B1D03EB16
:1038F00005131C715024D34B5D881B1D03EB05136E
:103900005C714124CF4B5D881B1D03EB05139C713B
:103910000024CC4B5D881B1D03EB0513DC71C94BE8
:103920005D881B1D03EB05131C72C64B5C881B1DB9
:1039300003EB0413C3F80920C24B5D881B1D03EB86
:1039400005135973BF4B5B885B1C1E2493FBF4F576
:1039500004FB1533BB4C63800023009300BF8CE74E
:1039600010B5B84A5288521C1E2392FBF3F403FB95
:103970001422B44B1B889A4203D10122B24B1A7213
:1039800010BD00F54072AF4B5C881B1D03EB0413A8
:103990001A600423AB4A5488121D02EB04121371FF
:1039A0005023A84A5488121D02EB04125371452378
:1039B000A44A5488121D02EB041293710023A14AF9
:1039C0005488121D02EB0412D3719E4A5488121DB2
:1039D00002EB041213729B4A5388121D02EB03126E
:1039E0005173984A5288521C1E2392FBF3F403FB36
:1039F0001422944B5A8000BFC2E710B5914A5288F6
:103A0000521C1E2392FBF3F403FB14228D4B1B88E4
:103A10009A4203D101228C4B1A7210BD00F54072FC
:103A2000884B5C881B1D03EB04131A600423854A32
:103A30005488121D02EB041213715023814A5488DA
:103A4000121D02EB0412537152237E4A5488121D38
:103A500002EB0412937100237A4A5488121D02EB80
:103A60000412D371774A5488121D02EB04121372A8
:103A7000744A5388121D02EB03125173714A528823
:103A8000521C1E2392FBF3F403FB14226D4B5A804D
:103A900000BFC2E70FB438B506AB0093009B02CB62
:103AA0000093009B04CB0093664B5B885B1C1E2439
:103AB00093FBF4F504FB1533624C2488A34205D133
:103AC0000123614C237238BC5DF814FB00F5407390
:103AD0005C4C6588241D04EB051423609DF81430AC
:103AE000012B22D10424574B5D881B1D03EB0513CA
:103AF0001C715024534B5D881B1D03EB05135C7137
:103B00005824504B5D881B1D03EB05139C7100244A
:103B10004C4B5D881B1D03EB0513DC71494B5D8825
:103B20001B1D03EB05131C722CE09DF81430022BB7
:103B300028D10824434B5D881B1D03EB05131C7122
:103B40005024404B5D881B1D03EB05135C71412421
:103B50003C4B5D881B1D03EB05139C710024394B06
:103B60005D881B1D03EB0513DC71364B5D881B1D47
:103B700003EB05131C72334B5C881B1D03EB041312
:103B8000C3F809202F4B5D881B1D03EB05135973E8
:103B90002C4B5B885B1C1E2493FBF4F504FB153354
:103BA000284C63800023009300BF8CE70FB438B526
:103BB00006AB0093009B02CB0093009B04CB0093C9
:103BC000204B5B885B1C1E2493FBF4F504FB153330
:103BD0001C4C2488A34205D101231B4C237238BC02
:103BE0005DF814FB00F54073164C6588241D04EB4A
:103BF000051423609DF81430012B27D10424114BA8
:103C00005D881B1D03EB05131C7153240D4B5D8850
:103C10001B1D03EB05135C7144240A4B5D881B1DBF
:103C200003EB05139C710024064B5D881B1D03EB01
:103C30000513DC71034B5D881B1D03EB05131C7220
:103C400031E0000070470020582500209DF8143016
:103C5000022B28D10824FE4B5D881B1D03EB0513A6
:103C60001C715324FA4B5D881B1D03EB05135C711B
:103C70004424F74B5D881B1D03EB05139C71002446
:103C8000F34B5D881B1D03EB0513DC71F04B5D8866
:103C90001B1D03EB05131C72ED4B5C881B1D03EB16
:103CA0000413C3F80920EA4B5D881B1D03EB0513C1
:103CB0005973E74B5B885B1C1E2493FBF4F504FBF4
:103CC0001533E34C63800023009300BF87E70FB4F4
:103CD00038B506AB0093009B02CB0093009B04CB4E
:103CE0000093DB4B5B885B1C1E2493FBF4F504FB09
:103CF0001533D74C2488A34205D10123D54C237218
:103D000038BC5DF814FB00F54073D14C6588241D68
:103D100004EB051423609DF81430012B22D10424F8
:103D2000CB4B5D881B1D03EB05131C715324C84B43
:103D30005D881B1D03EB05135C715024C44B5D882B
:103D40001B1D03EB05139C710024C14B5D881B1DDB
:103D500003EB0513DC714024BD4B5D881B1D03EB99
:103D600005131C729DF81430022B28D10824B84B7F
:103D70005D881B1D03EB05131C715324B44B5D8838
:103D80001B1D03EB05135C715024B14B5D881B1D9B
:103D900003EB05139C710024AD4B5D881B1D03EBE9
:103DA0000513DC71AA4B5D881B1D03EB05131C7208
:103DB000A74B5C881B1D03EB0413C3F80920A44B1D
:103DC0005D881B1D03EB05135973A14B5B885B1CBE
:103DD0001E2493FBF4F504FB15339D4C63800023F4
:103DE000009300BF8CE710B5994A5288521C1E23DD
:103DF00092FBF3F403FB1422954B1B889A4203D1E8
:103E00000122944B1A7210BD00F54072904B5C88F1
:103E10001B1D03EB04131A6004238D4A5488121DE2
:103E200002EB041213715323894A5488121D02EBCA
:103E3000041253715423864A5488121D02EB041253
:103E400093710023824A5488121D02EB0412D3712D
:103E50007F4A5488121D02EB041213727C4A538865
:103E6000121D02EB03125173794A5288521C1E2311
:103E700092FBF3F403FB1422754B5A8000BFC2E798
:103E80000FB438B506AA0092009A02CA0092009AAE
:103E9000126800EE102A009A121D00926C4A528895
:103EA000521C1E2392FBF3F403FB1422684B1B8865
:103EB0009A4205D10122674B1A7238BC5DF814FB97
:103EC00000F54072624B5C881B1D03EB04131A6003
:103ED0009DF81420022A33D1F8EEC00A9FED5E1A35
:103EE000C0EE811AFDEEE10A10EE902A0824584B2C
:103EF0005D881B1D03EB05131C715424544B5D8816
:103F00001B1D03EB05135C714324514B5D881B1D86
:103F100003EB05139C7100244D4B5D881B1D03EBC7
:103F20000513DC714A4B5D881B1D03EB05131C72E6
:103F3000474B5C881B1D03EB0413C3F8092000BF2B
:103F4000434A5488121D02EB04125173404A5288AE
:103F5000521C1E2392FBF3F403FB14223C4B5A80A9
:103F60000022009200BFA8E70FB438B506AB00935B
:103F7000009B02CB0093009B04CB0093344B5B88E7
:103F80005B1C1E2493FBF4F504FB1533304C248892
:103F9000A34205D101232F4C237238BC5DF814FBDA
:103FA00000F540732A4C6588241D04EB051423603A
:103FB0009DF81430012B22D10424254B5D881B1D54
:103FC00003EB05131C715524214B5D881B1D03EB6E
:103FD00005135C714D241E4B5D881B1D03EB0513FF
:103FE0009C7100241A4B5D881B1D03EB0513DC71CB
:103FF000174B5D881B1D03EB05131C7244E09DF8F5
:104000001430022B40D10824114B5D881B1D03EB9B
:1040100005131C7155240E4B5D881B1D03EB051306
:104020005C714D240A4B5D881B1D03EB05139C71CD
:104030000024074B5D881B1D03EB0513DC71044B4B
:104040005D881B1D03EB05131C72014B5D8805E0A9
:1040500070470020582500200000C8421B1D03EBBC
:1040600005135A72394B5D881B1D03EB05139C72B7
:10407000364B5D881B1D03EB0513DC72334B5D88EB
:104080001B1D03EB05131C73304B5D881B1D03EBDD
:10409000051359732D4B5B885B1C1E2493FBF4F5B1
:1040A00004FB1533294C63800023009300BF74E7A1
:1040B00010B5264A5288521C1E2392FBF3F403FBD0
:1040C0001422224B1B889A4203D10122204B1A72E0
:1040D00010BD00F540721D4B5C881B1D03EB0413E3
:1040E0001A600423194A5488121D02EB041213713A
:1040F0005623164A5488121D02EB0412537158239A
:10410000124A5488121D02EB0412937100230F4AC5
:104110005488121D02EB0412D3710C4A5488121DEC
:1041200002EB04121372094A5388121D02EB0312A8
:104130005173064A5288521C1E2392FBF3F403FB70
:104140001422024B5A8000BFC2E7000070470020D3
:104150005825002010B52348006840F0010021498F
:10416000086041F657300906C8620B2008850846EA
:10417000008840F4807008800846008A20F0010022
:1041800008820846808940F001008881084600883E
:1041900040F00100088003231C220121084600F0A2
:1041A0003BF910BD10B54FF08040008A00F00100CF
:1041B00078B10D4880690D490968884209DD0023FE
:1041C000322202210120FFF782FD00210120FFF7AA
:1041D00085F84FF08040008A20F001004FF08041C8
:1041E000088210BD40380240784A0020A09A00089A
:1041F0002DE9F0410C461546069E4C4FB84209D9B0
:1042000039464B4F3F6847F48007DFF824C1CCF8AC
:10421000007008E04749464F3F6847F40017DFF851
:1042200010C1CCF8007000BF076807F00107002F2D
:10423000FAD1471A103F4FF0180CB7FBFCF7FAB24F
:10424000062A10DBCF68A2F1060C0CEB4C0C4FEAEF
:104250004C0C0CF1100C4FF03D0808FA0CF847EA32
:104260000807CF602FE0042A0EDBCF68A2F1040C10
:104270000CEB4C0C4FEA4C084FF03D0C0CFA08FCD0
:1042800047EA0C07CF601EE0022A10DB8F68A2F11C
:10429000020C0CEB4C0C4FEA4C0C0CF1100C4FF0D8
:1042A0003D0808FA0CF847EA08078F600BE08F68B2
:1042B00002EB420C4FEA4C084FF03D0C0CFA08FCA4
:1042C00047EA0C078F608560C3604660002707607F
:1042D000076847F0400707600768076007680760DE
:1042E000076847F48067076007680760076807602A
:1042F000076847F48037076007680760076807604A
:10430000076847EA44670760BDE8F081026822F069
:104310000102026000BF026802F00102002AFAD125
:104320004160026842F0010202607047006402408E
:10433000303802400060024030B502460B464FF66E
:10434000FF70002112E0555C684000240AE000F094
:10435000010525B14AF2010585EA600000E0401040
:10436000651CECB2082CF2DB4D1CE9B29942EADB89
:1043700030BD2DE9FE4305460E4617469846280AED
:104380008DF80100E8B28DF80000300A8DF80300C6
:10439000F0B28DF80200380A8DF80500F8B28DF8F9
:1043A00004004FEA18208DF8070008F0FF008DF890
:1043B000060008216846FFF7BFFF04462046E117C4
:1043C00004EB11610912A4EB0121C9B28DF80810A8
:1043D000E11704EB1161090A8DF809100A216846FA
:1043E000FCF773FFBDE8FE834A0A52020243FE4B0C
:1043F0001A6070470146072323EA01021202FA4BB2
:104400001B1D18684FF6FF031840F84B1843104364
:10441000F54B1B1D186070472DE9F0410746884693
:1044200014461D462846FFF7E5FFC5F1040007FACC
:1044300000F60F20284100EA0800064306F00F06A8
:10444000E21704EBD2625211920002F1E022D2F89C
:1044500000212146E31704EBD3635B11A4EB431C5B
:10446000012303FA0CF31A432046E31704EBD3634A
:104470005B119B0003F1E023C3F80021DC48005DE1
:1044800040EA0610DA490855BDE8F081F0B5034668
:104490000846CD1701EB9575AD10A1EB8505AD066E
:1044A0002C0ED448006840F48040D24D2860CD17CF
:1044B00001EB9575AE10D04D55F826500F26A6404D
:1044C000B5430846CE1701EB9676B710CA4E46F8AC
:1044D0002750CD1701EB9575AE10C74D55F82650F6
:1044E00003FA04F63543CE1701EB9676B710C24EA9
:1044F00046F82750C148006801258D402843BF4D2C
:10450000286002F0010040B1BC480C300068012571
:104510008D402843B94D0C35286002F0020040B1AF
:10452000B6480830006801258D402843B34D083552
:104530002860F0BD30B5CC1000F1200353F82430D2
:104540004C07E50E0F24AC40A343CD1000F120042E
:1045500044F82530CC1000F1200353F824304C07E8
:10456000E40E02FA04F42343CD1000F1200444F8D1
:10457000253030BD2DE9F0470C46DDE90867002104
:1045800000258C4600BF60E04FF0010808FA01F5F5
:1045900004EA050CAC4557D1D0F800804FEA410A37
:1045A0004FF0030909FA0AF928EA0908C0F800805F
:1045B000D0F800804FEA410902FA09F948EA0908EF
:1045C000C0F80080012A01D0022A27D1D0F8088043
:1045D0004FEA410A4FF0030909FA0AF928EA0908E3
:1045E000C0F80880D0F808804FEA410906FA09F9B6
:1045F00048EA0908C0F80880D0F804904FF0010894
:1046000008FA01F829EA0809C0F80490D0F80480F3
:1046100003FA01F948EA0908C0F80480D0F80C80D0
:104620004FEA410A4FF0030909FA0AF928EA090892
:10463000C0F80C80D0F80C804FEA410907FA09F95C
:1046400048EA0908C0F80C80491C10299CD3BDE831
:10465000F08710B564480830006840F004006249F3
:10466000083108606348001F006840F080506149CD
:10467000091F08606248406840F4807060494860E3
:104680000846006840F0040008600846006840F0F2
:1046900002000860FBF782FD10BD5448001D52491E
:1046A000091D08607047F0B504460D460021002042
:1046B000504E443E366846F480364E4F443F3E608E
:1046C00001E04E1CB1B24B4E443E366806F4003653
:1046D0001EB941F6FF76B142F3DB41F6FF76B142F7
:1046E00001D1012063E0434E361F366846F0805604
:1046F000404F3F1F3E60424E366846F44046404FB2
:104700003E603C4E3C3E366846F41446394F3C3FD2
:104710003E60384E443E366826F08076354F443F42
:104720003E6045EA84160127C7EB520746EA074672
:1047300046EA036646F480062E4F403F3E603E1F29
:10474000366846F080763F1F3E6000BF294E443EEB
:10475000366806F00076002EF8D02A4E366846F409
:104760008076284F3E603E46366846F400763E60CE
:104770003E46366846F480663E603E46366846F001
:1047800005063E601B4E3C3E366826F00306194F78
:104790003C3F3E603E46366846F002063E6000BF43
:1047A000144E3C3E366806F00C06082EF8D1F0BDDB
:1047B000F0B504460D4616461F460E4844380068BC
:1047C00040F001000B4944390860002009493C3998
:1047D00008600848443800680B49084005494439D6
:1047E00008600A48091D13E008ED00E00000FA0522
:1047F00000E400E04438024008380140003C014039
:1048000000700040003C0240FFFFF6FE1030002424
:104810000860081F006820F48020091F086000203D
:10482000064908603B46324629462046FFF73BFFD3
:1048300000210846FFF7D8FDF0BD00000C3802400B
:1048400032490143324A1160704770B5002100239C
:104850000F22C4781CB32E4C246804F4E064C4F521
:10486000E064C4F30721C1F10404E3B20A414478CF
:104870009C40E1B28478144021430C07210E254C62
:1048800005786155047804F01F050124AC400578D3
:104890006D11AD0005F1E025C5F8004109E004788F
:1048A00004F01F050124AC401B4D0678761145F835
:1048B000264070BD194A0A400243154B1B1F1A605F
:1048C000704739B1124A121D12680243104B1B1D6A
:1048D0001A6006E00E4A121D126882430C4B1B1D23
:1048E0001A607047042808D14FF0E021096941F0AF
:1048F00004014FF0E022116107E04FF0E021096967
:1049000021F004014FF0E022116170470000FA0528
:104910000CED00E000E400E080E100E080FFFF1F1C
:1049200010B50446FE48844209D10121480601F031
:1049300012FA00214FF0007001F00DFA08E0012199
:10494000880601F008FA00214FF0806001F003FAB8
:1049500010BD30B5024600200023146824F0020484
:104960001460146844F00104146000E05B1C546897
:1049700004F001041CB94FF6FF74A342F6D1546849
:1049800004F001040CB900206CE08C79012C04D1F6
:10499000146844F08004146003E0146824F0800478
:1049A0001460CC79012C04D1146844F040041460E4
:1049B00003E0146824F0400414600C7A012C04D144
:1049C000146844F02004146003E0146824F0200408
:1049D00014604C7A012C04D1146844F01004146063
:1049E00003E0146824F0100414608C7A012C04D1C4
:1049F000146844F00804146003E0146824F0080408
:104A00001460CC7A012C04D1146844F004041460BE
:104A100003E0146824F0040414608C78A407CD78B3
:104A200044EA05640D7944EA05444D7944EA0554A5
:104A30000D886D1E2C43D461146824F001041460A9
:104A4000002300E05B1C546804F001041CB14FF625
:104A5000FF74A342F6D1546804F001040CB10020A5
:104A600000E0012030BD10B50021837A012202FA56
:104A700003F1AC4A126842F00102AA4B1A60A94A3B
:104A80001C3212688A43A74B1C331A60027BCAB9D6
:104A9000A44A0C3212688A43A24B0C331A60428833
:104AA000C38842EA03439F4A4032847A42F8343052
:104AB0000288838842EA03439A4A4032847A02EBAE
:104AC000C4025360027B012A19D1964A0C32126843
:104AD0000A43944B0C331A604288038842EA03432A
:104AE000904A4032847A42F83430C288838842EA5D
:104AF00003438C4A4032847A02EBC4025360C27A88
:104B00003AB9884A121D12688A43864B1B1D1A60E7
:104B100006E0844A121D12680A43824B1B1D1A606C
:104B2000028932B97F4A143212688A437D4B1433AA
:104B30001A600289012A06D17A4A143212680A439D
:104B4000784B14331A60427B012A06D1754A1C3215
:104B500012680A43734B1C331A60724A126822F0BF
:104B60000102704B1A6010BD00218171C171017288
:104B700041728172C1728170C17003210171022181
:104B800041710121018070476649096841F00101C6
:104B9000644A11601146096843F60E729143614AF6
:104BA00011601146096841EA002111601146096847
:104BB00021F001011160704721B1026842F4803296
:104BC000026003E0026822F4803202607047E1B1C3
:104BD000026842F0800202604FF4C272125842F43E
:104BE00080734FF4C27213504FF4CA72125842F4D9
:104BF00080734FF4CA7213504FF4D272125842F4B9
:104C000080734FF4D27213501BE0026822F08002CE
:104C100002604FF4C272125822F480734FF4C272D1
:104C200013504FF4CA72125822F480734FF4CA72B0
:104C300013504FF4D272125822F480734FF4D27290
:104C40001350704710B502460020936803F080634C
:104C5000B3F1806F00D110E0936803F00063B3F10B
:104C6000006F01D1012008E0936803F08053B3F195
:104C7000805F01D1022000E00420042879D002F5F1
:104C8000C07303EB00131B6803F0010402F5C0734B
:104C900003EB00131C600B7A7BB94B7A0C8843EA58
:104CA000445302F5C07404EB00142468234302F556
:104CB000C07404EB0014236010E00B7A4C6843EAE4
:104CC000C4034C7A234302F5C07404EB0014246837
:104CD000234302F5C07404EB001423608B7A03F0C5
:104CE0000F038B7202F5C07303EB00135B6823F0B4
:104CF0000F0402F5C07303EB00135C6002F5C07390
:104D000003EB00135B688C7A234302F5C07404EB59
:104D1000001463608B7B1C064B7B44EA034403E076
:104D200000640040006600400B7B44EA0323CC7A19
:104D3000234302F5C07404EB0014A3608B7C1C06B3
:104D40004B7C44EA03440B7C44EA0323CC7B23439F
:104D500002F5C07404EB0014E36002F5C07303EBCA
:104D600000131B6843F0010402F5C07303EB00134A
:104D70001C6010BD10B50246002321B1012907D0E7
:104D800002290FD109E09068F94C00EA04030BE016
:104D90009068F84C00EA040306E09068F64C00EADC
:104DA000040301E0002300BF00BFF44C181BA34222
:104DB00016D007DC83B16FF08060184470B1022810
:104DC00018D111E0B0F5007F10D0ED4C204448B16F
:104DD000B0F5003F0ED10BE002230DE000230BE005
:104DE000002309E0002307E0012305E0012303E09D
:104DF000012301E0002300BF00BFD8B210BD21B1E4
:104E0000012907D002290FD109E0826842F080020F
:104E100082600AE0826842F40042826005E08268B3
:104E200042F40002826000E000BF00BF704710B58E
:104E300000F5D87303EB01131B6803F0040313722E
:104E4000137A53B900F5D87303EB01131B6840F2D2
:104E5000FF7404EA5353136009E000F5D87303EBC1
:104E600001131B686FF0604404EAD303536000F53C
:104E7000D87303EB01131B6803F00203537200F5B0
:104E8000D87303EB01135B6803F00F03937200F513
:104E9000D87303EB01135B681B0AD37400F5D87356
:104EA00003EB01139B68D37200F5D87303EB011376
:104EB0009B681C0A147300F5D87303EB01139B68FD
:104EC0001C0C547300F5D87303EB01139B681B0E85
:104ED000937300F5D87303EB0113DB68D37300F50C
:104EE000D87303EB0113DB681C0A147400F5D87344
:104EF00003EB0113DB681C0C547400F5D87303EB4F
:104F00000113DB681B0E937421B9C36843F02003BF
:104F1000C36003E0036943F02003036110BD21B9BE
:104F2000C26842F02002C26003E0026942F020023F
:104F3000026170470246002019B9D36803F00300EC
:104F400006E0012903D1136903F0030000E000200B
:104F5000704710B502460B4600204FF6FF71BBB9F3
:104F6000146824F0020444F00104146000E0491EB7
:104F7000546804F00304012C01D00029F7D15468CF
:104F800004F00304012C01D0002032E0012030E0C5
:104F9000012B13D1146824F00304146000E0491EAF
:104FA000546804F003040CB10029F8D1546804F0EB
:104FB00003040CB100201CE001201AE0022B17D1E1
:104FC000146824F0010444F00204146000E0491E57
:104FD000546804F00304022C01D00029F7D154686E
:104FE00004F00304022C01D0002002E0012000E0C4
:104FF000002010BD014600200A6822F0010242F0A4
:1050000002020A604A6802F00302022A00D101206B
:10501000704701464FF6FF7200200B6823F0020331
:105020000B6000E0521E4B6803F00203022B01D11B
:10503000002AF7D14B6803F00203022B00D00120B5
:105040007047014600208A6902F0700070470146EF
:1050500000208A69100E7047014600208A69C2F359
:10506000074070471AB143690B43436102E043694B
:105070008B434361704710B50246002001F4700372
:1050800043B19369C1F3130423400BB101202DE018
:1050900000202BE001F0807343B15368C1F3130487
:1050A00023400BB1012021E000201FE001F000634C
:1050B00043B19368C1F3130423400BB1012015E001
:1050C000002013E001F0007343B1D368C1F313046F
:1050D00023400BB1012009E0002007E01369C1F370
:1050E000130423400BB1012000E0002010BD00227A
:1050F000244B994202D10023836111E0C1F31302D2
:1051000001F000730BB1C2600AE001F080630BB1E3
:10511000026105E001F000630BB1826000E04260D3
:1051200070470246002002EA01030BB1012000E0B3
:105130000020704770B504460D460026606928407F
:10514000002872D0B5F5807F69D01DDC082D42D0D3
:1051500006DC012D2DD0022D31D0042D7FD134E07D
:10516000102D3ED0202D42D0402D78D145E00000BA
:105170000300000400030008000003100001000801
:105180000001FFF77000F030B5F5004F61D009DC89
:10519000B5F5007F4AD0B5F5806F4DD0B5F5006FFD
:1051A0005DD150E0B5F5803F2DD0B5F5003F56D12B
:1051B0002FE0A0685549FFF7B4FF064651E0E068CC
:1051C0000321FFF7AEFF06464BE0E0680821FFF73A
:1051D000A8FF064645E0E0681021FFF7A2FF06465B
:1051E0003FE020690321FFF79CFF064639E0206974
:1051F0000821FFF796FF064633E020691021FFF7EC
:1052000090FF06462DE060680821FFF78AFF0646FA
:1052100027E060681021FFF784FF064621E0A069BF
:105220000121FFF77EFF06461BE01BE0A06902217B
:10523000FFF777FF064614E0A0690421FFF771FF2E
:1052400006460EE00BE0A0697021FFF76AFF0646F4
:1052500007E060680421FFF764FF064601E00026CE
:1052600000BF00E00026304670BDB1F5007F3AD0A7
:105270000FDC202928D006DC01291CD004291DD0F0
:10528000082940D11DE0402921D0B1F5807F3AD1D5
:1052900026E0B1F5004F31D006DCB1F5806F25D0A6
:1052A000B1F5006F2FD124E0B1F5803F12D0B1F5F8
:1052B000003F28D111E0154A826025E00822C26033
:1052C00022E01022C2601FE0082202611CE01022CE
:1052D000026119E00822426016E01022426013E0E9
:1052E0000422426010E0042242600DE00422426089
:1052F0000AE0002282610422426005E0002282610D
:105300000422426000E000BF00BF704701010100BD
:10531000016821F0010101600021016041608160AC
:10532000C160016121214161DB49884204D13D21F5
:10533000D94A103A91608CE0D7491831884205D19A
:105340004FF47461D44A103A916082E0D24930310E
:10535000884205D14FF47411CF4A103A916078E039
:10536000CD494831884205D14FF07461CA4A103A9C
:1053700091606EE0C8496031884204D1C749C64A8D
:10538000103AD16065E0C4497831884204D1C449FB
:10539000C14A103AD1605CE0BF499031884204D1E3
:1053A000C049BD4A103AD16053E0BB49A831884298
:1053B00005D14FF03D51B84A103AD16049E0BA49A1
:1053C000884204D13D21B84A083A116041E0B6490B
:1053D0001831884205D14FF47461B34A083A11601C
:1053E00037E0B1493031884205D14FF47411AE4AEB
:1053F000083A11602DE0AC494831884205D14FF0A0
:105400007461A94A083A116023E0A74960318842D3
:1054100004D1A249A44A121F11601AE0A2497831AE
:10542000884204D19E49A04A121F116011E09E4992
:105430009031884204D19B499B4A121F116008E0B9
:105440009949A831884204D14FF03D51964A121F24
:105450001160704710B500220268944B1A40CC6866
:105460000B6823434C6923438C692343CC69234352
:105470000C6A23434C6A23438C6A23434C6B2343BB
:105480008C6B23431A430260426922F00702D1E980
:105490000B3423431A4342610B6943604B688360BA
:1054A0008B68C36010BD0021016041608160C160F4
:1054B000016141618161C161016241628162C162D8
:1054C000016341638163704721B1026842F00102C8
:1054D000026003E0026822F001020260704721B11D
:1054E000026842F40042026003E0026822F40042D3
:1054F0000260704721B1026842F02002026003E0BE
:10550000026822F020020260704741607047014645
:10551000486880B2704722B1036843F400230360F7
:1055200003E0036823F4002303600161704721B1A5
:10553000026842F48022026003E0026822F48022C2
:10554000026070470AB1016100E0C1607047014626
:1055500000200A6802F400220AB1012000E00020C5
:105560007047014600200A6802F001020AB10120DA
:1055700000E000207047014600204A6902F0380030
:10558000704730B503460A4600200024464DAB4222
:1055900002D24149103901E04349103902F0005567
:1055A0000DB14C6800E00C68414D2C4004EA020546
:1055B0000DB1012000E0002030BD02463A4B9A4276
:1055C00002D23548103801E03748103801F0005356
:1055D0001BB1374B0B40C36002E0354B0B4083607F
:1055E000704710B501F080034BB122B1436943F01D
:1055F0008003436103E0436923F080034361802912
:105600000BD02AB1036801F01E042343036004E0B9
:10561000036801F01E04A343036010BD70B5024689
:10562000002000240025204EB24202D21A4B103B2B
:1056300001E01D4B103B1F4E0E4036B11E2606EA00
:10564000D124166806EA040502E0566906F08005D2
:1056500001F000560EB15C6800E01C68144E344046
:1056600004EA010616B10DB1012000E0002070BD72
:1056700002460D4B9A4202D20748103801E00A4810
:10568000103801F000531BB1094B0B40C36002E01E
:10569000074B0B4083607047106002403D000020C4
:1056A000400F002000003D20106402403F801CF0AD
:1056B0007D0F7D0F3C0F3C0F10B504468C48844293
:1056C00008D10121084600F000FB0021012000F074
:1056D000FCFA5EE08748844208D10121022000F0F4
:1056E000F4FA0021022000F0F0FA52E082488442ED
:1056F00008D10121042000F0E8FA0021042000F084
:10570000E4FA46E07D48844208D10121082000F0F7
:10571000DCFA0021082000F0D8FA3AE07848844208
:1057200008D10121102000F0D0FA0021102000F053
:10573000CCFA2EE07348844208D10121202000F0E9
:10574000C4FA0021202000F0C0FA22E06E48844212
:1057500008D10121402000F0B8FA0021402000F0DB
:10576000B4FA16E06948844208D10121802000F093
:10577000ACFA0021802000F0A8FA0AE064488442D4
:1057800007D10121801500F0A0FA0021A01500F03A
:105790009CFA10BDF0B50A4600210023002400BF8A
:1057A0003DE0012505FA01F3156805EA03049C4272
:1057B00034D105684F000326BE40B5430560157916
:1057C0004E00B5400668354305601579012D02D0BD
:1057D0001579022D16D185684F000326BE40B543CA
:1057E000856055794E00B5408668354385604568CB
:1057F00001268E40B5434560456896798E40B6B225
:1058000035434560C5684F000326BE40B543C560BB
:10581000D5794E00B540C6683543C560491C10298E
:10582000BFD3F0BD4FF6FF710160002101714171DE
:105830008171C171704708B54FF480320092009AAF
:105840000A430092009AC261C161009AC261C269B2
:105850000092C269009208BD0246002013690B4005
:105860000BB1012000E0002070470146086980B2BA
:1058700070470246002053690B400BB1012000E045
:10588000002070470146486980B270470183704725
:10589000418370470AB1018300E041837047416151
:1058A000704742694A4042617047F0B500230024C6
:1058B0004D07ED0E02FA05F3CE1000F1200555F864
:1058C00026504E07F70E0F26BE40B543CF1000F10D
:1058D000200646F82750CE1000F1200555F8265036
:1058E00045EA0304CE1000F1200545F82640F0BD3E
:1058F000000002400004024000080240000C024088
:10590000001002400014024000180240001C024037
:1059100000200240FA48006840F00100F8490860A1
:105920000020F74908310860F5480068F54908404B
:10593000F3490860F448091D0860081F006820F456
:105940008020091F08600020ED490C310860704775
:105950000021EB4A921C117011460870704710B577
:1059600001460022002300204A11012A02D1E44C02
:10597000236808E0022A03D1E14C7034236802E076
:10598000DF4C7434236801F01F02012494401C4052
:105990000CB1012000E0002010BD38B500200090BF
:1059A0000024002500BF3120FFF7D9FF05460098ED
:1059B000401C00900098B0F5A06F01D0002DF2D0EF
:1059C0003120FFF7CCFF08B1012400E0002420467D
:1059D00038BD01460020CA4A106820F0F80040EAAD
:1059E000C10010607047C949086070470021C44A6F
:1059F000703211701170012802D004280AD104E01D
:105A00000121BF4A7032117005E00521BC4A703295
:105A1000117000E000BF00BF7047BD4908607047CB
:105A200070B5049C41EA82150126C6EB530645EA8F
:105A30000645054345EA0465B14E361D356070BD27
:105A4000B24908667047820142EA0172AC4B843366
:105A50001A607047AD4988667047AC49C8647047A2
:105A600002460020A64B0833186820F0EC6042EA9A
:105A700001031843A24B0833186070470246002008
:105A80009F4B0833186820F0784042EA010318431E
:105A90009B4B08331860704701460020984A083233
:105AA000106820F0030008431060704794480830E5
:105AB000006800F00C00704701460020904A083250
:105AC000106820F0F0000843106070470146002085
:105AD0008B4A0832106820F4E05008431060704789
