:020000040800F2
:1000000048B60020699F0008719F0008739F000890
:10001000759F0008779F0008799F00080000000086
:100020000000000000000000000000007B9F0008AE
:100030007D9F0008000000005FC50008C3C70008DE
:10004000839F0008839F0008839F0008839F000808
:10005000839F0008839F0008839F0008839F0008F8
:10006000839F0008839F0008839F0008839F0008E8
:10007000839F0008839F0008839F0008839F0008D8
:10008000839F0008FD460008839F0008839F0008A7
:10009000B7050008839F0008839F0008839F00081E
:1000A000839F0008839F0008839F0008839F0008A8
:1000B000ED0F0008CB130008839F0008839F000802
:1000C000839F0008839F0008839F0008839F000888
:1000D000839F0008839F000823470008839F000830
:1000E000839F0008839F0008839F0008839F000868
:1000F000839F0008839F0008839F0008839F000858
:10010000839F0008839F0008839F0008839F000847
:10011000839F0008839F0008839F0008839F000837
:10012000839F0008839F0008839F0008839F000827
:10013000839F0008839F0008839F0008839F000817
:10014000A30900083F0B0008839F0008839F000855
:10015000839F0008839F0008ED450008839F0008E7
:10016000839F0008839F0008839F0008839F0008E7
:10017000839F0008839F0008839F0008839F0008D7
:10018000839F0008839F0008DFF80CD00CF004FE6A
:10019000004800476503000848B6002030BF72B62B
:1001A000704762B6704780F30888704709E0002303
:1001B0001A461946184607F0BEF84FF496700CF030
:1001C000D7F8F4E700BF8A4806F040FF05200CF09E
:1001D000CFF8874806F03AFF05200CF0C9F88448AC
:1001E00006F034FF05200CF0C3F82EE081480078BB
:1001F00038B3814890F8040118B380480068414240
:100200007F4881607D48006841427D48C0F83411D4
:1002100044F620600CF0ACF87748B0F8D40000F554
:10022000B47001B27448A0F8D4100020714908706D
:1002300044F620600CF09CF8002171488160C0F801
:1002400034114FF4FA700CF093F8CFE74BE006F05E
:10025000CAFD6C48007810B906F041FE3FE010205E
:1002600069494883674840684468002533E020783E
:1002700000F00F0060B98020634908832078C0F344
:100280000311402006F065FE20205F49488311E0FD
:10029000207800F00F01802006F05BFE2078C0F38C
:1002A0000311402006F055FE2088C0F303212020D2
:1002B00006F04FFE64684FF47A700CF059F8402055
:1002C00051490883802008832020088341F2707000
:1002D0000CF04EF86D1C4B480078A842C7DC4FF478
:1002E0007A700CF045F8B2E705E004F0A0FE4FF498
:1002F0007A700CF03DF8F8E770B50446002500BFB1
:100300000CF075FA0CF00AF9054600200BF09FFA84
:100310003E49086019233E4A00213E480BF0E2FCAA
:100320001E233D4A00213D480BF0DCFC28233C4ABB
:1003300000213C480BF0D6FC37233B4A00213B48C8
:100340000BF0D0FC64200CF013F8002006F02FFE18
:10035000022006F062FE05200BF042FF28460CF05A
:10036000E1F870BD10B540F6B83006F06AFC09F04F
:1003700061FD4FF4806101F007022D4B18684FF6C4
:10038000FF0318402B4B034343EA0220284B18601D
:1003900000BF2948006840F007002749086006F0C0
:1003A00093FD06F02FFE06F0EBFD06F065FC00F075
:1003B0004BF800F053F904F0ABF804F039F900F011
:1003C000D1FF00F0EBFD04F03EF805F0AEFF022196
:1003D0001A4806F06DF809F011FF0523184A0021AC
:1003E00018480BF07FFC0AF030F8002010BD000028
:1003F00000640040440000205821002048000020F4
:10040000EC2900204C0000200000024000000020E9
:10041000E40C0020E9020008E40E00204D02000870
:10042000E41E0020C5010008E4200020AD01000802
:100430000CED00E00000FA0530380240004A0020D0
:10044000E4040020F902000800B58BB00121480641
:1004500009F069F90121084609F032F909220B2156
:100460007B4808F072FF09220C21794808F06DFFE3
:1004700002208DF81C004FF4C050069006A9744865
:1004800008F0D8FE00208DF826008DF827008DF8A2
:1004900028008DF829008DF82A008DF82B008DF8A2
:1004A00022008DF8230008208DF8240003208DF809
:1004B0002500ADF8200008A9664807F09AFF022041
:1004C0008DF8120001208DF8130000208DF8140023
:1004D00046F22000ADF8080046F24000ADF80A00F0
:1004E00046F26000ADF80C004FF4C140ADF80E00CC
:1004F0000020ADF8100001208DF8150002A808F0CA
:1005000002F804208DF8120001208DF8130000205D
:100510008DF8140046F2A000ADF8080046F2C000C5
:10052000ADF80A0046F2E000ADF80C004FF4C2400E
:10053000ADF80E000020ADF8100001208DF8150078
:1005400002A807F0E0FF05208DF8120001208DF8C9
:10055000130000208DF8140046F22010ADF80800BA
:100560004FF4C440ADF80A004FF4C840ADF80C0099
:1005700046F22040ADF80E000020ADF8100001203A
:100580008DF8150002A807F0BEFF14208DF80400B6
:1005900003208DF8050000208DF8060001208DF85D
:1005A000070001A807F0A1FE01220221294808F056
:1005B000A9FA0BB000BD00B585B00221254808F0AE
:1005C00009FB78B10221234808F09FFB0221214852
:1005D00008F0DDFA6A4600211E4808F078F9032089
:1005E0001D49887005B000BD10B586B004461A4894
:1005F000807800F0010048B11748807800F00200D0
:1006000020B91548807800F00400F0B9207A28B9A4
:1006100000208DF80C0020688038019000208DF8B3
:100620000D00A07A8DF80E00A27A04F10B010DF1F5
:100630000F000CF00FF99DF80F004030C0B28DF89C
:100640000F0001A9034808F04DF806B010BD0000E6
:1006500000000240006400406400002000B58BB040
:100660000121880609F05FF809220521FE4808F0FB
:100670006CFE09220621FC4808F067FE02208DF876
:1006800018006020059005A9F74808F0D3FD402028
:100690008DF8280002208DF8290000208DF82A000E
:1006A00001208DF82B000AA807F01FFE41208DF8CD
:1006B000280002208DF8290001208DF82A008DF8ED
:1006C0002B000AA807F011FE00208DF822008DF8FB
:1006D00023008DF824008DF825008DF826008DF874
:1006E00027008DF81E008DF81F0008208DF82000CF
:1006F00003208DF82100ADF81C0007A9DB4807F0A6
:1007000078FE0E208DF80E0001208DF80F000020DD
:100710008DF8100044F22000ADF8040044F24000CF
:10072000ADF8060044F26000ADF808004FF48140D7
:10073000ADF80A000020ADF80C0001208DF8110082
:1007400001A807F0E0FE0F208DF80E0001208DF8C3
:100750000F0000208DF8100044F2A000ADF8040056
:1007600044F2C000ADF8060044F2E000ADF8080025
:100770004FF48240ADF80A000020ADF80C000120D3
:100780008DF8110001A807F0BEFE10208DF80E00B4
:1007900001208DF80F0000208DF8100045F2200098
:1007A000ADF8040045F24000ADF8060045F26000E7
:1007B000ADF808004FF4A140ADF80A000120ADF8F3
:1007C0000C008DF8110001A807F09DFE11208DF896
:1007D0000E0001208DF80F0000208DF8100045F26A
:1007E000A000ADF8040045F2C000ADF8060045F2E7
:1007F000E000ADF808004FF4A240ADF80A00012077
:10080000ADF80C008DF8110001A807F07CFE122055
:100810008DF80E0001208DF80F0000208DF81000DB
:1008200043F22000ADF804004FF44150ADF806004B
:1008300043F26000ADF808004FF44250ADF80A00F2
:100840000120ADF80C008DF8110001A807F05BFE47
:1008500013208DF80E0001208DF80F0000208DF878
:10086000100043F2A000ADF804004FF44350ADF87F
:10087000060043F2E000ADF808004FF44450ADF834
:100880000A000120ADF80C008DF8110001A807F056
:100890003AFE14208DF80E0000208DF80F00012084
:1008A0008DF810000020ADF804004FF49040ADF832
:1008B00006004FF6FF70ADF808004FF47840ADF831
:1008C0000A000120ADF80C008DF8110001A807F016
:1008D0001AFE15208DF80E0001208DF80F00002063
:1008E0008DF810004BF22000ADF804004BF24000F0
:1008F000ADF806004BF28000ADF80800ADF80A0034
:100900000120ADF80C008DF8110001A807F0FBFDE7
:1009100016208DF80E0001208DF80F0000208DF8B4
:1009200010004FF48150ADF804004FF48250ADF840
:1009300006004FF48350ADF808004FF48450ADF832
:100940000A000120ADF80C008DF8110001A807F095
:10095000DAFD17208DF80E0001208DF80F00002021
:100960008DF810004FF48550ADF804004FF4865018
:10097000ADF806004FF48750ADF808004FF48850EA
:10098000ADF80A000120ADF80C008DF8110001A8A7
:1009900007F0B9FD01221021344808F0B3F80BB07C
:1009A00000BD10B52DED0C8B86B002212F4808F04C
:1009B00011F900287ED001AA00212C4807F087FFFA
:1009C00002212A4808F0A1F90198B0F5007F72D9F8
:1009D0000198B0F5027F6ED89DF80D0000286AD10D
:1009E0000198401EC4B204A9481E03F03AFD0DF15F
:1009F0001201481E03F035FD05A9481E03F031FD24
:100A0000BDF80F1004EB840000EBC400184A02EBA1
:100A100000100184BDF8111004EB840000EBC40049
:100A200002EB00100183BDF8131004EB840000EB0F
:100A3000C40002EB0010C18204EB840101EBC4018D
:100A400002EB0111B1F8C0000CF036F841EC1A0BC2
:100A500004EB840101EBC401054A02EB011191F89A
:100A6000C2000CF029F805E00004024000680040D4
:100A70005821002041EC1C0B04EB840000EBC40067
:100A8000FE4A02EB0010C06900EE100AB8EEC00A80
:100A9000DFEDFB0A20EE200A10EE101A08460CF0DB
:100AA00050F853EC1C2B0BF087FF53EC1A2B0BF078
:100AB00083FF01E02DE02BE041EC190B04EB8400F7
:100AC00000EBC400ED4901EB001090ED321BB0EEDD
:100AD000410AF0EE610A53EC102B51EC190B0BF0AC
:100AE0006BFF0BF0F6FF00B204EB840101EBC401D5
:100AF000E24A02EB011188820BF0EAFC04EB84016C
:100B000001EBC401DD4A02EB0111C1F8B80000BFDE
:100B100000BF06B0BDEC0C8B10BD4168491C4160A4
:100B2000002101730169491E0161828A511CCA17A3
:100B300001EB92629211A1EB82128282704710B592
:100B400086B01021CF4808F045F800287ED001AAD1
:100B50000121CC4807F0BBFE1021CA4808F0D5F8A7
:100B60001021C84808F013F89DF80C0004286ED135
:100B70009DF80D000028FAD10090029800F0FE04C4
:100B800009210298B1EB102F7ED169460DF10F00BB
:100B900006F011F8C4EB041101EB8101BA4A02EB33
:100BA000810191F8201190FBF1F1C4EB041000EBEE
:100BB000800002EB8000C16169469FEDB40A0DF12F
:100BC0000F0006F02EF8C4EB041000EB8000AE49D5
:100BD00001EB800080ED060A6946B2EE040A0DF1D1
:100BE0000F0006F01EF8C4EB041000EB8000A649CD
:100BF00001EB800080ED080A0DF11601481E03F09C
:100C000030FCBDF81510C4EB041000EB80009E4AC8
:100C100002EB8000A0F8F610C4EB041000EB80009B
:100C2000114601EB8000B0F8F610C4EB041000EBA5
:100C3000800002EB8000B0F8F800081A01B2C4EBA3
:100C4000041000EB800002EB800001E0E0E0DEE059
:100C5000A0F8F210C4EB041000EB8000114601EB89
:100C6000800090F8F40090B10021C4EB041000EB78
:100C7000800002EB800080F8F410C4EB041000EB5D
:100C8000800002EB800000E0B5E0A0F8F210C4EBB9
:100C9000041000EB80007C4901EB8000B0F8F610F6
:100CA000C4EB041000EB8000774A02EB8000A0F850
:100CB000F810C4EB041000EB8000114601EB80003B
:100CC000B0F9F200002808DDC4EB041000EB80004E
:100CD00001EB8000B0F9F20009E0C4EB041000EB76
:100CE0008000694901EB8000B0F9F2004042B0F5A4
:100CF000E16F27DDC4EB041000EB8000624901EBDB
:100D00008000B0F9F210C4EB041000EB80005E4AE2
:100D100002EB8000B0F9F200002802DA4FF0FF3059
:100D200000E00120C0EB4012C2EB0020A1EB00105C
:100D300001B2C4EB041000EB8000534A02EB8000C8
:100D4000A0F8F210C4EB041000EB80004E4901EB58
:100D50008000416AC4EB041000EB80004A4A02EBB9
:100D60008000B0F9F2000144C4EB041000EB8000F5
:100D700002EB80004162C4EB041000EB80001146DE
:100D800001EB80000169C4EB041000EB800002EB72
:100D90008000406A091AC4EB041000EB800002EBEB
:100DA0008000C0F80411C4EB041000EB8000114671
:100DB00001EB80004078F0B1C4EB041000EB800040
:100DC00001EB800090ED080AC4EB041000EB8000FA
:100DD00001EB800080ED3F0AC4EB041000EB8000C3
:100DE00001EB8000416AC4EB041000EB800002EBD1
:100DF0008000C0F800110BF06BFBC4EB041101EB99
:100E00008101214A02EB8101C1F8EC0000BF00BF63
:100E100006B010BD70B5044604EB840000EBC400BE
:100E2000164901EB0010B0F90600002808DD04EBBC
:100E3000840000EBC40001EB0010B0F9060009E0EB
:100E400004EB840000EBC4000C4901EB0010B0F986
:100E50000600404204EB840101EBC401074A02EBA7
:100E60000111B1F8C41088422CDD04EB840000EBC2
:100E7000C400114601EB00100AE0000058210020D8
:100E80000000B44300680040EC29002000007A44D0
:100E9000B0F90600002802DA4FF0FF3000E0012030
:100EA00004EB840101EBC401374A02EB0111B1F8F4
:100EB000C410484301B204EB840000EBC40002EB11
:100EC0000010C18004EB840000EBC4002E4901EB4C
:100ED0000010007840B9002104EB840000EBC4004E
:100EE000294A02EB0010C180042C04DA4FF4007090
:100EF0002649086003E040F2FF1024490860002002
:100F00002249487208720820887204F00B004500DC
:100F100004EB840000EBC4001B4901EB0010C18806
:100F20001A480B30415302466B1CD118501903F07C
:100F300098FA032C01D0072C03D11449144807F068
:100F4000D1FB70BD30B585B005460C461148019007
:100F500000208DF8090004208DF8080003208DF88A
:100F60000A0056208DF80B004C218DF80C108DF8DE
:100F70000D408DF80E506946054807F0B3FB064852
:100F8000447005B030BD000058210020E82000204A
:100F900000680040010103003031002010B5EB482B
:100FA000006840F00100E949086041F65730090641
:100FB000C8620B2008850846008840F480700880CD
:100FC0000846008A20F0010008820846808940F027
:100FD000010088810846008840F001000880032352
:100FE0001C220121084606F0F9F910BD70B54FF03A
:100FF0008040008A00F00100002878D000241BE126
:10100000C4EB041101EB8101D14A02EB810002F033
:10101000EBFBC4EB041000EB8000CD4911F820007D
:10102000002871D0C4EB041000EB800001EB8000BD
:101030004078002870D0C4EB041000EB800001EB76
:101040008000C078092865D2DFE800F01605274047
:101050006452565A6000C4EB041101EB8101BC4A92
:1010600002EB8101D1ED010AB0EE600A611CC8B249
:10107000002102F0C1FB4EE0C4EB041101EB810141
:10108000B34A02EB8101D1ED050AB0EE600A611CA2
:10109000C8B2002103F0C0F83DE0C4EB041202EB3B
:1010A0008202AB4B03EB82029268C4EB041303EBA6
:1010B0008303A74D05EB830393F8203102FB03F173
:1010C000621CD0B2002202F06FFE24E0C4EB0411D7
:1010D00001EB81019E4A02EB8101D1ED420AB0EEA3
:1010E000600A611CC8B2002103F0E8F813E0A6E032
:1010F000E0B202F0C1FF0EE0E0B202F09BFE0AE0B7
:10110000E0B202F04BFC06E017E005E0E0B202F0CE
:10111000C6FB00E000BF17E0C4EB041101EB810146
:101120008B4A02EB8101D1ED420AB0EE600A611CEC
:10113000C8B2002103F0C2F806E0611CC8B2002169
:101140009FED840A02F058FBC4EB041000EB800012
:101150007F4911F8200040B30BF0BAF9C4EB041139
:1011600001EB81017A4A02EB8101D1F8EC10411ABE
:10117000C4EB041000EB800002EB8000B0F8F0003C
:10118000814212D9C4EB041000EB8000114601EB40
:10119000800090F8E800401CC4EB041101EB8101D1
:1011A00002EB810181F8E80009E00020C4EB0411A2
:1011B00001EB8101664A02EB810181F8E800C4EB92
:1011C000041000EB8000624901EB800090F8E80019
:1011D0000A2815DD0121C4EB041000EB80005C4AF5
:1011E00002EB800080F82D10621C032343EA0212F8
:1011F00092B242F48071584A506803F05CF91AE0E8
:101200000021C4EB041000EB8000514A02EB800087
:1012100080F82D10621C032343EA021292B242F4BA
:1012200080714D4A506803F038F905464A494868CC
:10123000294603F01CF9641C042CFFF6E1AE4FF0C4
:101240008040008A20F001004FF08041088270BD8C
:1012500070B542490878411C404A1170032807DDE7
:1012600000201146087000220121104601F058FDAF
:10127000002464E004EB8400394901EB001040785D
:1012800000B30BF025F904EB8401354A02EB0111A0
:10129000096C411A04EB840002EB0010B0F8440022
:1012A00081420FD904EB8400114601EB001090F845
:1012B0003C00401CC1B204EB840002EB001080F83B
:1012C0003C1007E0002104EB8400254A02EB0010EB
:1012D00080F83C1004EB8400214901EB001090F8E9
:1012E0003C000A2812DD012104EB84001C4A02EBB9
:1012F0000010C177621C022343EA021292B242F448
:101300008071154A506803F0D6F817E0002104EB0D
:101310008400134A02EB0010C177621C022343EAE7
:10132000021292B242F480710B4A506803F0B5F891
:10133000054609494868294603F099F8641C042CBD
:1013400098DB70BD7047704770470000403802401E
:10135000EC290020000000004C00002004000020C8
:101360000028002010B52748006840F002002549F9
:10137000086042F22730244908600720091F0880CE
:1013800021482C38008840F480701F492C3908808F
:101390001D481C38008820F001001B491C390880BA
:1013A000081F008840F00100091F088016482C38EB
:1013B000008840F0010014492C39088003231D22C5
:1013C0000021012006F00AF810BD10B50E481C38A7
:1013D000008800F0010058B10C490D4804F0ADFF41
:1013E0000C48407A20B1022208490B4805F0B0F8B9
:1013F00005481C38008820F0010003491C3908808A
:1014000010BD0000403802402C040040986A0020C3
:101410000068004030310020004A002070B52DEDFA
:101420000E8B00BF4FF40050FE490880FE49088033
:101430002420FC4988701320FB49887042F2283030
:10144000F849888043F69910F74988809FEDF70B9B
:10145000F44880ED020B9FEDF50B084680ED020B82
:101460000120F44908724FF47A7048810020087313
:1014700008709FEDF10A084680ED010A4FF4FA70FA
:10148000C881400008824000EC498883002404EBB6
:10149000840000EBC400EA4901EB00108030E24D0B
:1014A0002ECD40302EC0002004EB840101EBC4019E
:1014B000E34A02EB01110870012004EB840101EB07
:1014C000C40102EB01114870042004EB840101EB1C
:1014D000C40102EB011188704FF2542004EB840127
:1014E00001EBC40102EB01118880642104EB84004C
:1014F00000EBC40002EB0010018104EB840000EB60
:10150000C40002EB0010C180D16804EB840202EB3E
:10151000C402CB4B03EB021202F13C00DFEDC91A0F
:101520009FEDC91ADFEDC90AB1EE040A05F02EFAE3
:10153000C34AB2F9081004EB840202EBC402C04BA8
:1015400003EB021202F16400F7EE001A9FEDBE1ADF
:10155000DFEDBF0AB2EE000A05F018FA04EB8401D1
:1015600001EBC401B64A02EB011101F18C00142217
:10157000B0490BF06FF9012404EB840000EBC400C8
:10158000AF4901EB00108030A74D2ECD40302EC06A
:10159000002004EB840101EBC401A94A02EB011114
:1015A0000870012004EB840101EBC40102EB01117E
:1015B0004870052004EB840101EBC40102EB01112A
:1015C0008870002004EB840101EBC40102EB0111DF
:1015D00088804FF47A7104EB840000EBC40002EBC6
:1015E00000100181642104EB840000EBC40002EBD5
:1015F0000010C180D16804EB840202EBC402904B5E
:1016000003EB021202F13C00DFED8E1A9FED8E1A01
:10161000DFED8E0AB1EE040A05F0B8F9884AB2F996
:10162000081004EB840202EBC402854B03EB0212A8
:1016300002F16400F7EE001A9FED831ADFED840AD1
:10164000B2EE000A05F0A2F904EB840101EBC4013B
:101650007B4A02EB011101F18C00142275490BF059
:10166000F9F8002501E105EB850000EBC5007449A0
:1016700001EB001071490968C0F8A0106F4841687B
:1016800005EB850000EBC5006D4A02EB0010C0F8C9
:10169000A41005EB850101EBC50102EB011101F17D
:1016A000A8000A22654908310BF0D4F86348418A42
:1016B00005EB850000EBC500614A02EB0010A0F8C5
:1016C000B21005EB850000EBC500114601EB0010E0
:1016D000A0305A4B59699A69DB6914300EC005EB8A
:1016E000850101EBC501564A02EB0111B1F8C000BA
:1016F0000BF0E2F941EC1A0B05EB850101EBC5019A
:101700004F4A02EB011191F8C2000BF0D5F941EC00
:101710001C0B05EB850000EBC500494A02EB0010ED
:1017200090ED240A10EE101A08460BF00AFA41EC6C
:101730001E0B05EB850000EBC500414901EB0010D5
:1017400090ED321BB0EE410AF0EE610A53EC102B23
:1017500051EC1E0B0BF0BEF853EC1C2B0BF0BAF83F
:1017600053EC1A2B0BF0B6F89FED3A0B53EC102B01
:101770000BF022F90BF0CCF905EB850101EBC5016B
:101780002F4A02EB0111C1F8A00005EB850101EB26
:10179000C50102EB0111B1F8C0000BF08DF941EC6D
:1017A0001A0B05EB850101EBC501254A02EB01117E
:1017B00091F8C2000BF080F941EC1C0B05EB8501A0
:1017C00001EBC5011E4A02EB0111B1F904000BF057
:1017D00062F941EC1E0B05EB850000EBC5001849D2
:1017E00001EB001090ED321BB0EE410AF0EE610A01
:1017F00053EC102B51EC1E0B0BF06CF853EC1C2B24
:101800000BF068F853EC1A2B0BF064F89FED110BFA
:1018100053EC102B0BF0D0F80BF05BF905EB8501C6
:101820001CE000000021002010210020000000002A
:101830000000F03F202100200000FA433421002066
:1018400058210020CDCCCC3E00000000CDCC4C3E39
:101850009A99993E000000000080764001EBC50196
:10186000FE4A02EB0111C8606D1C082DFFF6FBAEAD
:10187000BDEC0E8B70BD002239210A54C2610021DB
:101880008182704710B5044604EB840000EBC4006D
:10189000F24901EB0010D0ED1D0A04EB840000EBCF
:1018A000C40001EB0010B0F9080000EE100AB8EE19
:1018B000C00A20EE800ABDEEC00A10EE100A04EB4A
:1018C000840101EBC401E54A02EB0111486604EB17
:1018D000840000EBC400114601EB0010B0F91810B1
:1018E00004EB840000EBC40002EB0010C16704EBC2
:1018F000840101EBC40102EB011101F1640005F068
:10190000DFF804EB840000EBC400D44901EB0010C5
:10191000C18804EB840000EBC400D04A02EB001045
:10192000806F084401B204EB840000EBC40002EBBA
:101930000010C18010BD10B52DED0E8B044604EBD8
:10194000840101EBC401C54A02EB0111B1F8C000EA
:101950000BF0B2F841EC1A0B04EB840101EBC4016B
:10196000BE4A02EB011191F8C2000BF0A5F841EC60
:101970001C0B04EB840101EBC401B84A02EB01111A
:10198000B1F904000BF087F841EC1E0B04EB840066
:1019900000EBC400B14901EB001090ED321BB0EE3A
:1019A000410AF0EE610A53EC102B51EC1E0B0AF0C9
:1019B00091FF53EC1C2B0AF08DFF53EC1A2B0AF00D
:1019C00089FF1FED5C0B53EC102B0AF0F5FF0BF0B9
:1019D00080F804EB840101EBC401A04A02EB011181
:1019E000C86004EB840000EBC400114601EB00105A
:1019F000C06804EB840101EBC40102EB0111C86370
:101A000004EB840000EBC400114601EB00104078A9
:101A100070B904EB840000EBC40001EB0010D0F8B7
:101A2000A40004EB840101EBC40102EB0111C863C3
:101A300004EB840000EBC400884901EB001090F82F
:101A40008C0088B304EB840000EBC40001EB0010B1
:101A5000C06B002807DD04EB840000EBC40001EB41
:101A60000010C06B08E004EB840000EBC4007B496D
:101A700001EB0010C06B404204EB840101EBC40198
:101A8000764A02EB0111D1F8A01088421FD904EB6D
:101A9000840000EBC400114601EB0010C06B00286D
:101AA00003DA4FF0FF3001E011E0012004EB840184
:101AB00001EBC401694A02EB0111D1F8A0104843BF
:101AC00004EB840101EBC40102EB0111C86304EBD8
:101AD000840000EBC400614901EB0010C16904EB14
:101AE000840000EBC4005D4A02EB0010416504EB8A
:101AF000840101EBC40102EB011101F13C0004F08F
:101B0000DFFF04EB840000EBC400544901EB00103C
:101B100090F8940088B304EB840000EBC40001EB60
:101B20000010406E002807DD04EB840000EBC400C9
:101B300001EB0010406E08E004EB840000EBC400F1
:101B4000464901EB0010406E404204EB840101EB7A
:101B5000C401424A02EB0111B1F8961088421FDD20
:101B600004EB840000EBC400114601EB0010406E52
:101B7000002803DA4FF0FF3001E011E0012004EB10
:101B8000840101EBC401354A02EB0111B1F8961052
:101B9000484304EB840101EBC40102EB01114866E8
:101BA00004EB840000EBC4002C4901EB0010B0F9F9
:101BB000181004EB840000EBC400284A02EB00106C
:101BC000C16704EB840101EBC40102EB011101F1D7
:101BD000640004F075FF04EB840000EBC4001F49AF
:101BE00001EB0010C18804EB840000EBC4001B4A29
:101BF00002EB0010806F084401B204EB840000EB9C
:101C0000C40002EB0010C18004EB840000EBC400B0
:101C1000114601EB0010D0F8AC00002808DD04EB01
:101C2000840000EBC40001EB0010D0F8AC0009E028
:101C300004EB840000EBC400084901EB0010D0F86D
:101C4000AC0040423C280EDA012004EB840101EB99
:101C5000C401024A02EB011102E0000058210020F9
:101C600081F8340009E0002004EB840101EBC40199
:101C7000FE4A02EB011181F83400BDEC0E8B10BD61
:101C800010B5044604EB840000EBC400F74901EBF7
:101C90000010B0F99A0004EB840101EBC401F34A8F
:101CA00002EB0111486604EB840000EBC40011460E
:101CB00001EB0010B0F9181004EB840000EBC40035
:101CC00002EB0010C16704EB840101EBC40102EBDD
:101CD000011101F1640004F0F3FE04EB840000EB59
:101CE000C400E24901EB0010C18804EB840000EB62
:101CF000C400DE4A02EB0010806F084401B204EB1E
:101D0000840000EBC40002EB0010C18004EB8400EF
:101D100000EBC400114601EB0010B0F906000028EA
:101D200008DD04EB840000EBC40001EB0010B0F907
:101D3000060009E004EB840000EBC400CB4901EB92
:101D40000010B0F906004042C949098A88421ADDEC
:101D500004EB840000EBC400C44901EB0010B0F9AF
:101D60000600002802DA4FF0FF3000E00120C049F1
:101D7000098A484301B204EB840000EBC400BB4A6B
:101D800002EB0010C18004EB840000EBC400B749F3
:101D900001EB0010B0F9A800002808DD04EB840076
:101DA00000EBC40001EB0010B0F9A80009E004EB5F
:101DB000840000EBC400AD4901EB0010B0F9A800AD
:101DC0004042322814DA04EB840000EBC400A74937
:101DD00001EB0010B0F8B000401C81B204EB8400AD
:101DE00000EBC400A14A02EB0010A0F8B01009E01B
:101DF000002104EB840000EBC4009C4A02EB0010BD
:101E0000A0F8B01004EB840000EBC400974901EB8C
:101E10000010B0F8B000FA2821DD002104EB8400A6
:101E200000EBC400914A02EB0010A0F8B01004EBE4
:101E3000840000EBC40002EB0010C161052004EB3C
:101E4000840101EBC40102EB01118870012104EB54
:101E5000840000EBC40002EB001080F8351010BDC8
:101E600070B500241EE204EB840000EBC4007F493F
:101E700001EB0010018C04EB840000EBC4007B4AF2
:101E800002EB0010008E081A01B204EB840000EB94
:101E9000C40002EB0010A0F8A81004EB840000EBD3
:101EA000C400114601EB0010808A04EB840101EBB1
:101EB000C40102EB0111888404EB840000EBC40030
:101EC000114601EB0010C18A04EB840000EBC40052
:101ED00002EB0010C18404EB840000EBC400114647
:101EE00001EB0010018B04EB840000EBC40002EB5B
:101EF0000010018504EB840000EBC400114601EBE7
:101F00000010C16904EB840000EBC40002EB001078
:101F1000C16204EB840000EBC400114601EB001029
:101F2000018C04EB840000EBC40002EB001001867E
:101F300004EB840000EBC400114601EB0010B0F983
:101F4000A800002808DD04EB840000EBC40001EBCE
:101F50000010B0F9A80009E004EB840000EBC40015
:101F6000424901EB0010B0F9A8004042B0F57A6F89
:101F70002CDD04EB840000EBC4003C4901EB0010B5
:101F8000B0F9A81004EB840000EBC400374A02EB60
:101F90000010B0F9A800002802DA4FF0FF3000E08E
:101FA000012004EB840202EBC402304B03EB02126B
:101FB000B2F8C02000FB121001B204EB840000EB69
:101FC000C4001A4602EB0010A0F8A81004EB84002D
:101FD00000EBC400254901EB0010C16904EB84004B
:101FE00000EBC400214A02EB0010B0F9A800014444
:101FF00004EB840000EBC40002EB0010C16104EBB1
:10200000840000EBC400114601EB0010C16904EB31
:10201000840000EBC40002EB0010C068091A04EB56
:10202000840000EBC40002EB0010C0F8AC1004EB1D
:10203000840000EBC400114601EB0010007800287A
:102040007CD004EB840000EBC40001EB0010B0F97D
:10205000061004EB840000EBC40002EB0010B0F8A3
:10206000C400081A002818DD04E0000058210020F0
:102070002021002004EB840000EBC400114601EB9A
:102080000010B0F9061004EB840000EBC40002EB72
:102090000010B0F8C400081A12E004EB840000EB52
:1020A000C400824901EB0010B0F8C41004EB8400B6
:1020B00000EBC4007D4A02EB0010B0F90600081ADC
:1020C000322847DD04EB840000EBC400774901EBC4
:1020D0000010B0F8B200401C81B204EB840000EBA9
:1020E000C400724A02EB0010A0F8B21004EB8400A6
:1020F00000EBC400114601EB0010B0F8B200B0F5DF
:102100007A7F1CDD012104EB840000EBC40002EBAC
:10211000001080F8361004EB840000EBC400114678
:1021200001EB001090F89800F0B1002004EB84015E
:1021300001EBC40102EB0111087015E00AE0002177
:1021400004EB840000EBC400584A02EB001080F856
:10215000361009E0002104EB840000EBC400534A70
:1021600002EB0010A0F8B21004EB840000EBC400F6
:102170004E4901EB0010407878B104EB840000EB8D
:10218000C40001EB0010C16904EB840000EBC40043
:10219000464A02EB0010C0F8A41004EB840000EBE8
:1021A000C400424901EB001090F8390040B104EB43
:1021B000840101EBC4013D4A02EB0110FFF75BFB18
:1021C00004EB840000EBC400384901EB00100078F8
:1021D000E8B30AF07DF904EB840101EBC401334A52
:1021E00002EB0111D1F8B810411A04EB840000EBA6
:1021F000C40002EB0010B0F8BC00814236D904EBF9
:10220000840000EBC400114601EB001090F8B4000C
:10221000401CC1B204EB840000EBC40002EB0010D0
:1022200080F8B4100A2916DD012104EB840000EBCC
:10223000C40002EB001080F83710621C012343EA4F
:10224000021292B242F48071194A506800E00DE027
:1022500002F031F925E0002104EB840000EBC4001A
:10226000124A02EB001080F837101AE0002104EB4C
:10227000840000EBC4000D4A02EB001080F8B4109B
:10228000621C012343EA021292B242F48071084AAE
:10229000506802F002F9054605494868294602F0EF
:1022A000E6F8641C082CFFF6DEAD70BD5821002056
:1022B0004C00002010B54FF48040FC490880B7EE78
:1022C000000A084680ED010A4FF48040F849088072
:1022D000B7EE000A084680ED010A4FF47A60F5492E
:1022E00008809FEDF50A084680ED010A4FF47A60F8
:1022F000F24908809FEDF20A084680ED010A0020AD
:10230000F04908709FEDF00A084680ED010A0020B0
:1023100008724FF47A704881002008734FF4FA7005
:10232000C881400008824000E8490882002428E073
:1023300004EB8401E64A02EB011101F120001422B2
:10234000E0490AF087FA04EB8400E14901EB001050
:10235000DE490A68426389880187DC48C18804EB4A
:102360008400DB4A02EB0010418704EB8400114635
:1023700001EB0010D54B9968DA681B693C300EC040
:10238000641C052CD4DB10BD10B586B004460020BB
:1023900001908DF80D008DF80C0008208DF80E00CE
:1023A00001208DF80F0000218DF810108DF811100C
:1023B0008DF812108DF813108DF814108DF815107B
:1023C0008DF8161001A9204606F08CF906B010BD54
:1023D0000FB438B5044606A80090009802C80090D3
:1023E000009804C80090BB4B5B88581CC31700EBD7
:1023F00093639B11A0EB8313B64D2D88AB4205D19F
:102400000120B54BD87238BC5DF814FB04F5407060
:10241000B04B5D881B1D03EB051318609DF814007D
:10242000012822D10423AB484588001D00EB05108C
:1024300003714123A7484588001D00EB0510437137
:102440004323A4484588001D00EB05108371002339
:10245000A0484588001D00EB0510C3719D484588C4
:10246000001D00EB051003722CE09DF814000228FB
:1024700028D1082397484588001D00EB05100371FB
:10248000412394484588001D00EB05104371432308
:1024900090484588001D00EB0510837100238D488E
:1024A0004588001D00EB0510C3718A484588001D52
:1024B00000EB0510037287484388001D00EB0310F2
:1024C000C0F8092083484588001D00EB05104173C2
:1024D000804B5B88581CC31700EB93639B11A0EBE8
:1024E00083137C4D6B800020009000BF8BE710B5FC
:1024F0000246784B5B88581CC31700EB93639B1113
:10250000A0EB8313734C2488A34203D10120724BA8
:10251000D87210BD02F540706E4B5C881B1D03EB3A
:102520000413186004236B484488001D00EB04105A
:102530000371422367484488001D00EB0410437177
:10254000472364484488001D00EB04108371002376
:1025500060484488001D00EB0410C3715D48448846
:10256000001D00EB041003725A484388001D00EB65
:1025700003104173574B5B88581CC31700EB9363E0
:102580009B11A0EB8313534C638000BFC1E70FB4D2
:1025900038B5044606A80090009802C8009000983C
:1025A00004C800904B4B5B88581CC31700EB936327
:1025B0009B11A0EB8313474D2D88AB4205D1012021
:1025C000454BD87238BC5DF814FB04F54070414BA4
:1025D0005D881B1D03EB051318609DF8140001288E
:1025E00022D104233B484588001D00EB05100371F0
:1025F000442338484588001D00EB051043714323F0
:1026000034484588001D00EB0510837100233148D4
:102610004588001D00EB0510C3712E484588001D3C
:1026200000EB051003722CE09DF81400022828D15D
:10263000082328484588001D00EB0510037144233A
:1026400024484588001D00EB0510437143232148B1
:102650004588001D00EB0510837100231D48458847
:10266000001D00EB0510C3711A484588001D00EBE2
:102670000510037217484388001D00EB0310C0F8D3
:10268000092014484588001D00EB05104173114BCB
:102690005B88581CC31700EB93639B11A0EB83135B
:1026A0000C4D6B800020009000BF8BE708000020DD
:1026B0001000002018000020CDCC6C40200000202D
:1026C000E4389641D827002000003444EC2700204D
:1026D00000280020986A0020303100200FB478B51F
:1026E00007A90091009904C90091009908C90091B7
:1026F000FE4C6488611CCC1701EB9464A411A1EB1F
:102700008414FA4D2D88AC4205D10121F84CE172B8
:1027100078BC5DF814FB00F54071F44C6588241D0D
:1027200004EB051421609DF81810012922D104241E
:10273000EE494D88091D01EB05110C714A24EB4946
:102740004D88091D01EB05114C715624E7494D8850
:10275000091D01EB05118C710024E4494D88091D08
:1027600001EB0511CC71E1494D88091D01EB051103
:102770000C7239E09DF81810022935D1441E04EB83
:102780008404DC4D05EB0414B4F848405C433C255C
:1027900094FBF5F10825D54C6688241D04EB06143E
:1027A00025714A25D14C6688241D04EB06146571F9
:1027B0005625CE4C6688241D04EB0614A571002511
:1027C000CA4C6688241D04EB0614E571C74C668864
:1027D000241D04EB06142572C44C6588241D04EBEB
:1027E0000514C4F8091000BFC0494D88091D01EB4C
:1027F00005114A73BD4C6488611CCC1701EB9464CD
:10280000A411A1EB8414B94D6C800021009100BF8C
:102810007EE710B50246B54B5B88581CC31700EB2A
:1028200093639B11A0EB8313B04C2488A34203D184
:102830000120AF4BD87210BD02F54070AB4B5C88E5
:102840001B1D03EB041318600423A8484488001DD3
:1028500000EB041003714923A4484488001D00EBD9
:10286000041043715123A1484488001D00EB04105B
:10287000837100239D484488001D00EB0410C37140
:1028800080239A484488001D00EB04100372974887
:102890004388001D00EB03104173944B5B88581C68
:1028A000C31700EB93639B11A0EB83138F4C6380E2
:1028B00000BFC0E70FB438B5044606A800900098E2
:1028C00002C80090009804C80090884B5B88581C90
:1028D000C31700EB93639B11A0EB8313834D2D88EB
:1028E000AB4205D10120824BD87238BC5DF814FB95
:1028F00004F540707D4B5D881B1D03EB05131860CC
:102900009DF81400012823D1042378484588001D30
:1029100000EB051003714D2374484588001D00EB42
:10292000051043714F2371484588001D00EB0510C9
:10293000837100236D484588001D00EB0510C371AD
:1029400040236A484588001D00EB051003723DE0F6
:102950009DF81400022839D1082364484588001DD9
:1029600000EB051003714D2360484588001D00EB06
:10297000051043714F235D484588001D00EB05108D
:102980008371002359484588001D00EB0510C37171
:1029900056484588001D00EB0510037253484588D2
:1029A000001D00EB0510427250484588001D00EBE9
:1029B000051083724D484588001D00EB0510C37259
:1029C0004A484588001D00EB0510037347484588B9
:1029D000001D00EB05104173444B5B88581CC31766
:1029E00000EB93639B11A0EB8313404D6B800020A1
:1029F000009000BF79E770B586B006460C461546D4
:102A000000208DF80C008DF80D0006F54070019047
:102A1000012C0ED104208DF80E004D208DF80F00F2
:102A20004F218DF8101000218DF811108DF8121023
:102A300017E0022C15D108208DF80E004D208DF8DE
:102A40000F004F218DF8101000218DF811108DF816
:102A500012108DF813508DF814108DF815108DF894
:102A6000161001A9244805F03DFE06B070BD0FB454
:102A700078B50022002307A90091009904C90091AC
:102A8000009908C90091194C6488611CCC1701EBAE
:102A90009464A411A1EB8414144D2D88AC4205D18B
:102AA0000121134CE17278BC5DF814FB00F5407114
:102AB0000E4C6588241D04EB051421609DF8181048
:102AC00001292CD1042409494D88091D01EB051168
:102AD0000C71502405494D88091D01EB05114C71FD
:102AE000412402494D88091D08E00000986A002031
:102AF00030310020002800200064004001EB051167
:102B00008C710024FE494D88091D01EB0511CC7123
:102B1000FB494D88091D01EB05110C724BE09DF836
:102B20001810022947D1441E04EB8404F54D05EB2F
:102B3000041494ED130A9FEDF41AC0EE010A441E2A
:102B400004EB840405EB0414B4F848405C4300EE45
:102B5000104AB8EEC00A20EE800ABDEEC00A10EEA0
:102B6000101A0825E64C6688241D04EB061425710E
:102B70005025E34C6688241D04EB0614657141253D
:102B8000DF4C6688241D04EB0614A5710025DC4C7F
:102B90006688241D04EB0614E571D94C6688241D53
:102BA00004EB06142572D64C6588241D04EB05142D
:102BB000C4F8091000BFD2494D88091D01EB051169
:102BC0004A73CF4C6488611CCC1701EB9464A41148
:102BD000A1EB8414CA4D6C800021009100BF62E714
:102BE00010B50246C64B5B88581CC31700EB9363B5
:102BF0009B11A0EB8313C24C2488A34203D1012074
:102C0000C24BD87210BD02F54070BD4B5C881B1DD5
:102C100003EB041318600423B9484488001D00EB3B
:102C2000041003715023B6484488001D00EB0410C3
:102C300043714523B2484488001D00EB04108371A2
:102C40000023AF484488001D00EB0410C371AC485A
:102C50004488001D00EB04100372A9484388001D3E
:102C600000EB03104173A64B5B88581CC31700EBA5
:102C700093639B11A0EB8313A14C638000BFC1E75A
:102C800010B502469E4B5B88581CC31700EB93633C
:102C90009B11A0EB83139A4C2488A34203D10120FB
:102CA0009A4BD87210BD02F54070954B5C881B1D85
:102CB00003EB04131860042391484488001D00EBC3
:102CC0000410037150238E484488001D00EB04104B
:102CD000437152238A484488001D00EB041083711D
:102CE000002387484488001D00EB0410C37184480A
:102CF0004488001D00EB0410037281484388001DC6
:102D000000EB031041737E4B5B88581CC31700EB2C
:102D100093639B11A0EB8313794C638000BFC1E7E1
:102D20000FB438B5044606A80090009802C8009079
:102D3000009804C80090724B5B88581CC31700EBC6
:102D400093639B11A0EB83136D4D2D88AB4205D18E
:102D500001206E4BD87238BC5DF814FB04F540704E
:102D6000674B5D881B1D03EB051318609DF814006D
:102D7000012822D1042362484588001D00EB05107C
:102D8000037150235E484588001D00EB0510437118
:102D900058235B484588001D00EB05108371002314
:102DA00057484588001D00EB0510C37154484588FD
:102DB000001D00EB051003722CE09DF814000228A2
:102DC00028D108234E484588001D00EB05100371EB
:102DD00050234B484588001D00EB051043715823D4
:102DE00047484588001D00EB0510837100234448C7
:102DF0004588001D00EB0510C37141484588001D42
:102E000000EB051003723E484388001D00EB0310E1
:102E1000C0F809203A484588001D00EB05104173B1
:102E2000374B5B88581CC31700EB93639B11A0EBD7
:102E30008313334D6B800020009000BF8BE70FB4ED
:102E400038B5044606A80090009802C80090009883
:102E500004C800902A4B5B88581CC31700EB93638F
:102E60009B11A0EB8313264D2D88AB4205D1012089
:102E7000264BD87238BC5DF814FB04F54070204B2B
:102E80005D881B1D03EB051318609DF814000128D5
:102E900022D104231A484588001D00EB0510037158
:102EA000532317484588001D00EB05104371442348
:102EB00013484588001D00EB05108371002310485E
:102EC0004588001D00EB0510C3710D484588001DA5
:102ED00000EB0510037235E09DF81400022831D193
:102EE000082307484588001D00EB05100371532394
:102EF00003484588001D00EB05104371442307E09B
:102F0000986A0020002800200000B44330310020DF
:102F1000FE484588001D00EB051083710023FB4827
:102F20004588001D00EB0510C371F8484588001D59
:102F300000EB05100372F5484388001D00EB0310F9
:102F4000C0F80920F1484588001D00EB05104173C9
:102F5000EE4B5B88581CC31700EB93639B11A0EBEF
:102F60008313EA4D6B800020009000BF82E70FB40E
:102F700078B507A90091009904C90091009908C982
:102F80000091E24C6488611CCC1701EB9464A4119D
:102F9000A1EB8414DD4D2D88AC4205D10121DC4C20
:102FA000E17278BC5DF814FB00F54071D74C658880
:102FB000241D04EB051421609DF81810012922D16D
:102FC0000424D2494D88091D01EB05110C715324CD
:102FD000CE494D88091D01EB05114C715024CB4998
:102FE0004D88091D01EB05118C710024C7494D88DE
:102FF000091D01EB0511CC714024C4494D88091D00
:1030000001EB05110C729DF81810022935D1441EF0
:1030100004EB8404BF4D05EB0414B4F848405C4352
:103020003C2594FBF5F10825B84C6688241D04EB7B
:10303000061425715325B54C6688241D04EB06142F
:1030400065715025B14C6688241D04EB0614A571EA
:103050000025AE4C6688241D04EB0614E571AB4CCC
:103060006688241D04EB06142572A84C6588241D6F
:1030700004EB0514C4F8091000BFA4494D88091DCC
:1030800001EB05114A73A14C6488611CCC1701EB5C
:103090009464A411A1EB84149C4D6C8000210091D8
:1030A00000BF7EE710B50246984B5B88581CC317DB
:1030B00000EB93639B11A0EB8313944C2488A342F1
:1030C00003D10120924BD87210BD02F540708F4B96
:1030D0005C881B1D03EB0413186004238B48448891
:1030E000001D00EB04100371532388484488001D21
:1030F00000EB04104371542384484488001D00EB06
:1031000004108371002381484488001D00EB0410E3
:10311000C3717E484488001D00EB041003727B4895
:103120004388001D00EB03104173784B5B88581CEB
:10313000C31700EB93639B11A0EB8313734C638065
:1031400000BFC1E70FB438B5044606A80090009848
:1031500002C800900098006800EE100A0098001D58
:1031600000906A4A5288501CC21700EB926292117A
:10317000A0EB8212654B1B889A4205D10120644A5C
:10318000D07238BC5DF814FB04F540705F4A538878
:10319000121D02EB031210609DF81400022833D1B7
:1031A000F8EEC00A9FED5C1AC0EE811AFDEEE10A4E
:1031B00010EE900A0823554A5588121D02EB05129D
:1031C00013715423514A5588121D02EB0512537195
:1031D00043234E4A5588121D02EB051293710023BA
:1031E0004A4A5588121D02EB0512D371474A558889
:1031F000121D02EB05121372444A5388121D02EB92
:103200000312C2F8090000BF40484388001D00EBCC
:10321000031041733D4A5288501CC21700EB926262
:103220009211A0EB8212394B5A800020009000BF0F
:10323000A7E70FB438B5044606A80090009802C866
:103240000090009804C80090304B5B88581CC3174E
:1032500000EB93639B11A0EB83132C4D2D88AB42A5
:1032600005D101202A4BD87238BC5DF814FB04F557
:103270004070264B5D881B1D03EB051318609DF8FD
:103280001400012822D1042320484588001D00EBAA
:103290000510037155231D484588001D00EB0510DE
:1032A00043714D2319484588001D00EB05108371BB
:1032B000002316484588001D00EB0510C371134814
:1032C0004588001D00EB0510037246E09DF81400D0
:1032D000022842D108230D484588001D00EB051047
:1032E0000371552309484588001D00EB0510437103
:1032F0004D2306484588001D00EB0510837100230F
:1033000002484588001D00EB051007E0986A002080
:1033100030310020002800200000C842C37141481D
:103320004588001D00EB051003723E484588001DCE
:1033300000EB051042723B484588001D00EB05106C
:10334000837238484588001D00EB0510C37235486C
:103350004588001D00EB0510037332484588001DA9
:1033600000EB051041732F4B5B88581CC31700EB13
:1033700093639B11A0EB83132A4D6B800020009078
:1033800000BF71E710B50246264B5B88581CC31777
:1033900000EB93639B11A0EB8313224C2488A34280
:1033A00003D10120204BD87210BD02F540701D4B97
:1033B0005C881B1D03EB0413186004231948448820
:1033C000001D00EB04100371562316484488001DAD
:1033D00000EB04104371582312484488001D00EB91
:1033E0000410837100230F484488001D00EB041073
:1033F000C3710C484488001D00EB04100372094897
:103400004388001D00EB03104173064B5B88581C7A
:10341000C31700EB93639B11A0EB8313014C6380F4
:1034200000BFC1E7986A00203031002010B50720A6
:10343000FE4908709FEDFE0A084680ED010A4FF430
:103440007A7088601520FB49087040F63400886067
:103450001220F94908700020F849087247F23050EC
:10346000C860012008744FF47A704861B2EE040A13
:10347000084680ED010A4FF4FA60F1490881012005
:1034800008730020EF49087008460078C0EB001070
:1034900000EB8000EC4901EB800000F58070E34B0D
:1034A0000ECB20300EC00020E6490978C1EB011197
:1034B00001EB8101E44A02F821000120E149097889
:1034C000C1EB011101EB810102EB81014870082081
:1034D000DC490978C1EB011101EB810102EB8101AB
:1034E000C8709FEDDA0AD7480078C0EB001000EBF7
:1034F0008000114601EB800080ED010A4FF4FA7163
:10350000D0480078C0EB001000EB800002EB800098
:1035100081600021CB480078C0EB001000EB8000F8
:1035200002EB80000161B7EE000AC6480078C0EBEC
:10353000001000EB8000114601EB800080ED050AD1
:10354000C04A1278C2EB021202EB82020B4603EB76
:1035500082021169BB4A1278C2EB021202EB8202AC
:1035600003EB820202F13000F7EE001A9FEDB71A6A
:10357000DFEDB70AB6EE000A03F008FAB14A127896
:10358000C2EB021202EB8202AF4B03EB82029168A4
:10359000AC4A1278C2EB021202EB820203EB820207
:1035A00002F15800F7EE001AB7EE001ADFEDA90A93
:1035B0009FEDA90A03F0EAF9A2490978C1EB0111CC
:1035C00001EB8101A04A02EB810101F18000DFEDF6
:1035D000A31A9FEDA31ADFED9D0A9FEDA20A03F047
:1035E000E5F998490978C1EB011101EB8101964A8F
:1035F00002EB810101F1B400DFED981A9FED9A1AF8
:10360000DFED9A0A9FED9A0A03F0D0F98D49097807
:10361000C1EB011101EB81018B4A02EB810101F544
:1036200084701822854909F015F99FED810A8548B3
:103630000078C0EB001000EB8000834901EB8000B4
:1036400080ED430A01207F49087008460078C0EBEE
:10365000001000EB80007C4901EB800000F58070D9
:10366000744B0ECB20300EC0002076490978C1EB98
:10367000011101EB8101744A02F821000120714916
:103680000978C1EB011101EB810102EB8101487066
:1036900002206C490978C1EB011101EB810102EBB9
:1036A0008101C870B2EE040A66480078C0EB0010D1
:1036B00000EB8000114601EB800080ED010A6FF005
:1036C000C70160480078C0EB001000EB800002EBFF
:1036D0008000816000215B480078C0EB001000EBA7
:1036E000800002EB80000161B7EE000A55480078C7
:1036F000C0EB001000EB8000114601EB800080ED74
:10370000050A504A1278C2EB021202EB82020B4603
:1037100003EB820211694B4A1278C2EB021202EBF0
:10372000820203EB820202F13000F7EE001A9FEDF5
:10373000471ADFED4A0AB6EE000A03F027F9002423
:103740004FE0C4EB041101EB81013F4A02EB810120
:1037500001F1E8000A223A4909F07CF83848418929
:10376000C4EB041000EB8000374A02EB8000A0F8A5
:10377000F210C4EB041000EB8000114601EB800056
:103780002F498989A0F8F4102D48C189C4EB041091
:1037900000EB800002EB8000A0F8F6102848018AB8
:1037A000C4EB041000EB800002EB8000A0F8F810DE
:1037B000C4EB041000EB8000114601EB8000E83000
:1037C0001F4A51699269C0E905121D48C169C4EBDD
:1037D000041000EB80001C4A02EB8000C0F80411CA
:1037E000641C042CADDB10BD2E21095C19B1002234
:1037F0002E210A544262704730B52DED028B81B004
:103800000446B0EE408A0D460020009044F48070DB
:103810001849486000204872042008720820887205
:103820009FED150A28EE000A28E0000090290020EC
:10383000000070429C290020A8290020B429002003
:10384000CC29002030000020EC29002000000000DE
:10385000EC51383D6F12833A4260E53BCDCC4C3E93
:1038600017B7D1398FC2F53CBD37863517B7D13878
:10387000CDCCCC3D9C2E002000007A44BDEEC00A89
:1038800010EE101A6A46FE4803F07EF9FC490B3927
:10389000FC4804F027FF01B0BDEC028B30BD70B5D1
:1038A0000446C4EB041202EB8202F74B03EB8202E4
:1038B000D2F82811C4EB041202EB820203EB82025D
:1038C00002F1080004F05FF8C4EB041000EB800084
:1038D000ED4901EB80008168C4EB041000EB80002F
:1038E000E94A02EB8000C0F8E410C4EB041303EBD8
:1038F0008303154605EB8303DA69C4EB041303EB7A
:10390000830305EB83039968C4EB041303EB830380
:1039100005EB830303F1B40003F051F8C4EB04108A
:1039200000EB8000294601EB800090ED370AC4EBE4
:10393000041000EB800001EB8000D0ED490A20EE7E
:10394000200AC4EB041000EB800001EB800080ED46
:10395000010AC4EB041101EB81012A4602EB81014B
:10396000D1ED430AB0EE600AC4EB041101EB810112
:1039700002EB8101081D03F0EAFFC4EB041101EB27
:1039800081012A4602EB8101D1ED010AB0EE600A05
:10399000611CC8B20021FFF72FFF70BD10B52DEDDF
:1039A000048B82B00446C4EB041000EB8000B649DF
:1039B00001EB8000D0F80401002802DA4FF0FF305C
:1039C00000E00120C4EB041101EB8101AE4A02EBDF
:1039D0008101C969002902DA4FF0FF3100E00121BD
:1039E000484028B19FEDA90AA94880ED000A04E0EB
:1039F0009FEDA80AA64880ED000AC4EB041000EB76
:103A00008000A14901EB8000D0F80401002808DD06
:103A1000C4EB041000EB800001EB8000D0F804013F
:103A200009E0C4EB041000EB8000974901EB800033
:103A3000D0F80401404200EE100AB8EEC00A9448E3
:103A4000D0ED000AB2EE041A60EE810AB4EEE00A8C
:103A5000F1EE10FA29DDC4EB041000EB80008A4976
:103A600001EB800090ED080AC4EB041000EB80002D
:103A700001EB8000D0F80401002802DA4FF0FF309B
:103A800000E0012000EE900AF8EEE00A804890ED98
:103A9000001A00EE810AC4EB041000EB80007A49A2
:103AA00001EB800080ED030A25E0C4EB041000EB7D
:103AB0008000754901EB8000D0F8040100EE900A07
:103AC000F8EEE00AB2EE041AC0EE811AB0EE610A16
:103AD000C4EB041000EB800001EB8000D0ED080A7D
:103AE00070EE800AC4EB041000EB800001EB800054
:103AF000C0ED030A00BFC4EB041101EB8101624A6F
:103B000002EB810101F10C0003F0B9FEC4EB0410DB
:103B100000EB80005C4901EB800090ED081AF0EEAC
:103B2000410AC4EB041000EB800001EB800090ED33
:103B3000031AB0EE410A03F08BFFB0EE408AC4EBEB
:103B4000041000EB8000504901EB8000807818B130
:103B5000B1EE480AB0EE408AC4EB041000EB8000DE
:103B6000494901EB800090ED200A20EE080A8DED16
:103B7000010AC4EB041000EB800001EB800090ED23
:103B8000210A4548D0ED000A60EE200A434890ED36
:103B9000000A08EE200A80ED000A414890ED000A74
:103BA0003D48D0ED000A30EE200A3D4880ED000A85
:103BB0003C4890ED000AB4EE408AF1EE10FA02D1D2
:103BC0005FEDDE8A19E0C4EB041000EB80002E49A3
:103BD00001EB8000D0ED220A314890ED001A80EE12
:103BE000810A3048D0ED000A78EE600A60EE208A43
:103BF0001FEDEA0A2A4880ED000AC4EB041000EB2E
:103C00008000214901EB8000D0ED230A264890ED89
:103C1000000A30EE681A90ED000A00EEC10A80ED4D
:103C2000000A90ED000AF0EE408AB7EE000A01A803
:103C300003F08DFE9DED010AB0EEC00AF7EE000A1A
:103C400030EEC00AB0EE409A144803F080FE1548EA
:103C500080ED008A9DED010A1048D0ED000A30EE9B
:103C6000200A30EE280A8DED000AF7EE000ABFEEBA
:103C7000000A684603F044FEC4EB041016E000009E
:103C8000A72E002000680040EC2900200000B4426C
:103C90002800002000002A432C00002034000020CF
:103CA0003C000020380000204000002000EB800095
:103CB000F94901EB800090ED490ADDED000A20EEA4
:103CC000200AC4EB041000EB800001EB800080EDC3
:103CD000010AC4EB041000EB800001EB800090EDC2
:103CE000010AB5EEC00AF1EE10FA08DDC4EB0410CB
:103CF00000EB800001EB800090ED010A0AE0C4EBCC
:103D0000041000EB8000E44901EB800090ED010A13
:103D1000B1EE400AC4EB041000EB8000DE4901EB79
:103D20008000D0ED430AB4EEE00AF1EE10FA27DD90
:103D3000C4EB041000EB800001EB800090ED010A61
:103D4000B5EEC00AF1EE10FA02D24FF0FF3000E0FB
:103D5000012000EE100AB8EEC00AC4EB041000EB1C
:103D60008000CD4901EB8000D0ED430A20EE200A0F
:103D7000C4EB041000EB800001EB800080ED010A31
:103D8000C4EB041101EB8101C34A02EB8101D1EDC7
:103D9000010AB0EE600A611CC8B20021FFF72CFDD9
:103DA00002B0BDEC048B10BDF8B504460E461546B6
:103DB00000200090B9494988481CC11700EB916167
:103DC0008911A0EB8111B54A1288914203D10120DB
:103DD000B349C872F8BDB1494A88091D01EB021107
:103DE000481D6A46314602F0CFFE44F0704040F470
:103DF0004071AA484288001D00EB02100160009843
:103E0000C1B2A6484288001D00EB02100171A34810
:103E10004188001D00EB01104573A0494988481CEA
:103E2000C11700EB91618911A0EB81119B4A518070
:103E300000BFCFE770B50446C4EB041000EB800070
:103E4000954901EB80000069C4EB041101EB81018D
:103E5000914A02EB81010863C4EB041000EB80007F
:103E6000114601EB8000407870B9C4EB041000EB00
:103E7000800001EB8000D0F80001C4EB041101EBDD
:103E8000810102EB81010863C4EB041000EB8000A8
:103E9000814901EB800090F8100140B38148C06B6C
:103EA000002802DD7F48C06B02E07E48C06B4042C4
:103EB000C4EB041101EB8101774A02EB8101D1F8D7
:103EC0001411884213DD7748C06B002802DA4FF0E6
:103ED000FF3000E00120C4EB041101EB81016E4AC8
:103EE00002EB8101D1F8141148436E49C863C4EB59
:103EF000041000EB8000684901EB8000416AC4EBCC
:103F0000041000EB8000644A02EB80008164C4EB83
:103F1000041101EB810102EB810101F1300002F09B
:103F2000CFFD604890F89400C8B3C4EB041000EBD8
:103F30008000594901EB8000406C002807DDC4EB8C
:103F4000041000EB800001EB8000406C08E0C4EB43
:103F5000041000EB8000504901EB8000406C4042AF
:103F60005049B1F89610884219DDC4EB041000EBFB
:103F70008000494901EB8000406C002802DA4FF0D4
:103F8000FF3000E001204749B1F896104843C4EBE8
:103F9000041101EB8101404A02EB81014864C4EB4A
:103FA000041202EB82023C4B03EB8202526CC4EB24
:103FB000041303EB8303384D05EB830393F820319F
:103FC00002FB03F1621CD0B20022FFF7EDFE70BDD0
:103FD00030B52DED028B81B00446B0EE408A0D461F
:103FE000002000902D494988481CC11700EB9161C1
:103FF0008911A0EB8111294A1288914206D1012032
:104000002749C87201B0BDEC028B30BD9FED260A76
:1040100028EE000ABDEEC00A10EE101A1F4A53889F
:10402000121D02EB0312501D6A4602F0ADFD44F072
:10403000704040F4806119484288001D00EB021076
:1040400001600098C1B215484288001D00EB0210C3
:10405000017112484188001D00EB011045730F49A2
:104060004988481CC11700EB91618911A0EB8111AF
:104070000A4A518000BFC5E710B50446C4EB0410DE
:1040800000EB8000044901EB8000D0F80401002817
:104090000CDA4FF0FF300AE0EC290020986A00208B
:1040A0003031002058210020002474490120C4EB45
:1040B000041101EB8101D54A02EB8101C969002994
:1040C00002DA4FF0FF3100E00121484028B19FEDB6
:1040D000D00AD04880ED000A04E09FEDCF0ACD4819
:1040E00080ED000AC4EB041000EB8000C74901EB2F
:1040F0008000D0F80401002808DDC4EB041000EBB8
:10410000800001EB8000D0F8040109E0C4EB04104A
:1041100000EB8000BD4901EB8000D0F80401404273
:1041200000EE100AB8EEC00ABA48D0ED000AB2EEAE
:10413000041A60EE810AB4EEE00AF1EE10FA29DD0D
:10414000C4EB041000EB8000B04901EB800090ED5F
:10415000080AC4EB041000EB800001EB8000D0F8EB
:104160000401002802DA4FF0FF3000E0012000EEE9
:10417000900AF8EEE00AA74890ED001A00EE810AD6
:10418000C4EB041000EB8000A04901EB800080ED3F
:10419000030A25E0C4EB041000EB80009B4901EB0F
:1041A0008000D0F8040100EE900AF8EEE00AB2EECA
:1041B000041AC0EE811AB0EE610AC4EB041000EBE1
:1041C000800001EB8000D0ED080A70EE800AC4EB9D
:1041D000041000EB800001EB8000C0ED030A00BF7B
:1041E000C4EB041101EB8101884A02EB810101F16A
:1041F0000C0003F044FBC4EB041101EB8101834A82
:1042000002EB8101D1ED030AB0EE600A611CC8B275
:104210000021FFF7DDFE10BD30B52DED028B81B022
:104220000446B0EE408A0D46002000907B49498844
:10423000481CC11700EB91618911A0EB8111774AED
:104240001288914206D101207549C87201B0BDECB7
:10425000028B30BD9FED730A28EE000ABDEEC00A46
:1042600010EE101A6D4A5388121D02EB0312501DF6
:104270006A4602F089FC44F0704068494A88091D8A
:1042800001EB021108600098C1B264484288001D29
:1042900000EB0210017161484188001D00EB011024
:1042A00045735E494988481CC11700EB916189112B
:1042B000A0EB8111594A518000BFC7E730B52DED01
:1042C000028B81B00446B0EE408A0D46002000907B
:1042D00052494988481CC11700EB91618911A0EB34
:1042E00081114E4A1288914206D101204C49C87270
:1042F00001B0BDEC028B30BD9FED4B0A28EE000AE9
:10430000BDEEC00A10EE101A444A5388121D02EB8B
:104310000312501D6A4602F037FC44F0704040F42E
:1043200000713E484288001D00EB021001600098B9
:10433000C1B23A484288001D00EB021001713748B3
:104340004188001D00EB0110457334494988481C21
:10435000C11700EB91618911A0EB81112F4A5180A7
:1043600000BFC5E730B52DED028B81B00446B0EE3D
:10437000408A0D460020009028494988481CC117F2
:1043800000EB91618911A0EB8111244A12889142BE
:1043900006D101202249C87201B0BDEC028B30BDAC
:1043A0009FED210A28EE000ABDEEC00A10EE101A99
:1043B0001A4A5388121D02EB0312501D6A4602F07E
:1043C000E3FB44F0704040F4406114484288001D13
:1043D00000EB021001600098C1B210484288001D35
:1043E00000EB021001710D484188001D00EB011027
:1043F00045730A494988481CC11700EB916189112E
:10440000A0EB8111054A518000BFC5E7EC290020CF
:104410000000B4422800002000002A43986A0020CF
:10442000303100200050C34700007A4410B5082006
:1044300009F0D8FD044600206060204610BD012030
:1044400031494872704710B5FFF7F9FFFCF7E6FFF6
:10445000FDF730FFFEF7EAFFFFF7E8FF2B49486062
:1044600010BD00220A7803780B700270704770B597
:1044700006460C46354600E06D6815B16868A042F6
:10448000FAD14CB160686860204609F083FD1F488E
:104490000078401E1D49087070BD02460B4611464B
:1044A00005E00888984201D108467047496800290C
:1044B000F7D10020F9E72DE9F041074688463C4650
:1044C00041462046FFF7E9FF08B1BDE8F08100262C
:1044D00002E06468701CC6B20C480078B04201DD8E
:1044E000002CF6D16CB1082009F07CFD0546A5F83A
:1044F000008060686860656004480078401C03497B
:10450000087000BFE1E70000303100204C000020BF
:104510001CB54048006840F010003E4908603D4826
:104520001438006840F480003A49143908600120CA
:10453000022100230A46CDE900104FF4C06136483D
:1045400002F0FAFF07220921334802F0D5FF0722C3
:104550000A21314802F0D0FF40F2D9202F490881CA
:104560004FF4037088810846008820F020000880FE
:10457000032325220121062002F030FF4FF4807032
:10458000274B264A121D04210090264802F012FEF5
:1045900001221021234804F074FD03234622002148
:1045A000072002F01BFF1D48808A40F080001B4955
:1045B00088820846808940F4005088811CBD70B50F
:1045C00004460D461848407B78B92A4621461448CF
:1045D00008F040F92946134804F0E7FC012111488E
:1045E00004F0C2FC01201049487370BD10B50F499A
:1045F0000C4804F063FD01280AD10C49094804F075
:104600002CFD0A49074804F083FD00200649487341
:1046100010BD00004438024000000240001001407C
:10462000B02E0020B8640240303100200080002805
:104630001CB5F948006840F40030F7490860F648B6
:104640001038006840F40010F34910390860012068
:10465000022100230A46CDE900100C21EF4802F0A8
:104660006BFF07220221ED4802F046FF07220321DB
:10467000EA4802F041FF4FF4B670E94908800C2087
:10468000091D0880E6480838008820F02000E44929
:1046900008390880E248001D008840F02000E04909
:1046A000091D0880032326220121042002F096FE22
:1046B0004FF48070DB4BDA4A121F04210090DA4875
:1046C00002F078FD01221021D74804F0DAFC032320
:1046D00011220121072002F081FED1480C30008810
:1046E00040F08000CE490C310880CD48001D008884
:1046F00040F40050CA49091D08801CBD10B5CB49C3
:10470000C94804F0DBFC01280AD1C849C64804F0B6
:10471000A4FCC649C44804F0FBFC0020C4498873CB
:1047200010BD10B52DED028B002440F22531BC48A0
:10473000083805F0CAFA58B1B948083805F003FA44
:104740000020BC4908702021BB4808F09CF8F0E329
:1047500040F22551B248083805F0B7FA0028F6D0E3
:104760002021AF48083805F0A7FA40F22551AC489F
:10477000083805F0E1FAAA48083805F0E4F9C4B2AF
:10478000AC48007800F0400008B3AA48007800F078
:10479000800020BBFF2C06D1A648007840F08000A6
:1047A000A44908701BE0A348007800F03F01A2482C
:1047B0004454A0480078401C9E4908700846007880
:1047C00000F03F0028280ADD0020087007E0EE2CEA
:1047D00005D19848007840F0400096490870954807
:1047E000007800F080000028B1D0944890F82102B1
:1047F000012804D1914890F82302914908708F480C
:1048000090F82302082870D2DFE800F0042E2F3041
:1048100056F36FF2894890F82502082821D101202B
:1048200080F3138800BF00BF00BF00BF00BF00BF00
:10483000BFF34F8F00BF00BF00BF8248006800F485
:10484000E06081490843001D7E49086000BF00BF49
:1048500000BFBFF34F8F00BF00BF00BF00BF00BF4E
:10486000FDE700BF00BFC5E3C4E3C3E3734890F8AE
:104870002502032804D0062811D0082819D114E0F5
:104880006D48C01D08F01CFDB0EE408AF0EE608A55
:1048900051EC180B08F01DF96C4908600AE0012082
:1048A0006B49087081F82C0104E001206949087007
:1048B00000E000BF00BF9DE3604890F82502C01EE5
:1048C0001E2872D2DFE800F00F1F2E3F5061728366
:1048D00096CAD9FBF971F8F7F6F5F4F3F2F1F0EFB7
:1048E000EEEDECEBEAE900200AE082E3002100EBC8
:1048F000800202EBC002584B03EB02121170401C05
:104900000828F3DBB5E14C48C01D08F0D9FCB0EE37
:10491000408AF0EE608A51EC180B08F0F9F84E4925
:104920008870A6E14448C01D08F0CAFCB0EE408A79
:10493000F0EE608A51EC180B08F0EAF8C1B2464874
:1049400080F8D21095E13C48C01D08F0B9FCB0EEEB
:10495000408AF0EE608A51EC180B08F0D9F8C1B229
:104960003D4880F8A21184E13348C01D08F0A8FC3E
:10497000B0EE408AF0EE608A51EC180B08F0C8F8EF
:10498000C1B2354880F8721273E12B48C01D08F09F
:1049900097FCB0EE408AF0EE608A51EC180B08F0FC
:1049A00098F801B22C48018163E161E12248C01D01
:1049B00008F086FCB0EE408AF0EE608A51EC180BED
:1049C00008F087F801B22448A0F8D81051E11A483D
:1049D000C01D08F075FCB0EE408AF0EE608A51EC24
:1049E000180B08F076F801B21B48A0F8A81140E1B6
:1049F000FEE240E11048C01D08F062FCB0EE408AC3
:104A0000F0EE608A51EC180B08F063F801B212481E
:104A1000A0F878122DE1000040380240000002406A
:104A200008440040D02F0020A060024000802020D9
:104A30003031002055000020D0300020B02E002062
:104A4000540000200CED00E00000FA0548000020B2
:104A5000EC2900204400002058210020F94808F0EB
:104A60002FFCB0EE408AF0EE608A51EC180B08F093
:104A700030F800B2F4498880FBE0F24808F020FCEE
:104A8000B0EE408AF0EE608A51EC180B08F021F885
:104A900001B2ED48A0F8D410EBE0E0E0D6E0CCE0C5
:104AA000C3E0B7E0ABE09FE094E088E07CE070E03A
:104AB00065E054E043E032E021E010E0FFE7E14848
:104AC00008F0FEFBB0EE408AF0EE608A51EC180B65
:104AD00007F0FFFF01B2DC48A0F8A411C9E0D948F3
:104AE00008F0EEFBB0EE408AF0EE608A51EC180B55
:104AF00007F0EFFF01B2D448A0F87412B9E0D14832
:104B000008F0DEFBB0EE408AF0EE608A51EC180B44
:104B100007F0FEFF81B2CC48A0F89610A9E0C94882
:104B200008F0CEFBB0EE408AF0EE608A51EC180B34
:104B300007F0EEFF81B2C448A0F8661199E0C148C1
:104B400008F0BEFBB0EE408AF0EE608A51EC180B24
:104B500007F0DEFF81B2BC48A0F8361289E0B94800
:104B600008F0AEFBB0EE408AF0EE608A51EC180B14
:104B700007F0CEFF81B2B448A0F8061379E0B3483D
:104B800090F8280208B1012000E00020AE4908702A
:104B90006FE0AE4890F8280208B1012000E0002044
:104BA000A94981F8D00064E0A84890F8280208B12B
:104BB000012000E00020A44981F8A00159E0A348A9
:104BC00090F8280208B1012000E000209E4981F8F9
:104BD00070024EE09D4890F8280208B1012000E0E4
:104BE00000209949487044E0984890F8280208B19C
:104BF000012100E00021944880F8D11039E0934869
:104C000090F8280208B1012100E000218E4880F8C8
:104C1000A1112EE08D4890F8280208B1012100E092
:104C20000021894880F8711223E08748007818B97C
:104C30000121854880F839101BE0834890F8D000A6
:104C400018B90121804880F8091112E07E4890F8D7
:104C5000A00118B901217C4880F8D91109E07A48EF
:104C600090F8700218B90121774880F8A91200E085
:104C700000BF00BFBEE1754890F82502C01E1E2887
:104C80006FD2DFE800F00F1E2E3E4E5E6F7F8F9FCB
:104C9000AFBFCF6EF5F3F2F1F0EFEEEDECEBEAE93A
:104CA000E8E7E6E5002009E0002100EB800202EBE6
:104CB000C002654B03EB02121170401C0828F3DBA5
:104CC00094E1604808F0FCFAB0EE408AF0EE608AA9
:104CD00051EC180B07F01CFFC1B25B4880F842137F
:104CE00084E1584808F0ECFAB0EE408AF0EE608AB1
:104CF00051EC180B07F00CFFC1B2534880F81214A6
:104D000074E1504808F0DCFAB0EE408AF0EE608AB8
:104D100051EC180B07F0FCFEC1B24B4880F8E214CE
:104D200064E1484808F0CCFAB0EE408AF0EE608AC0
:104D300051EC180B07F0ECFEC1B2434880F8B215F5
:104D400054E1404808F0BCFAB0EE408AF0EE608AC8
:104D500051EC180B07F0BDFE01B23B48A0F8481318
:104D600044E142E1374808F0ABFAB0EE408AF0EE99
:104D7000608A51EC180B07F0ACFE01B23248A0F883
:104D8000181433E12F4808F09BFAB0EE408AF0EE99
:104D9000608A51EC180B07F09CFE01B22A48A0F87B
:104DA000E81423E1274808F08BFAB0EE408AF0EED1
:104DB000608A51EC180B07F08CFE01B22248A0F873
:104DC000B81513E11F4808F07BFAB0EE408AF0EE08
:104DD000608A51EC180B07F07CFE01B21A48A0F86B
:104DE000441303E1174808F06BFAB0EE408AF0EE86
:104DF000608A51EC180B07F06CFE01B21248A0F863
:104E00001414F3E00F4808F05BFAB0EE408AF0EEBD
:104E1000608A51EC180B07F05CFE01B20A48A0F85A
:104E2000E414E3E0074808F04BFAB0EE408AF0EEF5
:104E3000608A51EC180B07F04CFE01B20248A0F852
:104E4000B415D3E0D730002058210020B02E002028
:104E5000C2E0B8E0AEE0A4E098E08CE080E074E06E
:104E600068E05BE04FE043E032E021E010E0FFE784
:104E7000FE4808F025FAB0EE408AF0EE608A51EC68
:104E8000180B07F045FE81B2F948A0F8D613ADE043
:104E9000F64808F015FAB0EE408AF0EE608A51EC60
:104EA000180B07F035FE81B2F148A0F8A6149DE07A
:104EB000EE4808F005FAB0EE408AF0EE608A51EC58
:104EC000180B07F025FE81B2E948A0F876158DE0B1
:104ED000E64808F0F5F9B0EE408AF0EE608A51EC51
:104EE000180B07F015FE81B2E148A0F846167DE0E8
:104EF000E04890F8280208B1012000E00020DC49D9
:104F000081F8400372E0DB4890F8280208B10120E4
:104F100000E00020D64981F8100467E0D54890F8F9
:104F2000280208B1012000E00020D14981F8E00406
:104F30005CE068E0CF4890F8280208B1012000E06A
:104F40000020CB4981F8B00550E0CA4890F828020B
:104F500008B1012100E00021C54880F8411345E077
:104F6000C44890F8280208B1012100E00021C0489F
:104F700080F811143AE0BF4890F8280208B10121E6
:104F800000E00021BA4880F8E1142FE0B94890F819
:104F9000280208B1012100E00021B54880F8B115D0
:104FA00024E0B34890F8400318B90121B04880F8D4
:104FB00079131BE0AE4890F8100418B90121AC48F1
:104FC00080F8491412E0AA4890F8E00418B90121C9
:104FD000A74880F8191509E0A54890F8B00518B958
:104FE0000121A34880F8E91500E000BF00BF01E0FF
:104FF00000E000BF00BF00209F49087020219B48AF
:10500000C01F07F040FCBDEC028B10BD10B504467C
:105010009A48807B50B92146994803F0C6FF012188
:10502000974803F0A1FF01209449887310BD10B583
:105030000024EE222146641C92484254B1222146AB
:10504000641C425410222146641C42540022214612
:10505000641C42542146641C42542146641C425440
:1050600005222146641C425401222046611CCCB218
:1050700084490A54FF222046611CCCB281490A545B
:10508000FC222046611CCCB27E490A54FF222046F5
:10509000611CCCB27B490A542046611CCCB27949D0
:1050A0000A5479480078062881F01D81DFE810F065
:1050B0001B090600080009006900BD0401F014B9CD
:1050C000FCE7EE222046611CCCB26E490A54B122A4
:1050D0002046611CCCB26B490A5412222046611C46
:1050E000CCB268490A5400222046611CCCB2654902
:1050F0000A5404222046611CCCB262490A540022A0
:105100002046611CCCB25F490A5404222046611C2F
:10511000CCB25C490A5400222046611CCCB25949E9
:105120000A545A4882685AA15A4808F09FF85948C8
:1051300007F0C0FBC2B22046611CCCB251490A54F0
:105140000819544907F0BDFB524807F0B3FB20444F
:10515000C4B2FF222046611CCCB24A490A54FC2248
:105160002046611CCCB247490A54FF222046611CEC
:10517000CCB244490A542046611CCCB241490A547D
:105180009CE7EE222046611CCCB23E490A54B12273
:105190002046611CCCB23B490A5412222046611CB5
:1051A000CCB238490A5400222046611CCCB23549A1
:1051B0000A5404222046611CCCB232490A542C48BD
:1051C0008078002851D000222046611CCCB22D49A5
:1051D0000A5404222046611CCCB22A490A540022F7
:1051E0002046611CCCB227490A542148827828A164
:1051F000284808F03BF8274807F05CFBC2B220467D
:10520000611CCCB21F490A540819224907F059FB06
:10521000204807F04FFB2044C4B200222046611C06
:10522000CCB218490A5408222046611CCCB2154958
:105230000A5400222046611CCCB212490A540C4880
:10524000B0F9182012A1134808F010F8114807F01F
:1052500031FBC2B22046611CCCB20A490A5408197B
:105260000C4907F02EFB0B4816E0AFE0D7300020CA
:1052700058210020B02E00205500002030310020A1
:10528000A0600240D02F002054000020EC29002014
:10529000256400003F31002007F00CFB2044C4B21D
:1052A00000222046611CCCB2FE490A540C22204642
:1052B000611CCCB2FB490A5400222046611CCCB2CE
:1052C000F8490A54F848B0F91420AFF23C01F74805
:1052D00007F0CCFFF54807F0EDFAC2B22046611C9A
:1052E000CCB2F0490A540819F04907F0EAFAEF483D
:1052F00007F0E0FA2044C4B200222046611CCCB280
:10530000E8490A5411222046611CCCB2E5490A54EE
:1053100000222046611CCCB2E2490A54E248B0F8AF
:105320009620AFF29401E14807F0A0FFDF4807F0B4
:10533000C1FAC2B22046611CCCB2DA490A5408193B
:10534000DA4907F0BEFAD94807F0B4FA2044C4B2EB
:1053500000222046611CCCB2D2490A5415222046B4
:10536000611CCCB2CF490A5400222046611CCCB249
:10537000CC490A5401222046611CCCB2C9490A54C6
:10538000C94802782046611CCCB2C6490A540022A2
:105390002046611CCCB2C3490A5419222046611C24
:1053A000CCB2C0490A5400222046611CCCB2BD498F
:1053B0000A5401222046611CCCB2BA490A54BA48A8
:1053C00042782046611CCCB2B6490A54B64890F8DF
:1053D000D20000287DD000222046611CCCB2B14909
:1053E0000A5405222046611CCCB2AE490A54002260
:1053F0002046611CCCB2AB490A54AB4890F8D2208D
:10540000AFF27411A94807F031FFA84807F052FA2B
:10541000C2B22046611CCCB2A2490A540819A34961
:1054200007F04FFAA14807F045FA2044C4B2002221
:105430002046611CCCB29B490A5409222046611CBB
:10544000CCB298490A5400222046611CCCB295493E
:105450000A549548B0F9E820AFF2CC11934807F010
:1054600005FF924807F026FAC2B22046611CCCB272
:105470008C490A5408198D4907F023FA8B4807F024
:1054800019FA2044C4B200222046611CCCB28549DE
:105490000A540D222046611CCCB282490A540022D3
:1054A0002046611CCCB27F490A547F48B0F9E42001
:1054B000AFF224217D4807F0D9FE7C4807F0FAF9C5
:1054C000C2B22046611CCCB276490A540819774909
:1054D00000E072E007F0F5F9744807F0EBF92044BA
:1054E000C4B200222046611CCCB26E490A5412227A
:1054F0002046611CCCB26B490A5400222046611C34
:10550000CCB268490A546848B0F86621AFF28021ED
:10551000664807F0ABFE654807F0CCF9C2B22046FA
:10552000611CCCB25F490A540819604907F0C9F9F7
:105530005E4807F0BFF92044C4B200222046611C37
:10554000CCB258490A5416222046611CCCB25549A7
:105550000A5400222046611CCCB252490A5401224E
:105560002046611CCCB24F490A544F4890F8D020D5
:105570002046611CCCB24B490A5400222046611CD3
:10558000CCB248490A541A222046611CCCB2454983
:105590000A5400222046611CCCB242490A5401221E
:1055A0002046611CCCB23F490A543F4890F8D120B4
:1055B0002046611CCCB23B490A543B4890F8A201FA
:1055C000002875D000222046611CCCB235490A540F
:1055D00006222046611CCCB232490A5400222046E1
:1055E000611CCCB22F490A542F4890F8A221AFF287
:1055F00060312E4807F03AFE2C4807F05BF9C2B242
:105600002046611CCCB227490A540819274907F0E3
:1056100058F9264807F04EF92044C4B2002220462B
:10562000611CCCB21F490A540A222046611CCCB22C
:105630001C490A5400222046611CCCB219490A5464
:105640001948B0F9B821AFF2B831184807F00EFE8A
:10565000164807F02FF9C2B22046611CCCB211499E
:105660000A540819114907F02CF9104807F022F9DB
:105670002044C4B200222046611CCCB209490A541D
:105680000E222046611CCCB206490A540022204654
:10569000611CCCB203490A540348B0F9B421AFF2FB
:1056A000104106E0D02F0020582100203F3100207B
:1056B00080E0FE4807F0DAFDFC4807F0FBF8C2B2D4
:1056C0002046611CCCB2FA490A540819F74907F080
:1056D000F8F8F64807F0EEF82044C4B2002220465D
:1056E000611CCCB2F2490A5413222046611CCCB290
:1056F000EF490A5400222046611CCCB2EC490A54FE
:10570000EC48B0F83622AFF27841E84807F0AEFD39
:10571000E64807F0CFF8C2B22046611CCCB2E4499B
:105720000A540819E14907F0CCF8E04807F0C2F83C
:105730002044C4B200222046611CCCB2DC490A5489
:1057400017222046611CCCB2D9490A5400222046B7
:10575000611CCCB2D6490A5401222046611CCCB24D
:10576000D3490A54D34890F8A0212046611CCCB2FA
:10577000CF490A5400222046611CCCB2CC490A54BD
:105780001B222046611CCCB2C9490A540022204683
:10579000611CCCB2C6490A5401222046611CCCB21D
:1057A000C3490A54C34890F8A1212046611CCCB2D9
:1057B000BF490A54BF4890F8720200287DD00022E9
:1057C0002046611CCCB2BA490A5407222046611C0B
:1057D000CCB2B7490A5400222046611CCCB2B4496D
:1057E0000A54B44890F87222AFF25C51AF4807F007
:1057F0003DFDAE4807F05EF8C2B22046611CCCB257
:10580000AB490A540819A94907F05BF8A74807F003
:1058100051F82044C4B200222046611CCCB2A449F5
:105820000A540B222046611CCCB2A1490A54002222
:105830002046611CCCB29E490A549E48B0F9882289
:10584000AFF2B451994807F011FD984807F032F8CB
:10585000C2B22046611CCCB295490A54081993493A
:1058600007F02FF8914807F025F82044C4B2002231
:105870002046611CCCB28E490A540F222046611C7E
:10588000CCB28B490A5400222046611CCCB2884914
:105890000A548848B0F98422AFF20C61834807F0BB
:1058A000E5FC824807F006F8C2B22046611CCCB283
:1058B0007F490A5408197D4900E072E007F001F8B9
:1058C0007A4806F0F7FF2044C4B200222046611C4B
:1058D000CCB277490A5414222046611CCCB27449D8
:1058E0000A5400222046611CCCB271490A54714806
:1058F000B0F80623AFF268616C4807F0B7FC6B485C
:1059000006F0D8FFC2B22046611CCCB268490A54E6
:105910000819664906F0D5FF644806F0CBFF20441D
:10592000C4B200222046611CCCB261490A5418223C
:105930002046611CCCB25E490A5400222046611CFC
:10594000CCB25B490A5401222046611CCCB25849B2
:105950000A54584890F870222046611CCCB2544931
:105960000A5400222046611CCCB251490A541C2220
:105970002046611CCCB24E490A5400222046611CCC
:10598000CCB24B490A5401222046611CCCB2484992
:105990000A54484890F871222046611CCCB2444910
:1059A0000A5400222046611CCCB241490A541022FC
:1059B0002046611CCCB23E490A5400222046611C9C
:1059C000CCB23B490A543C484068406802883BA13D
:1059D000364807F04BFC354806F06CFFC2B2204653
:1059E000611CCCB232490A540819304906F069FFEB
:1059F0002E4806F05FFF2044C4B2FF222046611CFF
:105A0000CCB22B490A54FC222046611CCCB2284956
:105A10000A54FF222046611CCCB225490A54214673
:105A2000601CC4B222484254FEE3EE222046611CB0
:105A3000CCB21F490A54B1222046611CCCB21C4989
:105A40000A5412222146601CC4B219484254002252
:105A50002046611CCCB216490A5405222146601C1E
:105A6000C4B213484254134890F8420300287DD032
:105A700000222046611CCCB20D490A540422204663
:105A8000611CCCB20A490A5400222046611CCCB2E7
:105A900007490A54074890F84223AFF60C0103481F
:105AA00007F0E4FB014806F005FF09E03F31002064
:105AB000D02F0020582100204C0000202578000025
:105AC000C2B22046611CCCB2FE490A540819FE49F4
:105AD00006F0F7FEFC4806F0EDFE2044C4B20022BA
