:020000040800F2
:1000000038BA0020C59F0008CD9F0008CF9F000888
:10001000D19F0008D39F0008D59F00080000000072
:10002000000000000000000000000000D79F000852
:10003000D99F000800000000BBC500081FC80008C9
:10004000DF9F0008DF9F0008DF9F0008DF9F000898
:10005000DF9F0008DF9F0008DF9F0008DF9F000888
:10006000DF9F0008DF9F0008DF9F0008DF9F000878
:10007000DF9F0008DF9F0008DF9F0008DF9F000868
:10008000DF9F000891460008DF9F0008DF9F0008FF
:10009000EF050008DF9F0008DF9F0008DF9F0008D2
:1000A000DF9F0008DF9F0008DF9F0008DF9F000838
:1000B000990F000823110008DF9F0008DF9F000848
:1000C000DF9F0008DF9F0008DF9F0008DF9F000818
:1000D000DF9F0008DF9F0008B7460008DF9F000889
:1000E000DF9F0008DF9F0008DF9F0008DF9F0008F8
:1000F000DF9F0008DF9F0008DF9F0008DF9F0008E8
:10010000DF9F0008DF9F0008DF9F0008DF9F0008D7
:10011000DF9F0008DF9F0008DF9F0008DF9F0008C7
:10012000DF9F0008DF9F0008DF9F0008DF9F0008B7
:10013000DF9F0008DF9F0008DF9F0008DF9F0008A7
:10014000DB090008990D0008DF9F0008DF9F000809
:10015000DF9F0008DF9F000881450008DF9F00083F
:10016000DF9F0008DF9F0008DF9F0008DF9F000877
:10017000DF9F0008DF9F0008DF9F0008DF9F000867
:10018000DF9F0008DF9F0008DFF80CD00CF02AFF8B
:10019000004800479903000838BA002030BF72B603
:1001A000704762B6704780F30888704723E09D4827
:1001B00090ED0A1BB0EE410AF0EE610A51EC100B13
:1001C0000CF05CFD04B2974890ED041BB0EE410AC0
:1001D000F0EE610A51EC100B0CF050FD05B29248A4
:1001E000B0F9E835B0F9D0252146284607F0D1F816
:1001F00046200CF0EBF8DAE700BF8C4806F054FF1D
:1002000005200CF0E3F8894806F04EFF05200CF0BD
:10021000DDF8864806F048FF05200CF0D7F82EE000
:100220008348007838B3804890F8780118B3814843
:1002300000684142804881607E48006841427E48B3
:10024000C0F8681144F620600CF0C0F87648B0F8A9
:10025000300100F5B47001B27348A0F830110020ED
:100260007349087044F620600CF0B0F80021724821
:100270008160C0F868114FF4FA700CF0A7F8CFE76E
:100280004BE006F0DEFD6D48007810B906F055FE33
:100290003FE010206A494883684840684468002568
:1002A00033E0207800F00F0060B9802064490883B3
:1002B0002078C0F30311402006F079FE2020604929
:1002C000488311E0207800F00F01802006F06FFED7
:1002D0002078C0F30311402006F069FE2088C0F3A7
:1002E0000321202006F063FE64684FF47A700CF05E
:1002F0006DF840205249088380200883202008831D
:1003000041F270700CF062F86D1C4C480078A84205
:10031000C7DC4FF47A700CF059F8B2E705E004F04E
:10032000C0FD4FF47A700CF051F8F8E770B5044650
:10033000002500BF0CF089FA0CF01EF905460020DC
:100340000BF0B3FA3F49086019233F4A00213F48A8
:100350000BF0F6FC1E233E4A00213E480BF0F0FC59
:1003600028233D4A00213D480BF0EAFC37233C4A54
:1003700000213C480BF0E4FC64200CF027F800203E
:1003800006F043FE022006F076FE05200BF056FF35
:1003900028460CF0F5F870BD10B540F6B83006F000
:1003A0007EFC09F075FD4FF4806101F007022E4BD1
:1003B00018684FF6FF0318402C4B034343EA022012
:1003C000294B186000BF2A48006840F00700284900
:1003D000086006F0A7FD06F043FE06F0FFFD06F0FC
:1003E00079FC00F04DF800F055F904F05BF804F0EA
:1003F000E9F800F063FE00F0A7FD03F0EEFF05F062
:1004000036FF02211B4805F0F5FF09F025FF052303
:10041000194A002119480BF093FC0AF044F8002017
:1004200010BD0000582700209021002000640040EB
:100430004400002048000020082D00204C0000202F
:100440000000024000000020E40C00201D03000812
:10045000E40E002081020008E41E0020F9010008DB
:10046000E4200020AD0100080CED00E00000FA05DA
:1004700030380240EC4D0020E40400202D03000839
:1004800000B58BB00121480609F07BF9012108462F
:1004900009F044F909220B217B4808F084FF092266
:1004A0000C21794808F07FFF02208DF81C004FF4E2
:1004B000C050069006A9744808F0EAFE00208DF8A6
:1004C00026008DF827008DF828008DF829008DF87A
:1004D0002A008DF82B008DF822008DF823000820CB
:1004E0008DF8240003208DF82500ADF8200008A920
:1004F000664807F0ACFF02208DF8120001208DF84D
:10050000130000208DF8140046F22000ADF808001A
:1005100046F24000ADF80A0046F26000ADF80C006B
:100520004FF4C140ADF80E000020ADF810000120DE
:100530008DF8150002A808F014F804208DF81200B8
:1005400001208DF8130000208DF8140046F2A00061
:10055000ADF8080046F2C000ADF80A0046F2E0002F
:10056000ADF80C004FF4C240ADF80E000020ADF81D
:10057000100001208DF8150002A807F0F2FF0520F9
:100580008DF8120001208DF8130000208DF8140062
:1005900046F22010ADF808004FF4C440ADF80A0050
:1005A0004FF4C840ADF80C0046F22040ADF80E0004
:1005B0000020ADF8100001208DF8150002A807F00A
:1005C000D0FF14208DF8040003208DF805000020D2
:1005D0008DF8060001208DF8070001A807F0B3FE92
:1005E00001220221294808F0BBFA0BB000BD00B57A
:1005F00085B00221254808F01BFB78B10221234871
:1006000008F0B1FB0221214808F0EFFA6A46002108
:100610001E4808F08AF903201D49887005B000BD06
:1006200010B586B004461A48807800F0010048B141
:100630001748807800F0020020B91548807800F053
:100640000400F0B9207A28B900208DF80C00206849
:100650008038019000208DF80D00A07A8DF80E00F2
:10066000A27A04F10B010DF10F000CF021F99DF8B5
:100670000F004030C0B28DF80F0001A9034808F008
:100680005FF806B010BD00000000024000640040AA
:100690006400002000B58BB00121880609F071F8D4
:1006A00009220521FE4808F07EFE09220621FC48A9
:1006B00008F079FE02208DF818006020059005A949
:1006C000F74808F0E5FD40208DF8280002208DF85D
:1006D000290000208DF82A0001208DF82B000AA89F
:1006E00007F031FE41208DF8280002208DF8290006
:1006F00001208DF82A008DF82B000AA807F023FEB0
:1007000000208DF822008DF823008DF824008DF84C
:1007100025008DF826008DF827008DF81E008DF835
:100720001F0008208DF8200003208DF82100ADF86F
:100730001C0007A9DB4807F08AFE0E208DF80E008A
:1007400001208DF80F0000208DF8100044F22000E9
:10075000ADF8040044F24000ADF8060044F2600039
:10076000ADF808004FF48140ADF80A000020ADF864
:100770000C0001208DF8110001A807F0F2FE0F20F7
:100780008DF80E0001208DF80F0000208DF810006C
:1007900044F2A000ADF8040044F2C000ADF8060039
:1007A00044F2E000ADF808004FF48240ADF80A00D2
:1007B0000020ADF80C0001208DF8110001A807F011
:1007C000D0FE10208DF80E0001208DF80F000020C3
:1007D0008DF8100045F22000ADF8040045F240000D
:1007E000ADF8060045F26000ADF808004FF4A140F6
:1007F000ADF80A000120ADF80C008DF8110001A839
:1008000007F0AFFE11208DF80E0001208DF80F00CB
:1008100000208DF8100045F2A000ADF8040045F26C
:10082000C000ADF8060045F2E000ADF808004FF456
:10083000A240ADF80A000120ADF80C008DF81100BF
:1008400001A807F08EFE12208DF80E0001208DF811
:100850000F0000208DF8100043F22000ADF80400D6
:100860004FF44150ADF8060043F26000ADF80800C7
:100870004FF44250ADF80A000120ADF80C008DF89D
:10088000110001A807F06DFE13208DF80E00012065
:100890008DF80F0000208DF8100043F2A000ADF895
:1008A00004004FF44350ADF8060043F2E000ADF809
:1008B00008004FF44450ADF80A000120ADF80C00D8
:1008C0008DF8110001A807F04CFE14208DF80E00E1
:1008D00000208DF80F0001208DF810000020ADF8E9
:1008E00004004FF49040ADF806004FF6FF70ADF8ED
:1008F00008004FF47840ADF80A000120ADF80C0074
:100900008DF8110001A807F02CFE15208DF80E00BF
:1009100001208DF80F0000208DF810004BF2200010
:10092000ADF804004BF24000ADF806004BF2800039
:10093000ADF80800ADF80A000120ADF80C008DF804
:10094000110001A807F00DFE16208DF80E00012001
:100950008DF80F0000208DF810004FF48150ADF895
:1009600004004FF48250ADF806004FF48350ADF808
:1009700008004FF48450ADF80A000120ADF80C00D7
:100980008DF8110001A807F0ECFD17208DF80E007E
:1009900001208DF80F0000208DF810004FF48550D5
:1009A000ADF804004FF48650ADF806004FF48750C0
:1009B000ADF808004FF48850ADF80A000120ADF8FA
:1009C0000C008DF8110001A807F0CBFD01220221D7
:1009D000344808F0C5F80BB000BD10B52DED0C8BF8
:1009E00086B002212F4808F023F900287ED001AA02
:1009F00000212C4807F099FF02212A4808F0B3F99A
:100A00000198B0F5007F72D90198B0F5027F6ED8D9
:100A10009DF80D0000286AD10198401EC4B204A9B7
:100A2000481E03F0E8FC0DF11201481E03F0E3FC40
:100A300005A9481E03F0DFFC04EB840000EB441022
:100A4000194901EBC000B0F81C0118498988884297
:100A500013D1BDF80F1004EB840000EB4410124AD0
:100A600002EBC0008186BDF8111004EB840000EB9E
:100A7000441002EBC00041842BE0BDF80F1004EBE2
:100A8000840000EB4410084A02EBC0008186BDF9E7
:100A900011000CF0D5F841EC100B04EB840007E0DA
:100AA0000004024000680040902100202021002026
:100AB00000EB4410FE4901EBC00080ED0A0BBDF8CD
:100AC000131004EB840000EB4410F94A02EBC00061
:100AD000418404EB840000EB4410F54901EBC000B5
:100AE000818E04EB840000EB441001E03EE13CE128
:100AF000EF4A02EBC000B0F84C00081A01B204EB58
:100B0000840000EB441002EBC000A0F8001104EBDD
:100B1000840000EB4410114601EBC000008C04EB94
:100B2000840101EB441102EBC101088704EB84004E
:100B300000EB4410114601EBC000418C04EB840033
:100B400000EB441002EBC000418704EB840000EB93
:100B50004410114601EBC00090ED0A0B04EB840039
:100B600000EB441001EBC00080ED100B04EB84009F
:100B700000EB441001EBC000016B04EB840000EBC0
:100B8000441002EBC000816404EB840000EB4410CD
:100B9000114601EBC000818E04EB840000EB441091
:100BA00002EBC000A0F84C1004EB840000EB4410F2
:100BB000114601EBC000B0F90001002808DD04EB8C
:100BC000840000EB441001EBC000B0F9000109E023
:100BD00004EB840000EB4410B54901EBC000B0F910
:100BE00000014042B0F57A6F2CDD04EB840000EB8D
:100BF0004410AF4901EBC000B0F9001104EB8400D0
:100C000000EB4410AA4A02EBC000B0F90001002832
:100C100002DA4FF0FF3000E0012004EB840202EB27
:100C20004412A34B03EBC202B2F8182100FB1210CE
:100C300001B204EB840000EB44101A4602EBC00042
:100C4000A0F8001104EB840000EB4410984901EB7C
:100C5000C000016B04EB840000EB4410944A02EBEB
:100C6000C000B0F90001014404EB840000EB441023
:100C700002EBC000016304EB840000EB441011465A
:100C800001EBC000016B04EB840000EB441002EBAD
:100C9000C0008069091A04EB840000EB441002EBE9
:100CA000C000C0F8041104EB840101EB441102EB15
:100CB000C101B1F818010BF0D4FF41EC1A0B04EBA1
:100CC000840101EB44117A4A02EBC10191F81A0147
:100CD0000BF0C7FF41EC1C0B04EB840000EB44104D
:100CE000734A02EBC000006B00EE100AB8EEC00AB7
:100CF000DFED700A20EE200A10EE101A08460BF005
:100D0000F5FF53EC1C2B0BF02CFF53EC1A2B0BF0C4
:100D100028FF41EC190B04EB840000EB44106449FC
:100D200001EBC00090ED481BB0EE410AF0EE610A05
:100D300053EC102B51EC190B0BF013FF0BF09EFF33
:100D400000B204EB840101EB4411594A02EBC101EA
:100D500008840BF0EBFB04EB840101EB4411544AD3
:100D600002EBC101C1F8100100BF00BF06B0BDEC2D
:100D70000C8B10BD4168491C416000210173016961
:100D8000491E0161828A511CCA1701EB92629211BD
:100D9000A1EB82128282704700B585B010214648CF
:100DA00007F046FF68B16A460121434807F0BDFDE0
:100DB0001021414807F0D7FF10213F4807F015FFE9
:100DC00000BF05B000BD70B5044604EB840000EB25
:100DD0004410374901EBC000B0F90A00002808DDD3
:100DE00004EB840000EB441001EBC000B0F90A00F2
:100DF00009E004EB840000EB44102D4901EBC00036
:100E0000B0F90A00404204EB840101EB4411284A86
:100E100002EBC101B1F81C11884220DD04EB840013
:100E200000EB4410114601EBC000B0F90A000028A5
:100E300002DA4FF0FF3000E0012004EB840101EB07
:100E400044111B4A02EBC101B1F81C11484301B225
:100E500004EB840000EB441002EBC000418104EB82
:100E6000840000EB4410124911F8300040B9002111
:100E700004EB840000EB44100D4A02EBC0004181FA
:100E8000042C04DA4FF400700C49086003E040F2CF
:100E9000FF100A49086000200849487208720820BB
:100EA000887204F00B00450004EB840008E00000A9
:100EB000902100200000B44300680040E82000209A
:100EC00000EB44101B4901EBC00041891A48415313
:100ED00002466B1CD118501903F08DFA032C01D077
:100EE000072C04D114490B39144807F029FC70BDB4
:100EF00030B585B005460C461148019000208DF8AC
:100F0000090004208DF8080003208DF80A005620FF
:100F10008DF80B004C218DF80C108DF80D408DF8DC
:100F20000E506946054807F00BFC0648447005B0B2
:100F300030BD000090210020F32000200068004018
:100F4000010103001C35002010B55848006840F02E
:100F500001005649086041F657300906C8620B2067
:100F600008850846008840F4807008800846008A9A
:100F700020F0010008820846808940F00100888145
:100F80000846008840F00100088003231C2201214C
:100F9000084606F051FA10BD4FF08040008A4FF02D
:100FA0008040008A20F001004FF0804108827047A5
:100FB00070B53F490878411C3D4A1170032807DD90
:100FC00000201146087000220121104601F0FCFDAE
:100FD000002464E004EB8400364901EB0010407803
:100FE00000B30BF0A3FA04EB8401324A02EB0111C7
:100FF000096C411A04EB840002EB0010B0F84400C5
:1010000081420FD904EB8400114601EB001090F8E7
:101010003C00401CC1B204EB840002EB001080F8DD
:101020003C1007E0002104EB8400224A02EB001090
:1010300080F83C1004EB84001E4901EB001090F88E
:101040003C000A2812DD012104EB8400194A02EB5E
:101050000010C177621C022343EA021292B242F4EA
:101060008071154A506803F0F0F917E0002104EB95
:101070008400104A02EB0010C177621C022343EA8D
:10108000021292B242F480710B4A506803F0CFF919
:10109000054609494868294603F0B3F9641C042C45
:1010A00098DB70BD704770477047000040380240C1
:1010B00004000020182B00204C00002010B54548EB
:1010C000006840F002004349086042F6DF60424990
:1010D00008604520091F08803F482C38008840F4EC
:1010E00080703D492C3908803B481C38008820F02E
:1010F000010039491C390880081F008840F00100B0
:10110000091F088034482C38008840F0010032491B
:101110002C39088003231D220021012006F08CF9C0
:1011200010BD10B52C481C38008800F001000028C4
:1011300047D000F087FE002435E004EB840000EB8C
:101140004410264911F8300028B304EB840000EB6A
:10115000441001EBC0004078F0B104EB840000EBD8
:10116000441001EBC0008078012806D0022805D089
:1011700004280BD005280DD104E00CE020B200F0CB
:10118000CFFA08E020B200F046FB04E020B200F005
:1011900051FD00E000BF02E020B200F03CFBE0B2F5
:1011A000FFF711FE641C082CC7DB0D490D4805F044
:1011B00066F80D48407A20B1022209490B4805F033
:1011C00069F905481C38008820F0010002491C39E3
:1011D000088010BD403802402C04004090210020BF
:1011E000846E0020006800401C350020EC4D00207B
:1011F00070B52DED0E8B00BF4FF40050FE490880F6
:10120000FE490880FE4908802420FB49887013208D
:10121000FA4988700120FA49887042F22830F6496C
:10122000888043F69910F549888046F6CC40F44909
:1012300088809FEDF40BF04880ED020B9FEDF10BE1
:10124000EE4880ED020B9FEDEF0B084680ED020BA0
:101250000120EE4908729FEDEE0B084680ED040B6D
:101260000020087608709FEDEC0A084680ED010A20
:101270004FF4FA704883400088830120E7490872E0
:101280009FEDE70B084680ED040B00200876087000
:101290009FEDE10A084680ED010A4FF4FA60E24949
:1012A0008883052404EB840000EB4410DF4901EB44
:1012B000C00000F58070D24D2ECD18302EC0002019
:1012C00004EB840101EB4411D84A02F831000120FB
:1012D00004EB840101EB441102EBC10148700520CD
:1012E00004EB840101EB441102EBC10188704FF45F
:1012F000B47004EB840101EB441102EBC1010881DD
:101300009FEDCB0B04EB840000EB4410114601EB86
:10131000C00080ED040B002104EB840000EB4410BE
:1013200002EBC000418104EB840202EB4412BF4B8C
:1013300003EBC202916904EB840202EB441203EB5B
:10134000C20202F15800F7EE001A9FEDBB1ADFED62
:10135000BB0A9FEDB90A05F0BBFA04EB840000EB71
:101360004410B24901EBC00090ED041BB0EE410AFD
:10137000F0EE610A51EC100B0BF080FC054604EB1B
:10138000840101EB4411A94A02EBC10101F198006B
:101390002946F7EE001A9FEDAA1AF2EE040AB2EE01
:1013A000040A05F095FA04EB840101EB44119F4A0D
:1013B00002EBC10101F1D800202298490BF078FA24
:1013C000012404EB840000EB4410984901EBC000B9
:1013D00000F58070894D2ECD18302EC0002004EB12
:1013E000840101EB4411914A02F83100012004EB21
:1013F000840101EB441102EBC1014870052004EBAC
:10140000840101EB441102EBC1018870002004EB60
:10141000840101EB441102EBC10108819FED7C0BBB
:1014200004EB840000EB4410114601EBC00080ED9A
:10143000040B642104EB840000EB441002EBC000B9
:10144000418104EB840202EB4412784B03EBC202AD
:10145000916904EB840202EB441203EBC20202F135
:101460005800DFED781A9FED761ADFED740AB1EEC1
:10147000040A05F02DFA04EB840000EB44106B49DC
:1014800001EBC00090ED041BB0EE410AF0EE610AE2
:1014900051EC100B0BF0F2FB054604EB840101EB61
:1014A0004411624A02EBC10101F198002946F7EEAE
:1014B000001A9FED631ADFED640AB2EE000A05F030
:1014C00007FA04EB840101EB4411584A02EBC10115
:1014D00001F1D80020224D490BF0EAF9002512E174
:1014E00005EB850000EB4510504901EBC0004E496B
:1014F0000968C0F8F8104C48416805EB850000EB1E
:1015000045104A4A02EBC000C0F8FC1005EB85010B
:1015100001EB451102EBC10101F580700A2242493D
:1015200008310BF0C5F94048418A05EB850000EB16
:1015300045103E4A02EBC000A0F80A1105EB8500F9
:1015400000EB4510114601EBC000F830364B5969ED
:101550009A69DB6914300EC005EB850101EB45117A
:10156000324A02EBC101B1F818010BF07AFB41ECF1
:101570001A0B05EB850101EB45112C4A02EBC10169
:1015800091F81A010BF06DFB41EC1C0B05EB85008B
:1015900000EB4510254A02EBC00090ED370A10EE33
:1015A000101A08460BF0A2FB41EC1E0B05EB850060
:1015B00000EB45101D4901EBC00090ED481BB0EE5B
:1015C000410AF0EE610A53EC102B51EC1E0B0BF0AC
:1015D00056FA53EC1C2B0BF052FA53EC1A2B0BF06F
:1015E0004EFA9FED1A0B53EC102B0BF0BAFA0BF0DE
:1015F00064FB05EB85012DE0002100201021002077
:1016000020210020000000000000F03F30210020D9
:101610000000000000408F400000FA4350210020ED
:10162000000000000000794070210020902100207F
:101630000000000000000000CDCCCC3DCDCC4C3EE5
:1016400000000000CDCCCC3E9A99993E00000000ED
:101650000080764001EB4511FE4A02EBC101C1F862
:10166000F80005EB850101EB451102EBC101B1F872
:1016700018010BF0F6FA41EC1A0B05EB850101EBB2
:101680004511F44A02EBC10191F81A010BF0E9FA95
:1016900041EC1C0B05EB850101EB4511ED4A02EB1A
:1016A000C101B1F908000BF0CBFA41EC1E0B05EBC0
:1016B000850000EB4510E74901EBC00090ED481BA9
:1016C000B0EE410AF0EE610A53EC102B51EC1E0B08
:1016D0000BF0D5F953EC1C2B0BF0D1F953EC1A2B72
:1016E0000BF0CDF91FED270B53EC102B0BF039FA53
:1016F0000BF0C4FA05EB850101EB4511D54A02EB6D
:10170000C10188616D1C082DFFF6EAAEBDEC0E8BA1
:1017100070BD002255210A540263002101847047E4
:1017200010B52DED048B044604EB840000EB44104F
:10173000C84A02EBC00090ED2A0A10EE101A0846C3
:101740000BF0D4FA41EC190B04EB840000EB4410CD
:10175000C04901EBC00090ED041BB0EE410AF0EE71
:10176000610A53EC102B51EC190B0BF088F90BF0BC
:1017700085FA04EB840101EB4411B64A02EBC10186
:10178000C1F8980004EB840000EB4410114601EB13
:10179000C00090ED0A0B04EB840000EB441001EB59
:1017A000C00080ED2E0B04EB840101EB441102EB31
:1017B000C10101F1980005F02FF904EB840101EB60
:1017C0004411A44A02EBC101B1F90A000BF038FA46
:1017D00041EC190B04EB840000EB44109D4901EB34
:1017E000C00090ED2C1BB0EE410AF0EE610A53EC04
:1017F000102B51EC190B0BF09BF80BF03FFA01B2D8
:1018000004EB840000EB4410924A02EBC0004181DB
:10181000BDEC048B10BD10B52DED0E8B044604EB12
:10182000840101EB44118B4A02EBC101B1F81801AC
:101830000BF017FA41EC1A0B04EB840101EB441195
:10184000844A02EBC10191F81A010BF00AFA41EC4B
:101850001C0B04EB840101EB44117E4A02EBC10135
:10186000B1F908000BF0ECF941EC1E0B04EB84001D
:1018700000EB4410774901EBC00090ED481BB0EE3F
:10188000410AF0EE610A53EC102B51EC1E0B0BF0E9
:10189000F6F853EC1C2B0BF0F2F853EC1A2B0BF070
:1018A000EEF81FED960B53EC102B0BF05AF90BF0E2
:1018B000E5F904EB840101EB4411664A02EBC10136
:1018C000886104EB840000EB4410114601EBC0007A
:1018D000806904EB840101EB441102EBC1018865CE
:1018E00004EB840000EB4410114601EBC00040788B
:1018F00070B904EB840000EB441001EBC000D0F899
:10190000FC0004EB840101EB441102EBC10188658A
:1019100004EB840000EB44104E4901EBC00090F84A
:10192000D80088B304EB840000EB441001EBC00046
:10193000806D002807DD04EB840000EB441001EB10
:10194000C000806D08E004EB840000EB44104149C6
:1019500001EBC000806D404204EB840101EB4411B7
:101960003C4A02EBC101D1F8F81088421FD904EBC0
:10197000840000EB4410114601EBC000806D00288C
:1019800003DA4FF0FF3001E011E0012004EB8401A5
:1019900001EB44112F4A02EBC101D1F8F810484382
:1019A00004EB840101EB441102EBC101886504EBF7
:1019B000840101EB4411274A02EBC101086B0BF0D3
:1019C0003FF941EC100B04EB840000EB441021497B
:1019D00001EBC00080ED1E0B04EB840101EB441110
:1019E0001C4A02EBC10101F1580005F015F804EBA7
:1019F000840000EB4410174A02EBC00090ED1A0A75
:101A000010EE101A08460BF071F941EC190B04EBBB
:101A1000840000EB44100F4901EBC00090ED1C1B4B
:101A2000B0EE410AF0EE610A53EC102B51EC190BA9
:101A30000BF025F80BF022F904EB840101EB4411C3
:101A4000044A02EBC101C1F8980004EB840000EBEA
:101A5000441001E090210020114601EBC00090F8F5
:101A6000E000002867D004EB840101EB441102EB95
:101A7000C101D1F89810002908DD04EB840101EBC5
:101A8000441102EBC101D1F8981009E004EB840184
:101A900001EB4411FE4A02EBC101D1F89810494212
:101AA00008460BF0CDF841EC180B04EB840000EB7A
:101AB0004410F74901EBC00090ED3A1BB0EE410A2B
:101AC000F0EE610A53EC102B51EC180B0BF03AF9C5
:101AD00031D204EB840101EB4411ED4A02EBC10168
:101AE000D1F89810002902DA4FF0FF3100E001210F
:101AF00008460BF0A5F841EC190B04EB840000EB51
:101B00004410E34901EBC00090ED3A1BB0EE410AEE
:101B1000F0EE610A53EC102B51EC190B0AF0AFFFF9
:101B20000BF0ACF804EB840101EB4411D84A02EB52
:101B3000C101C1F8980004EB840000EB4410D449C3
:101B400001EBC00090ED0A0B04EB840000EB4410A5
:101B500001EBC00080ED2E0B04EB840101EB44117E
:101B6000CB4A02EBC10101F1980004F055FF04EBF0
:101B7000840101EB4411C64A02EBC101B1F90A002C
:101B80000BF05EF841EC190B04EB840000EB441001
:101B9000BF4901EBC00090ED2C1BB0EE410AF0EE06
:101BA000610A53EC102B51EC190B0AF0C1FE0BF03B
:101BB00065F801B204EB840000EB4410B44A02EB78
:101BC000C000418104EB840000EB4410114601EB9E
:101BD000C000D0F80401002808DD04EB840000EB0D
:101BE000441001EBC000D0F8040109E004EB8400CC
:101BF00000EB4410A64901EBC000D0F804014042BC
:101C00003C280ADA012004EB840101EB4411A04ACC
:101C100002EBC10181F8500009E0002004EB8401CF
:101C200001EB44119A4A02EBC10181F85000BDEC6E
:101C30000E8B10BD10B52DED048B044604EB840013
:101C400000EB4410924901EBC000B0F9F20004EB44
:101C5000840101EB44118E4A02EBC101C1F89800E6
:101C600004EB840000EB4410114601EBC00090ED42
:101C70000A0B04EB840000EB441001EBC00080ED84
:101C80002E0B04EB840101EB441102EBC10101F1C5
:101C9000980004F0C1FE04EB840101EB44117C4A7E
:101CA00002EBC101B1F90A000AF0CAFF41EC190BBD
:101CB00004EB840000EB4410754901EBC00090ED8B
:101CC0002C1BB0EE410AF0EE610A53EC102B51ECE4
:101CD000190B0AF02DFE0AF0D1FF01B204EB8400CB
:101CE00000EB44106A4A02EBC000418104EB84001F
:101CF00000EB4410114601EBC000B0F90A000028C7
:101D000008DD04EB840000EB441001EBC000B0F9E7
:101D10000A0009E004EB840000EB44105C4901EB8D
:101D2000C000B0F90A0040425A49898B88421ADD46
:101D300004EB840000EB4410554901EBC000B0F9FE
:101D40000A00002802DA4FF0FF3000E0012051497C
:101D5000898B484301B204EB840000EB44104C4AE9
:101D600002EBC000418104EB840000EB44104849C1
:101D700001EBC000B0F90001002808DD04EB84008D
:101D800000EB441001EBC000B0F9000109E004EBE6
:101D9000840000EB44103E4901EBC000B0F90001A3
:101DA0004042322814DA04EB840000EB4410384936
:101DB00001EBC000B0F80801401C81B204EB8400C4
:101DC00000EB4410324A02EBC000A0F8081109E011
:101DD000002104EB840000EB44102D4A02EBC0000C
:101DE000A0F8081104EB840000EB4410284901EB33
:101DF000C000B0F80801FA2821DD002104EB8400BE
:101E000000EB4410224A02EBC000A0F8081104EBDA
:101E1000840000EB441002EBC0000163052004EBDA
:101E2000840101EB441102EBC1018870012104EB34
:101E3000840000EB441002EBC00080F85110BDECB0
:101E4000048B10BD70B500247DE104EB840000EB31
:101E500044100F4901EBC000B0F81C010E498988FD
:101E6000884232D104EB840000EB4410084901EBB6
:101E7000C000006B094951F82410401A64214843FE
:101E8000C0EB0010800004EB840101EB441107E07B
:101E9000902100203021002020210020D02A002085
:101EA000AB4A02EBC101B1F8181190FBF1F52846DD
:101EB0000AF0C6FE41EC100B04EB840000EB44106A
:101EC000A34901EBC00080ED0A0B04EB840000EB9A
:101ED00044109F4901EBC000006B9E4941F824006B
:101EE00004EB840000EB4410994911F830000028FD
:101EF00076D004EB840000EB441001EBC000B0F995
:101F00000A1004EB840000EB4410914A02EBC0007D
:101F1000B0F81C01081A002812DD04EB840000EB65
:101F20004410114601EBC000B0F90A1004EB840024
:101F300000EB441002EBC000B0F81C01081A12E0DC
:101F400004EB840000EB4410814901EBC000B0F8C1
:101F50001C1104EB840000EB44107D4A02EBC0002E
:101F6000B0F90A00081A322846DD04EB840000EBC1
:101F70004410774901EBC000B0F80A01401C81B25F
:101F800004EB840000EB4410714A02EBC000A0F89F
:101F90000A1104EB840000EB4410114601EBC00071
:101FA000B0F80A01B0F57A7F1BDD012104EB840053
:101FB00000EB441002EBC00080F8521004EB8400E8
:101FC00000EB4410114601EBC00090F8F000E8B1BE
:101FD000002004EB840101EB441102F8310015E00C
:101FE0000AE0002104EB840000EB4410584A02EBA5
:101FF000C00080F8521009E0002104EB840000EBDF
:102000004410534A02EBC000A0F80A1104EB84000C
:1020100000EB44104E4901EBC000407878B104EB6E
:10202000840000EB441001EBC000016B04EB840062
:1020300000EB4410464A02EBC000C0F8FC1004EB71
:10204000840000EB4410424901EBC00090F85500B9
:1020500040B104EB840101EB44113D4A02EBC100A5
:10206000FFF757FB04EB840000EB4410384911F8EC
:102070003000E8B30AF05AFA04EB840101EB441192
:10208000334A02EBC101D1F81011411A04EB84006C
:1020900000EB441002EBC000B0F81401814236D9C5
:1020A00004EB840000EB4410114601EBC00090F8F3
:1020B0000C01401CC1B204EB840000EB441002EBA5
:1020C000C00080F80C110A2916DD012104EB840000
:1020D00000EB441002EBC00080F85310621C012397
:1020E00043EA021292B242F480711B4A506800E047
:1020F0000DE002F0AAF925E0002104EB840000EBDA
:102100004410134A02EBC00080F853101AE000217B
:1021100004EB840000EB44100D4A02EBC00080F891
:102120000C11621C012343EA021292B242F4807144
:10213000094A506802F07BF9054607494868294674
:1021400002F05FF9641C082CFFF67FAE70BD000042
:1021500090210020D02A00204C00002010B54FF420
:102160008040FC490880B7EE000A084680ED010A6D
:102170004FF48040F8490880B7EE000A084680ED29
:10218000010A4FF47A60F54908809FEDF50A084688
:1021900080ED010A4FF47A60F24908809FEDF20A5F
:1021A000084680ED010A0020F04908709FEDF00A12
:1021B000084680ED010A002008724FF47A704881C9
:1021C000002008734FF4FA70C88140000882400074
:1021D000E8490882002428E004EB8401E64A02EB87
:1021E000011101F120001422E0490AF061FB04EB27
:1021F0008400E14901EB0010DE490A6842638988E6
:102200000187DC48C18804EB8400DB4A02EB001044
:10221000418704EB8400114601EB0010D54B99680F
:10222000DA681B693C300EC0641C052CD4DB10BD81
:1022300010B586B00446002001908DF80D008DF891
:102240000C0008208DF80E0001208DF80F000021F1
:102250008DF810108DF811108DF812108DF81310E4
:102260008DF814108DF815108DF8161001A9204660
:1022700006F066FA06B010BD0FB438B5044606A8DD
:102280000090009802C80090009804C80090BB4BD2
:102290005B88581CC31700EB93639B11A0EB83135F
:1022A000B64D2D88AB4205D10120B54BD87238BC54
:1022B0005DF814FB04F54070B04B5D881B1D03EB0B
:1022C000051318609DF81400012822D10423AB489F
:1022D0004588001D00EB051003714123A748458880
:1022E000001D00EB051043714323A4484588001DE1
:1022F00000EB051083710023A0484588001D00EB0A
:102300000510C3719D484588001D00EB0510037240
:102310002CE09DF81400022828D10823974845880E
:10232000001D00EB05100371412394484588001DF2
:1023300000EB05104371432390484588001D00EBD6
:102340000510837100238D484588001D00EB0510A2
:10235000C3718A484588001D00EB05100372874849
:102360004388001D00EB0310C0F80920834845880E
:10237000001D00EB05104173804B5B88581CC31790
:1023800000EB93639B11A0EB83137C4D6B800020CB
:10239000009000BF8BE710B50246784B5B88581C55
:1023A000C31700EB93639B11A0EB8313734C24883A
:1023B000A34203D10120724BD87210BD02F54070C8
:1023C0006E4B5C881B1D03EB0413186004236B48E1
:1023D0004488001D00EB04100371422367484488C1
:1023E000001D00EB04104371472364484488001D1E
:1023F00000EB04108371002360484488001D00EB4B
:102400000410C3715D484488001D00EB0410037282
:102410005A484388001D00EB03104173574B5B88FB
:10242000581CC31700EB93639B11A0EB8313534C11
:10243000638000BFC1E70FB438B5044606A800901A
:10244000009802C80090009804C800904B4B5B882D
:10245000581CC31700EB93639B11A0EB8313474DEC
:102460002D88AB4205D10120454BD87238BC5DF8B0
:1024700014FB04F54070414B5D881B1D03EB0513F5
:1024800018609DF81400012822D104233B48458898
:10249000001D00EB05100371442338484588001DDA
:1024A00000EB05104371432334484588001D00EBC1
:1024B00005108371002331484588001D00EB05108D
:1024C000C3712E484588001D00EB051003722CE0F7
:1024D0009DF81400022828D1082328484588001DAB
:1024E00000EB05100371442324484588001D00EBD0
:1024F00005104371432321484588001D00EB05105A
:10250000837100231D484588001D00EB0510C37131
:102510001A484588001D00EB0510037217484388D0
:10252000001D00EB0310C0F8092014484588001D69
:1025300000EB05104173114B5B88581CC31700EB6F
:1025400093639B11A0EB83130C4D6B8000200090D4
:1025500000BF8BE7080000201000002018000020BA
:10256000CDCC6C4020000020E4389641F02A0020B9
:1025700000003444042B0020182B0020846E00201F
:102580001C3500200FB478B507A90091009904C943
:102590000091009908C90091FE4C6488611CCC1719
:1025A00001EB9464A411A1EB8414FA4D2D88AC4284
:1025B00005D10121F84CE17278BC5DF814FB00F5FF
:1025C0004071F44C6588241D04EB051421609DF8CE
:1025D0001810012922D10424EE494D88091D01EB70
:1025E00005110C714A24EB494D88091D01EB0511B9
:1025F0004C715624E7494D88091D01EB05118C717A
:102600000024E4494D88091D01EB0511CC71E14915
:102610004D88091D01EB05110C7239E09DF8181069
:10262000022935D1441E04EB8404DC4D05EB04146F
:10263000B4F848405C433C2594FBF5F10825D54CA3
:102640006688241D04EB061425714A25D14C668842
:10265000241D04EB061465715625CE4C6688241D96
:1026600004EB0614A5710025CA4C6688241D04EBF2
:102670000614E571C74C6688241D04EB0614257208
:10268000C44C6588241D04EB0514C4F8091000BF70
:10269000C0494D88091D01EB05114A73BD4C648882
:1026A000611CCC1701EB9464A411A1EB8414B94D07
:1026B0006C800021009100BF7EE710B50246B54B4B
:1026C0005B88581CC31700EB93639B11A0EB83132B
:1026D000B04C2488A34203D10120AF4BD87210BD67
:1026E00002F54070AB4B5C881B1D03EB04131860B4
:1026F0000423A8484488001D00EB041003714923FB
:10270000A4484488001D00EB041043715123A148E4
:102710004488001D00EB0410837100239D48448809
:10272000001D00EB0410C37180239A484488001DEB
:1027300000EB0410037297484388001D00EB031060
:102740004173944B5B88581CC31700EB93639B1138
:10275000A0EB83138F4C638000BFC0E70FB438B584
:10276000044606A80090009802C80090009804C88B
:102770000090884B5B88581CC31700EB93639B1138
:10278000A0EB8313834D2D88AB4205D10120824BF2
:10279000D87238BC5DF814FB04F540707D4B5D8841
:1027A0001B1D03EB051318609DF81400012823D1AD
:1027B000042378484588001D00EB051003714D2364
:1027C00074484588001D00EB051043714F23714884
:1027D0004588001D00EB0510837100236D48458876
:1027E000001D00EB0510C37140236A484588001D99
:1027F00000EB051003723DE09DF81400022839D16A
:10280000082364484588001D00EB051003714D2323
:1028100060484588001D00EB051043714F235D485B
:102820004588001D00EB0510837100235948458839
:10283000001D00EB0510C37156484588001D00EBD4
:102840000510037253484588001D00EB05104272C5
:1028500050484588001D00EB051083724D4845889F
:10286000001D00EB0510C3724A484588001D00EBAF
:102870000510037347484588001D00EB05104173A0
:10288000444B5B88581CC31700EB93639B11A0EB70
:102890008313404D6B800020009000BF79E770B536
:1028A00086B006460C46154600208DF80C008DF8C3
:1028B0000D0006F540700190012C0ED104208DF81A
:1028C0000E004D208DF80F004F218DF810100021C3
:1028D0008DF811108DF8121017E0022C15D1082078
:1028E0008DF80E004D208DF80F004F218DF810103F
:1028F00000218DF811108DF812108DF813508DF8FD
:1029000014108DF815108DF8161001A9244805F043
:1029100017FF06B070BD0FB478B50022002307A9D9
:102920000091009904C90091009908C90091194CBF
:102930006488611CCC1701EB9464A411A1EB84148E
:10294000144D2D88AC4205D10121134CE17278BCA5
:102950005DF814FB00F540710E4C6588241D04EBF6
:10296000051421609DF8181001292CD1042409496F
:102970004D88091D01EB05110C71502405494D8846
:10298000091D01EB05114C71412402494D88091DB7
:1029900008E00000846E00201C350020182B002069
:1029A0000064004001EB05118C710024FE494D8844
:1029B000091D01EB0511CC71FB494D88091D01EB87
:1029C00005110C724BE09DF81810022947D1441EE6
:1029D00004EB8404F54D05EB041494ED130A9FED0C
:1029E000F41AC0EE010A441E04EB840405EB04143F
:1029F000B4F848405C4300EE104AB8EEC00A20EE3E
:102A0000800ABDEEC00A10EE101A0825E64C668852
:102A1000241D04EB061425715025E34C6688241D03
:102A200004EB061465714125DF4C6688241D04EB18
:102A30000614A5710025DC4C6688241D04EB0614E1
:102A4000E571D94C6688241D04EB06142572D64C1A
:102A50006588241D04EB0514C4F8091000BFD24991
:102A60004D88091D01EB05114A73CF4C6488611C28
:102A7000CC1701EB9464A411A1EB8414CA4D6C80B3
:102A80000021009100BF62E710B50246C64B5B888B
:102A9000581CC31700EB93639B11A0EB8313C24C2C
:102AA0002488A34203D10120C24BD87210BD02F585
:102AB0004070BD4B5C881B1D03EB0413186004239E
:102AC000B9484488001D00EB041003715023B64838
:102AD0004488001D00EB041043714523B24844882C
:102AE000001D00EB041083710023AF484488001DD3
:102AF00000EB0410C371AC484488001D00EB0410C7
:102B00000372A9484388001D00EB03104173A64BD4
:102B10005B88581CC31700EB93639B11A0EB8313D6
:102B2000A14C638000BFC1E710B502469E4B5B8895
:102B3000581CC31700EB93639B11A0EB83139A4CB3
:102B40002488A34203D101209A4BD87210BD02F50C
:102B50004070954B5C881B1D03EB04131860042325
:102B600091484488001D00EB0410037150238E48E7
:102B70004488001D00EB0410437152238A484488A6
:102B8000001D00EB04108371002387484488001D5A
:102B900000EB0410C37184484488001D00EB04104E
:102BA000037281484388001D00EB031041737E4B84
:102BB0005B88581CC31700EB93639B11A0EB831336
:102BC000794C638000BFC1E70FB438B5044606A84E
:102BD0000090009802C80090009804C80090724BC2
:102BE0005B88581CC31700EB93639B11A0EB831306
:102BF0006D4D2D88AB4205D101206E4BD87238BC8B
:102C00005DF814FB04F54070674B5D881B1D03EBFA
:102C1000051318609DF81400012822D1042362488E
:102C20004588001D00EB0510037150235E48458860
:102C3000001D00EB0510437158235B484588001DBB
:102C400000EB05108371002357484588001D00EBF9
:102C50000510C37154484588001D00EB0510037230
:102C60002CE09DF81400022828D108234E484588FE
:102C7000001D00EB0510037150234B484588001DD3
:102C800000EB05104371582347484588001D00EBB1
:102C900005108371002344484588001D00EB051092
:102CA000C37141484588001D00EB051003723E4882
:102CB0004388001D00EB0310C0F809203A484588FE
:102CC000001D00EB05104173374B5B88581CC31780
:102CD00000EB93639B11A0EB8313334D6B800020BB
:102CE000009000BF8BE70FB438B5044606A80090EB
:102CF000009802C80090009804C800902A4B5B8896
:102D0000581CC31700EB93639B11A0EB8313264D54
:102D10002D88AB4205D10120264BD87238BC5DF816
:102D200014FB04F54070204B5D881B1D03EB05135D
:102D300018609DF81400012822D104231A48458800
:102D4000001D00EB05100371532317484588001D33
:102D500000EB05104371442313484588001D00EB28
:102D600005108371002310484588001D00EB0510F5
:102D7000C3710D484588001D00EB0510037235E056
:102D80009DF81400022831D1082307484588001D0A
:102D900000EB05100371532303484588001D00EB29
:102DA00005104371442307E0846E0020182B002097
:102DB0000000B4431C350020FE484588001D00EB90
:102DC000051083710023FB484588001D00EB0510AA
:102DD000C371F8484588001D00EB05100372F548E3
:102DE0004388001D00EB0310C0F80920F148458816
:102DF000001D00EB05104173EE4B5B88581CC31798
:102E000000EB93639B11A0EB8313EA4D6B800020D2
:102E1000009000BF82E70FB478B507A90091009930
:102E200004C90091009908C90091E24C6488611CB2
:102E3000CC1701EB9464A411A1EB8414DD4D2D8813
:102E4000AC4205D10121DC4CE17278BC5DF814FB89
:102E500000F54071D74C6588241D04EB05142160F2
:102E60009DF81810012922D10424D2494D88091D4A
:102E700001EB05110C715324CE494D88091D01EB5E
:102E800005114C715024CB494D88091D01EB0511EA
:102E90008C710024C7494D88091D01EB0511CC71C7
:102EA0004024C4494D88091D01EB05110C729DF8A1
:102EB0001810022935D1441E04EB8404BF4D05EBE4
:102EC0000414B4F848405C433C2594FBF5F1082514
:102ED000B84C6688241D04EB061425715325B54CA7
:102EE0006688241D04EB061465715025B14C668874
:102EF000241D04EB0614A5710025AE4C6688241D24
:102F000004EB0614E571AB4C6688241D04EB061433
:102F10002572A84C6588241D04EB0514C4F809101B
:102F200000BFA4494D88091D01EB05114A73A14C4E
:102F30006488611CCC1701EB9464A411A1EB841488
:102F40009C4D6C800021009100BF7EE710B50246C9
:102F5000984B5B88581CC31700EB93639B11A0EB45
:102F60008313944C2488A34203D10120924BD8723E
:102F700010BD02F540708F4B5C881B1D03EB0413E2
:102F8000186004238B484488001D00EB0410037173
:102F9000532388484488001D00EB041043715423D8
:102FA00084484488001D00EB04108371002381488D
:102FB0004488001D00EB0410C3717E484488001D46
:102FC00000EB041003727B484388001D00EB0310E4
:102FD0004173784B5B88581CC31700EB93639B11BC
:102FE000A0EB8313734C638000BFC1E70FB438B507
:102FF000044606A80090009802C800900098006857
:1030000000EE100A0098001D00906A4A5288501C79
:10301000C21700EB92629211A0EB8212654B1B88E3
:103020009A4205D10120644AD07238BC5DF814FB85
:1030300004F540705F4A5388121D02EB03121060C2
:103040009DF81400022833D1F8EEC00A9FED5C1AF7
:10305000C0EE811AFDEEE10A10EE900A0823554AEF
:103060005588121D02EB051213715423514A5588DD
:10307000121D02EB0512537143234E4A5588121D4F
:1030800002EB0512937100234A4A5588121D02EB88
:103090000512D371474A5588121D02EB05121372AF
:1030A000444A5388121D02EB0312C2F8090000BF04
:1030B00040484388001D00EB031041733D4A52888D
:1030C000501CC21700EB92629211A0EB8212394B96
:1030D0005A800020009000BFA7E70FB438B504461F
:1030E00006A80090009802C80090009804C80090BC
:1030F000304B5B88581CC31700EB93639B11A0EB0C
:1031000083132C4D2D88AB4205D101202A4BD87258
:1031100038BC5DF814FB04F54070264B5D881B1D20
:1031200003EB051318609DF81400012822D1042335
:1031300020484588001D00EB0510037155231D48EC
:103140004588001D00EB051043714D231948458843
:10315000001D00EB05108371002316484588001DF3
:1031600000EB0510C37113484588001D00EB0510E6
:10317000037246E09DF81400022842D108230D484E
:103180004588001D00EB051003715523094845884B
:10319000001D00EB051043714D2306484588001DB6
:1031A00000EB05108371002302484588001D00EBE9
:1031B000051007E0846E00201C350020182B00202D
:1031C0000000C842C37141484588001D00EB05104E
:1031D00003723E484588001D00EB051042723B48D3
:1031E0004588001D00EB0510837238484588001D96
:1031F00000EB0510C37235484588001D00EB051033
:10320000037332484588001D00EB051041732F4BB6
:103210005B88581CC31700EB93639B11A0EB8313CF
:103220002A4D6B800020009000BF71E710B5024668
:10323000264B5B88581CC31700EB93639B11A0EBD4
:103240008313224C2488A34203D10120204BD8723F
:1032500010BD02F540701D4B5C881B1D03EB041371
:103260001860042319484488001D00EB0410037102
:10327000562316484488001D00EB04104371582360
:1032800012484488001D00EB0410837100230F488E
:103290004488001D00EB0410C3710C484488001DD5
:1032A00000EB0410037209484388001D00EB031073
:1032B0004173064B5B88581CC31700EB93639B114B
:1032C000A0EB8313014C638000BFC1E7846E002034
:1032D0001C35002010B50720F74908709FEDF70A4C
:1032E000084680ED010A4FF47A7088601520F44991
:1032F000087040F6340088601220F24908700020FF
:10330000F149087247F23050C860012008744FF448
:103310007A704861B2EE040A084680ED010A4FF463
:10332000FA60EA490881012008730020E849087022
:103330000846007800EB400101EBC000E54901EBD5
:10334000401000F58070DC4BD3E900219B68C0E998
:10335000151302650020DE49097801EB410202EBFA
:10336000C101DC4A02EB411108700120D8490978FB
:1033700001EB410202EBC101D64A02EB4111487058
:103380000820D349097801EB410202EBC101D14A7F
:1033900002EB4111C8709FEDD00ACD48007800EBD8
:1033A000400101EBC000114601EB401080ED010A25
:1033B0004FF4FA71C648007800EB400202EBC000FF
:1033C000C44A02EB401081600021C148007800EB44
:1033D000400202EBC000BF4A02EB40100161B7EEB1
:1033E000000ABB48007800EB400101EBC000114629
:1033F00001EB401080ED050AB54A127802EB42035A
:1034000003EBC2020B4603EB42121169B04A127879
:1034100002EB420303EBC202AE4B03EB421202F19A
:103420003000F7EE001A9FEDAC1ADFEDAC0AB6EEF5
:10343000000A03F04DFAA64A127802EB420303EBAE
:10344000C202A44B03EB42129168A14A127802EB2C
:10345000420303EBC2029F4B03EB421202F17000E6
:10346000F7EE001AB7EE001ADFED9D0A9FED9D0AF8
:1034700003F02EFA9649097801EB410202EBC101F3
:10348000944A02EB411101F1B000DFED971A9FED74
:10349000971ADFED910A9FED960A03F033FA8C49F3
:1034A000097801EB410202EBC1018A4A02EB4111AA
:1034B00001F1E400DFED8C1A9FED8E1ADFED8E0A2C
:1034C0009FED8E0A03F01EFA8149097801EB410253
:1034D00002EBC1017F4A02EB411101F59C701822F9
:1034E000794909F0E5F99FED750A7948007800EB14
:1034F000400101EBC000774901EB401080ED4F0A1D
:103500000120734908700846007800EB400101EB88
:10351000C000704901EB401000F58070684BD3E9A2
:1035200000219B68C0E915130265002068490978ED
:1035300001EB410202EBC101664A02EB4111087046
:1035400001206349097801EB410202EBC101614AA4
:1035500002EB4111487002205D49097801EB4102FC
:1035600002EBC1015B4A02EB4111C870B2EE040AE2
:103570005748007800EB400101EBC000114601EB19
:10358000401080ED010A6FF0C7015148007800EB50
:10359000400202EBC0004F4A02EB40108160002164
:1035A0004B48007800EB400202EBC000494A02EBB6
:1035B00040100161B7EE000A4548007800EB400179
:1035C00001EBC000114601EB401080ED050A404AB6
:1035D000127802EB420303EBC2020B4603EB4212EA
:1035E00011693B4A127802EB420303EBC202394BEA
:1035F00003EB421202F13000F7EE001A9FED361A8B
:10360000DFED390AB6EE000A03F062F9002450E05B
:1036100004EB440101EBC4012E4A02EB411101F518
:103620008C700A22294909F043F92848418904EBA2
:10363000440000EBC400274A02EB4010A0F822111E
:1036400004EB440000EBC400114601EB40101F499D
:103650008989A0F824111D48C18904EB440000EBBE
:10366000C40002EB4010A0F826111848018A04EBB0
:10367000440000EBC40002EB4010A0F8281104EB5A
:10368000440000EBC400114601EB401000F58C70C3
:103690000E4A51699269C0E905120C48C16904EBF0
:1036A000440000EBC4000B4A02EB4010C0F8341198
:1036B000641C042CACDB10BDA82C00200000704260
:1036C000B42C0020C02C0020CC2C0020E42C0020A6
:1036D00030000020082D002000000000EC51383D93
:1036E0006F12833A4260E53BCDCC4C3E17B7D139DF
:1036F0008FC2F53CBD37863517B7D138CDCCCC3D20
:103700002E21095C19B100222E210A544262704711
:1037100030B52DED028B81B00446B0EE408A0D46E7
:103720000020009044F48070FE49486000204872F8
:1037300004200872082088729FEDFB0A28EE000A18
:10374000BDEEC00A10EE101A6A46F6480B3003F0C0
:1037500049FAF449F54804F0F3FF01B0BDEC028BDF
:1037600030BD70B5044604EB440202EBC402F04BDA
:1037700003EB4212D2F8581104EB440202EBC402EC
:1037800003EB421202F1080004F02BF904EB4400B1
:1037900000EBC400E64901EB4010816804EB4400F3
:1037A00000EBC400E24A02EB4010C0F8141104EB35
:1037B000440303EBC403154605EB4313DA6904EB3A
:1037C000440303EBC40305EB4313996804EB440380
:1037D00003EBC40305EB431303F1E40003F09BF890
:1037E00004EB440000EBC400294601EB401090EDCF
:1037F000430A04EB440000EBC40001EB4010D0EDA1
:10380000550A20EE200A04EB440000EBC40001EB53
:10381000401080ED010A04EB440101EBC4012A468B
:1038200002EB4111D1ED4F0AB0EE600A04EB440106
:1038300001EBC40102EB4111081D04F0B6F804EBE2
:10384000440101EBC4012A4602EB4111D1ED010A0A
:10385000B0EE600A611CC8B20021FFF759FF70BDCD
:1038600010B52DED048B82B0044604EB440000EB50
:10387000C400AF4901EB4010D0F83401002802DA4F
:103880004FF0FF3000E0012004EB440101EBC401E4
:10389000A74A02EB4111C969002902DA4FF0FF3152
:1038A00000E00121484028B19FEDA20AA24880ED26
:1038B000000A04E09FEDA10A9F4880ED000A04EB96
:1038C000440000EBC4009A4901EB4010D0F83401E9
:1038D000002808DD04EB440000EBC40001EB4010BD
:1038E000D0F8340109E004EB440000EBC400904937
:1038F00001EB4010D0F83401404200EE100AB8EE5F
:10390000C00A8D48D0ED000AB2EE041A60EE810ABA
:10391000B4EEE00AF1EE10FA29DD04EB440000EB0E
:10392000C400834901EB401090ED080A04EB440009
:1039300000EBC40001EB4010D0F83401002802DA9B
:103940004FF0FF3000E0012000EE900AF8EEE00AB0
:10395000794890ED001A00EE810A04EB440000EB78
:10396000C400734901EB401080ED030A25E004EB2D
:10397000440000EBC4006E4901EB4010D0F8340164
:1039800000EE900AF8EEE00AB2EE041AC0EE811AD8
:10399000B0EE610A04EB440000EBC40001EB401000
:1039A000D0ED080A70EE800A04EB440000EBC4007E
:1039B00001EB4010C0ED030A00BF04EB440101EB32
:1039C000C4015B4A02EB411101F10C0003F085FFD9
:1039D00004EB440000EBC400554901EB401090EDAE
:1039E000081AF0EE410A04EB440000EBC40001EBBE
:1039F000401090ED031AB0EE410A04F057F8B0EE13
:103A0000408A04EB440000EBC400494901EB40103C
:103A1000807818B1B1EE480AB0EE408A04EB440059
:103A200000EBC400424901EB401090ED2C0A20EE5F
:103A3000080A8DED010A04EB440000EBC40001EB21
:103A4000401090ED2D0A3E48D0ED000A60EE200AAD
:103A50003C4890ED000A08EE200A80ED000A3A4842
:103A600090ED000A3648D0ED000A30EE200A3648C4
:103A700080ED000A354890ED000AB4EE408AF1EE80
:103A800010FA02D15FEDEC8A19E004EB440000EB80
:103A9000C400274901EB4010D0ED2E0A2A4890EDD2
:103AA000001A80EE810A2948D0ED000A78EE600AFB
:103AB00060EE208A1FEDF80A234880ED000A04EB2F
:103AC000440000EBC4001A4901EB4010D0ED2F0A6E
:103AD0001F4890ED000A30EE681A90ED000A00EEE3
:103AE000C10A80ED000A90ED000AF0EE408AB7EEC0
:103AF000000A01A803F059FF9DED010AB0EEC00ACB
:103B0000F7EE000A30EEC00AB0EE409A0D4803F01E
:103B10004CFF0E4880ED008A9DED010A0948D0ED6A
:103B2000000A17E08832002000007A440068004054
:103B3000082D00200000B4422800002000002A4385
:103B40002C000020340000203C0000203800002021
:103B50004000002030EE200A30EE280A8DED000AE9
:103B6000F7EE000ABFEE000A684603F0F7FE04EB2A
:103B7000440000EBC400F74901EB401090ED550AFA
:103B8000DDED000A20EE200A04EB440000EBC40047
:103B900001EB401080ED010A04EB440000EBC4008F
:103BA00001EB401090ED010AB5EEC00AF1EE10FAFB
:103BB00008DD04EB440000EBC40001EB401090ED85
:103BC000010A0AE004EB440000EBC400E14901EB08
:103BD000401090ED010AB1EE400A04EB440000EB06
:103BE000C400DC4901EB4010D0ED4F0AB4EEE00A0E
:103BF000F1EE10FA27DD04EB440000EBC40001EB0A
:103C0000401090ED010AB5EEC00AF1EE10FA02D2B2
:103C10004FF0FF3000E0012000EE100AB8EEC00ABD
:103C200004EB440000EBC400CA4901EB4010D0EDA6
:103C30004F0A20EE200A04EB440000EBC40001EB25
:103C4000401080ED010A04EB440101EBC401C14ABC
:103C500002EB4111D1ED010AB0EE600A611CC8B25D
:103C60000021FFF755FD02B0BDEC048B10BDF8B587
:103C700004460E46154600200090B7494988481C66
:103C8000C11700EB91618911A0EB8111B24A128832
:103C9000914203D10120B149C872F8BDAE494A88AA
:103CA000091D01EB0211481D6A46314602F09AFFD8
:103CB00044F0704040F44071A7484288001D00EB7A
:103CC000021001600098C1B2A3484288001D00EBB9
:103CD00002100171A0484188001D00EB01104573DE
:103CE0009D494988481CC11700EB91618911A0EBDF
:103CF0008111994A518000BFCFE770B52DED048B3B
:103D0000044604EB440000EBC400924901EB401070
:103D1000006904EB440101EBC4018E4A02EB41113E
:103D2000086304EB440000EBC400114601EB4010B3
:103D3000407870B904EB440000EBC40001EB401084
:103D4000D0F8300104EB440101EBC40102EB411156
:103D5000086304EB440000EBC4007E4901EB401013
:103D600090F8400140B37E48806D002802DD7C4819
:103D7000806D02E07A48806D404204EB440101EB23
:103D8000C401744A02EB4111D1F84411884213DD99
:103D90007348806D002802DA4FF0FF3000E0012008
:103DA00004EB440101EBC4016A4A02EB4111D1F872
:103DB000441148436A49886504EB440101EBC4019E
:103DC000644A02EB4111486A08F03AFF41EC100BDB
:103DD00004EB440000EBC4005E4901EB401080EDB1
:103DE000140B04EB440101EBC4015A4A02EB4111EC
:103DF00001F1300002F010FE594890F8E000002870
:103E00007BD004EB440000EBC400524901EB4010AE
:103E100090ED121BB0EE410AF0EE610A9FED511BCE
:103E200053EC112B51EC100B08F08CFF09D204EB72
:103E3000440000EBC400474901EB401090ED120B29
:103E400012E004EB440000EBC400424901EB4010D7
:103E500090ED121BB0EE410AF0EE610A51EC100B2E
:103E600081F0004141EC100BB0EE408AF0EE608A28
:103E70003B4890ED3A1BB0EE410AF0EE610A53EC7C
:103E8000102B51EC180B08F05DFF36D204EB440008
:103E900000EBC4002F4901EB401090ED121BB0EE77
:103EA000410AF0EE610A9FED2F1B53EC112B51ECF0
:103EB000100B08F02FFF02D24FF0FF3000E001207E
:103EC000054608F0BDFE41EC180B254890ED3A1B65
:103ED000B0EE410AF0EE610A53EC102B51EC180BD6
:103EE00008F0CDFD41EC100B04EB440000EBC400E6
:103EF000184901EB401080ED120B04EB440101EB7B
:103F0000C401144A02EB411191F8500108F0A9FED6
:103F100041EC190B04EB440000EBC4000D4901EB2C
:103F2000401090ED121BB0EE410AF0EE610A53EC26
:103F3000102B51EC190B08F0A2FD08F09FFE05466E
:103F4000611CC8B200222946FFF791FEBDEC048B2C
:103F500070BD0000082D0020846E00201C3500205C
:103F600090210020000000000000000030B52DED81
:103F7000028B81B00446B0EE408A0D4600200090CE
:103F8000FE494988481CC11700EB91618911A0EBDB
:103F90008111FA4A1288914206D10120F849C8726B
:103FA00001B0BDEC028B30BD9FEDF60A28EE000A91
:103FB000BDEEC00A10EE101AF04A5388121D02EB33
:103FC0000312501D6A4602F00DFE44F0704040F4AA
:103FD0008061EA484288001D00EB021001600098F1
:103FE000C1B2E6484288001D00EB02100171E348AF
:103FF0004188001D00EB01104573E0494988481CC9
:10400000C11700EB91618911A0EB8111DB4A51804E
:1040100000BFC5E710B5044604EB440000EBC40044
:10402000D94901EB4010D0F83401002802DA4FF0F2
:10403000FF3000E0012004EB440101EBC401D24A4F
:1040400002EB4111C969002902DA4FF0FF3100E0AB
:104050000121484028B19FEDCD0ACD4880ED000AEE
:1040600004E09FEDCC0ACA4880ED000A04EB44004E
:1040700000EBC400C44901EB4010D0F83401002823
:1040800008DD04EB440000EBC40001EB4010D0F865
:10409000340109E004EB440000EBC400BA4901EB31
:1040A0004010D0F83401404200EE100AB8EEC00AC9
:1040B000B748D0ED000AB2EE041A60EE810AB4EE01
:1040C000E00AF1EE10FA29DD04EB440000EBC40035
:1040D000AD4901EB401090ED080A04EB440000EB01
:1040E000C40001EB4010D0F83401002802DA4FF090
:1040F000FF3000E0012000EE900AF8EEE00AA4484C
:1041000090ED001A00EE810A04EB440000EBC400BD
:104110009D4901EB401080ED030A25E004EB4400CB
:1041200000EBC400984901EB4010D0F8340100EED8
:10413000900AF8EEE00AB2EE041AC0EE811AB0EE70
:10414000610A04EB440000EBC40001EB4010D0ED29
:10415000080A70EE800A04EB440000EBC40001EB97
:104160004010C0ED030A00BF04EB440101EBC401A1
:10417000854A02EB411101F10C0003F0AEFB04EBA8
:10418000440101EBC401804A02EB4111D1ED030A65
:10419000B0EE600A611CC8B20021FFF7E7FE10BD57
:1041A00030B52DED028B81B00446B0EE408A0D464D
:1041B0000020009071494988481CC11700EB9161AB
:1041C0008911A0EB81116D4A1288914206D101201C
:1041D0006B49C87201B0BDEC028B30BD9FED6E0A19
:1041E00028EE000ABDEEC00A10EE101A634A53888A
:1041F000121D02EB0312501D6A4602F0F3FC44F05C
:1042000070405E494A88091D01EB02110860009860
:10421000C1B25A484288001D00EB02100171574894
:104220004188001D00EB0110457354494988481C22
:10423000C11700EB91618911A0EB81114F4A5180A8
:1042400000BFC7E730B52DED028B81B00446B0EE5C
:10425000408A0D460020009048494988481CC117F3
:1042600000EB91618911A0EB8111444A12889142BF
:1042700006D101204249C87201B0BDEC028B30BDAD
:104280009FED460A28EE000ABDEEC00A10EE101A95
:104290003A4A5388121D02EB0312501D6A4602F07F
:1042A000A1FC44F0704040F4007134484288001D85
:1042B00000EB021001600098C1B230484288001D36
:1042C00000EB021001712D484188001D00EB011028
:1042D00045732A494988481CC11700EB916189112F
:1042E000A0EB8111254A518000BFC5E730B52DED07
:1042F000028B81B00446B0EE408A0D46002000904B
:104300001E494988481CC11700EB91618911A0EB37
:1043100081111A4A1288914206D101201849C872A7
:1043200001B0BDEC028B30BD9FED1C0A28EE000AE7
:10433000BDEEC00A10EE101A104A5388121D02EB8F
:104340000312501D6A4602F04DFC44F0704040F4E8
:1043500040610A484288001D00EB0210016000988D
:10436000C1B206484288001D00EB021001710348EB
:104370004188001D00EB0110457311E0846E0020A0
:104380001C35002000247449082D00200000B44290
:104390002800002000002A430050C34700007A4450
:1043A00006494988481CC11700EB91618911A0EBAF
:1043B0008111024A518000BFB2E70000846E0020E4
:1043C00010B5082009F026FF044600206060204652
:1043D00010BD012031494872704710B5FFF7F9FF51
:1043E000FCF706FFFDF7BAFEFEF774FFFFF7E8FFE4
:1043F0002B49486010BD00220A7803780B700270C8
:10440000704770B506460C46354600E06D6815B13C
:104410006868A042FAD14CB160686860204609F033
:10442000D1FE1F480078401E1D49087070BD02462D
:104430000B46114605E00888984201D108467047AE
:1044400049680029F7D10020F9E72DE9F041074636
:1044500088463C4641462046FFF7E9FF08B1BDE8E3
:10446000F081002602E06468701CC6B20C48007837
:10447000B04201DD002CF6D16CB1082009F0CAFE73
:104480000546A5F8008060686860656004480078AB
:10449000401C0349087000BFE1E700001C35002004
:1044A0004C0000201CB54048006840F010003E4918
:1044B00008603D481438006840F480003A491439D7
:1044C00008600120022100230A46CDE900104FF4C4
:1044D000C061364803F05EF807220921334803F033
:1044E00039F807220A21314803F034F840F2D92084
:1044F0002F4908814FF4037088810846008820F016
:1045000020000880032325220121062002F094FFC9
:104510004FF48070274B264A121D04210090264834
:1045200002F076FE01221021234804F0D8FD032377
:1045300046220021072002F07FFF1D48808A40F0BC
:1045400080001B4988820846808940F40050888199
:104550001CBD70B504460D461848407B78B92A4604
:104560002146144808F0A4F92946134804F04BFDED
:104570000121114804F026FD01201049487370BD47
:1045800010B50F490C4804F0C7FD01280AD10C49A9
:10459000094804F090FD0A49074804F0E7FD0020AF
:1045A0000649487310BD0000443802400000024034
:1045B000001001409C320020B86402401C350020ED
:1045C000008000281CB5F748006840F40030F54929
:1045D0000860F4481038006840F40010F1491039C0
:1045E00008600120022100230A46CDE900100C21B9
:1045F000ED4802F0CFFF07220221EB4802F0AAFFAC
:1046000007220321E84802F0A5FF4FF4B670E749FE
:1046100008800C20091D0880E4480838008820F034
:104620002000E24908390880E048001D008840F079
:104630002000DE49091D08800323262201210420D1
:1046400002F0FAFE4FF48070D94BD84A121F0421B1
:104650000090D84802F0DCFD01221021D54804F07A
:104660003EFD032311220121072002F0E5FECF4881
:104670000C30008840F08000CC490C310880CB48D9
:10468000001D008840F40050C849091D08801CBD69
:1046900010B5C949C74804F03FFD01280AD1C649F1
:1046A000C44804F008FDC449C24804F05FFD00207E
:1046B000C249887310BD10B52DED028B002440F265
:1046C0002531BA48083805F02EFB58B1B7480838EC
:1046D00005F067FA0020BA4908702021B94808F0AF
:1046E00000F9CAE340F22551B048083805F01BFB39
:1046F0000028F6D02021AD48083805F00BFB40F229
:104700002551AA48083805F045FBA848083805F0A7
:1047100048FAC4B2AA48007800F0400008B3A8489C
:10472000007800F0800020BBFF2C06D1A448007860
:1047300040F08000A24908701BE0A148007800F01A
:104740003F01A04844549E480078401C9C49087092
:104750000846007800F03F0028280ADD0020087095
:1047600007E0EE2C05D19648007840F040009449CF
:1047700008709348007800F080000028B1D092487B
:1047800090F82102012804D18F4890F823028F4924
:1047900008708D4890F82302082870D2DFE800F0F6
:1047A000042E2F3056F06FEF874890F82502082826
:1047B00021D1012080F3138800BF00BF00BF00BFDC
:1047C00000BF00BFBFF34F8F00BF00BF00BF8048D6
:1047D000006800F4E0607F490843001D7C490860E0
:1047E00000BF00BF00BFBFF34F8F00BF00BF00BFBF
:1047F00000BF00BFFDE700BF00BF36E335E334E391
:10480000714890F82502032804D0062811D0082802
:1048100019D114E06B48C01D08F06AFEB0EE408A62
:10482000F0EE608A51EC180B08F028FA6A4908602B
:104830000AE001206949087081F8600104E0012064
:104840006749087000E000BF00BF0EE35E4890F8C3
:104850002502C01E1E2871D2DFE800F00F1E2D3E7B
:104860004F606871798193C6D670F6FDF3F2F1F06E
:10487000EFEEEDECEBEAE9E8E7E6002009E0F3E231
:10488000002100EB800202EB4012564B03F832107D
:10489000401C0828F4DB6DE14A48C01D08F028FEE2
:1048A000B0EE408AF0EE608A51EC180B08F005FA81
:1048B0004C4988705EE14348C01D08F019FEB0EE17
:1048C000408AF0EE608A51EC180B08F0F6F9C1B29C
:1048D000444880F82A114DE13A48C01D08F008FE0E
:1048E000B0EE408AF0EE608A51EC180B08F0E5F962
:1048F000C1B23C4880F852123CE13248C01D08F079
:10490000F7FDB0EE408AF0EE608A51EC180B08F02B
:10491000D4F9C1B2334880F87A132BE12948C01D7D
:1049200008F0E6FD2F4880ED040B23E12548C01D6B
:1049300008F0DEFD2B4880ED4E0B1BE119E121480C
:10494000C01D08F0D5FD274880ED980B12E11D48E9
:10495000C01D08F0CDFD234880EDE20B0AE11948A7
:10496000C01D08F0C5FDB0EE408AF0EE608A51EC43
:10497000180B08F083F900B21A490881FAE072E2D4
:10498000FAE01048C01D08F0B3FDB0EE408AF0EE2A
:10499000608A51EC180B08F071F901B21148A0F8C7
:1049A0003011E7E040380240000002400844004077
:1049B000BC330020A0600240008020201C35002075
:1049C00055000020BC3400209C3200205400002000
:1049D0000CED00E00000FA0548000020082D002042
:1049E0004400002090210020F84808F081FDB0EE3E
:1049F000408AF0EE608A51EC180B08F03FF901B2E2
:104A0000F348A0F85812B5E0F04808F071FDB0EE98
:104A1000408AF0EE608A51EC180B08F02FF901B2D1
:104A2000EB48A0F88013A5E09AE090E086E07DE0F6
:104A300071E065E059E04EE042E036E02AE01FE038
:104A400017E00FE007E0FFE7E04808F051FDE0481D
:104A500080ED3A0B8EE0DD4808F04AFDDC4880ED41
:104A6000840B87E0D94808F043FDD94880EDCE0B90
:104A700080E0D64808F03CFDD64880ED3A0B79E05E
:104A8000D54890F8280208B1012000E00020D04964
:104A900008706FE0D04890F8280208B1012000E0CB
:104AA0000020CB4981F8280164E0CB4890F8280227
:104AB00008B1012000E00020C54981F8500259E00A
:104AC000C54890F8280208B1012000E00020C04944
:104AD00081F878034EE0C04890F8280208B1012020
:104AE00000E00020BA49487044E0BB4890F8280232
:104AF00008B1012100E00021B54880F8291139E012
:104B0000B54890F8280208B1012100E00021B04822
:104B100080F851122EE0B04890F8280208B1012127
:104B200000E00021AA4880F8791323E0A848007823
:104B300018B90121A64880F855101BE0A44890F848
:104B4000280118B90121A24880F87D1112E0A0487F
:104B500090F8500218B901219D4880F8A51209E08B
:104B60009B4890F8780318B90121994880F8CD1333
:104B700000E000BF00BF78E1974890F82502C01E12
:104B80001E2873D2DFE800F00F1D2D3D4D5D646BD4
:104B9000737A8A9AAA72BAC1C8CFD6E1F6EFEEED5F
:104BA000ECEBEAE9E8E7002008E0002100EB8002F6
:104BB00002EB4012864B03F83210401C0828F4DB4D
:104BC0004FE1824808F094FCB0EE408AF0EE608A33
:104BD00051EC180B08F071F8C1B27D4880F8A214AE
:104BE0003FE17A4808F084FCB0EE408AF0EE608A3B
:104BF00051EC180B08F061F8C1B2754880F8CA157D
:104C00002FE1724808F074FCB0EE408AF0EE608A42
:104C100051EC180B08F051F8C1B26D4880F8F2164B
:104C20001FE16A4808F064FCB0EE408AF0EE608A4A
:104C300051EC180B08F041F8C1B2654880F81A1819
:104C40000FE1624808F054FC644880ED040B08E171
:104C50005E4808F04DFC624880ED040B01E15B48C2
:104C600008F046FC5F4880ED040BFAE0F8E0574896
:104C700008F03EFC5C4880ED040BF2E0534808F07D
:104C800037FCB0EE408AF0EE608A51EC180B07F06A
:104C9000F5FF01B24E48A0F8A814E2E04B4808F036
:104CA00027FCB0EE408AF0EE608A51EC180B07F05A
:104CB000E5FF01B24648A0F8D015D2E0434808F01D
:104CC00017FCB0EE408AF0EE608A51EC180B07F04A
:104CD000D5FF01B23E48A0F8F816C2E03B4808F004
:104CE00007FCB0EE408AF0EE608A51EC180B07F03A
:104CF000C5FF01B23648A0F82018B2E0334808F0EA
:104D0000F7FB364880ED3A0BABE0304808F0F0FB9B
:104D1000334880ED3A0BA4E02C4808F0E9FB314819
:104D200080ED3A0B9DE0294808F0E2FB2E4880ED2B
:104D30003A0B96E0284890F8280208B1012000E0DC
:104D40000020234981F8A0048BE0234890F8280232
:104D500058B101200AE07AE070E066E05CE050E0E3
:104D600044E028E01CE010E004E00020184981F84D
:104D7000C80576E0184890F8280208B1012000E044
:104D80000020134981F8F0066BE0134890F82802E0
:104D900008B1012000E000200D4981F8180860E00A
:104DA0000D4890F8280208B1012100E000210848D0
:104DB00080F8A11455E0084890F8280208B10121B4
:104DC00000E00021024880F8C9154AE0C334002001
:104DD00090210020082500209C3200203026002051
:104DE0005827002080280020A8290020FE4890F89D
:104DF000280208B1012100E00021FC4880F8F116EA
:104E00002FE0F94890F8280208B1012100E00021C4
:104E1000F64880F8191824E0F44890F8A00418B96E
:104E20000121F24880F8F5141BE0F04890F8C8051D
:104E300018B90121ED4880F81D1612E0EB4890F8F2
:104E4000F00618B90121E94880F8451709E0E7485C
:104E500090F8180818B90121E44880F86D1800E0AE
:104E600000BF00BF01E000E000BF00BF0020E0493C
:104E700008702021DF4807F034FDBDEC028B10BD27
:104E800010B50446DC48807B50B92146DB4804F06D
:104E9000BAF80121D94804F095F80120D649887361
:104EA00010BD10B50024EE222146641CD4484254A3
:104EB000B1222146641C425410222146641C4254F3
:104EC00000222146641C42542146641C425421465F
:104ED000641C425405222146641C4254012220468F
:104EE000611CCCB2C6490A54FF222046611CCCB2D8
:104EF000C3490A54FC222046611CCCB2C0490A5462
:104F0000FF222046611CCCB2BD490A542046611CD8
:104F1000CCB2BB490A54BB480078062881F07C819A
:104F2000DFE810F07A090600080009006900EF04C4
:104F300001F073B9FCE7EE222046611CCCB2B04907
:104F40000A54B1222046611CCCB2AD490A54122247
:104F50002046611CCCB2AA490A5400222046611C9A
:104F6000CCB2A7490A5404222046611CCCB2A44901
:104F70000A5400222046611CCCB2A1490A540422E2
:104F80002046611CCCB29E490A5400222046611C76
:104F9000CCB29B490A549C4882689CA19C4808F06A
:104FA0007DFA9B4807F0B4FCC2B22046611CCCB22B
:104FB00093490A540819964907F0B1FC944807F040
:104FC000A7FC2044C4B2FF222046611CCCB28C490D
:104FD0000A54FC222046611CCCB289490A54FF22A3
:104FE0002046611CCCB286490A542046611CCCB2D2
:104FF00083490A549CE7EE222046611CCCB28049CA
:105000000A54B1222046611CCCB27D490A541222B6
:105010002046611CCCB27A490A5400222046611C09
:10502000CCB277490A5404222046611CCCB27449A0
:105030000A546E48807800287ED000222046611CE9
:10504000CCB26F490A5404222046611CCCB26C4990
:105050000A5400222046611CCCB269490A546348B4
:1050600082786AA16A4808F019FA694807F050FC8A
:10507000C2B22046611CCCB261490A540819644985
:1050800007F04DFC624807F043FC2044C4B2002204
:105090002046611CCCB25A490A5408222046611CA1
:1050A000CCB257490A5400222046611CCCB2544964
:1050B0000A544E4890ED0A1BB0EE410AF0EE610A28
:1050C00053EC102B51A1524808F0E8F9504807F072
:1050D0001FFCC2B22046611CCCB249490A540819CF
:1050E0004B4907F01CFC4A4807F012FC2044C4B2AC
:1050F00000222046611CCCB241490A540C222146B0
:10510000601CC4B23E48425400222046611CCCB20E
:105110003B490A543548B0F920203CA13C4808F0EE
:10512000BDF93B4807F0F4FBC2B22046611CCCB28B
:1051300033490A54081900E08DE0354907F0EFFBC8
:10514000334807F0E5FB2044C4B200222046611C2E
:10515000CCB22B490A5411222046611CCCB22849FA
:105160000A5400222046611CCCB225490A541F482B
:1051700090ED3A1BB0EE410AF0EE610A53EC102BB1
:1051800022A1234808F08AF9214807F0C1FBC2B2E6
:105190002046611CCCB21A490A5408191C4907F070
:1051A000BEFB1B4807F0B4FB2044C4B200222046DB
:1051B000611CCCB212490A5415222046611CCCB2A3
:1051C0000F490A5400222046611CCCB20C490A54F3
:1051D00001222046611CCCB209490A5403480278D6
:1051E0002046611CCCB215E09C32002090210020AA
:1051F00055000020BC3400201C350020A060024077
:10520000BC33002054000020082D0020256400003D
:105210002B350020FE490A5400222046611CCCB2E6
:10522000FB490A5419222046611CCCB2F8490A54A1
:1052300000222046611CCCB2F5490A5401222046C6
:10524000611CCCB2F2490A54F24842782046611CF3
:10525000CCB2EF490A54EF4890F82A0100287DD0DB
:1052600000222046611CCCB2E9490A54052220469E
:10527000611CCCB2E6490A5400222046611CCCB223
:10528000E3490A54E34890F82A21AFF28001E2484A
:1052900008F004F9E04807F03BFBC2B22046611C6D
:1052A000CCB2DB490A540819DB4907F038FBDA486D
:1052B00007F02EFB2044C4B200222046611CCCB271
:1052C000D3490A5409222046611CCCB2D0490A5461
:1052D00000222046611CCCB2CD490A54CD4890ED45
:1052E000541BB0EE410AF0EE610A53EC102BAFF202
:1052F000E401C94808F0D2F8C74807F009FBC2B278
:105300002046611CCCB2C2490A540819C24907F0B0
:1053100006FBC14807F0FCFA2044C4B20022204634
:10532000611CCCB2BA490A540D222146601CC4B299
:10533000B748425400222046611CCCB2B4490A54FA
:10534000B448B0F94821AFF23C11B34808F0A6F8D0
:10535000B14807F0DDFAC2B2204600E07FE0611CF0
:10536000CCB2AB490A540819AB4907F0D8FAAA489D
:1053700007F0CEFA2044C4B200222046611CCCB211
:10538000A3490A5412222046611CCCB2A0490A54F7
:1053900000222046611CCCB29D490A549D4890EDE4
:1053A000841BB0EE410AF0EE610A53EC102BAFF211
:1053B000A411994808F072F8974807F0A9FAC2B208
:1053C0002146601CC4B292484254014608199249D1
:1053D00007F0A5FA904807F09BFA2044C4B20022D7
:1053E0002146601CC4B28A48425416222046611CE1
:1053F000CCB287490A5400222046611CCCB28449B1
:105400000A5401222046611CCCB281490A548148C9
:1054100090F828212046611CCCB27D490A54002214
:105420002046611CCCB27A490A541A222046611CDB
:10543000CCB277490A5400222046611CCCB2744990
:105440000A5401222046611CCCB271490A547148A9
:1054500090F829212046611CCCB26D490A546D4850
:1054600090F8520200287DD000222046611CCCB268
:1054700067490A5406222046611CCCB264490A548A
:1054800000222046611CCCB261490A54614890F860
:105490005222AFF28821604808F000F85E4807F019
:1054A00037FAC2B22046611CCCB259490A540819D5
:1054B000594907F034FA584807F02AFA2044C4B290
:1054C00000222046611CCCB251490A540A222046CF
:1054D000611CCCB24E490A5400222046611CCCB259
:1054E0004B490A544B4890ED9E1BB0EE410AF0EE3A
:1054F000610A53EC102BAFF2EC21474807F0CEFFC6
:10550000454807F005FAC2B22046611CCCB24049BA
:105510000A540819404907F002FA3F4807F0F8F921
:105520002044C4B200222046611CCCB238490A543F
:105530000E222046611CCCB235490A540022204676
:10554000611CCCB232490A543248B0F97022AFF231
:105550004431314807F0A2FF2F4807F0D9F9C2B211
:10556000204600E085E0611CCCB229490A540819A4
:10557000294907F0D4F9284807F0CAF92044C4B2F1
:1055800000222046611CCCB221490A541322204635
:10559000611CCCB21E490A5400222046611CCCB2C8
:1055A0001B490A541B4890EDCE1BB0EE410AF0EEA9
:1055B000610A53EC102BAFF2AC31174807F06EFFC5
:1055C000154807F0A5F9C2B22046611CCCB21049BB
:1055D0000A540819104907F0A2F90F4807F098F982
:1055E0002044C4B200222046611CCCB208490A54AF
:1055F00017222046611CCCB205490A5400222046DD
:10560000611CCCB202490A5401222046611C05E00B
:10561000BC330020902100202B350020CCB2FE4965
:105620000A54FE4890F850222046611CCCB2FA4938
:105630000A5400222046611CCCB2F7490A541B22AE
:105640002046611CCCB2F4490A5400222046611C59
:10565000CCB2F1490A5401222046611CCCB2EE4979
:105660000A54EE4890F851222046611CCCB2EA4917
:105670000A54EA4890F87A0300287DD00022204698
:10568000611CCCB2E4490A5407222046611CCCB20A
:10569000E1490A5400222046611CCCB2DE490A547A
:1056A000DE4890F87A23AFF29C41DD4807F0F6FE21
:1056B000DB4807F02DF9C2B22046611CCCB2D649B6
:1056C0000A540819D64907F02AF9D54807F020F9F5
:1056D0002044C4B200222046611CCCB2CE490A54F8
:1056E0000B222046611CCCB2CB490A540022204632
:1056F000611CCCB2C8490A54C84890EDE81BB0EE12
:10570000410AF0EE610A53EC102BAFF20051C4488D
:1057100007F0C4FEC24807F0FBF8C2B22046611C85
:10572000CCB2BD490A540819BD4907F0F8F8BC4885
:1057300007F0EEF82044C4B200222046611CCCB22F
:10574000B5490A540F222046611CCCB2B2490A5412
:1057500000222046611CCCB2AF490A54AF48B0F9D0
:105760009823AFF25851AE4807F098FEAC4807F0C6
:10577000CFF8C2B2204600E07EE0611CCCB2A64960
:105780000A540819A64907F0CAF8A54807F0C0F856
:105790002044C4B200222146601CC4B29E48425438
:1057A00014222046611CCCB29B490A540022204698
:1057B000611CCCB298490A549A4890ED3A1BB0EE5D
:1057C000410AF0EE610A53EC102BAFF2C05194483D
:1057D00007F064FE924807F09BF8C2B22046611CB5
:1057E000CCB28D490A5408198D4907F098F88C48B5
:1057F00007F08EF82044C4B200222046611CCCB2CF
:1058000085490A5418222046611CCCB282490A54A8
:1058100000222046611CCCB27F490A540122204656
:10582000611CCCB27C490A547C4890F8782320460D
:10583000611CCCB278490A5400222046611CCCB2CB
:1058400075490A541C222046611CCCB272490A5484
:1058500000222046611CCCB26F490A540122204626
:10586000611CCCB26C490A546C4890F879232046EC
:10587000611CCCB268490A5400222046611CCCB29B
:1058800065490A5410222046611CCCB262490A5470
:1058900000222046611CCCB25F490A54624840682D
:1058A0004068028861A15E4807F0F8FD5C4807F097
:1058B0002FF8C2B22146601CC4B257484254014678
:1058C0000819574907F02BF8554807F021F82044EC
:1058D000C4B2FF222046611CCCB24F490A54FC22BC
:1058E0002046611CCCB24C490A54FF222046611C60
:1058F000CCB249490A542046611CCCB246490A54EC
:10590000FDE3EE222046611CCCB243490A54B12289
:105910002046611CCCB240490A5412222046611C28
:10592000CCB23D490A5400222146601CC4B23A4818
:10593000425405222046611CCCB237490A543748EC
:1059400090F8A204002875D000222046611CCCB239
:1059500031490A5404222046611CCCB22E490A5413
:1059600000222046611CCCB22B490A542B4890F8E7
:10597000A224AFF268712A4807F090FD284806F08B
:10598000C7FFC2B22046611CCCB223490A54081991
:10599000234906F0C4FF224806F0BAFF2044C4B2EF
:1059A00000222046611CCCB21B490A540822204622
:1059B000611CCCB218490A5400222046611CCCB2AA
:1059C00015490A541A4890ED0A1BB0EE410AF0EE50
:1059D000610A53EC102BAFF2CC71114807F05EFD59
:1059E0000F4806F095FFC2B22046611CCCB20A49AE
:1059F0000A5408190A4906F092FF094806F088FF80
:105A00002044C4B200222046611CCCB202490A5490
:105A10000C222046611C0EE0BC33002090210020A7
:105A20002B350020082500204C00002025780000A0
:105A30003026002094E0CCB2FE490A5400222046D1
:105A4000611CCCB2FB490A54FB48B0F9C024AFF644
:105A50004401FA4807F022FDF84806F059FFC2B2A7
:105A60002046611CCCB2F3490A540819F34906F0E8
:105A700056FFF24806F04CFF2044C4B200222046F4
:105A8000611CCCB2EB490A5411222046611CCCB2F5
:105A9000E8490A5400222046611CCCB2E5490A5468
:105AA000E74890ED3A1BB0EE410AF0EE610A53EC84
:105AB000102BAFF6A801E14807F0F0FCDF4806F034
:105AC00027FFC2B22046611CCCB2DA490A54081939
:105AD000DA4906F024FFD94806F01AFF2044C4B280
