:020000040800F2
:1000000038BA0020A1A40008A9A40008ABA40008E5
:10001000ADA40008AFA40008B1A4000800000000CF
:10002000000000000000000000000000B3A4000871
:10003000B5A400080000000097CA0008FBCC000827
:10004000BBA40008BBA40008BBA40008BBA4000814
:10005000BBA40008BBA40008BBA40008BBA4000804
:10006000BBA40008BBA40008BBA40008BBA40008F4
:10007000BBA40008BBA40008BBA40008BBA40008E4
:10008000BBA40008794B0008BBA40008BBA400086F
:10009000EF050008BBA40008BBA40008BBA400082F
:1000A000BBA40008BBA40008BBA40008BBA40008B4
:1000B00011120008D7150008BBA40008BBA4000853
:1000C000BBA40008BBA40008BBA40008BBA4000894
:1000D000BBA40008BBA400089F4B0008BBA40008F9
:1000E000BBA40008BBA40008BBA40008BBA4000874
:1000F000BBA40008BBA40008BBA40008BBA4000864
:10010000BBA40008BBA40008BBA40008BBA4000853
:10011000BBA40008BBA40008BBA40008BBA4000843
:10012000BBA40008BBA40008BBA40008BBA4000833
:10013000BBA40008BBA40008BBA40008BBA4000823
:10014000DB090008990D0008BBA40008BBA4000847
:10015000BBA40008BBA40008694A0008BBA40008AF
:10016000BBA40008BBA40008BBA40008BBA40008F3
:10017000BBA40008BBA40008BBA40008BBA40008E3
:10018000BBA40008BBA40008DFF80CD00DF098F960
:10019000004800479903000838BA002030BF72B603
:1001A000704762B6704780F30888704723E09D4827
:1001B00090ED0A1BB0EE410AF0EE610A51EC100B13
:1001C0000CF0CAFF04B2974890ED041BB0EE410A50
:1001D000F0EE610A51EC100B0CF0BEFF05B2924834
:1001E000B0F9E835B0F9D0252146284607F03FFBA5
:1001F00046200CF059FBDAE700BF8C4807F0C2F943
:1002000005200CF051FB894807F0BCF905200CF0E3
:100210004BFB864807F0B6F905200CF045FB2EE0B5
:100220008348007838B3804890F8780118B3814843
:1002300000684142804881607E48006841427E48B3
:10024000C0F8681144F620600CF02EFB7648B0F838
:10025000300100F5B47001B27348A0F830110020ED
:100260007349087044F620600CF01EFB00217248B0
:100270008160C0F868114FF4FA700CF015FBCFE7FD
:100280004BE007F04CF86D48007810B907F0C3F860
:100290003FE010206A494883684840684468002568
:1002A00033E0207800F00F0060B9802064490883B3
:1002B0002078C0F30311402007F0E7F820206049C0
:1002C000488311E0207800F00F01802007F0DDF86E
:1002D0002078C0F30311402007F0D7F82088C0F33E
:1002E0000321202007F0D1F864684FF47A700CF0F5
:1002F000DBFA4020524908838020088320200883AD
:1003000041F270700CF0D0FA6D1C4C480078A84295
:10031000C7DC4FF47A700CF0C7FAB2E705E005F0DD
:1003200034F84FF47A700CF0BFFAF8E770B5044671
:10033000002500BF0CF0F7FC0CF08CFB05460020FC
:100340000BF021FD3F49086019233F4A00213F4837
:100350000BF064FF1E233E4A00213E480BF05EFF77
:1003600028233D4A00213D480BF058FF37233C4AE3
:1003700000213C480BF052FF64200CF095FA00205D
:1003800007F0B1F8022007F0E4F805200CF0C4F9FA
:1003900028460CF063FB70BD10B540F6B83006F08F
:1003A000ECFE09F0E3FF4FF4806101F007022E4BF1
:1003B00018684FF6FF0318402C4B034343EA022012
:1003C000294B186000BF2A48006840F00700284900
:1003D000086007F015F807F0B1F807F06DF806F0BF
:1003E000E7FE00F04DF800F055F904F0CFFA04F004
:1003F0005DFB01F0BDF800F0E3FE04F062FA06F0E8
:10040000AAF902211B4806F069FA0AF093F90523BC
:10041000194A002119480BF001FF0AF0B2FA002036
:1004200010BD0000582700209021002000640040EB
:100430004400002048000020082D00204C0000202F
:100440000000024000000020E40C00201D03000812
:10045000E40E002081020008E41E0020F9010008DB
:10046000E4200020AD0100080CED00E00000FA05DA
:1004700030380240EC4D0020E40400202D03000839
:1004800000B58BB00121480609F0E9FB01210846BF
:1004900009F0B2FB09220B217B4809F0F2F909228D
:1004A0000C21794809F0EDF902208DF81C004FF479
:1004B000C050069006A9744809F058F900208DF83C
:1004C00026008DF827008DF828008DF829008DF87A
:1004D0002A008DF82B008DF822008DF823000820CB
:1004E0008DF8240003208DF82500ADF8200008A920
:1004F000664808F01AFA02208DF8120001208DF8E3
:10050000130000208DF8140046F22000ADF808001A
:1005100046F24000ADF80A0046F26000ADF80C006B
:100520004FF4C140ADF80E000020ADF810000120DE
:100530008DF8150002A808F082FA04208DF8120048
:1005400001208DF8130000208DF8140046F2A00061
:10055000ADF8080046F2C000ADF80A0046F2E0002F
:10056000ADF80C004FF4C240ADF80E000020ADF81D
:10057000100001208DF8150002A808F060FA05208F
:100580008DF8120001208DF8130000208DF8140062
:1005900046F22010ADF808004FF4C440ADF80A0050
:1005A0004FF4C840ADF80C0046F22040ADF80E0004
:1005B0000020ADF8100001208DF8150002A808F009
:1005C0003EFA14208DF8040003208DF80500002069
:1005D0008DF8060001208DF8070001A808F021F928
:1005E00001220221294808F029FD0BB000BD00B509
:1005F00085B00221254808F089FD78B10221234801
:1006000008F01FFE0221214808F05DFD6A46002126
:100610001E4808F0F8FB03201D49887005B000BD96
:1006200010B586B004461A48807800F0010048B141
:100630001748807800F0020020B91548807800F053
:100640000400F0B9207A28B900208DF80C00206849
:100650008038019000208DF80D00A07A8DF80E00F2
:10066000A27A04F10B010DF10F000CF08FFB9DF845
:100670000F004030C0B28DF80F0001A9034808F008
:10068000CDFA06B010BD000000000240006400403A
:100690006400002000B58BB00121880609F0DFFA64
:1006A00009220521FE4809F0ECF809220621FC4840
:1006B00009F0E7F802208DF818006020059005A9E0
:1006C000F74809F053F840208DF8280002208DF8F3
:1006D000290000208DF82A0001208DF82B000AA89F
:1006E00008F09FF841208DF8280002208DF829009D
:1006F00001208DF82A008DF82B000AA808F091F847
:1007000000208DF822008DF823008DF824008DF84C
:1007100025008DF826008DF827008DF81E008DF835
:100720001F0008208DF8200003208DF82100ADF86F
:100730001C0007A9DB4808F0F8F80E208DF80E0021
:1007400001208DF80F0000208DF8100044F22000E9
:10075000ADF8040044F24000ADF8060044F2600039
:10076000ADF808004FF48140ADF80A000020ADF864
:100770000C0001208DF8110001A808F060F90F208D
:100780008DF80E0001208DF80F0000208DF810006C
:1007900044F2A000ADF8040044F2C000ADF8060039
:1007A00044F2E000ADF808004FF48240ADF80A00D2
:1007B0000020ADF80C0001208DF8110001A808F010
:1007C0003EF910208DF80E0001208DF80F0000205A
:1007D0008DF8100045F22000ADF8040045F240000D
:1007E000ADF8060045F26000ADF808004FF4A140F6
:1007F000ADF80A000120ADF80C008DF8110001A839
:1008000008F01DF911208DF80E0001208DF80F0061
:1008100000208DF8100045F2A000ADF8040045F26C
:10082000C000ADF8060045F2E000ADF808004FF456
:10083000A240ADF80A000120ADF80C008DF81100BF
:1008400001A808F0FCF812208DF80E0001208DF8A8
:100850000F0000208DF8100043F22000ADF80400D6
:100860004FF44150ADF8060043F26000ADF80800C7
:100870004FF44250ADF80A000120ADF80C008DF89D
:10088000110001A808F0DBF813208DF80E000120FC
:100890008DF80F0000208DF8100043F2A000ADF895
:1008A00004004FF44350ADF8060043F2E000ADF809
:1008B00008004FF44450ADF80A000120ADF80C00D8
:1008C0008DF8110001A808F0BAF814208DF80E0078
:1008D00000208DF80F0001208DF810000020ADF8E9
:1008E00004004FF49040ADF806004FF6FF70ADF8ED
:1008F00008004FF47840ADF80A000120ADF80C0074
:100900008DF8110001A808F09AF815208DF80E0056
:1009100001208DF80F0000208DF810004BF2200010
:10092000ADF804004BF24000ADF806004BF2800039
:10093000ADF80800ADF80A000120ADF80C008DF804
:10094000110001A808F07BF816208DF80E00012098
:100950008DF80F0000208DF810004FF48150ADF895
:1009600004004FF48250ADF806004FF48350ADF808
:1009700008004FF48450ADF80A000120ADF80C00D7
:100980008DF8110001A808F05AF817208DF80E0014
:1009900001208DF80F0000208DF810004FF48550D5
:1009A000ADF804004FF48650ADF806004FF48750C0
:1009B000ADF808004FF48850ADF80A000120ADF8FA
:1009C0000C008DF8110001A808F039F8012210215F
:1009D000344808F033FB0BB000BD10B52DED0C8B87
:1009E00086B002212F4808F091FB00287ED001AA92
:1009F00000212C4808F007FA02212A4808F021FCBF
:100A00000198B0F5007F72D90198B0F5027F6ED8D9
:100A10009DF80D0000286AD10198401EC4B204A9B7
:100A2000481E03F05CFF0DF11201481E03F057FF52
:100A300005A9481E03F053FF04EB840000EB4410AB
:100A4000194901EBC000B0F81C0118498988884297
:100A500013D1BDF80F1004EB840000EB4410124AD0
:100A600002EBC0008186BDF8111004EB840000EB9E
:100A7000441002EBC00041842BE0BDF80F1004EBE2
:100A8000840000EB4410084A02EBC0008186BDF9E7
:100A900011000CF043FB41EC100B04EB840007E069
:100AA0000004024000680040902100202021002026
:100AB00000EB4410FB4901EBC00080ED0A0BBDF8D0
:100AC000131004EB840000EB4410F64A02EBC00064
:100AD000418404EB840000EB4410F24901EBC000B8
:100AE000818E04EB840000EB441001E03EE13CE128
:100AF000EC4A02EBC000B0F84C00081A01B204EB5B
:100B0000840000EB441002EBC000A0F8001104EBDD
:100B1000840000EB4410114601EBC000008C04EB94
:100B2000840101EB441102EBC101088704EB84004E
:100B300000EB4410114601EBC000418C04EB840033
:100B400000EB441002EBC000418704EB840000EB93
:100B50004410114601EBC00090ED0A0B04EB840039
:100B600000EB441001EBC00080ED100B04EB84009F
:100B700000EB441001EBC000016B04EB840000EBC0
:100B8000441002EBC000816404EB840000EB4410CD
:100B9000114601EBC000818E04EB840000EB441091
:100BA00002EBC000A0F84C1004EB840000EB4410F2
:100BB000114601EBC000B0F90001002808DD04EB8C
:100BC000840000EB441001EBC000B0F9000109E023
:100BD00004EB840000EB4410B24901EBC000B0F913
:100BE00000014042B0F57A6F2CDD04EB840000EB8D
:100BF0004410AC4901EBC000B0F9001104EB8400D3
:100C000000EB4410A74A02EBC000B0F90001002835
:100C100002DA4FF0FF3000E0012004EB840202EB27
:100C20004412A04B03EBC202B2F8182100FB1210D1
:100C300001B204EB840000EB44101A4602EBC00042
:100C4000A0F8001104EB840000EB4410954901EB7F
:100C5000C000016B04EB840000EB4410914A02EBEE
:100C6000C000B0F90001014404EB840000EB441023
:100C700002EBC000016304EB840000EB441011465A
:100C800001EBC000016B04EB840000EB441002EBAD
:100C9000C0008069091A04EB840000EB441002EBE9
:100CA000C000C0F8041104EB840101EB441102EB15
:100CB000C101B1F818010CF042FA41EC1A0B04EB37
:100CC000840101EB4411774A02EBC10191F81A014A
:100CD0000CF035FA41EC1C0B04EB840000EB4410E3
:100CE000704A02EBC000006B00EE100AB8EEC00ABA
:100CF000DFED6D0A20EE200A10EE101A08460CF007
:100D000063FA53EC1C2B0CF09AF953EC1A2B0CF0F1
:100D100096F941EC190B04EB840000EB4410614997
:100D200001EBC00090ED481BB0EE410AF0EE610A05
:100D300053EC102B51EC190B0CF081F90CF00CFA60
:100D400000B204EB840101EB4411564A02EBC101ED
:100D500008840BF059FE04EB840101EB4411514A65
:100D600002EBC101C1F8100100BF00BF06B0BDEC2D
:100D70000C8B10BD4168491C416000210173016961
:100D8000491E0161828A511CCA1701EB92629211BD
:100D9000A1EB82128282704710B586B010214348C1
:100DA00008F0B4F900287CD001AA01213F4808F0DE
:100DB0002AF810213D4808F044FA10213B4808F079
:100DC00082F99DF80C00042876D19DF80D000028CA
:100DD000FAD10090029800F0FE0409210298B1EBCC
:100DE000102F6AD169460DF10F0006F080F904EB6F
:100DF000440101EBC4012E4A02EB411191F850115C
:100E000090FBF1F104EB440000EBC40002EB401056
:100E1000C16169469FED270A0DF10F0006F09DF9AB
:100E200004EB440000EBC400214901EB401080EDCD
:100E3000060A6946B2EE040A0DF10F0006F08DF9BC
:100E400004EB440000EBC400194901EB401080EDB5
:100E5000080A0DF11601481E03F041FDBDF81510FA
:100E600004EB440000EBC400114A02EB4010A0F870
:100E7000261104EB440000EBC400114601EB4010C6
:100E8000B0F8261104EB440000EBC40002EB401064
:100E9000B0F82801081A01B204EB440000EBC400CA
:100EA0000CE0D3E0902100200000B4430068004033
:100EB000082D002000007A44C7E0BAE002EB4010A1
:100EC000A0F8221104EB440000EBC400114601EB32
:100ED000401090F8240180B1002104EB440000EBA5
:100EE000C40002EB401080F8241104EB440000EB36
:100EF000C40002EB4010A0F8221104EB440000EB08
:100F0000C400A94901EB4010B0F8261104EB4400DD
:100F100000EBC400A44A02EB4010A0F8281104EB37
:100F2000440000EBC400114601EB4010B0F922016F
:100F3000002808DD04EB440000EBC40001EB401086
:100F4000B0F9220109E004EB440000EBC40096492B
:100F500001EB4010B0F922014042B0F5E16F27DD0E
:100F600004EB440000EBC4008F4901EB4010B0F9E2
:100F7000221104EB440000EBC4008B4A02EB40104A
:100F8000B0F92201002802DA4FF0FF3000E0012022
:100F9000C0EB4012C2EB0020A1EB001001B204EB49
:100FA000440000EBC400804A02EB4010A0F822117C
:100FB00004EB440000EBC4007B4901EB4010416AA4
:100FC00004EB440000EBC400774A02EB4010B0F998
:100FD0002201014404EB440000EBC40002EB40108A
:100FE000416204EB440000EBC400114601EB4010E9
:100FF0004078F0B104EB440000EBC40001EB40107A
:1010000090ED080A04EB440000EBC40001EB401033
:1010100080ED4B0A04EB440000EBC40001EB4010F0
:10102000416A04EB440000EBC40002EB4010C0F83E
:1010300030110BF0E9FC04EB440101EBC4015A4A06
:1010400002EB4111C1F81C0100BF00BF06B010BD8A
:1010500070B5044604EB840000EB4410534901EBE7
:10106000C000B0F90A00002808DD04EB840000EBA2
:10107000441001EBC000B0F90A0009E004EB840061
:1010800000EB4410494901EBC000B0F90A004042AE
:1010900004EB840101EB4411444A02EBC101B1F8B5
:1010A0001C11884220DD04EB840000EB4410114643
:1010B00001EBC000B0F90A00002802DA4FF0FF305F
:1010C00000E0012004EB840101EB4411374A02EBFC
:1010D000C101B1F81C11484301B204EB840000EBDC
:1010E000441002EBC000418104EB840000EB44108B
:1010F0002E4911F8300040B9002104EB840000EBC8
:1011000044102A4A02EBC0004181042C04DA4FF457
:1011100000702749086003E040F2FF10244908608E
:1011200000202349487208720820887204F00B00DE
:10113000450004EB840000EB44101C4901EBC000A7
:1011400041891B480B30415302466B1CD118501982
:1011500003F0C5FB032C01D0072C03D1144915481B
:1011600007F05CFD70BD30B585B005460C461248F1
:10117000019000208DF8090004208DF8080003205C
:101180008DF80A0056208DF80B004C218DF80C10BC
:101190008DF80D408DF80E506946064807F03EFD6B
:1011A0000648447005B030BD082D00209021002075
:1011B000E820002000680040010103001C350020E9
:1011C00010B5E548006840F00100E349086041F6C9
:1011D00057300906C8620B2008850846008840F48D
:1011E000807008800846008A20F0010008820846C6
:1011F000808940F0010088810846008840F00100A5
:10120000088003231C220121084606F083FB10BD41
:1012100070B54FF08040008A00F00100002879D0BE
:10122000002410E104EB440101EBC401CB4A02EBC2
:10123000411002F093FC04EB440000EBC400C749EA
:1012400001EB4010007800287DD004EB440000EB57
:10125000C40001EB40104078002870D004EB44003B
:1012600000EBC40001EB4010C078092865D2DFE82C
:1012700000F0160527406452565A600004EB440102
:1012800001EBC401B54A02EB4111D1ED010AB0EE08
:10129000600A611CC8B2002102F068FC4EE004EB59
:1012A000440101EBC401AD4A02EB4111D1ED050A45
:1012B000B0EE600A611CC8B2002103F0E4F93DE021
:1012C00004EB440202EBC402A44B03EB421292680B
:1012D00004EB440303EBC403A04D05EB431393F865
:1012E000503102FB03F1621CD0B2002202F0F4FE86
:1012F00024E004EB440101EBC401984A02EB4111E4
:10130000D1ED4E0AB0EE600A611CC8B2002103F0B4
:101310000CFA13E09AE0E0B203F0B3F80EE0E0B2AA
:1013200002F020FF0AE0E0B202F0CEFC06E00AE0A4
:1013300005E0E0B202F043FC00E000BF0AE0E0B2EA
:1013400003F09FF806E0611CC8B200219FED840AFB
:1013500002F00CFC04EB440000EBC4007F4901EBFD
:101360004010007840B30BF04FFB04EB440101EB5D
:10137000C4017A4A02EB4111D1F81C11411A04EB65
:10138000440000EBC40002EB4010B0F820018142A1
:1013900012D904EB440000EBC400114601EB4010ED
:1013A00090F81801401C04EB440101EBC40102EB6E
:1013B000411181F8180109E0002004EB440101EB20
:1013C000C401664A02EB411181F8180104EB4400A4
:1013D00000EBC400614901EB401090F818010A28A5
:1013E00015DD012104EB440000EBC4005B4A02EB75
:1013F000401080F82D10621C032343EA021292B2BF
:1014000042F48071574A506803F093FA1AE00021C1
:1014100004EB440000EBC400504A02EB401080F89B
:101420002D10621C032343EA021292B242F480712F
:101430004C4A506803F06FFA05464A494868294605
:1014400003F053FA641C012CFFF6ECAE4FF0804021
:10145000008A20F001004FF08041088270BD70B515
:1014600041490878411C404A1170032807DD0020DB
:101470001146087000220121104601F0D7FD00241A
:1014800064E004EB8400394901EB0010407800B3BC
:101490000BF0BAFA04EB8401344A02EB0111096C37
:1014A000411A04EB840002EB0010B0F844008142C2
:1014B0000FD904EB8400114601EB001090F83C00BA
:1014C000401CC1B204EB840002EB001080F83C1019
:1014D00007E0002104EB8400244A02EB001080F8AE
:1014E0003C1004EB8400214901EB001090F83C0013
:1014F0000A2812DD012104EB84001C4A02EB0010D3
:10150000C177621C022343EA021292B242F4807154
:10151000144A506803F00DFA17E0002104EB840030
:10152000124A02EB0010C177621C022343EA021246
:1015300092B242F480710B4A506803F0ECF9054610
:1015400008494868294603F0D0F9641C042C98DB4C
:1015500070BD70477047704740380240082D00202A
:10156000000000004C00002004000020182B002088
:1015700010B52748006840F002002549086042F68F
:10158000DF60244908600620091F088021482C38A4
:10159000008840F480701F492C3908801D481C3891
:1015A000008820F001001B491C390880081F0088B2
:1015B00040F00100091F088016482C38008840F0D0
:1015C000010014492C39088003231D220021012029
:1015D00006F0A0F910BD10B50E481C38008800F0C8
:1015E000010058B10C490D4805F0BDF80C48407A8F
:1015F00020B1022208490B4805F0C0F905481C3803
:10160000008820F0010003491C39088010BD00004B
:10161000403802402C040040846E002000680040E6
:101620001C350020EC4D002070B52DED0E8B00BF59
:101630004FF40050FE490880FE490880FE490880AA
:101640002420FB4988701320FA4988700120FA4948
:10165000887042F22830F649888043F69910F5499F
:10166000888046F6CC40F44988809FEDF40BF04822
:1016700080ED020B9FEDF10BEE4880ED020B9FED2C
:10168000EF0B084680ED020B0120EE4908729FED3A
:10169000EE0B084680ED040B0020087608709FEDE5
:1016A000EC0A084680ED010A4FF4FA7048834000C6
:1016B00088830120E74908729FEDE70B084680ED1B
:1016C000040B0020087608709FEDE10A084680EDC3
:1016D000010A4FF4FA60E2498883052404EB840090
:1016E00000EB4410DF4901EBC00000F58070D24DE3
:1016F0002ECD18302EC0002004EB840101EB4411E4
:10170000D84A02F83100012004EB840101EB4411B6
:1017100002EBC1014870052004EB840101EB441188
:1017200002EBC10188704FF4B47004EB840101EB4B
:10173000441102EBC10108819FEDCB0B04EB840047
:1017400000EB4410114601EBC00080ED040B0021BA
:1017500004EB840000EB441002EBC000418104EB79
:10176000840202EB4412BF4B03EBC202916904EB0B
:10177000840202EB441203EBC20202F15800F7EEBE
:10178000001A9FEDBB1ADFEDBB0A9FEDB90A05F009
:1017900013FB04EB840000EB4410B24901EBC000E2
:1017A00090ED041BB0EE410AF0EE610A51EC100B13
:1017B0000BF0D2FC054604EB840101EB4411A94A6D
:1017C00002EBC10101F198002946F7EE001A9FEDE6
:1017D000AA1AF2EE040AB2EE040A05F0EDFA04EBDE
:1017E000840101EB44119F4A02EBC10101F1D800D1
:1017F000202298490BF0CAFA012404EB840000EB84
:101800004410984901EBC00000F58070894D2ECD41
:1018100018302EC0002004EB840101EB4411914AE2
:1018200002F83100012004EB840101EB441102EBCA
:10183000C1014870052004EB840101EB441102EB67
:10184000C1018870002004EB840101EB441102EB1C
:10185000C10108819FED7C0B04EB840000EB441078
:10186000114601EBC00080ED040B642104EB840001
:1018700000EB441002EBC000418104EB840202EB58
:101880004412784B03EBC202916904EB840202EB31
:10189000441203EBC20202F15800DFED781A9FED0B
:1018A000761ADFED740AB1EE040A05F085FA04EB4E
:1018B000840000EB44106B4901EBC00090ED041B69
:1018C000B0EE410AF0EE610A51EC100B0BF044FC53
:1018D000054604EB840101EB4411624A02EBC101AD
:1018E00001F198002946F7EE001A9FED631ADFED2B
:1018F000640AB2EE000A05F05FFA04EB840101EB22
:101900004411584A02EBC10101F1D80020224D498F
:101910000BF03CFA002512E105EB850000EB4510C9
:10192000504901EBC0004E490968C0F8F8104C4816
:10193000416805EB850000EB45104A4A02EBC00008
:10194000C0F8FC1005EB850101EB451102EBC1016C
:1019500001F580700A22424908310BF017FA40481D
:10196000418A05EB850000EB45103E4A02EBC000C2
:10197000A0F80A1105EB850000EB4510114601EBBC
:10198000C000F830364B59699A69DB6914300EC0D3
:1019900005EB850101EB4511324A02EBC101B1F8BB
:1019A00018010BF0CCFB41EC1A0B05EB850101EBA8
:1019B00045112C4A02EBC10191F81A010BF0BFFB53
:1019C00041EC1C0B05EB850000EB4510254A02EBB2
:1019D000C00090ED370A10EE101A08460BF0F4FB29
:1019E00041EC1E0B05EB850000EB45101D4901EB9A
:1019F000C00090ED481BB0EE410AF0EE610A53ECD6
:101A0000102B51EC1E0B0BF0A8FA53EC1C2B0BF017
:101A1000A4FA53EC1A2B0BF0A0FA9FED1A0B53EC1F
:101A2000102B0BF00CFB0BF0B6FB05EB85012DE04A
:101A300000210020102100202021002000000000B3
:101A40000000F03F302100200000000000408F40E7
:101A50000000FA43502100200000000000007940FF
:101A600070210020902100200000000000000000F4
:101A7000CDCCCC3DCDCC4C3E00000000CDCCCC3EFE
:101A80009A99993E000000000080764001EB4511D4
:101A9000FE4A02EBC101C1F8F80005EB850101EB3C
:101AA000451102EBC101B1F818010BF048FB41EC04
:101AB0001A0B05EB850101EB4511F44A02EBC1015C
:101AC00091F81A010BF03BFB41EC1C0B05EB850177
:101AD00001EB4511ED4A02EBC101B1F908000BF031
:101AE0001DFB41EC1E0B05EB850000EB4510E749A3
:101AF00001EBC00090ED481BB0EE410AF0EE610A28
:101B000053EC102B51EC1E0B0BF027FA53EC1C2B53
:101B10000BF023FA53EC1A2B0BF01FFA1FED270BD7
:101B200053EC102B0BF08BFA0BF016FB05EB850139
:101B300001EB4511D54A02EBC10188616D1C082DEE
:101B4000FFF6EAAEBDEC0E8B70BD002255210A54A3
:101B5000026300210184704710B52DED048B04460B
:101B600004EB840000EB4410C84A02EBC00090ED87
:101B70002A0A10EE101A08460BF026FB41EC190B4E
:101B800004EB840000EB4410C04901EBC00090ED71
:101B9000041BB0EE410AF0EE610A53EC102B51EC3D
:101BA000190B0BF0DAF90BF0D7FA04EB840101EB17
:101BB0004411B64A02EBC101C1F8980004EB84005D
:101BC00000EB4410114601EBC00090ED0A0B04EB52
:101BD000840000EB441001EBC00080ED2E0B04EB01
:101BE000840101EB441102EBC10101F1980005F001
:101BF00083F904EB840101EB4411A44A02EBC10117
:101C0000B1F90A000BF08AFA41EC190B04EB8400DD
:101C100000EB44109D4901EBC00090ED2C1BB0EE91
:101C2000410AF0EE610A53EC102B51EC190B0BF04A
:101C3000EDF80BF091FA01B204EB840000EB4410D4
:101C4000924A02EBC0004181BDEC048B10BD10B57F
:101C50002DED0E8B044604EB840101EB44118B4AFD
:101C600002EBC101B1F818010BF069FA41EC1A0B53
:101C700004EB840101EB4411844A02EBC10191F8A9
:101C80001A010BF05CFA41EC1C0B04EB840101EB34
:101C900044117E4A02EBC101B1F908000BF03EFA93
:101CA00041EC1E0B04EB840000EB4410774901EB80
:101CB000C00090ED481BB0EE410AF0EE610A53EC13
:101CC000102B51EC1E0B0BF048F953EC1C2B0BF0B6
:101CD00044F953EC1A2B0BF040F91FED960B53EC23
:101CE000102B0BF0ACF90BF037FA04EB840101EB8D
:101CF0004411664A02EBC101886104EB840000EBE9
:101D00004410114601EBC000806904EB840101EB33
:101D1000441102EBC101886504EB840000EB441020
:101D2000114601EBC000407870B904EB840000EB71
:101D3000441001EBC000D0F8FC0004EB840101EB7F
:101D4000441102EBC101886504EB840000EB4410F0
:101D50004E4901EBC00090F8D80088B304EB840032
:101D600000EB441001EBC000806D002807DD04EBA0
:101D7000840000EB441001EBC000806D08E004EB30
:101D8000840000EB4410414901EBC000806D4042EB
:101D900004EB840101EB44113C4A02EBC101D1F890
:101DA000F81088421FD904EB840000EB4410114660
:101DB00001EBC000806D002803DA4FF0FF3001E036
:101DC00011E0012004EB840101EB44112F4A02EBE6
:101DD000C101D1F8F810484304EB840101EB441130
:101DE00002EBC101886504EB840101EB4411274A31
:101DF00002EBC101086B0BF091F941EC100B04EB05
:101E0000840000EB4410214901EBC00080ED1E0B63
:101E100004EB840101EB44111C4A02EBC10101F106
:101E2000580005F069F804EB840000EB4410174AF1
:101E300002EBC00090ED1A0A10EE101A08460BF0E3
:101E4000C3F941EC190B04EB840000EB44100F497B
:101E500001EBC00090ED1C1BB0EE410AF0EE610AF0
:101E600053EC102B51EC190B0BF077F80BF074F9C5
:101E700004EB840101EB4411044A02EBC101C1F8F7
:101E8000980004EB840000EB441001E09021002056
:101E9000114601EBC00090F8E000002867D004EB89
:101EA000840101EB441102EBC101D1F89810002923
:101EB00008DD04EB840101EB441102EBC101D1F810
:101EC000981009E004EB840101EB4411FE4A02EB97
:101ED000C101D1F89810494208460BF01FF941ECB6
:101EE000180B04EB840000EB4410F74901EBC00031
:101EF00090ED3A1BB0EE410AF0EE610A53EC102B64
:101F000051EC180B0BF08CF931D204EB840101EB8E
:101F10004411ED4A02EBC101D1F89810002902DA10
:101F20004FF0FF3100E0012108460BF0F7F841ECDB
:101F3000190B04EB840000EB4410E34901EBC000F3
:101F400090ED3A1BB0EE410AF0EE610A53EC102B13
:101F500051EC190B0BF001F80BF0FEF804EB8401C7
:101F600001EB4411D84A02EBC101C1F8980004EB1F
:101F7000840000EB4410D44901EBC00090ED0A0B43
:101F800004EB840000EB441001EBC00080ED2E0B4D
:101F900004EB840101EB4411CB4A02EBC10101F1D6
:101FA000980004F0A9FF04EB840101EB4411C64A38
:101FB00002EBC101B1F90A000BF0B0F841EC190BCA
:101FC00004EB840000EB4410BF4901EBC00090ED2E
:101FD0002C1BB0EE410AF0EE610A53EC102B51ECD1
:101FE000190B0AF013FF0BF0B7F801B204EB8400F1
:101FF00000EB4410B44A02EBC000418104EB8400C2
:1020000000EB4410114601EBC000D0F80401002899
:1020100008DD04EB840000EB441001EBC000D0F8B5
:10202000040109E004EB840000EB4410A64901EB35
:10203000C000D0F8040140423C280ADA012004EB39
:10204000840101EB4411A04A02EBC10181F8500068
:1020500009E0002004EB840101EB44119A4A02EBF1
:10206000C10181F85000BDEC0E8B10BD10B52DEDF7
:10207000048B044604EB840000EB4410924901EB0E
:10208000C000B0F9F20004EB840101EB44118E4A68
:1020900002EBC101C1F8980004EB840000EB44108E
:1020A000114601EBC00090ED0A0B04EB840000EB3D
:1020B000441001EBC00080ED2E0B04EB840101EB1A
:1020C000441102EBC10101F1980004F015FF04EB8B
:1020D000840101EB44117C4A02EBC101B1F90A0011
:1020E0000BF01CF841EC190B04EB840000EB4410DE
:1020F000754901EBC00090ED2C1BB0EE410AF0EEEB
:10210000610A53EC102B51EC190B0AF07FFE0BF017
:1021100023F801B204EB840000EB44106A4A02EB9E
:10212000C000418104EB840000EB4410114601EB38
:10213000C000B0F90A00002808DD04EB840000EBC1
:10214000441001EBC000B0F90A0009E004EB840080
:1021500000EB44105C4901EBC000B0F90A004042BA
:102160005A49898B88421ADD04EB840000EB441045
:10217000554901EBC000B0F90A00002802DA4FF01F
:10218000FF3000E001205149898B484301B204EB44
:10219000840000EB44104C4A02EBC000418104EB88
:1021A000840000EB4410484901EBC000B0F9000185
:1021B000002808DD04EB840000EB441001EBC000B4
:1021C000B0F9000109E004EB840000EB44103E4943
:1021D00001EBC000B0F900014042322814DA04EBF0
:1021E000840000EB4410384901EBC000B0F808014E
:1021F000401C81B204EB840000EB4410324A02EB35
:10220000C000A0F8081109E0002104EB840000EBF5
:1022100044102D4A02EBC000A0F8081104EB840022
:1022200000EB4410284901EBC000B0F80801FA287F
:1022300021DD002104EB840000EB4410224A02EB74
:10224000C000A0F8081104EB840000EB441002EB7E
:10225000C0000163052004EB840101EB441102EB93
:10226000C1018870012104EB840000EB441002EBF3
:10227000C00080F85110BDEC048B10BD70B52DED81
:10228000088B002488E104EB840000EB44100E4925
:1022900001EBC000B0F81C010D49898888423DD18E
:1022A00004EB840101EB4411074A02EBC101B1F8D0
:1022B00018010AF044FF41EC180B04EB840101EB18
:1022C0004411014A06E00000902100203021002046
:1022D0002021002002EBC101096BB24A52F82420F0
:1022E000881A0AF01BFF9FEDB00B53EC102B0AF07D
:1022F00034FE9FEDAF0B53EC102B0AF02EFE53EC87
:10230000182B0AF09CFE41EC100B04EB840000EB50
:102310004410A94901EBC00080ED0A0B04EB8400D6
:1023200000EB4410A44901EBC000006B9D4941F84B
:10233000240004EB840000EB44109F4911F83000A6
:10234000002876D004EB840000EB441001EBC000C1
:10235000B0F90A1004EB840000EB4410964A02EB3B
:10236000C000B0F81C01081A002812DD04EB84003C
:1023700000EB4410114601EBC000B0F90A1004EB69
:10238000840000EB441002EBC000B0F81C01081AF6
:1023900012E004EB840000EB4410874901EBC0001D
:1023A000B0F81C1104EB840000EB4410824A02EBED
:1023B000C000B0F90A00081A322846DD04EB840098
:1023C00000EB44107C4901EBC000B0F80A01401C4E
:1023D00081B204EB840000EB4410774A02EBC000AA
:1023E000A0F80A1104EB840000EB4410114601EB45
:1023F000C000B0F80A01B0F57A7F1BDD012104EBC3
:10240000840000EB441002EBC00080F8521004EB93
:10241000840000EB4410114601EBC00090F8F0007E
:10242000E8B1002004EB840101EB441102F8310013
:1024300015E00AE0002104EB840000EB44105E4A42
:1024400002EBC00080F8521009E0002104EB840088
:1024500000EB4410584A02EBC000A0F80A1104EB4C
:10246000840000EB4410544901EBC000407878B17F
:1024700004EB840000EB441001EBC000016B04EBA3
:10248000840000EB44104C4A02EBC000C0F8FC1082
:1024900004EB840000EB4410474901EBC00090F8C6
:1024A000550040B104EB840101EB4411424A02EBB8
:1024B000C100FFF74AFB04EB840000EB44103E49E7
:1024C00011F83000E8B30AF09FFA04EB840101EB45
:1024D0004411394A02EBC101D1F81011411A04EB41
:1024E000840000EB441002EBC000B0F814018142FC
:1024F00036D904EB840000EB4410114601EBC00018
:1025000090F80C01401CC1B204EB840000EB4410B5
:1025100002EBC00080F80C110A2916DD012104EB42
:10252000840000EB441002EBC00080F85310621CE2
:10253000012343EA021292B242F480711F4A5068AA
:1025400000E00DE002F0F5F925E0002104EB840045
:1025500000EB4410184A02EBC00080F853101AE058
:10256000002104EB840000EB4410134A02EBC0008E
:1025700080F80C11621C012343EA021292B242F469
:1025800080710E4A506802F0C6F905460B4948684A
:10259000294602F0AAF9641C082CFFF674AEBDECC3
:1025A000088B70BDD02A00200000000000005940B8
:1025B0000000000000004E40902100204C00002050
:1025C00010B54FF48040FC490880B7EE000A084679
:1025D00080ED010A4FF48040F8490880B7EE000A08
:1025E000084680ED010A4FF47A60F54908809FEDB6
:1025F000F50A084680ED010A4FF47A60F249088036
:102600009FEDF20A084680ED010A0020F0490870AB
:102610009FEDF00A084680ED010A002008724FF491
:102620007A704881002008734FF4FA70C881400026
:1026300008824000E8490882002428E004EB840175
:10264000E64A02EB011101F120001422E0490AF0F0
:102650009DFB04EB8400E14901EB0010DE490A68B0
:10266000426389880187DC48C18804EB8400DB4A27
:1026700002EB0010418704EB8400114601EB0010CF
:10268000D54B9968DA681B693C300EC0641C052C78
:10269000D4DB10BD10B586B00446002001908DF843
:1026A0000D008DF80C0008208DF80E0001208DF82B
:1026B0000F0000218DF810108DF811108DF81210F8
:1026C0008DF813108DF814108DF815108DF8161064
:1026D00001A9204606F0A2FA06B010BD0FB438B525
:1026E000044606A80090009802C80090009804C80C
:1026F0000090BB4B5B88581CC31700EB93639B1186
:10270000A0EB8313B64D2D88AB4205D10120B54B0C
:10271000D87238BC5DF814FB04F54070B04B5D888E
:102720001B1D03EB051318609DF81400012822D12E
:102730000423AB484588001D00EB051003714123BD
:10274000A7484588001D00EB051043714323A448AA
:102750004588001D00EB051083710023A0484588C3
:10276000001D00EB0510C3719D484588001D00EB5E
:10277000051003722CE09DF81400022828D10823CC
:1027800097484588001D00EB0510037141239448CC
:102790004588001D00EB0510437143239048458890
:1027A000001D00EB0510837100238D484588001D36
:1027B00000EB0510C3718A484588001D00EB051029
:1027C000037287484388001D00EB0310C0F80920FE
:1027D00083484588001D00EB05104173804B5B88E2
:1027E000581CC31700EB93639B11A0EB83137C4D24
:1027F0006B800020009000BF8BE710B50246784B3D
:102800005B88581CC31700EB93639B11A0EB8313E9
:10281000734C2488A34203D10120724BD87210BD9F
:1028200002F540706E4B5C881B1D03EB04131860AF
:1028300004236B484488001D00EB041003714223FD
:1028400067484488001D00EB041043714723644827
:102850004488001D00EB0410837100236048448805
:10286000001D00EB0410C3715D484488001D00EB9F
:10287000041003725A484388001D00EB0310417393
:10288000574B5B88581CC31700EB93639B11A0EB5D
:102890008313534C638000BFC1E70FB438B50446BF
:1028A00006A80090009802C80090009804C8009004
:1028B0004B4B5B88581CC31700EB93639B11A0EB39
:1028C0008313474D2D88AB4205D10120454BD8726B
:1028D00038BC5DF814FB04F54070414B5D881B1D4E
:1028E00003EB051318609DF81400012822D104237E
:1028F0003B484588001D00EB051003714423384810
:102900004588001D00EB051043714323344845887A
:10291000001D00EB05108371002331484588001D20
:1029200000EB0510C3712E484588001D00EB051013
:1029300003722CE09DF81400022828D108232848AF
:102940004588001D00EB0510037144232448458889
:10295000001D00EB05104371432321484588001DED
:1029600000EB0510837100231D484588001D00EB16
:102970000510C3711A484588001D00EB051003724D
:1029800017484388001D00EB0310C0F809201448C5
:102990004588001D00EB05104173114B5B88581CE6
:1029A000C31700EB93639B11A0EB83130C4D6B805B
:1029B0000020009000BF8BE70800002010000020DE
:1029C00018000020CDCC6C4020000020E438964157
:1029D000F02A002000003444042B0020182B002093
:1029E000846E00201C3500200FB478B507A9009133
:1029F000009904C90091009908C90091FE4C6488AF
:102A0000611CCC1701EB9464A411A1EB8414FA4D62
:102A10002D88AC4205D10121F84CE17278BC5DF8FB
:102A200014FB00F54071F44C6588241D04EB05147B
:102A300021609DF81810012922D10424EE494D8807
:102A4000091D01EB05110C714A24EB494D88091D44
:102A500001EB05114C715624E7494D88091D01EB26
:102A600005118C710024E4494D88091D01EB051105
:102A7000CC71E1494D88091D01EB05110C7239E05B
:102A80009DF81810022935D1441E04EB8404DC4D56
:102A900005EB0414B4F848405C433C2594FBF5F185
:102AA0000825D54C6688241D04EB061425714A259B
:102AB000D14C6688241D04EB061465715625CE4C56
:102AC0006688241D04EB0614A5710025CA4C66888F
:102AD000241D04EB0614E571C74C6688241D04EB25
:102AE00006142572C44C6588241D04EB0514C4F833
:102AF000091000BFC0494D88091D01EB05114A733B
:102B0000BD4C6488611CCC1701EB9464A411A1EB4B
:102B10008414B94D6C800021009100BF7EE710B590
:102B20000246B54B5B88581CC31700EB93639B119F
:102B3000A0EB8313B04C2488A34203D10120AF4BF8
:102B4000D87210BD02F54070AB4B5C881B1D03EBC7
:102B5000041318600423A8484488001D00EB0410E7
:102B600003714923A4484488001D00EB04104371FD
:102B70005123A1484488001D00EB041083710023F9
:102B80009D484488001D00EB0410C37180239A48BF
:102B90004488001D00EB0410037297484388001D11
:102BA00000EB03104173944B5B88581CC31700EB78
:102BB00093639B11A0EB83138F4C638000BFC0E72E
:102BC0000FB438B5044606A80090009802C80090DB
:102BD000009804C80090884B5B88581CC31700EB12
:102BE00093639B11A0EB8313834D2D88AB4205D1DA
:102BF0000120824BD87238BC5DF814FB04F540709C
:102C00007D4B5D881B1D03EB051318609DF81400B8
:102C1000012823D1042378484588001D00EB0510C6
:102C200003714D2374484588001D00EB0510437166
:102C30004F2371484588001D00EB05108371002368
:102C40006D484588001D00EB0510C37140236A489C
:102C50004588001D00EB051003723DE09DF814004F
:102C6000022839D1082364484588001D00EB05106F
:102C700003714D2360484588001D00EB051043712A
:102C80004F235D484588001D00EB0510837100232C
:102C900059484588001D00EB0510C371564845880A
:102CA000001D00EB0510037253484588001D00EB22
:102CB0000510427250484588001D00EB05108372D4
:102CC0004D484588001D00EB0510C3724A484588F1
:102CD000001D00EB0510037347484588001D00EBFD
:102CE00005104173444B5B88581CC31700EB93637A
:102CF0009B11A0EB8313404D6B800020009000BF20
:102D000079E770B586B006460C46154600208DF86A
:102D10000C008DF80D0006F540700190012C0ED1CD
:102D200004208DF80E004D208DF80F004F218DF8F6
:102D3000101000218DF811108DF8121017E0022CE0
:102D400015D108208DF80E004D208DF80F004F2171
:102D50008DF8101000218DF811108DF812108DF8DB
:102D600013508DF814108DF815108DF8161001A958
:102D7000244805F053FF06B070BD0FB478B50022AB
:102D8000002307A90091009904C90091009908C97E
:102D90000091194C6488611CCC1701EB9464A41158
:102DA000A1EB8414144D2D88AC4205D10121134CA4
:102DB000E17278BC5DF814FB00F540710E4C65883B
:102DC000241D04EB051421609DF8181001292CD155
:102DD000042409494D88091D01EB05110C7150248B
:102DE00005494D88091D01EB05114C71412402492B
:102DF0004D88091D08E00000846E00201C3500206D
:102E0000182B00200064004001EB05118C71002498
:102E1000FE494D88091D01EB0511CC71FB494D8818
:102E2000091D01EB05110C724BE09DF818100229E9
:102E300047D1441E04EB8404F54D05EB041494EDD6
:102E4000130A9FEDF41AC0EE010A441E04EB840439
:102E500005EB0414B4F848405C4300EE104AB8EEA9
:102E6000C00A20EE800ABDEEC00A10EE101A082536
:102E7000E64C6688241D04EB061425715025E34CAE
:102E80006688241D04EB061465714125DF4C6688B5
:102E9000241D04EB0614A5710025DC4C6688241D56
:102EA00004EB0614E571D94C6688241D04EB061466
:102EB0002572D64C6588241D04EB0514C4F809104E
:102EC00000BFD2494D88091D01EB05114A73CF4C53
:102ED0006488611CCC1701EB9464A411A1EB8414E9
:102EE000CA4D6C800021009100BF62E710B5024618
:102EF000C64B5B88581CC31700EB93639B11A0EB78
:102F00008313C24C2488A34203D10120C24BD87240
:102F100010BD02F54070BD4B5C881B1D03EB041314
:102F200018600423B9484488001D00EB04100371A5
:102F30005023B6484488001D00EB0410437145231C
:102F4000B2484488001D00EB041083710023AF4891
:102F50004488001D00EB0410C371AC484488001D78
:102F600000EB04100372A9484388001D00EB031016
:102F70004173A64B5B88581CC31700EB93639B11EE
:102F8000A0EB8313A14C638000BFC1E710B50246DC
:102F90009E4B5B88581CC31700EB93639B11A0EBFF
:102FA00083139A4C2488A34203D101209A4BD872F0
:102FB00010BD02F54070954B5C881B1D03EB04139C
:102FC0001860042391484488001D00EB041003712D
:102FD00050238E484488001D00EB04104371522397
:102FE0008A484488001D00EB041083710023874841
:102FF0004488001D00EB0410C37184484488001D00
:1030000000EB0410037281484388001D00EB03109D
:1030100041737E4B5B88581CC31700EB93639B1175
:10302000A0EB8313794C638000BFC1E70FB438B5C0
:10303000044606A80090009802C80090009804C8B2
:103040000090724B5B88581CC31700EB93639B1175
:10305000A0EB83136D4D2D88AB4205D101206E4B43
:10306000D87238BC5DF814FB04F54070674B5D887E
:103070001B1D03EB051318609DF81400012822D1D5
:10308000042362484588001D00EB0510037150239E
:103090005E484588001D00EB0510437158235B48CE
:1030A0004588001D00EB05108371002357484588B3
:1030B000001D00EB0510C37154484588001D00EB4E
:1030C000051003722CE09DF81400022828D1082373
:1030D0004E484588001D00EB0510037150234B48F6
:1030E0004588001D00EB051043715823474845886B
:1030F000001D00EB05108371002344484588001D26
:1031000000EB0510C37141484588001D00EB051018
:1031100003723E484388001D00EB0310C0F80920ED
:103120003A484588001D00EB05104173374B5B881A
:10313000581CC31700EB93639B11A0EB8313334D13
:103140006B800020009000BF8BE70FB438B50446B9
:1031500006A80090009802C80090009804C800904B
:103160002A4B5B88581CC31700EB93639B11A0EBA1
:103170008313264D2D88AB4205D10120264BD872F2
:1031800038BC5DF814FB04F54070204B5D881B1DB6
:1031900003EB051318609DF81400012822D10423C5
:1031A0001A484588001D00EB05100371532317488A
:1031B0004588001D00EB05104371442313484588E2
:1031C000001D00EB05108371002310484588001D89
:1031D00000EB0510C3710D484588001D00EB05107C
:1031E000037235E09DF81400022831D10823074806
:1031F0004588001D00EB05100371532303484588E3
:10320000001D00EB05104371442307E0846E00208D
:10321000182B00200000B4431C350020FE484588D0
:10322000001D00EB051083710023FB484588001D3D
:1032300000EB0510C371F8484588001D00EB051030
:103240000372F5484388001D00EB0310C0F8092005
:10325000F1484588001D00EB05104173EE4B5B887B
:10326000581CC31700EB93639B11A0EB8313EA4D2B
:103270006B800020009000BF82E70FB478B507A9EB
:103280000091009904C90091009908C90091E24C8D
:103290006488611CCC1701EB9464A411A1EB841425
:1032A000DD4D2D88AC4205D10121DC4CE17278BCAA
:1032B0005DF814FB00F54071D74C6588241D04EBC4
:1032C000051421609DF81810012922D10424D24947
:1032D0004D88091D01EB05110C715324CE494D8811
:1032E000091D01EB05114C715024CB494D88091D76
:1032F00001EB05118C710024C7494D88091D01EBB4
:103300000511CC714024C4494D88091D01EB0511FC
:103310000C729DF81810022935D1441E04EB840468
:10332000BF4D05EB0414B4F848405C433C2594FBC6
:10333000F5F10825B84C6688241D04EB06142571A8
:103340005325B54C6688241D04EB06146571502581
:10335000B14C6688241D04EB0614A5710025AE4C03
:103360006688241D04EB0614E571AB4C6688241DA9
:1033700004EB06142572A84C6588241D04EB051483
:10338000C4F8091000BFA4494D88091D01EB0511BF
:103390004A73A14C6488611CCC1701EB9464A4119E
:1033A000A1EB84149C4D6C800021009100BF7EE74E
:1033B00010B50246984B5B88581CC31700EB93630B
:1033C0009B11A0EB8313944C2488A34203D10120CA
:1033D000924BD87210BD02F540708F4B5C881B1D5C
:1033E00003EB0413186004238B484488001D00EB92
:1033F00004100371532388484488001D00EB041017
:103400004371542384484488001D00EB04108371E9
:10341000002381484488001D00EB0410C3717E48DE
:103420004488001D00EB041003727B484388001D94
:1034300000EB03104173784B5B88581CC31700EBFB
:1034400093639B11A0EB8313734C638000BFC1E7B0
:103450000FB438B5044606A80090009802C8009042
:103460000098006800EE100A0098001D00906A4A5B
:103470005288501CC21700EB92629211A0EB82128C
:10348000654B1B889A4205D10120644AD07238BC32
:103490005DF814FB04F540705F4A5388121D02EB7F
:1034A000031210609DF81400022833D1F8EEC00A10
:1034B0009FED5C1AC0EE811AFDEEE10A10EE900A53
:1034C0000823554A5588121D02EB05121371542327
:1034D000514A5588121D02EB0512537143234E4A7F
:1034E0005588121D02EB0512937100234A4A558834
:1034F000121D02EB0512D371474A5588121D02EBCB
:1035000005121372444A5388121D02EB0312C2F8CB
:10351000090000BF40484388001D00EB03104173C1
:103520003D4A5288501CC21700EB92629211A0EBE8
:103530008212394B5A800020009000BFA7E70FB4D9
:1035400038B5044606A80090009802C8009000987C
:1035500004C80090304B5B88581CC31700EB936382
:103560009B11A0EB83132C4D2D88AB4205D101207C
:103570002A4BD87238BC5DF814FB04F54070264B1A
:103580005D881B1D03EB051318609DF814000128CE
:1035900022D1042320484588001D00EB051003714B
:1035A00055231D484588001D00EB051043714D2330
:1035B00019484588001D00EB05108371002316484B
:1035C0004588001D00EB0510C37113484588001D98
:1035D00000EB0510037246E09DF81400022842D16A
:1035E00008230D484588001D00EB05100371552385
:1035F00009484588001D00EB051043714D2306481E
:103600004588001D00EB05108371002302484588A2
:10361000001D00EB051007E0846E00201C35002023
:10362000182B00200000C842C37141484588001D86
:1036300000EB051003723E484588001D00EB0510A5
:1036400042723B484588001D00EB051083723848E4
:103650004588001D00EB0510C37235484588001DE4
:1036600000EB0510037332484588001D00EB051080
:1036700041732F4B5B88581CC31700EB93639B115E
:10368000A0EB83132A4D6B800020009000BF71E7F0
:1036900010B50246264B5B88581CC31700EB93639A
:1036A0009B11A0EB8313224C2488A34203D1012059
:1036B000204BD87210BD02F540701D4B5C881B1D5D
:1036C00003EB04131860042319484488001D00EB21
:1036D00004100371562316484488001D00EB0410A3
:1036E0004371582312484488001D00EB0410837175
:1036F00000230F484488001D00EB0410C3710C48E0
:103700004488001D00EB0410037209484388001D23
:1037100000EB03104173064B5B88581CC31700EB8A
:1037200093639B11A0EB8313014C638000BFC1E73F
:10373000846E00201C35002010B50720F749087062
:103740009FEDF70A084680ED010A4FF47A70886011
:103750001520F449087040F6340088601220F249C0
:1037600008700020F149087247F23050C86001200B
:1037700008744FF47A704861B2EE040A084680ED8E
:10378000010A4FF4FA60EA49088101200873002019
:10379000E84908700846007800EB400101EBC000E2
:1037A000E54901EB401000F58070DC4BD3E90021C6
:1037B0009B68C0E9151302650020DE49097801EB1A
:1037C000410202EBC101DC4A02EB41110870012009
:1037D000D849097801EB410202EBC101D64A02EB5C
:1037E000411148700220D349097801EB410202EBF4
:1037F000C101D14A02EB4111C8709FEDD00ACD48FA
:10380000007800EB400101EBC000114601EB4010D5
:1038100080ED010A4FF4FA71C648007800EB4002CF
:1038200002EBC000C44A02EB401081600021C14895
:10383000007800EB400202EBC000BF4A02EB4010F0
:103840000161B7EE000ABB48007800EB400101EBD4
:10385000C000114601EB401080ED050AB54A127810
:1038600002EB420303EBC2020B4603EB4212116967
:10387000B04A127802EB420303EBC202AE4B03EBF9
:10388000421202F13000F7EE001A9FEDAC1ADFEDA4
:10389000AC0AB6EE000A03F08FFAA64A127802EBE1
:1038A000420303EBC202A44B03EB42129168A14A0C
:1038B000127802EB420303EBC2029F4B03EB42126E
:1038C00002F17000F7EE001AB7EE001ADFED9D0A64
:1038D0009FED9D0A03F070FA9649097801EB4102C9
:1038E00002EBC101944A02EB411101F1B000DFED9E
:1038F000971A9FED971ADFED910A9FED960A03F054
:1039000075FA8C49097801EB410202EBC1018A4A40
:1039100002EB411101F1E400DFED8C1A9FED871AF3
:10392000DFED860A9FED8C0A03F060FA8149097881
:1039300001EB410202EBC1017F4A02EB411101F5AB
:103940009C701822794909F021FA9FED750A79488F
:10395000007800EB400101EBC000774901EB40101B
:1039600080ED4F0A0120734908700846007800EB8B
:10397000400101EBC000704901EB401000F5807080
:10398000684BD3E900219B68C0E91513026500204C
:103990006849097801EB410202EBC101664A02EB7A
:1039A0004111087001206349097801EB410202EBE3
:1039B000C101614A02EB4111487002205D4909785A
:1039C00001EB410202EBC1015B4A02EB4111C870FD
:1039D000B2EE040A5748007800EB400101EBC0004A
:1039E000114601EB401080ED010A6FF0C70151480C
:1039F000007800EB400202EBC0004F4A02EB40109F
:103A0000816000214B48007800EB400202EBC000CF
:103A1000494A02EB40100161B7EE000A45480078C0
:103A200000EB400101EBC000114601EB401080EDBE
:103A3000050A404A127802EB420303EBC2020B462E
:103A400003EB421211693B4A127802EB420303EB8B
:103A5000C202394B03EB421202F13000F7EE001ABA
:103A60009FED361ADFED390AB6EE000A03F0A4F92D
:103A7000002450E004EB440101EBC4012E4A02EBA8
:103A8000411101F58C700A22294909F07FF9284873
:103A9000418904EB440000EBC400274A02EB4010CC
:103AA000A0F8221104EB440000EBC400114601EB26
:103AB00040101F498989A0F824111D48C18904EBD1
:103AC000440000EBC40002EB4010A0F82611184897
:103AD000018A04EB440000EBC40002EB4010A0F8A4
:103AE000281104EB440000EBC400114601EB401028
:103AF00000F58C700E4A51699269C0E905120C48B4
:103B0000C16904EB440000EBC4000B4A02EB401017
:103B1000C0F83411641C042CACDB10BDA82C0020B0
:103B200000007042B42C0020C02C0020CC2C0020BF
:103B3000E42C002030000020082D002000000000B0
:103B4000EC51383D6F12833A4260E53BCDCC4C3EA0
:103B500017B7D1398FC2F53C8FC2753C2E21095C55
:103B600019B100222E210A544262704730B52DED62
:103B7000028B81B00446B0EE408A0D4600200090D2
:103B800044F48070FE4948600020487204200872A6
:103B9000082088729FEDFB0A28EE000ABDEEC00ADD
:103BA00010EE101A6A46F6480B3003F089FAF44911
:103BB000F54805F033F801B0BDEC028B30BD70B5AF
:103BC000044604EB440202EBC402F04B03EB421246
:103BD000D2F8581104EB440202EBC40203EB421288
:103BE00002F1080004F06BF904EB440303EBC40397
:103BF000E64D05EB4313DB6904EB440505EBC40517
:103C0000E24E06EB451595F8505103FB05F204EB27
:103C1000440303EBC403354605EB43139B6804EBF5
:103C2000440505EBC40506EB451595F8505103FB1B
:103C300005F104EB440303EBC403354605EB4313E2
:103C400003F1E40003F0DBF804EB440000EBC400F4
:103C5000294601EB401090ED430A04EB440000EBD1
:103C6000C40001EB4010D0ED550A20EE200A04EB11
:103C7000440000EBC40001EB401080ED010A04EBAE
:103C8000440101EBC4012A4602EB4111D1ED4F0A78
:103C9000B0EE600A04EB440101EBC40102EB4111F8
:103CA000081D04F0F0F804EB440101EBC4012A46BE
:103CB00002EB4111D1ED010AB0EE600A611CC8B2FD
:103CC0000021FFF753FF70BD10B52DED048B82B0BE
:103CD000044604EB440000EBC400AC4901EB401087
:103CE000D0F83401002802DA4FF0FF3000E0012064
:103CF00004EB440101EBC401A44A02EB4111C96980
:103D0000002902DA4FF0FF3100E00121484028B1DC
:103D10009FED9F0A9F4880ED000A04E09FED9E0AF8
:103D20009C4880ED000A04EB440000EBC400974976
:103D300001EB4010D0F83401002808DD04EB44000A
:103D400000EBC40001EB4010D0F8340109E004EBB3
:103D5000440000EBC4008D4901EB4010D0F8340161
:103D6000404200EE100AB8EEC00A8A48D0ED000AC0
:103D7000B2EE041A60EE810AB4EEE00AF1EE10FA37
:103D800029DD04EB440000EBC400804901EB401046
:103D900090ED080A04EB440000EBC40001EB401076
:103DA000D0F83401002802DA4FF0FF3000E00120A3
:103DB00000EE900AF8EEE00A764890ED001A00EE68
:103DC000810A04EB440000EBC400704901EB401091
:103DD00080ED030A25E004EB440000EBC4006B49CE
:103DE00001EB4010D0F8340100EE900AF8EEE00A42
:103DF000B2EE041AC0EE811AB0EE610A04EB440080
:103E000000EBC40001EB4010D0ED080A70EE800A10
:103E100004EB440000EBC40001EB4010C0ED030ACA
:103E200000BF04EB440101EBC401584A02EB41110D
:103E300001F10C0003F0BFFF04EB440000EBC400F1
:103E4000524901EB401090ED081AF0EE410A04EBE4
:103E5000440000EBC40001EB401090ED031AB0EEFB
:103E6000410A04F091F8B0EE408A04EB440000EB04
:103E7000C400464901EB4010807818B1B1EE480A01
:103E8000B0EE408A04EB440000EBC4003F4901EB74
:103E9000401090ED2C0A20EE080A8DED010A04EB8B
:103EA000440000EBC40001EB401090ED2D0A3B48AC
:103EB000D0ED000A60EE200A394890ED000A08EEC5
:103EC000200A80ED000A374890ED000A3348D0ED13
:103ED000000A30EE200A334880ED000A324890EDA7
:103EE000000AB4EE408AF1EE10FA02D15FEDED8ADD
:103EF00019E004EB440000EBC400244901EB40103E
:103F0000D0ED2E0A274890ED001A80EE810A26484F
:103F1000D0ED000A78EE600A60EE208A1FEDF90A03
:103F2000204880ED000A04EB440000EBC400174970
:103F300001EB4010D0ED2F0A1C4890ED000A30EE46
:103F4000681A90ED000A00EEC10A80ED000A90EDBB
:103F5000000AF0EE408AB7EE000A01A803F093FFD2
:103F60009DED010AB0EEC00AF7EE000A30EEC00A7D
:103F7000B0EE409A0A4803F086FF0B4818E00000B4
:103F80008832002000007A4400680040082D00209C
:103F90000000B4422800002000002A432C0000202A
:103FA000340000203C0000203800002040000020A9
:103FB00080ED008A9DED010AFE48D0ED000A30EE4A
:103FC000200A30EE280A8DED000AF7EE000ABFEE57
:103FD000000A684603F030FF04EB440000EBC40025
:103FE000F54901EB401090ED550ADDED000A20EE99
:103FF000200A04EB440000EBC40001EB401080ED0C
:10400000010A04EB440000EBC40001EB401090ED0A
:10401000010AB5EEC00AF1EE10FA08DD04EB440027
:1040200000EBC40001EB401090ED010A0AE004EB44
:10403000440000EBC400E04901EB401090ED010AA0
:10404000B1EE400A04EB440000EBC400DA4901EB96
:104050004010D0ED4F0AB4EEE00AF1EE10FA27DD81
:1040600004EB440000EBC40001EB401090ED010AAA
:10407000B5EEC00AF1EE10FA02D24FF0FF3000E0C8
:10408000012000EE100AB8EEC00A04EB440000EB79
:10409000C400C94901EB4010D0ED4F0A20EE200AC0
:1040A00004EB440000EBC40001EB401080ED010A7A
:1040B00004EB440101EBC401BF4A02EB4111D1ED15
:1040C000010AB0EE600A611CC8B20021FFF74EFD84
:1040D00002B0BDEC048B10BDF8B504460E46154683
:1040E00000200090B5494988481CC11700EB916138
:1040F0008911A0EB8111B14A1288914203D10120AC
:10410000AF49C872F8BDAD494A88091D01EB0211DB
:10411000481D6A46314602F0D3FF44F0704040F437
:104120004071A6484288001D00EB02100160009813
:10413000C1B2A2484288001D00EB021001719F48E5
:104140004188001D00EB011045739C494988481CBB
:10415000C11700EB91618911A0EB8111974A518041
:1041600000BFCFE770B52DED048B044604EB44008F
:1041700000EBC400904901EB4010006904EB4401DE
:1041800001EBC4018C4A02EB4111086304EB4400CB
:1041900000EBC400114601EB4010407870B904EB0D
:1041A000440000EBC40001EB4010D0F8300104EBF8
:1041B000440101EBC40102EB4111086304EB44002C
:1041C00000EBC4007C4901EB401090F8400140B383
:1041D0007C48806D002802DD7A48806D02E07948D5
:1041E000806D404204EB440101EBC401724A02EBD2
:1041F0004111D1F84411884213DD7248806D0028C6
:1042000002DA4FF0FF3000E0012004EB440101EB43
:10421000C401694A02EB4111D1F84411484369498C
:10422000886504EB440101EBC401634A02EB4111D0
:10423000486A08F073FF41EC100B04EB440000EBFC
:10424000C4005D4901EB401080ED140B04EB440108
:1042500001EBC401584A02EB411101F1300002F0B8
:104260004BFE584890F8E00000287BD004EB440057
:1042700000EBC400504901EB401090ED121BB0EE72
:10428000410AF0EE610A9FED501B53EC112B51ECEB
:10429000100B08F0C5FF09D204EB440000EBC4008A
:1042A000454901EB401090ED120B12E004EB440085
:1042B00000EBC400404901EB401090ED121BB0EE42
:1042C000410AF0EE610A51EC100B81F0004141EC23
:1042D000100BB0EE408AF0EE608A3A4890ED3A1B3F
:1042E000B0EE410AF0EE610A53EC102B51EC180BC2
:1042F00008F096FF36D204EB440000EBC4002E49D0
:1043000001EB401090ED121BB0EE410AF0EE610A95
:104310009FED2D1B53EC112B51EC100B08F068FF97
:1043200002D24FF0FF3000E00120054608F0F6FE13
:1043300041EC180B234890ED3A1BB0EE410AF0EE29
:10434000610A53EC102B51EC180B08F006FE41ECFF
:10435000100B04EB440000EBC400174901EB4010C4
:1043600080ED120B04EB440101EBC401124A02EB95
:10437000411191F8500108F0E2FE41EC190B04EBF9
:10438000440000EBC4000C4901EB401090ED121BFF
:10439000B0EE410AF0EE610A53EC102B51EC190B10
:1043A00008F0DBFD08F0D8FE0546611CC8B200220B
:1043B00029460DE034000020082D0020846E0020E6
:1043C0001C350020902100200000000000000000AB
:1043D000FFF782FEBDEC048B70BD30B52DED028B76
:1043E00081B00446B0EE408A0D4600200090F949A5
:1043F0004988481CC11700EB91618911A0EB81111C
:10440000F44A1288914206D10120F349C87201B0E2
:10441000BDEC028B30BD9FEDF10A28EE000ABDEE27
:10442000C00A10EE101AEB4A5388121D02EB031259
:10443000501D6A4602F044FE44F0704040F4806132
:10444000E4484288001D00EB021001600098C1B2F0
:10445000E0484288001D00EB02100171DD484188F0
:10446000001D00EB01104573DA494988481CC1174B
:1044700000EB91618911A0EB8111D64A518000BFF8
:10448000C5E710B5044604EB440000EBC400D44972
:1044900001EB40104078C0B104EB440000EBC400D5
:1044A00001EB4010016904EB440000EBC400CC4A6E
:1044B00002EB4010406A091A04EB440000EBC40010
:1044C00002EB4010C0F8341119E004EB440000EB9B
:1044D000C400C34901EB4010D0F8301104EB440094
:1044E00000EBC400BE4A02EB4010406A091A04EB1C
:1044F000440000EBC40002EB4010C0F8341104EBA0
:10450000440000EBC400B64901EB4010D0F8340180
:10451000002802DA4FF0FF3000E0012004EB4401F4
:1045200001EBC401AE4A02EB4111C969002902DA6C
:104530004FF0FF3100E00121484028B19FEDA90A6A
:10454000A94880ED000A04E09FEDA80AA64880ED86
:10455000000A04EB440000EBC400A14901EB401049
:10456000D0F83401002808DD04EB440000EBC4005F
:1045700001EB4010D0F8340109E004EB440000EBFB
:10458000C400974901EB4010D0F83401404200EEDE
:10459000100AB8EEC00A9448D0ED000AB2EE041A30
:1045A00060EE810AB4EEE00AF1EE10FA29DD04EBC8
:1045B000440000EBC4008A4901EB401090ED080A6A
:1045C00004EB440000EBC40001EB4010D0F83401D0
:1045D000002802DA4FF0FF3000E0012000EE900AE0
:1045E000F8EEE00A804890ED001A00EE810A04EB34
:1045F000440000EBC4007A4901EB401080ED030A4F
:1046000025E004EB440000EBC400754901EB4010C9
:10461000D0F8340100EE900AF8EEE00AB2EE041A87
:10462000C0EE811AB0EE610A04EB440000EBC40056
:1046300001EB4010D0ED080A70EE800A04EB440054
:1046400000EBC40001EB4010C0ED030A00BF04EB17
:10465000440101EBC401624A02EB411101F10C007B
:1046600003F0A9FB04EB440101EBC4015C4A02EB3B
:104670004111D1ED030AB0EE600A611CC8B20021FD
:10468000FFF7ABFE10BD30B52DED028B81B00446B7
:10469000B0EE408A0D46002000904E494988481CE3
:1046A000C11700EB91618911A0EB8111494A128871
:1046B000914206D101204849C87201B0BDEC028B7D
:1046C00030BD9FED4B0A28EE000ABDEEC00A10EE89
:1046D000101A404A5388121D02EB0312501D6A46FD
:1046E00002F0EEFC44F070403A494A88091D01EBA3
:1046F000021108600098C1B236484288001D00EBE4
:104700000210017133484188001D00EB0110457310
:1047100030494988481CC11700EB91618911A0EB11
:1047200081112C4A518000BFC7E730B52DED028BB7
:1047300081B00446B0EE408A0D4600200090254925
:104740004988481CC11700EB91618911A0EB8111C8
:10475000204A1288914206D101201F49C87201B037
:10476000BDEC028B30BD9FED230A28EE000ABDEEA2
:10477000C00A10EE101A174A5388121D02EB0312DA
:10478000501D6A4602F09CFC44F0704040F40071F9
:1047900010484288001D00EB021001600098C1B271
:1047A0000C484288001D00EB021001710948418845
:1047B000001D00EB0110457306494988481CC117CC
:1047C00000EB91618911A0EB8111024A518000BF79
:1047D000C5E70000846E00201C35002000247449C9
:1047E000082D00200000B4422800002000002A43C9
:1047F0000050C34700007A4430B52DED028B81B0E4
:104800000446B0EE408A0D460020009024494988B5
:10481000481CC11700EB91618911A0EB8111204A5E
:104820001288914206D101201E49C87201B0BDEC28
:10483000028B30BD1FED110A28EE000ABDEEC00A42
:1048400010EE101A164A5388121D02EB0312501D67
:104850006A4602F035FC44F0704040F44061104874
:104860004288001D00EB021001600098C1B20C48A4
:104870004288001D00EB0210017109484188001DAB
:1048800000EB0110457306494988481CC11700EB2D
:1048900091618911A0EB8111014A518000BFC5E7E8
:1048A000846E00201C35002010B5082009F01EFF82
:1048B000044600206060204610BD01203149487246
:1048C000704710B5FFF7F9FFFCF7AEFEFDF778FE75
:1048D000FEF732FFFFF7E8FF2B49486010BD0022CA
:1048E0000A7803780B700270704770B506460C4664
:1048F000354600E06D6815B16868A042FAD14CB148
:1049000060686860204609F0C9FE1F480078401EB4
:104910001D49087070BD02460B46114605E0088827
:10492000984201D10846704749680029F7D1002014
:10493000F9E72DE9F041074688463C4641462046C6
:10494000FFF7E9FF08B1BDE8F081002602E06468E6
:10495000701CC6B20C480078B04201DD002CF6D1C4
:104960006CB1082009F0C2FE0546A5F80080606819
:104970006860656004480078401C0349087000BF07
:10498000E1E700001C3500204C0000201CB5404829
:10499000006840F010003E4908603D481438006847
:1049A00040F480003A4914390860012002210023B4
:1049B0000A46CDE900104FF4C061364803F058F8BC
:1049C00007220921334803F033F807220A2131482E
:1049D00003F02EF840F2D9202F4908814FF40370DC
:1049E00088810846008820F02000088003232522C3
:1049F0000121062002F08EFF4FF48070274B264ADB
:104A0000121D04210090264802F070FE01221021A0
:104A1000234804F0D2FD032346220021072002F0A0
:104A200079FF1D48808A40F080001B498882084633
:104A3000808940F4005088811CBD70B504460D4645
:104A40001848407B78B92A462146144808F09EF958
:104A50002946134804F045FD0121114804F020FDCA
:104A600001201049487370BD10B50F490C4804F07F
:104A7000C1FD01280AD10C49094804F08AFD0A4900
:104A8000074804F0E1FD00200649487310BD00000E
:104A90004438024000000240001001409C320020D7
:104AA000B86402401C350020008000281CB5F7487F
:104AB000006840F40030F5490860F4481038006898
:104AC00040F40010F1491039086001200221002350
:104AD0000A46CDE900100C21ED4802F0C9FF07227B
:104AE0000221EB4802F0A4FF07220321E84802F06C
:104AF0009FFF4FF4B670E74908800C20091D08801D
:104B0000E4480838008820F02000E249083908808D
:104B1000E048001D008840F02000DE49091D0880A3
:104B2000032326220121042002F0F4FE4FF48070BA
:104B3000D94BD84A121F04210090D84802F0D6FD64
:104B400001221021D54804F038FD03231122012150
:104B5000072002F0DFFECF480C30008840F08000D4
:104B6000CC490C310880CB48001D008840F400502F
:104B7000C849091D08801CBD10B5C949C74804F0C3
:104B800039FD01280AD1C649C44804F002FDC449D0
:104B9000C24804F059FD0020C249887310BD10B509
:104BA0002DED028B002440F22531BA48083805F07B
:104BB00028FB58B1B748083805F061FA0020BA4917
:104BC00008702021B94808F0FAF8CAE340F22551EC
:104BD000B048083805F015FB0028F6D02021AD4874
:104BE000083805F005FB40F22551AA48083805F0C1
:104BF0003FFBA848083805F042FAC4B2AA4800783A
:104C000000F0400008B3A848007800F0800020BB06
:104C1000FF2C06D1A448007840F08000A24908701B
:104C20001BE0A148007800F03F01A04844549E4892
:104C30000078401C9C4908700846007800F03F004E
:104C400028280ADD0020087007E0EE2C05D19648E0
:104C5000007840F04000944908709348007800F0D4
:104C600080000028B1D0924890F82102012804D198
:104C70008F4890F823028F4908708D4890F82302DE
:104C8000082870D2DFE800F0042E2F3056F06FEFC6
:104C9000874890F82502082821D1012080F3138845
:104CA00000BF00BF00BF00BF00BF00BFBFF34F8FFA
:104CB00000BF00BF00BF8048006800F4E0607F498B
:104CC0000843001D7C49086000BF00BF00BFBFF360
:104CD0004F8F00BF00BF00BF00BF00BFFDE700BF98
:104CE00000BF36E335E334E3714890F8250203282A
:104CF00004D0062811D0082819D114E06B48C01D33
:104D000008F062FEB0EE408AF0EE608A51EC180BBB
:104D100008F022FA6A4908600AE00120694908702F
:104D200081F8600104E001206749087000E000BFDD
:104D300000BF0EE35E4890F82502C01E1E2871D207
:104D4000DFE800F00F1E2D3E4F606871798193C639
:104D5000D670F6FDF3F2F1F0EFEEEDECEBEAE9E8F8
:104D6000E7E6002009E0F3E2002100EB800202EB1D
:104D70004012564B03F83210401C0828F4DB6DE15A
:104D80004A48C01D08F020FEB0EE408AF0EE608A6E
:104D900051EC180B08F0FFF94C4988705EE143486C
:104DA000C01D08F011FEB0EE408AF0EE608A51ECB2
:104DB000180B08F0F0F9C1B2444880F82A114DE10F
:104DC0003A48C01D08F000FEB0EE408AF0EE608A5E
:104DD00051EC180B08F0DFF9C1B23C4880F85212D0
:104DE0003CE13248C01D08F0EFFDB0EE408AF0EE25
:104DF000608A51EC180B08F0CEF9C1B2334880F844
:104E00007A132BE12948C01D08F0DEFD2F4880ED04
:104E1000040B23E12548C01D08F0D6FD2B4880ED8A
:104E20004E0B1BE119E12148C01D08F0CDFD2748BC
:104E300080ED980B12E11D48C01D08F0C5FD234808
:104E400080EDE20B0AE11948C01D08F0BDFDB0EE8F
:104E5000408AF0EE608A51EC180B08F07DF900B240
:104E60001A490881FAE072E2FAE01048C01D08F021
:104E7000ABFDB0EE408AF0EE608A51EC180B08F002
:104E80006BF901B21148A0F83011E7E04038024058
:104E90000000024008440040BC330020A0600240F3
:104EA000008020201C35002055000020BC3400204C
:104EB0009C320020540000200CED00E00000FA05B8
:104EC00048000020082D00204400002090210020F0
:104ED000F84808F079FDB0EE408AF0EE608A51ECB7
:104EE000180B08F039F901B2F348A0F85812B5E0F0
:104EF000F04808F069FDB0EE408AF0EE608A51ECAF
:104F0000180B08F029F901B2EB48A0F88013A5E0CE
:104F10009AE090E086E07DE071E065E059E04EE0E7
:104F200042E036E02AE01FE017E00FE007E0FFE78D
:104F3000E04808F049FDE04880ED3A0B8EE0DD489E
:104F400008F042FDDC4880ED840B87E0D94808F08A
:104F50003BFDD94880EDCE0B80E0D64808F034FD0B
:104F6000D64880ED3A0B79E0D54890F8280208B190
:104F7000012000E00020D04908706FE0D04890F890
:104F8000280208B1012000E00020CB4981F8280167
:104F900064E0CB4890F8280208B1012000E000202E
:104FA000C54981F8500259E0C54890F8280208B177
:104FB000012000E00020C04981F878034EE0C0489D
:104FC00090F8280208B1012000E00020BA4948709A
:104FD00044E0BB4890F8280208B1012100E000211C
:104FE000B54880F8291139E0B54890F8280208B191
:104FF000012100E00021B04880F851122EE0B048B5
:1050000090F8280208B1012100E00021AA4880F8A8
:10501000791323E0A848007818B90121A64880F840
:1050200055101BE0A44890F8280118B90121A248A6
:1050300080F87D1112E0A04890F8500218B90121C3
:105040009D4880F8A51209E09B4890F8780318B9AC
:105050000121994880F8CD1300E000BF00BF78E13E
:10506000974890F82502C01E1E2873D2DFE800F092
:105070000F1D2D3D4D5D646B737A8A9AAA72BAC179
:10508000C8CFD6E1F6EFEEEDECEBEAE9E8E7002079
:1050900008E0002100EB800202EB4012864B03F88F
:1050A0003210401C0828F4DB4FE1824808F08CFCE9
:1050B000B0EE408AF0EE608A51EC180B08F06BF805
:1050C000C1B27D4880F8A2143FE17A4808F07CFC28
:1050D000B0EE408AF0EE608A51EC180B08F05BF8F5
:1050E000C1B2754880F8CA152FE1724808F06CFC0F
:1050F000B0EE408AF0EE608A51EC180B08F04BF8E5
:10510000C1B26D4880F8F2161FE16A4808F05CFCF5
:10511000B0EE408AF0EE608A51EC180B08F03BF8D4
:10512000C1B2654880F81A180FE1624808F04CFCDB
:10513000644880ED040B08E15E4808F045FC6248D5
:1051400080ED040B01E15B4808F03EFC5F4880ED18
:10515000040BFAE0F8E0574808F036FC5C4880EDB4
:10516000040BF2E0534808F02FFCB0EE408AF0EE5A
:10517000608A51EC180B07F0EFFF01B24E48A0F81F
:10518000A814E2E04B4808F01FFCB0EE408AF0EEB5
:10519000608A51EC180B07F0DFFF01B24648A0F817
:1051A000D015D2E0434808F00FFCB0EE408AF0EE94
:1051B000608A51EC180B07F0CFFF01B23E48A0F80F
:1051C000F816C2E03B4808F0FFFBB0EE408AF0EE74
:1051D000608A51EC180B07F0BFFF01B23648A0F807
:1051E0002018B2E0334808F0EFFB364880ED3A0B68
:1051F000ABE0304808F0E8FB334880ED3A0BA4E020
:105200002C4808F0E1FB314880ED3A0B9DE029483D
:1052100008F0DAFB2E4880ED3A0B96E0284890F82B
:10522000280208B1012000E00020234981F8A004F1
:105230008BE0234890F8280258B101200AE07AE078
:1052400070E066E05CE050E044E028E01CE010E044
:1052500004E00020184981F8C80576E0184890F865
:10526000280208B1012000E00020134981F8F0066F
:105270006BE0134890F8280208B1012000E00020FC
:105280000D4981F8180860E00D4890F8280208B12F
:10529000012100E00021084880F8A11455E00848E9
:1052A00090F8280208B1012100E00021024880F8AE
:1052B000C9154AE0C33400209021002008250020B1
:1052C0009C32002030260020582700208028002013
:1052D000A8290020FE4890F8280208B1012100E02A
:1052E0000021FC4880F8F1162FE0F94890F82802D8
:1052F00008B1012100E00021F64880F8191824E0E7
:10530000F44890F8A00418B90121F24880F8F51487
:105310001BE0F04890F8C80518B90121ED4880F865
:105320001D1612E0EB4890F8F00618B90121E94883
:1053300080F8451709E0E74890F8180818B90121E6
:10534000E44880F86D1800E000BF00BF01E000E015
:1053500000BF00BF0020E04908702021DF4807F0AF
:105360002EFDBDEC028B10BD10B50446DC48807BE1
:1053700050B92146DB4804F0B4F80121D94804F0C3
:105380008FF80120D649887310BD10B50024EE2295
:105390002146641CD4484254B1222146641C425424
:1053A00010222146641C425400222146641C4254AF
:1053B0002146641C42542146641C42540522214665
:1053C000641C425401222046611CCCB2C6490A54D6
:1053D000FF222046611CCCB2C3490A54FC2220465D
:1053E000611CCCB2C0490A54FF222046611CCCB2D9
:1053F000BD490A542046611CCCB2BB490A54BB4883
:105400000078062881F07C81DFE810F07A09060038
:10541000080009006900EF0401F073B9FCE7EE220F
:105420002046611CCCB2B0490A54B1222046611C0E
:10543000CCB2AD490A5412222046611CCCB2AA4912
:105440000A5400222046611CCCB2A7490A54042207
:105450002046611CCCB2A4490A5400222046611C9B
:10546000CCB2A1490A5404222046611CCCB29E4908
:105470000A5400222046611CCCB29B490A549C4825
:1054800082689CA19C4808F077FA9B4807F0AEFC24
:10549000C2B22046611CCCB293490A5408199649FD
:1054A00007F0ABFC944807F0A1FC2044C4B2FF22F3
:1054B0002046611CCCB28C490A54FC222046611C57
:1054C000CCB289490A54FF222046611CCCB28649DD
:1054D0000A542046611CCCB283490A549CE7EE2250
:1054E0002046611CCCB280490A54B1222046611C7E
:1054F000CCB27D490A5412222046611CCCB27A49B2
:105500000A5400222046611CCCB277490A54042276
:105510002046611CCCB274490A546E488078002839
:105520007ED000222046611CCCB26F490A5404226E
:105530002046611CCCB26C490A5400222046611CF2
:10554000CCB269490A54634882786AA16A4808F073
:1055500013FA694807F04AFCC2B22046611CCCB27B
:1055600061490A540819644907F047FC624807F08A
:105570003DFC2044C4B200222046611CCCB25A49F2
:105580000A5408222046611CCCB257490A54002212
:105590002046611CCCB254490A544E4890ED0A1B77
:1055A000B0EE410AF0EE610A53EC102B51A15248C3
:1055B00008F0E2F9504807F019FCC2B22046611C1D
:1055C000CCB249490A5408194B4907F016FC4A481D
:1055D00007F00CFC2044C4B200222046611CCCB26F
:1055E00041490A540C222146601CC4B23E48425430
:1055F00000222046611CCCB23B490A543548B0F920
:1056000020203CA13C4808F0B7F93B4807F0EEFBEE
:10561000C2B22046611CCCB233490A54081900E0DA
:105620008DE0354907F0E9FB334807F0DFFB204404
:10563000C4B200222046611CCCB22B490A5411226C
:105640002046611CCCB228490A5400222046611C25
:10565000CCB225490A541F4890ED3A1BB0EE410ADE
:10566000F0EE610A53EC102B22A1234808F084F9D4
:10567000214807F0BBFBC2B22046611CCCB21A49DC
:105680000A5408191C4907F0B8FB1B4807F0AEFB89
:105690002044C4B200222046611CCCB212490A54F4
:1056A00015222046611CCCB20F490A540022204624
:1056B000611CCCB20C490A5401222046611CCCB2B8
:1056C00009490A54034802782046611CCCB215E00F
:1056D0009C3200209021002055000020BC34002086
:1056E0001C350020A0600240BC3300205400002084
:1056F000082D0020256400002B350020FE490A54A7
:1057000000222046611CCCB2FB490A5419222046D3
:10571000611CCCB2F8490A5400222046611CCCB26C
:10572000F5490A5401222046611CCCB2F2490A54C0
:10573000F24842782046611CCCB2EF490A54EF4847
:1057400090F82A0100287DD000222046611CCCB2AE
:10575000E9490A5405222046611CCCB2E6490A54A4
:1057600000222046611CCCB2E3490A54E34890F879
:105770002A21AFF28001E24808F0FEF8E04807F085
:1057800035FBC2B22046611CCCB2DB490A54081971
:10579000DB4907F032FBDA4807F028FB2044C4B2AB
:1057A00000222046611CCCB2D3490A54092220466B
:1057B000611CCCB2D0490A5400222046611CCCB2F4
:1057C000CD490A54CD4890ED541BB0EE410AF0EE9D
:1057D000610A53EC102BAFF2E401C94808F0CCF891
:1057E000C74807F003FBC2B22046611CCCB2C249D5
:1057F0000A540819C24907F000FBC14807F0F6FA3D
:105800002044C4B200222046611CCCB2BA490A54DA
:105810000D222146601CC4B2B748425400222046E3
:10582000611CCCB2B4490A54B448B0F94821AFF273
:105830003C11B34808F0A0F8B14807F0D7FAC2B25B
:10584000204600E07FE0611CCCB2AB490A54081945
:10585000AB4907F0D2FAAA4807F0C8FA2044C4B20C
:1058600000222046611CCCB2A3490A5412222046D1
:10587000611CCCB2A0490A5400222046611CCCB263
:105880009D490A549D4890ED841BB0EE410AF0EE0C
:10589000610A53EC102BAFF2A411994808F06CF890
:1058A000974807F0A3FAC2B22146601CC4B29248DE
:1058B000425401460819924907F09FFA904807F0B0
:1058C00095FA2044C4B200222146601CC4B28A4822
:1058D000425416222046611CCCB287490A54002249
:1058E0002046611CCCB284490A5401222046611C26
:1058F000CCB281490A54814890F828212046611C85
:10590000CCB27D490A5400222046611CCCB27A49AF
:105910000A541A222046611CCCB277490A5400224C
:105920002046611CCCB274490A5401222046611CF5
:10593000CCB271490A54714890F829212046611C63
:10594000CCB26D490A546D4890F8520200287DD0BF
:1059500000222046611CCCB267490A540622204628
:10596000611CCCB264490A5400222046611CCCB2AE
:1059700061490A54614890F85222AFF28821604888
:1059800007F0FAFF5E4807F031FAC2B22046611C08
:10599000CCB259490A540819594907F02EFA584807
:1059A00007F024FA2044C4B200222046611CCCB285
:1059B00051490A540A222046611CCCB24E490A546D
:1059C00000222046611CCCB24B490A544B4890ED52
:1059D0009E1BB0EE410AF0EE610A53EC102BAFF2C1
:1059E000EC21474807F0C8FF454807F0FFF9C2B26D
:1059F0002046611CCCB240490A540819404907F0BE
:105A0000FCF93F4807F0F2F92044C4B200222046D6
:105A1000611CCCB238490A540E222046611CCCB21B
:105A200035490A5400222046611CCCB232490A543E
:105A30003248B0F97022AFF24431314807F09CFF90
:105A40002F4807F0D3F9C2B2204600E085E0611C80
:105A5000CCB229490A540819294907F0CEF9284837
:105A600007F0C4F92044C4B200222046611CCCB225
:105A700021490A5413222046611CCCB21E490A5403
:105A800000222046611CCCB21B490A541B4890EDF1
:105A9000CE1BB0EE410AF0EE610A53EC102BAFF2D0
:105AA000AC31174807F068FF154807F09FF9C2B2FC
:105AB0002046611CCCB210490A540819104907F05D
:105AC0009CF90F4807F092F92044C4B20022204606
:105AD000611CCCB208490A5417222046611CCCB282
