:020000040800F2
:1000000070B30020818A0008898A00088B8A000862
:100010008D8A00088F8A0008918A0008000000007D
:10002000000000000000000000000000938A0008AB
:10003000958A00080000000077B00008DBB20008D5
:100040009B8A00089B8A00089B8A00089B8A0008FC
:100050009B8A00089B8A00089B8A00089B8A0008EC
:100060009B8A00089B8A00089B8A00089B8A0008DC
:100070009B8A00089B8A00089B8A00089B8A0008CC
:100080009B8A00082D3E00089B8A00089B8A000876
:10009000B70500089B8A00089B8A00089B8A000815
:1000A0009B8A00089B8A00089B8A00089B8A00089C
:1000B000E10F0008E71300089B8A00089B8A0008EC
:1000C0009B8A00089B8A00089B8A00089B8A00087C
:1000D0009B8A00089B8A0008533E00089B8A000800
:1000E0009B8A00089B8A00089B8A00089B8A00085C
:1000F0009B8A00089B8A00089B8A00089B8A00084C
:100100009B8A00089B8A00089B8A00089B8A00083B
:100110009B8A00089B8A00089B8A00089B8A00082B
:100120009B8A00089B8A00089B8A00089B8A00081B
:100130009B8A00089B8A00089B8A00089B8A00080B
:10014000AD0900084B0B00089B8A00089B8A000839
:100150009B8A00089B8A00081D3D00089B8A0008B6
:100160009B8A00089B8A00089B8A00089B8A0008DB
:100170009B8A00089B8A00089B8A00089B8A0008CB
:100180009B8A00089B8A0008DFF80CD00BF05AFB12
:10019000004800476503000870B3002030BF72B606
:1001A000704762B6704780F30888704709E0002303
:1001B0001A461946184606F0B8FB4FF496700AF036
:1001C00063FEF4E700BF8A4806F03AFA05200AF019
:1001D0005BFE874806F034FA05200AF055FE844895
:1001E00006F02EFA05200AF04FFE2EE08148007836
:1001F00038B3814890F8040118B380480068414240
:100200007F4881607D48006841427D48C0F8941075
:1002100044F620600AF038FE7748B0F8D40000F5C4
:10022000B47001B27448A0F8D4100020714908706D
:1002300044F620600AF028FE002171488160C0F871
:1002400094104FF4FA700AF01FFECFE74BE006F06F
:10025000C4F86C48007810B906F03BF93FE0102074
:1002600069494883674840684468002533E020783E
:1002700000F00F0060B98020634908832078C0F344
:100280000311402006F05FF920205F49488311E008
:10029000207800F00F01802006F055F92078C0F397
:1002A0000311402006F04FF92088C0F303212020DD
:1002B00006F049F964684FF47A700AF0E5FD4020D1
:1002C00051490883802008832020088341F2707000
:1002D0000AF0DAFD6D1C4B480078A842C7DC4FF4E9
:1002E0007A700AF0D1FDB2E705E004F038FA4FF475
:1002F0007A700AF0C9FDF8E770B50446002500BF22
:100300000BF001F80AF096FE054600200AF02BF8E3
:100310003E49086019233E4A00213E480AF06EFA21
:100320001E233D4A00213D480AF068FA28233C4A32
:1003300000213C480AF062FA37233B4A00213B483F
:100340000AF05CFA64200AF09FFD002006F029F90B
:10035000022006F05CF905200AF0CEFC28460AF0DF
:100360006DFE70BD10B540F6B83005F064FF08F0C2
:10037000EDFA4FF4806101F007022D4B18684FF63B
:10038000FF0318402B4B034343EA0220284B18601D
:1003900000BF2948006840F007002749086006F0C0
:1003A0008DF806F029F906F0E5F805F05FFF00F09A
:1003B0004BF800F053F903F043FC03F0D1FC00F0DC
:1003C000DFFF00F0E5FD03F0D6FB05F046FB022160
:1003D0001A4805F005FC08F09DFC0523184A002189
:1003E00018480AF00BFA08F0BCFD002010BD000010
:1003F000006400402C00002040210020300000203C
:10040000A829002034000020000002400000002045
:10041000CC0C0020E9020008CC0E00204D020008A0
:10042000CC1E0020C5010008CC200020AD01000832
:100430000CED00E00000FA053038024028470020AB
:10044000CC040020F902000800B58BB00121480659
:1004500007F0F5FE0121084607F0BEFE09220B2138
:100460007B4807F0FEFC09220C21794807F0F9FCD3
:1004700002208DF81C004FF4C050069006A9744865
:1004800007F064FC00208DF826008DF827008DF819
:1004900028008DF829008DF82A008DF82B008DF8A2
:1004A00022008DF8230008208DF8240003208DF809
:1004B0002500ADF8200008A9664806F026FD0220B8
:1004C0008DF8120001208DF8130000208DF8140023
:1004D00046F22000ADF8080046F24000ADF80A00F0
:1004E00046F26000ADF80C004FF4C140ADF80E00CC
:1004F0000020ADF8100001208DF8150002A806F0CC
:100500008EFD04208DF8120001208DF813000020CC
:100510008DF8140046F2A000ADF8080046F2C000C5
:10052000ADF80A0046F2E000ADF80C004FF4C2400E
:10053000ADF80E000020ADF8100001208DF8150078
:1005400002A806F06CFD05208DF8120001208DF840
:10055000130000208DF8140046F22010ADF80800BA
:100560004FF4C440ADF80A004FF4C840ADF80C0099
:1005700046F22040ADF80E000020ADF8100001203A
:100580008DF8150002A806F04AFD14208DF804002D
:1005900003208DF8050000208DF8060001208DF85D
:1005A000070001A806F02DFC01220221294807F0CE
:1005B00035F80BB000BD00B585B00221254807F025
:1005C00095F878B10221234807F02BF90221214840
:1005D00007F069F86A4600211E4806F004FF032070
:1005E0001D49887005B000BD10B586B004461A4894
:1005F000807800F0010048B11748807800F00200D0
:1006000020B91548807800F00400F0B9207A28B9A4
:1006100000208DF80C0020688038019000208DF8B3
:100620000D00A07A8DF80E00A27A04F10B010DF1F5
:100630000F000AF09BFE9DF80F004030C0B28DF80D
:100640000F0001A9034806F0D9FD06B010BD000057
:1006500000000240006400404C00002000B58BB058
:100660000121880607F0EBFD09220521FE4807F06D
:10067000F8FB09220621FC4807F0F3FB02208DF865
:1006800018006020059005A9F74807F05FFB40209F
:100690008DF8280002208DF8290000208DF82A000E
:1006A00001208DF82B000AA806F0ABFB41208DF845
:1006B000280002208DF8290001208DF82A008DF8ED
:1006C0002B000AA806F09DFB00208DF822008DF873
:1006D00023008DF824008DF825008DF826008DF874
:1006E00027008DF81E008DF81F0008208DF82000CF
:1006F00003208DF82100ADF81C0007A9DB4806F0A7
:1007000004FC0E208DF80E0001208DF80F00002053
:100710008DF8100044F22000ADF8040044F24000CF
:10072000ADF8060044F26000ADF808004FF48140D7
:10073000ADF80A000020ADF80C0001208DF8110082
:1007400001A806F06CFC0F208DF80E0001208DF83A
:100750000F0000208DF8100044F2A000ADF8040056
:1007600044F2C000ADF8060044F2E000ADF8080025
:100770004FF48240ADF80A000020ADF80C000120D3
:100780008DF8110001A806F04AFC10208DF80E002B
:1007900001208DF80F0000208DF8100045F2200098
:1007A000ADF8040045F24000ADF8060045F26000E7
:1007B000ADF808004FF4A140ADF80A000120ADF8F3
:1007C0000C008DF8110001A806F029FC11208DF80D
:1007D0000E0001208DF80F0000208DF8100045F26A
:1007E000A000ADF8040045F2C000ADF8060045F2E7
:1007F000E000ADF808004FF4A240ADF80A00012077
:10080000ADF80C008DF8110001A806F008FC1220CC
:100810008DF80E0001208DF80F0000208DF81000DB
:1008200043F22000ADF804004FF44150ADF806004B
:1008300043F26000ADF808004FF44250ADF80A00F2
:100840000120ADF80C008DF8110001A806F0E7FBBF
:1008500013208DF80E0001208DF80F0000208DF878
:10086000100043F2A000ADF804004FF44350ADF87F
:10087000060043F2E000ADF808004FF44450ADF834
:100880000A000120ADF80C008DF8110001A806F057
:10089000C6FB14208DF80E0000208DF80F000120FB
:1008A0008DF810000020ADF804004FF49040ADF832
:1008B00006004FF6FF70ADF808004FF47840ADF831
:1008C0000A000120ADF80C008DF8110001A806F017
:1008D000A6FB15208DF80E0001208DF80F000020DA
:1008E0008DF810004BF22000ADF804004BF24000F0
:1008F000ADF806004BF28000ADF80800ADF80A0034
:100900000120ADF80C008DF8110001A806F087FB5E
:1009100016208DF80E0001208DF80F0000208DF8B4
:1009200010004FF48150ADF804004FF48250ADF840
:1009300006004FF48350ADF808004FF48450ADF832
:100940000A000120ADF80C008DF8110001A806F096
:1009500066FB17208DF80E0001208DF80F00002097
:100960008DF810004FF48550ADF804004FF4865018
:10097000ADF806004FF48750ADF808004FF48850EA
:10098000ADF80A000120ADF80C008DF8110001A8A7
:1009900006F045FB01220221344806F03FFE012209
:1009A0001021324806F03AFE0BB000BD10B52DED17
:1009B0000C8B86B002212D4806F098FE00287DD0D1
:1009C00001AA0021294806F00EFD0221274806F061
:1009D00028FF0198B0F5007F71D90198B0F5027F2A
:1009E0006DD89DF80D00002869D10198401EC4B251
:1009F00004A9481E03F0CDF80DF11201481E03F0C2
:100A0000C8F805A9481E03F0C4F8BDF80F1004EBA0
:100A1000840000EBC400164A02EB00100184BDF80C
:100A2000111004EB840000EBC40002EB0010018302
:100A3000BDF8131004EB840000EBC40002EB0010BF
:100A4000C18204EB840101EBC40102EB0111B1F896
:100A5000C0000AF0B1FD41EC1A0B04EB840101EB7C
:100A6000C401034A06E000000004024000680040A0
:100A70004021002002EB011191F8C2000AF09CFD18
:100A800041EC1C0B04EB840000EBC400FC4A02EBBD
:100A90000010C06900EE100AB8EEC00ADFEDF90AD6
:100AA00020EE200A10EE101A08460AF0CAFD53EC98
:100AB0001C2B0AF001FD53EC1A2B01E02FE02DE076
:100AC0000AF0FAFC41EC190B04EB840000EBC400C3
:100AD000EB4901EB001090ED321BB0EE410AF0EE55
:100AE000610A53EC102B51EC190B0AF0E5FC0AF0EB
:100AF00070FD00B204EB840101EBC401E04A02EB9B
:100B0000011188820AF070FA04EB840101EBC40140
:100B1000DB4A02EB0111C1F8B80000BF00BF06B00C
:100B2000BDEC0C8B10BD4168491C41600021017374
:100B30000169491E0161828A511CCA1701EB926248
:100B40009211A1EB82128282704710B586B01021FB
:100B5000CD4806F0CBFD00287DD001AA0121CA486E
:100B600006F041FC1021C84806F05BFE1021C64883
:100B700006F099FD9DF80C0004286DD19DF80D003C
:100B80000028FAD10090029800F0FE040921029892
:100B9000B1EB102F7DD16946B7EE000A0DF10F00C1
:100BA00005F029FB0298C0B2C0EBC00000EB80004A
:100BB000B64901EB800090F8880000EE900AF8EE4C
:100BC000600A80EE201ABDEEC10A10EE100AC4EBD6
:100BD000C40101EB8101AD4A02EB8101C8616946A4
:100BE0009FEDAB0A0DF10F0005F015FBBDEEC00A3D
:100BF00010EE100A00B2C4EBC40101EB8101A34A5C
:100C000002EB810108836946B2EE040A0DF10F0080
:100C100005F001FBC4EBC40000EB80009B4901EB35
:100C2000800080ED080A0DF11601481E02F0B1FFA8
:100C3000BDF81510C4EBC40000EB8000934A02EB32
:100C40008000A0F86610C4EBC40000EB80001146E1
:100C500001EB800001E0D8E0D6E0B0F86610C4EB0C
:100C6000C40000EB800002EB8000B0F86800081AB6
:100C700001B2C4EBC40000EB800002EB8000A0F8DE
:100C80006210C4EBC40000EB8000114601EB800051
:100C900000E0AEE090F8640080B10021C4EBC40035
:100CA00000EB800002EB800080F86410C4EBC4000D
:100CB00000EB800002EB8000A0F86210C4EBC400DF
:100CC00000EB8000714901EB8000B0F86610C4EBC6
:100CD000C40000EB80006D4A02EB8000A0F86810B1
:100CE000C4EBC40000EB8000114601EB8000B0F9BA
:100CF0006200002808DDC4EBC40000EB800001EBBB
:100D00008000B0F9620009E0C4EBC40000EB800091
:100D10005E4901EB8000B0F962004042B0F5E16F3E
:100D200027DDC4EBC40000EB8000584901EB8000D4
:100D3000B0F96210C4EBC40000EB8000534A02EB30
:100D40008000B0F96200002802DA4FF0FF3000E0C6
:100D50000120C0EB4012C2EB0020A1EB001001B259
:100D6000C4EBC40000EB8000484A02EB8000A0F80E
:100D70006210C4EBC40000EB8000444901EB80002A
:100D8000416AC4EBC40000EB8000404A02EB8000E3
:100D9000B0F962000144C4EBC40000EB800002EB38
:100DA00080004162C4EBC40000EB8000114601EBFF
:100DB00080004078E8B1C4EBC40000EB800001EB98
:100DC000800090ED080AC4EBC40000EB800001EB4A
:100DD000800080ED1B0AC4EBC40000EB800001EB37
:100DE0008000416AC4EBC40000EB800002EB80008D
:100DF00001670AF0F9F8C4EBC40101EB8101234A51
:100E000002EB8101C86500BF00BF06B010BD70B520
:100E1000044604EB840000EBC400194901EB001008
:100E2000B0F90600002808DD04EB840000EBC400E4
:100E300001EB0010B0F9060009E004EB840000EBC0
:100E4000C4000F4901EB0010B0F90600404204EB6A
:100E5000840101EBC4010A4A02EB0111B1F8C4108C
:100E600088422ADD04EB840000EBC400114601EB4C
:100E70000010B0F9060000280CDA4FF0FF300AE04D
:100E8000402100200000B44300680040A829002051
:100E900000007A44012004EB840101EBC401374ACD
:100EA00002EB0111B1F8C410484301B204EB840015
:100EB00000EBC40002EB0010C18004EB840000EBE7
:100EC000C4002E4901EB0010007840B9002104EB6A
:100ED000840000EBC400294A02EB0010C180042CFE
:100EE00004DA4FF400702649086003E040F2FF1076
:100EF000234908600020224948720872082088723D
:100F000004F00B00450004EB840000EBC4001B4917
:100F100001EB0010C1881A480B30415302466B1C8C
:100F2000D118501902F035FE032C01D0072C03D143
:100F30001349144806F062F970BD30B585B0054616
:100F40000C461148019000208DF8090004208DF80E
:100F5000080003208DF80A0056208DF80B004C2164
:100F60008DF80C108DF80D408DF80E50694605482F
:100F700006F044F90548447005B030BD402100201A
:100F8000D02000200068004001010300582E0020FE
:100F900010B5F548006840F00100F349086041F6DB
:100FA00057300906C8620B2008850846008840F4BF
:100FB000807008800846008A20F0010008820846F8
:100FC000808940F0010088810846008840F00100D7
:100FD000088003231C220121084605F0F9FC10BDFE
:100FE00070B54FF08040008A00F0010000287AD0F0
:100FF000002430E1C4EBC40101EB8101DB4A02EBC8
:10100000810002F0B3FBC4EBC40000EB8000D749C1
:1010100011F82000002867D0C4EBC40000EB80006A
:1010200001EB8000407800287ED0C4EBC40000EBC8
:10103000800001EB8000807806287BD2DFE800F09A
:10104000180329427A55C4EBC40101EB8101C74A58
:1010500002EB8101B1F9041000EE901AF8EEE00AFB
:10106000B0EE600A611CC8B2002102F075FC62E0BB
:10107000C4EBC40101EB8101BC4A02EB8101D1ED5B
:10108000050AB0EE600A611CC8B2002102F0B7FB8D
:1010900051E0C4EBC40202EB8202B44B03EB8202C8
:1010A0009268C4EBC40303EB8303B04D05EB8303E9
:1010B00093F8883002FB03F1621CD0B2002202F0E8
:1010C000F0FB38E0C4EBC40101EB8101A74A02EB5D
:1010D0008101D1ED1D0AB0EE600A611CC8B2002189
:1010E00002F08EFC27E0B9E037E0C4EBC40101EB6D
:1010F00081019E4A02EB810002F040FBC4EBC40276
:1011000002EB8202994B03EB82029268C4EBC403A8
:1011100003EB8303954D05EB830393F8883002FBC3
:1011200003F1621CD0B201E006E003E0002202F00D
:10113000B8FB00E000BF17E0C4EBC40101EB810184
:101140008A4A02EB8101D1ED1D0AB0EE600A611CF2
:10115000C8B2002102F054FC06E0611CC8B20021B4
:101160009FED830A02F0F8FBC4EBC40000EB8000A3
:101170007E4911F8200038B309F036FFC4EBC401F2
:1011800001EB8101794A02EB8101C96D411AC4EB7F
:10119000C40000EB800002EB8000B0F860008142E8
:1011A00012D9C4EBC40000EB8000114601EB8000B3
:1011B00090F85800401CC4EBC40101EB810102EB24
:1011C000810181F8580009E00020C4EBC40101EB63
:1011D0008101664A02EB810181F85800C4EBC4002A
:1011E00000EB8000614901EB800090F858000A286C
:1011F00015DD0121C4EBC40000EB80005B4A02EB6B
:10120000800080F82D10621C032343EA021292B280
:1012100042F48071574A506802F0E5FC1AE0002160
:10122000C4EBC40000EB8000504A02EB800080F861
:101230002D10621C032343EA021292B242F4807121
:101240004C4A506802F0C1FC05464A4948682946A4
:1012500002F0A5FC641C042CFFF6CCAE4FF08040DD
:10126000008A20F001004FF08041088270BD70B507
:1012700041490878411C404A1170032807DD0020CD
:101280001146087000220121104601F0B7FD00242C
:1012900064E004EB8400394901EB0010407800B3AE
:1012A00009F0A2FE04EB8401344A02EB0111096C3F
:1012B000411A04EB840002EB0010B0F844008142B4
:1012C0000FD904EB8400114601EB001090F83C00AC
:1012D000401CC1B204EB840002EB001080F83C100B
:1012E00007E0002104EB8400244A02EB001080F8A0
:1012F0003C1004EB8400214901EB001090F83C0005
:101300000A2812DD012104EB84001C4A02EB0010C4
:10131000C177621C022343EA021292B242F4807146
:10132000144A506802F05FFC17E0002104EB8400CF
:10133000124A02EB0010C177621C022343EA021238
:1013400092B242F480710B4A506802F03EFC0546AE
:1013500008494868294602F022FC641C042C98DBEA
:1013600070BD70477047704740380240A829002080
:10137000000000003400002004000020E8270020C6
:1013800010B54648006840F002004449086042F247
:101390002730434908600720091F088040482C383F
:1013A000008840F480703E492C3908803C481C3845
:1013B000008820F001003A491C390880081F008885
:1013C00040F00100091F088035482C38008840F0A3
:1013D000010033492C39088003231D2200210120FC
:1013E00005F0F6FA10BD10B52D481C38008800F045
:1013F0000100002848D000F0A2FD002436E004EBF4
:10140000840000EBC400274901EB0010007828B3EA
:1014100004EB840000EBC40001EB00104078F0B155
:1014200004EB840000EBC40001EB0010807801287D
:1014300006D0022805D004280BD005280DD104E0E1
:101440000CE020B200F06CFA08E020B200F0C1FA23
:1014500004E020B200F083FC00E000BF02E020B214
:1014600000F0B7FAE0B2FFF7D2FC641C082CC6DB30
:101470000D490E4804F0F9FA0D48407A20B10222D5
:1014800009490C4804F0FCFB05481C38008820F092
:10149000010003491C39088010BD0000403802409B
:1014A0002C04004040210020C0670020006800405C
:1014B000582E00202847002070B52DED0E8B00BF60
:1014C0004FF40050FE490880FE4908802420FC4962
:1014D00088701320FB49887042F22830F8498880D0
:1014E00043F69910F74988809FEDF70BF44880ED9B
:1014F000020B9FEDF50B084680ED020B0120F4492D
:1015000008724FF47A7048810020087308709FEDCC
:10151000F10A084680ED010A4FF4FA70C8814000D4
:1015200008824000EC498883002404EB840000EB2F
:10153000C400EA4901EB00108030E24D2ECD40306E
:101540002EC0002004EB840101EBC401E34A02EB4E
:1015500001110870012004EB840101EBC40102EBCE
:1015600001114870042004EB840101EBC40102EB7B
:10157000011188704FF2542004EB840101EBC40187
:1015800002EB01118880642104EB840000EBC400AD
:1015900002EB0010018104EB840000EBC40002EBBD
:1015A0000010C180D16804EB840202EBC402CB4B73
:1015B00003EB021202F13C00DFEDC91A9FEDC91ADC
:1015C000DFEDC90AB1EE040A04F078FDC34AB2F9AE
:1015D000081004EB840202EBC402C04B03EB0212BE
:1015E00002F16400F7EE001A9FEDBE1ADFEDBF0AAC
:1015F000B2EE000A04F062FD04EB840101EBC401C9
:10160000B64A02EB011101F18C001422B04909F035
:10161000ADFE012404EB840000EBC400AF4901EBF4
:1016200000108030A74D2ECD40302EC0002004EB9E
:10163000840101EBC401A94A02EB011108700120E9
:1016400004EB840101EBC40102EB01114870052099
:1016500004EB840101EBC40102EB0111887000204E
:1016600004EB840101EBC40102EB011188804FF40B
:101670007A7104EB840000EBC40002EB00100181DE
:10168000642104EB840000EBC40002EB0010C18075
:10169000D16804EB840202EBC402904B03EB02120C
:1016A00002F13C00DFED8E1A9FED8E1ADFED8E0AFF
:1016B000B1EE040A04F002FD884AB2F9081004EB06
:1016C000840202EBC402854B03EB021202F16400B8
:1016D000F7EE001A9FED831ADFED840AB2EE000ADE
:1016E00004F0ECFC04EB840101EBC4017B4A02EB47
:1016F000011101F18C001422754909F037FE002513
:1017000001E105EB850000EBC500744901EB001019
:1017100071490968C0F8A0106F48416805EB850061
:1017200000EBC5006D4A02EB0010C0F8A41005EBF9
:10173000850101EBC50102EB011101F1A8000A22AC
:101740006549083109F012FE6348418A05EB8500BE
:1017500000EBC500614A02EB0010A0F8B21005EBE7
:10176000850000EBC500114601EB0010A0305A4B7C
:1017700059699A69DB6914300EC005EB850101EBEC
:10178000C501564A02EB0111B1F8C00009F014FF7F
:1017900041EC1A0B05EB850101EBC5014F4A02EB49
:1017A000011191F8C20009F007FF41EC1C0B05EB99
:1017B000850000EBC500494A02EB001090ED240AB9
:1017C00010EE101A084609F03CFF41EC1E0B05EB29
:1017D000850000EBC500414901EB001090ED321B84
:1017E000B0EE410AF0EE610A53EC102B51EC1E0BE7
:1017F00009F0F0FD53EC1C2B09F0ECFD53EC1A2B17
:1018000009F0E8FD9FED3A0B53EC102B09F054FE64
:1018100009F0FEFE05EB850101EBC5012F4A02EB45
:101820000111C1F8A00005EB850101EBC50102EB38
:101830000111B1F8C00009F0BFFE41EC1A0B05EB35
:10184000850101EBC501254A02EB011191F8C200A7
:1018500009F0B2FE41EC1C0B05EB850101EBC50163
:101860001E4A02EB0111B1F9040009F094FE41ECAB
:101870001E0B05EB850000EBC500184901EB0010BD
:1018800090ED321BB0EE410AF0EE610A53EC102BE2
:1018900051EC1E0B09F09EFD53EC1C2B09F09AFD38
:1018A00053EC1A2B09F096FD9FED110B53EC102B06
:1018B00009F002FE09F08DFE05EB85011CE0000039
:1018C000E8200020F8200020000000000000F03F89
:1018D000082100200000FA431C21002040210020A4
:1018E000CDCCCC3E00000000CDCC4C3E9A99993E28
:1018F000000000000080764001EBC501FE4A02EBCB
:101900000111C8606D1C082DFFF6FBAEBDEC0E8BFF
:1019100070BD002239210A54C261002181827047C2
:1019200010B5044604EB840000EBC400F24901EB5F
:101930000010D0ED1D0A04EB840000EBC40001EBA5
:101940000010B0F9080000EE100AB8EEC00A20EE50
:10195000800ABDEEC00A10EE100A04EB840101EB10
:10196000C401E54A02EB0111486604EB840000EB78
:10197000C400114601EB0010B0F9181004EB84000C
:1019800000EBC40002EB0010C16704EB840101EB23
:10199000C40102EB011101F1640004F09FFB04EBB0
:1019A000840000EBC400D44901EB0010C18804EBB3
:1019B000840000EBC400D04A02EB0010806F0844A2
:1019C00001B204EB840000EBC40002EB0010C18004
:1019D00010BD10B52DED0E8B044604EB840101EB18
:1019E000C401C54A02EB0111B1F8C00009F0E4FDE1
:1019F00041EC1A0B04EB840101EBC401BE4A02EB7B
:101A0000011191F8C20009F0D7FD41EC1C0B04EB69
:101A1000840101EBC401B84A02EB0111B1F90400E1
:101A200009F0B9FD41EC1E0B04EB840000EBC4008F
:101A3000B14901EB001090ED321BB0EE410AF0EE1F
:101A4000610A53EC102B51EC1E0B09F0C3FC53EC54
:101A50001C2B09F0BFFC53EC1A2B09F0BBFC1FED4B
:101A60005C0B53EC102B09F027FD09F0B2FD04EBE1
:101A7000840101EBC401A04A02EB0111C86004EB30
:101A8000840000EBC400114601EB0010C06804EBB9
:101A9000840101EBC40102EB0111C86304EB840073
:101AA00000EBC400114601EB0010407870B904EB64
:101AB000840000EBC40001EB0010D0F8A40004EB9C
:101AC000840101EBC40102EB0111C86304EB840043
:101AD00000EBC400884901EB001090F88C0088B33B
:101AE00004EB840000EBC40001EB0010C06B002885
:101AF00007DD04EB840000EBC40001EB0010C06BB9
:101B000008E004EB840000EBC4007B4901EB00100B
:101B1000C06B404204EB840101EBC401764A02EB46
:101B20000111D1F8A01088421FD904EB840000EB0A
:101B3000C400114601EB0010C06B002803DA4FF01F
:101B4000FF3001E011E0012004EB840101EBC4014E
:101B5000694A02EB0111D1F8A010484304EB84015B
:101B600001EBC40102EB0111C86304EB840000EB3C
:101B7000C400614901EB0010C16904EB840000EB73
:101B8000C4005D4A02EB0010416504EB840101EBE7
:101B9000C40102EB011101F13C0004F09FFA04EBD7
:101BA000840000EBC400544901EB0010D0ED130A8F
:101BB00004EB840000EBC40001EB0010006D00EEAC
:101BC000100AB8EEC00A20EE800ABDEEC00A10EE80
:101BD000100A04EB840101EBC401474A02EB011136
:101BE000486604EB840000EBC400114601EB0010D2
:101BF00090F8940088B304EB840000EBC40001EB80
:101C00000010406E002807DD04EB840000EBC400E8
:101C100001EB0010406E08E004EB840000EBC40010
:101C2000354901EB0010406E404204EB840101EBAA
:101C3000C401314A02EB0111B1F8961088421FDD50
:101C400004EB840000EBC400114601EB0010406E71
:101C5000002803DA4FF0FF3001E011E0012004EB2F
:101C6000840101EBC401244A02EB0111B1F8961082
:101C7000484304EB840101EBC40102EB0111486607
:101C800004EB840000EBC4001B4901EB0010B0F929
:101C9000181004EB840000EBC400174A02EB00109C
:101CA000C16704EB840101EBC40102EB011101F1F6
:101CB000640004F013FA04EB840000EBC4000E4946
:101CC00001EB0010C18804EB840000EBC4000A4A59
:101CD00002EB0010806F084401B204EB840000EBBB
:101CE000C40002EB0010C18004EB840000EBC400D0
:101CF000114601EB001001E040210020D0F8AC00BB
:101D0000002808DD04EB840000EBC40001EB0010A8
:101D1000D0F8AC0009E004EB840000EBC400FE49FD
:101D200001EB0010D0F8AC0040423C280ADA012058
:101D300004EB840101EBC401F74A02EB011181F8C5
:101D4000340009E0002004EB840101EBC401F24AF5
:101D500002EB011181F83400BDEC0E8B10BD10B503
:101D6000044604EB840000EBC400EB4901EB0010D7
:101D7000B0F99A0004EB840101EBC401E64A02EBDE
:101D80000111486604EB840000EBC400114601EB2E
:101D90000010B0F9181004EB840000EBC40002EB53
:101DA0000010C16704EB840101EBC40102EB0111D7
:101DB00001F1640004F092F904EB840000EBC4002C
:101DC000D54901EB0010C18804EB840000EBC4008E
:101DD000D14A02EB0010806F084401B204EB84008A
:101DE00000EBC40002EB0010C18004EB840000EBA8
:101DF000C400114601EB0010B0F90600002808DD10
:101E000004EB840000EBC40001EB0010B0F9060005
:101E100009E004EB840000EBC400BF4901EB0010B3
:101E2000B0F906004042BD49098A88421ADD04EB38
:101E3000840000EBC400B84901EB0010B0F90600C3
:101E4000002802DA4FF0FF3000E00120B349098A90
:101E5000484301B204EB840000EBC400AE4A02EB3D
:101E60000010C18004EB840000EBC400AA4901EB20
:101E70000010B0F9A800002808DD04EB840000EB96
:101E8000C40001EB0010B0F9A80009E004EB8400E5
:101E900000EBC400A04901EB0010B0F9A8004042DB
:101EA000322814DA04EB840000EBC4009A4901EBF9
:101EB0000010B0F8B000401C81B204EB840000EBCD
:101EC000C400954A02EB0010A0F8B01009E0002110
:101ED00004EB840000EBC4008F4A02EB0010A0F872
:101EE000B01004EB840000EBC4008B4901EB001040
:101EF000B0F8B000FA2821DD002104EB840000EBEB
:101F0000C400854A02EB0010A0F8B01004EB840076
:101F100000EBC40002EB0010C161052004EB84015A
:101F200001EBC40102EB01118870012104EB840074
:101F300000EBC40002EB001080F8351010BD70B546
:101F400000241DE204EB840000EBC400724901EBA5
:101F50000010018C04EB840000EBC4006E4A02EB1D
:101F60000010008E081A01B204EB840000EBC400DC
:101F700002EB0010A0F8A81004EB840000EBC400F2
:101F8000114601EB0010808A04EB840101EBC401CF
:101F900002EB0111888404EB840000EBC4001146BD
:101FA00001EB0010C18A04EB840000EBC40002EBDB
:101FB0000010C18404EB840000EBC400114601EB67
:101FC0000010018B04EB840000EBC40002EB001056
:101FD000018504EB840000EBC400114601EB001006
:101FE000C16904EB840000EBC40002EB0010C16285
:101FF00004EB840000EBC400114601EB0010018CDF
:1020000004EB840000EBC40002EB0010018604EB3B
:10201000840000EBC400114601EB0010B0F9A800E9
:10202000002808DD04EB840000EBC40001EB001085
:10203000B0F9A80009E004EB840000EBC4003649C5
:1020400001EB0010B0F9A8004042B0F57A6F2CDD2A
:1020500004EB840000EBC4002F4901EB0010B0F941
:10206000A81004EB840000EBC4002B4A02EB001024
:10207000B0F9A800002802DA4FF0FF3000E001209C
:1020800004EB840202EBC402234B03EB0212B2F80E
:10209000C02000FB121001B204EB840000EBC4006E
:1020A0001A4602EB0010A0F8A81004EB840000EB25
:1020B000C400194901EB0010C16904EB840000EB76
:1020C000C400154A02EB0010B0F9A800014404EB6B
:1020D000840000EBC40002EB0010C16104EB84003B
:1020E00000EBC400114601EB0010C16904EB840051
:1020F00000EBC40002EB0010C068091A04EB840076
:1021000000EBC40002EB0010C0F8AC1004EB84003C
:1021100000EBC400114603E040210020082100200C
:1021200001EB00100078002876D004EB840000EB6F
:10213000C40001EB0010B0F9061004EB840000EBC2
:10214000C40002EB0010B0F8C400081A002812DD29
:1021500004EB840000EBC400114601EB0010B0F961
:10216000061004EB840000EBC40002EB0010B0F892
:10217000C400081A12E004EB840000EBC40082499A
:1021800001EB0010B0F8C41004EB840000EBC400B5
:102190007D4A02EB0010B0F90600081A322847DD2C
:1021A00004EB840000EBC400774901EB0010B0F8A9
:1021B000B200401C81B204EB840000EBC400724A00
:1021C00002EB0010A0F8B21004EB840000EBC40096
:1021D000114601EB0010B0F8B200B0F57A7F1CDDBB
:1021E000012104EB840000EBC40002EB001080F836
:1021F000361004EB840000EBC400114601EB001024
:1022000090F89800F0B1002004EB840101EBC401C8
:1022100002EB0111087015E00AE0002104EB8400D4
:1022200000EBC400584A02EB001080F8361009E0B9
:10223000002104EB840000EBC400534A02EB0010C1
:10224000A0F8B21004EB840000EBC4004E4901EB8F
:102250000010407878B104EB840000EBC40001EB7F
:102260000010C16904EB840000EBC400464A02EB95
:102270000010C0F8A41004EB840000EBC400424935
:1022800001EB001090F8390040B104EB840101EB40
:10229000C4013D4A02EB0110FFF73BFB04EB840055
:1022A00000EBC400384901EB00100078E8B308F0F7
:1022B0009BFE04EB840101EBC401334A02EB0111E4
:1022C000D1F8B810411A04EB840000EBC40002EB13
:1022D0000010B0F8BC00814236D904EB840000EB5A
:1022E000C400114601EB001090F8B400401CC1B2CC
:1022F00004EB840000EBC40002EB001080F8B41083
:102300000A2916DD012104EB840000EBC40002EB76
:10231000001080F83710621C012343EA021292B2C7
:1023200042F48071194A506800E00DE001F05BFC56
:1023300025E0002104EB840000EBC400124A02EB0C
:10234000001080F837101AE0002104EB840000EB45
:10235000C4000D4A02EB001080F8B410621C012387
:1023600043EA021292B242F48071084A506801F0C6
:102370002CFC054605494868294601F010FC641C00
:10238000082CFFF6DFAD70BD402100203400002096
:1023900010B54FF48040FC490880B7EE000A0846AB
:1023A00080ED010A4FF48040F8490880B7EE000A3A
:1023B000084680ED010A4FF47A60F54908809FEDE8
:1023C000F50A084680ED010A4FF47A60F249088068
:1023D0009FEDF20A084680ED010A0020F0490870DE
:1023E0009FEDF00A084680ED010A002008724FF4C4
:1023F0007A704881002008734FF4FA70C881400059
:1024000008824000E8490882002428E004EB8401A7
:10241000E64A02EB011101F120001422E04908F024
:10242000A5FF04EB8400E14901EB0010DE490A68D6
:10243000426389880187DC48C18804EB8400DB4A59
:1024400002EB0010418704EB8400114601EB001001
:10245000D54B9968DA681B693C300EC0641C052CAA
:10246000D4DB10BD10B586B00446002001908DF875
:102470000D008DF80C0008208DF80E0001208DF85D
:102480000F0000218DF810108DF811108DF812102A
:102490008DF813108DF814108DF815108DF8161096
:1024A00001A9204604F0AAFE06B010BD0FB438B54D
:1024B000044606A80090009802C80090009804C83E
:1024C0000090BB4B5B88581CC31700EB93639B11B8
:1024D000A0EB8313B64D2D88AB4205D10120B54B3F
:1024E000D87238BC5DF814FB04F54070B04B5D88C1
:1024F0001B1D03EB051318609DF81400012822D161
:102500000423AB484588001D00EB051003714123EF
:10251000A7484588001D00EB051043714323A448DC
:102520004588001D00EB051083710023A0484588F5
:10253000001D00EB0510C3719D484588001D00EB90
:10254000051003722CE09DF81400022828D10823FE
:1025500097484588001D00EB0510037141239448FE
:102560004588001D00EB05104371432390484588C2
:10257000001D00EB0510837100238D484588001D68
:1025800000EB0510C3718A484588001D00EB05105B
:10259000037287484388001D00EB0310C0F8092030
:1025A00083484588001D00EB05104173804B5B8814
:1025B000581CC31700EB93639B11A0EB83137C4D56
:1025C0006B800020009000BF8BE710B50246784B6F
:1025D0005B88581CC31700EB93639B11A0EB83131C
:1025E000734C2488A34203D10120724BD87210BDD2
:1025F00002F540706E4B5C881B1D03EB04131860E2
:1026000004236B484488001D00EB0410037142232F
:1026100067484488001D00EB041043714723644859
:102620004488001D00EB0410837100236048448837
:10263000001D00EB0410C3715D484488001D00EBD1
:10264000041003725A484388001D00EB03104173C5
:10265000574B5B88581CC31700EB93639B11A0EB8F
:102660008313534C638000BFC1E70FB438B50446F1
:1026700006A80090009802C80090009804C8009036
:102680004B4B5B88581CC31700EB93639B11A0EB6B
:102690008313474D2D88AB4205D10120454BD8729D
:1026A00038BC5DF814FB04F54070414B5D881B1D80
:1026B00003EB051318609DF81400012822D10423B0
:1026C0003B484588001D00EB051003714423384842
:1026D0004588001D00EB05104371432334484588AD
:1026E000001D00EB05108371002331484588001D53
:1026F00000EB0510C3712E484588001D00EB051046
:1027000003722CE09DF81400022828D108232848E1
:102710004588001D00EB05100371442324484588BB
:10272000001D00EB05104371432321484588001D1F
:1027300000EB0510837100231D484588001D00EB48
:102740000510C3711A484588001D00EB051003727F
:1027500017484388001D00EB0310C0F809201448F7
:102760004588001D00EB05104173114B5B88581C18
:10277000C31700EB93639B11A0EB83130C4D6B808D
:102780000020009000BF8BE7080000201000002010
:1027900018000020CDCC6C4020000020E438964189
:1027A000C027002000003444D4270020E827002060
:1027B000C0670020582E00200FB478B507A90091FB
:1027C000009904C90091009908C90091FE4C6488E1
:1027D000611CCC1701EB9464A411A1EB8414FA4D95
:1027E0002D88AC4205D10121F84CE17278BC5DF82E
:1027F00014FB00F54071F44C6588241D04EB0514AE
:1028000021609DF81810012922D10424EE494D8839
:10281000091D01EB05110C714A24EB494D88091D76
:1028200001EB05114C715624E7494D88091D01EB58
:1028300005118C710024E4494D88091D01EB051137
:10284000CC71E1494D88091D01EB05110C7239E08D
:102850009DF81810022935D1441E04EB8404DC4D88
:1028600005EB0414B4F848405C433C2594FBF5F1B7
:102870000825D54C6688241D04EB061425714A25CD
:10288000D14C6688241D04EB061465715625CE4C88
:102890006688241D04EB0614A5710025CA4C6688C1
:1028A000241D04EB0614E571C74C6688241D04EB57
:1028B00006142572C44C6588241D04EB0514C4F865
:1028C000091000BFC0494D88091D01EB05114A736D
:1028D000BD4C6488611CCC1701EB9464A411A1EB7E
:1028E0008414B94D6C800021009100BF7EE710B5C3
:1028F0000246B54B5B88581CC31700EB93639B11D2
:10290000A0EB8313B04C2488A34203D10120AF4B2A
:10291000D87210BD02F54070AB4B5C881B1D03EBF9
:10292000041318600423A8484488001D00EB041019
:1029300003714923A4484488001D00EB041043712F
:102940005123A1484488001D00EB0410837100232B
:102950009D484488001D00EB0410C37180239A48F1
:102960004488001D00EB0410037297484388001D43
:1029700000EB03104173944B5B88581CC31700EBAA
:1029800093639B11A0EB83138F4C638000BFC0E760
:102990000FB438B5044606A80090009802C800900D
:1029A000009804C80090884B5B88581CC31700EB44
:1029B00093639B11A0EB8313834D2D88AB4205D10C
:1029C0000120824BD87238BC5DF814FB04F54070CE
:1029D0007D4B5D881B1D03EB051318609DF81400EB
:1029E000012823D1042378484588001D00EB0510F9
:1029F00003714D2374484588001D00EB0510437199
:102A00004F2371484588001D00EB0510837100239A
:102A10006D484588001D00EB0510C37140236A48CE
:102A20004588001D00EB051003723DE09DF8140081
:102A3000022839D1082364484588001D00EB0510A1
:102A400003714D2360484588001D00EB051043715C
:102A50004F235D484588001D00EB0510837100235E
:102A600059484588001D00EB0510C371564845883C
:102A7000001D00EB0510037253484588001D00EB54
:102A80000510427250484588001D00EB0510837206
:102A90004D484588001D00EB0510C3724A48458823
:102AA000001D00EB0510037347484588001D00EB2F
:102AB00005104173444B5B88581CC31700EB9363AC
:102AC0009B11A0EB8313404D6B800020009000BF52
:102AD00079E770B586B006460C46154600208DF89D
:102AE0000C008DF80D0006F540700190012C0ED100
:102AF00004208DF80E004D208DF80F004F218DF829
:102B0000101000218DF811108DF8121017E0022C12
:102B100015D108208DF80E004D208DF80F004F21A3
:102B20008DF8101000218DF811108DF812108DF80D
:102B300013508DF814108DF815108DF8161001A98A
:102B4000244804F05BFB06B070BD0FB478B50022DA
:102B5000002307A90091009904C90091009908C9B0
:102B60000091194C6488611CCC1701EB9464A4118A
:102B7000A1EB8414144D2D88AC4205D10121134CD6
:102B8000E17278BC5DF814FB00F540710E4C65886D
:102B9000241D04EB051421609DF8181001292CD187
:102BA000042409494D88091D01EB05110C715024BD
:102BB00005494D88091D01EB05114C71412402495D
:102BC0004D88091D08E00000C0670020582E002035
:102BD000E82700200064004001EB05118C710024FF
:102BE000FE494D88091D01EB0511CC71FB494D884B
:102BF000091D01EB05110C724BE09DF8181002291C
:102C000047D1441E04EB8404F54D05EB041494ED08
:102C1000130A9FEDF41AC0EE010A441E04EB84046B
:102C200005EB0414B4F848405C4300EE104AB8EEDB
:102C3000C00A20EE800ABDEEC00A10EE101A082568
:102C4000E64C6688241D04EB061425715025E34CE0
:102C50006688241D04EB061465714125DF4C6688E7
:102C6000241D04EB0614A5710025DC4C6688241D88
:102C700004EB0614E571D94C6688241D04EB061498
:102C80002572D64C6588241D04EB0514C4F8091080
:102C900000BFD2494D88091D01EB05114A73CF4C85
:102CA0006488611CCC1701EB9464A411A1EB84141B
:102CB000CA4D6C800021009100BF62E710B502464A
:102CC000C64B5B88581CC31700EB93639B11A0EBAA
:102CD0008313C24C2488A34203D10120C24BD87273
:102CE00010BD02F54070BD4B5C881B1D03EB041347
:102CF00018600423B9484488001D00EB04100371D8
:102D00005023B6484488001D00EB0410437145234E
:102D1000B2484488001D00EB041083710023AF48C3
:102D20004488001D00EB0410C371AC484488001DAA
:102D300000EB04100372A9484388001D00EB031048
:102D40004173A64B5B88581CC31700EB93639B1120
:102D5000A0EB8313A14C638000BFC1E710B502460E
:102D60009E4B5B88581CC31700EB93639B11A0EB31
:102D700083139A4C2488A34203D101209A4BD87222
:102D800010BD02F54070954B5C881B1D03EB0413CE
:102D90001860042391484488001D00EB041003715F
:102DA00050238E484488001D00EB041043715223C9
:102DB0008A484488001D00EB041083710023874873
:102DC0004488001D00EB0410C37184484488001D32
:102DD00000EB0410037281484388001D00EB0310D0
:102DE00041737E4B5B88581CC31700EB93639B11A8
:102DF000A0EB8313794C638000BFC1E70FB438B5F3
:102E0000044606A80090009802C80090009804C8E4
:102E10000090724B5B88581CC31700EB93639B11A7
:102E2000A0EB83136D4D2D88AB4205D101206E4B75
:102E3000D87238BC5DF814FB04F54070674B5D88B0
:102E40001B1D03EB051318609DF81400012822D107
:102E5000042362484588001D00EB051003715023D0
:102E60005E484588001D00EB0510437158235B4800
:102E70004588001D00EB05108371002357484588E5
:102E8000001D00EB0510C37154484588001D00EB80
:102E9000051003722CE09DF81400022828D10823A5
:102EA0004E484588001D00EB0510037150234B4828
:102EB0004588001D00EB051043715823474845889D
:102EC000001D00EB05108371002344484588001D58
:102ED00000EB0510C37141484588001D00EB05104B
:102EE00003723E484388001D00EB0310C0F8092020
:102EF0003A484588001D00EB05104173374B5B884D
:102F0000581CC31700EB93639B11A0EB8313334D45
:102F10006B800020009000BF8BE70FB438B50446EB
:102F200006A80090009802C80090009804C800907D
:102F30002A4B5B88581CC31700EB93639B11A0EBD3
:102F40008313264D2D88AB4205D10120264BD87224
:102F500038BC5DF814FB04F54070204B5D881B1DE8
:102F600003EB051318609DF81400012822D10423F7
:102F70001A484588001D00EB0510037153231748BC
:102F80004588001D00EB0510437144231348458814
:102F9000001D00EB05108371002310484588001DBB
:102FA00000EB0510C3710D484588001D00EB0510AE
:102FB000037235E09DF81400022831D10823074838
:102FC0004588001D00EB0510037153230348458815
:102FD000001D00EB05104371442307E0C06700208B
:102FE000E82700200000B443582E0020FE48458802
:102FF000001D00EB051083710023FB484588001D70
:1030000000EB0510C371F8484588001D00EB051062
:103010000372F5484388001D00EB0310C0F8092037
:10302000F1484588001D00EB05104173EE4B5B88AD
:10303000581CC31700EB93639B11A0EB8313EA4D5D
:103040006B800020009000BF82E70FB478B507A91D
:103050000091009904C90091009908C90091E24CBF
:103060006488611CCC1701EB9464A411A1EB841457
:10307000DD4D2D88AC4205D10121DC4CE17278BCDC
:103080005DF814FB00F54071D74C6588241D04EBF6
:10309000051421609DF81810012922D10424D24979
:1030A0004D88091D01EB05110C715324CE494D8843
:1030B000091D01EB05114C715024CB494D88091DA8
:1030C00001EB05118C710024C7494D88091D01EBE6
:1030D0000511CC714024C4494D88091D01EB05112F
:1030E0000C729DF81810022935D1441E04EB84049B
:1030F000BF4D05EB0414B4F848405C433C2594FBF9
:10310000F5F10825B84C6688241D04EB06142571DA
:103110005325B54C6688241D04EB061465715025B3
:10312000B14C6688241D04EB0614A5710025AE4C35
:103130006688241D04EB0614E571AB4C6688241DDB
:1031400004EB06142572A84C6588241D04EB0514B5
:10315000C4F8091000BFA4494D88091D01EB0511F1
:103160004A73A14C6488611CCC1701EB9464A411D0
:10317000A1EB84149C4D6C800021009100BF7EE780
:1031800010B50246984B5B88581CC31700EB93633D
:103190009B11A0EB8313944C2488A34203D10120FC
:1031A000924BD87210BD02F540708F4B5C881B1D8E
:1031B00003EB0413186004238B484488001D00EBC4
:1031C00004100371532388484488001D00EB041049
:1031D0004371542384484488001D00EB041083711C
:1031E000002381484488001D00EB0410C3717E4811
:1031F0004488001D00EB041003727B484388001DC7
:1032000000EB03104173784B5B88581CC31700EB2D
:1032100093639B11A0EB8313734C638000BFC1E7E2
:103220000FB438B5044606A80090009802C8009074
:103230000098006800EE100A0098001D00906A4A8D
:103240005288501CC21700EB92629211A0EB8212BE
:10325000654B1B889A4205D10120644AD07238BC64
:103260005DF814FB04F540705F4A5388121D02EBB1
:10327000031210609DF81400022833D1F8EEC00A42
:103280009FED5C1AC0EE811AFDEEE10A10EE900A85
:103290000823554A5588121D02EB05121371542359
:1032A000514A5588121D02EB0512537143234E4AB1
:1032B0005588121D02EB0512937100234A4A558866
:1032C000121D02EB0512D371474A5588121D02EBFD
:1032D00005121372444A5388121D02EB0312C2F8FE
:1032E000090000BF40484388001D00EB03104173F4
:1032F0003D4A5288501CC21700EB92629211A0EB1B
:103300008212394B5A800020009000BFA7E70FB40B
:1033100038B5044606A80090009802C800900098AE
:1033200004C80090304B5B88581CC31700EB9363B4
:103330009B11A0EB83132C4D2D88AB4205D10120AE
:103340002A4BD87238BC5DF814FB04F54070264B4C
:103350005D881B1D03EB051318609DF81400012800
:1033600022D1042320484588001D00EB051003717D
:1033700055231D484588001D00EB051043714D2362
:1033800019484588001D00EB05108371002316487D
:103390004588001D00EB0510C37113484588001DCA
:1033A00000EB0510037246E09DF81400022842D19C
:1033B00008230D484588001D00EB051003715523B7
:1033C00009484588001D00EB051043714D23064850
:1033D0004588001D00EB05108371002302484588D5
:1033E000001D00EB051007E0C0670020582E0020EC
:1033F000E82700200000C842C37141484588001DED
:1034000000EB051003723E484588001D00EB0510D7
:1034100042723B484588001D00EB05108372384816
:103420004588001D00EB0510C37235484588001D16
:1034300000EB0510037332484588001D00EB0510B2
:1034400041732F4B5B88581CC31700EB93639B1190
:10345000A0EB83132A4D6B800020009000BF71E722
:1034600010B50246264B5B88581CC31700EB9363CC
:103470009B11A0EB8313224C2488A34203D101208B
:10348000204BD87210BD02F540701D4B5C881B1D8F
:1034900003EB04131860042319484488001D00EB53
:1034A00004100371562316484488001D00EB0410D5
:1034B0004371582312484488001D00EB04108371A7
:1034C00000230F484488001D00EB0410C3710C4812
:1034D0004488001D00EB0410037209484388001D56
:1034E00000EB03104173064B5B88581CC31700EBBD
:1034F00093639B11A0EB8313014C638000BFC1E772
:10350000C0670020582E002070B500BF0720FE497C
:1035100008701520FD4908700020FD49087147F228
:1035200030508860012008734FF47A7008614000C1
:10353000F8490881012008730024C4EBC40000EBA3
:103540008000F54901EB8000F049097880F8881087
:103550000020C4EBC40101EB8101EF4A02F8210015
:103560000120C4EBC40101EB810102EB8101487031
:103570000220C4EBC40101EB810102EB81018870E0
:103580000A20C4EBC40101EB810102EB81018880B8
:103590006FF0C701C4EBC40000EB800002EB8000B9
:1035A00081600021C4EBC40000EB800002EB8000CE
:1035B0000161B7EE000AC4EBC40000EB80001146C5
:1035C00001EB800080ED050AC4EBC40202EB82022D
:1035D0000B4603EB82021169C4EBC40202EB8202C8
:1035E00003EB820202F13000DFEDCC1A9FEDCB1A23
:1035F000DFEDCB0A9FEDCA0A02F060FD0124C4EBA7
:10360000C40000EB8000C44901EB8000BF49097889
:1036100080F888100020C4EBC40101EB8101BE4A90
:1036200002F821000120C4EBC40101EB810102EB8F
:10363000810148700220C4EBC40101EB810102EB5F
:10364000810188700A20C4EBC40101EB810102EB07
:10365000810188806FF0C701C4EBC40000EB8000DB
:1036600002EB800081600021C4EBC40000EB80000D
:1036700002EB80000161B7EE000AC4EBC40000EB6E
:103680008000114601EB800080ED050AC4EBC40206
:1036900002EB82020B4603EB82021169C4EBC40207
:1036A00002EB820203EB820202F13000DFED9B1A93
:1036B0009FED9A1ADFED9A0A9FED990A02F0FEFC3F
:1036C000002550E0C5EBC50101EB8101924A02EBF8
:1036D000810101F1740014228D4907F047FEC5EB0A
:1036E000C50101EB81018C4A02EB810101F1580017
:1036F0000A22884907F03AFE86484189C5EBC50091
:1037000000EB8000844A02EB8000A0F86210C5EB59
:10371000C50000EB8000114601EB80007D498989DE
:10372000A0F864107B48C189C5EBC50000EB8000A0
:1037300002EB8000A0F866107648018AC5EBC50050
:1037400000EB800002EB8000A0F86810C5EBC5001C
:1037500000EB8000114601EB80006E4A51699269CE
:10376000C0E91B126D1C042DACDB70BD2E21095C61
:1037700019B100222E210A544262704710B5044646
:1037800020692063607808B9206F20637820005D8D
:1037900098B9206B002801DD206B01E0206B4042CE
:1037A000E16F884209DD206B002802DA4FF0FF301C
:1037B00000E00120E16F48432063616AA16404F1E5
:1037C000300002F08BFC616CA1608020005DA8B12C
:1037D000A068002801DDA06801E0A06840428421C3
:1037E000095988420ADDA068002802DA4FF0FF304C
:1037F00000E00120842109594843A06010BD30B584
:103800002DED028B81B00446B0EE408A0D460020BB
:10381000009044494988481CC11700EB9161891107
:10382000A0EB81113F4A1288914206D101203E4906
:10383000C87201B0BDEC028B30BD9FED3C0A28EE92
:10384000000ABDEEC00A10EE101A364A5388121D47
:1038500002EB0312501D6A4602F090FC44F07040E7
:1038600030494A88091D01EB021108600098C1B275
:103870002C484288001D00EB021001712948418844
:10388000001D00EB0110457326494988481CC117EB
:1038900000EB91618911A0EB8111224A518000BF98
:1038A000C7E7F8B504460E461546002000901D49AE
:1038B0004988481CC11700EB91618911A0EB811167
:1038C000184A1288914203D101201749C872F8BDE5
:1038D00014494A88091D01EB0211481D6A46314608
:1038E00002F04CFC44F0704040F440710D484288B6
:1038F000001D00EB021001600098C1B20948428827
:10390000001D00EB021013E0280000202900002019
:10391000782900208C290020A82900200000000020
:10392000CDCCCC3DC0670020582E00200050C347AE
:10393000017187484188001D00EB011045738449DF
:103940004988481CC11700EB91618911A0EB8111D6
:103950007F4A518000BFBAE730B52DED028B81B0B0
:103960000446B0EE408A0D46002000907849498810
:10397000481CC11700EB91618911A0EB8111744AB9
:103980001288914206D101207249C87201B0BDEC83
:10399000028B30BD9FED700A28EE000ABDEEC00A12
:1039A00010EE101A6A4A5388121D02EB0312501DC2
:1039B0006A4602F0E3FB44F0704040F480716448D2
:1039C0004288001D00EB021001600098C1B26048FF
:1039D0004288001D00EB021001715D484188001D06
:1039E00000EB011045735A494988481CC11700EB88
:1039F00091618911A0EB8111554A518000BFC5E743
:103A000030B52DED028B81B00446B0EE408A0D46F4
:103A1000002000904E494988481CC11700EB916175
:103A20008911A0EB81114A4A1288914206D10120E6
:103A30004849C87201B0BDEC028B30BD9FED460A0B
:103A400028EE000ABDEEC00A10EE101A404A538854
:103A5000121D02EB0312501D6A4602F08FFB44F068
:103A6000704040F400713A484288001D00EB02109B
:103A700001600098C1B236484288001D00EB021078
:103A8000017133484188001D00EB01104573304936
:103A90004988481CC11700EB91618911A0EB811185
:103AA0002B4A518000BFC5E730B52DED028B81B0A8
:103AB0000446B0EE408A0D46002000902449498813
:103AC000481CC11700EB91618911A0EB8111204ABC
:103AD0001288914206D101201E49C87201B0BDEC86
:103AE000028B30BD9FED1C0A28EE000ABDEEC00A15
:103AF00010EE101A164A5388121D02EB0312501DC5
:103B00006A4602F03BFB44F0704040F440611048CC
:103B10004288001D00EB021001600098C1B20C4801
:103B20004288001D00EB0210017109484188001D08
:103B300000EB0110457306494988481CC11700EB8A
:103B400091618911A0EB8111014A518000BFC5E745
:103B5000C0670020582E002000007A4410B50820CD
:103B600008F0BCFA044600206060204610BD012029
:103B700031494872704710B5FFF7F9FFFDF79CFC1B
:103B8000FEF706FCFFF7C0FCFFF7E8FF2B49486093
:103B900010BD00220A7803780B700270704770B570
:103BA00006460C46354600E06D6815B16868A042CF
:103BB000FAD14CB160686860204608F067FA1F4887
:103BC0000078401E1D49087070BD02460B46114624
:103BD00005E00888984201D10846704749680029E5
:103BE000F7D10020F9E72DE9F041074688463C4629
:103BF00041462046FFF7E9FF08B1BDE8F081002605
:103C000002E06468701CC6B20C480078B04201DD66
:103C1000002CF6D16CB1082008F060FA0546A5F832
:103C2000008060686860656004480078401C034953
:103C3000087000BFE1E70000582E0020340000208B
:103C40001CB54048006840F010003E4908603D48FF
:103C50001438006840F480003A49143908600120A3
:103C6000022100230A46CDE900104FF4C061364816
:103C700002F05CFF07220921334802F037FF0722D8
:103C80000A21314802F032FF40F2D9202F49088141
:103C90004FF4037088810846008820F020000880D7
:103CA000032325220121062002F092FE4FF48070AA
:103CB000274B264A121D04210090264802F074FD6D
:103CC00001221021234803F068FF0323462200212C
:103CD000072002F07DFE1D48808A40F080001B49CD
:103CE00088820846808940F4005088811CBD70B5E8
:103CF00004460D461848407B78B92A4621461448A8
:103D000007F034FB2946134803F0DBFE012111487C
:103D100003F0B6FE01201049487370BD10B50F497D
:103D20000C4803F057FF01280AD10C49094803F059
:103D300020FF0A49074803F077FF0020064948732F
:103D400010BD000044380240000002400010014055
:103D5000D82B0020B8640240582E00200080002894
:103D60001CB5F948006840F40030F7490860F6488F
:103D70001038006840F40010F34910390860012041
:103D8000022100230A46CDE900100C21EF4802F081
:103D9000CDFE07220221ED4802F0A8FE07220321F2
:103DA000EA4802F0A3FE4FF4B670E94908800C20FF
:103DB000091D0880E6480838008820F02000E44902
:103DC00008390880E248001D008840F02000E049E2
:103DD000091D0880032326220121042002F0F8FD9A
:103DE0004FF48070DB4BDA4A121F04210090DA484E
:103DF00002F0DAFC01221021D74803F0CEFE0323A3
:103E000011220121072002F0E3FDD1480C30008887
:103E100040F08000CE490C310880CD48001D00885C
:103E200040F40050CA49091D08801CBD10B5CB499B
:103E3000C94803F0CFFE01280AD1C849C64803F09B
:103E400098FEC649C44803F0EFFE0020C4498873B9
:103E500010BD10B52DED028B002440F22531BC4879
:103E6000083804F0BEFC58B1B948083804F0F7FB34
:103E70000020BC4908702021BB4807F090FAF0E30D
:103E800040F22551B248083804F0ABFC0028F6D0C7
:103E90002021AF48083804F09BFC40F22551AC4883
:103EA000083804F0D5FCAA48083804F0D8FBC4B29E
:103EB000AC48007800F0400008B3AA48007800F051
:103EC000800020BBFF2C06D1A648007840F080007F
:103ED000A44908701BE0A348007800F03F01A24805
:103EE0004454A0480078401C9E4908700846007859
:103EF00000F03F0028280ADD0020087007E0EE2CC3
:103F000005D19848007840F04000964908709548DF
:103F1000007800F080000028B1D0944890F8210289
:103F2000012804D1914890F82302914908708F48E4
:103F300090F82302082870D2DFE800F0042E2F301A
:103F400056F36FF2894890F82502082821D1012004
:103F500080F3138800BF00BF00BF00BF00BF00BFD9
:103F6000BFF34F8F00BF00BF00BF8248006800F45E
:103F7000E06081490843001D7E49086000BF00BF22
:103F800000BFBFF34F8F00BF00BF00BF00BF00BF27
:103F9000FDE700BF00BFC5E3C4E3C3E3734890F887
:103FA0002502032804D0062811D0082819D114E0CE
:103FB0006D48C01D07F0C4FEB0EE408AF0EE608A86
:103FC00051EC180B07F005FB6C4908600AE0012072
:103FD0006B49087081F88C0004E001206949087081
:103FE00000E000BF00BF9DE3604890F82502C01EBE
:103FF0001E2872D2DFE800F00F1F2E3F506172833F
:1040000096CAD9FBF971F8F7F6F5F4F3F2F1F0EF8F
:10401000EEEDECEBEAE900200AE082E3002100EBA0
:10402000800202EBC002584B03EB02121170401CDD
:104030000828F3DBB5E14C48C01D07F081FEB0EE67
:10404000408AF0EE608A51EC180B07F0E1FA4E4915
:104050008870A6E14448C01D07F072FEB0EE408AA9
:10406000F0EE608A51EC180B07F0D2FAC1B2464864
:1040700080F8D21095E13C48C01D07F061FEB0EE1B
:10408000408AF0EE608A51EC180B07F0C1FAC1B219
:104090003D4880F8A21184E13348C01D07F050FE6E
:1040A000B0EE408AF0EE608A51EC180B07F0B0FADF
:1040B000C1B2354880F8721273E12B48C01D07F079
:1040C0003FFEB0EE408AF0EE608A51EC180B07F02C
:1040D00080FA01B22C48018163E161E12248C01DF0
:1040E00007F02EFEB0EE408AF0EE608A51EC180B1D
:1040F00007F06FFA01B22448A0F8D81051E11A482D
:10410000C01D07F01DFEB0EE408AF0EE608A51EC53
:10411000180B07F05EFA01B21B48A0F8A81140E1A5
:10412000FEE240E11048C01D07F00AFEB0EE408AF2
:10413000F0EE608A51EC180B07F04BFA01B212480E
:10414000A0F878122DE10000403802400000024043
:1041500008440040F82C0020A0600240008020208D
:10416000582E00203D000020F82D0020D82B0020E4
:104170003C0000200CED00E00000FA0530000020BB
:10418000A82900202C00002040210020F94807F039
:10419000D7FDB0EE408AF0EE608A51EC180B07F0C4
:1041A00018FA00B2F4498880FBE0F24807F0C8FD35
:1041B000B0EE408AF0EE608A51EC180B07F009FA75
:1041C00001B2ED48A0F8D410EBE0E0E0D6E0CCE09E
:1041D000C3E0B7E0ABE09FE094E088E07CE070E013
:1041E00065E054E043E032E021E010E0FFE7E14821
:1041F00007F0A6FDB0EE408AF0EE608A51EC180B95
:1042000007F0E7F901B2DC48A0F8A411C9E0D948E9
:1042100007F096FDB0EE408AF0EE608A51EC180B84
:1042200007F0D7F901B2D448A0F87412B9E0D14828
:1042300007F086FDB0EE408AF0EE608A51EC180B74
:1042400007F0E6F981B2CC48A0F89610A9E0C94879
:1042500007F076FDB0EE408AF0EE608A51EC180B64
:1042600007F0D6F981B2C448A0F8661199E0C148B8
:1042700007F066FDB0EE408AF0EE608A51EC180B54
:1042800007F0C6F981B2BC48A0F8361289E0B948F7
:1042900007F056FDB0EE408AF0EE608A51EC180B44
:1042A00007F0B6F981B2B448A0F8061379E0B34834
:1042B00090F8280208B1012000E00020AE49087003
:1042C0006FE0AE4890F8280208B1012000E000201D
:1042D000A94981F8D00064E0A84890F8280208B104
:1042E000012000E00020A44981F8A00159E0A34882
:1042F00090F8280208B1012000E000209E4981F8D2
:1043000070024EE09D4890F8280208B1012000E0BC
:1043100000209949487044E0984890F8280208B174
:10432000012100E00021944880F8D11039E0934841
:1043300090F8280208B1012100E000218E4880F8A1
:10434000A1112EE08D4890F8280208B1012100E06B
:104350000021894880F8711223E08748007818B955
:104360000121854880F839101BE0834890F8D0007F
:1043700018B90121804880F8091112E07E4890F8B0
:10438000A00118B901217C4880F8D91109E07A48C8
:1043900090F8700218B90121774880F8A91200E05E
:1043A00000BF00BFBEE1754890F82502C01E1E2860
:1043B0006FD2DFE800F00F1E2E3E4E5E6F7F8F9FA4
:1043C000AFBFCF6EF5F3F2F1F0EFEEEDECEBEAE913
:1043D000E8E7E6E5002009E0002100EB800202EBBF
:1043E000C002654B03EB02121170401C0828F3DB7E
:1043F00094E1604807F0A4FCB0EE408AF0EE608AD9
:1044000051EC180B07F004F9C1B25B4880F8421375
:1044100084E1584807F094FCB0EE408AF0EE608AE0
:1044200051EC180B07F0F4F8C1B2534880F812149D
:1044300074E1504807F084FCB0EE408AF0EE608AE8
:1044400051EC180B07F0E4F8C1B24B4880F8E214C5
:1044500064E1484807F074FCB0EE408AF0EE608AF0
:1044600051EC180B07F0D4F8C1B2434880F8B215EC
:1044700054E1404807F064FCB0EE408AF0EE608AF8
:1044800051EC180B07F0A5F801B23B48A0F848130F
:1044900044E142E1374807F053FCB0EE408AF0EEC9
:1044A000608A51EC180B07F094F801B23248A0F87A
:1044B000181433E12F4807F043FCB0EE408AF0EEC9
:1044C000608A51EC180B07F084F801B22A48A0F872
:1044D000E81423E1274807F033FCB0EE408AF0EE01
:1044E000608A51EC180B07F074F801B22248A0F86A
:1044F000B81513E11F4807F023FCB0EE408AF0EE38
:10450000608A51EC180B07F064F801B21A48A0F861
:10451000441303E1174807F013FCB0EE408AF0EEB5
:10452000608A51EC180B07F054F801B21248A0F859
:104530001414F3E00F4807F003FCB0EE408AF0EEED
:10454000608A51EC180B07F044F801B20A48A0F851
:10455000E414E3E0074807F0F3FBB0EE408AF0EE26
:10456000608A51EC180B07F034F801B20248A0F849
:10457000B415D3E0FF2D002040210020D82B0020CF
:10458000C2E0B8E0AEE0A4E098E08CE080E074E047
:1045900068E05BE04FE043E032E021E010E0FFE75D
:1045A000FE4807F0CDFBB0EE408AF0EE608A51EC99
:1045B000180B07F02DF881B2F948A0F8D613ADE03A
:1045C000F64807F0BDFBB0EE408AF0EE608A51EC91
:1045D000180B07F01DF881B2F148A0F8A6149DE071
:1045E000EE4807F0ADFBB0EE408AF0EE608A51EC89
:1045F000180B07F00DF881B2E948A0F876158DE0A8
:10460000E64807F09DFBB0EE408AF0EE608A51EC80
:10461000180B06F0FDFF81B2E148A0F846167DE0D8
:10462000E04890F8280208B1012000E00020DC49B1
:1046300081F8400372E0DB4890F8280208B10120BD
:1046400000E00020D64981F8100467E0D54890F8D2
:10465000280208B1012000E00020D14981F8E004DF
:104660005CE068E0CF4890F8280208B1012000E043
:104670000020CB4981F8B00550E0CA4890F82802E4
:1046800008B1012100E00021C54880F8411345E050
:10469000C44890F8280208B1012100E00021C04878
:1046A00080F811143AE0BF4890F8280208B10121BF
:1046B00000E00021BA4880F8E1142FE0B94890F8F2
:1046C000280208B1012100E00021B54880F8B115A9
:1046D00024E0B34890F8400318B90121B04880F8AD
:1046E00079131BE0AE4890F8100418B90121AC48CA
:1046F00080F8491412E0AA4890F8E00418B90121A2
:10470000A74880F8191509E0A54890F8B00518B930
:104710000121A34880F8E91500E000BF00BF01E0D7
:1047200000E000BF00BF00209F49087020219B4887
:10473000C01F06F034FEBDEC028B10BD10B5044660
:104740009A48807B50B92146994803F0BAF9012173
:10475000974803F095F901209449887310BD10B56E
:104760000024EE222146641C92484254B122214684
:10477000641C425410222146641C425400222146EB
:10478000641C42542146641C42542146641C425419
:1047900005222146641C425401222046611CCCB2F1
:1047A00084490A54FF222046611CCCB281490A5434
:1047B000FC222046611CCCB27E490A54FF222046CE
:1047C000611CCCB27B490A542046611CCCB27949A9
:1047D0000A5479480078062881F01D81DFE810F03E
:1047E0001B090600080009006900BD0401F014B9A6
:1047F000FCE7EE222046611CCCB26E490A54B1227D
:104800002046611CCCB26B490A5412222046611C1E
:10481000CCB268490A5400222046611CCCB26549DA
:104820000A5404222046611CCCB262490A54002278
:104830002046611CCCB25F490A5404222046611C08
:10484000CCB25C490A5400222046611CCCB25949C2
:104850000A545A4882685AA15A4807F05DFA5948E2
:1048600006F0A8FDC2B22046611CCCB251490A54E0
:104870000819544906F0A5FD524806F09BFD204456
:10488000C4B2FF222046611CCCB24A490A54FC2221
:104890002046611CCCB247490A54FF222046611CC5
:1048A000CCB244490A542046611CCCB241490A5456
:1048B0009CE7EE222046611CCCB23E490A54B1224C
:1048C0002046611CCCB23B490A5412222046611C8E
:1048D000CCB238490A5400222046611CCCB235497A
:1048E0000A5404222046611CCCB232490A542C4896
:1048F0008078002851D000222046611CCCB22D497E
:104900000A5404222046611CCCB22A490A540022CF
:104910002046611CCCB227490A542148827828A13C
:10492000284807F0F9F9274806F044FDC2B22046AE
:10493000611CCCB21F490A540819224906F041FDF6
:10494000204806F037FD2044C4B200222046611CF6
:10495000CCB218490A5408222046611CCCB2154931
:104960000A5400222046611CCCB212490A540C4859
:10497000B0F9182012A1134807F0CEF9114806F03B
:1049800019FDC2B22046611CCCB20A490A5408196A
:104990000C4906F016FD0B4816E0AFE0FF2D002095
:1049A00040210020D82B00203D000020582E002060
:1049B000A0600240F82C00203C000020A829002024
:1049C00025640000672E002006F0F4FC2044C4B2E9
:1049D00000222046611CCCB2FE490A540C2220461B
:1049E000611CCCB2FB490A5400222046611CCCB2A7
:1049F000F8490A54F848B0F91420AFF23C01F748DE
:104A000007F08AF9F54806F0D5FCC2B22046611CD1
:104A1000CCB2F0490A540819F04906F0D2FCEF482C
:104A200006F0C8FC2044C4B200222046611CCCB26F
:104A3000E8490A5411222046611CCCB2E5490A54C7
:104A400000222046611CCCB2E2490A54E248B0F888
:104A50009620AFF29401E14807F05EF9DF4806F0D6
:104A6000A9FCC2B22046611CCCB2DA490A5408192A
:104A7000DA4906F0A6FCD94806F09CFC2044C4B2F2
:104A800000222046611CCCB2D2490A54152220468D
:104A9000611CCCB2CF490A5400222046611CCCB222
:104AA000CC490A5401222046611CCCB2C9490A549F
:104AB000C94802782046611CCCB2C6490A5400227B
:104AC0002046611CCCB2C3490A5419222046611CFD
:104AD000CCB2C0490A5400222046611CCCB2BD4968
:104AE0000A5401222046611CCCB2BA490A54BA4881
:104AF00042782046611CCCB2B6490A54B64890F8B8
:104B0000D20000287DD000222046611CCCB2B149E1
:104B10000A5405222046611CCCB2AE490A54002238
:104B20002046611CCCB2AB490A54AB4890F8D22065
:104B3000AFF27411A94807F0EFF8A84806F03AFC64
:104B4000C2B22046611CCCB2A2490A540819A3493A
:104B500006F037FCA14806F02DFC2044C4B2002228
:104B60002046611CCCB29B490A5409222046611C94
:104B7000CCB298490A5400222046611CCCB2954917
:104B80000A549548B0F9E820AFF2CC11934807F0E9
:104B9000C3F8924806F00EFCC2B22046611CCCB2AB
:104BA0008C490A5408198D4906F00BFC8B4806F015
:104BB00001FC2044C4B200222046611CCCB28549CD
:104BC0000A540D222046611CCCB282490A540022AC
:104BD0002046611CCCB27F490A547F48B0F9E420DA
:104BE000AFF224217D4807F097F87C4806F0E2FBFD
:104BF000C2B22046611CCCB276490A5408197749E2
:104C000000E072E006F0DDFB744806F0D3FB2044C0
:104C1000C4B200222046611CCCB26E490A54122252
:104C20002046611CCCB26B490A5400222046611C0C
:104C3000CCB268490A546848B0F86621AFF28021C6
:104C4000664807F069F8654806F0B4FBC2B2204632
:104C5000611CCCB25F490A540819604906F0B1FBE7
:104C60005E4806F0A7FB2044C4B200222046611C27
:104C7000CCB258490A5416222046611CCCB2554980
:104C80000A5400222046611CCCB252490A54012227
:104C90002046611CCCB24F490A544F4890F8D020AE
:104CA0002046611CCCB24B490A5400222046611CAC
:104CB000CCB248490A541A222046611CCCB245495C
:104CC0000A5400222046611CCCB242490A540122F7
:104CD0002046611CCCB23F490A543F4890F8D1208D
:104CE0002046611CCCB23B490A543B4890F8A201D3
:104CF000002875D000222046611CCCB235490A54E8
:104D000006222046611CCCB232490A5400222046B9
:104D1000611CCCB22F490A542F4890F8A221AFF25F
:104D200060312E4806F0F8FF2C4806F043FBC2B273
:104D30002046611CCCB227490A540819274906F0BD
:104D400040FB264806F036FB2044C4B20022204631
:104D5000611CCCB21F490A540A222046611CCCB205
:104D60001C490A5400222046611CCCB219490A543D
:104D70001948B0F9B821AFF2B831184806F0CCFFA5
:104D8000164806F017FBC2B22046611CCCB211498E
:104D90000A540819114906F014FB104806F00AFBE2
:104DA0002044C4B200222046611CCCB209490A54F6
:104DB0000E222046611CCCB206490A54002220462D
:104DC000611CCCB203490A540348B0F9B421AFF2D4
:104DD000104106E0F82C002040210020672E002022
:104DE00080E0FE4806F098FFFC4806F0E3FAC2B205
:104DF0002046611CCCB2FA490A540819F74906F05A
:104E0000E0FAF64806F0D6FA2044C4B20022204662
:104E1000611CCCB2F2490A5413222046611CCCB268
:104E2000EF490A5400222046611CCCB2EC490A54D6
:104E3000EC48B0F83622AFF27841E84806F06CFF53
:104E4000E64806F0B7FAC2B22046611CCCB2E4498B
:104E50000A540819E14906F0B4FAE04806F0AAFA43
:104E60002044C4B200222046611CCCB2DC490A5462
:104E700017222046611CCCB2D9490A540022204690
:104E8000611CCCB2D6490A5401222046611CCCB226
:104E9000D3490A54D34890F8A0212046611CCCB2D3
:104EA000CF490A5400222046611CCCB2CC490A5496
:104EB0001B222046611CCCB2C9490A54002220465C
:104EC000611CCCB2C6490A5401222046611CCCB2F6
:104ED000C3490A54C34890F8A1212046611CCCB2B2
:104EE000BF490A54BF4890F8720200287DD00022C2
:104EF0002046611CCCB2BA490A5407222046611CE4
:104F0000CCB2B7490A5400222046611CCCB2B44945
:104F10000A54B44890F87222AFF25C51AF4806F0E0
:104F2000FBFEAE4806F046FAC2B22046611CCCB287
:104F3000AB490A540819A94906F043FAA74806F0F4
:104F400039FA2044C4B200222046611CCCB2A449E4
:104F50000A540B222046611CCCB2A1490A540022FB
:104F60002046611CCCB29E490A549E48B0F9882262
:104F7000AFF2B451994806F0CFFE984806F01AFAFD
:104F8000C2B22046611CCCB295490A540819934913
:104F900006F017FA914806F00DFA2044C4B2002238
:104FA0002046611CCCB28E490A540F222046611C57
:104FB000CCB28B490A5400222046611CCCB28849ED
:104FC0000A548848B0F98422AFF20C61834806F095
:104FD000A3FE824806F0EEF9C2B22046611CCCB2B4
:104FE0007F490A5408197D4900E072E006F0E9F9AA
:104FF0007A4806F0DFF92044C4B200222046611C42
:10500000CCB277490A5414222046611CCCB27449B0
:105010000A5400222046611CCCB271490A547148DE
:10502000B0F80623AFF268616C4806F075FE6B4875
:1050300006F0C0F9C2B22046611CCCB268490A54DD
:105040000819664906F0BDF9644806F0B3F9204432
:10505000C4B200222046611CCCB261490A54182215
:105060002046611CCCB25E490A5400222046611CD5
:10507000CCB25B490A5401222046611CCCB258498B
:105080000A54584890F870222046611CCCB254490A
:105090000A5400222046611CCCB251490A541C22F9
:1050A0002046611CCCB24E490A5400222046611CA5
:1050B000CCB24B490A5401222046611CCCB248496B
:1050C0000A54484890F871222046611CCCB24449E9
:1050D0000A5400222046611CCCB241490A541022D5
:1050E0002046611CCCB23E490A5400222046611C75
:1050F000CCB23B490A543C484068406802883BA116
:10510000364806F009FE354806F054F9C2B220468A
:10511000611CCCB232490A540819304906F051F9E1
:105120002E4806F047F92044C4B2FF222046611CF5
:10513000CCB22B490A54FC222046611CCCB228492F
:105140000A54FF222046611CCCB225490A5421464C
:10515000601CC4B222484254FEE3EE222046611C89
:10516000CCB21F490A54B1222046611CCCB21C4962
:105170000A5412222146601CC4B21948425400222B
:105180002046611CCCB216490A5405222146601CF7
:10519000C4B213484254134890F8420300287DD00B
:1051A00000222046611CCCB20D490A54042220463C
:1051B000611CCCB20A490A5400222046611CCCB2C0
:1051C00007490A54074890F84223AFF60C010348F8
:1051D00006F0A2FD014806F0EDF809E0672E002078
:1051E000F82C002040210020340000202578000009
:1051F000C2B22046611CCCB2FE490A540819FE49CD
:1052000006F0DFF8FC4806F0D5F82044C4B20022CE
:105210002046611CCCB2F7490A5408222046611C82
:10522000CCB2F4490A5400222046611CCCB2F149A8
:105230000A54F248B0F95823AFF67C01EE4806F064
:105240006BFDED4806F0B6F8C2B22046611CCCB248
:10525000E8490A540819E84906F0B3F8E64806F0A8
:10526000A9F82044C4B200222046611CCCB2E14916
:105270000A540C222046611CCCB2DE490A5400229A
:105280002046611CCCB2DB490A54DC48B0F95423F7
:10529000AFF6D401D84806F03FFD00E07DE0D648E7
:1052A00006F088F8C2B22046611CCCB2D1490A543B
:1052B0000819D14906F085F8CF4806F07BF820445C
:1052C000C4B200222046611CCCB2CA490A54112241
:1052D0002046611CCCB2C7490A5400222046611CFA
:1052E000CCB2C4490A54C548B0F8D623AFF6301141
:1052F000C14806F011FDC04806F05CF8C2B2204675
:10530000611CCCB2BB490A540819BB4906F059F8D4
:10531000B94806F04FF82044C4B200222046611C70
:10532000CCB2B4490A5415222046611CCCB2B14912
:105330000A5400222046611CCCB2AE490A54012214
:105340002046611CCCB2AB490A54AC4890F84023CB
:105350002046611CCCB2A7490A5400222046611C99
:10536000CCB2A4490A5419222046611CCCB2A149EE
:105370000A5400222046611CCCB29E490A540122E4
:105380002046611CCCB29B490A549C4890F84123AA
:105390002046611CCCB297490A54984890F81204F0
:1053A00000287DD000222146601CC4B2914842549E
:1053B00005222046611CCCB28E490A5400222046A8
:1053C000611CCCB28B490A548C4890F81224AFF679
:1053D0001021894806F0A0FC874805F0EBFFC2B217
:1053E0002046611CCCB283490A540819824905F051
:1053F000E8FF814805F0DEFF2044C4B200222046C9
:10540000611CCCB27B490A5409222046611CCCB2F3
:1054100078490A5400222046611CCCB275490A54CE
:105420007648B0F92824AFF66821734806F074FC7A
:10543000714805F0BFFFC2B22046611CCCB26D4975
:105440000A5408196C4905F0BCFF6B4805F0B2FF1F
:105450002044C4B200222046611CCCB265490A54E3
:105460000D222046611CCCB262490A54002220461B
:10547000611CCCB25F490A546048B0F92424AFF6ED
:10548000C0215D4806F048FC5B4805F093FFC2B2BE
:105490002046611CCCB257490A540819564900E00D
:1054A00072E005F08EFF544805F084FF2044C4B23A
:1054B00000222046611CCCB24E490A5412222046DA
:1054C000611CCCB24B490A5400222046611CCCB26C
:1054D00048490A544948B0F8A624AFF61C3146485A
:1054E00006F01AFC444805F065FFC2B22046611C74
:1054F000CCB240490A5408193F4905F062FF3E48C2
:1055000005F058FF2044C4B200222046611CCCB2F2
:1055100038490A5416222046611CCCB235490A5437
:1055200000222046611CCCB232490A540122214695
:10553000601CC4B22F484254304890F810242046D2
:10554000611CCCB22B490A5400222046611CCCB20B
:1055500028490A541A222046611CCCB225490A5413
:1055600000222046611CCCB222490A540122204666
:10557000611CCCB21F490A54204890F811242046DF
:10558000611CCCB21B490A541C4890F8E204002864
:105590007ED000222046611CCCB216490A54062255
:1055A0002046611CCCB213490A5400222046611CDB
:1055B000CCB210490A54114890F8E224AFF60041E9
:1055C0000D4806F0A9FB0C4805F0F4FEC2B22046D7
:1055D000611CCCB207490A540819074905F0F1FECD
:1055E000054805F0E7FE2044C4B200222046611CB5
:1055F000CCB205E0F82C0020672E002040210020CE
:10560000FE490A540A222046611CCCB2FB490A54C6
:1056100000222046611CCCB2F8490A54F848B0F97F
:10562000F824AFF66441F74806F076FBF54805F03C
:10563000C1FEC2B22046611CCCB2F0490A5408191E
:10564000F04905F0BEFEEF4805F0B4FE2044C4B2B8
:1056500000222046611CCCB2E8490A540E222046A2
:10566000611CCCB2E5490A5400222046611CCCB230
:10567000E2490A54E248B0F9F424AFF6BC41E148EB
:1056800006F04AFBDF4805F095FEC2B2204600E076
:1056900078E0611CCCB2D9490A540819D94905F0FF
:1056A00090FED84805F086FE2044C4B20022204671
:1056B000611CCCB2D1490A5413222046611CCCB2E1
:1056C000CE490A5400222046611CCCB2CB490A5470
:1056D000CB48B0F87625AFF61851CA4806F01CFB47
:1056E000C84805F067FEC2B22046611CCCB2C3496F
:1056F0000A540819C34905F064FEC24805F05AFE71
:105700002044C4B200222046611CCCB2BB490A54DA
:1057100017222146601CC4B2B848425400222046D9
:10572000611CCCB2B5490A5401222046611CCCB29E
:10573000B2490A54B24890F8E0242046611CCCB229
:10574000AE490A5400222046611CCCB2AB490A542F
:105750001B222046611CCCB2A8490A5400222146D3
:10576000601CC4B2A548425401222146601CC4B248
:10577000A2484254A24890F8E1242046611CCCB2D1
:105780009E490A549E4890F8B20500287ED0002217
:105790002046611CCCB299490A5407222046611C5C
:1057A000CCB296490A5400222046611CCCB29349DF
:1057B0000A54934890F8B225AFF6FC51914806F090
:1057C000ABFA904805F0F6FDC2B22046611CCCB29F
:1057D0008A490A5408198B4905F0F3FD894805F0F8
:1057E000E9FD2044C4B200222046611CCCB28349AA
:1057F0000A540B222046611CCCB280490A54002274
:105800002046611CCCB27D490A547D48B0F9C825B8
:10581000AFF654617B4806F07FFA7A4805F0CAFD7E
:10582000C2B22146601CC4B27448425401460819F1
:10583000744905F0C6FD734805F0BCFD2044C4B2B0
:1058400000222046611CCCB26C490A540F2221462A
:10585000601CC4B26948425400222046611CCCB28C
:1058600066490A546648B0F9C425AFF6AC6165488C
:1058700006F052FA634805F09DFDC2B22046611C55
:10588000CCB25E490A5408195E4900E075E005F0A3
:1058900098FD5C4805F08EFD2044C4B200222046ED
:1058A000611CCCB255490A5414222046611CCCB26A
:1058B00052490A5400222146601CC4B24F48425447
:1058C0004F48B0F84626AFF608714E4806F024FA65
:1058D0004C4805F06FFDC2B22146601CC4B2474877
:1058E000425401460819474905F06BFD454805F04B
:1058F00061FD2044C4B200222046611CCCB23F4965
:105900000A5418222046611CCCB23C490A54002299
:105910002046611CCCB239490A5401222046611C40
:10592000CCB236490A54364890F8B0252046611C5E
:10593000CCB232490A5400222046611CCCB22F4915
:105940000A541C222046611CCCB22C490A54002265
:105950002046611CCCB200E05EE028490A540122D6
:105960002046611CCCB225490A54254890F8B1253F
:105970002046611CCCB221490A5400222146601CF9
:10598000C4B21E48425410222146601CC4B21B48B7
:10599000425400222046611CCCB218490A541A48CD
:1059A000406840680288AFF2BC71164806F0B4F94E
:1059B000144805F0FFFCC2B22046611CCCB20F496E
:1059C0000A5408190F4905F0FCFC0E4805F0F2FCDA
:1059D0002044C4B2FF222046611CCCB207490A54BD
:1059E000FC222146601CC4B204484254FF222046D7
:1059F000611CCCB201490A54214607E0F82C002072
:105A000040210020672E002034000020601CC4B21A
:105A10000448425400E000BF00BF2046FEF78EFE5F
:105A200010BD0000F82C0020014608884A889042EA
:105A300001D1012070470020FCE701464888421C44
:105A4000D01702EB90608011A2EB80100B88984277
:105A500001D1012070470020FCE700205649488012
:105A60000880564948800880704730B585B00546A3
:105A70000C460020524908702046FFF7D5FF18B1A8
:105A800001205049087394E02188201D00EB01108B
:105A90000068B0F5006F09D200208DF80800218859
:105AA000201D00EB0110006800901CE02188201DE3
:105AB00000EB0110006800F0704058B12188201DF3
:105AC00000EB0110006820F070412288201D00EBDF
:105AD0000210016004208DF808002188201D00EBD1
