:020000040800F2
:1000000070B30020418B0008498B00084B8B00081F
:100010004D8B00084F8B0008518B0008000000003A
:10002000000000000000000000000000538B0008EA
:10003000558B00080000000037B100089BB3000892
:100040005B8B00085B8B00085B8B00085B8B0008F8
:100050005B8B00085B8B00085B8B00085B8B0008E8
:100060005B8B00085B8B00085B8B00085B8B0008D8
:100070005B8B00085B8B00085B8B00085B8B0008C8
:100080005B8B0008D13E00085B8B00085B8B00088F
:10009000B70500085B8B00085B8B00085B8B0008D2
:1000A0005B8B00085B8B00085B8B00085B8B000898
:1000B000E10F0008A71300085B8B00085B8B0008AA
:1000C0005B8B00085B8B00085B8B00085B8B000878
:1000D0005B8B00085B8B0008F73E00085B8B000819
:1000E0005B8B00085B8B00085B8B00085B8B000858
:1000F0005B8B00085B8B00085B8B00085B8B000848
:100100005B8B00085B8B00085B8B00085B8B000837
:100110005B8B00085B8B00085B8B00085B8B000827
:100120005B8B00085B8B00085B8B00085B8B000817
:100130005B8B00085B8B00085B8B00085B8B000807
:10014000AD0900084B0B00085B8B00085B8B0008B7
:100150005B8B00085B8B0008C13D00085B8B0008CF
:100160005B8B00085B8B00085B8B00085B8B0008D7
:100170005B8B00085B8B00085B8B00085B8B0008C7
:100180005B8B00085B8B0008DFF80CD00BF0BAFB30
:10019000004800476503000870B3002030BF72B606
:1001A000704762B6704780F30888704709E0002303
:1001B0001A461946184606F018FC4FF496700AF0D5
:1001C000C3FEF4E700BF8A4806F09AFA05200AF059
:1001D000BBFE874806F094FA05200AF0B5FE844875
:1001E00006F08EFA05200AF0AFFE2EE08148007876
:1001F00038B3814890F8040118B380480068414240
:100200007F4881607D48006841427D48C0F8941075
:1002100044F620600AF098FE7748B0F8D40000F564
:10022000B47001B27448A0F8D4100020714908706D
:1002300044F620600AF088FE002171488160C0F811
:1002400094104FF4FA700AF07FFECFE74BE006F00F
:1002500024F96C48007810B906F09BF93FE01020B3
:1002600069494883674840684468002533E020783E
:1002700000F00F0060B98020634908832078C0F344
:100280000311402006F0BFF920205F49488311E0A8
:10029000207800F00F01802006F0B5F92078C0F337
:1002A0000311402006F0AFF92088C0F3032120207D
:1002B00006F0A9F964684FF47A700AF045FE402010
:1002C00051490883802008832020088341F2707000
:1002D0000AF03AFE6D1C4B480078A842C7DC4FF488
:1002E0007A700AF031FEB2E705E004F08AFA4FF4C2
:1002F0007A700AF029FEF8E770B50446002500BFC1
:100300000BF061F80AF0F6FE054600200AF08BF8C3
:100310003E49086019233E4A00213E480AF0CEFAC1
:100320001E233D4A00213D480AF0C8FA28233C4AD2
:1003300000213C480AF0C2FA37233B4A00213B48DF
:100340000AF0BCFA64200AF0FFFD002006F089F9EB
:10035000022006F0BCF905200AF02EFD28460AF01E
:10036000CDFE70BD10B540F6B83005F0C4FF08F002
:100370004DFB4FF4806101F007022D4B18684FF6DA
:10038000FF0318402B4B034343EA0220284B18601D
:1003900000BF2948006840F007002749086006F0C0
:1003A000EDF806F089F906F045F905F0BFFF00F019
:1003B0004BF800F053F903F095FC03F023FD00F037
:1003C000BFFF00F0E5FD03F028FC05F098FB0221DB
:1003D0001A4805F057FC08F0FDFC0523184A0021D7
:1003E00018480AF06BFA08F01CFE002010BD00004F
:1003F000006400402C00002040210020300000203C
:10040000A829002034000020000002400000002045
:10041000CC0C0020E9020008CC0E00204D020008A0
:10042000CC1E0020C5010008CC200020AD01000832
:100430000CED00E00000FA053038024028470020AB
:10044000CC040020F902000800B58BB00121480659
:1004500007F055FF0121084607F01EFF09220B2176
:100460007B4807F05EFD09220C21794807F059FD11
:1004700002208DF81C004FF4C050069006A9744865
:1004800007F0C4FC00208DF826008DF827008DF8B9
:1004900028008DF829008DF82A008DF82B008DF8A2
:1004A00022008DF8230008208DF8240003208DF809
:1004B0002500ADF8200008A9664806F086FD022058
:1004C0008DF8120001208DF8130000208DF8140023
:1004D00046F22000ADF8080046F24000ADF80A00F0
:1004E00046F26000ADF80C004FF4C140ADF80E00CC
:1004F0000020ADF8100001208DF8150002A806F0CC
:10050000EEFD04208DF8120001208DF8130000206C
:100510008DF8140046F2A000ADF8080046F2C000C5
:10052000ADF80A0046F2E000ADF80C004FF4C2400E
:10053000ADF80E000020ADF8100001208DF8150078
:1005400002A806F0CCFD05208DF8120001208DF8E0
:10055000130000208DF8140046F22010ADF80800BA
:100560004FF4C440ADF80A004FF4C840ADF80C0099
:1005700046F22040ADF80E000020ADF8100001203A
:100580008DF8150002A806F0AAFD14208DF80400CD
:1005900003208DF8050000208DF8060001208DF85D
:1005A000070001A806F08DFC01220221294807F06E
:1005B00095F80BB000BD00B585B00221254807F0C5
:1005C000F5F878B10221234807F08BF90221214880
:1005D00007F0C9F86A4600211E4806F064FF0320B0
:1005E0001D49887005B000BD10B586B004461A4894
:1005F000807800F0010048B11748807800F00200D0
:1006000020B91548807800F00400F0B9207A28B9A4
:1006100000208DF80C0020688038019000208DF8B3
:100620000D00A07A8DF80E00A27A04F10B010DF1F5
:100630000F000AF0FBFE9DF80F004030C0B28DF8AD
:100640000F0001A9034806F039FE06B010BD0000F6
:1006500000000240006400404C00002000B58BB058
:100660000121880607F04BFE09220521FE4807F00C
:1006700058FC09220621FC4807F053FC02208DF8A3
:1006800018006020059005A9F74807F0BFFB40203F
:100690008DF8280002208DF8290000208DF82A000E
:1006A00001208DF82B000AA806F00BFC41208DF8E4
:1006B000280002208DF8290001208DF82A008DF8ED
:1006C0002B000AA806F0FDFB00208DF822008DF813
:1006D00023008DF824008DF825008DF826008DF874
:1006E00027008DF81E008DF81F0008208DF82000CF
:1006F00003208DF82100ADF81C0007A9DB4806F0A7
:1007000064FC0E208DF80E0001208DF80F000020F3
:100710008DF8100044F22000ADF8040044F24000CF
:10072000ADF8060044F26000ADF808004FF48140D7
:10073000ADF80A000020ADF80C0001208DF8110082
:1007400001A806F0CCFC0F208DF80E0001208DF8DA
:100750000F0000208DF8100044F2A000ADF8040056
:1007600044F2C000ADF8060044F2E000ADF8080025
:100770004FF48240ADF80A000020ADF80C000120D3
:100780008DF8110001A806F0AAFC10208DF80E00CB
:1007900001208DF80F0000208DF8100045F2200098
:1007A000ADF8040045F24000ADF8060045F26000E7
:1007B000ADF808004FF4A140ADF80A000120ADF8F3
:1007C0000C008DF8110001A806F089FC11208DF8AD
:1007D0000E0001208DF80F0000208DF8100045F26A
:1007E000A000ADF8040045F2C000ADF8060045F2E7
:1007F000E000ADF808004FF4A240ADF80A00012077
:10080000ADF80C008DF8110001A806F068FC12206C
:100810008DF80E0001208DF80F0000208DF81000DB
:1008200043F22000ADF804004FF44150ADF806004B
:1008300043F26000ADF808004FF44250ADF80A00F2
:100840000120ADF80C008DF8110001A806F047FC5E
:1008500013208DF80E0001208DF80F0000208DF878
:10086000100043F2A000ADF804004FF44350ADF87F
:10087000060043F2E000ADF808004FF44450ADF834
:100880000A000120ADF80C008DF8110001A806F057
:1008900026FC14208DF80E0000208DF80F0001209A
:1008A0008DF810000020ADF804004FF49040ADF832
:1008B00006004FF6FF70ADF808004FF47840ADF831
:1008C0000A000120ADF80C008DF8110001A806F017
:1008D00006FC15208DF80E0001208DF80F00002079
:1008E0008DF810004BF22000ADF804004BF24000F0
:1008F000ADF806004BF28000ADF80800ADF80A0034
:100900000120ADF80C008DF8110001A806F0E7FBFE
:1009100016208DF80E0001208DF80F0000208DF8B4
:1009200010004FF48150ADF804004FF48250ADF840
:1009300006004FF48350ADF808004FF48450ADF832
:100940000A000120ADF80C008DF8110001A806F096
:10095000C6FB17208DF80E0001208DF80F00002037
:100960008DF810004FF48550ADF804004FF4865018
:10097000ADF806004FF48750ADF808004FF48850EA
:10098000ADF80A000120ADF80C008DF8110001A8A7
:1009900006F0A5FB01220221344806F09FFE012249
:1009A0001021324806F09AFE0BB000BD10B52DEDB7
:1009B0000C8B86B002212D4806F0F8FE00287DD071
:1009C00001AA0021294806F06EFD0221274806F001
:1009D00088FF0198B0F5007F71D90198B0F5027FCA
:1009E0006DD89DF80D00002869D10198401EC4B251
:1009F00004A9481E03F01FF90DF11201481E03F06F
:100A00001AF905A9481E03F016F9BDF80F1004EBFA
:100A1000840000EBC400164A02EB00100184BDF80C
:100A2000111004EB840000EBC40002EB0010018302
:100A3000BDF8131004EB840000EBC40002EB0010BF
:100A4000C18204EB840101EBC40102EB0111B1F896
:100A5000C0000AF011FE41EC1A0B04EB840101EB1B
:100A6000C401034A06E000000004024000680040A0
:100A70004021002002EB011191F8C2000AF0FCFDB8
:100A800041EC1C0B04EB840000EBC400FC4A02EBBD
:100A90000010C06900EE100AB8EEC00ADFEDF90AD6
:100AA00020EE200A10EE101A08460AF02AFE53EC37
:100AB0001C2B0AF061FD53EC1A2B01E02FE02DE016
:100AC0000AF05AFD41EC190B04EB840000EBC40062
:100AD000EB4901EB001090ED321BB0EE410AF0EE55
:100AE000610A53EC102B51EC190B0AF045FD0AF08A
:100AF000D0FD00B204EB840101EBC401E04A02EB3B
:100B0000011188820AF0D0FA04EB840101EBC401E0
:100B1000DB4A02EB0111C1F8B80000BF00BF06B00C
:100B2000BDEC0C8B10BD4168491C41600021017374
:100B30000169491E0161828A511CCA1701EB926248
:100B40009211A1EB82128282704710B586B01021FB
:100B5000CD4806F02BFE00287DD001AA0121CA480D
:100B600006F0A1FC1021C84806F0BBFE1021C648C3
:100B700006F0F9FD9DF80C0004286DD19DF80D00DC
:100B80000028FAD10090029800F0FE040921029892
:100B9000B1EB102F7DD16946B7EE000A0DF10F00C1
:100BA00005F089FB0298C0B2C0EBC00000EB8000EA
:100BB000B64901EB800090F8880000EE900AF8EE4C
:100BC000600A80EE201ABDEEC10A10EE100AC4EBD6
:100BD000C40101EB8101AD4A02EB8101C8616946A4
:100BE0009FEDAB0A0DF10F0005F075FBBDEEC00ADD
:100BF00010EE100A00B2C4EBC40101EB8101A34A5C
:100C000002EB810108836946B2EE040A0DF10F0080
:100C100005F061FBC4EBC40000EB80009B4901EBD5
:100C2000800080ED080A0DF11601481E03F003F85C
:100C3000BDF81510C4EBC40000EB8000934A02EB32
:100C40008000A0F86610C4EBC40000EB80001146E1
:100C500001EB800001E0D8E0D6E0B0F86610C4EB0C
:100C6000C40000EB800002EB8000B0F86800081AB6
:100C700001B2C4EBC40000EB800002EB8000A0F8DE
:100C80006210C4EBC40000EB8000114601EB800051
:100C900000E0AEE090F8640080B10021C4EBC40035
:100CA00000EB800002EB800080F86410C4EBC4000D
:100CB00000EB800002EB8000A0F86210C4EBC400DF
:100CC00000EB8000714901EB8000B0F86610C4EBC6
:100CD000C40000EB80006D4A02EB8000A0F86810B1
:100CE000C4EBC40000EB8000114601EB8000B0F9BA
:100CF0006200002808DDC4EBC40000EB800001EBBB
:100D00008000B0F9620009E0C4EBC40000EB800091
:100D10005E4901EB8000B0F962004042B0F5E16F3E
:100D200027DDC4EBC40000EB8000584901EB8000D4
:100D3000B0F96210C4EBC40000EB8000534A02EB30
:100D40008000B0F96200002802DA4FF0FF3000E0C6
:100D50000120C0EB4012C2EB0020A1EB001001B259
:100D6000C4EBC40000EB8000484A02EB8000A0F80E
:100D70006210C4EBC40000EB8000444901EB80002A
:100D8000416AC4EBC40000EB8000404A02EB8000E3
:100D9000B0F962000144C4EBC40000EB800002EB38
:100DA00080004162C4EBC40000EB8000114601EBFF
:100DB00080004078E8B1C4EBC40000EB800001EB98
:100DC000800090ED080AC4EBC40000EB800001EB4A
:100DD000800080ED1B0AC4EBC40000EB800001EB37
:100DE0008000416AC4EBC40000EB800002EB80008D
:100DF00001670AF059F9C4EBC40101EB8101234AF0
:100E000002EB8101C86500BF00BF06B010BD70B520
:100E1000044604EB840000EBC400194901EB001008
:100E2000B0F90600002808DD04EB840000EBC400E4
:100E300001EB0010B0F9060009E004EB840000EBC0
:100E4000C4000F4901EB0010B0F90600404204EB6A
:100E5000840101EBC4010A4A02EB0111B1F8C4108C
:100E600088422ADD04EB840000EBC400114601EB4C
:100E70000010B0F9060000280CDA4FF0FF300AE04D
:100E8000402100200000B44300680040A829002051
:100E900000007A44012004EB840101EBC401374ACD
:100EA00002EB0111B1F8C410484301B204EB840015
:100EB00000EBC40002EB0010C18004EB840000EBE7
:100EC000C4002E4901EB0010007840B9002104EB6A
:100ED000840000EBC400294A02EB0010C180042CFE
:100EE00004DA4FF400702649086003E040F2FF1076
:100EF000234908600020224948720872082088723D
:100F000004F00B00450004EB840000EBC4001B4917
:100F100001EB0010C1881A480B30415302466B1C8C
:100F2000D118501902F087FE032C01D0072C03D1F1
:100F30001349144806F0C2F970BD30B585B00546B6
:100F40000C461148019000208DF8090004208DF80E
:100F5000080003208DF80A0056208DF80B004C2164
:100F60008DF80C108DF80D408DF80E50694605482F
:100F700006F0A4F90548447005B030BD40210020BA
:100F8000D02000200068004001010300582E0020FE
:100F900010B5E548006840F00100E349086041F6FB
:100FA00057300906C8620B2008850846008840F4BF
:100FB000807008800846008A20F0010008820846F8
:100FC000808940F0010088810846008840F00100D7
:100FD000088003231C220121084605F059FD10BD9D
:100FE00070B54FF08040008A00F0010000287AD0F0
:100FF00000240FE1C4EBC40101EB8101CB4A02EBF9
:10100000810002F073FBC4EBC40000EB8000C74911
:1010100011F8200000287FD0C4EBC40000EB800052
:1010200001EB80004078002865D0C4EBC40000EBE1
:10103000800001EB8000807806285AD2DFE800F0BB
:10104000180329425955C4EBC40101EB8101B74A89
:1010500002EB8101B1F9041000EE901AF8EEE00AFB
:10106000B0EE600A611CC8B2002102F0C1FC41E090
:10107000C4EBC40101EB8101AC4A02EB8101D1ED6B
:10108000050AB0EE600A611CC8B2002102F05EFCE5
:1010900030E0C4EBC40202EB8202A44B03EB8202F9
:1010A0009268C4EBC40303EB8303A04D05EB8303F9
:1010B00093F8883002FB03F1621CD0B2002202F0E8
:1010C0001DFB17E0C4EBC40101EB8101974A02EB61
:1010D0008101D1ED1D0AB0EE600A611CC8B2002189
:1010E00002F0DAFC06E098E016E0E0B202F04CFB19
:1010F00000E000BF17E0C4EBC40101EB81018B4AA3
:1011000002EB8101D1ED1D0AB0EE600A611CC8B28C
:10111000002102F0C1FC06E0611CC8B200219FED75
:10112000840A02F065FCC4EBC40000EB80007F4938
:1011300011F8200038B309F0B7FFC4EBC40101EB8C
:1011400081017A4A02EB8101C96D411AC4EBC400E6
:1011500000EB800002EB8000B0F86000814212D901
:10116000C4EBC40000EB8000114601EB800090F856
:101170005800401CC4EBC40101EB810102EB81016A
:1011800081F8580009E00020C4EBC40101EB8101A3
:10119000664A02EB810181F85800C4EBC40000EB01
:1011A0008000624901EB800090F858000A2815DDA4
:1011B0000121C4EBC40000EB80005C4A02EB80001C
:1011C00080F82D10621C032343EA021292B242F40B
:1011D0008071584A506802F058FD1AE00021C4EBB3
:1011E000C40000EB8000514A02EB800080F82D1013
:1011F000621C032343EA021292B242F480714D4A08
:10120000506802F034FD05464A494868294602F014
:1012100018FD641C042CFFF6EDAE4FF08040008AF0
:1012200020F001004FF08041088270BD70B5424946
:101230000878411C404A1170032807DD0020114640
:10124000087000220121104601F098FD002464E09E
:1012500004EB8400394901EB0010407800B309F039
:1012600023FF04EB8401354A02EB0111096C411A9A
:1012700004EB840002EB0010B0F8440081420FD967
:1012800004EB8400114601EB001090F83C00401C78
:10129000C1B204EB840002EB001080F83C1007E0C0
:1012A000002104EB8400254A02EB001080F83C107A
:1012B00004EB8400214901EB001090F83C000A285F
:1012C00012DD012104EB84001C4A02EB0010C177FF
:1012D000621C022343EA021292B242F48071154A60
:1012E000506802F0D2FC17E0002104EB8400134A9E
:1012F00002EB0010C177621C022343EA021292B291
:1013000042F480710B4A506802F0B1FC054609496D
:101310004868294602F095FC641C042C98DB70BDDB
:10132000704770477047000040380240A8290020ED
:10133000000000003400002004000020E827002006
:1013400010B54648006840F002004449086042F287
:101350002730434908600720091F088040482C387F
:10136000008840F480703E492C3908803C481C3885
:10137000008820F001003A491C390880081F0088C5
:1013800040F00100091F088035482C38008840F0E3
:10139000010033492C39088003231D22002101203C
:1013A00005F076FB10BD10B52D481C38008800F004
:1013B0000100002848D000F081FD002436E004EB55
:1013C000840000EBC400274901EB0010007828B32B
:1013D00004EB840000EBC40001EB00104078F0B196
:1013E00004EB840000EBC40001EB001080780128BE
:1013F00006D0022805D004280BD005280DD104E022
:101400000CE020B200F06CFA08E020B200F0C1FA63
:1014100004E020B200F062FC00E000BF02E020B275
:1014200000F0B7FAE0B2FFF7F2FC641C082CC6DB50
:101430000D490E4804F06BFB0D48407A20B10222A2
:1014400009490C4804F06EFC05481C38008820F05F
:10145000010003491C39088010BD000040380240DB
:101460002C04004040210020C0670020006800409C
:10147000582E00202847002070B52DED0E8B00BFA0
:101480004FF40050FE490880FE4908802420FC49A2
:1014900088701320FB49887042F22830F849888010
:1014A00043F69910F74988809FEDF70BF44880EDDB
:1014B000020B9FEDF50B084680ED020B0120F4496D
:1014C00008724FF47A7048810020087308709FED0D
:1014D000F10A084680ED010A4FF4FA70C881400015
:1014E00008824000EC498883002404EB840000EB70
:1014F000C400EA4901EB00108030E24D2ECD4030AF
:101500002EC0002004EB840101EBC401E34A02EB8E
:1015100001110870012004EB840101EBC40102EB0E
:1015200001114870042004EB840101EBC40102EBBB
:10153000011188704FF2542004EB840101EBC401C7
:1015400002EB01118880642104EB840000EBC400ED
:1015500002EB0010018104EB840000EBC40002EBFD
:101560000010C180D16804EB840202EBC402CB4BB3
:1015700003EB021202F13C00DFEDC91A9FEDC91A1C
:10158000DFEDC90AB1EE040A04F0EAFDC34AB2F97C
:10159000081004EB840202EBC402C04B03EB0212FE
:1015A00002F16400F7EE001A9FEDBE1ADFEDBF0AEC
:1015B000B2EE000A04F0D4FD04EB840101EBC40197
:1015C000B64A02EB011101F18C001422B04909F076
:1015D0002DFF012404EB840000EBC400AF4901EBB4
:1015E00000108030A74D2ECD40302EC0002004EBDF
:1015F000840101EBC401A94A02EB0111087001202A
:1016000004EB840101EBC40102EB011148700520D9
:1016100004EB840101EBC40102EB0111887000208E
:1016200004EB840101EBC40102EB011188804FF44B
:101630007A7104EB840000EBC40002EB001001811E
:10164000642104EB840000EBC40002EB0010C180B5
:10165000D16804EB840202EBC402904B03EB02124C
:1016600002F13C00DFED8E1A9FED8E1ADFED8E0A3F
:10167000B1EE040A04F074FD884AB2F9081004EBD4
:10168000840202EBC402854B03EB021202F16400F8
:10169000F7EE001A9FED831ADFED840AB2EE000A1E
:1016A00004F05EFD04EB840101EBC4017B4A02EB14
:1016B000011101F18C001422754909F0B7FE0025D3
:1016C00001E105EB850000EBC500744901EB00105A
:1016D00071490968C0F8A0106F48416805EB8500A2
:1016E00000EBC5006D4A02EB0010C0F8A41005EB3A
:1016F000850101EBC50102EB011101F1A8000A22ED
:101700006549083109F092FE6348418A05EB85007E
:1017100000EBC500614A02EB0010A0F8B21005EB27
:10172000850000EBC500114601EB0010A0305A4BBC
:1017300059699A69DB6914300EC005EB850101EB2C
:10174000C501564A02EB0111B1F8C00009F094FF3F
:1017500041EC1A0B05EB850101EBC5014F4A02EB89
:10176000011191F8C20009F087FF41EC1C0B05EB59
:10177000850000EBC500494A02EB001090ED240AF9
:1017800010EE101A084609F0BCFF41EC1E0B05EBE9
:10179000850000EBC500414901EB001090ED321BC4
:1017A000B0EE410AF0EE610A53EC102B51EC1E0B27
:1017B00009F070FE53EC1C2B09F06CFE53EC1A2B55
:1017C00009F068FE9FED3A0B53EC102B09F0D4FEA4
:1017D00009F07EFF05EB850101EBC5012F4A02EB05
:1017E0000111C1F8A00005EB850101EBC50102EB79
:1017F0000111B1F8C00009F03FFF41EC1A0B05EBF5
:10180000850101EBC501254A02EB011191F8C200E7
:1018100009F032FF41EC1C0B05EB850101EBC50122
:101820001E4A02EB0111B1F9040009F014FF41EC6A
:101830001E0B05EB850000EBC500184901EB0010FD
:1018400090ED321BB0EE410AF0EE610A53EC102B22
:1018500051EC1E0B09F01EFE53EC1C2B09F01AFE76
:1018600053EC1A2B09F016FE9FED110B53EC102BC5
:1018700009F082FE09F00DFF05EB85011CE0000078
:10188000E8200020F8200020000000000000F03FC9
:10189000082100200000FA431C21002040210020E4
:1018A000CDCCCC3E00000000CDCC4C3E9A99993E68
:1018B000000000000080764001EBC501FE4A02EB0B
:1018C0000111C8606D1C082DFFF6FBAEBDEC0E8B40
:1018D00070BD002239210A54C26100218182704703
:1018E00010B5044604EB840000EBC400F24901EBA0
:1018F0000010D0ED1D0A04EB840000EBC40001EBE6
:101900000010B0F9080000EE100AB8EEC00A20EE90
:10191000800ABDEEC00A10EE100A04EB840101EB50
:10192000C401E54A02EB0111486604EB840000EBB8
:10193000C400114601EB0010B0F9181004EB84004C
:1019400000EBC40002EB0010C16704EB840101EB63
:10195000C40102EB011101F1640004F011FC04EB7D
:10196000840000EBC400D44901EB0010C18804EBF3
:10197000840000EBC400D04A02EB0010806F0844E2
:1019800001B204EB840000EBC40002EB0010C18044
:1019900010BD10B52DED0E8B044604EB840101EB58
:1019A000C401C54A02EB0111B1F8C00009F064FEA0
:1019B00041EC1A0B04EB840101EBC401BE4A02EBBB
:1019C000011191F8C20009F057FE41EC1C0B04EB29
:1019D000840101EBC401B84A02EB0111B1F9040022
:1019E00009F039FE41EC1E0B04EB840000EBC4004F
:1019F000B14901EB001090ED321BB0EE410AF0EE60
:101A0000610A53EC102B51EC1E0B09F043FD53EC13
:101A10001C2B09F03FFD53EC1A2B09F03BFD1FED89
:101A20005C0B53EC102B09F0A7FD09F032FE04EB20
:101A3000840101EBC401A04A02EB0111C86004EB70
:101A4000840000EBC400114601EB0010C06804EBF9
:101A5000840101EBC40102EB0111C86304EB8400B3
:101A600000EBC400114601EB0010407870B904EBA4
:101A7000840000EBC40001EB0010D0F8A40004EBDC
:101A8000840101EBC40102EB0111C86304EB840083
:101A900000EBC400884901EB001090F88C0088B37B
:101AA00004EB840000EBC40001EB0010C06B0028C5
:101AB00007DD04EB840000EBC40001EB0010C06BF9
:101AC00008E004EB840000EBC4007B4901EB00104C
:101AD000C06B404204EB840101EBC401764A02EB87
:101AE0000111D1F8A01088421FD904EB840000EB4B
:101AF000C400114601EB0010C06B002803DA4FF060
:101B0000FF3001E011E0012004EB840101EBC4018E
:101B1000694A02EB0111D1F8A010484304EB84019B
:101B200001EBC40102EB0111C86304EB840000EB7C
:101B3000C400614901EB0010C16904EB840000EBB3
:101B4000C4005D4A02EB0010416504EB840101EB27
:101B5000C40102EB011101F13C0004F011FB04EBA4
:101B6000840000EBC400544901EB001090F894008D
:101B700088B304EB840000EBC40001EB0010406E5E
:101B8000002807DD04EB840000EBC40001EB00102B
:101B9000406E08E004EB840000EBC400464901EB12
:101BA0000010406E404204EB840101EBC401424A44
:101BB00002EB0111B1F8961088421FDD04EB84009E
:101BC00000EBC400114601EB0010406E002803DA60
:101BD0004FF0FF3001E011E0012004EB840101EB44
:101BE000C401354A02EB0111B1F89610484304EBE9
:101BF000840101EBC40102EB0111486604EB84008F
:101C000000EBC4002C4901EB0010B0F9181004EBF4
:101C1000840000EBC400284A02EB0010C16704EB0B
:101C2000840101EBC40102EB011101F1640004F035
:101C3000A7FA04EB840000EBC4001F4901EB00107D
:101C4000C18804EB840000EBC4001B4A02EB0010C7
:101C5000806F084401B204EB840000EBC40002EB87
:101C60000010C18004EB840000EBC400114601EBBE
:101C70000010D0F8AC00002808DD04EB840000EB75
:101C8000C40001EB0010D0F8AC0009E004EB8400C4
:101C900000EBC400084901EB0010D0F8AC00404252
:101CA0003C280EDA012004EB840101EBC401024A56
:101CB00002EB011102E000004021002081F8340015
:101CC00009E0002004EB840101EBC401FE4A02EBB1
:101CD000011181F83400BDEC0E8B10BD10B5044627
:101CE00004EB840000EBC400F74901EB0010B0F9ED
:101CF0009A0004EB840101EBC401F34A02EB0111E9
:101D0000486604EB840000EBC400114601EB0010B0
:101D1000B0F9181004EB840000EBC40002EB0010D3
:101D2000C16704EB840101EBC40102EB011101F175
:101D3000640004F025FA04EB840000EBC400E249DF
:101D400001EB0010C18804EB840000EBC400DE4A04
:101D500002EB0010806F084401B204EB840000EB3A
:101D6000C40002EB0010C18004EB840000EBC4004F
:101D7000114601EB0010B0F90600002808DD04EB65
:101D8000840000EBC40001EB0010B0F9060009E08C
:101D900004EB840000EBC400CB4901EB0010B0F968
:101DA00006004042C949098A88421ADD04EB8400D2
:101DB00000EBC400C44901EB0010B0F90600002894
:101DC00002DA4FF0FF3000E00120C049098A4843A1
:101DD00001B204EB840000EBC400BB4A02EB00102C
:101DE000C18004EB840000EBC400B74901EB001094
:101DF000B0F9A800002808DD04EB840000EBC40063
:101E000001EB0010B0F9A80009E004EB840000EB3E
:101E1000C400AD4901EB0010B0F9A80040423228DF
:101E200014DA04EB840000EBC400A74901EB0010B6
:101E3000B0F8B000401C81B204EB840000EBC40099
:101E4000A14A02EB0010A0F8B01009E0002104EB59
:101E5000840000EBC4009C4A02EB0010A0F8B01014
:101E600004EB840000EBC400974901EB0010B0F8CC
:101E7000B000FA2821DD002104EB840000EBC4004F
:101E8000914A02EB0010A0F8B01004EB840000EBC4
:101E9000C40002EB0010C161052004EB840101EBDA
:101EA000C40102EB01118870012104EB840000EBF6
:101EB000C40002EB001080F8351010BD70B500248E
:101EC0001EE204EB840000EBC4007F4901EB00102C
:101ED000018C04EB840000EBC4007B4A02EB001091
:101EE000008E081A01B204EB840000EBC40002EB80
:101EF0000010A0F8A81004EB840000EBC400114609
:101F000001EB0010808A04EB840101EBC40102EBB9
:101F10000111888404EB840000EBC400114601EB3E
:101F20000010C18A04EB840000EBC40002EB001037
:101F3000C18404EB840000EBC400114601EB0010E7
:101F4000018B04EB840000EBC40002EB0010018560
:101F500004EB840000EBC400114601EB0010C169E2
:101F600004EB840000EBC40002EB0010C16204EB40
:101F7000840000EBC400114601EB0010018C04EB5F
:101F8000840000EBC40002EB0010018604EB840027
:101F900000EBC400114601EB0010B0F9A8000028C6
:101FA00008DD04EB840000EBC40001EB0010B0F985
:101FB000A80009E004EB840000EBC400424901EBF7
:101FC0000010B0F9A8004042B0F57A6F2CDD04EBA8
:101FD000840000EBC4003C4901EB0010B0F9A810EC
:101FE00004EB840000EBC400374A02EB0010B0F9A8
:101FF000A800002802DA4FF0FF3000E0012004EBD7
:10200000840202EBC402304B03EB0212B2F8C02090
:1020100000FB121001B204EB840000EBC4001A466E
:1020200002EB0010A0F8A81004EB840000EBC40041
:10203000254901EB0010C16904EB840000EBC400EA
:10204000214A02EB0010B0F9A800014404EB84001F
:1020500000EBC40002EB0010C16104EB840000EB54
:10206000C400114601EB0010C16904EB840000EBD1
:10207000C40002EB0010C068091A04EB840000EBF6
:10208000C40002EB0010C0F8AC1004EB840000EBBD
:10209000C400114601EB0010007800287CD004EB4E
:1020A000840000EBC40001EB0010B0F9061004EB53
:1020B000840000EBC40002EB0010B0F8C400081A62
:1020C000002818DD04E00000402100200821002045
:1020D00004EB840000EBC400114601EB0010B0F9E2
:1020E000061004EB840000EBC40002EB0010B0F813
:1020F000C400081A12E004EB840000EBC40082491B
:1021000001EB0010B0F8C41004EB840000EBC40035
:102110007D4A02EB0010B0F90600081A322847DDAC
:1021200004EB840000EBC400774901EB0010B0F829
:10213000B200401C81B204EB840000EBC400724A80
:1021400002EB0010A0F8B21004EB840000EBC40016
:10215000114601EB0010B0F8B200B0F57A7F1CDD3B
:10216000012104EB840000EBC40002EB001080F8B6
:10217000361004EB840000EBC400114601EB0010A4
:1021800090F89800F0B1002004EB840101EBC40149
:1021900002EB0111087015E00AE0002104EB840055
:1021A00000EBC400584A02EB001080F8361009E03A
:1021B000002104EB840000EBC400534A02EB001042
:1021C000A0F8B21004EB840000EBC4004E4901EB10
:1021D0000010407878B104EB840000EBC40001EB00
:1021E0000010C16904EB840000EBC400464A02EB16
:1021F0000010C0F8A41004EB840000EBC4004249B6
:1022000001EB001090F8390040B104EB840101EBC0
:10221000C4013D4A02EB0110FFF75BFB04EB8400B5
:1022200000EBC400384901EB00100078E8B308F077
:102230003BFF04EB840101EBC401334A02EB0111C3
:10224000D1F8B810411A04EB840000EBC40002EB93
:102250000010B0F8BC00814236D904EB840000EBDA
:10226000C400114601EB001090F8B400401CC1B24C
:1022700004EB840000EBC40002EB001080F8B41003
:102280000A2916DD012104EB840000EBC40002EBF7
:10229000001080F83710621C012343EA021292B248
:1022A00042F48071194A506800E00DE001F0EDFC45
:1022B00025E0002104EB840000EBC400124A02EB8D
:1022C000001080F837101AE0002104EB840000EBC6
:1022D000C4000D4A02EB001080F8B410621C012308
:1022E00043EA021292B242F48071084A506801F047
:1022F000BEFC054605494868294601F0A2FC641C5D
:10230000082CFFF6DEAD70BD402100203400002017
:1023100010B54FF48040FC490880B7EE000A08462B
:1023200080ED010A4FF48040F8490880B7EE000ABA
:10233000084680ED010A4FF47A60F54908809FED68
:10234000F50A084680ED010A4FF47A60F2490880E8
:102350009FEDF20A084680ED010A0020F04908705E
:102360009FEDF00A084680ED010A002008724FF444
:102370007A704881002008734FF4FA70C8814000D9
:1023800008824000E8490882002428E004EB840128
:10239000E64A02EB011101F120001422E04909F0A4
:1023A00045F804EB8400E14901EB0010DE490A68BE
:1023B000426389880187DC48C18804EB8400DB4ADA
:1023C00002EB0010418704EB8400114601EB001082
:1023D000D54B9968DA681B693C300EC0641C052C2B
:1023E000D4DB10BD10B586B00446002001908DF8F6
:1023F0000D008DF80C0008208DF80E0001208DF8DE
:102400000F0000218DF810108DF811108DF81210AA
:102410008DF813108DF814108DF815108DF8161016
:1024200001A9204604F04AFF06B010BD0FB438B52C
:10243000044606A80090009802C80090009804C8BE
:102440000090BB4B5B88581CC31700EB93639B1138
:10245000A0EB8313B64D2D88AB4205D10120B54BBF
:10246000D87238BC5DF814FB04F54070B04B5D8841
:102470001B1D03EB051318609DF81400012822D1E1
:102480000423AB484588001D00EB05100371412370
:10249000A7484588001D00EB051043714323A4485D
:1024A0004588001D00EB051083710023A048458876
:1024B000001D00EB0510C3719D484588001D00EB11
:1024C000051003722CE09DF81400022828D108237F
:1024D00097484588001D00EB05100371412394487F
:1024E0004588001D00EB0510437143239048458843
:1024F000001D00EB0510837100238D484588001DE9
:1025000000EB0510C3718A484588001D00EB0510DB
:10251000037287484388001D00EB0310C0F80920B0
:1025200083484588001D00EB05104173804B5B8894
:10253000581CC31700EB93639B11A0EB83137C4DD6
:102540006B800020009000BF8BE710B50246784BEF
:102550005B88581CC31700EB93639B11A0EB83139C
:10256000734C2488A34203D10120724BD87210BD52
:1025700002F540706E4B5C881B1D03EB0413186062
:1025800004236B484488001D00EB041003714223B0
:1025900067484488001D00EB0410437147236448DA
:1025A0004488001D00EB04108371002360484488B8
:1025B000001D00EB0410C3715D484488001D00EB52
:1025C000041003725A484388001D00EB0310417346
:1025D000574B5B88581CC31700EB93639B11A0EB10
:1025E0008313534C638000BFC1E70FB438B5044672
:1025F00006A80090009802C80090009804C80090B7
:102600004B4B5B88581CC31700EB93639B11A0EBEB
:102610008313474D2D88AB4205D10120454BD8721D
:1026200038BC5DF814FB04F54070414B5D881B1D00
:1026300003EB051318609DF81400012822D1042330
:102640003B484588001D00EB0510037144233848C2
:102650004588001D00EB051043714323344845882D
:10266000001D00EB05108371002331484588001DD3
:1026700000EB0510C3712E484588001D00EB0510C6
:1026800003722CE09DF81400022828D10823284862
:102690004588001D00EB051003714423244845883C
:1026A000001D00EB05104371432321484588001DA0
:1026B00000EB0510837100231D484588001D00EBC9
:1026C0000510C3711A484588001D00EB0510037200
:1026D00017484388001D00EB0310C0F80920144878
:1026E0004588001D00EB05104173114B5B88581C99
:1026F000C31700EB93639B11A0EB83130C4D6B800E
:102700000020009000BF8BE7080000201000002090
:1027100018000020CDCC6C4020000020E438964109
:10272000C027002000003444D4270020E8270020E0
:10273000C0670020582E00200FB478B507A900917B
:10274000009904C90091009908C90091FE4C648861
:10275000611CCC1701EB9464A411A1EB8414FA4D15
:102760002D88AC4205D10121F84CE17278BC5DF8AE
:1027700014FB00F54071F44C6588241D04EB05142E
:1027800021609DF81810012922D10424EE494D88BA
:10279000091D01EB05110C714A24EB494D88091DF7
:1027A00001EB05114C715624E7494D88091D01EBD9
:1027B00005118C710024E4494D88091D01EB0511B8
:1027C000CC71E1494D88091D01EB05110C7239E00E
:1027D0009DF81810022935D1441E04EB8404DC4D09
:1027E00005EB0414B4F848405C433C2594FBF5F138
:1027F0000825D54C6688241D04EB061425714A254E
:10280000D14C6688241D04EB061465715625CE4C08
:102810006688241D04EB0614A5710025CA4C668841
:10282000241D04EB0614E571C74C6688241D04EBD7
:1028300006142572C44C6588241D04EB0514C4F8E5
:10284000091000BFC0494D88091D01EB05114A73ED
:10285000BD4C6488611CCC1701EB9464A411A1EBFE
:102860008414B94D6C800021009100BF7EE710B543
:102870000246B54B5B88581CC31700EB93639B1152
:10288000A0EB8313B04C2488A34203D10120AF4BAB
:10289000D87210BD02F54070AB4B5C881B1D03EB7A
:1028A000041318600423A8484488001D00EB04109A
:1028B00003714923A4484488001D00EB04104371B0
:1028C0005123A1484488001D00EB041083710023AC
:1028D0009D484488001D00EB0410C37180239A4872
:1028E0004488001D00EB0410037297484388001DC4
:1028F00000EB03104173944B5B88581CC31700EB2B
:1029000093639B11A0EB83138F4C638000BFC0E7E0
:102910000FB438B5044606A80090009802C800908D
:10292000009804C80090884B5B88581CC31700EBC4
:1029300093639B11A0EB8313834D2D88AB4205D18C
:102940000120824BD87238BC5DF814FB04F540704E
:102950007D4B5D881B1D03EB051318609DF814006B
:10296000012823D1042378484588001D00EB051079
:1029700003714D2374484588001D00EB0510437119
:102980004F2371484588001D00EB0510837100231B
:102990006D484588001D00EB0510C37140236A484F
:1029A0004588001D00EB051003723DE09DF8140002
:1029B000022839D1082364484588001D00EB051022
:1029C00003714D2360484588001D00EB05104371DD
:1029D0004F235D484588001D00EB051083710023DF
:1029E00059484588001D00EB0510C37156484588BD
:1029F000001D00EB0510037253484588001D00EBD5
:102A00000510427250484588001D00EB0510837286
:102A10004D484588001D00EB0510C3724A484588A3
:102A2000001D00EB0510037347484588001D00EBAF
:102A300005104173444B5B88581CC31700EB93632C
:102A40009B11A0EB8313404D6B800020009000BFD2
:102A500079E770B586B006460C46154600208DF81D
:102A60000C008DF80D0006F540700190012C0ED180
:102A700004208DF80E004D208DF80F004F218DF8A9
:102A8000101000218DF811108DF8121017E0022C93
:102A900015D108208DF80E004D208DF80F004F2124
:102AA0008DF8101000218DF811108DF812108DF88E
:102AB00013508DF814108DF815108DF8161001A90B
:102AC000244804F0FBFB06B070BD0FB478B50022BB
:102AD000002307A90091009904C90091009908C931
:102AE0000091194C6488611CCC1701EB9464A4110B
:102AF000A1EB8414144D2D88AC4205D10121134C57
:102B0000E17278BC5DF814FB00F540710E4C6588ED
:102B1000241D04EB051421609DF8181001292CD107
:102B2000042409494D88091D01EB05110C7150243D
:102B300005494D88091D01EB05114C7141240249DD
:102B40004D88091D08E00000C0670020582E0020B5
:102B5000E82700200064004001EB05118C7100247F
:102B6000FE494D88091D01EB0511CC71FB494D88CB
:102B7000091D01EB05110C724BE09DF8181002299C
:102B800047D1441E04EB8404F54D05EB041494ED89
:102B9000130A9FEDF41AC0EE010A441E04EB8404EC
:102BA00005EB0414B4F848405C4300EE104AB8EE5C
:102BB000C00A20EE800ABDEEC00A10EE101A0825E9
:102BC000E64C6688241D04EB061425715025E34C61
:102BD0006688241D04EB061465714125DF4C668868
:102BE000241D04EB0614A5710025DC4C6688241D09
:102BF00004EB0614E571D94C6688241D04EB061419
:102C00002572D64C6588241D04EB0514C4F8091000
:102C100000BFD2494D88091D01EB05114A73CF4C05
:102C20006488611CCC1701EB9464A411A1EB84149B
:102C3000CA4D6C800021009100BF62E710B50246CA
:102C4000C64B5B88581CC31700EB93639B11A0EB2A
:102C50008313C24C2488A34203D10120C24BD872F3
:102C600010BD02F54070BD4B5C881B1D03EB0413C7
:102C700018600423B9484488001D00EB0410037158
:102C80005023B6484488001D00EB041043714523CF
:102C9000B2484488001D00EB041083710023AF4844
:102CA0004488001D00EB0410C371AC484488001D2B
:102CB00000EB04100372A9484388001D00EB0310C9
:102CC0004173A64B5B88581CC31700EB93639B11A1
:102CD000A0EB8313A14C638000BFC1E710B502468F
:102CE0009E4B5B88581CC31700EB93639B11A0EBB2
:102CF00083139A4C2488A34203D101209A4BD872A3
:102D000010BD02F54070954B5C881B1D03EB04134E
:102D10001860042391484488001D00EB04100371DF
:102D200050238E484488001D00EB04104371522349
:102D30008A484488001D00EB0410837100238748F3
:102D40004488001D00EB0410C37184484488001DB2
:102D500000EB0410037281484388001D00EB031050
:102D600041737E4B5B88581CC31700EB93639B1128
:102D7000A0EB8313794C638000BFC1E70FB438B573
:102D8000044606A80090009802C80090009804C865
:102D90000090724B5B88581CC31700EB93639B1128
:102DA000A0EB83136D4D2D88AB4205D101206E4BF6
:102DB000D87238BC5DF814FB04F54070674B5D8831
:102DC0001B1D03EB051318609DF81400012822D188
:102DD000042362484588001D00EB05100371502351
:102DE0005E484588001D00EB0510437158235B4881
:102DF0004588001D00EB0510837100235748458866
:102E0000001D00EB0510C37154484588001D00EB00
:102E1000051003722CE09DF81400022828D1082325
:102E20004E484588001D00EB0510037150234B48A8
:102E30004588001D00EB051043715823474845881D
:102E4000001D00EB05108371002344484588001DD8
:102E500000EB0510C37141484588001D00EB0510CB
:102E600003723E484388001D00EB0310C0F80920A0
:102E70003A484588001D00EB05104173374B5B88CD
:102E8000581CC31700EB93639B11A0EB8313334DC6
:102E90006B800020009000BF8BE70FB438B504466C
:102EA00006A80090009802C80090009804C80090FE
:102EB0002A4B5B88581CC31700EB93639B11A0EB54
:102EC0008313264D2D88AB4205D10120264BD872A5
:102ED00038BC5DF814FB04F54070204B5D881B1D69
:102EE00003EB051318609DF81400012822D1042378
:102EF0001A484588001D00EB05100371532317483D
:102F00004588001D00EB0510437144231348458894
:102F1000001D00EB05108371002310484588001D3B
:102F200000EB0510C3710D484588001D00EB05102E
:102F3000037235E09DF81400022831D108230748B8
:102F40004588001D00EB0510037153230348458895
:102F5000001D00EB05104371442307E0C06700200B
:102F6000E82700200000B443582E0020FE48458882
:102F7000001D00EB051083710023FB484588001DF0
:102F800000EB0510C371F8484588001D00EB0510E3
:102F90000372F5484388001D00EB0310C0F80920B8
:102FA000F1484588001D00EB05104173EE4B5B882E
:102FB000581CC31700EB93639B11A0EB8313EA4DDE
:102FC0006B800020009000BF82E70FB478B507A99E
:102FD0000091009904C90091009908C90091E24C40
:102FE0006488611CCC1701EB9464A411A1EB8414D8
:102FF000DD4D2D88AC4205D10121DC4CE17278BC5D
:103000005DF814FB00F54071D74C6588241D04EB76
:10301000051421609DF81810012922D10424D249F9
:103020004D88091D01EB05110C715324CE494D88C3
:10303000091D01EB05114C715024CB494D88091D28
:1030400001EB05118C710024C7494D88091D01EB66
:103050000511CC714024C4494D88091D01EB0511AF
:103060000C729DF81810022935D1441E04EB84041B
:10307000BF4D05EB0414B4F848405C433C2594FB79
:10308000F5F10825B84C6688241D04EB061425715B
:103090005325B54C6688241D04EB06146571502534
:1030A000B14C6688241D04EB0614A5710025AE4CB6
:1030B0006688241D04EB0614E571AB4C6688241D5C
:1030C00004EB06142572A84C6588241D04EB051436
:1030D000C4F8091000BFA4494D88091D01EB051172
:1030E0004A73A14C6488611CCC1701EB9464A41151
:1030F000A1EB84149C4D6C800021009100BF7EE701
:1031000010B50246984B5B88581CC31700EB9363BD
:103110009B11A0EB8313944C2488A34203D101207C
:10312000924BD87210BD02F540708F4B5C881B1D0E
:1031300003EB0413186004238B484488001D00EB44
:1031400004100371532388484488001D00EB0410C9
:103150004371542384484488001D00EB041083719C
:10316000002381484488001D00EB0410C3717E4891
:103170004488001D00EB041003727B484388001D47
:1031800000EB03104173784B5B88581CC31700EBAE
:1031900093639B11A0EB8313734C638000BFC1E763
:1031A0000FB438B5044606A80090009802C80090F5
:1031B0000098006800EE100A0098001D00906A4A0E
:1031C0005288501CC21700EB92629211A0EB82123F
:1031D000654B1B889A4205D10120644AD07238BCE5
:1031E0005DF814FB04F540705F4A5388121D02EB32
:1031F000031210609DF81400022833D1F8EEC00AC3
:103200009FED5C1AC0EE811AFDEEE10A10EE900A05
:103210000823554A5588121D02EB051213715423D9
:10322000514A5588121D02EB0512537143234E4A31
:103230005588121D02EB0512937100234A4A5588E6
:10324000121D02EB0512D371474A5588121D02EB7D
:1032500005121372444A5388121D02EB0312C2F87E
:10326000090000BF40484388001D00EB0310417374
:103270003D4A5288501CC21700EB92629211A0EB9B
:103280008212394B5A800020009000BFA7E70FB48C
:1032900038B5044606A80090009802C8009000982F
:1032A00004C80090304B5B88581CC31700EB936335
:1032B0009B11A0EB83132C4D2D88AB4205D101202F
:1032C0002A4BD87238BC5DF814FB04F54070264BCD
:1032D0005D881B1D03EB051318609DF81400012881
:1032E00022D1042320484588001D00EB05100371FE
:1032F00055231D484588001D00EB051043714D23E3
:1033000019484588001D00EB0510837100231648FD
:103310004588001D00EB0510C37113484588001D4A
:1033200000EB0510037246E09DF81400022842D11C
:1033300008230D484588001D00EB05100371552337
:1033400009484588001D00EB051043714D230648D0
:103350004588001D00EB0510837100230248458855
:10336000001D00EB051007E0C0670020582E00206C
:10337000E82700200000C842C37141484588001D6D
:1033800000EB051003723E484588001D00EB051058
:1033900042723B484588001D00EB05108372384897
:1033A0004588001D00EB0510C37235484588001D97
:1033B00000EB0510037332484588001D00EB051033
:1033C00041732F4B5B88581CC31700EB93639B1111
:1033D000A0EB83132A4D6B800020009000BF71E7A3
:1033E00010B50246264B5B88581CC31700EB93634D
:1033F0009B11A0EB8313224C2488A34203D101200C
:10340000204BD87210BD02F540701D4B5C881B1D0F
:1034100003EB04131860042319484488001D00EBD3
:1034200004100371562316484488001D00EB041055
:103430004371582312484488001D00EB0410837127
:1034400000230F484488001D00EB0410C3710C4892
:103450004488001D00EB0410037209484388001DD6
:1034600000EB03104173064B5B88581CC31700EB3D
:1034700093639B11A0EB8313014C638000BFC1E7F2
:10348000C0670020582E002070B500BF0720FE49FD
:1034900008701520FD4908700020FD49087147F2A9
:1034A00030508860012008734FF47A700861400042
:1034B000F8490881012008730024C4EBC40000EB24
:1034C0008000F54901EB8000F049097880F8881008
:1034D0000020C4EBC40101EB8101EF4A02F8210096
:1034E0000120C4EBC40101EB810102EB81014870B2
:1034F0000220C4EBC40101EB810102EB8101887061
:103500000A20C4EBC40101EB810102EB8101888038
:103510006FF0C701C4EBC40000EB800002EB800039
:1035200081600021C4EBC40000EB800002EB80004E
:103530000161B7EE000AC4EBC40000EB8000114645
:1035400001EB800080ED050AC4EBC40202EB8202AD
:103550000B4603EB82021169C4EBC40202EB820248
:1035600003EB820202F13000F7EE001A9FEDCB1A56
:10357000DFEDCB0AB6EE000A02F0F2FD0124C4EB47
:10358000C40000EB8000C44901EB8000BF4909780A
:1035900080F888100020C4EBC40101EB8101BE4A11
:1035A00002F821000120C4EBC40101EB810102EB10
:1035B000810148700220C4EBC40101EB810102EBE0
:1035C000810188700A20C4EBC40101EB810102EB88
:1035D000810188806FF0C701C4EBC40000EB80005C
:1035E00002EB800081600021C4EBC40000EB80008E
:1035F00002EB80000161B7EE000AC4EBC40000EBEF
:103600008000114601EB800080ED050AC4EBC40286
:1036100002EB82020B4603EB82021169C4EBC40287
:1036200002EB820203EB820202F13000F7EE001A95
:103630009FED9A1ADFED9A0AB6EE000A02F090FDAD
:10364000002550E0C5EBC50101EB8101924A02EB78
:10365000810101F1740014228D4907F0E7FEC5EBEA
:10366000C50101EB81018C4A02EB810101F1580097
:103670000A22884907F0DAFE86484189C5EBC50071
:1036800000EB8000844A02EB8000A0F86210C5EBDA
:10369000C50000EB8000114601EB80007D4989895F
:1036A000A0F864107B48C189C5EBC50000EB800021
:1036B00002EB8000A0F866107648018AC5EBC500D1
:1036C00000EB800002EB8000A0F86810C5EBC5009D
:1036D00000EB8000114601EB80006E4A516992694F
:1036E000C0E91B126D1C042DACDB70BD2E21095CE2
:1036F00019B100222E210A5442627047F8B50446DF
:103700000E4615460020009066494988481CC1179E
:1037100000EB91618911A0EB8111624A12889142FC
:1037200003D101206049C872F8BD5E494A88091D6D
:1037300001EB0211481D6A46314602F07FFD44F05C
:10374000704040F4407157484288001D00EB021061
:1037500001600098C1B253484288001D00EB02107E
:10376000017150484188001D00EB011045734D491F
:103770004988481CC11700EB91618911A0EB8111A8
:10378000484A518000BFCFE770B50446C4EBC4007F
:1037900000EB8000404901EB80000069C4EBC401EC
:1037A00001EB81013C4A02EB81010863C4EBC400D8
:1037B00000EB8000114601EB8000407868B9C4EB53
:1037C000C40000EB800001EB8000006FC4EBC4017B
:1037D00001EB810102EB81010863C4EBC40000EB43
:1037E00080002D4901EB800090F8780030B32F481D
:1037F000C06B002802DD2D48C06B02E02B48C06B77
:103800004042C4EBC40101EB8101234A02EB810178
:10381000C96F884212DD2548C06B002802DA4FF0DC
:10382000FF3000E00120C4EBC40101EB81011A4A22
:1038300002EB8101C96F48431C49C863C4EBC40053
:1038400000EB8000144901EB8000416AC4EBC40026
:1038500000EB8000104A02EB80008164C4EBC401DD
:1038600001EB810102EB810101F1300002F088FCE3
:103870000E4890F89400E8B3C4EBC40000EB80005D
:10388000054901EB800013E02800002029000020FA
:10389000782900208C290020A829002000000000A1
:1038A000CDCC4C3EC0670020582E00204021002087
:1038B000406C002807DDC4EBC40000EB800001EB86
:1038C0008000406C08E0C4EBC40000EB8000C649F7
:1038D00001EB8000406C4042C449B1F89610884228
:1038E0001BDDC4EBC40000EB8000BF4901EB80008E
:1038F000406C00E011E0002802DA4FF0FF3000E0F9
:103900000120BA49B1F896104843C4EBC40101EB59
:103910008101B54A02EB81014864C4EBC40202EBA9
:103920008202B14B03EB8202526CC4EBC40303EB83
:103930008303AD4D05EB830393F8883002FB03F15D
:10394000621CD0B20022FFF7D9FE70BD30B52DED5C
:10395000028B81B00446B0EE408A0D4600200090F4
:10396000A3494988481CC11700EB91618911A0EB5C
:1039700081119F4A1288914206D101209D49C87247
:1039800001B0BDEC028B30BD9FED9B0A28EE000A12
:10399000BDEEC00A10EE101A954A5388121D02EBB4
:1039A0000312501D6A4602F049FC44F070409049F1
:1039B0004A88091D01EB021108600098C1B28C48C9
:1039C0004288001D00EB0210017189484188001DEA
:1039D00000EB0110457386494988481CC11700EB6C
:1039E00091618911A0EB8111814A518000BFC7E725
:1039F00030B52DED028B81B00446B0EE408A0D4605
:103A0000002000907A494988481CC11700EB916159
:103A10008911A0EB8111764A1288914206D10120CA
:103A20007449C87201B0BDEC028B30BD9FED730AC2
:103A300028EE000ABDEEC00A10EE101A6C4A538838
:103A4000121D02EB0312501D6A4602F0F7FB44F010
:103A5000704040F4807166484288001D00EB0210FF
:103A600001600098C1B262484288001D00EB02105C
:103A700001715F484188001D00EB011045735C49EE
:103A80004988481CC11700EB91618911A0EB811195
:103A9000574A518000BFC5E730B52DED028B81B08C
:103AA0000446B0EE408A0D460020009050494988F7
:103AB000481CC11700EB91618911A0EB81114C4AA0
:103AC0001288914206D101204A49C87201B0BDEC6A
:103AD000028B30BD9FED490A28EE000ABDEEC00AF8
:103AE00010EE101A424A5388121D02EB0312501DA9
:103AF0006A4602F0A3FB44F0704040F400713C4879
:103B00004288001D00EB021001600098C1B23848E5
:103B10004288001D00EB0210017135484188001DEC
:103B200000EB0110457332494988481CC11700EB6E
:103B300091618911A0EB81112D4A518000BFC5E729
:103B400030B52DED028B81B00446B0EE408A0D46B3
:103B50000020009026494988481CC11700EB91615C
:103B60008911A0EB8111224A1288914206D10120CD
:103B70002049C87201B0BDEC028B30BD9FED1F0A19
:103B800028EE000ABDEEC00A10EE101A184A53883B
:103B9000121D02EB0312501D6A4602F04FFB44F067
:103BA000704040F4406112484288001D00EB021052
:103BB00001600098C1B20E484288001D00EB02105F
:103BC00001710B484188001D00EB01104573084945
:103BD0004988481CC11700EB91618911A0EB811144
:103BE000034A518000BFC5E7A829002040210020DA
:103BF000C0670020582E00200050C34700007A44C0
:103C000010B5082008F0CAFA04460020606020467B
:103C100010BD012031494872704710B5FFF7F9FF18
:103C2000FDF72AFCFEF774FBFFF72EFCFFF7E8FF19
:103C30002B49486010BD00220A7803780B7002708F
:103C4000704770B506460C46354600E06D6815B104
:103C50006868A042FAD14CB160686860204608F0FC
:103C600075FA1F480078401E1D49087070BD024655
:103C70000B46114605E00888984201D10846704776
:103C800049680029F7D10020F9E72DE9F0410746FE
:103C900088463C4641462046FFF7E9FF08B1BDE8AB
:103CA000F081002602E06468701CC6B20C480078FF
:103CB000B04201DD002CF6D16CB1082008F06EFA9C
:103CC0000546A5F800806068686065600448007873
:103CD000401C0349087000BFE1E70000582E002097
:103CE000340000201CB54048006840F010003E49F8
:103CF00008603D481438006840F480003A4914399F
:103D000008600120022100230A46CDE900104FF48B
:103D1000C061364802F06AFF07220921334802F0E9
:103D200045FF07220A21314802F040FF40F2D92026
:103D30002F4908814FF4037088810846008820F0DD
:103D400020000880032325220121062002F0A0FE86
:103D50004FF48070274B264A121D042100902648FC
:103D600002F082FD01221021234803F076FF032395
:103D700046220021072002F08BFE1D48808A40F079
:103D800080001B4988820846808940F40050888161
:103D90001CBD70B504460D461848407B78B92A46CC
:103DA0002146144807F042FB2946134803F0E9FE78
:103DB0000121114803F0C4FE01201049487370BD71
:103DC00010B50F490C4803F065FF01280AD10C49D2
:103DD000094803F02EFF0A49074803F085FF002039
:103DE0000649487310BD00004438024000000240FC
:103DF00000100140D82B0020B8640240582E00204B
:103E0000008000281CB5F948006840F40030F749EC
:103E10000860F6481038006840F40010F349103983
:103E200008600120022100230A46CDE900100C2180
:103E3000EF4802F0DBFE07220221ED4802F0B6FE59
:103E400007220321EA4802F0B1FE4FF4B670E949B7
:103E500008800C20091D0880E6480838008820F0FA
:103E60002000E44908390880E248001D008840F03D
:103E70002000E049091D0880032326220121042097
:103E800002F006FE4FF48070DB4BDA4A121F042169
:103E90000090DA4802F0E8FC01221021D74803F034
:103EA000DCFE032311220121072002F0F1FDD1489D
:103EB0000C30008840F08000CE490C310880CD489D
:103EC000001D008840F40050CA49091D08801CBD2F
:103ED00010B5CB49C94803F0DDFE01280AD1C84915
:103EE000C64803F0A6FEC649C44803F0FDFE002004
:103EF000C449887310BD10B52DED028B002440F22B
:103F00002531BC48083804F0CCFC58B1B948083811
:103F100004F005FC0020BC4908702021BB4807F0D4
:103F20009EFAF0E340F22551B248083804F0B9FC9B
:103F30000028F6D02021AF48083804F0A9FC40F250
:103F40002551AC48083804F0E3FCAA48083804F0CE
:103F5000E6FBC4B2AC48007800F0400008B3AA48C1
:103F6000007800F0800020BBFF2C06D1A648007826
:103F700040F08000A44908701BE0A348007800F0DE
:103F80003F01A2484454A0480078401C9E49087054
:103F90000846007800F03F0028280ADD002008705D
:103FA00007E0EE2C05D19848007840F04000964993
:103FB00008709548007800F080000028B1D094483F
:103FC00090F82102012804D1914890F823029149E8
:103FD00008708F4890F82302082870D2DFE800F0BC
:103FE000042E2F3056F36FF2894890F825020828E6
:103FF00021D1012080F3138800BF00BF00BF00BFA4
:1040000000BF00BFBFF34F8F00BF00BF00BF82489B
:10401000006800F4E06081490843001D7E490860A3
:1040200000BF00BF00BFBFF34F8F00BF00BF00BF86
:1040300000BF00BFFDE700BF00BFC5E3C4E3C3E3AB
:10404000734890F82502032804D0062811D00828C8
:1040500019D114E06D48C01D07F0D2FEB0EE408AC1
:10406000F0EE608A51EC180B07F013FB6C49086006
:104070000AE001206B49087081F88C0004E00120FF
:104080006949087000E000BF00BF9DE3604890F8F8
:104090002502C01E1E2872D2DFE800F00F1F2E3F3F
:1040A0005061728396CAD9FBF971F8F7F6F5F4F30B
:1040B000F2F1F0EFEEEDECEBEAE900200AE082E34A
:1040C000002100EB800202EBC002584B03EB02120E
:1040D0001170401C0828F3DBB5E14C48C01D07F007
:1040E0008FFEB0EE408AF0EE608A51EC180B07F0BC
:1040F000EFFA4E498870A6E14448C01D07F080FEE3
:10410000B0EE408AF0EE608A51EC180B07F0E0FA4E
:10411000C1B2464880F8D21095E13C48C01D07F076
:104120006FFEB0EE408AF0EE608A51EC180B07F09B
:10413000CFFAC1B23D4880F8A21184E13348C01DD6
:1041400007F05EFEB0EE408AF0EE608A51EC180B8C
:1041500007F0BEFAC1B2354880F8721273E12B48FD
:10416000C01D07F04DFEB0EE408AF0EE608A51ECC3
:10417000180B07F08EFA01B22C48018163E161E16E
:104180002248C01D07F03CFEB0EE408AF0EE608A87
:1041900051EC180B07F07DFA01B22448A0F8D810B2
:1041A00051E11A48C01D07F02BFEB0EE408AF0EE38
:1041B000608A51EC180B07F06CFA01B21B48A0F8AA
:1041C000A81140E1FEE240E11048C01D07F018FED2
:1041D000B0EE408AF0EE608A51EC180B07F059FA05
:1041E00001B21248A0F878122DE1000040380240D8
:1041F0000000024008440040F82C0020A06002406B
:1042000000802020582E00203D000020F82D0020A6
:10421000D82B00203C0000200CED00E00000FA0547
:1042200030000020A82900202C0000204021002080
:10423000F94807F0E5FDB0EE408AF0EE608A51ECF7
:10424000180B07F026FA00B2F4498880FBE0F24828
:1042500007F0D6FDB0EE408AF0EE608A51EC180B04
:1042600007F017FA01B2ED48A0F8D410EBE0E0E057
:10427000D6E0CCE0C3E0B7E0ABE09FE094E088E0BC
:104280007CE070E065E054E043E032E021E010E0E3
:10429000FFE7E14807F0B4FDB0EE408AF0EE608A37
:1042A00051EC180B07F0F5F901B2DC48A0F8A411A5
:1042B000C9E0D94807F0A4FDB0EE408AF0EE608A6C
:1042C00051EC180B07F0E5F901B2D448A0F87412CC
:1042D000B9E0D14807F094FDB0EE408AF0EE608A74
:1042E00051EC180B07F0F4F981B2CC48A0F8961005
:1042F000A9E0C94807F084FDB0EE408AF0EE608A7C
:1043000051EC180B07F0E4F981B2C448A0F866112B
:1043100099E0C14807F074FDB0EE408AF0EE608A83
:1043200051EC180B07F0D4F981B2BC48A0F8361252
:1043300089E0B94807F064FDB0EE408AF0EE608A8B
:1043400051EC180B07F0C4F981B2B448A0F8061379
:1043500079E0B34890F8280208B1012000E000207D
:10436000AE4908706FE0AE4890F8280208B101200D
:1043700000E00020A94981F8D00064E0A84890F846
:10438000280208B1012000E00020A44981F8A00122
:1043900059E0A34890F8280208B1012000E000206D
:1043A0009E4981F870024EE09D4890F8280208B1BD
:1043B000012000E000209949487044E0984890F8B6
:1043C000280208B1012100E00021944880F8D110B2
:1043D00039E0934890F8280208B1012100E000215B
:1043E0008E4880F8A1112EE08D4890F8280208B17F
:1043F000012100E00021894880F8711223E08748FC
:10440000007818B90121854880F839101BE08348ED
:1044100090F8D00018B90121804880F8091112E005
:104420007E4890F8A00118B901217C4880F8D91184
:1044300009E07A4890F8700218B90121774880F8AD
:10444000A91200E000BF00BFBEE1754890F8250248
:10445000C01E1E286FD2DFE800F00F1E2E3E4E5EFB
:104460006F7F8F9FAFBFCF6EF5F3F2F1F0EFEEED00
:10447000ECEBEAE9E8E7E6E5002009E0002100EBE3
:10448000800202EBC002654B03EB02121170401C6C
:104490000828F3DB94E1604807F0B2FCB0EE408AF4
:1044A000F0EE608A51EC180B07F012F9C1B25B48CC
:1044B00080F8421384E1584807F0A2FCB0EE408A2D
:1044C000F0EE608A51EC180B07F002F9C1B25348C4
:1044D00080F8121474E1504807F092FCB0EE408A64
:1044E000F0EE608A51EC180B07F0F2F8C1B24B48BD
:1044F00080F8E21464E1484807F082FCB0EE408A9C
:10450000F0EE608A51EC180B07F0E2F8C1B24348B4
:1045100080F8B21554E1404807F072FCB0EE408AD2
:10452000F0EE608A51EC180B07F0B3F801B23B488B
:10453000A0F8481344E142E1374807F061FCB0EECF
:10454000408AF0EE608A51EC180B07F0A2F801B235
:104550003248A0F8181433E12F4807F051FCB0EEB0
:10456000408AF0EE608A51EC180B07F092F801B225
:104570002A48A0F8E81423E1274807F041FCB0EEF0
:10458000408AF0EE608A51EC180B07F082F801B215
:104590002248A0F8B81513E11F4807F031FCB0EE2F
:1045A000408AF0EE608A51EC180B07F072F801B205
:1045B0001A48A0F8441303E1174807F021FCB0EEB5
:1045C000408AF0EE608A51EC180B07F062F801B2F5
:1045D0001248A0F81414F3E00F4807F011FCB0EEF5
:1045E000408AF0EE608A51EC180B07F052F801B2E5
:1045F0000A48A0F8E414E3E0074807F001FCB0EE35
:10460000408AF0EE608A51EC180B07F042F801B2D4
:104610000248A0F8B415D3E0FF2D0020402100206F
:10462000D82B0020C2E0B8E0AEE0A4E098E08CE037
:1046300080E074E068E05BE04FE043E032E021E0DE
:1046400010E0FFE7FE4807F0DBFBB0EE408AF0EE3B
:10465000608A51EC180B07F03BF881B2F948A0F8DA
:10466000D613ADE0F64807F0CBFBB0EE408AF0EE93
:10467000608A51EC180B07F02BF881B2F148A0F8D2
:10468000A6149DE0EE4807F0BBFBB0EE408AF0EECA
:10469000608A51EC180B07F01BF881B2E948A0F8CA
:1046A00076158DE0E64807F0ABFBB0EE408AF0EE01
:1046B000608A51EC180B07F00BF881B2E148A0F8C2
:1046C00046167DE0E04890F8280208B1012000E09D
:1046D0000020DC4981F8400372E0DB4890F82802B2
:1046E00008B1012000E00020D64981F8100467E0FD
:1046F000D54890F8280208B1012000E00020D149F7
:1047000081F8E0045CE068E0CF4890F8280208B146
:10471000012000E00020CB4981F8B00550E0CA48F4
:1047200090F8280208B1012100E00021C54880F876
:10473000411345E0C44890F8280208B1012100E087
:104740000021C04880F811143AE0BF4890F82802D0
:1047500008B1012100E00021BA4880F8E1142FE0FF
:10476000B94890F8280208B1012100E00021B548BD
:1047700080F8B11524E0B34890F8400318B901213E
:10478000B04880F879131BE0AE4890F8100418B9CF
:104790000121AC4880F8491412E0AA4890F8E004DE
:1047A00018B90121A74880F8191509E0A54890F823
:1047B000B00518B90121A34880F8E91500E000BF51
:1047C00000BF01E000E000BF00BF00209F4908706B
:1047D00020219B48C01F06F042FEBDEC028B10BD9D
:1047E00010B504469A48807B50B92146994803F099
:1047F000C8F90121974803F0A3F90120944988736F
:1048000010BD10B50024EE222146641C924842548B
:10481000B1222146641C425410222146641C425499
:1048200000222146641C42542146641C4254214605
:10483000641C425405222146641C42540122204635
:10484000611CCCB284490A54FF222046611CCCB2C0
:1048500081490A54FC222046611CCCB27E490A548C
:10486000FF222046611CCCB27B490A542046611CC1
:10487000CCB279490A5479480078062881F01D8124
:10488000DFE810F01B090600080009006900BD04FC
:1048900001F014B9FCE7EE222046611CCCB26E494F
:1048A0000A54B1222046611CCCB26B490A54122230
:1048B0002046611CCCB268490A5400222046611C83
:1048C000CCB265490A5404222046611CCCB262492C
:1048D0000A5400222046611CCCB25F490A540422CB
:1048E0002046611CCCB25C490A5400222046611C5F
:1048F000CCB259490A545A4882685AA15A4807F01A
:104900006BFA594806F0B6FDC2B22046611CCCB223
:1049100051490A540819544906F0B3FD524806F0AB
:10492000A9FD2044C4B2FF222046611CCCB24A49F2
:104930000A54FC222046611CCCB247490A54FF228B
:104940002046611CCCB244490A542046611CCCB2BA
:1049500041490A549CE7EE222046611CCCB23E49F4
:104960000A54B1222046611CCCB23B490A5412229F
:104970002046611CCCB238490A5400222046611CF2
:10498000CCB235490A5404222046611CCCB23249CB
:104990000A542C488078002851D000222046611CFF
:1049A000CCB22D490A5404222046611CCCB22A49BB
:1049B0000A5400222046611CCCB227490A542148DF
:1049C000827828A1284807F007FA274806F052FD08
:1049D000C2B22046611CCCB21F490A5408192249B0
:1049E00006F04FFD204806F045FD2044C4B20022E9
:1049F0002046611CCCB218490A5408222046611C8A
:104A0000CCB215490A5400222046611CCCB212498E
:104A10000A540C48B0F9182012A1134807F0DCF929
:104A2000114806F027FDC2B22046611CCCB20A49EB
:104A30000A5408190C4906F024FD0B4816E0AFE0B3
:104A4000FF2D002040210020D82B00203D00002019
:104A5000582E0020A0600240F82C00203C000020CE
:104A6000A829002025640000672E002006F002FD22
:104A70002044C4B200222046611CCCB2FE490A5434
:104A80000C222046611CCCB2FB490A54002220466D
:104A9000611CCCB2F8490A54F848B0F91420AFF2BE
:104AA0003C01F74807F098F9F54806F0E3FCC2B27C
:104AB0002046611CCCB2F0490A540819F04906F0AE
:104AC000E0FCEF4806F0D6FC2044C4B200222046A9
:104AD000611CCCB2E8490A5411222046611CCCB2B8
:104AE000E5490A5400222046611CCCB2E2490A542E
:104AF000E248B0F89620AFF29401E14807F06CF973
:104B0000DF4806F0B7FCC2B22046611CCCB2DA49DD
:104B10000A540819DA4906F0B4FCD94806F0AAFC90
:104B20002044C4B200222046611CCCB2D2490A54AF
:104B300015222046611CCCB2CF490A5400222046DF
:104B4000611CCCB2CC490A5401222046611CCCB273
:104B5000C9490A54C94802782046611CCCB2C649EA
:104B60000A5400222046611CCCB2C3490A541922BF
:104B70002046611CCCB2C0490A5400222046611C68
:104B8000CCB2BD490A5401222046611CCCB2BA49BC
:104B90000A54BA4842782046611CCCB2B6490A543D
:104BA000B64890F8D20000287DD000222046611C33
:104BB000CCB2B1490A5405222046611CCCB2AE49A0
:104BC0000A5400222046611CCCB2AB490A54AB48BF
:104BD00090F8D220AFF27411A94807F0FDF8A84868
:104BE00006F048FCC2B22046611CCCB2A2490A546D
:104BF0000819A34906F045FCA14806F03BFC2044F7
:104C0000C4B200222046611CCCB29B490A5409223E
:104C10002046611CCCB298490A5400222046611CEF
:104C2000CCB295490A549548B0F9E820AFF2CC11BE
:104C3000934807F0D1F8924806F01CFCC2B2204617
:104C4000611CCCB28C490A5408198D4906F019FC34
:104C50008B4806F00FFC2044C4B200222046611CA1
:104C6000CCB285490A540D222046611CCCB282493F
:104C70000A5400222046611CCCB27F490A547F4866
:104C8000B0F9E420AFF224217D4807F0A5F87C4874
:104C900006F0F0FBC2B22046611CCCB276490A5441
:104CA0000819774900E072E006F0EBFB744806F063
:104CB000E1FB2044C4B200222046611CCCB26E4904
:104CC0000A5412222046611CCCB26B490A540022BD
:104CD0002046611CCCB268490A546848B0F8662185
:104CE000AFF28021664807F077F8654806F0C2FB0E
:104CF000C2B22046611CCCB25F490A54081960490F
:104D000006F0BFFB5E4806F0B5FB2044C4B20022AB
:104D10002046611CCCB258490A5416222046611C18
:104D2000CCB255490A5400222046611CCCB25249EB
:104D30000A5401222046611CCCB24F490A544F4804
:104D400090F8D0202046611CCCB24B490A54002276
:104D50002046611CCCB248490A541A222046611CE4
:104D6000CCB245490A5400222046611CCCB24249CB
:104D70000A5401222046611CCCB23F490A543F48E4
:104D800090F8D1202046611CCCB23B490A543B48E4
:104D900090F8A201002875D000222046611CCCB2F8
:104DA00035490A5406222046611CCCB232490A54C5
:104DB00000222046611CCCB22F490A542F4890F89B
:104DC000A221AFF260312E4807F006F82C4806F019
:104DD00051FBC2B22046611CCCB227490A540819C3
:104DE000274906F04EFB264806F044FB2044C4B297
:104DF00000222046611CCCB21F490A540A222046D8
:104E0000611CCCB21C490A5400222046611CCCB261
:104E100019490A541948B0F9B821AFF2B831184805
:104E200006F0DAFF164806F025FBC2B22046611CE8
:104E3000CCB211490A540819114906F022FB104856
:104E400006F018FB2044C4B200222046611CCCB2FC
:104E500009490A540E222046611CCCB206490A5464
:104E600000222046611CCCB203490A540348B0F921
:104E7000B421AFF2104106E0F82C002040210020C0
:104E8000672E002080E0FE4806F0A6FFFC4806F0F2
:104E9000F1FAC2B22046611CCCB2FA490A54081990
:104EA000F74906F0EEFAF64806F0E4FA2044C4B2F8
:104EB00000222046611CCCB2F2490A54132220463B
:104EC000611CCCB2EF490A5400222046611CCCB2CE
:104ED000EC490A54EC48B0F83622AFF27841E84881
:104EE00006F07AFFE64806F0C5FAC2B22046611C19
:104EF000CCB2E4490A540819E14906F0C2FAE04884
:104F000006F0B8FA2044C4B200222046611CCCB29C
:104F1000DC490A5417222046611CCCB2D9490A54F4
:104F200000222046611CCCB2D6490A5401222046F8
:104F3000611CCCB2D3490A54D34890F8A021204632
:104F4000611CCCB2CF490A5400222046611CCCB26D
:104F5000CC490A541B222046611CCCB2C9490A54D0
:104F600000222046611CCCB2C6490A5401222046C8
:104F7000611CCCB2C3490A54C34890F8A121204611
:104F8000611CCCB2BF490A54BF4890F87202002895
:104F90007DD000222046611CCCB2BA490A540722B7
:104FA0002046611CCCB2B7490A5400222046611C3D
:104FB000CCB2B4490A54B44890F87222AFF25C51B2
:104FC000AF4806F009FFAE4806F054FAC2B22046D8
:104FD000611CCCB2AB490A540819A94906F051FA30
:104FE000A74806F047FA2044C4B200222046611CBC
:104FF000CCB2A4490A540B222046611CCCB2A14970
:105000000A5400222046611CCCB29E490A549E4894
:10501000B0F98822AFF2B451994806F0DDFE984805
:1050200006F028FAC2B22046611CCCB295490A5457
:105030000819934906F025FA914806F01BFA204416
:10504000C4B200222046611CCCB28E490A540F2201
:105050002046611CCCB28B490A5400222046611CB8
:10506000CCB288490A548848B0F98422AFF20C6166
:10507000834806F0B1FE824806F0FCF9C2B2204631
:10508000611CCCB27F490A5408197D4900E072E0E6
:1050900006F0F7F97A4806F0EDF92044C4B2002290
:1050A0002046611CCCB277490A5414222046611C68
:1050B000CCB274490A5400222046611CCCB271491A
:1050C0000A547148B0F80623AFF268616C4806F0E4
:1050D00083FE6B4806F0CEF9C2B22046611CCCB20A
:1050E00068490A540819664906F0CBF9644806F085
:1050F000C1F92044C4B200222046611CCCB26149EF
:105100000A5418222046611CCCB25E490A5400227F
:105110002046611CCCB25B490A5401222046611C26
:10512000CCB258490A54584890F870222046611C65
:10513000CCB254490A5400222046611CCCB25149D9
:105140000A541C222046611CCCB24E490A5400224B
:105150002046611CCCB24B490A5401222046611CF6
:10516000CCB248490A54484890F871222046611C44
:10517000CCB244490A5400222046611CCCB24149B9
:105180000A5410222046611CCCB23E490A54002227
:105190002046611CCCB23B490A543C4840684068F8
:1051A00002883BA1364806F017FE354806F062F942
:1051B000C2B22046611CCCB232490A5408193049A7
:1051C00006F05FF92E4806F055F92044C4B2FF22DC
:1051D0002046611CCCB22B490A54FC222046611C9B
:1051E000CCB228490A54FF222046611CCCB2254982
:1051F0000A542146601CC4B222484254FEE3EE2207
:105200002046611CCCB21F490A54B1222046611CC1
:10521000CCB21C490A5412222146601CC4B219485F
:10522000425400222046611CCCB216490A54052281
:105230002146601CC4B213484254134890F84203FC
:1052400000287DD000222046611CCCB20D490A54B2
:1052500004222046611CCCB20A490A54002220468E
:10526000611CCCB207490A54074890F84223AFF6B4
:105270000C01034806F0B0FD014806F0FBF809E018
:10528000672E0020F82C0020402100203400002050
:1052900025780000C2B22046611CCCB2FE490A54F7
:1052A0000819FE4906F0EDF8FC4806F0E3F8204442
:1052B000C4B200222046611CCCB2F7490A5408222D
:1052C0002046611CCCB2F4490A5400222046611CDD
:1052D000CCB2F1490A54F248B0F95823AFF67C0138
:1052E000EE4806F079FDED4806F0C4F8C2B220465B
:1052F000611CCCB2E8490A540819E84906F0C1F823
:10530000E64806F0B7F82044C4B200222046611CEB
:10531000CCB2E1490A540C222046611CCCB2DE49D1
:105320000A5400222046611CCCB2DB490A54DC48F6
:10533000B0F95423AFF6D401D84806F04DFD00E093
:105340007DE0D64806F096F8C2B22046611CCCB289
:10535000D1490A540819D14906F093F8CF4806F00C
:1053600089F82044C4B200222046611CCCB2CA494C
:105370000A5411222046611CCCB2C7490A540022AB
:105380002046611CCCB2C4490A54C548B0F8D623A3
:10539000AFF63011C14806F01FFDC04806F06AF8AC
:1053A000C2B22046611CCCB2BB490A540819BB49A1
:1053B00006F067F8B94806F05DF82044C4B2002250
:1053C0002046611CCCB2B4490A5415222046611C07
:1053D000CCB2B1490A5400222046611CCCB2AE497D
:1053E0000A5401222046611CCCB2AB490A54AC4895
:1053F00090F840232046611CCCB2A7490A540022F1
:105400002046611CCCB2A4490A5419222046611CD2
:10541000CCB2A1490A5400222046611CCCB29E495C
:105420000A5401222046611CCCB29B490A549C4874
:1054300090F841232046611CCCB297490A54984801
:1054400090F8120400287DD000222146601CC4B2CE
:105450009148425405222046611CCCB28E490A5420
:1054600000222046611CCCB28B490A548C4890F82B
:105470001224AFF61021894806F0AEFC874805F0EB
:10548000F9FFC2B22046611CCCB283490A54081904
:10549000824905F0F6FF814805F0ECFF2044C4B2D4
:1054A00000222046611CCCB27B490A5409222046C6
:1054B000611CCCB278490A5400222046611CCCB24F
:1054C00075490A547648B0F92824AFF66821734824
:1054D00006F082FC714805F0CDFFC2B22046611C87
:1054E000CCB26D490A5408196C4905F0CAFF6B48E3
:1054F00005F0C0FF2044C4B200222046611CCCB29B
:1055000065490A540D222046611CCCB262490A54F6
:1055100000222046611CCCB25F490A546048B0F9B1
:105520002424AFF6C0215D4806F056FC5B4805F028
:10553000A1FFC2B22046611CCCB257490A540819D7
:10554000564900E072E005F09CFF544805F092FFD8
:105550002044C4B200222046611CCCB24E490A54F9
:1055600012222046611CCCB24B490A54002220462C
:10557000611CCCB248490A544948B0F8A624AFF699
:105580001C31464806F028FC444805F073FFC2B2BF
:105590002046611CCCB240490A5408193F4905F025
:1055A00070FF3E4805F066FF2044C4B2002220464A
:1055B000611CCCB238490A5416222046611CCCB278
:1055C00035490A5400222046611CCCB232490A54A3
:1055D00001222146601CC4B22F484254304890F842
:1055E00010242046611CCCB22B490A5400222046CC
:1055F000611CCCB228490A541A222046611CCCB244
:1056000025490A5400222046611CCCB222490A5482
:1056100001222046611CCCB21F490A54204890F850
:1056200011242046611CCCB21B490A541C4890F836
:10563000E20400287ED000222046611CCCB216492C
:105640000A5406222046611CCCB213490A54002297
:105650002046611CCCB210490A54114890F8E2244B
:10566000AFF600410D4806F0B7FB0C4805F002FF0D
:10567000C2B22046611CCCB207490A540819074936
:1056800005F0FFFE054805F0F5FE2044C4B20022F7
:105690002046611CCCB205E0F82C0020672E0020CB
:1056A00040210020FE490A540A222046611CCCB247
:1056B000FB490A5400222046611CCCB2F8490A5426
:1056C000F848B0F9F824AFF66441F74806F084FBD7
:1056D000F54805F0CFFEC2B22046611CCCB2F049BD
:1056E0000A540819F04905F0CCFEEF4805F0C2FE57
:1056F0002044C4B200222046611CCCB2E8490A54BE
:105700000E222046611CCCB2E5490A5400222046F4
:10571000611CCCB2E2490A54E248B0F9F424AFF675
:10572000BC41E14806F058FBDF4805F0A3FEC2B2D9
:10573000204600E078E0611CCCB2D9490A5408192F
:10574000D94905F09EFED84805F094FE2044C4B225
:1057500000222046611CCCB2D1490A5413222046B3
:10576000611CCCB2CE490A5400222046611CCCB246
:10577000CB490A54CB48B0F87625AFF61851CA4841
:1057800006F02AFBC84805F075FEC2B22046611C2F
:10579000CCB2C3490A540819C34905F072FEC24885
:1057A00005F068FE2044C4B200222046611CCCB241
:1057B000BB490A5417222146601CC4B2B84842545F
:1057C00000222046611CCCB2B5490A540122204671
:1057D000611CCCB2B2490A54B24890F8E024204689
:1057E000611CCCB2AE490A5400222046611CCCB2E6
:1057F000AB490A541B222046611CCCB2A8490A546A
:1058000000222146601CC4B2A54842540122214610
:10581000601CC4B2A2484254A24890F8E124204639
:10582000611CCCB29E490A549E4890F8B2050028EB
:105830007ED000222046611CCCB299490A5407222E
:105840002046611CCCB296490A5400222046611CB5
:10585000CCB293490A54934890F8B225AFF6FC5164
:10586000914806F0B9FA904805F004FEC2B220460D
:10587000611CCCB28A490A5408198B4905F001FE13
:10588000894805F0F7FD2044C4B200222046611C7F
:10589000CCB283490A540B222046611CCCB2804909
:1058A0000A5400222046611CCCB27D490A547D482E
:1058B000B0F9C825AFF654617B4806F08DFA7A48F6
:1058C00005F0D8FDC2B22146601CC4B274484254EF
:1058D00001460819744905F0D4FD734805F0CAFD66
:1058E0002044C4B200222046611CCCB26C490A5448
:1058F0000F222146601CC4B269484254002220464F
:10590000611CCCB266490A546648B0F9C425AFF6AA
:10591000AC61654806F060FA634805F0ABFDC2B2C1
:105920002046611CCCB25E490A5408195E4900E069
:1059300075E005F0A6FD5C4805F09CFD2044C4B26E
:1059400000222046611CCCB255490A54142220463C
:10595000611CCCB252490A5400222146601CC4B2D8
:105960004F4842544F48B0F84626AFF608714E48AB
:1059700006F032FA4C4805F07DFDC2B22146601CAB
:10598000C4B24748425401460819474905F079FD19
:10599000454805F06FFD2044C4B200222046611C3A
:1059A000CCB23F490A5418222046611CCCB23C4973
:1059B0000A5400222046611CCCB239490A54012203
:1059C0002046611CCCB236490A54364890F8B025BE
:1059D0002046611CCCB232490A5400222046611C88
:1059E000CCB22F490A541C222046611CCCB22C494F
:1059F0000A5400222046611CCCB200E05EE0284937
:105A00000A5401222046611CCCB225490A5425487B
:105A100090F8B1252046611CCCB221490A540022DD
:105A20002146601CC4B21E48425410222146601C0C
:105A3000C4B21B48425400222046611CCCB2184913
:105A40000A541A48406840680288AFF2BC71164890
:105A500006F0C2F9144805F00DFDC2B22046611CE3
:105A6000CCB20F490A5408190F4905F00AFD0E4837
:105A700005F000FD2044C4B2FF222046611CCCB2D8
:105A800007490A54FC222146601CC4B2044842540F
:105A9000FF222046611CCCB201490A54214607E08E
:105AA000F82C002040210020672E00203400002028
:105AB000601CC4B20448425400E000BF00BF20464E
:105AC000FEF78EFE10BD0000F82C0020014608886D
:105AD0004A88904201D1012070470020FCE701462E
