:020000040800F2
:10000000B8B20020ED9F0008F59F0008F79F000898
:10001000F99F0008FB9F0008FD9F000800000000FA
:10002000000000000000000000000000FF9F00082A
:1000300001A0000800000000E3C5000847C8000850
:1000400007A0000807A0000807A0000807A00008F4
:1000500007A0000807A0000807A0000807A00008E4
:1000600007A0000807A0000807A0000807A00008D4
:1000700007A0000807A0000807A0000807A00008C4
:1000800007A00008F13E000807A0000807A000082C
:100090005307000807A0000807A0000807A00008F1
:1000A00007A0000807A0000807A0000807A0000894
:1000B000611100089713000807A0000807A00008B6
:1000C00007A0000807A0000807A0000807A0000874
:1000D00007A0000807A00008173F000807A00008B5
:1000E00007A0000807A0000807A0000807A0000854
:1000F00007A0000807A0000807A0000807A0000844
:1001000007A0000807A0000807A0000807A0000833
:1001100007A0000807A0000807A0000807A0000823
:1001200007A0000807A0000807A0000807A0000813
:1001300007A0000807A0000807A0000807A0000803
:10014000D30D00086F0F000807A0000807A00008E3
:1001500007A0000807A00008A93D000807A00008A4
:1001600007A0000807A0000807A0000807A00008D3
:1001700007A0000807A0000807A0000807A00008C3
:1001800007A0000807A00008DFF80CD00CF010FE54
:100190000048004721040008B8B2002030BF72B602
:1001A000704762B6704780F30888704709E0002303
:1001B0001A461946184607F06EFE4FF496700CF07A
:1001C00019F9F4E700BFB94806F08CFF05200CF0E0
:1001D00011F9B64806F086FF05200CF00BF9B3487C
:1001E00006F080FF05200CF005F9002409E001224B
:1001F0000221002002F088FD40F2DC500CF0FAF8F9
:10020000641C322CF3DBAA48407890B1A84890F8DF
:10021000510070B1A64890F8A10050B1A44890F8E0
:10022000F10030B1022006F044FF012006F00BFF80
:1002300005E0042006F03DFF022006F004FF002246
:100240000221104602F060FD00220221104602F059
:100250005BFD58E04FF4FA700CF0CCF8954800784C
:1002600048B300209349087041F288300CF0C2F87E
:10027000002011E0002200EB800101EBC0018E4B59
:1002800003EB0111CA61002100EB800202EBC00206
:1002900003EB02129182401C0828EBDB0120864907
:1002A000087081F8D00081F8A00181F8700281F80F
:1002B000400381F8100481480078012815D00228F5
:1002C0001FD1A1217C48A0F84413B0F84403404258
:1002D00001B27948A0F81414012180F8411380F884
:1002E00011140020754908700CE002217248A0F832
:1002F0004413B0F84403404201B26F48A0F814140C
:1003000000E000BF00BFA5E74BE006F0B8FD6C4879
:10031000007810B906F02FFE3FE0102069494883AD
:10032000674840684468002533E0207800F00F00FB
:1003300060B98020634908832078C0F3031140200E
:1003400006F053FE20205F49488311E0207800F03A
:100350000F01802006F049FE2078C0F303114020F1
:1003600006F043FE2088C0F30321202006F03DFE66
:1003700064684FF47A700CF03DF8402051490883CE
:10038000802008832020088341F270700CF032F83E
:100390006D1C4B480078A842C7DC4FF47A700CF013
:1003A00029F8B2E705E004F0F2FC4FF47A700CF0A3
:1003B00021F8F8E770B50446002500BF0CF059FAA3
:1003C0000CF0EEF8054600200BF083FA3E49086079
:1003D00019233E4A00213E480BF0C6FC1E233D4A2D
:1003E00000213D480BF0C0FC28233C4A00213C483A
:1003F0000BF0BAFC37233B4A00213B480BF0B4FC1E
:1004000064200BF0F7FF002006F01DFE022006F02E
:1004100050FE05200BF026FF28460CF0C5F870BDF5
:1004200010B540F6B83006F058FC09F045FD4FF421
:10043000806101F007022D4B18684FF6FF0318404A
:100440002B4B034343EA0220284B186000BF294886
:10045000006840F007002749086006F081FD06F0BB
:100460001DFE06F0D9FD06F053FC00F04BF800F03D
:100470000DFB03F02BFC03F0D5FC00F059FF00F05E
:1004800047FE03F0A0FB06F03AF802211A4806F0F6
:10049000F9F809F0F5FE0523184A002118480BF079
:1004A00063FC0AF014F8002010BD00000064004056
:1004B000002800201A0000205821002046000020BB
:1004C0004C0000200000024000000020E40C00204E
:1004D000A5030008E40E002009030008E41E002024
:1004E000C5010008E4200020AD0100080CED00E08B
:1004F0000000FA0530380240FC450020E4040020EA
:10050000B503000800B58BB00121480609F04DF98C
:100510000121084609F016F909220B21FC4808F0D0
:1005200056FF09220C21FA4808F051FF02208DF8ED
:100530001C004FF4C050069006A9F54808F0BCFE18
:1005400000208DF826008DF827008DF828008DF802
:1005500029008DF82A008DF82B008DF822008DF8E7
:10056000230008208DF8240003208DF82500ADF825
:10057000200008A9E74807F07EFF02208DF812004E
:1005800001208DF8130000208DF8140046F22000A1
:10059000ADF8080046F24000ADF80A0046F26000EF
:1005A000ADF80C004FF4C140ADF80E000020ADF8DE
:1005B000100001208DF8150002A807F0E6FF0420C6
:1005C0008DF8120001208DF8130000208DF8140022
:1005D00046F2A000ADF8080046F2C000ADF80A00EF
:1005E00046F2E000ADF80C004FF4C240ADF80E004A
:1005F0000020ADF8100001208DF8150002A807F0CA
:10060000C4FF05208DF8120001208DF81300002092
:100610008DF8140046F22010ADF808004FF4C440E5
:10062000ADF80A004FF4C840ADF80C0046F2204087
:10063000ADF80E000020ADF8100001208DF8150077
:1006400002A807F0A2FF14208DF8040003208DF803
:10065000050000208DF8060001208DF8070001A894
:1006600007F085FE01220221AA4808F08DFA0BB09E
:1006700000BD30B585B00546A5F180000090002092
:100680008DF808008DF8090005208DF80A00422039
:100690008DF80B0042218DF80C1047218DF80D10BC
:1006A000681FC4B204EB840000EBC4009A4901EB5C
:1006B0000010B0F9140000EE100AB8EEC00AF3EE14
:1006C0000E0A20EE200ABDEEC00A10EE100A00B29B
:1006D000924921F81400084630F81410ADF80E10B5
:1006E00069468C4808F040F805B030BD10B586B0BA
:1006F00004468B48807800F0010048B18848807833
:1007000000F0020020B98648807800F00400F0B9BB
:10071000207A28B900208DF80C00206880380190DC
:1007200000208DF80D00A07A8DF80E00A27A04F159
:100730000B010DF10F000CF0CFF89DF80F004030C9
:10074000C0B28DF80F0001A9724808F00DF806B08C
:1007500010BD10B586B002216E4808F07DFA002861
:100760007DD002216B4808F012FB0221694808F095
:1007700050FA01AA0021674808F0EBF80320684905
:1007800088709DF80C00002869D19DF80D000028A4
:10079000FAD140F20531019888420BD0491C0198EA
:1007A000884207D0491C0198884203D00198B0F5CF
:1007B000427F7DD10198401FC4B29DF80F004328AD
:1007C0000FD19DF8100057280BD19DF81100482833
:1007D00007D19DF81200552803D101A8FFF786FF25
:1007E000C7E09DF80F0043282AD19DF81000482843
:1007F00026D1BDF81100494921F81400084630F906
:100800001400404200EE100AB8EEC00AF3EE0E0AE1
:1008100080EE201ABDEEC10A10EE100A00B204EB01
:10082000840101EBC4013C4A02EB011188800120E4
:1008300004EB840101EBC40102EB0111487098E064
:100840009DF80F0053281AD19DF81000502816D19A
:10085000BDF81100334921F81400084600E00CE10E
:1008600030F8141004EB840000EBC4002A4A02EBB9
:100870000010A0F8961001A8FFF738FF79E09DF866
:100880000F004D2825D19DF810004F2821D19DF84B
:10089000110001281DD1052004EB840101EBC401E6
:1008A0001D4A02EB01118870012004EB840100E075
:1008B00060E001EBC40102EB0111487004EB84011C
:1008C00001EBC40102EB0111087001A8FFF70EFF54
:1008D0004FE09DF80F004D2826D19DF810004F28BD
:1008E00022D19DF81100F8B9002004EB840101EB3E
:1008F000C401094A02EB0111087004EB840101EB09
:10090000C40102EB0111487001A8FFF7EFFE30E0CF
:100910000000024000640040582100200400002034
:10092000640000200C0000209DF80F00532810D117
:100930009DF8100054280CD1002004EB840101EB39
:10094000C4014F4A02EB0111487001A8FFF7CEFE27
:100950000FE09DF80F0042280BD19DF810004228AF
:1009600007D19DF81100472803D1019988B2FFF7FC
:1009700080FE00BF40F209310198884204D19DF801
:100980000F00401C3F4908700198B0F5487F74D1B2
:10099000BDF80F003C490880BDF811004880BDF843
:1009A00013008880BDF81500C8800846B0F9000023
:1009B000404200EE100AB8EEC00AF3EE0E0A80EED6
:1009C000201ABDEEC10A10EE100A00B22C49888030
:1009D00001204870052088702B48B0F90200404281
:1009E00000EE100AB8EEC00AF3EE0E0A80EE201AEE
:1009F000BDEEC10A10EE100A01B22148A0F8D410D1
:100A0000012180F8D110052180F8D2101E48B0F9DC
:100A10000400404200EE100AB8EEC00AF3EE0E0ADF
:100A200080EE201ABDEEC10A10EE100A01B2144881
:100A3000A0F8A411012180F8A111052180F8A211CC
:100A40001148B0F90600404200EE100AB8EEC00AA4
:100A5000F3EE0E0A80EE201ABDEEC10A10EE100A67
:100A600001B20748A0F87412012180F87112052123
:100A700080F8721201A8FFF739FE06B010BD000021
:100A800058210020460000200400002000B58BB053
:100A90000121880608F089FE09220521FE4808F098
:100AA00096FC09220621FC4808F091FC02208DF8F2
:100AB00018006020059005A9F74808F0FDFB4020CC
:100AC0008DF8280002208DF8290000208DF82A00DA
:100AD00001208DF82B000AA807F049FC41208DF871
:100AE000280002208DF8290001208DF82A008DF8B9
:100AF0002B000AA807F03BFC00208DF822008DF89F
:100B000023008DF824008DF825008DF826008DF83F
:100B100027008DF81E008DF81F0008208DF820009A
:100B200003208DF82100ADF81C0007A9DB4807F071
:100B3000A2FC0E208DF80E0001208DF80F00002081
:100B40008DF8100044F22000ADF8040044F240009B
:100B5000ADF8060044F26000ADF808004FF48140A3
:100B6000ADF80A000020ADF80C0001208DF811004E
:100B700001A807F00AFD0F208DF80E0001208DF866
:100B80000F0000208DF8100044F2A000ADF8040022
:100B900044F2C000ADF8060044F2E000ADF80800F1
:100BA0004FF48240ADF80A000020ADF80C0001209F
:100BB0008DF8110001A807F0E8FC10208DF80E0058
:100BC00001208DF80F0000208DF8100045F2200064
:100BD000ADF8040045F24000ADF8060045F26000B3
:100BE000ADF808004FF4A140ADF80A000120ADF8BF
:100BF0000C008DF8110001A807F0C7FC11208DF83A
:100C00000E0001208DF80F0000208DF8100045F235
:100C1000A000ADF8040045F2C000ADF8060045F2B2
:100C2000E000ADF808004FF4A240ADF80A00012042
:100C3000ADF80C008DF8110001A807F0A6FC1220F9
:100C40008DF80E0001208DF80F0000208DF81000A7
:100C500043F22000ADF804004FF44150ADF8060017
:100C600043F26000ADF808004FF44250ADF80A00BE
:100C70000120ADF80C008DF8110001A807F085FCEB
:100C800013208DF80E0001208DF80F0000208DF844
:100C9000100043F2A000ADF804004FF44350ADF84B
:100CA000060043F2E000ADF808004FF44450ADF800
:100CB0000A000120ADF80C008DF8110001A807F022
:100CC00064FC14208DF80E0000208DF80F00012028
:100CD0008DF810000020ADF804004FF49040ADF8FE
:100CE00006004FF6FF70ADF808004FF47840ADF8FD
:100CF0000A000120ADF80C008DF8110001A807F0E2
:100D000044FC15208DF80E0001208DF80F00002006
:100D10008DF810004BF22000ADF804004BF24000BB
:100D2000ADF806004BF28000ADF80800ADF80A00FF
:100D30000120ADF80C008DF8110001A807F025FC8A
:100D400016208DF80E0001208DF80F0000208DF880
:100D500010004FF48150ADF804004FF48250ADF80C
:100D600006004FF48350ADF808004FF48450ADF8FE
:100D70000A000120ADF80C008DF8110001A807F061
:100D800004FC17208DF80E0001208DF80F000020C4
:100D90008DF810004FF48550ADF804004FF48650E4
:100DA000ADF806004FF48750ADF808004FF48850B6
:100DB000ADF80A000120ADF80C008DF8110001A873
:100DC00007F0E3FB01220221344807F0DDFE0BB0FF
:100DD00000BD10B52DED0C8B86B002212F4807F019
:100DE0003BFF00287ED001AA00212C4807F0B1FD6E
:100DF00002212A4807F0CBFF0198B0F5007F72D995
:100E00000198B0F5027F6ED89DF80D0000286AD1D8
:100E10000198401EC4B204A9481E02F0FFFE0DF165
:100E20001201481E02F0FAFE05A9481E02F0F6FE65
:100E3000BDF80F1004EB840000EBC400184A02EB6D
:100E400000100184BDF8111004EB840000EBC40015
:100E500002EB00100183BDF8131004EB840000EBDB
:100E6000C40002EB0010C18204EB840101EBC40159
:100E700002EB0111B1F8C0000BF054FE41EC1A0B6B
:100E800004EB840101EBC401054A02EB011191F866
:100E9000C2000BF047FE05E000040240006800407D
:100EA0005821002041EC1C0B04EB840000EBC40033
:100EB000914A02EB0010C06900EE100AB8EEC00AB9
:100EC000DFED8E0A20EE200A10EE101A08460BF015
:100ED0006EFE53EC1C2B0BF0A5FD53EC1A2B0BF004
:100EE000A1FD01E02DE02BE041EC190B04EB8400A7
:100EF00000EBC400804901EB001090ED321BB0EE16
:100F0000410AF0EE610A53EC102B51EC190B0BF077
:100F100089FD0BF014FE00B204EB840101EBC40167
:100F2000754A02EB011188820BF014FB04EB84017B
:100F300001EBC401704A02EB0111C1F8B80000BF17
:100F400000BF06B0BDEC0C8B10BD4168491C416070
:100F5000002101730169491E0161828A511CCA176F
:100F600001EB92629211A1EB82128282704700B56E
:100F700085B01021624807F06FFE68B16A46012112
:100F80005F4807F0E6FC10215D4807F000FF1021E4
:100F90005B4807F03EFE00BF05B000BD70B50446DB
:100FA00004EB840000EBC400534901EB0010B0F9DE
:100FB0000600002808DD04EB840000EBC40001EB10
:100FC0000010B0F9060009E004EB840000EBC40057
:100FD000494901EB0010B0F90600404204EB8401DE
:100FE00001EBC401444A02EB0111B1F8C41088427C
:100FF00020DD04EB840000EBC400114601EB00107F
:10100000B0F90600002802DA4FF0FF3000E00120BE
:1010100004EB840101EBC401374A02EB0111B1F882
:10102000C410484301B204EB840000EBC40002EB9F
:101030000010C18004EB840000EBC4002E4901EBDA
:101040000010007840B9002104EB840000EBC400DC
:10105000294A02EB0010C180042C04DA4FF400701E
:101060002849086003E040F2FF102649086000208C
:101070002449487208720820887204F00B00450069
:1010800004EB840000EBC4001B4901EB0010C18895
:101090001C480B30415302466B1CD118501902F00A
:1010A000BDFD032C01D0072C03D11649144807F0CD
:1010B0005BFB70BD30B585B005460C46124801900B
:1010C00000208DF8090004208DF8080003208DF819
:1010D0000A0056208DF80B004C218DF80C108DF86D
:1010E0000D408DF80E506946054807F03DFB074856
:1010F000447005B030BD0000582100200000B4430A
:1011000000680040E8200020010103002A2D002093
:1011100010B57F48006840F001007D49086041F645
:1011200057300906C8620B2008850846008840F43D
:10113000807008800846008A20F001000882084676
:10114000808940F0010088810846008840F0010055
:10115000088003231C220121084606F0EFFE10BD83
:101160004FF08040008A4FF08040008A20F001005C
:101170004FF080410882704770B566490878411C7D
:10118000644A1170032807DD002011460870002210
:101190000121104601F049FF002464E004EB8400C3
:1011A0005D4901EB0010407800B30BF0D3F904EB7C
:1011B0008401594A02EB0111096C411A04EB8400C5
:1011C00002EB0010B0F8440081420FD904EB840018
:1011D000114601EB001090F83C00401CC1B204EB3A
:1011E000840002EB001080F83C1007E0002104EBC3
:1011F0008400494A02EB001080F83C1004EB8400A4
:10120000454901EB001090F83C000A2812DD01214D
:1012100004EB8400404A02EB0010C177621C0223F9
:1012200043EA021292B242F480713C4A506802F0E2
:101230001FFD17E0002104EB8400374A02EB001089
:10124000C177621C022343EA021292B242F4807117
:10125000324A506802F0FEFC05463049486829468B
:1012600002F0E2FC641C042C98DB70BD704710B5E2
:1012700001241BE0E0B2002106F09EFB601EC0EBE3
:10128000C000274901EB8000008BB0F5027F0CD134
:1012900024480088401C23490880E0B2002106F061
:1012A0001BFBE0B2002106F0A4F8641C052CE1DB76
:1012B00010BD10B517490878411C164A11700E2848
:1012C00025DD0020114608701748007868B11748DE
:1012D0000088B0F5FA7F05DA14480088401C1349ED
:1012E000088002E028201149088001240DE00E4802
:1012F000007848B1E0B200220C49098806F0BDF937
:10130000E0B2002106F00AF8641C052CEFDB10BDEA
:101310004038024014000020002800204C0000202B
:10132000986A0020160000204500002018000020C8
:1013300010B54648006840F002004449086042F297
:101340002730434908600720091F088040482C388F
:10135000008840F480703E492C3908803C481C3895
:10136000008820F001003A491C390880081F0088D5
:1013700040F00100091F088035482C38008840F0F3
:10138000010033492C39088003231D22002101204C
:1013900006F0D4FD10BD10B52D481C38008800F0B3
:1013A0000100002848D000F08FFE002436E004EB56
:1013B000840000EBC400274901EB0010007828B33B
:1013C00004EB840000EBC40001EB00104078F0B1A6
:1013D00004EB840000EBC40001EB001080780128CE
:1013E00006D0022805D004280BD005280DD104E032
:1013F0000CE020B200F04FFB08E020B200F0A4FBAC
:1014000004E020B200F06CFD00E000BF02E020B27A
:1014100000F09AFBE0B2FFF7C1FD641C082CC6DBAC
:101420000D490E4805F073F80D48407A20B10222AC
:1014300009490C4805F076F905481C38008820F069
:10144000010003491C39088010BD000040380240EB
:101450002C040040582100209466002000680040C1
:101460002A2D0020FC45002010B52DED0E8B4FF4E9
:101470000050FE490880FE4908802420FB498870FE
:101480001320FB49887042F22830F849888043F6DF
:101490009910F74988809FEDF70BF44880ED020B17
:1014A0009FEDF40B084680ED020B0120F349087212
:1014B0004FF4FA7048810020087308709FEDF00A1D
:1014C000084680ED010A4FF4FA70C8818000088256
:1014D00001200870B3EE010A084680ED010A0020E1
:1014E00008724FF4FA60E7498883E748DF4C1ECC66
:1014F00040301EC00020E449803908700120487047
:1015000005208870002088804FF47A71DE4880388A
:1015100001816421C180C168DFEDDC1A9FEDDC1A16
:10152000DFEDDC0AB1EE040A3C3005F019FBD648C9
:101530008038B0F90810F7EE001A9FEDD51ADFEDEC
:10154000D60AB2EE000A643005F00AFB1422CB4939
:10155000CD480C300BF0C0F99FEDD00BCA48803855
:1015600080ED320B00F5A870C04CD4E90023D4E91B
:101570000214C0E91214C0E910230020C2498039C6
:1015800081F8D0000121C048803880F8D1100521B1
:1015900080F8D2100021A0F8D4104FF47A71A0F88E
:1015A000D8106421A0F8D610D0F8DC10DFEDB71AFF
:1015B0009FEDB71ADFEDB70AB1EE040A00F58670A9
:1015C00005F0CEFAB0488038B0F9D810F7EE001A1E
:1015D0009FEDAF1ADFEDB00AB2EE000A00F59A7087
:1015E00005F0BEFA1422A549A748DC300BF074F9C7
:1015F0009FEDAA0BA448803880ED660B00F50870BB
:101600009A4C1ECC40301EC000209F49803981F882
:10161000A00101219C48803880F8A111052180F8A3
:10162000A2110021A0F8A4114FF47A71A0F8A8111A
:101630006421A0F8A611D0F8AC11DFED941A9FED4B
:10164000941ADFED940AB1EE040A00F5EE7005F08D
:1016500087FA8D488038B0F9A811F7EE001A9FED8F
:101660008C1ADFED8D0AB2EE000A00F5017005F06C
:1016700077FA142281498B480BF02EF99FED870BE6
:101680008148803880ED9A0B00F53C70774CD4E9A6
:101690000031D4E90224C0E91224C0E9103100204D
:1016A0007949803981F8700201217748803880F8C3
:1016B0007112052180F872120021A0F874126421C1
:1016C000A0F87812A0F87612D0F87C12DFED6F1A2D
:1016D0009FED6F1ADFED6F0AB1EE040A00F52B7073
:1016E00005F03EFA68488038B0F97812F7EE001A33
:1016F0009FED671ADFED680AB2EE000A00F535705B
:1017000005F02EFA14225D496648D0300BF0E4F85B
:101710009FED620B5C48803880EDCE0B00F5707059
:10172000534C1ECC40301EC000205749803981F8F0
:10173000400301215448803880F84113052180F886
:1017400042130021A0F844136421A0F848134FF479
:10175000FA61A0F84613D0F84C13DFED4C1A9FED58
:101760004C1ADFED4C0AB1EE040A00F55F7005F08B
:10177000F7F945488038B0F94813F7EE001A9FEDA5
:10178000441ADFED450AB2EE000A00F5697005F073
:10179000E7F91422394944480BF09EF89FED430BBA
:1017A00041488C3880ED320B0021A0F5507080F854
:1017B000CC13012180F8D4134FF47A61A0F8D6132A
:1017C00000F592602A4C1ECC40301EC000202E49ED
:1017D000803981F8100401212B48803880F81114D9
:1017E000052180F812140021A0F814146421A0F837
:1017F00018144FF4FA61A0F81614D0F81C14DFED99
:10180000231A9FED231ADFED230AB1EE040A00F23A
:101810004C4005F0A5F91C488038B0F91814F7EED3
:10182000001A9FED1B1ADFED1C0AB2EE000A00F24F
:10183000744005F095F9142210491B48D0300BF084
:101840004BF89FED1A0B1848443080ED320B002105
:10185000A0F5826080F89C14012180F8A4144FF454
:101860007A61A0F8A614002408E1000000210020FD
:1018700010210020000000000000F03F2021002087
:101880000000FA4334210020D8210020CDCCCC3EEA
:1018900000000000CDCC4C3E9A99993E000000809B
:1018A00078781840842300202425002078787878E0
:1018B0007878084004EB840000EBC400FE4901EB9B
:1018C0000010FE490968C0F8A010FC48416804EB0C
:1018D000840000EBC400F84A02EB0010C0F8A4102A
:1018E00004EB840101EBC40102EB011101F1A8003A
:1018F0000A22F24908310AF0EFFFF048418A04EB6E
:10190000840000EBC400EC4A02EB0010A0F8B21017
:1019100004EB840000EBC400114601EB0010A03082
:10192000E64B59699A69DB6914300EC004EB8401F7
:1019300001EBC401E04A02EB0111B1F8C0000BF069
:10194000F1F841EC1A0B04EB840101EBC401DA4A13
:1019500002EB011191F8C2000BF0E4F841EC1C0B12
:1019600004EB840000EBC400D34A02EB001090EDBE
:10197000240A10EE101A08460BF019F941EC1E0B60
:1019800004EB840000EBC400CB4901EB001090EDA8
:10199000321BB0EE410AF0EE610A53EC102B51EC11
:1019A0001E0B0AF0CDFF53EC1C2B0AF0C9FF53ECC1
:1019B0001A2B0AF0C5FF9FEDC20B53EC102B0BF056
:1019C00031F80BF0DBF804EB840101EBC401BA4AF7
:1019D00002EB0111C1F8A00004EB840101EBC4018A
:1019E00002EB0111B1F8C0000BF09CF841EC1A0BAE
:1019F00004EB840101EBC401AF4A02EB011191F841
:101A0000C2000BF08FF841EC1C0B04EB840101EBDE
:101A1000C401A94A02EB0111B1F904000BF071F8FD
:101A200041EC1E0B04EB840000EBC400A24901EB67
:101A3000001090ED321BB0EE410AF0EE610A53EC5B
:101A4000102B51EC1E0B0AF07BFF53EC1C2B0AF001
:101A500077FF53EC1A2B0AF073FF9FED990B53ECB1
:101A6000102B0AF0DFFF0BF06AF804EB840101EBA6
:101A7000C401914A02EB0111C860641C082CFFF6F6
:101A800019AFBDEC0E8B10BD002239210A54C26182
:101A900000218182704710B5044604EB840000EBFE
:101AA000C400854901EB0010D0ED1D0A04EB840051
:101AB00000EBC40001EB0010B0F9080000EE100AC2
:101AC000B8EEC00A20EE800ABDEEC00A10EE100A81
:101AD00004EB840101EBC401774A02EB0111486673
:101AE00004EB840000EBC400114601EB0010B0F9D8
:101AF000181004EB840000EBC40002EB0010C16777
:101B000004EB840101EBC40102EB011101F164005B
:101B100005F036F804EB840000EBC400664901EBE5
:101B20000010C18804EB840000EBC400624A02EBA1
:101B30000010806F084401B204EB840000EBC40085
:101B400002EB0010C18010BD10B52DED0E8B0446C8
:101B500004EB840101EBC401574A02EB0111B1F817
:101B6000C0000AF0DFFF41EC1A0B04EB840101EB2B
:101B7000C401514A02EB011191F8C2000AF0D2FFF0
:101B800041EC1C0B04EB840101EBC4014A4A02EB5B
:101B90000111B1F904000AF0B4FF41EC1E0B04EB93
:101BA000840000EBC400444901EB001090ED321BAF
:101BB000B0EE410AF0EE610A53EC102B51EC1E0B13
:101BC0000AF0BEFE53EC1C2B0AF0BAFE53EC1A2BA3
:101BD0000AF0B6FE9FED3A0B53EC102B0AF022FFF1
:101BE0000AF0ADFF04EB840101EBC401324A02EBC1
:101BF0000111C86004EB840000EBC400114601EB46
:101C00000010C06804EB840101EBC40102EB011178
:101C1000C86304EB840000EBC400114601EB001024
:101C2000407870B904EB840000EBC40001EB0010B5
:101C3000D0F8A40004EB840101EBC40102EB011114
:101C4000C86304EB840000EBC4001B4901EB0010E7
:101C500090F88C0078B304EB840000EBC40001EB37
:101C60000010C06B002807DD04EB840000EBC4000B
:101C700001EB0010C06B08E004EB840000EBC40033
:101C80000D4901EB0010C06B404204EB840101EBF5
:101C9000C401094A02EB0111D1F8A010884228D9E9
:101CA00004EB840000EBC400114601EB0010C06B94
:101CB00000280CDA08E01CE0582100203421002024
:101CC00000000000008076404FF0FF3000E001206F
:101CD00004EB840101EBC401F94A02EB0111D1F8D4
:101CE000A010484304EB840101EBC40102EB011195
:101CF000C86304EB840000EBC400F14901EB001061
:101D0000C16904EB840000EBC400ED4A02EB001053
:101D1000416504EB840101EBC40102EB011101F107
:101D20003C0004F02DFF04EB840000EBC400E44908
:101D300001EB0010D0ED130A04EB840000EBC400AB
:101D400001EB0010006D00EE100AB8EEC00A20EEA4
:101D5000800ABDEEC00A10EE100A04EB840101EB0C
:101D6000C401D74A02EB0111486604EB840000EB82
:101D7000C400114601EB001090F8940088B304EB06
:101D8000840000EBC40001EB0010406E002807DD6A
:101D900004EB840000EBC40001EB0010406E08E08F
:101DA00004EB840000EBC400C54901EB0010406E59
:101DB000404204EB840101EBC401C14A02EB011172
:101DC000B1F8961088421FDD04EB840000EBC400DC
:101DD000114601EB0010406E002803DA4FF0FF308F
:101DE00001E011E0012004EB840101EBC401B44ADD
:101DF00002EB0111B1F89610484304EB840101EBAA
:101E0000C40102EB0111486604EB840000EBC4003E
:101E1000AB4901EB0010B0F9181004EB840000EBA3
:101E2000C400A74A02EB0010C16704EB840101EB78
:101E3000C40102EB011101F1640004F0A1FE04EB06
:101E4000840000EBC4009E4901EB0010C18804EB44
:101E5000840000EBC4009A4A02EB0010806F084433
:101E600001B204EB840000EBC40002EB0010C1805F
:101E700004EB840000EBC400114601EB0010D0F825
:101E8000AC00002808DD04EB840000EBC40001EB8B
:101E90000010D0F8AC0009E004EB840000EBC400B3
:101EA000874901EB0010D0F8AC0040423C280ADA28
:101EB000012004EB840101EBC401814A02EB011112
:101EC00081F8340009E0002004EB840101EBC40137
:101ED0007B4A02EB011181F83400BDEC0E8B10BD82
:101EE00010B5044604EB840000EBC400744901EB18
:101EF0000010B0F99A0004EB840101EBC401704AB0
:101F000002EB0111486604EB840000EBC4001146AB
:101F100001EB0010B0F9181004EB840000EBC400D2
:101F200002EB0010C16704EB840101EBC40102EB7A
:101F3000011101F1640004F023FE04EB840000EBC6
:101F4000C4005F4901EB0010C18804EB840000EB82
:101F5000C4005B4A02EB0010806F084401B204EB3E
:101F6000840000EBC40002EB0010C18004EB84008D
:101F700000EBC400114601EB0010B0F90600002888
:101F800008DD04EB840000EBC40001EB0010B0F9A5
:101F9000060009E004EB840000EBC400484901EBB3
:101FA0000010B0F9060040424649098A88421ADD0D
:101FB00004EB840000EBC400414901EB0010B0F9D0
:101FC0000600002802DA4FF0FF3000E001203D4912
:101FD000098A484301B204EB840000EBC400384A8C
:101FE00002EB0010C18004EB840000EBC400344914
:101FF00001EB0010B0F9A800002808DD04EB840014
:1020000000EBC40001EB0010B0F9A80009E004EBFC
:10201000840000EBC4002A4901EB0010B0F9A800CD
:102020004042322814DA04EB840000EBC400244957
:1020300001EB0010B0F8B000401C81B204EB84004A
:1020400000EBC4001E4A02EB0010A0F8B01009E03B
:10205000002104EB840000EBC400194A02EB0010DD
:10206000A0F8B01004EB840000EBC400144901EBAD
:102070000010B0F8B000FA2821DD002104EB840044
:1020800000EBC4000E4A02EB0010A0F8B01004EB05
:10209000840000EBC40002EB0010C161052004EBDA
:1020A000840101EBC40102EB01118870012104EBF2
:1020B000840000EBC40002EB001080F8351010BD66
:1020C000582100202021002070B500241DE204EBDF
:1020D000840000EBC400F74901EB0010018C04EB15
:1020E000840000EBC400F34A02EB0010008E081AD3
:1020F00001B204EB840000EBC40002EB0010A0F876
:10210000A81004EB840000EBC400114601EB0010A2
:10211000808A04EB840101EBC40102EB0111888485
:1021200004EB840000EBC400114601EB0010C18AEF
:1021300004EB840000EBC40002EB0010C18404EB4C
:10214000840000EBC400114601EB0010018B04EB8E
:10215000840000EBC40002EB0010018504EB840056
:1021600000EBC400114601EB0010C16904EB8400D0
:1021700000EBC40002EB0010C16204EB840000EB32
:10218000C400114601EB0010018C04EB840000EB4D
:10219000C40002EB0010018604EB840000EBC400D5
:1021A000114601EB0010B0F9A800002808DD04EB8F
:1021B000840000EBC40001EB0010B0F9A80009E0B6
:1021C00004EB840000EBC400BA4901EB0010B0F945
:1021D000A8004042B0F57A6F2CDD04EB840000EBE0
:1021E000C400B44901EB0010B0F9A81004EB84005E
:1021F00000EBC400AF4A02EB0010B0F9A8000028C1
:1022000002DA4FF0FF3000E0012004EB840202EB21
:10221000C402A84B03EB0212B2F8C02000FB12105C
:1022200001B204EB840000EBC4001A4602EB00107C
:10223000A0F8A81004EB840000EBC4009D4901EB5A
:102240000010C16904EB840000EBC400994A02EB62
:102250000010B0F9A800014404EB840000EBC400B6
:1022600002EB0010C16104EB840000EBC4001146D6
:1022700001EB0010C16904EB840000EBC40002EB29
:102280000010C068091A04EB840000EBC40002EBE4
:102290000010C0F8AC1004EB840000EBC400114641
:1022A00001EB00100078002876D004EB840000EBEE
:1022B000C40001EB0010B0F9061004EB840000EB41
:1022C000C40002EB0010B0F8C400081A002812DDA8
:1022D00004EB840000EBC400114601EB0010B0F9E0
:1022E000061004EB840000EBC40002EB0010B0F811
:1022F000C400081A12E004EB840000EBC4006D492E
:1023000001EB0010B0F8C41004EB840000EBC40033
:10231000684A02EB0010B0F90600081A322847DDBF
:1023200004EB840000EBC400624901EB0010B0F83C
:10233000B200401C81B204EB840000EBC4005D4A93
:1023400002EB0010A0F8B21004EB840000EBC40014
:10235000114601EB0010B0F8B200B0F57A7F1CDD39
:10236000012104EB840000EBC40002EB001080F8B4
:10237000361004EB840000EBC400114601EB0010A2
:1023800090F89800F0B1002004EB840101EBC40147
:1023900002EB0111087015E00AE0002104EB840053
:1023A00000EBC400434A02EB001080F8361009E04D
:1023B000002104EB840000EBC4003E4A02EB001055
:1023C000A0F8B21004EB840000EBC400394901EB23
:1023D0000010407878B104EB840000EBC40001EBFE
:1023E0000010C16904EB840000EBC400314A02EB29
:1023F0000010C0F8A41004EB840000EBC4002D49C9
:1024000001EB001090F8390040B104EB840101EBBE
:10241000C401284A02EB0110FFF736FB04EB8400ED
:1024200000EBC400234901EB00100078E8B30AF088
:1024300091F804EB840101EBC4011E4A02EB011187
:10244000D1F8B810411A04EB840000EBC40002EB91
:102450000010B0F8BC0081423BD904EB840000EBD3
:10246000C400114601EB001090F8B400401CC1B24A
:1024700004EB840000EBC40002EB001080F8B41001
:102480000A291BDD012104EB840000EBC40002EBF0
:10249000001080F83710621C012343EA021292B246
:1024A00042F48071044A506800E012E001F0E0FB61
:1024B0002AE00000582100204C000020002104EBFD
:1024C000840000EBC400134A02EB001080F83710C0
:1024D0001AE0002104EB840000EBC4000D4A02EB7B
:1024E000001080F8B410621C012343EA021292B279
:1024F00042F48071084A506801F0ACFB0546064979
:102500004868294601F090FB641C082CFFF6DFADFB
:1025100070BD0000582100204C00002010B54FF481
:102520008040FE490880B7EE000A084680ED010AA7
:102530004FF48040FA490880B7EE000A084680ED63
:10254000010A4FF47A60F74908809FEDF70A0846C0
:1025500080ED010A4FF47A60F44908809FEDF40A97
:10256000084680ED010A0020F24908709FEDF20A4A
:10257000084680ED010A002008724FF47A70488105
:10258000002008734FF4FA70C881400008824000B0
:10259000EA490882EA48E14A06CAC0E91212002064
:1025A000E7494870022008704FF496704860642133
:1025B000E348C16001815030D84A06CAC0E912120E
:1025C0000021503880F851100220DD4981F8500078
:1025D0004FF49671DA4841656421C165A0F858103E
:1025E000A030CE4A06CAC0E912120021A03880F8F5
:1025F000A1100220D24981F8A0004FF49671D04872
:10260000C0F8A4106421C0F8AC10A0F8A810F030F5
:10261000C24A06CAC0E912120021F03880F8F1104F
:102620000220C74981F8F0004FF49671C448C0F801
:10263000F4106421C0F8FC10A0F8F810002428E081
:1026400004EB8401BE4A02EB011101F120001422C7
:10265000B8490AF041F904EB8400B94901EB0010D4
:10266000B6490A68426389880187B448C18804EB87
:102670008400B34A02EB0010418704EB840011464A
:1026800001EB0010AD4B9968DA681B693C300EC055
:10269000641C052CD4DB10BD10B586B004460020A8
:1026A00001908DF80D008DF80C0008208DF80E00BB
:1026B00001208DF80F0000218DF810108DF81110F9
:1026C0008DF812108DF813108DF814108DF8151068
:1026D0008DF8161001A9204606F046F806B010BD88
:1026E0000FB438B5044606A80090009802C80090C0
:1026F000009804C80090934B5B88581CC31700EBEC
:1027000093639B11A0EB83138E4D2D88AB4205D1B3
:1027100001208D4BD87238BC5DF814FB04F5407075
:10272000884B5D881B1D03EB051318609DF8140092
:10273000012822D1042383484588001D00EB0510A1
:10274000037141237F484588001D00EB051043714C
:1027500043237C484588001D00EB0510837100234E
:1027600078484588001D00EB0510C3717548458801
:10277000001D00EB051003722CE09DF814000228E8
:1027800028D108236F484588001D00EB0510037110
:1027900041236C484588001D00EB0510437143231D
:1027A00068484588001D00EB0510837100236548CB
:1027B0004588001D00EB0510C37162484588001D67
:1027C00000EB051003725F484388001D00EB031007
:1027D000C0F809205B484588001D00EB05104173D7
:1027E000584B5B88581CC31700EB93639B11A0EBFD
:1027F0008313544D6B800020009000BF8BE710B511
:102800000246504B5B88581CC31700EB93639B1127
:10281000A0EB83134B4C2488A34203D101204A4BE5
:10282000D87210BD02F54070464B5C881B1D03EB4F
:1028300004131860042343484488001D00EB04106F
:10284000037142233F484488001D00EB041043718C
:1028500047233C484488001D00EB0410837100238B
:1028600038484488001D00EB0410C3713548448883
:10287000001D00EB0410037232484388001D00EB7A
:10288000031041732F4B5B88581CC31700EB9363F5
:102890009B11A0EB83132B4C638000BFC1E70FB4E7
:1028A00038B5044606A80090009802C80090009829
:1028B00004C80090234B5B88581CC31700EB93633C
:1028C0009B11A0EB83131F4D2D88AB4205D1012036
:1028D0001D4BD87238BC5DF814FB04F54070194BE1
:1028E0005D881B1D03EB051318609DF8140001287B
:1028F0003BD1042313484588001D00EB05100371EC
:10290000442310484588001D00EB05104371432304
:102910000C484588001D00EB051017E01C00002046
:10292000240000202C000020CDCC6C40340000207E
:10293000E4389641D827002000003444EC270020DA
:1029400000280020946600202A2D00208371002397
:10295000FC484588001D00EB0510C371F948458807
:10296000001D00EB051003722CE09DF814000228F6
:1029700028D10823F3484588001D00EB051003719A
:102980004423F0484588001D00EB051043714323A4
:10299000EC484588001D00EB051083710023E948D1
:1029A0004588001D00EB0510C371E6484588001DF1
:1029B00000EB05100372E3484388001D00EB031091
:1029C000C0F80920DF484588001D00EB0510417361
:1029D000DC4B5B88581CC31700EB93639B11A0EB87
:1029E0008313D84D6B800020009000BF72E70FB4B6
:1029F00078B507A90091009904C90091009908C908
:102A00000091D04C6488611CCC1701EB9464A41134
:102A1000A1EB8414CB4D2D88AC4205D10121CA4CC9
:102A2000E17278BC5DF814FB00F54071C54C658817
:102A3000241D04EB051421609DF81810012922D1F2
:102A40000424C0494D88091D01EB05110C714A246D
:102A5000BC494D88091D01EB05114C715624B9493B
:102A60004D88091D01EB05118C710024B5494D8875
:102A7000091D01EB0511CC71B2494D88091D01EB0F
:102A800005110C7239E09DF81810022935D1441E49
:102A900004EB8404AD4D05EB0414B4F848405C43EA
:102AA0003C2594FBF5F10825A64C6688241D04EB13
:102AB000061425714A25A34C6688241D04EB0614D0
:102AC000657156259F4C6688241D04EB0614A5717C
:102AD00000259C4C6688241D04EB0614E571994C76
:102AE0006688241D04EB06142572964C6588241D07
:102AF00004EB0514C4F8091000BF92494D88091D64
:102B000001EB05114A738F4C6488611CCC1701EBF3
:102B10009464A411A1EB84148A4D6C80002100916F
:102B200000BF7EE710B50246864B5B88581CC31772
:102B300000EB93639B11A0EB8313824C2488A34288
:102B400003D10120804BD87210BD02F540707D4B3F
:102B50005C881B1D03EB0413186004237948448828
:102B6000001D00EB04100371492376484488001DC2
:102B700000EB04104371512372484488001D00EBA0
:102B80000410837100236F484488001D00EB04107B
:102B9000C37180236B484488001D00EB041003724E
:102BA00068484388001D00EB03104173654B5B8848
:102BB000581CC31700EB93639B11A0EB8313614C6C
:102BC000638000BFC0E70FB438B5044606A8009084
:102BD000009802C80090009804C80090594B5B8888
:102BE000581CC31700EB93639B11A0EB8313554D47
:102BF0002D88AB4205D10120534BD87238BC5DF80B
:102C000014FB04F540704F4B5D881B1D03EB05134F
:102C100018609DF81400012823D1042349484588F1
:102C2000001D00EB051003714D2346484588001D2B
:102C300000EB051043714F2342484588001D00EB0F
:102C40000510837100233F484588001D00EB0510E7
:102C5000C37140233B484588001D00EB05100372FB
:102C60003DE09DF81400022839D1082335484588F5
:102C7000001D00EB051003714D2332484588001DEF
:102C800000EB051043714F232E484588001D00EBD3
:102C90000510837100232B484588001D00EB0510AB
:102CA000C37128484588001D00EB051003722548B4
:102CB0004588001D00EB0510427222484588001D22
:102CC00000EB051083721F484588001D00EB0510BE
:102CD000C3721C484588001D00EB0510037319489A
:102CE0004588001D00EB05104173164B5B88581C8E
:102CF000C31700EB93639B11A0EB8313114D6B8003
:102D00000020009000BF79E770B586B006460C46FB
:102D1000154600208DF80C008DF80D0006F540706A
:102D20000190012C14D104208DF80E004D208DF857
:102D30000F004F218DF8101000218DF811108DF823
:102D400012101DE0946600202A2D0020002800208B
:102D5000022C15D108208DF80E004D208DF80F00A3
:102D60004F218DF8101000218DF811108DF81210E0
:102D70008DF813508DF814108DF815108DF816106D
:102D800001A9FE4805F0F0FC06B070BD0FB478B59F
:102D90000022002307A90091009904C9009100991D
:102DA00008C90091F64C6488611CCC1701EB94644F
:102DB000A411A1EB8414F24D2D88AC4205D1012160
:102DC000F04CE17278BC5DF814FB00F54071EC4CFE
:102DD0006588241D04EB051421609DF81810012955
:102DE00022D10424E6494D88091D01EB05110C711F
:102DF0005024E3494D88091D01EB05114C71412414
:102E0000DF494D88091D01EB05118C710024DC4957
:102E10004D88091D01EB0511CC71D9494D88091D5B
:102E200001EB05110C724BE09DF81810022947D1F7
:102E3000441E04EB8404D44D05EB041494ED130AF2
:102E40009FEDD21AC0EE010A441E04EB840405EB88
:102E50000414B4F848405C4300EE104AB8EEC00ACF
:102E600020EE800ABDEEC00A10EE101A0825C44CF0
:102E70006688241D04EB061425715025C04C668815
:102E8000241D04EB061465714125BD4C6688241D84
:102E900004EB0614A5710025B94C6688241D04EBCB
:102EA0000614E571B64C6688241D04EB06142572E1
:102EB000B34C6588241D04EB0514C4F8091000BF49
:102EC000AF494D88091D01EB05114A73AC4C64886C
:102ED000611CCC1701EB9464A411A1EB8414A84DE0
:102EE0006C800021009100BF6CE710B50246A44B36
:102EF0005B88581CC31700EB93639B11A0EB8313F3
:102F00009F4C2488A34203D101209E4BD87210BD50
:102F100002F540709A4B5C881B1D03EB041318608C
:102F2000042397484488001D00EB041003715023CC
:102F300093484488001D00EB0410437145239048DA
:102F40004488001D00EB0410837100238C484488E2
:102F5000001D00EB0410C37189484488001D00EB7C
:102F60000410037286484388001D00EB0310417370
:102F7000834B5B88581CC31700EB93639B11A0EB3A
:102F800083137F4C638000BFC1E710B502467C4BC2
:102F90005B88581CC31700EB93639B11A0EB831352
:102FA000774C2488A34203D10120764BD87210BD00
:102FB00002F54070724B5C881B1D03EB0413186014
:102FC00004236F484488001D00EB04100371502354
:102FD0006B484488001D00EB04104371522368487D
:102FE0004488001D00EB041083710023644844886A
:102FF000001D00EB0410C37161484488001D00EB04
:10300000041003725E484388001D00EB03104173F7
:103010005B4B5B88581CC31700EB93639B11A0EBC1
:103020008313574C638000BFC1E70FB438B5044623
:1030300006A80090009802C80090009804C800906C
:103040004F4B5B88581CC31700EB93639B11A0EB9D
:1030500083134B4D2D88AB4205D10120494BD872CB
:1030600038BC5DF814FB04F54070454B5D881B1DB2
:1030700003EB051318609DF81400012822D10423E6
:103080003F484588001D00EB0510037150233C4864
:103090004588001D00EB05104371582338484588CA
:1030A000001D00EB05108371002335484588001D85
:1030B00000EB0510C37132484588001D00EB051078
:1030C00003722CE09DF81400022828D108232C4814
:1030D0004588001D00EB05100371502328484588E2
:1030E000001D00EB05104371582325484588001D3D
:1030F00000EB05108371002321484588001D00EB7B
:103100000510C3711E484588001D00EB05100372B1
:103110001B484388001D00EB0310C0F80920184825
:103120004588001D00EB05104173154B5B88581C4A
:10313000C31700EB93639B11A0EB8313104D6B80BF
:103140000020009000BF8BE70FB438B5044606A8F6
:103150000090009802C80090009804C80090084BA6
:103160005B88581CC31700EB93639B11A0EB831380
:10317000034D2D88AB4210D1012009E000640040CE
:10318000946600202A2D0020002800200000B4436F
:10319000FA4BD87238BC5DF814FB04F54070F84B5C
:1031A0005D881B1D03EB051318609DF814000128B2
:1031B00022D10423F2484588001D00EB051003715D
:1031C0005323EF484588001D00EB0510437144234D
:1031D000EB484588001D00EB051083710023E8488B
:1031E0004588001D00EB0510C371E5484588001DAA
:1031F00000EB051003722CE09DF81400022828D182
:103200000823DF484588001D00EB05100371532398
:10321000DB484588001D00EB051043714423D84866
:103220004588001D00EB051083710023D4484588B4
:10323000001D00EB0510C371D1484588001D00EB4F
:1032400005100372CE484388001D00EB0310C0F840
:103250000920CB484588001D00EB05104173C84B81
:103260005B88581CC31700EB93639B11A0EB83137F
:10327000C34D6B800020009000BF8BE70FB478B582
:1032800007A90091009904C90091009908C900910B
:10329000BB4C6488611CCC1701EB9464A411A1EBB6
:1032A0008414B74D2D88AC4205D10121B34CE17295
:1032B00078BC5DF814FB00F54071B14C6588241DA5
:1032C00004EB051421609DF81810012922D1042473
:1032D000AB494D88091D01EB05110C715324A84918
:1032E0004D88091D01EB05114C715024A4494D88EE
:1032F000091D01EB05118C710024A1494D88091DA0
:1033000001EB0511CC7140249D494D88091D01EB4D
:1033100005110C729DF81810022935D1441E04EBDA
:103320008404984D05EB0414B4F848405C433C25F4
:1033300094FBF5F10825924C6688241D04EB0614D5
:10334000257153258E4C6688241D04EB0614657187
:1033500050258B4C6688241D04EB0614A5710025AE
:10336000874C6688241D04EB0614E571844C66883E
:10337000241D04EB06142572814C6588241D04EB82
:103380000514C4F8091000BF7D494D88091D01EBE3
:1033900005114A737A4C6488611CCC1701EB946464
:1033A000A411A1EB8414764D6C800021009100BF24
:1033B0007EE710B50246724B5B88581CC31700EBC2
:1033C00093639B11A0EB83136D4C2488A34203D11C
:1033D00001206A4BD87210BD02F54070684B5C88C2
:1033E0001B1D03EB04131860042365484488001D6B
:1033F00000EB04100371532361484488001D00EB67
:103400000410437154235E484488001D00EB0410EF
:10341000837100235A484488001D00EB0410C371D7
:1034200057484488001D00EB041003725448438839
:10343000001D00EB03104173514B5B88581CC317F0
:1034400000EB93639B11A0EB83134D4C638000BF93
:10345000C1E70FB438B5044606A80090009802C82A
:1034600000900098006800EE100A0098001D00907F
:10347000434A5288501CC21700EB92629211A0EB93
:1034800082123F4B1B889A4205D101203B4AD072E1
:1034900038BC5DF814FB04F54070394A5388121D9E
:1034A00002EB031210609DF81400022833D1F8EEED
:1034B000C00A9FED351AC0EE811AFDEEE10A10EE4A
:1034C000900A08232E4A5588121D02EB051213712B
:1034D00054232B4A5588121D02EB051253714323C6
:1034E000274A5588121D02EB051293710023244AC6
:1034F0005588121D02EB0512D371214A5588121D01
:1035000002EB051213721E4A5388121D02EB0312BE
:10351000C2F8090000BF1A484388001D00EB0310E1
:103520004173174A5288501CC21700EB92629211E5
:10353000A0EB8212124B5A800020009000BFA7E738
:103540000FB438B5044606A80090009802C8009051
:10355000009804C800900A4B5B88581CC31700EB06
:1035600093639B11A0EB8313054D2D88AB420DD1C6
:103570000120024BD87238BC5DF814FB2A2D0020C4
:1035800094660020002800200000C84204F5407026
:10359000674B5D881B1D03EB051318609DF8140035
:1035A000012822D1042362484588001D00EB051044
:1035B000037155235E484588001D00EB05104371DB
:1035C0004D235B484588001D00EB051083710023E7
:1035D00057484588001D00EB0510C37154484588C5
:1035E000001D00EB051003723DE09DF81400022859
:1035F00039D108234E484588001D00EB05100371A2
:1036000055234B484588001D00EB051043714D23A1
:1036100047484588001D00EB05108371002344488E
:103620004588001D00EB0510C37141484588001D09
:1036300000EB051003723E484588001D00EB0510A5
:1036400042723B484588001D00EB051083723848E4
:103650004588001D00EB0510C37235484588001DE4
:1036600000EB0510037332484588001D00EB051080
:1036700041732F4B5B88581CC31700EB93639B115E
:10368000A0EB83132A4D6B800020009000BF72E7EF
:1036900010B50246264B5B88581CC31700EB93639A
:1036A0009B11A0EB8313224C2488A34203D1012059
:1036B000204BD87210BD02F540701D4B5C881B1D5D
:1036C00003EB04131860042319484488001D00EB21
:1036D00004100371562316484488001D00EB0410A3
:1036E0004371582312484488001D00EB0410837175
:1036F00000230F484488001D00EB0410C3710C48E0
:103700004488001D00EB0410037209484388001D23
:1037100000EB03104173064B5B88581CC31700EB8A
:1037200093639B11A0EB8313014C638000BFC1E73F
:10373000946600202A2D002010B50720FE4908704D
:103740004FF4FA60FD490881FD48FB49097880F88B
:1037500038100020FA490870487002208870B2EED4
:10376000040A084680ED010A4FF47A718160002155
:10377000C160B7EE000A80ED040AEF49097880F8CD
:1037800074100020EE4981F83C000021EC4880F8DC
:103790003D10022180F83E10B2EE040A80ED100ABE
:1037A0004FF47A71416400218164B7EE000A80ED24
:1037B000130AE149097880F8B0100020E04981F847
:1037C00078000021DE4880F87910022180F87A1014
:1037D000B2EE040A80ED1F0A4FF47A71C0F880102F
:1037E0000021C0F88410B7EE000A80ED220AD24909
:1037F000097880F8EC100020D14981F8B40000214C
:10380000CF4880F8B510022180F8B610B2EE040A55
:1038100080ED2E0A4FF47A71C0F8BC100021C0F878
:10382000C010B7EE000A80ED310A002012E0C54951
:1038300091ED000AC0EB0011C14A02EB810181ED5C
:103840000D0AC0EB001102EB8101BC4C1CCC2831ED
:103850001CC1401C0428EADB10BD30B52DED028BE5
:1038600081B00446B0EE408A0D4600200090B64973
:103870004988481CC11700EB91618911A0EB8111A7
:10388000B14A1288914206D10120B049C87201B0F4
:10389000BDEC028B30BD9FEDAE0A28EE000ABDEEF6
:1038A000C00A10EE101AA84A5388121D02EB031228
:1038B000501D6A4603F0B4F944F07040A2494A88AA
:1038C000091D01EB021108600098C1B29E484288B0
:1038D000001D00EB021001719B484188001D00EBA8
:1038E0000110457398494988481CC11700EB916144
:1038F0008911A0EB8111944A518000BFC7E7F8B548
:1039000004460E461546002000908F494988481C01
:10391000C11700EB91618911A0EB81118A4A1288CD
:10392000914203D101208949C872F8BD86494A886D
:10393000091D01EB0211481D6A46314603F070F97A
:1039400044F0704040F440717F484288001D00EB15
:10395000021001600098C1B27B484288001D00EB54
:103960000210017178484188001D00EB0110457379
:1039700075494988481CC11700EB91618911A0EB7A
:103980008111714A518000BFCFE730B52DED028B18
:1039900081B00446B0EE408A0D46002000906A498E
:1039A0004988481CC11700EB91618911A0EB811176
:1039B000654A1288914206D101206449C87201B05B
:1039C000BDEC028B30BD9FED630A28EE000ABDEE10
:1039D000C00A10EE101A5C4A5388121D02EB031243
:1039E000501D6A4603F01CF944F0704040F48071A9
:1039F00055484288001D00EB021001600098C1B2DA
:103A000051484288001D00EB021001714E48418868
:103A1000001D00EB011045734B494988481CC11734
:103A200000EB91618911A0EB8111474A518000BFE1
:103A3000C5E730B52DED028B81B00446B0EE408A6B
:103A40000D460020009040494988481CC11700EBF2
:103A500091618911A0EB81113B4A1288914206D1F4
:103A600001203A49C87201B0BDEC028B30BD9FED18
:103A7000390A28EE000ABDEEC00A10EE101A324ACA
:103A80005388121D02EB0312501D6A4603F0C8F85A
:103A900044F0704040F400712B484288001D00EB58
:103AA000021001600098C1B227484288001D00EB57
:103AB0000210017124484188001D00EB011045737C
:103AC00021494988481CC11700EB91618911A0EB7D
:103AD00081111D4A518000BFC5E730B52DED028B25
:103AE00081B00446B0EE408A0D4600200090164991
:103AF0004988481CC11700EB91618911A0EB811125
:103B0000114A1288914206D101201049C87201B0B1
:103B1000BDEC028B30BD9FED0F0A28EE000ABDEE12
:103B2000C00A10EE101A084A5388121D02EB031245
:103B3000501D6A4610E000003C0000209029002043
:103B40009C29002040000020946600202A2D00209F
:103B50000050C34700007A4403F062F844F070401C
:103B600040F4406110484288001D00EB02100160E3
:103B70000098C1B20C484288001D00EB0210017190
:103B800009484188001D00EB01104573064949882A
:103B9000481CC11700EB91618911A0EB8111024A09
:103BA000518000BFB3E700009466002010B50820E4
:103BB00009F01CFE044600206060204610BD012074
:103BC0003F494872704710B5FFF7F9FFFDF74CFC0D
:103BD000FEF7A4FCFFF7B0FD002018E0002100EB89
:103BE0008002384B03F8121000EB800203EB420214
:103BF00091714FF47A7100EB800203EB4202518025
:103C0000002100EB800203EB42029180401C03285C
:103C1000E4DBFFF7CBFF2C49486010BD00220A7897
:103C200003780B700270704770B506460C46354637
:103C300000E06D6815B16868A042FAD14CB16068C7
:103C40006860204609F0AAFD1F480078401E1E4902
:103C5000087070BD02460B46114605E00888984280
:103C600001D10846704749680029F7D10020F9E7DB
:103C70002DE9F041074688463C4641462046FFF77D
:103C8000E9FF08B1BDE8F081002602E06468701C1D
:103C9000C6B20D480078B04201DD002CF6D16CB1FF
:103CA000082009F0A3FD0546A5F80080606868605B
:103CB000656005480078401C0349087000BFE1E7D3
:103CC0002A2D00208C2A00204C0000201CB54048E2
:103CD000006840F010003E4908603D481438006814
:103CE00040F480003A491439086001200221002381
:103CF0000A46CDE900104FF4C061364804F0CCF913
:103D000007220921334804F0A7F907220A21314884
:103D100004F0A2F940F2D9202F4908814FF4037032
:103D200088810846008820F020000880032325228F
:103D30000121062004F002F94FF48070274B264A37
:103D4000121D04210090264803F0E4FF01221021F7
:103D5000234805F0D8F9032346220021072004F068
:103D6000EDF81D48808A40F080001B498882084693
:103D7000808940F4005088811CBD70B504460D4612
:103D80001848407B78B92A462146144808F0A4FD1B
:103D90002946134805F04BF90121114805F026F991
:103DA00001201049487370BD10B50F490C4805F04B
:103DB000C7F901280AD10C49094805F090F90A49C8
:103DC000074805F0E7F900200649487310BD0000D8
:103DD000443802400000024000100140AA2A00209E
:103DE000B86402402A2D00200080002800BF00BFD8
:103DF00000BFBFF34F8F00BF00BF00BFF748006890
:103E000000F4E060F6490843001DF449086000BF73
:103E100000BF00BFBFF34F8F00BF00BF00BF00BF98
:103E200000BFFDE71CB5EF48006840F40030ED49E5
:103E30000860EC481038006840F40010E949103977
:103E400008600120022100230A46CDE900100C2160
:103E5000E54804F021F907220221E34804F0FCF8C8
:103E600007220321E04804F0F7F84FF4B670DF4969
:103E700008800C20091D0880DC480838008820F0E4
:103E80002000DA4908390880D848001D008840F031
:103E90002000D649091D0880032326220121042081
:103EA00004F04CF84FF48070D14BD04A121F04211B
:103EB0000090D04803F02EFF01221021CD4805F0DC
:103EC00022F9032311220121072004F037F8C74803
:103ED0000C30008840F08000C4490C310880C34891
:103EE000001D008840F40050C049091D08801CBD19
:103EF00010B5C149BF4805F023F901280AD1BE49D0
:103F0000BC4805F0ECF8BC49BA4805F043F900207C
:103F1000BA49887310BD10B52DED028B86B0002410
:103F200040F22531B148083805F011FF58B1AF48CB
:103F3000083805F04AFE0020B14908702021B14838
:103F400008F0E3FCF9E340F22551A848083805F0F1
:103F5000FEFE0028F6D02021A448083805F0EEFE29
:103F600040F22551A148083805F028FF9F4808383D
:103F700005F02BFEC4B2A248007800F0400008B360
:103F80009F48007800F0800020BBFF2C06D19C48A1
:103F9000007840F080009A4908701BE0984800784B
:103FA00000F03F019748445495480078401C9449DC
:103FB00008700846007800F03F0028280ADD00203D
:103FC000087007E0EE2C05D18D48007840F04000E5
:103FD0008B4908708A48007800F080000028B1D032
:103FE000894890F82102012804D1874890F82302DB
:103FF00086490870844890F8230208287ED2DFE8BA
:1040000010F00800150087017D00770239047D005B
:10401000F6057D4890F82502082804D1012002F019
:1040200046FAFFF7E3FE00BF00BF60E2764890F873
:104030002502801E17287DD2DFE800F00C1F307C9F
:104040003F667D8890A5AEB7C0C4C8F77CF57C7C80
:10405000F47CCF0000231A4602210120FEF7B3FDB5
:1040600000231A4602210846FEF7ADFD00231A463A
:1040700002210320FEF7A7FD48E1634890F82802DB
:1040800008B1012100E0002161480078401E00EBEA
:104090008000604A02EB4000817137E15948C01D41
:1040A00009F006F9B0EE408AF0EE608A51EC180B88
:1040B00008F064FD5649087028E15248C01D09F017
:1040C000F7F8B0EE408AF0EE608A51EC180B08F079
:1040D00036FD4F490978491E01EB81014E4A02EB3A
:1040E0000111C8604A480078401E00EB800011466C
:1040F00001EB0010C3680022022100E0F0E3444815
:104100000078FFF7BBF801E13E48C01D09F0D0F888
:10411000B0EE408AF0EE608A51EC180B08F00FFD0B
:104120003B490978491E01EB81013B4A02EB011131
:104130004860EBE0E9E0012135480078401E00EBE3
:104140008000344A02EB4000C171DFE000231A46D0
:1041500002212F480078FEF768FFD7E02C4800784E
:10416000401E00EB80002C4901EB00104368002248
:10417000022127480078FEF709FE00212448007834
:10418000FEF73DFBC2E0204890F8283200220221D1
:104190000120FEF718FDB9E01B4890F828320022F4
:1041A00002210846FEF70FFDB0E0174890F82832CC
:1041B000002202210320FEF706FDA7E00120174997
:1041C0000870A3E00220154908709FE004211448FC
:1041D00080F8421380F8121498E08BE00CED00E0B8
:1041E0000000FA0540380240000002400844004048
:1041F000CA2B0020A0600240008020202A2D002031
:1042000055000020CA2C0020AA2A002054000020BB
:10421000440000208C2A00200028002046000020B6
:10422000582100203FE017E0FFE70120FA4908701D
:10423000FA490870FA49087081F8D00081F8A001A5
:1042400081F8700248700121F54880F8D11080F89B
:10425000A11180F8711259E04FF4823002900020D1
:104260008DF80D0004208DF80C008DF80E008DF8EF
:104270000F00EC4890F82802012806D193208DF811
:104280000F004E218DF8101005E085208DF80F00ED
:1042900046218DF8101001218DF8111001A9E24876
:1042A00004F062FA32E04FF48230029000208DF880
:1042B0000D0004208DF80C008DF80E008DF80F0015
:1042C000D84890F82802012806D193208DF80F00D5
:1042D0004E218DF8101005E085208DF80F00462145
:1042E0008DF8101002218DF8111001A9CE4804F0AC
:1042F0003BFA0BE00121CD480078401E00EB800026
:10430000CB4A02EB4000017200E000BF00BF8CE628
:10431000C44890F825020F287AD2DFE800F0E608BA
:1043200020384853668295E6E6A8BEC3CE00C14851
:1043300008F0BEFFB0EE408AF0EE608A51EC180B38
:1043400008F0FDFBB9490978491E01EB8101BA4A21
:1043500002EB0111C860012002F0ABFEC6E0B548D7
:1043600008F0A6FFB0EE408AF0EE608A51EC180B20
:1043700008F0E5FBAD490978491E01EB8101AE4A21
:1043800002EB01114860012002F093FEAEE0002331
:104390001A4602210120FEF748FE00231A46022198
:1043A0000846FEF742FE012002F083FE9EE0012354
:1043B000002202219D480078FEF705FC012002F052
:1043C00078FE93E0012002F074FE00219748007807
:1043D000FEF715FA002195480078401E00EB80009A
:1043E000954A02EB0010017780E0012002F061FEA7
:1043F0008F48807968B100231A4602210120FEF718
:10440000E2FB00231A4602210846FEF7DCFB07E028
:104410006BE000231A46022184480078FEF7D3FBA4
:1044200064E082480078401E00EB8000824901EB86
:1044300000104368002202217C480078FEF7A6FCA9
:10444000012002F036FE51E078480078401E00EB73
:104450008000794901EB0010C368002202217348F3
:104460000078FEF70BFF012002F023FE3EE0012161
:104470006E480078401E00EB80006D4A02EB400061
:10448000C171002169480078401E00EB800002F8ED
:104490001010012002F00DFE28E0012002F007F8C4
:1044A000FFF7A4FC5F4890F82802401C5F490870A1
:1044B0000846007802F0FDFD18E05A4890F82802FE
:1044C00048B101205A4988710121594801740220DC
:1044D00002F0EFFD08E000205549887100215448A2
:1044E0000174012002F0E5FD00E000BF00BF7DE3A4
:1044F0004C4890F82502C01E1E287CD2DFE800F050
:104500000F1E2C3C4C5C6B7C9EAEBDCDDD7BFDFB61
:10451000FAF9F8F7F6F5F4F3F2F1F0EFEEED00202A
:1045200009E0002100EB800202EBC0023C4B03EBF0
:1045300002121170401C0828F3DB99E13D4808F095
:10454000B7FEB0EE408AF0EE608A51EC180B08F02E
:1045500015FB334988708BE1364808F0A9FEB0EEB0
:10456000408AF0EE608A51EC180B08F007FBC1B2EC
:104570002B4880F8D2107BE12E4808F099FEB0EE6F
:10458000408AF0EE608A51EC180B08F0F7FAC1B2DD
:10459000234880F8A2116BE1264808F089FEB0EEAE
:1045A000408AF0EE608A51EC180B08F0E7FAC1B2CD
:1045B0001B4880F872125BE11E4808F079FEB0EEED
:1045C000408AF0EE608A51EC180B08F0B8FA01B29C
:1045D000134801814CE1174808F06AFEB0EE408AAA
:1045E000F0EE608A51EC180B08F0A9FA01B20C4801
:1045F000A0F8D8103CE13AE10E4808F059FEB0EEC0
:10460000408AF0EE608A51EC180B08F098FA01B27B
:104610000348A0F8A8112BE1480000204900002021
:1046200058210020AA2A00200064004044000020F5
:104630008C2A0020D12C002000280020F94808F006
:1046400037FEB0EE408AF0EE608A51EC180B08F0AD
:1046500076FA01B2F448A0F8781209E1F14808F0BE
:1046600027FEB0EE408AF0EE608A51EC180B08F09D
:1046700066FA00B2EC498880FAE0EA4808F018FED1
:10468000B0EE408AF0EE608A51EC180B08F057FA51
:1046900001B2E548A0F8D410EAE0E24808F008FECC
:1046A000B0EE408AF0EE608A51EC180B08F047FA41
:1046B00001B2DD48A0F8A411DAE0DA4808F0F8FD0C
:1046C000B0EE408AF0EE608A51EC180B08F037FA31
:1046D00001B2D548A0F87412CAE0BFE0B5E0ABE083
:1046E000A2E096E08AE07EE073E067E05BE04FE006
:1046F00044E033E022E010E0FFE7CA4808F0D8FDCC
:10470000B0EE408AF0EE608A51EC180B08F036FAF1
:1047100081B2C548A0F89610AAE0C24808F0C8FDCA
:10472000B0EE408AF0EE608A51EC180B08F026FAE1
:1047300081B2BD48A0F866119AE013E3B94808F0C9
:10474000B7FDB0EE408AF0EE608A51EC180B08F02D
:1047500015FA81B2B448A0F8361289E0B14808F0E1
:10476000A7FDB0EE408AF0EE608A51EC180B08F01D
:1047700005FA81B2AC48A0F8061379E0AB4890F88E
:10478000280208B1012000E00020A74908706FE06E
:10479000A64890F8280208B1012000E00020A249B4
:1047A00081F8D00064E0A14890F8280208B1012007
:1047B00000E000209C4981F8A00159E09B4890F856
:1047C000280208B1012000E00020974981F870021A
:1047D0004EE0964890F8280208B1012000E0002041
:1047E0009149487044E0914890F8280208B10121AD
:1047F00000E000218C4880F8D11039E08B4890F817
:10480000280208B1012100E00021874880F8A111A9
:104810002EE0864890F8280208B1012100E000212E
:10482000814880F8711223E07F48007818B901218F
:104830007D4880F839101BE07B4890F8D00018B90B
:104840000121794880F8091112E0774890F8A00119
:1048500018B90121744880F8D91109E0724890F81C
:10486000700218B90121704880F8A91200E000BF59
:1048700000BF6EE26D4890F82502C01E1E2870D25F
:10488000DFE800F00F1E2F3F4F5F708090A0B0C098
:10489000D66FF6F4F3F2F1F0EFEEEDECEBEAE9E8C7
:1048A000E7E6002009E0002100EB800202EBC002F5
:1048B0005D4B03EB02121170401C0828F3DB94E1FE
:1048C000584808F0F5FCB0EE408AF0EE608A51ECF2
:1048D000180B08F053F9C1B2534880F8421384E131
:1048E00036E2504808F0E4FCB0EE408AF0EE608A10
:1048F00051EC180B08F042F9C1B24B4880F8121481
:1049000073E1484808F0D4FCB0EE408AF0EE608ACB
:1049100051EC180B08F032F9C1B2434880F8E214A8
:1049200063E1404808F0C4FCB0EE408AF0EE608AD3
:1049300051EC180B08F022F9C1B23B4880F8B215CF
:1049400053E1384808F0B4FCB0EE408AF0EE608ADB
:1049500051EC180B08F0F3F801B23348A0F84813F3
:1049600043E141E12F4808F0A3FCB0EE408AF0EEAD
:10497000608A51EC180B08F0E2F801B22A48A0F85E
:10498000181432E1274808F093FCB0EE408AF0EEAC
:10499000608A51EC180B08F0D2F801B22248A0F856
:1049A000E81422E11F4808F083FCB0EE408AF0EEE4
:1049B000608A51EC180B08F0C2F801B21A48A0F84E
:1049C000B81512E1174808F073FCB0EE408AF0EE1B
:1049D000608A51EC180B08F0B2F801B21248A0F846
:1049E000441302E10F4808F063FCB0EE408AF0EE99
:1049F000608A51EC180B08F0A2F801B20A48A0F83E
:104A00001414F2E0074808F053FCB0EE408AF0EED0
:104A1000608A51EC180B08F092F801B20248A0F835
:104A2000E414E2E0D12C002058210020AA2A002022
:104A3000FE4808F03DFCB0EE408AF0EE608A51EC92
:104A4000180B08F07CF801B2F948A0F8B415CCE0D6
:104A5000C1E0B7E0ADE0A3E097E08BE07FE073E07A
:104A600067E05BE04FE043E032E021E010E0FFE789
:104A7000EE4808F01DFCB0EE408AF0EE608A51EC82
:104A8000180B08F07BF881B2E948A0F8D613ACE027
:104A9000E64808F00DFCB0EE408AF0EE608A51EC7A
:104AA000180B08F06BF881B2E148A0F8A6149CE05E
:104AB000DE4808F0FDFBB0EE408AF0EE608A51EC73
:104AC000180B08F05BF881B2D948A0F876158CE095
:104AD000D64808F0EDFBB0EE408AF0EE608A51EC6B
:104AE000180B08F04BF881B2D148A0F846167CE0CC
:104AF000D04890F8280208B1012000E00020CC49FD
:104B000081F8400371E0CB4890F8280208B10120F9
:104B100000E00020C64981F8100466E0C54890F81E
:104B2000280208B1012000E00020C14981F8E0041A
:104B30005BE0C04890F8280208B1012000E00020A6
:104B4000BB4981F8B00550E0BA4890F8280208B196
:104B5000012100E00021B64880F8411345E0B54846
:104B600090F8280208B1012100E00021B04880F847
:104B700011143AE0AF4890F8280208B1012100E092
:104B80000021AB4880F8E1142FE0AA4890F82802F1
:104B900008B1012100E00021A54880F8B11524E00A
:104BA000A34890F8400318B90121A14880F879136F
:104BB0001BE09F4890F8100418B901219C4880F828
:104BC000491412E09A4890F8E00418B90121984875
:104BD00080F8191509E0964890F8B00518B9012138
:104BE000934880F8E91500E000BF00BFB1E09148AC
:104BF00090F82502C01E09287AD2DFE800F0051AD5
:104C00002F4051627A8B950000220321012002F08F
:104C10001DFB00220321022002F018FB00220321C9
:104C2000084602F013FB00220321042002F00EFBD1
:104C30008CE000220121084602F008FB002201213D
:104C4000022002F003FB00220121032002F0FEFA01
:104C500000220121042002F0F9FA77E0002101206E
:104C600002F03AFE0021022002F036FE002103206D
:104C700002F032FE0021042002F02EFE66E0002148
:104C8000012002F0B6FB0021022002F0B2FB00215D
:104C9000032002F0AEFB0021042002F0AAFB55E045
:104CA0000021012002F07BFC0021022002F077FCB1
:104CB0000021032002F073FC0021042002F06FFCAD
:104CC00044E000222821012002F0D7FC00226FF0EE
:104CD0002701022002F0D1FC00226FF027010320FF
:104CE00002F0CBFC00222821042002F0C6FC2DE0BB
:104CF0002BE00021012002F011FB0021022002F034
:104D00000DFB0021032002F009FB0021042002F02A
:104D100005FB1BE0474890F8280208B1012000E09D
:104D200000204549087011E00021012002F044FEF6
:104D30000021022002F040FE0021032002F03CFE90
:104D40000021042002F038FE00E000BF00BF00E0B8
:104D500000BF00BF00203949087020213348C01F20
:104D600007F0D3FD06B0BDEC028B10BD10B50446B4
:104D70003348807B50B92146324804F058F901216C
:104D8000304804F033F901202D49887310BD10B567
:104D90000024EE222146641C2B484254B1222146B5
:104DA000641C425410222146641C425400222146B5
:104DB000641C42542146641C42542146641C4254E3
:104DC00005222146641C425401222046611CCCB2BB
:104DD0001D490A54FF222046611CCCB21A490A54CC
:104DE000FC222046611CCCB217490A54FF222046FF
:104DF000611CCCB214490A542046611CCCB2124941
:104E00000A5412480078062881F04B83DFE810F03E
:104E1000490B0600D001AC02AD02F706EE22204697
:104E2000611CCCB208490A54B12211E0D12C0020F7
:104E300058210020AA2A002045000020550000200B
:104E40002A2D0020A0600240CA2B00205400002020
:104E50002046611CCCB2FE490A5412222046611C35
:104E6000CCB2FB490A5400222046611CCCB2F8495E
:104E70000A5401222046611CCCB2F5490A54002292
:104E80002046611CCCB2F2490A5403222046611C20
:104E9000CCB2EF490A5400222046611CCCB2EC4946
:104EA0000A5401222046611CCCB2E9490A54E9485F
:104EB0000078401E00EB8000E74901EB400082795A
:104EC0002046611CCCB2E2490A5400222046611CF3
:104ED000CCB2DF490A5404222046611CCCB2DC4922
:104EE0000A5400222046611CCCB2D9490A54D94840
:104EF0000278DAA1DA4808F0C5F9D94807F010FDC0
:104F0000C2B22046611CCCB2D1490A540819D44916
:104F100007F00DFDD24807F003FD2044C4B2002283
:104F20002046611CCCB2CA490A5405222046611CA5
:104F3000CCB2C7490A5400222046611CCCB2C449F5
:104F40000A54C4480078401E00EB8000C54901EBBC
:104F500000100269C1A1C24808F094F9C04807F0E6
:104F6000DFFCC2B22046611CCCB2B9490A54081910
:104F7000BB4907F0DCFCBA4807F0D2FC2044C4B2BD
:104F800000222046611CCCB2B1490A5406222046B8
:104F9000611CCCB2AE490A5400222046611CCCB23E
:104FA000AB490A54AB480078401E00EB8000AD4985
:104FB00001EB0010C268A9A1A94808F063F9A8484C
:104FC00007F0AEFCC2B22046611CCCB2A0490A5424
:104FD0000819A34907F0ABFCA14807F0A1FC204445
:104FE000C4B200222046611CCCB299490A5407225F
:104FF0002046611CCCB296490A5400222046611C0E
:10500000CCB293490A5493480078401E00EB8000CC
:10501000944901EB0010426890A1914808F032F9E0
:105020008F4807F07DFCC2B22046611CCCB2884993
:105030000A5408198A4907F07AFC894807F070FC7D
:105040002044C4B200222046611CCCB280490A54DC
:105050000B222046611CCCB27D490A540022204616
:10506000611CCCB27A490A5401222046611CCCB2A0
:1050700077490A547B4842782046611CCCB2744977
:105080000A5400222046611CCCB271490A540C22F9
:105090002046611CCCB26E490A5400222046611C95
:1050A000CCB26B490A5401222046611CCCB268493B
:1050B0000A546C4890F851202046611CCCB26449D7
:1050C0000A5400222046611CCCB261490A540D22C8
:1050D0002046611CCCB25E490A5400222046611C65
:1050E000CCB25B490A5401222046611CCCB258491B
:1050F0000A545C4890F8A1202046611CCCB2544967
:105100000A5400222046611CCCB251490A54132291
:105110002046611CCCB24E490A5400222046611C34
:10512000CCB24B490A5401222046611CCCB24849FA
:105130000A544D4802782046611CCCB244490A54B6
:1051400000222046611CCCB241490A541622204656
:10515000611CCCB23E490A5400222046611CCCB2EC
:105160003B490A5401222046611CCCB238490A54FA
:105170003D4842782046611CCCB235490A54FF2292
:105180002046611CCCB232490A54FC222046611CE4
:10519000CCB22F490A54FF222046611CCCB22C49C4
:1051A0000A542046611CCCB229490A5401F07AB94C
:1051B000EE222046611CCCB225490A54B122204679
:1051C000611CCCB222490A5412222046611CCCB286
:1051D0001F490A5400222046611CCCB21C490A54C3
:1051E00002222046611CCCB219490A5400222046F2
:1051F000611CCCB216490A5401222046611CCCB273
:1052000013490A5400222046611CCCB210490A54AA
:1052100010480078401E00EB8000124901EB00109E
:10522000C26812A10E4808F02DF80D4807F078FB6F
:10523000C2B22046611CCCB205490A54081908497B
:1052400007F075FB064807F06BFB2044C4B20FE083
:10525000CA2B0020440000208C2A00202564000076
:10526000392D0020002800202A2D0020253564003B
:1052700000222046611CCCB2FE490A54022220467C
:10528000611CCCB2FB490A5400222046611CCCB2FE
:10529000F8490A54F8480078401E00EB8000F749AE
:1052A00001EB00104268AFF23C01F54807F0EAFF5D
:1052B000F34807F035FBC2B22046611CCCB2ED4981
:1052C0000A540819EE4907F032FBED4807F028FBB5
:1052D0002044C4B200222046611CCCB2E5490A54E5
:1052E0000A222046611CCCB2E2490A540022204620
:1052F000611CCCB2DF490A54DF480078401E00EB45
:105300008000DE4901EB00100269AFF2A001DC4829
:1053100007F0B8FFDA4807F003FBC2B22046611C71
:10532000CCB2D4490A540819D54907F000FBD44837
:1053300007F0F6FA2044C4B2FF222046611CCCB22A
:10534000CC490A54FC222046611CCCB2C9490A54FB
:10535000FF222046611CCCB2C6490A542046611C7B
:10536000CCB2C4490A5421E720E7EE222046611C52
:10537000CCB2C0490A54B1222046611CCCB2BD490E
:105380000A5412222046611CCCB2BA490A540022A7
:105390002046611CCCB2B7490A5404222046611C45
:1053A000CCB2B4490A54B748807800287ED0002295
:1053B0002046611CCCB2AF490A5404222046611C2D
:1053C000CCB2AC490A5400222046611CCCB2A94997
:1053D0000A54AC488278AFF27C11A94807F052FF1A
:1053E000A74807F09DFAC2B22046611CCCB2A14981
:1053F0000A540819A24907F09AFAA14807F090FA4E
:105400002044C4B200222046611CCCB299490A54FF
:1054100008222046611CCCB296490A54002220463C
:10542000611CCCB293490A549648B0F91820AFF2E7
:10543000D411934807F026FF914807F071FAC2B2E1
:105440002046611CCCB28B490A5408198C4907F0DC
:105450006EFA8B4807F064FA2044C4B2002220465A
:10546000611CCCB283490A540C222046611CCCB288
:1054700080490A5400222046611CCCB27D490A545E
:105480008048B0F91420AFF22C217D4807F0FAFED5
:105490007B4807F045FAC2B22046611CCCB2754980
:1054A0000A540819764907F042FA00E06EE07448A1
:1054B00007F036FA2044C4B200222046611CCCB268
:1054C0006C490A5411222046611CCCB269490A5425
:1054D00000222046611CCCB266490A546948B0F8E3
:1054E0009620AFF28821664807F0CCFE644807F0AA
:1054F00017FAC2B22046611CCCB25E490A540819A0
:105500005F4907F014FA5E4807F00AFA2044C4B273
:1055100000222046611CCCB256490A54152220466E
:10552000611CCCB253490A5400222046611CCCB203
:1055300050490A5401222046611CCCB24D490A54FC
:10554000504802782046611CCCB24A490A540022D5
:105550002046611CCCB247490A5419222046611CDE
:10556000CCB244490A5400222046611CCCB24149C5
:105570000A5401222046611CCCB23E490A544148DB
:1055800042782046611CCCB23A490A543D4890F812
:10559000D20000286DD000222046611CCCB23549D3
:1055A0000A5405222046611CCCB232490A5400221A
:1055B0002046611CCCB22F490A54324890F8D220C0
:1055C000AFF268312E4807F05DFE2D4807F0A8F9CC
:1055D000C2B22046611CCCB226490A540819284997
:1055E00007F0A5F9264807F09BF92044C4B2002231
:1055F0002046611CCCB21F490A5409222146601C76
:10560000C4B21C48425400222046611CCCB2194945
:105610000A541C48B0F9E820AFF2C031184807F02E
:1056200031FE174807F07CF9C2B22046611CCCB2AB
:1056300010490A540819124907F079F9104807F07F
:105640006FF92044C4B200222046611CCCB2094943
:105650000A540D222046611CCCB206490A5400228D
:105660002046611CCCB203490A540648B0F9E42034
:105670000AE08CE0CA2B0020440000200028002013
:10568000392D002058210020AFF23041FD4807F0AD
:10569000F9FDFC4807F044F9C2B22046611CCCB2C7
:1056A000F9490A540819F74907F041F9F54807F094
:1056B00037F92044C4B200222046611CCCB2F24922
:1056C0000A5412222046611CCCB2EF490A5400222F
:1056D0002046611CCCB2EC490A54EC48B0F8662173
:1056E000AFF28841E74807F0CDFDE64807F018F92A
:1056F000C2B22046611CCCB2E3490A540819E14900
:1057000007F015F9DF4807F00BF92044C4B2002276
:105710002046611CCCB2DC490A5416222046611C8A
:10572000CCB2D9490A5400222046611CCCB2D649D9
:105730000A5401222046611CCCB2D3490A54D348F2
:1057400090F8D0202046611CCCB2CF490A540022E8
:105750002046611CCCB2CC490A541A222046611C56
:10576000CCB2C9490A5400222046611CCCB2C649B9
:105770000A5401222046611CCCB2C3490A54C348D2
:1057800090F8D1202046611CCCB2BF490A54BF48D2
:1057900090F8A20100287DD000222146601CC4B2EE
:1057A000B948425406222046611CCCB2B6490A547C
:1057B00000222046611CCCB2B3490A54B34890F889
:1057C000A221AFF26851AF4807F05CFDAD4807F089
:1057D000A7F8C2B22046611CCCB2AB490A540819E2
:1057E000A84907F0A4F8A74807F09AF82044C4B2E3
:1057F00000222146601CC4B2A34842540A2220461B
:10580000611CCCB2A0490A5400222046611CCCB2D3
:105810009D490A549D48B0F9B821AFF2C05199484A
:1058200007F030FD974807F07BF8C2B22046611CB4
:10583000CCB295490A540819924907F078F8914872
:1058400007F06EF82044C4B200222046611CCCB29E
:105850008D490A540E222046611CCCB28A490A5452
:1058600000222046611CCCB287490A548748B0F90F
:10587000B421AFF21861834807F004FD814807F0B6
:105880004FF8C2B22046611CCCB27F490A540819B5
:105890007C4900E072E007F04AF87A4807F040F8E7
:1058A0002044C4B200222046611CCCB276490A547E
:1058B00013222046611CCCB273490A5400222046B0
:1058C000611CCCB270490A547048B0F83622AFF26D
:1058D00074616C4807F0D6FC6A4807F021F8C2B240
:1058E0002046611CCCB268490A540819654907F082
:1058F0001EF8644807F014F82044C4B20022204681
:10590000611CCCB260490A5417222146601CC4B203
:105910005D48425400222046611CCCB25A490A54C8
:1059200001222046611CCCB257490A54574890F8CE
:10593000A0212046611CCCB253490A5400222046C3
:10594000611CCCB250490A541B222046611CCCB2C7
:105950004D490A5400222046611CCCB24A490A54DF
:1059600001222046611CCCB247490A54474890F8AE
:10597000A1212046611CCCB243490A54434890F807
:10598000720200287DD000222046611CCCB23E4924
:105990000A5407222046611CCCB23B490A5400221B
:1059A0002046611CCCB238490A54384890F872221B
:1059B000AFF25871334807F065FC324806F0B0FF8B
:1059C000C2B22046611CCCB22F490A5408192D4995
:1059D00006F0ADFF2B4806F0A3FF2044C4B200221E
:1059E0002046611CCCB228490A540B222046611C77
:1059F000CCB225490A5400222046611CCCB222496F
:105A00000A542248B0F98822AFF2B0711D4807F05D
:105A100039FC1C4806F084FFC2B22046611CCCB29F
:105A200019490A540819174906F081FF154806F06C
:105A300077FF2044C4B200222046611CCCB2124938
:105A40000A540F222046611CCCB20F490A5400228E
:105A50002046611CCCB20C490A540C48B0F984228F
:105A6000AFF60801074807F00DFC064806F058FF9E
:105A7000C2B22046611CCCB203490A54081901493C
:105A800006E078E0392D0020CA2B002058210020A4
:105A900006F04DFFFE4806F043FF2044C4B200224A
:105AA0002046611CCCB2FB490A5414222046611CDA
:105AB000CCB2F8490A5400222046611CCCB2F54908
:105AC0000A54F548B0F80623AFF67001F04807F025
:105AD000D9FBEF4806F024FFC2B22046611CCCB2CD
