:020000040800F2
:1000000010B20020558100085D8100085F81000862
:10001000618100086381000865810008000000001C
:1000200000000000000000000000000067810008E0
:1000300069810008000000004BA70008AFA9000874
:100040006F8100086F8100086F8100086F810008D0
:100050006F8100086F8100086F8100086F810008C0
:100060006F8100086F8100086F8100086F810008B0
:100070006F8100086F8100086F8100086F810008A0
:100080006F8100081D3600086F8100086F8100082D
:10009000830400086F8100086F8100086F810008E9
:1000A0006F8100086F8100086F8100086F81000870
:1000B000C90C0008231000086F8100086F81000838
:1000C0006F8100086F8100086F8100086F81000850
:1000D0006F8100086F810008433600086F810008B7
:1000E0006F8100086F8100086F8100086F81000830
:1000F0006F8100086F8100086F8100086F81000820
:100100006F8100086F8100086F8100086F8100080F
:100110006F8100086F8100086F8100086F810008FF
:100120006F8100086F8100086F8100086F810008EF
:100130006F8100086F8100086F8100086F810008DF
:100140006F0800080B0A00086F8100086F81000823
:100150006F8100086F8100080D3500086F8100086D
:100160006F8100086F8100086F8100086F810008AF
:100170006F8100086F8100086F8100086F8100089F
:100180006F8100086F810008DFF80CD00AF0C4FE10
:10019000004800470F03000810B2002030BF72B6BD
:1001A000704762B6704780F30888704709E0002303
:1001B0001A461946184605F022FF4FF496700AF0C9
:1001C000CDF9F4E700BF744805F0A4FD05200AF05E
:1001D000C5F9714805F09EFD05200AF0BFF96E488B
:1001E00005F098FD05200AF0B9F903E04FF4FA7024
:1001F0000AF0B4F9FAE74BE005F059FC67480078DB
:1002000010B905F0D0FC3FE01020654948836348F1
:1002100040684468002533E0207800F00F0060B9A2
:1002200080205F4908832078C0F30311402005F047
:10023000F4FC20205A49488311E0207800F00F0197
:10024000802005F0EAFC2078C0F30311402005F07F
:10025000E4FC2088C0F30321202005F0DEFC646864
:100260004FF47A700AF07AF940204D4908838020D3
:1002700008832020088341F270700AF06FF96D1C2A
:1002800046480078A842C7DC4FF47A700AF066F955
:10029000B2E705E003F031FE4FF47A700AF05EF940
:1002A000F8E770B50446002500BF0AF096FB0AF097
:1002B0002BFA0546002009F0C0FB3A4908601923D3
:1002C000394A0021394809F003FE1E23384A00212B
:1002D000384809F0FDFD2823374A0021374809F046
:1002E000F7FD3723364A0021364809F0F1FD642036
:1002F0000AF034F9002005F0BEFC022005F0F1FC04
:1003000005200AF063F828460AF002FA70BD10B51D
:1003100040F6B83005F0F9FA07F082FE4FF480613C
:1003200001F00702284B18684FF6FF031840274BCF
:10033000034343EA0220244B186000BF24480068AE
:1003400040F007002249086005F022FC05F0BEFCE1
:1003500005F07AFC05F0F4FA00F042F800F0E4F859
:1003600003F066F803F0F4F800F028FE00F084FCD7
:1003700002F0F9FF04F0DBFE0221164804F09AFFB8
:1003800008F032F80523144A0021144809F0A0FDB2
:1003900008F051F9002010BD00640040300000203A
:1003A0000000024000000020CC0C00209302000856
:1003B000CC0E0020F7010008CC1E0020C50100086B
:1003C000CC200020AD0100080CED00E00000FA0593
:1003D00030380240C4450020CC040020A3020008AD
:1003E00000B587B00121480607F093FA01210846BD
:1003F00007F05CFA09220B21484807F09CF8092213
:100400000C21464807F097F802208DF80C004FF4B5
:10041000C050029002A9414807F002F800208DF870
:1004200016008DF817008DF818008DF819008DF85A
:100430001A008DF81B008DF812008DF813000820AB
:100440008DF8140003208DF81500ADF8100004A9F4
:10045000334806F0C4F814208DF8040003208DF80A
:10046000050000208DF8060001208DF8070001A886
:1004700006F031F801220221294806F039FC07B0C4
:1004800000BD00B585B00221254806F099FC78B181
:100490000221234806F02FFD0221214806F06DFCC1
:1004A0006A4600211E4806F008FB03201D4988709B
:1004B00005B000BD10B586B004461A48807800F03B
:1004C000010048B11748807800F0020020B91548B3
:1004D000807800F00400F0B9207A28B900208DF867
:1004E0000C0020688038019000208DF80D00A07A63
:1004F0008DF80E00A27A04F10B010DF10F000AF045
:100500009FFA9DF80F004030C0B28DF80F0001A98E
:10051000034806F0DDF906B010BD000000000240FF
:10052000006400404800002000B58BB0012188061F
:1005300007F0EFF909220521FE4806F0FCFF092229
:100540000621FC4806F0F7FF02208DF81800602015
:10055000059005A9F74806F063FF40208DF82800B4
:1005600002208DF8290000208DF82A0001208DF846
:100570002B000AA805F0AFFF41208DF828000220CB
:100580008DF8290001208DF82A008DF82B000AA88B
:1005900005F0A1FF00208DF822008DF823008DF8D2
:1005A00024008DF825008DF826008DF827008DF8A1
:1005B0001E008DF81F0008208DF8200003208DF804
:1005C0002100ADF81C0007A9DB4806F008F80E2052
:1005D0008DF80E0001208DF80F0000208DF810001E
:1005E00044F22000ADF8040044F24000ADF80600EB
:1005F00044F26000ADF808004FF48140ADF80A0005
:100600000020ADF80C0001208DF8110001A806F0C3
:1006100070F80F208DF80E0001208DF80F000020DB
:100620008DF8100044F2A000ADF8040044F2C000C0
:10063000ADF8060044F2E000ADF808004FF4824047
:10064000ADF80A000020ADF80C0001208DF8110073
:1006500001A806F04EF810208DF80E0001208DF84C
:100660000F0000208DF8100045F22000ADF80400C6
:1006700045F24000ADF8060045F26000ADF8080014
:100680004FF4A140ADF80A000120ADF80C008DF840
:10069000110001A806F02DF811208DF80E000120A0
:1006A0008DF80F0000208DF8100045F2A000ADF885
:1006B000040045F2C000ADF8060045F2E000ADF8D8
:1006C00008004FF4A240ADF80A000120ADF80C007C
:1006D0008DF8110001A806F00CF812208DF80E001C
:1006E00001208DF80F0000208DF8100043F220004B
:1006F000ADF804004FF44150ADF8060043F260003D
:10070000ADF808004FF44250ADF80A000120ADF8F2
:100710000C008DF8110001A805F0EBFF13208DF8F7
:100720000E0001208DF80F0000208DF8100043F21C
:10073000A000ADF804004FF44350ADF8060043F2BA
:10074000E000ADF808004FF44450ADF80A00012075
:10075000ADF80C008DF8110001A805F0CAFF1420B7
:100760008DF80E0000208DF80F0001208DF810008C
:100770000020ADF804004FF49040ADF806004FF6AD
:10078000FF70ADF808004FF47840ADF80A00012082
:10079000ADF80C008DF8110001A805F0AAFF152096
:1007A0008DF80E0001208DF80F0000208DF810004C
:1007B0004BF22000ADF804004BF24000ADF806000B
:1007C0004BF28000ADF80800ADF80A000120ADF84A
:1007D0000C008DF8110001A805F08BFF16208DF894
:1007E0000E0001208DF80F0000208DF810004FF44E
:1007F0008150ADF804004FF48250ADF806004FF47C
:100800008350ADF808004FF48450ADF80A00012081
:10081000ADF80C008DF8110001A805F06AFF172053
:100820008DF80E0001208DF80F0000208DF81000CB
:100830004FF48550ADF804004FF48650ADF8060033
:100840004FF48750ADF808004FF48850ADF80A0017
:100850000120ADF80C008DF8110001A805F049FF4A
:1008600001221021344806F043FA0BB000BD10B548
:100870002DED0C8B86B002212F4806F0A1FA00283E
:100880007ED001AA00212C4806F017F902212A483F
:1008900006F031FB0198B0F5007F72D90198B0F5F0
:1008A000027F6ED89DF80D0000286AD10198401E85
:1008B000C4B204A9481E02F064FD0DF11201481EE5
:1008C00002F05FFD05A9481E02F05BFDBDF80F10A8
:1008D00004EB840000EBC400184A02EB0010018412
:1008E000BDF8111004EB840000EBC40002EB001013
:1008F0000183BDF8131004EB840000EBC40002EB8D
:100900000010C18204EB840101EBC40102EB011170
:10091000B1F8C0000AF0BAF941EC1A0B04EB8401FB
:1009200001EBC401054A02EB011191F8C2000AF083
:10093000ADF905E0000402400068004040210020BD
:1009400041EC1C0B04EB840000EBC400C24A02EB38
:100950000010C06900EE100AB8EEC00ADFEDBF0A51
:1009600020EE200A10EE101A08460AF0D4F953ECD3
:100970001C2B0AF00BF953EC1A2B0AF007F901E0D3
:100980002DE02BE041EC190B04EB840000EBC400DC
:10099000B14901EB001090ED321BB0EE410AF0EED0
:1009A000610A53EC102B51EC190B0AF0EFF80AF026
:1009B0007AF900B204EB840101EBC401A64A02EB10
:1009C0000111888209F07AFE04EB840101EBC40175
:1009D000A14A02EB0111C1F8B80000BF00BF06B088
:1009E000BDEC0C8B10BD4168491C416000210173B6
:1009F0000169491E0161828A511CCA1701EB92628A
:100A00009211A1EB82128282704700B587B010214B
:100A1000934806F0D5F900286ED002AA012190482B
:100A200006F04BF810218E4806F065FA10218C482C
:100A300006F0A3F99DF81000042851D19DF811008B
:100A4000F0BB0020019009210398B1EB102F46D193
:100A500001A9B7EE000A0DF1130004F036FF039868
:100A6000C0B2C0EB00107F4901EB800090F8380065
:100A700000EE900AF8EE600A80EE201ABDEEC10A80
:100A800010EE100A039901F0FE01C1EB0111754A45
:100A900002EB8101886101A9B2EE040A0DF1130095
:100AA00004F023FF039800F0FE00C0EB00106D4936
:100AB00001EB800080ED050A01A99FED6B0A00E0C3
:100AC0000EE00DF1130004F010FF039800F0FE009B
:100AD000C0EB0010634901EB800080ED080A00BF05
:100AE00009F0ECFD039901F0FE01C1EB01115D4A33
:100AF00002EB8101C86200BF07B000BD70B50446BB
:100B000004EB840000EBC400534901EB0010B0F982
:100B10000600002808DD04EB840000EBC40001EBB4
:100B20000010B0F9060009E004EB840000EBC400FB
:100B3000494901EB0010B0F90600404204EB840182
:100B400001EBC401444A02EB0111B1F8C410884220
:100B500020DD04EB840000EBC400114601EB001023
:100B6000B0F90600002802DA4FF0FF3000E0012063
:100B700004EB840101EBC401374A02EB0111B1F827
:100B8000C410484301B204EB840000EBC40002EB44
:100B90000010C18004EB840000EBC4002E4901EB7F
:100BA0000010007840B9002104EB840000EBC40081
:100BB000294A02EB0010C180042C04DA4FF40070C3
:100BC0002A49086003E040F2FF102849086000202D
:100BD0002649487208720820887204F00B0045000C
:100BE00004EB840000EBC4001B4901EB0010C1883A
:100BF0001E480B30415302466B1CD118501902F0AD
:100C0000C0FB032C01D0072C03D11849144805F070
:100C10005FFE70BD30B585B005460C4614480190A6
:100C200000208DF8090004208DF8080003208DF8BD
:100C30000A0056208DF80B004C218DF80C108DF811
:100C40000D408DF80E506946054805F041FE0948F3
:100C5000447005B030BD0000402100200000B443C6
:100C6000006800408429002000007A44D020002041
:100C700001010300F42C002010B5CA48006840F0C0
:100C80000100C849086041F657300906C8620B20C8
:100C900008850846008840F4807008800846008A6D
:100CA00020F0010008820846808940F00100888118
:100CB0000846008840F00100088003231C2201211F
:100CC000084605F0EFF910BD70B54FF08040008A7E
:100CD00000F0010000286FD00024DAE0C4EB04101B
:100CE000B14911F82000002868D0C4EB041001EBD2
:100CF00080004078002850D0C4EB041001EB800045
:100D00008078A8B1012804D0022820D0032842D13D
:100D100032E0C4EB0411A44A02EB8101D1ED010AD7
:100D2000B0EE600A611CC8B2002102F0FEF933E0A7
:100D3000C4EB04119C4A02EB8101D1ED040AB0EE30
:100D4000600A611CC8B2002102F057F924E0C4EB2C
:100D50000412954B03EB82029268C4EB0413924D8C
:100D600005EB830393F8383002FB03F1621CD0B229
:100D7000002202F094F90FE0C4EB04118A4A02EB5E
:100D80008101D1ED0D0AB0EE600A611CC8B20021EC
:100D900002F01FFA00E000BF17E0C4EB0411824A22
:100DA00002EB8101D1ED0D0AB0EE600A611CC8B200
:100DB000002102F00EFA08E06EE0FFE7611CC8B205
:100DC00000219FED7A0A02F0B0F9C4EB04107649D5
:100DD00011F82000F0B109F071FCC4EB0411724A63
:100DE00002EB8101C96A411AC4EB041002EB8000D6
:100DF000008E81420ED9C4EB0410114601EB800035
:100E000090F82800401CC4EB041102EB810181F82A
:100E1000280007E00020C4EB0411634A02EB8101C3
:100E200081F82800C4EB04105F4901EB800090F8C2
:100E300028000A2813DD0121C4EB04105A4A02EBF2
:100E4000800080F82510621C032343EA021292B24C
:100E500042F48071564A506802F0BDFA18E0002151
:100E6000C4EB0410504A02EB800080F82510621C8D
:100E7000032343EA021292B242F480714C4A506852
:100E800002F09BFA05464A494868294602F07FFA73
:100E9000641C042CFFF622AF4FF08040008A20F043
:100EA00001004FF08041088270BD70B5414908785B
:100EB000411C404A1170032807DD002011460870CC
:100EC00000220121104601F081FC002464E004EBC3
:100ED0008400394901EB0010407800B309F0EEFBC3
:100EE00004EB8401344A02EB0111096C411A04EB52
:100EF000840002EB0010B0F8440081420FD904EBEB
:100F00008400114601EB001090F83C00401CC1B277
:100F100004EB840002EB001080F83C1007E0002195
:100F200004EB8400244A02EB001080F83C1004EB30
:100F30008400214901EB001090F83C000A2812DDE2
:100F4000012104EB84001C4A02EB0010C177621CF3
:100F5000022343EA021292B242F48071144A5068AA
:100F600002F039FA17E0002104EB8400124A02EB88
:100F70000010C177621C022343EA021292B242F4CB
:100F800080710B4A506802F018FA05460849486813
:100F9000294602F0FCF9641C042C98DB70BD7047F4
:100FA000704770474038024084290020000000004C
:100FB0003000002004000020E827002010B527485A
:100FC000006840F002002549086042F227302449B9
:100FD00008600720091F088021482C38008840F449
:100FE00080701F492C3908801D481C38008820F06B
:100FF00001001B491C390880081F008840F00100CF
:10100000091F088016482C38008840F00100144958
:101010002C39088003231D220021012005F042F80D
:1010200010BD10B50E481C38008800F0010058B102
:101030000C490D4804F083F80C48407A20B1022294
:1010400008490B4804F086F905481C38008820F050
:10105000010003491C39088010BD000040380240DF
:101060002C0400405C66002000680040F42C002046
:10107000C445002010B52DED0E8B4FF40050FE49F5
:101080000880FE4908802420FB4988701320FB4912
:10109000887042F22830F849888043F69910F74961
:1010A00088809FEDF70BF44880ED020B9FEDF40B69
:1010B000084680ED020B0120F34908724FF4FA70E4
:1010C00048810020087308709FEDF00A084680ED03
:1010D000010A4FF4FA70C88180000882EC498883C5
:1010E0000024E3E004EB840000EBC400E94901EBD9
:1010F0000010E7490968C0F8A010E548416804EB12
:10110000840000EBC400E34A02EB0010C0F8A41016
:1011100004EB840101EBC40102EB011101F1A80011
:101120000A22DB49083109F08BFCD948418A04EBDB
:10113000840000EBC400D74A02EB0010A0F8B21004
:1011400004EB840000EBC400114601EB0010A0305A
:10115000CF4B59699A69DB6914300EC004EB8401E6
:1011600001EBC401CB4A02EB0111B1F8C00009F058
:101170008DFD41EC1A0B04EB840101EBC401C54A5F
:1011800002EB011191F8C20009F080FD41EC1C0B4B
:1011900004EB840000EBC400BE4A02EB001090EDAB
:1011A000240A10EE101A084609F0B5FD41EC1E0B9A
:1011B00004EB840000EBC400B64901EB001090ED95
:1011C000321BB0EE410AF0EE610A53EC102B51ECE9
:1011D0001E0B09F069FC53EC1C2B09F065FC53EC69
:1011E0001A2B09F061FC9FEDAC0B53EC102B09F0AE
:1011F000CDFC09F077FD04EB840101EBC401A54AA5
:1012000002EB0111C1F8A00004EB840101EBC40161
:1012100002EB0111B1F8C00009F038FD41EC1A0BE6
:1012200004EB840101EBC4019A4A02EB011191F82D
:10123000C20009F02BFD41EC1C0B04EB840101EB17
:10124000C401944A02EB0111B1F9040009F00DFD4B
:1012500041EC1E0B04EB840000EBC4008D4901EB54
:10126000001090ED321BB0EE410AF0EE610A53EC33
:10127000102B51EC1E0B09F017FC53EC1C2B09F042
:1012800013FC53EC1A2B09F00FFC9FED830B53EC6E
:10129000102B09F07BFC09F006FD04EB840101EB47
:1012A000C4017C4A02EB0111C860641C082CFFF6E3
:1012B00019AFBDEC0E8B10BD002239210A54C2615A
:1012C00000218182704710B5044604EB840000EBD6
:1012D000C400704901EB0010D0ED1D0A04EB84003E
:1012E00000EBC40001EB0010B0F9080000EE100A9A
:1012F000B8EEC00A20EE800ABDEEC00A10EE100A59
:1013000004EB840101EBC401624A02EB011148665F
:1013100004EB840000EBC400114601EB0010B0F9AF
:10132000181004EB840000EBC40002EB0010C1674E
:1013300004EB840101EBC40102EB011101F1640033
:1013400004F036FA04EB840000EBC400514901EBD1
:101350000010C18804EB840000EBC4004D4A02EB8E
:101360000010806F084401B204EB840000EBC4005D
:1013700002EB0010C18010BD10B52DED0E8B0446A0
:1013800004EB840101EBC401424A02EB0111B1F804
:10139000C00009F07BFC41EC1A0B04EB840101EB6B
:1013A000C4013C4A02EB011191F8C20009F06EFC45
:1013B00041EC1C0B04EB840101EBC401354A02EB48
:1013C0000111B1F9040009F050FC41EC1E0B04EBD3
:1013D000840000EBC4002F4901EB001090ED321B9C
:1013E000B0EE410AF0EE610A53EC102B51EC1E0BEB
:1013F00009F05AFB53EC1C2B09F056FB53EC1A2B4B
:1014000009F052FB9FED240B53EC102B09F0BEFBAF
:1014100009F049FC04EB840101EBC4011D4A02EB15
:101420000111C86004EB840000EBC400114601EB1D
:101430000010C06804EB840101EBC40102EB011150
:10144000C86304EB840000EBC400114601EB0010FC
:10145000407870B904EB840000EBC40001EB00108D
:10146000D0F8A40004EB840101EBC40102EB0111EC
:10147000C86304EB840013E0E8200020F82000207B
:10148000000000000000F03F082100200000FA43A7
:101490001C21002040210020000000000080764038
:1014A00000EBC400FC4901EB001090F88C0088B3FD
:1014B00004EB840000EBC40001EB0010C06B0028BB
:1014C00007DD04EB840000EBC40001EB0010C06BEF
:1014D00008E004EB840000EBC400EF4901EB0010CE
:1014E000C06B404204EB840101EBC401EA4A02EB09
:1014F0000111D1F8A01088421FD904EB840000EB41
:10150000C400114601EB0010C06B002803DA4FF055
:10151000FF3001E011E0012004EB840101EBC40184
:10152000DD4A02EB0111D1F8A010484304EB84011D
:1015300001EBC40102EB0111C86304EB840000EB72
:10154000C400D54901EB0010C16904EB840000EB35
:10155000C400D14A02EB0010416504EB840101EBA9
:10156000C40102EB011101F13C0004F021F904EB8C
:10157000840000EBC400C84901EB0010D0ED130A51
:1015800004EB840000EBC40001EB0010006D00EEE2
:10159000100AB8EEC00A20EE800ABDEEC00A10EEB6
:1015A000100A04EB840101EBC401BB4A02EB0111F8
:1015B000486604EB840000EBC400114601EB001008
:1015C00090F8940088B304EB840000EBC40001EBB6
:1015D0000010406E002807DD04EB840000EBC4001F
:1015E00001EB0010406E08E004EB840000EBC40047
:1015F000A94901EB0010406E404204EB840101EB6D
:10160000C401A54A02EB0111B1F8961088421FDD12
:1016100004EB840000EBC400114601EB0010406EA7
:10162000002803DA4FF0FF3001E011E0012004EB65
:10163000840101EBC401984A02EB0111B1F8961044
:10164000484304EB840101EBC40102EB011148663D
:1016500004EB840000EBC4008F4901EB0010B0F9EB
:10166000181004EB840000EBC4008B4A02EB00105E
:10167000C16704EB840101EBC40102EB011101F12C
:10168000640004F095F804EB840000EBC400824988
:1016900001EB0010C18804EB840000EBC4007E4A1B
:1016A00002EB0010806F084401B204EB840000EBF1
:1016B000C40002EB0010C18004EB840000EBC40006
:1016C000114601EB0010D0F8AC00002808DD04EB57
:1016D000840000EBC40001EB0010D0F8AC0009E07E
:1016E00004EB840000EBC4006B4901EB0010D0F860
:1016F000AC0040423C280ADA012004EB840101EBF3
:10170000C401654A02EB011181F8340009E00020B0
:1017100004EB840101EBC4015F4A02EB011181F883
:101720003400BDEC0E8B10BD10B5044604EB8400F4
:1017300000EBC400584901EB0010B0F99A0004EB2B
:10174000840101EBC401544A02EB0111486604EB29
:10175000840000EBC400114601EB0010B0F9181032
:1017600004EB840000EBC40002EB0010C16704EB43
:10177000840101EBC40102EB011101F1640004F0EA
:1017800017F804EB840000EBC400434901EB0010A0
:10179000C18804EB840000EBC4003F4A02EB001058
:1017A000806F084401B204EB840000EBC40002EB3C
:1017B0000010C18004EB840000EBC400114601EB73
:1017C0000010B0F90600002808DD04EB840000EBEF
:1017D000C40001EB0010B0F9060009E004EB84003E
:1017E00000EBC4002C4901EB0010B0F906004042A8
:1017F0002A49098A88421ADD04EB840000EBC40000
:10180000254901EB0010B0F90600002802DA4FF07C
:10181000FF3000E001202149098A484301B204EB6E
:10182000840000EBC4001C4A02EB0010C18004EBF2
:10183000840000EBC400184901EB0010B0F9A800C7
:10184000002808DD04EB840000EBC40001EB00106D
:10185000B0F9A80009E004EB840000EBC4000E49D5
:1018600001EB0010B0F9A8004042322818DA04EB6E
:10187000840000EBC400084901EB0010B0F8B00090
:10188000401C81B204EB840000EBC400024A02EB6E
:101890000010A0F8B0100DE0402100200821002029
:1018A000002104EB840000EBC400FE4A02EB0010B0
:1018B000A0F8B01004EB840000EBC400F94901EB80
:1018C0000010B0F8B000FA2821DD002104EB8400FC
:1018D00000EBC400F34A02EB0010A0F8B01004EBD8
:1018E000840000EBC40002EB0010C161052004EB92
:1018F000840101EBC40102EB01118870012104EBAA
:10190000840000EBC40002EB001080F8351010BD1D
:1019100070B500241BE204EB840000EBC400E14935
:1019200001EB0010018C04EB840000EBC400DD4AE5
:1019300002EB0010008E081A01B204EB840000EBE9
:10194000C40002EB0010A0F8A81004EB840000EB28
:10195000C400114601EB0010808A04EB840101EB06
:10196000C40102EB0111888404EB840000EBC40085
:10197000114601EB0010C18A04EB840000EBC400A7
:1019800002EB0010C18404EB840000EBC40011469C
:1019900001EB0010018B04EB840000EBC40002EBB0
:1019A0000010018504EB840000EBC400114601EB3C
:1019B0000010C16904EB840000EBC40002EB0010CE
:1019C000C16204EB840000EBC400114601EB00107F
:1019D000018C04EB840000EBC40002EB00100186D4
:1019E00004EB840000EBC400114601EB0010B0F9D9
:1019F000A800002808DD04EB840000EBC40001EB24
:101A00000010B0F9A80009E004EB840000EBC4006A
:101A1000A44901EB0010B0F9A8004042B0F57A6F7C
:101A20002CDD04EB840000EBC4009E4901EB0010A8
:101A3000B0F9A81004EB840000EBC400994A02EB53
:101A40000010B0F9A800002802DA4FF0FF3000E0E3
:101A5000012004EB840202EBC402924B03EB02125E
:101A6000B2F8C02000FB121001B204EB840000EBBE
:101A7000C4001A4602EB0010A0F8A81004EB840082
:101A800000EBC400874901EB0010C16904EB84003E
:101A900000EBC400834A02EB0010B0F9A800014437
:101AA00004EB840000EBC40002EB0010C16104EB06
:101AB000840000EBC400114601EB0010C16904EB87
:101AC000840000EBC40002EB0010C068091A04EBAC
:101AD000840000EBC40002EB0010C0F8AC1004EB73
:101AE000840000EBC400114601EB001000780028D0
:101AF00076D004EB840000EBC40001EB0010B0F9D9
:101B0000061004EB840000EBC40002EB0010B0F8F8
:101B1000C400081A002812DD04EB840000EBC400A6
:101B2000114601EB0010B0F9061004EB840000EB45
:101B3000C40002EB0010B0F8C400081A12E004EB75
:101B4000840000EBC400574901EB0010B0F8C4104A
:101B500004EB840000EBC400524A02EB0010B0F921
:101B60000600081A322847DD04EB840000EBC400AD
:101B70004C4901EB0010B0F8B200401C81B204EBFC
:101B8000840000EBC400474A02EB0010A0F8B2103A
:101B900004EB840000EBC400114601EB0010B0F828
:101BA000B200B0F57A7F1CDD012104EB840000EB6C
:101BB000C40002EB001080F8361004EB840000EB48
:101BC000C400114601EB001090F89800F0B100201D
:101BD00004EB840101EBC40102EB0111087015E074
:101BE0000AE0002104EB840000EBC4002D4A02EB64
:101BF000001080F8361009E0002104EB840000EBAF
:101C0000C400284A02EB0010A0F8B21004EB8400D4
:101C100000EBC400234901EB0010407878B104EBDD
:101C2000840000EBC40001EB0010C16904EB8400E8
:101C300000EBC4001B4A02EB0010C0F8A41004EB38
:101C4000840000EBC400174901EB001090F8390044
:101C500040B104EB840101EBC401124A02EB011014
:101C6000FFF72AFB04EB840000EBC4000D4901EBF5
:101C700000100078F0B308F021FD04EB840101EBC3
:101C8000C401084A02EB0111D1F8B810411A04EB63
:101C9000840000EBC40002EB0010B0F8BC008142ED
:101CA00039D901E04021002004EB840000EBC4009E
:101CB000114601EB001090F8B400401CC1B204EBD7
:101CC000840000EBC40002EB001080F8B4100A2975
:101CD00016DD012104EB840000EBC40002EB0010D0
:101CE00080F83710621C012343EA021292B242F4D8
:101CF000807100E00FE0184A506801F06CFB25E0AD
:101D0000002104EB840000EBC400144A02EB001035
:101D100080F837101AE0002104EB840000EBC400C7
:101D20000E4A02EB001080F8B410621C012343EA53
:101D3000021292B242F48071074A506801F03DFBF2
:101D4000054605494868294601F021FB641C082C1A
:101D5000FFF6E1AD70BD0000300000204021002002
:101D600010B54FF48040FC490880B7EE000A0846E1
:101D700080ED010A4FF48040F8490880B7EE000A70
:101D8000084680ED010A4FF47A60F54908809FED1E
:101D9000F50A084680ED010A4FF47A60F24908809E
:101DA0009FEDF20A084680ED010A0020F049087014
:101DB0009FEDF00A084680ED010A002008724FF4FA
:101DC0007A704881002008734FF4FA70C88140008F
:101DD00008824000E8490882002428E004EB8401DE
:101DE000E64A02EB011101F120001422E04908F05B
:101DF00027FE04EB8400E14901EB0010DE490A688C
:101E0000426389880187DC48C18804EB8400DB4A8F
:101E100002EB0010418704EB8400114601EB001037
:101E2000D54B9968DA681B693C300EC0641C052CE0
:101E3000D4DB10BD10B586B00446002001908DF8AB
:101E40000D008DF80C0008208DF80E0001208DF893
:101E50000F0000218DF810108DF811108DF8121060
:101E60008DF813108DF814108DF815108DF81610CC
:101E700001A9204604F02CFD06B010BD0FB438B502
:101E8000044606A80090009802C80090009804C874
:101E90000090BB4B5B88581CC31700EB93639B11EE
:101EA000A0EB8313B64D2D88AB4205D10120B54B75
:101EB000D87238BC5DF814FB04F54070B04B5D88F7
:101EC0001B1D03EB051318609DF81400012822D197
:101ED0000423AB484588001D00EB05100371412326
:101EE000A7484588001D00EB051043714323A44813
:101EF0004588001D00EB051083710023A04845882C
:101F0000001D00EB0510C3719D484588001D00EBC6
:101F1000051003722CE09DF81400022828D1082334
:101F200097484588001D00EB051003714123944834
:101F30004588001D00EB05104371432390484588F8
:101F4000001D00EB0510837100238D484588001D9E
:101F500000EB0510C3718A484588001D00EB051091
:101F6000037287484388001D00EB0310C0F8092066
:101F700083484588001D00EB05104173804B5B884A
:101F8000581CC31700EB93639B11A0EB83137C4D8C
:101F90006B800020009000BF8BE710B50246784BA5
:101FA0005B88581CC31700EB93639B11A0EB831352
:101FB000734C2488A34203D10120724BD87210BD08
:101FC00002F540706E4B5C881B1D03EB0413186018
:101FD00004236B484488001D00EB04100371422366
:101FE00067484488001D00EB041043714723644890
:101FF0004488001D00EB041083710023604844886E
:10200000001D00EB0410C3715D484488001D00EB07
:10201000041003725A484388001D00EB03104173FB
:10202000574B5B88581CC31700EB93639B11A0EBC5
:102030008313534C638000BFC1E70FB438B5044627
:1020400006A80090009802C80090009804C800906C
:102050004B4B5B88581CC31700EB93639B11A0EBA1
:102060008313474D2D88AB4205D10120454BD872D3
:1020700038BC5DF814FB04F54070414B5D881B1DB6
:1020800003EB051318609DF81400012822D10423E6
:102090003B484588001D00EB051003714423384878
:1020A0004588001D00EB05104371432334484588E3
:1020B000001D00EB05108371002331484588001D89
:1020C00000EB0510C3712E484588001D00EB05107C
:1020D00003722CE09DF81400022828D10823284818
:1020E0004588001D00EB05100371442324484588F2
:1020F000001D00EB05104371432321484588001D56
:1021000000EB0510837100231D484588001D00EB7E
:102110000510C3711A484588001D00EB05100372B5
:1021200017484388001D00EB0310C0F8092014482D
:102130004588001D00EB05104173114B5B88581C4E
:10214000C31700EB93639B11A0EB83130C4D6B80C3
:102150000020009000BF8BE7080000201000002046
:1021600018000020CDCC6C4020000020E4389641BF
:10217000C027002000003444D4270020E827002096
:102180005C660020F42C00200FB478B507A90091FC
:10219000009904C90091009908C90091FE4C648817
:1021A000611CCC1701EB9464A411A1EB8414FA4DCB
:1021B0002D88AC4205D10121F84CE17278BC5DF864
:1021C00014FB00F54071F44C6588241D04EB0514E4
:1021D00021609DF81810012922D10424EE494D8870
:1021E000091D01EB05110C714A24EB494D88091DAD
:1021F00001EB05114C715624E7494D88091D01EB8F
:1022000005118C710024E4494D88091D01EB05116D
:10221000CC71E1494D88091D01EB05110C7239E0C3
:102220009DF81810022935D1441E04EB8404DC4DBE
:1022300005EB0414B4F848405C433C2594FBF5F1ED
:102240000825D54C6688241D04EB061425714A2503
:10225000D14C6688241D04EB061465715625CE4CBE
:102260006688241D04EB0614A5710025CA4C6688F7
:10227000241D04EB0614E571C74C6688241D04EB8D
:1022800006142572C44C6588241D04EB0514C4F89B
:10229000091000BFC0494D88091D01EB05114A73A3
:1022A000BD4C6488611CCC1701EB9464A411A1EBB4
:1022B0008414B94D6C800021009100BF7EE710B5F9
:1022C0000246B54B5B88581CC31700EB93639B1108
:1022D000A0EB8313B04C2488A34203D10120AF4B61
:1022E000D87210BD02F54070AB4B5C881B1D03EB30
:1022F000041318600423A8484488001D00EB041050
:1023000003714923A4484488001D00EB0410437165
:102310005123A1484488001D00EB04108371002361
:102320009D484488001D00EB0410C37180239A4827
:102330004488001D00EB0410037297484388001D79
:1023400000EB03104173944B5B88581CC31700EBE0
:1023500093639B11A0EB83138F4C638000BFC0E796
:102360000FB438B5044606A80090009802C8009043
:10237000009804C80090884B5B88581CC31700EB7A
:1023800093639B11A0EB8313834D2D88AB4205D142
:102390000120824BD87238BC5DF814FB04F5407004
:1023A0007D4B5D881B1D03EB051318609DF8140021
:1023B000012823D1042378484588001D00EB05102F
:1023C00003714D2374484588001D00EB05104371CF
:1023D0004F2371484588001D00EB051083710023D1
:1023E0006D484588001D00EB0510C37140236A4805
:1023F0004588001D00EB051003723DE09DF81400B8
:10240000022839D1082364484588001D00EB0510D7
:1024100003714D2360484588001D00EB0510437192
:102420004F235D484588001D00EB05108371002394
:1024300059484588001D00EB0510C3715648458872
:10244000001D00EB0510037253484588001D00EB8A
:102450000510427250484588001D00EB051083723C
:102460004D484588001D00EB0510C3724A48458859
:10247000001D00EB0510037347484588001D00EB65
:1024800005104173444B5B88581CC31700EB9363E2
:102490009B11A0EB8313404D6B800020009000BF88
:1024A00079E770B586B006460C46154600208DF8D3
:1024B0000C008DF80D0006F540700190012C0ED136
:1024C00004208DF80E004D208DF80F004F218DF85F
:1024D000101000218DF811108DF8121017E0022C49
:1024E00015D108208DF80E004D208DF80F004F21DA
:1024F0008DF8101000218DF811108DF812108DF844
:1025000013508DF814108DF815108DF8161001A9C0
:10251000244804F0DDF906B070BD0FB478B5002290
:10252000002307A90091009904C90091009908C9E6
:102530000091194C6488611CCC1701EB9464A411C0
:10254000A1EB8414144D2D88AC4205D10121134C0C
:10255000E17278BC5DF814FB00F540710E4C6588A3
:10256000241D04EB051421609DF8181001292CD1BD
:10257000042409494D88091D01EB05110C715024F3
:1025800005494D88091D01EB05114C714124024993
:102590004D88091D08E000005C660020F42C002036
:1025A000E82700200064004001EB05118C71002435
:1025B000FE494D88091D01EB0511CC71FB494D8881
:1025C000091D01EB05110C724BE09DF81810022952
:1025D00047D1441E04EB8404F54D05EB041494ED3F
:1025E000130A9FEDF41AC0EE010A441E04EB8404A2
:1025F00005EB0414B4F848405C4300EE104AB8EE12
:10260000C00A20EE800ABDEEC00A10EE101A08259E
:10261000E64C6688241D04EB061425715025E34C16
:102620006688241D04EB061465714125DF4C66881D
:10263000241D04EB0614A5710025DC4C6688241DBE
:1026400004EB0614E571D94C6688241D04EB0614CE
:102650002572D64C6588241D04EB0514C4F80910B6
:1026600000BFD2494D88091D01EB05114A73CF4CBB
:102670006488611CCC1701EB9464A411A1EB841451
:10268000CA4D6C800021009100BF62E710B5024680
:10269000C64B5B88581CC31700EB93639B11A0EBE0
:1026A0008313C24C2488A34203D10120C24BD872A9
:1026B00010BD02F54070BD4B5C881B1D03EB04137D
:1026C00018600423B9484488001D00EB041003710E
:1026D0005023B6484488001D00EB04104371452385
:1026E000B2484488001D00EB041083710023AF48FA
:1026F0004488001D00EB0410C371AC484488001DE1
:1027000000EB04100372A9484388001D00EB03107E
:102710004173A64B5B88581CC31700EB93639B1156
:10272000A0EB8313A14C638000BFC1E710B5024644
:102730009E4B5B88581CC31700EB93639B11A0EB67
:1027400083139A4C2488A34203D101209A4BD87258
:1027500010BD02F54070954B5C881B1D03EB041304
:102760001860042391484488001D00EB0410037195
:1027700050238E484488001D00EB041043715223FF
:102780008A484488001D00EB0410837100238748A9
:102790004488001D00EB0410C37184484488001D68
:1027A00000EB0410037281484388001D00EB031006
:1027B00041737E4B5B88581CC31700EB93639B11DE
:1027C000A0EB8313794C638000BFC1E70FB438B529
:1027D000044606A80090009802C80090009804C81B
:1027E0000090724B5B88581CC31700EB93639B11DE
:1027F000A0EB83136D4D2D88AB4205D101206E4BAC
:10280000D87238BC5DF814FB04F54070674B5D88E6
:102810001B1D03EB051318609DF81400012822D13D
:10282000042362484588001D00EB05100371502306
:102830005E484588001D00EB0510437158235B4836
:102840004588001D00EB051083710023574845881B
:10285000001D00EB0510C37154484588001D00EBB6
:10286000051003722CE09DF81400022828D10823DB
:102870004E484588001D00EB0510037150234B485E
:102880004588001D00EB05104371582347484588D3
:10289000001D00EB05108371002344484588001D8E
:1028A00000EB0510C37141484588001D00EB051081
:1028B00003723E484388001D00EB0310C0F8092056
:1028C0003A484588001D00EB05104173374B5B8883
:1028D000581CC31700EB93639B11A0EB8313334D7C
:1028E0006B800020009000BF8BE70FB438B5044622
:1028F00006A80090009802C80090009804C80090B4
:102900002A4B5B88581CC31700EB93639B11A0EB09
:102910008313264D2D88AB4205D10120264BD8725A
:1029200038BC5DF814FB04F54070204B5D881B1D1E
:1029300003EB051318609DF81400012822D104232D
:102940001A484588001D00EB0510037153231748F2
:102950004588001D00EB051043714423134845884A
:10296000001D00EB05108371002310484588001DF1
:1029700000EB0510C3710D484588001D00EB0510E4
:10298000037235E09DF81400022831D1082307486E
:102990004588001D00EB051003715323034845884B
:1029A000001D00EB05104371442307E05C66002026
:1029B000E82700200000B443F42C0020FE4845889E
:1029C000001D00EB051083710023FB484588001DA6
:1029D00000EB0510C371F8484588001D00EB051099
:1029E0000372F5484388001D00EB0310C0F809206E
:1029F000F1484588001D00EB05104173EE4B5B88E4
:102A0000581CC31700EB93639B11A0EB8313EA4D93
:102A10006B800020009000BF82E70FB478B507A953
:102A20000091009904C90091009908C90091E24CF5
:102A30006488611CCC1701EB9464A411A1EB84148D
:102A4000DD4D2D88AC4205D10121DC4CE17278BC12
:102A50005DF814FB00F54071D74C6588241D04EB2C
:102A6000051421609DF81810012922D10424D249AF
:102A70004D88091D01EB05110C715324CE494D8879
:102A8000091D01EB05114C715024CB494D88091DDE
:102A900001EB05118C710024C7494D88091D01EB1C
:102AA0000511CC714024C4494D88091D01EB051165
:102AB0000C729DF81810022935D1441E04EB8404D1
:102AC000BF4D05EB0414B4F848405C433C2594FB2F
:102AD000F5F10825B84C6688241D04EB0614257111
:102AE0005325B54C6688241D04EB061465715025EA
:102AF000B14C6688241D04EB0614A5710025AE4C6C
:102B00006688241D04EB0614E571AB4C6688241D11
:102B100004EB06142572A84C6588241D04EB0514EB
:102B2000C4F8091000BFA4494D88091D01EB051127
:102B30004A73A14C6488611CCC1701EB9464A41106
:102B4000A1EB84149C4D6C800021009100BF7EE7B6
:102B500010B50246984B5B88581CC31700EB936373
:102B60009B11A0EB8313944C2488A34203D1012032
:102B7000924BD87210BD02F540708F4B5C881B1DC4
:102B800003EB0413186004238B484488001D00EBFA
:102B900004100371532388484488001D00EB04107F
:102BA0004371542384484488001D00EB0410837152
:102BB000002381484488001D00EB0410C3717E4847
:102BC0004488001D00EB041003727B484388001DFD
:102BD00000EB03104173784B5B88581CC31700EB64
:102BE00093639B11A0EB8313734C638000BFC1E719
:102BF0000FB438B5044606A80090009802C80090AB
:102C00000098006800EE100A0098001D00906A4AC3
:102C10005288501CC21700EB92629211A0EB8212F4
:102C2000654B1B889A4205D10120644AD07238BC9A
:102C30005DF814FB04F540705F4A5388121D02EBE7
:102C4000031210609DF81400022833D1F8EEC00A78
:102C50009FED5C1AC0EE811AFDEEE10A10EE900ABB
:102C60000823554A5588121D02EB0512137154238F
:102C7000514A5588121D02EB0512537143234E4AE7
:102C80005588121D02EB0512937100234A4A55889C
:102C9000121D02EB0512D371474A5588121D02EB33
:102CA00005121372444A5388121D02EB0312C2F834
:102CB000090000BF40484388001D00EB031041732A
:102CC0003D4A5288501CC21700EB92629211A0EB51
:102CD0008212394B5A800020009000BFA7E70FB442
:102CE00038B5044606A80090009802C800900098E5
:102CF00004C80090304B5B88581CC31700EB9363EB
:102D00009B11A0EB83132C4D2D88AB4205D10120E4
:102D10002A4BD87238BC5DF814FB04F54070264B82
:102D20005D881B1D03EB051318609DF81400012836
:102D300022D1042320484588001D00EB05100371B3
:102D400055231D484588001D00EB051043714D2398
:102D500019484588001D00EB0510837100231648B3
:102D60004588001D00EB0510C37113484588001D00
:102D700000EB0510037246E09DF81400022842D1D2
:102D800008230D484588001D00EB051003715523ED
:102D900009484588001D00EB051043714D23064886
:102DA0004588001D00EB051083710023024845880B
:102DB000001D00EB051007E05C660020F42C0020ED
:102DC000E82700200000C842C37141484588001D23
:102DD00000EB051003723E484588001D00EB05100E
:102DE00042723B484588001D00EB0510837238484D
:102DF0004588001D00EB0510C37235484588001D4D
:102E000000EB0510037332484588001D00EB0510E8
:102E100041732F4B5B88581CC31700EB93639B11C6
:102E2000A0EB83132A4D6B800020009000BF71E758
:102E300010B50246264B5B88581CC31700EB936302
:102E40009B11A0EB8313224C2488A34203D10120C1
:102E5000204BD87210BD02F540701D4B5C881B1DC5
:102E600003EB04131860042319484488001D00EB89
:102E700004100371562316484488001D00EB04100B
:102E80004371582312484488001D00EB04108371DD
:102E900000230F484488001D00EB0410C3710C4848
:102EA0004488001D00EB0410037209484388001D8C
:102EB00000EB03104173064B5B88581CC31700EBF3
:102EC00093639B11A0EB8313014C638000BFC1E7A8
:102ED0005C660020F42C002010B50720FE49087025
:102EE0004FF4FA60FD490881FD48FB49097880F8F4
:102EF00038100020FA490870487002208870B2EE3D
:102F0000040A084680ED010A4FF47A7181600021BD
:102F1000C160B7EE000A80ED040AEF49097880F835
:102F200074100020EE4981F83C000021EC4880F844
:102F30003D10022180F83E10B2EE040A80ED100A26
:102F40004FF47A71416400218164B7EE000A80ED8C
:102F5000130AE149097880F8B0100020E04981F8AF
:102F600078000021DE4880F87910022180F87A107C
:102F7000B2EE040A80ED1F0A4FF47A71C0F8801097
:102F80000021C0F88410B7EE000A80ED220AD24971
:102F9000097880F8EC100020D14981F8B4000021B4
:102FA000CF4880F8B510022180F8B610B2EE040ABE
:102FB00080ED2E0A4FF47A71C0F8BC100021C0F8E1
:102FC000C010B7EE000A80ED310A002012E0C549BA
:102FD00091ED000AC0EB0011C14A02EB810181EDC5
:102FE0000D0AC0EB001102EB8101BC4C1CCC283156
:102FF0001CC1401C0428EADB10BD30B52DED028B4E
:1030000081B00446B0EE408A0D4600200090B649DB
:103010004988481CC11700EB91618911A0EB81110F
:10302000B14A1288914206D10120B049C87201B05C
:10303000BDEC028B30BD9FEDAE0A28EE000ABDEE5E
:10304000C00A10EE101AA84A5388121D02EB031290
:10305000501D6A4602F0FCFB44F07040A2494A88C9
:10306000091D01EB021108600098C1B29E48428818
:10307000001D00EB021001719B484188001D00EB10
:103080000110457398494988481CC11700EB9161AC
:103090008911A0EB8111944A518000BFC7E7F8B5B0
:1030A00004460E461546002000908F494988481C6A
:1030B000C11700EB91618911A0EB81118A4A128836
:1030C000914203D101208949C872F8BD86494A88D6
:1030D000091D01EB0211481D6A46314602F0B8FB9A
:1030E00044F0704040F440717F484288001D00EB7E
:1030F000021001600098C1B27B484288001D00EBBD
:103100000210017178484188001D00EB01104573E1
:1031100075494988481CC11700EB91618911A0EBE2
:103120008111714A518000BFCFE730B52DED028B80
:1031300081B00446B0EE408A0D46002000906A49F6
:103140004988481CC11700EB91618911A0EB8111DE
:10315000654A1288914206D101206449C87201B0C3
:10316000BDEC028B30BD9FED630A28EE000ABDEE78
:10317000C00A10EE101A5C4A5388121D02EB0312AB
:10318000501D6A4602F064FB44F0704040F48071C8
:1031900055484288001D00EB021001600098C1B242
:1031A00051484288001D00EB021001714E484188D1
:1031B000001D00EB011045734B494988481CC1179D
:1031C00000EB91618911A0EB8111474A518000BF4A
:1031D000C5E730B52DED028B81B00446B0EE408AD4
:1031E0000D460020009040494988481CC11700EB5B
:1031F00091618911A0EB81113B4A1288914206D15D
:1032000001203A49C87201B0BDEC028B30BD9FED80
:10321000390A28EE000ABDEEC00A10EE101A324A32
:103220005388121D02EB0312501D6A4602F010FB78
:1032300044F0704040F400712B484288001D00EBC0
:10324000021001600098C1B227484288001D00EBBF
:103250000210017124484188001D00EB01104573E4
:1032600021494988481CC11700EB91618911A0EBE5
:1032700081111D4A518000BFC5E730B52DED028B8D
:1032800081B00446B0EE408A0D46002000901649F9
:103290004988481CC11700EB91618911A0EB81118D
:1032A000114A1288914206D101201049C87201B01A
:1032B000BDEC028B30BD9FED0F0A28EE000ABDEE7B
:1032C000C00A10EE101A084A5388121D02EB0312AE
:1032D000501D6A4610E000002800002078290020D8
:1032E000842900202C0000205C660020F42C0020A3
:1032F0000050C34700007A4402F0AAFA44F070403C
:1033000040F4406110484288001D00EB021001604B
:103310000098C1B20C484288001D00EB02100171F8
:1033200009484188001D00EB011045730649498892
:10333000481CC11700EB91618911A0EB8111024A71
:10334000518000BFB3E700005C66002010B5082084
:1033500008F030FA044600206060204610BD0120CD
:1033600031494872704710B5FFF7F9FFFDF782FE4B
:10337000FEF7F6FCFFF7B0FDFFF7E8FF2B494860CA
:1033800010BD00220A7803780B700270704770B588
:1033900006460C46354600E06D6815B16868A042E7
:1033A000FAD14CB160686860204608F0DBF91F482C
:1033B0000078401E1D49087070BD02460B4611463C
:1033C00005E00888984201D10846704749680029FD
:1033D000F7D10020F9E72DE9F041074688463C4641
:1033E00041462046FFF7E9FF08B1BDE8F08100261D
:1033F00002E06468701CC6B20C480078B04201DD7F
:10340000002CF6D16CB1082008F0D4F90546A5F8D7
:10341000008060686860656004480078401C03496B
:10342000087000BFE1E70000F42C0020300000200D
:103430001CB54048006840F010003E4908603D4817
:103440001438006840F480003A49143908600120BB
:10345000022100230A46CDE900104FF4C06136482E
:1034600002F0CEFE07220921334802F0A9FE07220E
:103470000A21314802F0A4FE40F2D9202F490881E8
:103480004FF4037088810846008820F020000880EF
:10349000032325220121062002F004FE4FF4807050
:1034A000274B264A121D04210090264802F0E6FC14
:1034B00001221021234803F0DAFE032346220021D3
:1034C000072002F0EFFD1D48808A40F080001B4974
:1034D00088820846808940F4005088811CBD70B500
:1034E00004460D461848407B78B92A4621461448C0
:1034F00007F0A6FA2946134803F04DFE01211148B2
:1035000003F028FE01201049487370BD10B50F4923
:103510000C4803F0C9FE01280AD10C49094803F000
:1035200092FE0A49074803F0E9FE00200649487365
:1035300010BD00004438024000000240001001406D
:10354000742A0020B8640240F42C00200080002877
:103550001CB5F648006840F40030F4490860F348B0
:103560001038006840F40010F0491039086001205C
:10357000022100230A46CDE900100C21EC4802F09C
:103580003FFE07220221EA4802F01AFE0722032129
:10359000E74802F015FE4FF4B670E64908800C20AB
:1035A000091D0880E3480838008820F02000E14920
:1035B00008390880DF48001D008840F02000DD4900
:1035C000091D0880032326220121042002F06AFD40
:1035D0004FF48070D84BD74A121F04210090D7486F
:1035E00002F04CFC01221021D44803F040FE0323DA
:1035F00011220121072002F055FDCE480C30008831
:1036000040F08000CB490C310880CA48001D00887A
:1036100040F40050C749091D08801CBD10B5C849B9
:10362000C64803F041FE01280AD1C549C34803F04A
:103630000AFEC349C14803F061FE0020C1498873F6
:1036400010BD10B52DED028B002440F22531B94894
:10365000083804F030FC58B1B648083804F069FB6B
:103660000020B94908702021B84807F002FAF2E3B7
:1036700040F22551AF48083804F01DFC0028F6D070
:103680002021AC48083804F00DFC40F22551A9482F
:10369000083804F047FCA748083804F04AFBC4B2D5
:1036A000A948007800F0400008B3A748007800F06F
:1036B000800020BBFF2C06D1A348007840F080009A
:1036C000A14908701BE0A048007800F03F019F4826
:1036D00044549D480078401C9B4908700846007877
:1036E00000F03F0028280ADD0020087007E0EE2CDB
:1036F00005D19548007840F0400093490870924801
:10370000007800F080000028B1D0914890F82102A4
:10371000012804D18E4890F823028E4908708C4805
:1037200090F82302082877D2DFE800F0042E2F76E5
:1037300030EE76ED864890F82502082821D1012048
:1037400080F3138800BF00BF00BF00BF00BF00BFF1
:10375000BFF34F8F00BF00BF00BF7F48006800F479
:10376000E0607E490843001D7B49086000BF00BF40
:1037700000BFBFF34F8F00BF00BF00BF00BF00BF3F
:10378000FDE700BF00BF9BE39AE399E3704890F820
:103790002502C01E1E2872D2DFE800F00F1E2D3F4A
:1037A0005061728394A5B7F6F471F3F2F1F0EFEE85
:1037B000EDECEBEAE9E8E7E6E5E4002009E00021CA
:1037C00000EB800202EBC002654B03EB02121170AA
:1037D000401C0828F3DBB1E15C48C01D07F01CFE6B
:1037E000B0EE408AF0EE608A51EC180B07F07AFADE
:1037F0005B498870A2E15548C01D07F00DFEB0EE90
:10380000408AF0EE608A51EC180B07F06BFAC1B2F7
:10381000534880F8D21091E151E34C48C01D07F0A5
:10382000FBFDB0EE408AF0EE608A51EC180B07F019
:1038300059FAC1B24A4880F8A2117FE14348C01D3D
:1038400007F0EAFDB0EE408AF0EE608A51EC180B0A
:1038500007F048FAC1B2424880F872126EE13B4864
:10386000C01D07F0D9FDB0EE408AF0EE608A51EC41
:10387000180B07F018FA01B2394801815EE15CE1EA
:103880003248C01D07F0C8FDB0EE408AF0EE608AF5
:1038900051EC180B07F007FA01B23148A0F8D81024
:1038A0004CE12A48C01D07F0B7FDB0EE408AF0EEAB
:1038B000608A51EC180B07F0F6F901B22848A0F81D
:1038C000A8113BE12148C01D07F0A6FDB0EE408ADB
:1038D000F0EE608A51EC180B07F0E5F901B22048D0
:1038E000A0F878122AE11948C01D07F095FDB0EE46
:1038F000408AF0EE608A51EC180B07F0D4F900B260
:10390000174988801AE1D9E21AE11048C01D07F072
:1039100083FDB0EE408AF0EE608A51EC180B07F0A0
:10392000C2F901B20E48A0F8D41007E140380240B5
:103930000000024008440040942B0020A060024098
:1039400000802020F42C002039000020942C00203E
:10395000742A0020380000200CED00E00000FA0579
:1039600040210020E0E0D6E0CCE0C3E0B7E0ABE0EF
:103970009FE094E088E07CE070E065E054E043E0A4
:1039800032E021E010E0FFE7F94807F045FDB0EE36
:10399000408AF0EE608A51EC180B07F084F901B20E
:1039A000F448A0F8A411C9E0F14807F035FDB0EEE5
:1039B000408AF0EE608A51EC180B07F074F901B2FE
:1039C000EC48A0F87412B9E0E94807F025FDB0EE24
:1039D000408AF0EE608A51EC180B07F083F981B24F
:1039E000E448A0F89610A9E0E14807F015FDB0EE14
:1039F000408AF0EE608A51EC180B07F073F981B23F
:103A0000DC48A0F8661199E0D94807F005FDB0EE52
:103A1000408AF0EE608A51EC180B07F063F981B22E
:103A2000D448A0F8361289E0D14807F0F5FCB0EE92
:103A3000408AF0EE608A51EC180B07F053F981B21E
:103A4000CC48A0F8061379E0CB4890F8280208B1DA
:103A5000012000E00020C74908706FE0C64890F8D8
:103A6000280208B1012000E00020C24981F8D000FE
:103A700064E0C14890F8280208B1012000E000206D
:103A8000BC4981F8A00159E0BB4890F8280208B170
:103A9000012000E00020B74981F870024EE0B648EE
:103AA00090F8280208B1012000E00020B1494870D8
:103AB00044E0B14890F8280208B1012100E000215B
:103AC000AC4880F8D11039E0AB4890F8280208B132
:103AD000012100E00021A74880F8A1112EE0A648AE
:103AE00090F8280208B1012100E00021A14880F8E7
:103AF000711223E09F48007818B901219D4880F891
:103B000039101BE09B4890F8D00018B90121994862
:103B100080F8091112E0974890F8A00118B9012126
:103B2000944880F8D91109E0924890F8700218B9C9
:103B30000121904880F8A91200E000BF00BFBFE15A
:103B40008D4890F82502C01E1E286FD2DFE800F0D5
:103B50000F1E2E3E4E5E6F7F8F9FAFBFCF6EEFFF6B
:103B6000ECEBEAE9E8E7E6E5E4E3E2E1E0DF0020A8
:103B700009E0002100EB800202EBC0027D4B03EB69
:103B800002121170401C0828F3DB95E1784807F019
:103B900043FCB0EE408AF0EE608A51EC180B07F05F
:103BA000A1F8C1B2734880F8421385E1704807F06C
:103BB00033FCB0EE408AF0EE608A51EC180B07F04F
:103BC00091F8C1B26B4880F8121475E1684807F0AB
:103BD00023FCB0EE408AF0EE608A51EC180B07F03F
:103BE00081F8C1B2634880F8E21465E1604807F0EB
:103BF00013FCB0EE408AF0EE608A51EC180B07F02F
:103C000071F8C1B25B4880F8B21555E1584807F029
:103C100003FCB0EE408AF0EE608A51EC180B07F01E
:103C200042F801B25348A0F8481345E143E1504837
:103C300007F0F2FBB0EE408AF0EE608A51EC180B10
:103C400007F031F801B24B48A0F8181434E14848A5
:103C500007F0E2FBB0EE408AF0EE608A51EC180B00
:103C600007F021F801B24348A0F8E81424E14048E5
:103C700007F0D2FBB0EE408AF0EE608A51EC180BF0
:103C800007F011F801B23B48A0F8B81514E1384824
:103C900007F0C2FBB0EE408AF0EE608A51EC180BE0
:103CA00007F001F801B23348A0F8441304E13048AA
:103CB00007F0B2FBB0EE408AF0EE608A51EC180BD0
:103CC00006F0F1FF01B22B48A0F81414F4E02848E4
:103CD00007F0A2FBB0EE408AF0EE608A51EC180BC0
:103CE00006F0E1FF01B22348A0F8E414E4E0204824
:103CF00007F092FBB0EE408AF0EE608A51EC180BB0
:103D000006F0D1FF01B21B48A0F8B415D4E0C9E019
:103D1000BFE0B5E0ABE09FE092E086E07AE06EE0E5
:103D200062E056E04AE039E028E010E0FFE71048A2
:103D300007F072FBB0EE408AF0EE608A51EC180B8F
:103D400006F0D0FF81B20B48A0F8D613B4E00848C3
:103D500007F062FBB0EE408AF0EE608A51EC180B7F
:103D600006F0C0FF81B20348A0F8A614A4E000004A
:103D70009B2C002040210020742A0020FE4807F0E0
:103D80004BFBB0EE408AF0EE608A51EC180B06F067
:103D9000A9FF81B2F948A0F876158DE0F64807F042
:103DA0003BFBB0EE408AF0EE608A51EC180B06F057
:103DB00099FF81B2F148A0F846167DE0F04890F8EE
:103DC000280208B1012000E00020EC4981F84003FE
:103DD00072E0EB4890F8280208B1012000E00020D2
:103DE000E64981F8100467E0E54890F8280208B138
:103DF000012000E00020E14981F8E0045CE0E048B7
:103E000090F8280208B1012000E00020DB4981F889
:103E1000B00551E0DA4890F8280208B1012100E02D
:103E20000021D64880F8411346E0D54890F8280292
:103E300008B1012100E00021D04880F811143BE0D6
:103E4000CF4890F8280208B1012100E00021CB48BA
:103E500080F8E11430E03CE0C94890F8280208B14D
:103E6000012100E00021C54880F8B11524E0C348D5
:103E700090F8400318B90121C04880F879131BE07D
:103E8000BE4890F8100418B90121BC4880F84914C4
:103E900012E0BA4890F8E00418B90121B74880F858
:103EA000191509E0B54890F8B00518B90121B348D3
:103EB00080F8E91500E000BF00BF01E000E000BFAE
:103EC00000BF0020AF4908702021AB48C01F06F09A
:103ED000D0FDBDEC028B10BD10B50446AA48807B16
:103EE00050B92146A94803F056F90121A74803F02B
:103EF00031F90120A449887310BD10B50024EE22C9
:103F00002146641CA2484254B1222146641C4254FA
:103F100010222146641C425400222146641C425453
:103F20002146641C42542146641C42540522214609
:103F3000641C425401222046611CCCB294490A54AC
:103F4000FF222046611CCCB291490A54FC22204633
:103F5000611CCCB28E490A54FF222046611CCCB2AF
:103F60008B490A542046611CCCB289490A548948BD
:103F70000078062881F0B480DFE810F0B20806006F
:103F8000080009000A005D0401F0ABB8FCE7FBE79C
:103F9000EE222046611CCCB27D490A54B122204653
:103FA000611CCCB27A490A5412222046611CCCB260
:103FB00077490A5400222046611CCCB274490A5445
:103FC00004222046611CCCB271490A546B488078A7
:103FD00000287CD000222046611CCCB26C490A54D7
:103FE00004222046611CCCB269490A5400222046B2
:103FF000611CCCB266490A546048827866A1674861
:1040000007F0F4F9654806F03FFDC2B22046611C96
:10401000CCB25F490A540819604906F03CFD5F487C
:1040200006F032FD2044C4B200222046611CCCB20E
:1040300057490A5408222046611CCCB254490A54FC
:1040400000222046611CCCB251490A544B48B0F9B9
:10405000182051A1514807F0C9F9504806F014FD45
:10406000C2B22046611CCCB249490A5408194B49D6
:1040700006F011FD494806F007FD2044C4B20022B5
:104080002046611CCCB242490A540C222046611CD5
:10409000CCB23F490A5400222046611CCCB23C49B4
:1040A0000A543648B0F914203BA13C4807F09EF969
:1040B0003A4806F0E9FCC2B22046611CCCB2344951
:1040C0000A540819354906F0E6FC344800E081E05E
:1040D00006F0DAFC2044C4B200222046611CCCB2B7
:1040E0002B490A5411222046611CCCB228490A549B
:1040F00000222046611CCCB225490A541F48B0F862
:10410000962025A1254807F071F9244806F0BCFC4B
:10411000C2B22046611CCCB21D490A5408191F497D
:1041200006F0B9FC1D4806F0AFFC2044C4B20022E2
:104130002046611CCCB216490A5415222046611C47
:10414000CCB213490A5400222046611CCCB210495B
:104150000A5401222046611CCCB20D490A5407487A
:1041600002782046611CCCB209490A54002220463C
:10417000611CCCB2064913E09B2C0020402100209A
:10418000742A002039000020F42C0020A060024096
:10419000942B00203800002025640000032D00200F
:1041A0000A5419222046611CCCB2FE490A5400224E
:1041B0002046611CCCB2FB490A5401222046611CF6
:1041C000CCB2F8490A54F84842782046611CCCB277
:1041D000F4490A54F44890F8D20000287DD0002217
:1041E0002046611CCCB2EF490A5405222046611CCE
:1041F000CCB2EC490A5400222046611CCCB2E949F9
:104200000A54E94890F8D220AFF27401E74807F069
:10421000EDF8E64806F038FCC2B22046611CCCB28C
:10422000E0490A540819E14906F035FCDF4806F078
:104230002BFC2044C4B200222046611CCCB2D949D8
:104240000A5409222046611CCCB2D6490A540022E5
:104250002046611CCCB2D3490A54D348B0F9E820B7
:10426000AFF2CC01D14807F0C1F8D04806F00CFC01
:10427000C2B22046611CCCB2CA490A540819CB49C3
:1042800006F009FCC94806F0FFFB2044C4B2002236
:104290002046611CCCB2C3490A540D222046611C41
:1042A000CCB2C0490A5400222046611CCCB2BD49A0
:1042B0000A54BD48B0F9E420AFF22411BB4807F01E
:1042C00095F8BA4806F0E0FBC2B22046611CCCB2B9
:1042D000B4490A540819B54900E072E006F0DBFB66
:1042E000B24806F0D1FB2044C4B200222046611C33
:1042F000CCB2AC490A5412222046611CCCB2A94966
:104300000A5400222046611CCCB2A6490A54A64891
:10431000B0F86621AFF28011A44807F067F8A3480F
:1043200006F0B2FBC2B22046611CCCB29D490A54D1
:1043300008199E4906F0AFFB9C4806F0A5FB2044F7
:10434000C4B200222046611CCCB296490A541622FF
:104350002046611CCCB293490A5400222046611CBD
:10436000CCB290490A5401222046611CCCB28D493E
:104370000A548D4890F8D0202046611CCCB289495F
:104380000A5400222046611CCCB286490A541A22E3
:104390002046611CCCB283490A5400222046611C8D
:1043A000CCB280490A5401222046611CCCB27D491E
:1043B0000A547D4890F8D1202046611CCCB279493E
:1043C0000A54794890F8A20100287DD000222046A6
:1043D000611CCCB273490A5406222046611CCCB23F
:1043E00070490A5400222046611CCCB26D490A541F
:1043F0006D4890F8A221AFF260216C4806F0F6FFFC
:104400006A4806F041FBC2B22046611CCCB2654945
:104410000A540819654906F03EFB644806F034FB6F
:104420002044C4B200222046611CCCB25D490A542B
:104430000A222046611CCCB25A490A540022204666
:10444000611CCCB257490A545748B0F9B821AFF2B1
:10445000B821564806F0CAFF544806F015FBC2B210
:104460002046611CCCB24F490A5408194F4906F046
:1044700012FB4E4806F008FB2044C4B2002220463E
:10448000611CCCB247490A540E222046611CCCB2B2
:1044900044490A5400222046611CCCB241490A54C6
:1044A0004148B0F9B421AFF21031404806F09EFF08
:1044B0003E4806F0E9FAC2B22046611CCCB2394946
:1044C0000A540819394900E079E006F0E4FA37485F
:1044D00006F0DAFA2044C4B200222046611CCCB2B5
:1044E00030490A5413222046611CCCB22D490A548B
:1044F00000222046611CCCB22A490A542A48B0F84E
:104500003622AFF26C31294806F070FF274806F0DA
:10451000BBFAC2B22046611CCCB222490A54081927
:10452000224906F0B8FA214806F0AEFA2044C4B297
:1045300000222046611CCCB21A490A541722204698
:10454000611CCCB217490A5400222046611CCCB22F
:1045500014490A5401222046611CCCB211490A5464
:10456000114890F8A0212046611CCCB20D490A5494
:1045700000222046611CCCB20A490A541B22204664
:10458000611CCCB207490A5400222046611CCCB2FF
:1045900004490A5401222046611CCCB201490A5444
:1045A000014805E0942B002040210020032D00202D
:1045B00090F8A1212046611CCCB2FE490A54FE4865
:1045C00090F8720200287DD000222046611CCCB2F7
:1045D000F8490A5407222046611CCCB2F5490A5416
:1045E00000222046611CCCB2F2490A54F24890F8ED
:1045F0007222AFF25C41F14806F0F8FEEF4806F097
:1046000043FAC2B22046611CCCB2EA490A540819E6
:10461000EA4906F040FAE94806F036FA2044C4B206
:1046200000222046611CCCB2E2490A540B222046EB
:10463000611CCCB2DF490A5400222046611CCCB276
:10464000DC490A54DC48B0F98822AFF2B441DB48B7
:1046500006F0CCFED94806F017FAC2B22046611C1B
:10466000CCB2D4490A540819D44906F014FAD348F4
:1046700006F00AFA2044C4B200222046611CCCB2E3
:10468000CC490A540F222046611CCCB2C9490A54B5
:1046900000222046611CCCB2C6490A54C648B0F973
:1046A0008422AFF20C51C54806F0A0FEC34806F0C4
:1046B000EBF9C2B22046611CCCB2BE490A540819BB
:1046C000BE4900E072E006F0E6F9BC4806F0DCF90D
:1046D0002044C4B200222046611CCCB2B5490A5421
:1046E00014222046611CCCB2B2490A540022204652
:1046F000611CCCB2AF490A54AF48B0F80623AFF200
:104700006851AE4806F072FEAC4806F0BDF9C2B280
:104710002046611CCCB2A7490A540819A74906F0E3
:10472000BAF9A64806F0B0F92044C4B200222046E7
:10473000611CCCB29F490A5418222046611CCCB29D
:104740009C490A5400222046611CCCB299490A5463
:1047500001222046611CCCB296490A54964890F832
:1047600070222046611CCCB292490A540022204695
:10477000611CCCB28F490A541C222046611CCCB269
:104780008C490A5400222046611CCCB289490A5443
:1047900001222046611CCCB286490A54864890F812
:1047A00071222046611CCCB282490A540022204664
:1047B000611CCCB27F490A5410222046611CCCB245
:1047C0007C490A5400222046611CCCB279490A5423
:1047D0007B484068406802887AA1784806F006FE67
:1047E000764806F051F9C2B22146601CC4B2714845
:1047F000425401460819714906F04DF96F4806F018
:1048000043F92044C4B2FF222046611CCCB269495E
:104810000A54FC222046611CCCB266490A54FF228D
:104820002046611CCCB263490A542046611CCCB2BC
:1048300060490A54FEE3EE222046611CCCB25D4979
:104840000A54B1222046611CCCB25A490A541222A1
:104850002046611CCCB257490A5400222046611CF4
:10486000CCB254490A5405222046611CCCB25149AD
:104870000A54514890F8420300287DD00022204677
:10488000611CCCB24B490A5404222046611CCCB2B4
:1048900048490A5400222046611CCCB245490A54BA
:1048A000454890F84223AFF21071444806F09EFD4F
:1048B000424806F0E9F8C2B22046611CCCB23D493C
:1048C0000A5408193D4906F0E6F83C4806F0DCF8C1
:1048D0002044C4B200222046611CCCB235490A549F
:1048E00008222046611CCCB232490A5400222046DC
:1048F000611CCCB22F490A542F48B0F95823AFF2AB
:1049000068712E4806F072FD2C4806F0BDF8C2B260
:104910002046611CCCB227490A540819274906F0E1
:10492000BAF8264806F0B0F82044C4B20022204667
:10493000611CCCB21F490A540C222046611CCCB227
:104940001C490A5400222046611CCCB219490A5461
:104950001948B0F95423AFF2C071184806F046FD6B
:10496000164806F091F8C2B22046611CCCB211493B
:104970000A540819114900E07DE006F08CF80F4850
:1049800006F082F82044C4B200222046611CCCB25A
:1049900008490A5411222146601CC4B205484254F9
:1049A00000222046611CCCB202490A540248B0F8E9
:1049B000D62309E0942B002040210020032D002065
:1049C0003000002025780000AFF63401FE4806F0E4
:1049D0000DFDFD4806F058F8C2B22046611CCCB26D
:1049E000FA490A540819F84906F055F8F64806F04D
:1049F0004BF82044C4B200222046611CCCB2F349DB
:104A00000A5415222046611CCCB2F0490A540022F7
:104A10002046611CCCB2ED490A5401222046611C9B
:104A2000CCB2EA490A54EA4890F840232046611C77
:104A3000CCB2E6490A5400222046611CCCB2E349BC
:104A40000A5419222046611CCCB2E0490A540022C3
:104A50002046611CCCB2DD490A5401222046611C6B
:104A6000CCB2DA490A54DA4890F841232046611C56
:104A7000CCB2D6490A54D64890F8120400287DD00A
:104A800000222046611CCCB2D0490A54052220469F
:104A9000611CCCB2CD490A5400222046611CCCB224
:104AA000CA490A54CA4890F81224AFF61411C648ED
:104AB00006F09CFCC44805F0E7FFC2B22046611C2A
:104AC000CCB2C2490A540819BF4905F0E4FFBE48F8
:104AD00005F0DAFF2044C4B200222146601CC4B2B3
:104AE000BA48425409222046611CCCB2B7490A5444
:104AF00000222046611CCCB2B4490A54B448B0F933
:104B00002824AFF66C11B04806F070FCAE4805F0F2
:104B1000BBFFC2B22046611CCCB2AC490A54081992
:104B2000A94905F0B8FFA84805F0AEFF2044C4B27B
:104B300000222046611CCCB2A4490A540D22204612
:104B4000611CCCB2A1490A5400222046611CCCB29F
:104B50009E490A549E48B0F92424AFF6C4119A48DD
:104B600006F044FC984805F08FFFC2B22046611C55
:104B7000CCB296490A540819934900E072E005F056
:104B80008AFF914805F080FF2044C4B200222046ED
:104B9000611CCCB28D490A5412222046611CCCB251
:104BA0008A490A5400222146601CC4B287484254F4
:104BB0008748B0F8A624AFF62021834806F016FCFB
:104BC000814805F061FFC2B22046611CCCB27F492A
:104BD0000A5408197C4905F05EFF7B4805F054FF34
:104BE0002044C4B200222046611CCCB277490A544A
:104BF00016222046611CCCB274490A540022204679
:104C0000611CCCB271490A5401222046611CCCB20D
:104C10006E490A546E4890F810242046611CCCB2AC
:104C20006A490A5400222046611CCCB267490A54E2
:104C30001A222046611CCCB264490A540022204644
:104C4000611CCCB261490A5401222046611CCCB2DD
:104C50005E490A545E4890F811242046611CCCB28B
:104C60005A490A545A4890F8E20400287DD000229C
:104C70002046611CCCB255490A5406222046611CCC
:104C8000CCB252490A5400222046611CCCB24F4992
:104C90000A544F4890F8E224AFF604314A4806F02F
:104CA000A5FB494805F0F0FEC2B22046611CCCB21B
:104CB00046490A540819444905F0EDFE424805F0FA
:104CC000E3FE2044C4B200222046611CCCB23F491E
:104CD0000A540A222046611CCCB23C490A540022E4
:104CE0002046611CCCB239490A543948B0F9F8243D
:104CF000AFF65C31344806F079FB334805F0C4FE6A
:104D0000C2B22046611CCCB230490A5408192E495F
:104D100005F0C1FE2C4805F0B7FE2044C4B20022C5
:104D20002146601CC4B2294842540E222046611C10
:104D3000CCB226490A5400222046611CCCB2234939
:104D40000A542348B0F9F424AFF6B4311E4806F0F3
:104D50004DFB1D4805F098FEC2B22046611CCCB246
:104D60001A490A540819184900E07AE005F093FE40
:104D7000154805F089FE2044C4B200222046611C7B
:104D8000CCB212490A5413222046611CCCB20F49FE
:104D90000A5400222046611CCCB20C490A540C482B
:104DA000B0F87625AFF61041074806F01FFB06481D
:104DB00005F06AFEC2B22046611CCCB203490A5417
:104DC0000819014906E00000032D0020942B002063
:104DD0004021002005F05FFEC44805F055FE204448
:104DE000C4B200222046611CCCB2C1490A54172229
:104DF0002046611CCCB2BE490A5400222046611CE8
:104E0000CCB2BB490A5401222046611CCCB2B8493D
:104E10000A54B84890F8E0242046611CCCB2B4494A
:104E20000A5400222046611CCCB2B1490A541B220C
:104E30002146601CC4B2AE48425400222146601C88
:104E4000C4B2AB48425401222046611CCCB2A849EE
:104E50000A54A84890F8E1242046611CCCB2A44929
:104E60000A54A44890F8B20500287DD000222046BC
:104E7000611CCCB29E490A5407222046611CCCB268
:104E80009B490A5400222046611CCCB298490A541E
:104E9000984890F8B225AFF60051944806F0A6FA6B
:104EA000924805F0F1FDC2B22146601CC4B29048A0
:104EB0004254014608198D4905F0EDFD8B4805F077
:104EC000E3FD2044C4B200222146601CC4B28848DD
:104ED00042540B222046611CCCB285490A54002260
:104EE0002046611CCCB282490A548248B0F9C825D8
:104EF000AFF65C517D4806F079FA7C4805F0C4FDB8
:104F0000C2B22046611CCCB279490A5408197749CB
:104F100005F0C1FD754805F0B7FD2044C4B200227C
:104F20002046611CCCB272490A540F222146601CF3
:104F3000C4B26F48425400222046611CCCB26C4976
:104F40000A546C48B0F9C425AFF6B451674806F06E
:104F50004DFA664805F098FDC2B22046611CCCB2FD
:104F600063490A54081900E075E0604905F093FDB3
:104F70005E4805F089FD2044C4B200222046611C31
:104F8000CCB25B490A5414222146601CC4B2584872
:104F9000425400222046611CCCB255490A5455485F
:104FA000B0F84626AFF61061504806F01FFA4F4899
:104FB00005F06AFDC2B22046611CCCB24C490A54CD
:104FC00008194A4905F067FD484805F05DFD204491
:104FD000C4B200222046611CCCB245490A541822B2
:104FE0002046611CCCB242490A5400222046611C72
:104FF000CCB23F490A5401222046611CCCB23C4944
:105000000A543C4890F8B0252146601CC4B2384888
:10501000425400222046611CCCB235490A541C225D
:105020002046611CCCB232490A5400222146601C41
:10503000C4B200E055E02E48425401222046611CD3
:10504000CCB22B490A542B4890F8B1252146601C5C
:10505000C4B22748425400222146601CC4B22448EE
:10506000425410222146601CC4B2214842540022FE
:105070002146601CC4B21E4842541F484068406824
:105080000288AFF2C061194806F0B0F9174805F080
:10509000FBFCC2B22046611CCCB215490A54081967
:1050A000124905F0F8FC114805F0EEFC2044C4B2AA
:1050B000FF222146601CC4B20D484254FC22204607
:1050C000611CCCB20A490A54FF222146601CC4B2BA
:1050D000074842542046611CCCB205490A5400E0FE
:1050E00000BF00BF2046FEF7F7FE10BD032D0020D5
:1050F000942B002040210020300000200146088829
:105100004A88904201D1012070470020FCE7014607
:105110004888421CD01702EB90608011A2EB8010EF
:105120000B88984201D1012070470020FCE7002045
:10513000564948800880564948800880704730B5F5
:1051400085B005460C460020524908702046FFF7FE
:10515000D5FF18B101205049087394E02188201D23
:1051600000EB01100068B0F5006F09D200208DF847
:1051700008002188201D00EB0110006800901CE051
:105180002188201D00EB0110006800F0704058B12C
:105190002188201D00EB0110006820F0704122885A
:1051A000201D00EB0210016004208DF8080021880A
:1051B000201D00EB0110006801903848854205D1A0
:1051C00001223249364800F001FA04E00222304957
:1051D000344800F0FBF92188201D00EB0110007914
:1051E0008DF80A0000208DF809009DF80A20238818
:1051F000201D00EB0310411D0DF10B0005F020FCFC
:105200002188481CC11700EB91618911A0EB811125
:10521000218017E01F480078401C1E49087008468E
:1052200000780A280EDD1D48854205D11E48006819
:10523000401C1D49086004E01C480068401C1B49D4
:10524000086005E06946284601F042FB0428E1D0E9
:1052500000BF15480068052808DB002012490860D7
:10526000134948684FF48871FEF7B5F80F48006895
:10527000052808DB00200D4908600D4948684FF4F7
:105280009071FEF7A8F805B030BD0000586200200C
:105290005C6600203F000020F42C002000640040E9
:1052A000342D0020C4450020400000204400002090
:1052B0003000002030B502460023012904D101202E
:1052C000FE4C2072062303E00120FC4C6072062392
:1052D00000203CE0002400EB400505EBC01502EB8C
:1052E000C5052C6100EB400505EBC01502EBC505BB
:1052F0002C7300EB400505EBC01542F8354000EB80
:10530000400505EBC01502EBC5056C60002500EB00
:10531000400404EBC01402EBC404E582002400EB5B
:10532000400505EBC01502EBC505AC8200EB40055E
:1053300005EBC01502EBC505AC60002500EB400491
:1053400004EBC01402EBC40484F82550401C9842BE
:10535000C0DB30BD2DE9F04105460E4617464FF043
:105360000008012F02D14FF0060801E04FF00608B7
:10537000002426E104EB440000EBC41005EBC00060
:10538000006901287EDB04EB440000EBC41005EB50
:10539000C000017B04EB440000EBC41005EBC0002F
:1053A000007B401C04EB440202EBC41205EBC2027A
:1053B00010731E2967DB3046FFF7A9FE80B104EBAE
:1053C000440000EBC41005EBC0008068401C04EBF7
:1053D000440101EBC41105EBC1018860BDE8F08117
:1053E00004EB440101EBC41105EBC10101F1140010
:1053F000FFF784FE40B1002004EB440101EBC4112F
:1054000005EBC1018860E9E704EB440000EBC41040
:1054100005EBC0000069401E04EB440101EBC41120
:1054200005EBC1010861002004EB440101EBC4114C
:1054300005EBC101087304EB440101EBC41105EB5A
:10544000C101886004EB440000EBC41005EBC00010
:10545000183004EB440101EBC41105EBC101898A4A
:1054600000EB011072880168301D00EB0210016032
:1054700004EB440000EBC41005EBC000183004EB53
:10548000440101E087E05EE001EBC41105EBC101DE
:10549000898A00EB011001797288301D00EB02103F
:1054A000017104EB440000EBC41005EBC0001830A0
:1054B00004EB440101EBC41105EBC101898A00EB47
:1054C0000110417B7288301D00EB0210417304EB28
:1054D000440303EBC41305EBC303183304EB440C80
:1054E0000CEBC41C05EBCC0CBCF814C003EB0C1388
:1054F000591DB6F802C0331D03EB0C131A79331D86
:1055000003EB0C13581D05F09BFA7188481CC1175A
:1055100000EB91618911A0EB8111718004EB4401D2
:1055200001EBC41105EBC101898A481CC11700EBCE
:1055300091618911A0EB811104EB440202EBC412CA
:1055400005EBC202918204EB440000EBC41005EBB2
:10555000C00080680A280FD804EB440000EBC41098
:1055600055F8300004EB440101EBC41105EBC10117
:105570004968401A322823DD4FF48070504908836F
:10558000504804EB440101EBC41105EBC101086173
:10559000012F01D100BF13E014B1012C0ED106E0A0
:1055A000494948684FF40471FDF715FF07E0464983
:1055B00048684FF40471FDF70EFF00E000BF00BF24
:1055C000641C4445FFF6D6AE00BF07E72DE9F04165
:1055D00004460E4617464FF00008FF253188301D5F
:1055E00000EB0110407B08B9BDE8F081012F02D12A
:1055F0004FF0060809E04FF006083188301D00EB37
:1056000001100088A0F2013085B245450FDA05EBA4
:10561000450101EBC51104EBC10101F11400FFF7D5
:1056200076FD48B1012F03D1012024498872ADE0F5
:1056300001202249C872A9E005EB450000EBC51026
:1056400004EBC0000069401C05EB450101EBC511EE
:1056500004EBC101086105EB450000EBC51054F8EF
:105660003000401C05EB450101EBC51144F8310049
:105670003188301D00EB0110026805EB450000EB9E
:10568000C51004EBC000183005EB450101EBC51156
:1056900004EBC101C98A00EB011002603188301DA2
:1056A00000EB0110027905EB450000EBC51004EB9F
:1056B000C000183005EB450108E00000F42C002084
:1056C00000000240F0D8FFFF3000002001EBC511C0
:1056D00004EBC101C98A00EB011002713188301D51
:1056E00000EB0110427B05EB450000EBC51004EB1D
:1056F000C000183005EB450101EBC51104EBC101F9
:10570000C98A00EB0110427305EB450303EBC51397
:1057100004EBC303183305EB450C0CEBC51C04EB81
:10572000CC0CBCF816C003EB0C131A7905EB45033F
:1057300003EBC51304EBC303183305EB450C0CEB6B
:10574000C51C04EBCC0CBCF816C003EB0C13581DA5
:10575000B6F800C0331D03EB0C13591D05F070F9AA
:1057600005EB450101EBC51104EBC101C98A481CD9
:10577000C11700EB91618911A0EB81118AB205EB91
:10578000450101EBC51104EBC101CA8200BF2BE743
:10579000002282610160C26100230362436280EDE6
:1057A000031A80ED010AC0ED020AC0ED041A704729
:1057B00001688269891AC161C269016A511A00EEE1
:1057C000101AB8EEC00AD0ED010A20EE200A90EDC2
:1057D000021AC16900EE901AF8EEE00A01EE200A02
:1057E000C269416A0A44016AA2EB410100EE901AC3
:1057F000F8EEE00A90ED031A01EE200ABDEEC00AB1
:1058000010EE101A4161026A4262C2690262704778
:1058100008B590ED000A8DED000ABDF800200A7071
:10582000BDF80020120A4A70BDF802208A70BDF847
:105830000220120ACA7008BD08B50A88ADF8002017
:105840004A88ADF802209DED000A80ED000A08BDEF
:1058500030B50C0E15686B1C13604455C1F307443A
:1058600015686B1C13604455C1F3072415686B1C45
:105870001360445515686B1C1360415530BD10B55D
:1058800002460B68D35C1C060B685B1CD35C44EAC5
:1058900003440B689B1CD35C44EA03230C68E41CA0
:1058A000145D43EA04000B681B1D0B6010BD10B5AE
:1058B00002460B685B1CD35C0C68145D43EA04234E
:1058C00018B20B689B1C0B6010BD30B50446F0EE9F
:1058D000400A0D4629462046FFF7D1FF00EE100A88
:1058E000B8EEC01A81EE200A30BD30B50446F0EEA5
:1058F000400A0D4629462046FFF7D9FF00EE100A60
:10590000B8EEC01A81EE200A30BD10B5002107E0C4
:105910004AF2104200BF131EA2F10102FBD1491C42
:105920008142F5D310BD10B5002106E0282200BF4A
:10593000131EA2F10102FBD1491C8142F6D310BD16
:105940001CB5012000210B460246CDE900104FF4A2
:1059500070418D4800F054FC012000210B460A469E
:10596000CDE900104FF47071884800F049FC1CBD6F
:105970002DE9FC41FF25FF24FF2600224FF4704152
:10598000814801F0CDFD0120FFF7CDFF40217F4888
:1059900001F0A8FD074680217C4801F0A3FD47EAFD
:1059A0004007611C794801F09DFD47EA80074FF4EC
:1059B0000071764801F096FD47EAC00004400F2CC4
:1059C0005ED00A20FFF7A1FF4021704801F08AFD58
:1059D000074680216D4801F085FD47EA4007691CB4
:1059E0006A4801F07FFD47EA80074FF4007167487D
:1059F00001F078FD47EAC00004400F2C40D00120A0
:105A000000210B460246CDE900104FF470715F484B
:105A100000F0F6FB012000210B460A46CDE90010FC
:105A20004FF47041584800F0EBFB00224FF47071C6
:105A3000564801F075FD0220FFF767FF4FF48051D3
:105A4000514801F04FFDC7004FF400514E4801F09E
:105A500049FD47EA80074FF480414B4801F042FD81
:105A600047EA40074FF40041474801F03BFD384307
:105A7000054044EA0510C043C6B23046BDE8FC818B
:105A8000F043C0B2FAE710B50821404801F02AFD02
:105A9000044604213D4801F025FD44EA400401216B
:105AA0003A4801F01FFD44EA8000C0B210BD10B5B5
:105AB000FFF75EFF412844D012DC212831D008DCFA
:105AC00011281ED0122820D0142822D0182858D1EE
:105AD00023E0222829D024282BD0282851D12CE0BB
