:020000040800F2
:10000000C8910020159400081D9400081F94000852
:1000100021940008239400082594000800000000A3
:10002000000000000000000000000000279400080D
:1000300029940008000000000BBA00086FBC0008FB
:100040002F9400082F9400082F9400082F94000884
:100050002F9400082F9400082F9400082F94000874
:100060002F9400082F9400082F9400082F94000864
:100070002F9400082F9400082F9400082F94000854
:100080002F940008053600082F9400082F940008CC
:100090006B0500082F9400082F9400082F94000887
:1000A0002F9400082F9400082F9400082F94000824
:1000B000970D00082F0F00082F9400082F940008B8
:1000C0002F9400082F9400082F9400082F94000804
:1000D0002F9400082F9400082B3600082F94000856
:1000E0002F9400082F9400082F9400082F940008E4
:1000F0002F9400082F9400082F9400082F940008D4
:100100002F9400082F9400082F9400082F940008C3
:100110002F9400082F9400082F9400082F940008B3
:100120002F9400082F9400082F9400082F940008A3
:100130002F9400082F9400082F9400082F94000893
:100140006D080008B50900082F9400082F940008D6
:100150002F9400082F940008BD3400082F94000845
:100160002F9400082F9400082F9400082F94000863
:100170002F9400082F9400082F9400082F94000853
:100180002F9400082F940008DFF80CD00BF096FF96
:100190000048004709030008C891002030BF72B62C
:1001A000704762B6704780F3088870470BE0794962
:1001B000096908B200231A46194607F080F84FF47F
:1001C00096700BF02BFBF2E700BF00BF03E04FF48B
:1001D000FA700BF023FBFAE74BE006F04EF86E489E
:1001E000007810B906F0C5F83FE010206B4948834D
:1001F000694840684468002533E0207800F00F002B
:1002000060B98020654908832078C0F3031140203D
:1002100006F0E9F820206149488311E0207800F0D9
:100220000F01802006F0DFF82078C0F30311402092
:1002300006F0D9F82088C0F30321202006F0D3F877
:1002400064684FF47A700BF0E9FA40205349088350
:10025000802008832020088341F270700BF0DEFAC2
:100260006D1C4D480078A842C7DC4FF47A700BF043
:10027000D5FAB2E705E004F035F84FF47A700BF0E8
:10028000CDFAF8E770B50446002500BF0BF005FD78
:100290000BF09AFB054600200AF02FFD404908604C
:1002A0001923404A002140480AF072FF1E233F4AAA
:1002B00000213F480AF06CFF28233E4A00213E48B7
:1002C0000AF066FF37233D4A00213D480AF060FFEF
:1002D0003C4806F005F905200BF0A0FA394806F075
:1002E000FFF805200BF09AFA364806F0F9F80520D9
:1002F0000BF094FA002006F0A4F805200BF0C6F9E4
:1003000028460BF065FB70BD10B540F6B83005F01F
:10031000E2FE08F0E5FF4FF4806101F007022A4B8E
:1003200018684FF6FF031840284B034343EA0220A6
:10033000254B186000BF2648006840F0070024499C
:10034000086006F00BF806F0A7F806F063F805F071
:10035000DDFE00F045F800F047F903F041F803F046
:10036000EBF800F0B1FD00F0FBFB02F0B4FF05F08C
:1003700031FB0221174805F0EFFB09F095F9052341
:10038000154A002115480AF003FF09F0B4FA0020CD
:1003900010BD000090270020440000200000024013
:1003A00000000020DC0C002075020008DC0E00209C
:1003B000D9010008DC1E0020C9010008DC20002053
:1003C000AD010008006800400CED00E00000FA05F7
:1003D00030380240A0380020DC04002085020008EC
:1003E00000B58BB00121480608F0F3FB0121084657
:1003F00008F0BCFB09220B21774808F0FCF9092220
:100400000C21754808F0F7F902208DF81C004FF414
:10041000C050069006A9704808F062F900208DF8D7
:1004200026008DF827008DF828008DF829008DF81A
:100430002A008DF82B008DF822008DF8230008206B
:100440008DF8240003208DF82500ADF8200008A9C0
:10045000624807F024FA00208DF812008DF813008E
:1004600001208DF814000820ADF808004FF4C050AA
:10047000ADF80A0040F2FF70ADF80C004FF6F870CE
:10048000ADF80E000020ADF8100001208DF8150029
:1004900002A807F08EFA01208DF8120000208DF8D6
:1004A000130001208DF814000820ADF8080000208A
:1004B000ADF80A0040F2FF70ADF80C004FF6F8708E
:1004C000ADF80E000020ADF8100001208DF81500E9
:1004D00002A807F06EFA14208DF8040003208DF8AE
:1004E000050000208DF8060001208DF8070001A806
:1004F00007F051F901220221384807F059FD0BB0ED
:1005000000BD10B586B004463548807800F0010083
:1005100048B13348807800F0020020B93048807834
:1005200000F00400F8B9207A30B900208DF80C00F2
:1005300020688038019006E0207A042803D18DF8E5
:100540000C002848029000208DF80D00A07A8DF84C
:100550000E00A27A04F10B0108460BF0D1FB01A9B1
:100560001E4807F015FB06B010BD00B585B002218E
:100570001A4807F085FD68B30221184807F01BFEF2
:100580000221164807F059FD6A460021134807F07A
:10059000F4FB0320124988709DF80800042819D143
:1005A0009DF80900B0B99DF80B0090B99DF80C00BA
:1005B00043280ED19DF80D0057280AD19DF80E0052
:1005C000482806D19DF80F00552802D16846FFF74C
:1005D00098FF00BF05B000BD00000240006400406D
:1005E0005C0000200101030000B58BB001218806EA
:1005F00008F0EFFA09220521FA4808F0FCF8092270
:100600000621F84808F0F7F802208DF8180060205D
:10061000059005A9F34808F063F840208DF82800FC
:1006200002208DF8290000208DF82A0001208DF885
:100630002B000AA807F0AFF841208DF8280002200F
:100640008DF8290001208DF82A008DF82B000AA8CA
:1006500007F0A1F800208DF822008DF823008DF816
:1006600024008DF825008DF826008DF827008DF8E0
:100670001E008DF81F0008208DF8200003208DF843
:100680002100ADF81C0007A9D74807F008F90E2093
:100690008DF80E0001208DF80F0000208DF810005D
:1006A00044F22000ADF8040044F24000ADF806002A
:1006B00044F26000ADF808004FF48140ADF80A0044
:1006C0000020ADF80C0001208DF8110001A807F002
:1006D00070F90F208DF80E0001208DF80F0000201A
:1006E0008DF8100044F2A000ADF8040044F2C00000
:1006F000ADF8060044F2E000ADF808004FF4824087
:10070000ADF80A000020ADF80C0001208DF81100B2
:1007100001A807F04EF910208DF80E0001208DF889
:100720000F0000208DF8100045F22000ADF8040005
:1007300045F24000ADF8060045F26000ADF8080053
:100740004FF4A140ADF80A000120ADF80C008DF87F
:10075000110001A807F02DF911208DF80E000120DD
:100760008DF80F0000208DF8100045F2A000ADF8C4
:10077000040045F2C000ADF8060045F2E000ADF817
:1007800008004FF4A240ADF80A000120ADF80C00BB
:100790008DF8110001A807F00CF912208DF80E0059
:1007A00001208DF80F0000208DF810004FF48150CB
:1007B000ADF804004FF48250ADF806004FF48350BA
:1007C000ADF808004FF48450ADF80A000120ADF8F0
:1007D0000C008DF8110001A807F0EBF813208DF83C
:1007E0000E0001208DF80F0000208DF810004FF44E
:1007F0008550ADF804004FF48650ADF806004FF474
:100800008750ADF808004FF48850ADF80A00012079
:10081000ADF80C008DF8110001A807F0CAF81420FB
:100820008DF80E0000208DF80F0001208DF81000CB
:100830000020ADF804004FF49040ADF806004FF6EC
:10084000FF70ADF808004FF47840ADF80A000120C1
:10085000ADF80C008DF8110001A807F0AAF80122EC
:100860001021614807F0A4FB0BB000BD10B586B0A5
:1008700002215D4807F004FC00287DD001AA002178
:10088000594807F07AFA0221574807F094FC01987A
:10089000B0F5007F7AD90198B0F5027F76D89DF83F
:1008A0000D00002872D10198401EC4B204A9481E50
:1008B00002F03DFD0DF11201481E02F038FD05A9C0
:1008C000481E02F034FDBDF80F1004EBC40000EB2D
:1008D0000410464A02EBC0000184BDF8111004EB7D
:1008E000C40000EB041002EBC0000183BDF813103C
:1008F00004EBC40000EB041002EBC000C18204EB67
:10090000C40000EB0410114601EBC000C06900EE0A
:10091000100AB8EEC00ADFED360A20EE201A04EB0A
:10092000C40000EB041001EBC00090F8C20000EE20
:10093000100AB8EE400AC1EE000A04EBC40000EB56
:10094000041001EBC000B0F8C00000EE100AB8EED1
:10095000400A80EE801ABDEEC10A10EE100A00B205
:1009600004EBC40101EB041102EBC10188820BF01E
:1009700005F804EBC40101E009E007E001EB041114
:100980001A4A02EBC101C1F8B80000BF00BF06B0AF
:1009900010BD4168491C4160002101730169491E75
:1009A0000161818A491C1E2291FBF2F302FB1311A3
:1009B0008182704700B585B010210B4807F060FBBD
:1009C00068B16A460121084807F0D7F910210648A6
:1009D00007F0F1FB1021044807F02FFB00BF05B022
:1009E00000BD0000000402400068004028210020F3
:1009F0000000B44370B5044604EBC40000EB0410DF
:100A0000524901EBC000B0F90600002808DD04EBF4
:100A1000C40000EB041001EBC000B0F9060009E0CF
:100A200004EBC40000EB0410484901EBC000B0F92E
:100A30000600404204EBC40101EB0411434A02EBFF
:100A4000C101B1F8C410884220DD04EBC40000EB02
:100A50000410114601EBC000B0F90600002802DACC
:100A60004FF0FF3000E0012004EBC40101EB041162
:100A7000364A02EBC101B1F8C410484301B204EB9D
:100A8000C40000EB041002EBC000C18004EBC40002
:100A900000EB04102D4911F8300040B9002104EB9F
:100AA000C40000EB0410294A02EBC000C180042CF2
:100AB00004DA4FF400702649086003E040F2FF10AA
:100AC0002349086000202249487208720820887271
:100AD00004F00B00450004EBC40000EB04101B49BC
:100AE00001EBC000C1881A480B30415302466B1C11
:100AF000D118501902F01BFC032C01D0072C03D194
:100B00001349144807F044F870BD30B585B0054668
:100B10000C461148019000208DF8090004208DF842
:100B2000080003208DF80A0056208DF80B004C2198
:100B30008DF80C108DF80D408DF80E506946054863
:100B400007F026F80548447005B030BD2821002084
:100B5000E02000200068004001010300922C0020EA
:100B600010B5D448006840F00100D249086041F651
:100B700057300906C8620B2008850846008840F4F3
:100B8000807008800846008A20F00100088208462C
:100B9000808940F0010088810846008840F001000B
:100BA000088003231C220121084606F0DBFB10BD50
:100BB00010B50024E0E004EB8400BF4901EB4000E5
:100BC000C079002844D0002004EB8401BA4A02EB2B
:100BD0004101C87104EB840102EB4101487004EB50
:100BE000C400B64911F8303000220221601C02F026
:100BF0003DF800231A460221601C01F0BCFD04EB05
:100C0000C400AE4901EBC000836800220221601CD1
:100C100001F0D2FE04EB8400A74901EB40004078CC
:100C2000401C04EB8401A44A02EB4101487004EB30
:100C30008400114601EB400040784FF4347110FB02
:100C400001F000B204EBC4019C4A02EBC1018880B0
:100C500004EBC400994901EBC0004078002877D02C
:100C600004EB8400944911F8100068BB04EBC40045
:100C7000924901EBC000B0F90C006438002807DD90
:100C800004EBC40001EBC000B0F90C00643808E0CC
:100C900004EBC400894901EBC000B0F90C00C0F1BD
:100CA00064000A2810DA012004EB8401824A02F869
:100CB000110004EBC400814901EBC00083680022ED
:100CC0000221601C01F078FE04EB84007A4911F8DF
:100CD0001000E8B304EBC400784901EBC000B0F9A0
:100CE0000C0004EBC401754A02EBC101B1F9041018
:100CF000401A00280EDD04EBC400114601EBC000D1
:100D0000B0F90C0004EBC40102EBC101B1F904100D
:100D1000401A0EE004EBC400684901EBC000B0F9D2
:100D2000040004EBC401654A02EBC101B1F90C10E7
:100D3000401A0A281FDA04EB84005F4901EB4000E7
:100D40004078401C04EB84015B4A02EB410100E067
:100D500011E0487004EB8400114601EB400040783C
:100D60004FF4B46110FB01F000B204EBC401534A2C
:100D700002EBC1018880641C032CFFF61CAF10BD80
:100D80004F490878411C4E4A1170032802DD0020AB
:100D900011460870704710B54FF08040008A00F08F
:100DA000010018B1FFF7ECFFFFF702FF4FF08040A2
:100DB000008A20F001004FF08041088210BD70B51C
:100DC0003F490878411C3E4A1170032807DD002086
:100DD0001146087000220121104601F0CCFC0024CD
:100DE00063E004EBC400354901EBC0004078F8B182
:100DF0000AF0C4FD04EBC401304A02EBC101896B67
:100E0000411A04EBC40002EBC000808F81420FD96D
:100E100004EBC400114601EBC00090F83400401C04
:100E2000C1B204EBC40002EBC00080F8341007E04C
:100E3000002104EBC400214A02EBC00080F834100A
:100E400004EBC4001D4901EBC00090F834000A28EF
:100E500012DD012104EBC400184A02EBC000C17589
:100E6000621C022343EA021292B242F48071154AD4
:100E7000506802F086FA17E0002104EBC4000F4A24
:100E800002EBC000C175621C022343EA021292B257
:100E900042F480710B4A506802F065FA0546094930
:100EA0004868294602F049FA641C042C99DB70BD9D
:100EB0007047000040380240F429002090270020AD
:100EC000040000204400002010B52748006840F0CE
:100ED00002002549086042F22730244908600720B3
:100EE000091F088021482C38008840F480701F4971
:100EF0002C3908801D481C38008820F001001B494F
:100F00001C390880081F008840F00100091F088074
:100F100016482C38008840F0010014492C3908800C
:100F200003231D220021012006F01CFA10BD10B57C
:100F30000E481C38008800F0010058B10C490D48DB
:100F400004F050FD0C48407920B1022208490B48BA
:100F500004F042FE05481C38008820F001000349D7
:100F60001C39088010BD0000403802402C040040AD
:100F70003848002000680040922C0020A038002053
:100F800010B54FF40050FE490880FE490880242027
:100F9000FB4988701320FB49887042F22830F849D9
:100FA000888043F69910F74988800120F4498871B8
:100FB000F4498871F44908724FF4FA7048810120AD
:100FC0000873002008709FEDF10A084680ED010AC1
:100FD0004FF4FA70C88180000882ED498883ED489B
:100FE000E8490A680264496841640020EA4981F8D6
:100FF00020030021E84880F82113042180F82213FF
:101000000021A0F824136421A0F82813A0F82613C7
:10101000D0F82C13DFEDE11A9FEDE11ADFEDE10AC4
:10102000B1EE040A00F5577004F098FFDA48B0F901
:101030002813F7EE001A9FEDDA1ADFEDDB0AB2EEA5
:10104000000A00F5617004F089FF1422CE49D148EE
:101050000C300AF055FECF48C830CA490A6802640D
:10106000496841640020CC4981F8E8030021CA485E
:1010700080F8E913042180F8EA130021A0F8EC13AA
:101080006421A0F8F013A0F8EE13D0F8F413DFED0C
:10109000C31A9FEDC31ADFEDC30AB1EE040A00F2D2
:1010A000244004F05BFFBC48B0F9F013F7EE001ADF
:1010B0009FEDBB1ADFEDBC0AB2EE000A00F24C4015
:1010C00004F04CFF1422B049B248D4300AF018FEA4
:1010D00000249DE004EBC40000EB0410AE4901EBDA
:1010E000C000AB490968C0F8A010A948416804EBEA
:1010F000C40000EB0410A84A02EBC000C0F8A41022
:1011000004EBC40101EB041102EBC10101F1A800E1
:101110000A229F4908310AF0F3FD9D48418A04EBF9
:10112000C40000EB04109C4A02EBC000A0F8B2100F
:1011300004EBC40000EB0410114601EBC000A0302A
:10114000934B59699A69DB6914300EC004EBC400F3
:1011500000EB0410904901EBC000D0ED240A04EB31
:10116000C40000EB041001EBC00090F8C20000EED8
:10117000100AB8EE400A60EE800A04EBC40000EBEF
:10118000041001EBC000B0F8C00000EE100AB8EE89
:10119000400A20EE800ADFED850A80EE201ABCEEC0
:1011A000C10A04EBC40000EB041001EBC00080EDA9
:1011B000280A04EBC40000EB041001EBC000818896
:1011C00004EBC40000EB0410734A02EBC00090F87B
:1011D000C20011FB00F004EBC40101EB041102EBAF
:1011E000C101B1F8C010484300EE100AB8EEC00AC1
:1011F000DFED6E0A80EE201ABDEEC10A10EE100A75
:1012000004EBC40101EB041102EBC101C860641CD2
:10121000082CFFF65FAF10BD002239210A54C261CD
:1012200000218182704710B5044604EBC40000EB36
:101230000410594901EBC000D0ED1D0A04EBC400B5
:1012400000EB041001EBC000B0F9080000EE100A3A
:10125000B8EEC00A20EE800ABDEEC00A10EE100AF9
:1012600004EBC40101EB04114B4A02EBC1014866D7
:1012700004EBC40000EB0410114601EBC000B0F910
:10128000181004EBC40000EB041002EBC000C167AF
:1012900004EBC40101EB041102EBC10101F1640094
:1012A00004F06CFE04EBC40000EB04103A4901EBBF
:1012B000C000C18804EBC40000EB0410364A02EB06
:1012C000C000806F084401B204EBC40000EB0410BE
:1012D00002EBC000C18010BD10B5044604EBC40091
:1012E00000EB04102C4901EBC000818804EBC40022
:1012F00000EB0410284A02EBC00090F8C20011FB7A
:1013000000F004EBC40101EB041102EBC101B1F8E0
:10131000C010484300EE100AB8EEC00ADFED230A01
:1013200080EE201ABDEEC10A10EE100A04EBC401D3
:1013300001EB041102EBC101C86004EBC40000EB37
:101340000410114601EBC000C06804EBC40101EBBE
:10135000041102EBC101C86304EBC40000EB0410EC
:10136000114601EBC000407838BB04EBC40000EB31
:10137000041001EBC000D0F8A40004EBC40117E096
:10138000060000200E000020F42000200000FA4398
:1013900008210020C824002028210020CDCCCC3EEC
:1013A00000000000CDCC4C3E9A99993E0000B44319
:1013B00001EB041102EBC101C86304EBC40000EBB4
:1013C0000410FC4901EBC00090F88C0088B304EBDA
:1013D000C40000EB041001EBC000C06B002807DD67
:1013E00004EBC40000EB041001EBC000C06B08E08C
:1013F00004EBC40000EB0410EE4901EBC000C06B2D
:10140000404204EBC40101EB0411EA4A02EBC101C2
:10141000D1F8A01088421FD904EBC40000EB0410DF
:10142000114601EBC000C06B002803DA4FF0FF301B
:1014300001E011E0012004EBC40101EB0411DD4ADD
:1014400002EBC101D1F8A010484304EBC40101EB49
:10145000041102EBC101C86304EBC40000EB0410EB
:10146000D44901EBC000C16904EBC40000EB0410D7
:10147000D04A02EBC000416504EBC40101EB04114A
:1014800002EBC10101F13C0004F078FD04EBC40063
:1014900000EB0410C74901EBC000D0ED130A04EBC8
:1014A000C40000EB041001EBC000006D00EE100A58
:1014B000B8EEC00A20EE800ABDEEC00A10EE100A97
:1014C00004EBC40101EB0411BA4A02EBC101486606
:1014D00004EBC40000EB0410114601EBC00090F8CF
:1014E000940088B304EBC40000EB041001EBC000CF
:1014F000406E002807DD04EBC40000EB041001EB94
:10150000C000406E08E004EBC40000EB0410A949E1
:1015100001EBC000406E404204EBC40101EB04113A
:10152000A44A02EBC101B1F8961088421FDD04EB1A
:10153000C40000EB0410114601EBC000406E00280F
:1015400003DA4FF0FF3001E011E0012004EBC401A9
:1015500001EB0411974A02EBC101B1F89610484320
:1015600004EBC40101EB041102EBC101486604EB7A
:10157000C40000EB04108F4901EBC000B0F9181053
:1015800004EBC40000EB04108A4A02EBC000C16700
:1015900004EBC40101EB041102EBC10101F1640091
:1015A00004F0ECFC04EBC40000EB0410814901EBF7
:1015B000C000C18804EBC40000EB04107D4A02EBBC
:1015C000C000806F084401B204EBC40000EB0410BB
:1015D00002EBC000C18004EBC40000EB0410114614
:1015E00001EBC000D0F8AC00002808DD04EBC4001B
:1015F00000EB041001EBC000D0F8AC0009E004EBF4
:10160000C40000EB04106B4901EBC000D0F8AC0043
:1016100040423C280ADA012004EBC40101EB04112A
:10162000644A02EBC10181F8340009E0002004EBB8
:10163000C40101EB04115F4A02EBC10181F83400DF
:1016400010BD10B5044604EBC40000EB041059496A
:1016500001EBC000B0F99A0004EBC40101EB0411E6
:10166000544A02EBC101486604EBC40000EB0410CD
:10167000114601EBC000B0F9181004EBC40000EBF8
:10168000041002EBC000C16704EBC40101EB0411BC
:1016900002EBC10101F1640004F070FC04EBC40032
:1016A00000EB0410434901EBC000C18804EBC40007
:1016B00000EB04103F4A02EBC000806F084401B207
:1016C00004EBC40000EB041002EBC000C18004EB8B
:1016D000C40000EB0410114601EBC000B0F9060095
:1016E000002808DD04EBC40000EB041001EBC0008F
:1016F000B0F9060009E004EBC40000EB04102D492A
:1017000001EBC000B0F9060040422B49098A88422B
:101710001ADD04EBC40000EB0410264901EBC00005
:10172000B0F90600002802DA4FF0FF3000E0012097
:101730002149098A484301B204EBC40000EB0410BC
:101740001C4A02EBC000C18004EBC40000EB041093
:10175000184901EBC000B0F9A800002808DD04EB2F
:10176000C40000EB041001EBC000B0F9A80009E0D0
:1017700004EBC40000EB04100E4901EBC000B0F90B
:10178000A8004042322819DA04EBC40000EB041030
:10179000084901EBC000B0F8B000401C81B204EB76
:1017A000C40000EB0410034A02EBC000A0F8B01024
:1017B0000EE0000028210020F4200020002104EB8E
:1017C000C40000EB0410FE4A02EBC000A0F8B01009
:1017D00004EBC40000EB0410F94901EBC000B0F8C1
:1017E000B000FA2821DD002104EBC40000EB041056
:1017F000F34A02EBC000A0F8B01004EBC40000EB09
:10180000041002EBC000C161052004EBC40101EB30
:10181000041102EBC1018870012104EBC40000EB4C
:10182000041002EBC00080F8351010BD70B5002424
:1018300039E204EBC40000EB0410E14901EBC00005
:10184000018C04EBC40000EB0410DD4A02EBC00085
:10185000008E081A01B204EBC40000EB041002EB86
:10186000C000A0F8A81004EBC40000EB041011465F
:1018700001EBC000808A04EBC40101EB041102EB10
:10188000C101888404EBC40000EB0410114601EB95
:10189000C000C18A04EBC40000EB041002EBC000DE
:1018A000C18404EBC40000EB0410114601EBC0003E
:1018B000018B04EBC40000EB041002EBC0000185B7
:1018C00004EBC40000EB0410114601EBC000C16939
:1018D00004EBC40000EB041002EBC000C16204EB97
:1018E000C40000EB0410114601EBC000018C04EBB6
:1018F000C40000EB041002EBC000018604EBC4003E
:1019000000EB0410114601EBC000B0F9A80000285C
:1019100008DD04EBC40000EB041001EBC000B0F9DB
:10192000A80009E004EBC40000EB0410A44901EB9B
:10193000C000B0F9A8004042B0F57A6F2CDD04EB8E
:10194000C40000EB04109E4901EBC000B0F9A810E0
:1019500004EBC40000EB0410994A02EBC000B0F99C
:10196000A800002802DA4FF0FF3000E0012004EB6D
:10197000C40202EB0412924B03EBC202B2F8C02085
:1019800000FB121001B204EBC40000EB04101A4675
:1019900002EBC000A0F8A81004EBC40000EB041098
:1019A000874901EBC000C16904EBC40000EB0410DF
:1019B000834A02EBC000B0F9A800014404EBC40064
:1019C00000EB041002EBC000C16104EBC40000EBAB
:1019D0000410114601EBC000C16804EBC40000EB29
:1019E000041002EBC000C069091A04EBC40000EB4C
:1019F000041002EBC000C0F8AC1004EBC40000EB14
:101A00000410114611F8300000287CD004EBC4000B
:101A100000EB041001EBC000B0F9061004EBC400A9
:101A200000EB041002EBC000B0F8C400081A002854
:101A300012DD04EBC40000EB0410114601EBC00002
:101A4000B0F9061004EBC40000EB041002EBC00078
:101A5000B0F8C400081A12E004EBC40000EB041054
:101A6000574901EBC000B0F8C41004EBC40000EB10
:101A70000410534A02EBC000B0F90600081A3228DD
:101A800053DD04EBC40000EB04104D4901EBC00032
:101A9000B0F8B200401C81B204EBC40000EB0410AB
:101AA000474A02EBC000A0F8B21004EBC40000EB00
:101AB0000410114601EBC000B0F8B200B0F57A7F17
:101AC00028DD012104EBC40000EB041002EBC00090
:101AD00080F83610621C012343EA021292B242F4EB
:101AE0000071384A506801F04CFC04EBC40000EB74
:101AF0000410334901EBC00090F8980080B3002037
:101B000004EBC40100E010E001EB04112C4A02F8E0
:101B1000310025E0002104EBC40000EB0410284A4A
:101B200002EBC00080F836101AE0621C012343EA81
:101B3000021292B242F40071224A506801F013FC82
:101B4000054620494868294601F0F7FB002104EBCF
:101B5000C40000EB04101A4A02EBC000A0F8B21057
:101B600004EBC40000EB0410154901EBC000407801
:101B700078B104EBC40000EB041001EBC000C169B4
:101B800004EBC40000EB04100D4A02EBC000C0F8E7
:101B9000A41004EBC40000EB0410094901EBC000E1
:101BA00090F8390040B104EBC40101EB0411044A80
:101BB00002EBC100FFF730FB04EBC40004E00000BF
:101BC000282100204400002000EB0410384911F8BF
:101BD0003000E8B309F0D2FE04EBC40101EB0411BC
:101BE000334A02EBC101D1F8B810411A04EBC4002A
:101BF00000EB041002EBC000B0F8BC00814236D903
:101C000004EBC40000EB0410114601EBC00090F897
:101C1000B400401CC1B204EBC40000EB041002EBA2
:101C2000C00080F8B4100A2916DD012104EBC400BD
:101C300000EB041002EBC00080F83710621C012397
:101C400043EA021292B242F480711A4A506800E0EC
:101C50000DE001F096FB25E0002104EBC40000EB51
:101C60000410134A02EBC00080F837101AE000217C
:101C700004EBC40000EB04100D4A02EBC00080F836
:101C8000B410621C012343EA021292B242F4807142
:101C9000084A506801F067FB05460649486829462E
:101CA00001F04BFB641C082CFFF6C3AD70BD0000B7
:101CB000282100204400002010B54FF48040F9494D
:101CC0000880B7EE000A084680ED010A4FF4004094
:101CD000F5490880B7EE000A084680ED010A4FF486
:101CE0007A60F24908809FEDF20A084680ED010A09
:101CF0004FF47A60EF4908809FEDEF0A084680EDC7
:101D0000010A0020ED4908709FEDED0A084680EDBC
:101D1000010A002008724FF47A704881002008738D
:101D20004FF4FA70C881400008824000E5490882FB
:101D3000E548DD4A06CAC0E910120020E2494870B1
:101D4000052008704FF4B470888041F29411DE4889
:101D500081606421C1804830D34A06CAC0E91012AC
:101D60000021483880F849100520D74981F84800FB
:101D70004FF4B471D448A0F84C1041F294110165AD
:101D80006421A0F84E109030C74A06CAC0E910126C
:101D90000021903880F891100520CB4981F89000FF
:101DA0004FF4B471C848A0F8941040F6B831C0F8A8
:101DB00098106421A0F89610002428E004EBC401D8
:101DC000C14A02EBC10101F118001422BB4909F01C
:101DD00097FF04EBC400BC4901EBC000B9490A6895
:101DE000C26289880186B748C18804EBC400B64A3C
:101DF00002EBC000418604EBC400114601EBC000B9
:101E0000B04B9968DA681B6934300EC0641C052C2D
:101E1000D4DB10BD10B586B00446002001908DF8CB
:101E20000D008DF80C0008208DF80E0001208DF8B3
:101E30000F0000218DF810108DF811108DF8121080
:101E40008DF813108DF814108DF815108DF81610EC
:101E500001A9204605F09CFE06B010BD0FB438B5B0
:101E600006AB0093009B02CB0093009B04CB009336
:101E7000964B5B885B1C1E2493FBF4F504FB153327
:101E8000924C2488A34205D10123914CE37138BCC4
:101E90005DF814FB00F540738C4C6588241D04EB41
:101EA000051423609DF81430012B22D10424874BA4
:101EB0005D881B1D03EB05131C714124834B5D885A
:101EC0001B1D03EB05135C714324804B5D881B1DB8
:101ED00003EB05139C7100247C4B5D881B1D03EBF9
:101EE0000513DC71794B5D881B1D03EB05131C7218
:101EF0002CE09DF81430022B28D10824734B5D8808
:101F00001B1D03EB05131C714124704B5D881B1DC9
:101F100003EB05135C7143246C4B5D881B1D03EBC5
:101F200005139C710024694B5D881B1D03EB051391
:101F3000DC71664B5D881B1D03EB05131C72634B44
:101F40005C881B1D03EB0413C3F809205F4B5D88FD
:101F50001B1D03EB051359735C4B5B885B1C1E2434
:101F600093FBF4F504FB1533584C63800023009376
:101F700000BF8CE710B5554A5288521C1E2392FBB5
:101F8000F3F403FB1422514B1B889A4203D1012224
:101F90004F4BDA7110BD00F540724C4B5C881B1D35
:101FA00003EB04131A600423484A5488121D02EB01
:101FB000041213714223454A5488121D02EB041285
:101FC00053714723414A5488121D02EB0412937146
:101FD00000233E4A5488121D02EB0412D3713B4A7F
:101FE0005488121D02EB04121372384A5388121DD2
:101FF00002EB03125173354A5288521C1E2392FB86
:10200000F3F403FB1422314B5A8000BFC2E70FB434
:1020100038B506AB0093009B02CB0093009B04CB2A
:1020200000932A4B5B885B1C1E2493FBF4F504FB96
:102030001533264C2488A34205D10123244CE37197
:1020400038BC5DF814FB00F54073204C6588241DF6
:1020500004EB051423609DF81430012B3AD10424BD
:102060001A4B5D881B1D03EB05131C714424174B91
:102070005D881B1D03EB05135C714324134B5D88C6
:102080001B1D03EB05139C710024104B5D881B1D69
:1020900003EB0513DC710D4B5D881B1D03EB051372
:1020A0001C7244E0180000202000002028000020BE
:1020B000CDCC6C4030000020E438964168270020E9
:1020C000000034447C27002090270020384800205E
:1020D000922C00209DF81430022B28D10824FE4BAE
:1020E0005D881B1D03EB05131C714424FA4B5D88AE
:1020F0001B1D03EB05135C714324F74B5D881B1D0F
:1021000003EB05139C710024F34B5D881B1D03EB4F
:102110000513DC71F04B5D881B1D03EB05131C726E
:10212000ED4B5C881B1D03EB0413C3F80920EA4B3D
:102130005D881B1D03EB05135973E74B5B885B1C24
:102140001E2493FBF4F504FB1533E34C638000235A
:10215000009300BF74E70FB478B507AB0093009B02
:1021600002CB0093009B04CB0093DB4B5B885B1C92
:102170001E2493FBF4F504FB1533D74C2488A342AB
:1021800005D10123D54CE37178BC5DF814FB00F553
:102190004073D14C6588241D04EB051423609DF821
:1021A0001830012B22D10424CB4B5D881B1D03EB7F
:1021B00005131C714A24C84B5D881B1D03EB0513D6
:1021C0005C715624C44B5D881B1D03EB05139C7189
:1021D0000024C14B5D881B1D03EB0513DC71BE4B56
:1021E0005D881B1D03EB05131C7239E09DF8183048
:1021F000022B35D1441E04EBC404B94D05EBC404D5
:10220000B4F8404054433C2594FBF5F30825B24C08
:102210006688241D04EB061425714A25AE4C668899
:10222000241D04EB061465715625AB4C6688241DED
:1022300004EB0614A5710025A74C6688241D04EB49
:102240000614E571A44C6688241D04EB061425725F
:10225000A14C6588241D04EB0514C4F8093000BFA7
:102260009D4B5D881B1D03EB051359739A4B5B88CF
:102270005B1C1E2493FBF4F504FB1533964C638022
:102280000023009300BF7FE710B5934A5288521C89
:102290001E2392FBF3F403FB14228F4B1B889A42FC
:1022A00003D101228D4BDA7110BD00F540728A4BCB
:1022B0005C881B1D03EB04131A600423864A5488B0
:1022C000121D02EB041213714923834A5488121D14
:1022D00002EB0412537151237F4A5488121D02EB02
:1022E0000412937100237C4A5488121D02EB0412DD
:1022F000D3718023784A5488121D02EB04121372A2
:10230000754A5388121D02EB03125173724A5288A8
:10231000521C1E2392FBF3F403FB14226E4B5A80D3
:1023200000BFC1E70FB438B506AB0093009B02CBEA
:102330000093009B04CB0093674B5B885B1C1E24BF
:1023400093FBF4F504FB1533634C2488A34205D1B9
:102350000123624CE37138BC5DF814FB00F5407357
:102360005D4C6588241D04EB051423609DF8143032
:10237000012B23D10424584B5D881B1D03EB05134F
:102380001C714D24544B5D881B1D03EB05135C71C0
:102390004F24514B5D881B1D03EB05139C710024DA
:1023A0004D4B5D881B1D03EB0513DC7140244A4B2C
:1023B0005D881B1D03EB05131C723DE09DF8143076
:1023C000022B39D10824444B5D881B1D03EB0513F8
:1023D0001C714D24404B5D881B1D03EB05135C7184
:1023E0004F243D4B5D881B1D03EB05139C7100249E
:1023F000394B5D881B1D03EB0513DC71364B5D8883
:102400001B1D03EB05131C72334B5D881B1D03EB77
:1024100005135A72304B5D881B1D03EB05139C722C
:102420002D4B5D881B1D03EB0513DC722A4B5D8869
:102430001B1D03EB05131C73274B5D881B1D03EB52
:1024400005135973244B5B885B1C1E2493FBF4F526
:1024500004FB1533204C63800023009300BF7AE710
:1024600070B586B006460C46154600208DF80C0067
:102470008DF80D0006F540700190012C0ED104205E
:102480008DF80E004D208DF80F004F218DF81010A3
:1024900000218DF811108DF8121017E0022C15D1C3
:1024A00008208DF80E004D208DF80F004F218DF87B
:1024B000101000218DF811108DF812108DF81350A6
:1024C0008DF814108DF815108DF8161001A9054817
:1024D00005F05EFB06B070BD38480020922C00204D
:1024E00090270020006400400FB478B5002100223E
:1024F00007AB0093009B02CB0093009B04CB00939F
:10250000FE4B5B885B1C1E2493FBF4F504FB153328
:10251000FA4C2488A34205D10123F94CE37178BC1D
:102520005DF814FB00F54073F44C6588241D04EB42
:10253000051423609DF81830012B22D10424EF4BA1
:102540005D881B1D03EB05131C715024EB4B5D884C
:102550001B1D03EB05135C714124E84B5D881B1DBB
:1025600003EB05139C710024E44B5D881B1D03EBFA
:102570000513DC71E14B5D881B1D03EB05131C7219
:102580004BE09DF81830022B47D1441E04EBC404E5
:10259000DC4D05EBC40494ED110A9FEDDB1AC0EE8F
:1025A000010A441E04EBC40405EBC404B4F8404023
:1025B000544300EE104AB8EEC00A20EE800ABDEE89
:1025C000C00A10EE103A0825CC4C6688241D04EB96
:1025D000061425715025C94C6688241D04EB061489
:1025E00065714125C54C6688241D04EB0614A57150
:1025F0000025C24C6688241D04EB0614E571BF4C0F
:102600006688241D04EB06142572BC4C6588241DC5
:1026100004EB0514C4F8093000BFB84B5D881B1DDE
:1026200003EB05135973B54B5B885B1C1E2493FBAE
:10263000F4F504FB1533B14C63800023009300BF15
:102640006DE710B5AD4A5288521C1E2392FBF3F47D
:1026500003FB1422A94B1B889A4203D10122A84BE9
:10266000DA7110BD00F54072A44B5C881B1D03EBB2
:1026700004131A600423A14A5488121D02EB0412A9
:10268000137150239D4A5488121D02EB041253719A
:1026900045239A4A5488121D02EB041293710023B9
:1026A000964A5488121D02EB0412D371934A54883F
:1026B000121D02EB04121372904A5388121D02EB92
:1026C000031251738D4A5288521C1E2392FBF3F45D
:1026D00003FB1422894B5A8000BFC2E710B5874A1A
:1026E0005288521C1E2392FBF3F403FB1422834BEB
:1026F0001B889A4203D10122814BDA7110BD00F58B
:1027000040727E4B5C881B1D03EB04131A6004238C
:102710007A4A5488121D02EB041213715023774A2F
:102720005488121D02EB041253715223734A5488C9
:10273000121D02EB041293710023704A5488121D7B
:1027400002EB0412D3716D4A5488121D02EB04127D
:1027500013726A4A5388121D02EB03125173674ABF
:102760005288521C1E2392FBF3F403FB1422634B8A
:102770005A8000BFC2E70FB438B506AB0093009B88
:1027800002CB0093009B04CB00935C4B5B885B1CEB
:102790001E2493FBF4F504FB1533584C2488A34204
:1027A00005D10123564CE37138BC5DF814FB00F5EC
:1027B0004073524C6588241D04EB051423609DF87A
:1027C0001430012B22D104244C4B5D881B1D03EBDC
:1027D00005131C715024494B5D881B1D03EB051329
:1027E0005C715824454B5D881B1D03EB05139C71E0
:1027F0000024424B5D881B1D03EB0513DC713F4B2E
:102800005D881B1D03EB05131C722CE09DF8143032
:10281000022B28D10824394B5D881B1D03EB0513BF
:102820001C715024354B5D881B1D03EB05135C7137
:102830005824324B5D881B1D03EB05139C7100244B
:102840002E4B5D881B1D03EB0513DC712B4B5D8844
:102850001B1D03EB05131C72284B5C881B1D03EB2F
:102860000413C3F80920254B5D881B1D03EB0513DA
:102870005973224B5B885B1C1E2493FBF4F504FB0D
:1028800015331E4C63800023009300BF8CE70FB408
:1028900038B506AB0093009B02CB0093009B04CBA2
:1028A0000093164B5B885B1C1E2493FBF4F504FB22
:1028B0001533124C2488A34205D10123104CE37137
:1028C00038BC5DF814FB00F540730C4C6588241D82
:1028D00004EB051423609DF81430012B2BD1042444
:1028E000064B5D881B1D03EB05131C715324034B22
:1028F0005D881B1D03EB05135C7107E03848002061
:10290000922C0020902700200000B4434424FD4B6B
:102910005D881B1D03EB05139C710024F94B5D883A
:102920001B1D03EB0513DC71F64B5D881B1D03EBD0
:1029300005131C722CE09DF81430022B28D10824BA
:10294000F04B5D881B1D03EB05131C715324ED4BED
:102950005D881B1D03EB05135C714424E94B5D8806
:102960001B1D03EB05139C710024E64B5D881B1DAA
:1029700003EB0513DC71E34B5D881B1D03EB0513B3
:102980001C72E04B5C881B1D03EB0413C3F8092089
:10299000DC4B5D881B1D03EB05135973D94B5B881A
:1029A0005B1C1E2493FBF4F504FB1533D54C6380AC
:1029B0000023009300BF83E70FB478B507AB009303
:1029C000009B02CB0093009B04CB0093CD4B5B8814
:1029D0005B1C1E2493FBF4F504FB1533C94C2488BF
:1029E000A34205D10123C84CE37178BC5DF814FB08
:1029F00000F54073C34C6588241D04EB0514236067
:102A00009DF81830012B22D10424BE4B5D881B1D7C
:102A100003EB05131C715324BA4B5D881B1D03EB9C
:102A200005135C715024B74B5D881B1D03EB051328
:102A30009C710024B34B5D881B1D03EB0513DC71F7
:102A40004024B04B5D881B1D03EB05131C729DF8E1
:102A50001830022B35D1441E04EBC404AB4D05EBFA
:102A6000C404B4F8404054433C2594FBF5F30825D6
:102A7000A44C6688241D04EB061425715325A14C33
:102A80006688241D04EB0614657150259D4C6688EC
:102A9000241D04EB0614A57100259A4C6688241D9C
:102AA00004EB0614E571974C6688241D04EB0614AC
:102AB0002572944C6588241D04EB0514C4F8093074
:102AC00000BF904B5D881B1D03EB051359738D4BA5
:102AD0005B885B1C1E2493FBF4F504FB1533894CC7
:102AE00063800023009300BF7FE710B5854A5288BA
:102AF000521C1E2392FBF3F403FB1422814B1B8810
:102B00009A4203D10122804BDA7110BD00F5407268
:102B10007C4B5C881B1D03EB04131A600423794A69
:102B20005488121D02EB041213715323754A548802
:102B3000121D02EB041253715423724A5488121D61
:102B400002EB0412937100236E4A5488121D02EBAB
:102B50000412D3716B4A5488121D02EB04121372D3
:102B6000684A5388121D02EB03125173654A52885A
:102B7000521C1E2392FBF3F403FB1422614B5A8078
:102B800000BFC2E70FB438B506AA0092009A02CA85
:102B90000092009A126800EE102A009A121D00920C
:102BA000584A5288521C1E2392FBF3F403FB142252
:102BB000544B1B889A4205D10122534BDA7138BC21
:102BC0005DF814FB00F540724E4B5C881B1D03EB57
:102BD00004131A609DF81420022A33D1F8EEC00ABB
:102BE0009FED4B1AC0EE811AFDEEE10A10EE902A1D
:102BF0000824444B5D881B1D03EB05131C715424F2
:102C0000404B5D881B1D03EB05135C7143243D4B5A
:102C10005D881B1D03EB05139C710024394B5D88F7
:102C20001B1D03EB0513DC71364B5D881B1D03EB8D
:102C300005131C72334B5C881B1D03EB0413C3F894
:102C4000092000BF2F4A5488121D02EB0412517351
:102C50002C4A5288521C1E2392FBF3F403FB1422CD
:102C6000284B5A800022009200BFA8E70FB438B565
:102C700006AB0093009B02CB0093009B04CB009318
:102C8000204B5B885B1C1E2493FBF4F504FB15337F
:102C90001C4C2488A34205D101231B4CE37138BC92
:102CA0005DF814FB00F54073164C6588241D04EB99
:102CB000051423609DF81430012B2BD10424114BF3
:102CC0005D881B1D03EB05131C7155240D4B5D889E
:102CD0001B1D03EB05135C714D240A4B5D881B1D06
:102CE00003EB05139C710024064B5D881B1D03EB51
:102CF0000513DC71034B5D881B1D03EB05131C7270
:102D000046E0000038480020922C00209027002048
:102D10000000C8429DF81430022B39D108244D4BD5
:102D20005D881B1D03EB05131C715524494B5D8801
:102D30001B1D03EB05135C714D24464B5D881B1D69
:102D400003EB05139C710024424B5D881B1D03EBB4
:102D50000513DC713F4B5D881B1D03EB05131C72D3
:102D60003C4B5D881B1D03EB05135A72394B5D8884
:102D70001B1D03EB05139C72364B5D881B1D03EB7B
:102D80000513DC72334B5D881B1D03EB05131C73AD
:102D9000304B5D881B1D03EB051359732D4B5B886E
:102DA0005B1C1E2493FBF4F504FB1533294C638054
:102DB0000023009300BF72E710B5264A5288521CC8
:102DC0001E2392FBF3F403FB1422224B1B889A422E
:102DD00003D10122204BDA7110BD00F540721D4B6A
:102DE0005C881B1D03EB04131A600423194A5488E2
:102DF000121D02EB041213715623164A5488121D39
:102E000002EB041253715823124A5488121D02EB2C
:102E10000412937100230F4A5488121D02EB04120E
:102E2000D3710C4A5488121D02EB04121372094A22
:102E30005388121D02EB03125173064A5288521C2A
:102E40001E2392FBF3F403FB1422024B5A8000BFB3
:102E5000C2E7000038480020922C002010B507205F
:102E6000FE4908704FF4FA60FD490881FD48FB49AE
:102E7000097880F838100020FA490870487002205C
:102E80008870B2EE040A084680ED010A4FF47A71A8
:102E900081600021C160B7EE000A80ED040AEF49AD
:102EA000097880F874100020EE4981F83C00002178
:102EB000EC4880F83D10022180F83E10B2EE040A82
:102EC00080ED100A4FF47A71416400218164B7EEFD
:102ED000000A80ED130AE149097880F8B01000205B
:102EE000E04981F878000021DE4880F8791002215D
:102EF00080F87A10B2EE040A80ED1F0A4FF47A715E
:102F0000C0F880100021C0F88410B7EE000A80EDF0
:102F1000220AD249097880F8EC100020D14981F8C2
:102F2000B4000021CF4880F8B510022180F8B61017
:102F3000B2EE040A80ED2E0A4FF47A71C0F8BC108C
:102F40000021C0F8C010B7EE000A80ED310A002061
:102F500012E0C54991ED000AC0EB0011C14A02EB35
:102F6000810181ED0D0AC0EB001102EB8101BC4C27
:102F70001CCC28311CC1401C0428EADB10BD30B534
:102F80002DED028B81B00446B0EE408A0D46002044
:102F90000090B6484088401C1E2190FBF1F201FBD6
:102FA0001200B2490988884206D10120B049C8718F
:102FB00001B0BDEC028B30BD9FEDAE0A28EE000AD9
:102FC000BDEEC00A10EE101AA84A5388121D02EB7B
:102FD0000312501D6A4603F021F844F07040A349E3
:102FE0004A88091D01EB021108600098C1B29F4890
:102FF0004288001D00EB021001719C484188001DB1
:1030000000EB0110457399484088401C1E2190FB3D
:10301000F1F201FB12009549488000BFC8E7F8B5FE
:1030200004460E4615460020009090484088401CFB
:103030001E2190FBF1F201FB12008C4909888842A5
:1030400003D101208A49C871F8BD88494A88091D01
:1030500001EB0211481D6A46314602F0DFFF44F0E1
:10306000704040F4407181484288001D00EB02101E
:1030700001600098C1B27D484288001D00EB02103B
:1030800001717A484188001D00EB011045737748B3
:103090004088401C1E2190FBF1F201FB1200734995
:1030A000488000BFD0E730B52DED028B81B00446DB
:1030B000B0EE408A0D46002000906C484088401CCD
:1030C0001E2190FBF1F201FB120068490988884239
:1030D00006D101206649C87101B0BDEC028B30BD3C
:1030E0009FED650A28EE000ABDEEC00A10EE101A28
:1030F0005E4A5388121D02EB0312501D6A4602F00D
:103100008DFF44F0704040F4807158484288001DA3
:1031100000EB021001600098C1B254484288001DC3
:1031200000EB0210017151484188001D00EB0110B5
:1031300045734E484088401C1E2190FBF1F201FB74
:1031400012004A49488000BFC6E730B52DED028B1A
:1031500081B00446B0EE408A0D46002000904348FE
:103160004088401C1E2190FBF1F201FB12003F49F8
:103170000988884206D101203D49C87101B0BDECE3
:10318000028B30BD9FED3C0A28EE000ABDEEC00A5E
:1031900010EE101A354A5388121D02EB0312501D0F
:1031A0006A4602F03BFF44F0704040F400712F4843
:1031B0004288001D00EB021001600098C1B22B484C
:1031C0004288001D00EB0210017128484188001D53
:1031D00000EB0110457325484088401C1E2190FBE0
:1031E000F1F201FB12002149488000BFC6E730B56B
:1031F0002DED028B81B00446B0EE408A0D460020D2
:1032000000901A484088401C1E2190FBF1F201FBFF
:10321000120016490988884206D101201449C87154
:1032200001B0BDEC028B30BD9FED130A28EE000A01
:10323000BDEEC00A10EE101A0C4A5388121D02EBA4
:103240000312501D6A4602F0E9FE44F0704040F45B
:10325000406106484288001D10E000003800002050
:10326000F8280020042900203C00002038480020D5
:10327000922C00200050C34700007A4400EB02105B
:1032800001600098C1B20C484288001D00EB02109A
:10329000017109484188001D00EB01104573064883
:1032A0004088401C1E2190FBF1F201FB12000249F4
:1032B000488000BFB4E700003848002010B508205F
:1032C00009F078FC044600206060204610BD012013
:1032D00040494871704710B5FFF7F9FFFDF750FE00
:1032E000FEF7EAFCFFF7BAFD002019E0002100EB31
:1032F0008002394B03EB4202517000EB800203EB7A
:10330000420291714FF47A7100EB800203EB4202AA
:103310005180002100EB800203EB42029180401CAF
:103320000328E3DBFFF7CAFF2C49486010BD0022E9
:103330000A7803780B700270704770B506460C4629
:10334000354600E06D6815B16868A042FAD14CB10D
:1033500060686860204609F005FC20480078401E3F
:103360001E49087070BD02460B46114605E00888EC
:10337000984201D10846704749680029F7D10020DA
:10338000F9E72DE9F041074688463C46414620468C
:10339000FFF7E9FF08B1BDE8F081002602E06468AC
:1033A000701CC6B20D480078B04201DD002CF6D189
:1033B0006CB1082009F0FEFB0546A5F800806068A6
:1033C0006860656005480078401C0449087000BFCB
:1033D000E1E70000922C0020F429002044000020A6
:1033E0001CB54048006840F010003E4908603D4868
:1033F0001438006840F480003A491439086001200C
:10340000022100230A46CDE900104FF4C06136487E
:1034100004F056F807220921334804F031F8072256
:103420000A21314804F02CF840F2D9202F490881B4
:103430004FF4037088810846008820F0200008803F
:10344000032325220121062003F08CFF4FF4807016
:10345000274B264A121D04210090264803F06EFED9
:1034600001221021234805F062F80323462200219F
:10347000072003F077FF1D48808A40F080001B4939
:1034800088820846808940F4005088811CBD70B550
:1034900004460D461848407A78B92A462146144811
:1034A00008F02EFC2946134804F0D5FF01211148ED
:1034B00004F0B0FF01201049487270BD10B50F49EB
:1034C0000C4805F051F801280AD10C49094805F0CB
:1034D0001AF80A49074805F071F8002006494872B1
:1034E00010BD0000443802400000024000100140BE
:1034F000122A0020B8640240922C0020008000288C
:1035000000BF00BF00BFBFF34F8F00BF00BF00BFB1
:10351000FE48006800F4E060FD490843001DFB49D7
:10352000086000BF00BF00BFBFF34F8F00BF00BFE8
:1035300000BF00BF00BFFDE71CB5F648006840F4BF
:103540000030F4490860F3481038006840F4001077
:10355000F049103908600120022100230A46CDE914
:1035600000100C21EC4803F0ABFF07220221EA48CF
:1035700003F086FF07220321E74803F081FF4FF4A1
:10358000B670E64908800C20091D0880E348083819
:10359000008820F02000E14908390880DF48001D3C
:1035A000008840F02000DD49091D08800323262201
:1035B0000121042003F0D6FE4FF48070D84BD74A87
:1035C000121F04210090D74803F0B8FD01221021FA
:1035D000D44804F0ACFF032311220121072003F09B
:1035E000C1FECE480C30008840F08000CB490C3141
:1035F0000880CA48001D008840F40050C749091DD2
:1036000008801CBD10B5C849C64804F0ADFF0128AC
:103610000AD1C549C34804F076FFC349C14804F044
:10362000CDFF0020C149887210BD10B52DED028B71
:10363000002440F22531B948083805F09CFD58B106
:10364000B648083805F0D5FC0020B949087020219B
:10365000B84808F06EFBEEE340F22551AF48083859
:1036600005F089FD0028F6D02021AC48083805F087
:1036700079FD40F22551A948083805F0B3FDA74867
:10368000083805F0B6FCC4B2A948007800F0400044
:1036900008B3A748007800F0800020BBFF2C06D1BB
:1036A000A348007840F08000A14908701BE0A048C2
:1036B000007800F03F019F4844549D480078401C2A
:1036C0009B4908700846007800F03F0028280ADD72
:1036D0000020087007E0EE2C05D19548007840F0F6
:1036E0004000934908709248007800F0800000285C
:1036F000B1D0914890F82102012804D18E4890F869
:1037000023028E4908708C4890F8230208287CD246
:10371000DFE810F008001500E1007B0000029203D2
:103720007B002505844890F82502082804D1012053
:1037300002F02BF9FFF7E4FE00BF00BF7AE37E48FA
:1037400090F82502801E0C2877D2DFE800F00619D9
:103750002AC1395F778890A6AFB800231A460221A4
:103760000120FEF7DFFD00231A4602210846FEF77E
:10377000D9FD00231A4602210320FEF7D3FDA8E05D
:103780006D4890F8280208B1012100E000216C4842
:103790000078401E00EB80006A4A02EB4000817115
:1037A00097E06448C01D08F067FFB0EE408AF0EE75
:1037B000608A51EC180B08F0F6FA6149087088E04D
:1037C0005C48C01D08F058FFB0EE408AF0EE608AF9
:1037D00051EC180B08F0C8FA59490978491E01EB59
:1037E000C101594A02EBC101886055480078401E6A
:1037F00000EBC000114601EBC000836800220221EB
:103800004F480078FFF7D8F863E0F9E34948C01D56
:1038100008F032FFB0EE408AF0EE608A51EC180BEF
:1038200008F0A2FA01B246480078401E00EBC00042
:10383000454A02EBC00081804BE049E03E4890F8E9
:10384000280208B1012100E000213D480078401E17
:1038500000EB80003B4A02EB4000C17139E00023DD
:103860001A46022136480078FEF785FF31E03448D9
:103870000078401E00EBC000334901EBC000B0F9F6
:103880000430002202212E480078FEF72DFE002190
:103890002B480078FEF76EFB1BE0274890F8283293
:1038A000002202210120FEF73DFD12E0224890F89F
:1038B0002832002202210846FEF734FD09E01E48A6
:1038C00090F82832002202210320FEF72BFD00E0B1
:1038D00000BF00BF32E7184890F825020F2878D2C1
:1038E000DFE800F07708435C6C788BA6BA7777CD79
:1038F000ECF1FD000F48C01D08F0BEFEB0EE408A9E
:10390000F0EE608A51EC180B20E000000CED00E0B6
:103910000000FA0540380240000002400844004020
:10392000322B0020A060024000802020922C00203A
:103930004D000020322C0020122A00204C000020D4
:1039400040000020F42900209027002008F00CFA05
:10395000FE490978491E01EBC101FD4A02EBC10194
:103960008860012002F0A3FDD2E0FA4808F084FE4E
:10397000B0EE408AF0EE608A51EC180B08F0F4F9D2
:1039800001B2F2480078401E00EBC000F04A02EBA2
:10399000C0008180012002F08AFDB9E000231A46B0
:1039A00002210120FEF7E7FE00231A460221084605
:1039B000FEF7E1FE012002F07AFDA9E001230022DA
:1039C0000221E2480078FEF7ADFC012002F06FFD15
:1039D0009EE09CE0012002F06AFD0021DB480078B7
:1039E000FEF7C8FA0021D9480078401E00EBC0005D
:1039F000D74A02EBC00001758AE0012002F057FDB2
:103A0000D548807960B100231A4602210120FEF7D3
:103A100089FC00231A4602210846FEF783FC06E0D3
:103A200000231A460221C9480078FEF77BFC6FE0AC
:103A3000C6480078401E00EBC000C54901EBC0003D
:103A4000B0F9043000220221C0480078FEF74CFD96
:103A5000012002F02CFD5BE0BC480078401E00EB2A
:103A6000C000BB4901EBC000836800220221B748B7
:103A70000078FEF7A1FF012002F019FD48E00121C6
:103A8000B2480078401E00EB8000B34A02EB4000D1
:103A9000C1710021AD480078401E00EB800002EBB0
:103AA00040004170A9480078401E00EB800002EB06
:103AB00040000172012002F0FAFC29E0012001F02F
:103AC00064FFFFF71DFDA54890F82802401C9F49A0
:103AD00008700846007802F0EAFC19E0FFE79F480A
:103AE00090F8280248B101209B49887101219A4829
:103AF0000174022002F0DBFC08E000209649887186
:103B0000002195480174012002F0D1FC00E000BFC3
:103B100000BFCBE3914890F82502C01E1A2879D245
:103B2000DFE800F00D1B2939495968798999A8B84F
:103B3000C878D8F3F1F0EFEEEDECEBEAE9E800201D
:103B400008E0002100EBC00202EB0012844B03F8F6
:103B50003210401C0828F4DB6BE17E4808F08CFD35
:103B6000B0EE408AF0EE608A51EC180B08F01BF9B9
:103B70007B4988705DE1774808F07EFDB0EE408AB1
:103B8000F0EE608A51EC180B08F00DF9C1B27448E0
:103B900080F8CA104DE16F4808F06EFDB0EE408A23
:103BA000F0EE608A51EC180B08F0FDF8C1B26C48D9
:103BB00080F892113DE1674808F05EFDB0EE408A62
:103BC000F0EE608A51EC180B08F0EDF8C1B26448D1
:103BD00080F85A122DE15F4808F04EFDB0EE408AA1
:103BE000F0EE608A51EC180B08F0BEF801B25C48A8
:103BF00001811EE1574808F03FFDB0EE408AF0EE2B
:103C0000608A51EC180B08F0AFF801B25448A0F8E4
:103C1000D0100EE10CE14F4808F02EFDB0EE408AC6
:103C2000F0EE608A51EC180B08F09EF801B24C4897
:103C3000A0F89811FDE0474808F01EFDB0EE408A5C
:103C4000F0EE608A51EC180B08F08EF801B244488F
:103C5000A0F86012EDE03F4808F00EFDB0EE408A9B
:103C6000F0EE608A51EC180B08F07EF800B23C4987
:103C70008880DEE0374808F0FFFCB0EE408AF0EEC6
:103C8000608A51EC180B08F06FF801B23448A0F8C4
:103C9000CC10CEE02F4808F0EFFCB0EE408AF0EEFA
:103CA000608A51EC180B08F05FF801B22C48A0F8BC
:103CB0009411BEE0274808F0DFFCB0EE408AF0EE39
:103CC000608A51EC180B08F04FF801B22448A0F8B4
:103CD0005C12AEE01F4808F0CFFCB0EE408AF0EE78
:103CE000608A51EC180B08F05EF881B21C48A0F80D
:103CF00096109EE091E085E079E06EE062E056E0AB
:103D00004AE03FE02EE010E0FFE7124808F0B4FC84
:103D1000B0EE408AF0EE608A51EC180B08F043F8E0
:103D200081B20F48A0F85E1183E00A4808F0A4FCB5
:103D3000B0EE408AF0EE608A51EC180B08F033F8D0
:103D400081B20748A0F8261273E00000400000206E
:103D500090270020392C0020F4290020122A00206E
:103D600028210020F94808F087FCB0EE408AF0EEE8
:103D7000608A51EC180B08F016F881B2F448A0F8EC
:103D8000EE1256E0F34890F8280208B1012000E056
:103D90000020EF4908704CE0EE4890F8280208B186
:103DA000012000E00020EA4981F8C80041E0E9482C
:103DB00090F8280208B1012000E00020E44981F8D1
:103DC000900136E0E34890F8280208B1012000E0B5
:103DD0000020DF4981F858022BE0DE4890F82802E5
:103DE00008B1012000E00020D949487021E0D948FD
:103DF00090F8280208B1012100E00021D44880F8A1
:103E0000C91016E0D34890F8280208B1012100E05B
:103E10000021CF4880F891110BE0CE4890F828029D
:103E200008B1012100E00021C94880F8591200E0E2
:103E300000BF00BF3AE241E2C64890F82502C01E2A
:103E40001A287CD2DFE800F00D1B2B3B4B5B6B7C10
:103E50008C9CACBCCC7BE9F9E6E5E4E3E2E1E0DF95
:103E6000DEDD002008E0002100EBC00202EB0012C2
:103E7000B74B03F83210401C0828F4DB6DE1B3485F
:103E800008F0FAFBB0EE408AF0EE608A51EC180BB5
:103E900007F089FFC1B2AE4880F822135DE1AB485C
:103EA00008F0EAFBB0EE408AF0EE608A51EC180BA5
:103EB00007F079FFC1B2A64880F8EA134DE1A348A4
:103EC00008F0DAFBB0EE408AF0EE608A51EC180B95
:103ED00007F069FFC1B29E4880F8B2143DE19B48EB
:103EE00008F0CAFBB0EE408AF0EE608A51EC180B85
:103EF00007F059FFC1B2964880F87A152DE1934832
:103F000008F0BAFBB0EE408AF0EE608A51EC180B74
:103F100007F02AFF01B28E48A0F828131DE18B4854
:103F200008F0AAFBB0EE408AF0EE608A51EC180B64
:103F300007F01AFF01B28648A0F8F0130DE10BE17B
:103F4000824808F099FBB0EE408AF0EE608A51ECAE
:103F5000180B07F009FF01B27D48A0F8B814FCE087
:103F60007A4808F089FBB0EE408AF0EE608A51ECA6
:103F7000180B07F0F9FE01B27548A0F88015ECE0C7
:103F8000724808F079FBB0EE408AF0EE608A51EC9E
:103F9000180B07F0E9FE01B26D48A0F82413DCE02D
:103FA0006A4808F069FBB0EE408AF0EE608A51EC96
:103FB000180B07F0D9FE01B26548A0F8EC13CCE06D
:103FC000624808F059FBB0EE408AF0EE608A51EC8E
:103FD000180B07F0C9FE01B25D48A0F8B414BCE0AC
:103FE0005A4808F049FBB0EE408AF0EE608A51EC86
:103FF000180B07F0B9FE01B25548A0F87C15ACE0EB
:1040000053E197E08BE07FE073E067E05BE04FE037
:1040100043E032E021E010E0FFE74C4808F02CFBE1
:10402000B0EE408AF0EE608A51EC180B07F0BBFE50
:1040300081B24748A0F8B6138FE0444808F01CFB53
:10404000B0EE408AF0EE608A51EC180B07F0ABFE40
:1040500081B23F48A0F87E147FE03C4808F00CFB9A
:10406000B0EE408AF0EE608A51EC180B07F09BFE30
:1040700081B23748A0F846156FE0344808F0FCFAE2
:10408000B0EE408AF0EE608A51EC180B07F08BFE20
:1040900081B22F48A0F80E165FE02E4890F8280253
:1040A00008B1012000E00020294981F8200354E0F4
:1040B000284890F8280208B1012000E00020244997
:1040C00081F8E80349E0234890F8280208B101206C
:1040D00000E000201E4981F8B0043EE01D4890F841
:1040E000280208B1012000E00020194981F8780574
:1040F00033E0184890F8280208B1012100E00021BF
:10410000134880F8211328E0124890F8280208B1DB
:10411000012100E000210E4880F8E9131DE00D4860
:1041200090F8280208B1012100E00021084880F839
:10413000B11412E0074890F8280208B1012100E00C
:104140000021034880F8791507E00000392C002091
:1041500028210020122A002000BF00BFA6E0FE4850
:1041600090F82502801E082873D2DFE800F00415BD
:104170002A3F5061738A0021012002F0A2FF002132
:10418000022002F09EFF0021032002F09AFF00218E
:10419000042002F096FF86E000220321012002F0B5
:1041A00053FA00220321022002F04EFA00220321DA
:1041B000084602F049FA00220321042002F044FAE2
:1041C00071E000220121084602F03EFA002201219E
:1041D000022002F039FA00220121032002F034FA11
:1041E00000220121042002F02FFA5CE000210120CE
:1041F00002F05BFD0021022002F057FD00210320A8
:1042000002F053FD0021042002F04FFD4BE000219D
:10421000012002F0E6FA0021022002F0E2FA002179
:10422000032002F0DEFA0021042002F0DAFA3AE07C
:104230000021012002F0A8FB0021022002F0A4FBD3
:104240000021032002F0A0FB0021042002F09CFBCF
:1042500029E027E000222821012002F000FC0022B2
:104260006FF02701022002F0FAFB00226FF0270115
:10427000032002F0F4FB00222821042002F0EFFBCF
:1042800011E00021012002F044FA0021022002F096
:1042900040FA0021032002F03CFA0021042002F041
:1042A00038FA00E000BF00BF00E000BF00BF002000
:1042B000AA4908702021AA4807F03BFDBDEC028BFB
:1042C00010BD10B50446A748807A50B92146A648CB
:1042D00004F0C1F80121A44804F09CF80120A14990
:1042E000887210BD10B50024EE222146641C9F4840
:1042F0004254B1222146641C425410222146641CBF
:10430000425400222146641C42542146641C4254FB
:104310002146641C425405222146641C4254012259
:104320002046611CCCB291490A54FF222046611CF0
:10433000CCB28E490A54FC222046611CCCB28B4977
:104340000A54FF222046611CCCB288490A542046F8
:10435000611CCCB285490A5485480078062881F052
:104360000E83DFE810F00C0B06009A01650266026E
:10437000B506EE222046611CCCB27C490A54B1221B
:104380002046611CCCB279490A5412222046611C95
:10439000CCB276490A5400222046611CCCB2734943
:1043A0000A5401222046611CCCB270490A540022F2
:1043B0002046611CCCB26D490A5403222046611C80
:1043C000CCB26A490A5400222046611CCCB267492B
:1043D0000A5401222046611CCCB264490A54654843
:1043E0000078401E00EB8000634901EB40008279B9
:1043F0002046611CCCB25D490A5400222046611C53
:10440000CCB25A490A5404222046611CCCB2574906
:104410000A5400222046611CCCB254490A54554823
:10442000027856A1564808F011F9554807F08CFC5F
:10443000C2B22046611CCCB24C490A5408195049FA
:1044400007F089FC4E4807F07FFC2044C4B20022EC
:104450002046611CCCB245490A5405222046611C05
:10446000CCB242490A5400222046611CCCB23F49DA
:104470000A5440480078401E00EBC000414901EB5F
:10448000C000B0F90C203DA13D4808F0DFF83C48E1
:1044900007F05AFCC2B22046611CCCB233490A5420
:1044A0000819374907F057FC354807F04DFC204400
:1044B000C4B200222046611CCCB22C490A54062208
:1044C0002046611CCCB229490A5400222046611CB6
:1044D000CCB226490A5427480078401E00EBC000A1
:1044E000284901EBC000826824A1254808F0AEF8F5
:1044F000234807F029FCC2B22046611CCCB21B49FC
:104500000A5408191E4907F026FC1D4807F01CFC38
:104510002044C4B200222046611CCCB213490A5484
:1045200007222046611CCCB210490A5400222046C2
:10453000611CCCB20D490A540E480078401E00EBB5
:10454000C000104901EBC000B0F904200BA10C48D9
:1045500008F07CF80A4817E0122A00204D000020DD
:10456000322C0020922C0020A0600240322B002030
:104570004C00002040000020F429002025640000A9
:104580009D2C00209027002007F0DEFBC2B22046C1
:10459000611CCCB2FE490A540819FE4907F0DBFB46
:1045A000FC4807F0D1FB2044C4B200222046611C25
:1045B000CCB2F7490A540B222046611CCCB2F44914
:1045C0000A5400222046611CCCB2F1490A5401224F
:1045D0002046611CCCB2EE490A54EF48427820468E
:1045E000611CCCB2EA490A5400222046611CCCB2BC
:1045F000E7490A540C222046611CCCB2E4490A5413
:1046000000222046611CCCB2E1490A540122204616
:10461000611CCCB2DE490A54DF4890F8492020469C
:10462000611CCCB2DA490A5400222046611CCCB28B
:10463000D7490A540D222046611CCCB2D4490A54F1
:1046400000222046611CCCB2D1490A5401222046E6
:10465000611CCCB2CE490A54CF4890F89120204634
:10466000611CCCB2CA490A54FF222046611CCCB25C
:10467000C7490A54FC222046611CCCB2C4490A54E2
:10468000FF222046611CCCB2C1490A542046611C5D
:10469000CCB2BF490A5401F073B9EE222046611C26
:1046A000CCB2BB490A54B1222046611CCCB2B849F5
:1046B0000A5412222046611CCCB2B5490A54002289
:1046C0002046611CCCB2B2490A5402222046611C29
:1046D000CCB2AF490A5400222046611CCCB2AC498E
:1046E0000A5401222046611CCCB2A9490A54002276
:1046F0002046611CCCB2A6490A54A8480078401E46
:1047000000EBC000A44901EBC0008268A4A1A1484D
:1047100007F09CFF9F4807F017FBC2B22046611CC0
:10472000CCB29B490A5408199A4907F014FB9948DE
:1047300007F00AFB2044C4B200222046611CCCB220
:1047400093490A5402222046611CCCB290490A5473
:1047500000222046611CCCB28D490A548F48007853
:10476000401E00EBC0008C4901EBC000B0F90420F2
:104770008BA1884807F06AFF864807F0E5FAC2B2C5
:104780002046611CCCB282490A540819814907F0BD
:10479000E2FA804807F0D8FA2044C4B2002220464A
:1047A000611CCCB27A490A540A222046611CCCB260
:1047B00077490A5400222046611CCCB274490A543D
:1047C00076480078401E00EBC000734901EBC00042
:1047D000B0F90C2072A16F4807F038FF6D4807F060
:1047E000B3FAC2B22046611CCCB269490A54081916
:1047F000684907F0B0FA674807F0A6FA2044C4B247
:10480000FF222046611CCCB261490A54FC2220469A
:10481000611CCCB25E490A54FF222046611CCCB216
:104820005B490A542046611CCCB259490A5432E70C
:1048300031E7EE222046611CCCB255490A54B12220
:104840002046611CCCB252490A5412222046611CF7
:10485000CCB24F490A5400222046611CCCB24C49CC
:104860000A5404222046611CCCB249490A544D48DE
:10487000807800287ED000222046611CCCB24449BA
:104880000A5404222046611CCCB241490A54002239
:104890002046611CCCB23E490A5442488278AFF2AD
:1048A00024313C4807F0D2FE3A4807F04DFAC2B234
:1048B0002046611CCCB236490A540819354907F024
:1048C0004AFA344807F040FA2044C4B20022204695
:1048D000611CCCB22E490A5408222046611CCCB27D
:1048E0002B490A5400222046611CCCB228490A54A4
:1048F0002C48B0F91820AFF27C31264807F0A6FE0C
:10490000244807F021FAC2B22046611CCCB22049EB
:104910000A5408191F4907F01EFA1E4807F014FA36
:104920002044C4B200222046611CCCB218490A546B
:104930000C222046611CCCB215490A5400222046A4
:10494000611CCCB212490A541648B0F91420AFF2D7
:10495000D431104807F07AFE0E4807F0F5F9C2B2DC
:104960002046611CCCB20A490A540819094907F0CB
:10497000F2F900E07BE0074807F0E6F92044C4B212
:1049800000222046611CCCB201490A5411220BE0DE
:10499000322B00209D2C002090270020400000207A
:1049A00025356400282100202046611CCCB2FE4938
:1049B0000A5400222046611CCCB2FB490A54FB4831
:1049C000B0F89620AFF24C41F94807F03FFEF848A6
:1049D00007F0BAF9C2B22046611CCCB2F2490A54BF
:1049E0000819F34907F0B7F9F14807F0ADF9204489
:1049F000C4B200222046611CCCB2EB490A541522F5
:104A00002046611CCCB2E8490A5400222046611CB1
:104A1000CCB2E5490A5401222046611CCCB2E249DD
:104A20000A54E24802782046611CCCB2DE490A549E
:104A300000222046611CCCB2DB490A5419222046D0
:104A4000611CCCB2D8490A5400222046611CCCB269
:104A5000D5490A5401222046611CCCB2D2490A54DD
:104A6000D24842782046611CCCB2CF490A54CF4884
:104A700090F8CA0000287DD000222046611CCCB2EC
:104A8000C9490A5405222046611CCCB2C6490A54C1
:104A900000222046611CCCB2C3490A54C34890F896
:104AA000CA20AFF22851C24807F0D0FDC04807F035
:104AB0004BF9C2B22046611CCCB2BB490A5408195A
:104AC000BB4907F048F9BA4807F03EF92044C4B2A0
:104AD00000222046611CCCB2B3490A540922204668
:104AE000611CCCB2B0490A5400222046611CCCB2F1
:104AF000AD490A54AD48B0F9E020AFF28051AC485E
:104B000007F0A4FDAA4807F01FF9C2B22046611CB5
:104B1000CCB2A5490A540819A54907F01CF9A448C4
:104B200007F012F92044C4B200222046611CCCB226
:104B30009D490A540D222146601CC4B29A48425431
:104B400000222046611CCCB297490A549748B0F91C
:104B5000DC20AFF2D851964807F078FD944807F072
:104B6000F3F8C2B22046611CCCB28F490A5408192E
:104B70008F4900E072E007F0EEF88D4807F0E4F8A6
:104B80002044C4B200222046611CCCB286490A549B
:104B900012222046611CCCB283490A5400222046CE
:104BA000611CCCB280490A548048B0F85E21AFF253
:104BB00034617F4807F04AFD7D4807F0C5F8C2B26E
:104BC0002046611CCCB278490A540819784907F08C
:104BD000C2F8774807F0B8F82044C4B20022204653
:104BE000611CCCB270490A5416222046611CCCB21A
:104BF0006D490A5400222046611CCCB26A490A540D
:104C000001222046611CCCB267490A54674890F8DB
:104C1000C8202046611CCCB263490A5400222046B9
:104C2000611CCCB260490A541A222046611CCCB2E5
:104C30005D490A5400222146601CC4B25A484254BD
:104C400001222046611CCCB257490A54574890F8BB
:104C5000C9202046611CCCB253490A54534890F8ED
:104C6000920100287DD000222046611CCCB24E4922
:104C70000A5406222046611CCCB24B490A54002239
:104C80002046611CCCB248490A54484890F8922109
:104C9000AFF21871464807F0D9FC454807F054F8C0
:104CA000C2B22046611CCCB23F490A54081940499F
:104CB00007F051F83E4807F047F82044C4B20022FC
:104CC0002046611CCCB238490A540A222046611C95
:104CD000CCB235490A5400222046611CCCB232497C
:104CE0000A543248B0F9A821AFF27071304807F089
:104CF000ADFC2F4807F028F8C2B22046611CCCB2A8
:104D000029490A5408192A4907F025F8284807F0C4
:104D10001BF82044C4B200222146601CC4B22248C1
:104D200042540E222046611CCCB21F490A54002274
:104D30002046611CCCB21C490A541C48B0F9A4217D
:104D4000AFF2C8711A4807F081FC194806F0FCFF61
:104D5000C2B22046611CCCB213490A540819144946
:104D600000E079E006F0F7FF114806F0EDFF20447F
:104D7000C4B200222046611CCCB20B490A54132253
:104D80002046611CCCB208490A5400222046611C0E
:104D9000CCB205490A540548B0F82622AFF62401E2
:104DA000034807F053FC05E0322B002028210020A7
:104DB0009D2C0020FE4806F0C7FFC2B22046611CB1
:104DC000CCB2FC490A540819F94906F0C4FFF84866
:104DD00006F0BAFF2044C4B200222046611CCCB2C7
:104DE000F4490A5417222046611CCCB2F1490A54F6
:104DF00000222046611CCCB2EE490A540122204612
:104E0000611CCCB2EB490A54EB4890F89021204643
:104E1000611CCCB2E7490A5400222046611CCCB286
:104E2000E4490A541B222046611CCCB2E1490A54D1
:104E300000222046611CCCB2DE490A5401222046E1
:104E4000611CCCB2DB490A54DB4890F89121204622
:104E5000611CCCB2D7490A54D74890F85A020028AE
:104E60007ED000222046611CCCB2D2490A540722CF
:104E70002046611CCCB2CF490A5400222046611C56
:104E8000CCB2CC490A54CC4890F85A22AFF614114F
:104E9000C74807F0DBFBC64806F056FFC2B2204603
:104EA000611CCCB2C3490A540819C14906F053FF2A
:104EB000BF4806F049FF2044C4B200222046611CCE
:104EC000CCB2BC490A540B222046611CCCB2B94971
:104ED0000A5400222046611CCCB2B6490A54B64896
:104EE000B0F97022AFF66C11B14807F0AFFBB048D3
:104EF00006F02AFFC2B22046611CCCB2AD490A546A
:104F00000819AB4906F027FFA94806F01DFF204409
:104F1000C4B200222046611CCCB2A6490A540F221A
:104F20002046611CCCB2A3490A5400222046611CD1
:104F3000CCB2A0490A54A048B0F96C22AFF6C41113
:104F40009B4807F083FB9A4806F0FEFEC2B221465A
:104F5000601CC4B29748425401460819944900E0C5
:104F600072E006F0F8FE924806F0EEFE2044C4B26D
:104F700000222046611CCCB28E490A5414222146DC
:104F8000601CC4B28B48425400222046611CCCB243
:104F900088490A548848B0F8EE22AFF620218448A8
:104FA00007F054FB824806F0CFFEC2B22046611CD7
:104FB000CCB280490A5408197D4906F0CCFE7C48E1
:104FC00006F0C2FE2044C4B200222046611CCCB2CE
:104FD00078490A5418222046611CCCB275490A54FB
:104FE00000222046611CCCB272490A54012220469C
:104FF000611CCCB26F490A546F4890F85822204681
:10500000611CCCB26B490A5400222046611CCCB210
:1050100068490A541C222046611CCCB265490A54D6
:1050200000222046611CCCB262490A54012220466B
:10503000611CCCB25F490A545F4890F8592220465F
:10504000611CCCB25B490A5400222046611CCCB2E0
:1050500058490A5410222046611CCCB255490A54C2
:1050600000222046611CCCB252490A545348406881
:105070004068028852A14E4807F0E8FA4C4806F012
:1050800063FEC2B22046611CCCB24A490A540819D8
:10509000474906F060FE464806F056FE2044C4B27A
:1050A000FF222046611CCCB242490A54FC22204611
:1050B000611CCCB23F490A54FF222046611CCCB28D
:1050C0003C490A542046611CCCB23A490A54FDE3DB
:1050D000EE222046611CCCB236490A54B122204649
:1050E000611CCCB233490A5412222046611CCCB256
:1050F00030490A5400222046611CCCB22D490A5482
:1051000005222046611CCCB22A490A542A4890F84C
:10511000220300287ED000222046611CCCB2254903
:105120000A5404222046611CCCB222490A540022AF
:105130002046611CCCB21F490A541F4890F8222314
:10514000AFF6C8311A4807F081FA194806F0FCFD9D
:10515000C2B22046611CCCB216490A54081914493F
:1051600006F0F9FD124806F0EFFD2044C4B200221B
:105170002046611CCCB20F490A5408222046611C0B
:10518000CCB20C490A5400222046611CCCB2094919
:105190000A540948B0F93823AFF62041044807F013
:1051A00055FA034806F0D0FDC2B22046611C09E062
:1051B0009D2C0020322B00202821002044000020BC
:1051C00025780000CCB2FE490A540819FD4906F0C2
:1051D000C2FDFC4806F0B8FD2044C4B200222046BF
:1051E000611CCCB2F6490A540C222046611CCCB298
:1051F000F3490A5400222046611CCCB2F0490A54FB
:10520000F148B0F93423AFF68C41EE4807F01EFAAE
:10521000EC4800E07CE006F097FDC2B22046611C3D
:10522000CCB2E7490A540819E64906F094FDE5486E
:1052300006F08AFD2044C4B200222046611CCCB294
:10524000DF490A5411222046611CCCB2DC490A54C1
:1052500000222046611CCCB2D9490A54DA48B0F881
:10526000B623AFF6E841D74807F0F0F9D54806F085
:105270006BFDC2B22046611CCCB2D1490A54081958
:10528000D04906F068FDCF4806F05EFD2044C4B268
:1052900000222046611CCCB2C9490A54152220467E
:1052A000611CCCB2C6490A5400222046611CCCB213
:1052B000C3490A5401222046611CCCB2C0490A5499
:1052C000C14890F820232046611CCCB2BC490A5446
:1052D00000222046611CCCB2B9490A54192220464A
:1052E000611CCCB2B6490A5400222046611CCCB2E3
:1052F000B3490A5401222046611CCCB2B0490A5479
:10530000B14890F821232046611CCCB2AC490A5424
:10531000AD4890F8EA0300287ED000222046611CA8
:10532000CCB2A7490A5405222046611CCCB2A4493C
:105330000A5400222046611CCCB2A1490A54A2485A
:1053400090F8EA23AFF6CC519E4807F07FF99D48CC
:1053500006F0FAFCC2B22046611CCCB298490A544D
:105360000819984906F0F7FC964806F0EDFC204431
:10537000C4B200222046611CCCB291490A540922D1
:105380002046611CCCB28E490A5400222046611C82
:10539000CCB28B490A548C48B0F90024AFF6246192
:1053A000884807F053F9874806F0CEFCC2B2214680
:1053B000601CC4B28248425401460819814906F073
:1053C000CAFC804806F0C0FC2044C4B2002220463B
:1053D000611CCCB27A490A540D222046611CCCB221
:1053E00077490A5400222046611CCCB274490A5401
:1053F0007548B0F9FC23AFF67C61724807F026F9D6
:10540000704806F0A1FCC2B22046611CCCB26C49C7
:105410000A5408196B4900E072E006F09CFC6948E8
:1054200006F092FC2044C4B200222046611CCCB29B
:1054300063490A5412222146601CC4B26048425497
:1054400000222046611CCCB25D490A545E48B0F887
:105450007E24AFF6D8615B4807F0F8F8594806F0AB
:1054600073FCC2B22046611CCCB255490A540819DB
:10547000544906F070FC534806F066FC2044C4B260
:1054800000222046611CCCB24D490A541622204607
:10549000611CCCB24A490A5400222046611CCCB29D
:1054A00047490A5401222046611CCCB244490A549F
:1054B000454890F8E8232046611CCCB240490A5484
:1054C00000222046611CCCB23D490A541A222046D3
:1054D000611CCCB23A490A5400222046611CCCB26D
:1054E00037490A5401222046611CCCB234490A547F
:1054F000354890F8E9232046611CCCB230490A5463
:10550000314890F8B20400287ED000222146601C69
:10551000C4B22B48425406222046611CCCB2284912
:105520000A5400222046611CCCB225490A54264860
:1055300090F8B224AFF6BC71224807F087F82148F2
:1055400006F002FCC2B22046611CCCB21C490A54CF
:1055500008191C4906F0FFFB1A4806F0F5FB204429
:10556000C4B200222046611CCCB215490A540A225A
:105570002146601CC4B21248425400222046611CDD
:10558000CCB20F490A541048B0F9C8240FA10D48F5
:1055900007F05CF80B4806F0D7FBC2B22046611C4E
:1055A000CCB207490A540819064906F0D4FB05484D
:1055B00006F0CAFB2044C4B200222046611C07E06A
:1055C000322B00209D2C0020282100202564000083
:1055D000CCB2F0490A540E222046611CCCB2ED49EF
:1055E0000A5400222046611CCCB2EA490A54EA4817
:1055F000B0F9C424AFF22C01E84807F027F8E748D7
:1056000006F0A2FBC2B200E079E02046611CCCB2F9
:10561000E0490A540819E14906F09DFBDF4806F00D
:1056200093FB2044C4B200222046611CCCB2D9496D
:105630000A5413222046611CCCB2D6490A540022D7
:105640002046611CCCB2D3490A54D348B0F8462551
:10565000AFF28801D14806F0F9FFD04806F074FB9C
:10566000C2B22046611CCCB2CA490A540819CB49BF
:1056700006F071FBC94806F067FB2044C4B2002263
:105680002046611CCCB2C3490A5417222046611C33
:10569000CCB2C0490A5400222046611CCCB2BD499C
:1056A0000A5401222046611CCCB2BA490A54BA48B5
:1056B00090F8B0242046611CCCB2B6490A540022AE
:1056C0002046611CCCB2B3490A541B222146601CFF
:1056D000C4B2B048425400222046611CCCB2AD494D
:1056E0000A5401222046611CCCB2AA490A54AA4895
:1056F00090F8B1242046611CCCB2A6490A54A648B1
:1057000090F87A0500287DD000222046611CCCB29A
:10571000A0490A5407222046611CCCB29D490A5474
:1057200000222046611CCCB29A490A549A4890F84B
:105730007A25AFF26811994806F088FF974806F07D
:1057400003FBC2B22146601CC4B2924842540146D7
:105750000819924906F0FFFA904806F0F5FA20443D
:10576000C4B200222046611CCCB28A490A540B22E2
:105770002046611CCCB287490A5400222046611C95
:10578000CCB284490A548448B0F99025AFF2C411D0
:10579000824806F05BFF814806F0D6FAC2B2204686
:1057A000611CCCB27B490A5408197C4906F0D3FA33
:1057B0007A4806F0C9FA2044C4B200222046611C8F
:1057C000CCB274490A540F222046611CCCB27149F4
:1057D0000A5400222046611CCCB26E490A546E481D
:1057E000B0F98C25AFF21C216C4806F02FFF6B48F6
:1057F00006F0AAFAC2B22046611CCCB265490A542E
:10580000081900E075E0654906F0A5FA634806F05E
:105810009BFA2044C4B200222046611CCCB25D49F0
:105820000A5414222146601CC4B25A484254002231
:105830002046611CCCB257490A545748B0F80E268E
:10584000AFF27821554806F001FF544806F07CFA83
:10585000C2B22046611CCCB24E490A5408194F49C5
:1058600006F079FA4D4806F06FFA2044C4B20022DF
:105870002046611CCCB247490A5418222046611CBC
:10588000CCB244490A5400222046611CCCB24149A2
:105890000A5401222046611CCCB23E490A543E48BB
:1058A00090F878252046611CCCB23A490A5400226F
:1058B0002046611CCCB237490A541C222046611C88
:1058C000CCB234490A540022204600E058E0611C62
:1058D000CCB230490A5401222046611CCCB22D4979
:1058E0000A542D4890F879252146601CC4B22948F5
:1058F000425400222046611CCCB226490A54102290
:105900002146601CC4B22348425400222046611C38
:10591000CCB220490A542248406840680288AFF25D
:1059200060711E4806F092FE1C4806F00DFAC2B2E5
:105930002146601CC4B21748425401460819174951
:1059400006F009FA154806F0FFF92044C4B2FF2218
:105950002046611CCCB20F490A54FC222046611C2F
:10596000CCB20C490A54FF222146601CC4B209483B
:1059700042542046611CCCB206490A5400E000BFE4
:1059800000BF2046FEF79DFC10BD00F0010181F331
:1059900013887047322B0020282100209D2C0020E6
:1059A00044000020014608884A88904201D1012025
:1059B00070470020FCE701464888401C1E2290FBEF
:1059C000F2F302FB13000A88904201D101207047D4
:1059D0000020FCE70020564948800880554948804F
:1059E0000880704730B585B005460C460020524906
:1059F00008702046FFF7D6FF18B101204F49087202
:105A000093E02188201D00EB01100068B0F5006FC5
:105A100009D200208DF808002188201D00EB01101C
:105A2000006800901CE02188201D00EB0110006838
:105A300000F0704058B12188201D00EB0110006873
:105A400020F070412288201D00EB0210016004202C
:105A50008DF808002188201D00EB011000680190DE
:105A60003748854205D101223149364800F0B9F95D
:105A700004E002222F49344800F0B3F92188201DA8
:105A800000EB011000798DF80A0000208DF8090064
:105A90009DF80A202388201D00EB0310411D0DF105
:105AA0000B0006F02DF92088401C1E2190FBF1F21E
:105AB00001FB1200208017E01F480078401C1E499F
:105AC0000870084600780A280EDD1D48854205D179
:105AD0001E480068401C1D49086004E01C4800681E
