:020000040800F2
:10000000C86A0020156300081D6300081F6300080C
:100010002163000823630008256300080000000036
:10002000000000000000000000000000276300083E
:1000300029630008000000000B8900086F8B00088E
:100040002F6300082F6300082F6300082F63000848
:100050002F6300082F6300082F6300082F63000838
:100060002F6300082F6300082F6300082F63000828
:100070002F6300082F6300082F6300082F63000818
:100080002F630008211700082F6300082F63000862
:10009000210400082F6300082F6300082F63000865
:1000A0002F6300082F6300082F6300082F630008E8
:1000B0002F630008671400082F6300082F630008EF
:1000C0002F6300082F6300082F6300082F630008C8
:1000D0002F6300082F630008471700082F630008EC
:1000E0002F6300082F6300082F6300082F630008A8
:1000F0002F6300082F6300082F6300082F63000898
:100100002F6300082F6300082F6300082F63000887
:100110002F6300082F6300082F6300082F63000877
:100120002F6300082F6300082F6300082F63000867
:100130002F6300082F6300082F6300082F63000857
:1001400097090008A90B00082F6300082F63000817
:100150002F6300082F630008111600082F630008A2
:100160002F6300082F6300082F6300082F63000827
:100170002F6300082F6300082F6300082F63000817
:100180002F6300082F630008DFF80CD008F0E2FEB0
:1001900000480047F9120008C86A002030BF72B654
:1001A000704762B6704780F3088870471CB500201E
:1001B000009003460122110201900D4804F000F95D
:1001C0001CBD70B5044600250EE04FF48070084950
:1001D0000883642000F0CCFA4FF48070044948830F
:1001E000642000F0C5FA6D1CA542EEDB70BD000076
:1001F0000000024000B58BB00121480605F069FC03
:100200000121084605F032FC09220B21FE4805F0C9
:1002100072FA09220C21FC4805F06DFA02208DF8D3
:100220001C004FF4C050069006A9F74805F0D8F915
:1002300000208DF826008DF827008DF828008DF815
:1002400029008DF82A008DF82B008DF822008DF8FA
:10025000230008208DF8240003208DF82500ADF838
:10026000200008A9E94804F09AFA00208DF812004D
:1002700001208DF8130000208DF8140046F2A00034
:10028000ADF808004FF4C240ADF80A004FF4C84082
:10029000ADF80C000020ADF80E00ADF81000012004
:1002A0008DF8150002A804F004FB01208DF812005F
:1002B0008DF8130000208DF8140045F22000ADF8F1
:1002C000080045F24000ADF80A0045F26000ADF8C4
:1002D0000C004FF4A140ADF80E000020ADF8100066
:1002E00001208DF8150002A804F0E3FA14208DF81F
:1002F000040002208DF8050001208DF806008DF81D
:10030000070001A804F0C7F901220221BF4804F048
:10031000CFFD0BB000BD10B586B00446BC48807858
:1003200000F0010048B1BA48807800F0020020B91E
:10033000B748807800F00400B8B9207A28B90020C6
:100340008DF80C0020688038019000208DF80D0099
:10035000A07A8DF80E00A27A04F10B01084608F08D
:100360004FFC01A9A94804F093FB06B010BD10B5DD
:1003700086B00446A4F18000019000208DF80C00A6
:100380008DF80D0005208DF80E0042208DF80F002D
:1003900042218DF8101047218DF8111040F20530E0
:1003A00084421AD19B48B0F9140000EE100AB8EE4E
:1003B000C00AF3EE0E0A20EE200ADFED970A80EE67
:1003C000201ABDEEC10A10EE100A00B2934908804F
:1003D00008460188ADF812101CE0B4F5427F19D12F
:1003E0008C48B0F96C0200EE100AB8EEC00AF3EEC9
:1003F0000E0A20EE200ADFED880A80EE201ABDEEFC
:10040000C10A10EE100A00B28449C8800846C188AB
:10041000ADF8121001A97D4804F03AFB06B010BDFA
:1004200010B586B00221794804F0AAFD00287CD0DE
:100430000221764804F03FFE0221744804F07DFD5D
:1004400001AA0021714804F018FC0320704988704B
:100450009DF80C00002868D19DF80D000028FAD105
:1004600040F205310198884203D00198B0F5427FEF
:100470007ED10198401FC4B29DF80F0043280FD1D0
:100480009DF8100057280BD19DF81100482807D17E
:100490009DF81200552803D101A8FFF73CFFEBE0BF
:1004A0009DF80F0043282DD19DF81000482829D130
:1004B000BDF81100594921F81400084630F914001C
:1004C00000EE100AF8EEC00AB3EE0E1A80EE810AB2
:1004D000DFED510A20EE200ABDEEC00A10EE100A30
:1004E00000B204EBC40101EB04114A4A02EBC10162
:1004F0008880012004EBC40101EB041102EBC1016F
:100500004870B9E09DF80F0053281AD19DF81000EB
:10051000502816D1BDF81100414921F814000846B1
:1005200030F8141004EBC40000E019E100EB0410F3
:10053000384A02EBC000A0F8961001A8FFF7EBFEC6
:100540009AE09DF80F004D2841D19DF810004F28EA
:100550003DD19DF81100012839D1052004EBC401DB
:1005600001EB04112B4A02EBC1018870012000E06D
:1005700083E004EBC40101EB041102EBC1014870FC
:1005800004EBC40101EB041102EBC10181F88C0002
:100590009FED240A04EBC40000EB0410114601EBAC
:1005A000C00080ED240A012104EBC40000EB04101C
:1005B00002EBC00080F89410012004EBC40101EBB1
:1005C000041102F8310001A8FFF7A5FE54E09DF8E0
:1005D0000F004D282BD19DF810004F2827D19DF8F2
:1005E000110080B9002004EBC40101EB0411094A99
:1005F00002F8310004EBC40101EB041102EBC1016C
:10060000487001A810E012E00000024000640040C1
:1006100030000020C8250020C4C3C34000000020D3
:100620000800002000000744FFF775FE24E09DF855
:100630000F00532810D19DF8100054280CD1002031
:1006400004EBC40101EB0411464A02EBC1014870FE
:1006500001A8FFF760FE0FE09DF80F0042280BD1C4
:100660009DF81000422807D19DF81100472803D1BA
:10067000019988B2FFF77BFE00BF0198B0F5487F73
:1006800051D10120374948700121364880F8C910FE
:1006900080F8911180F85912BDF80F003249088096
:1006A000BDF811004880BDF813008880BDF8150022
:1006B000C8800846B0F9000000EE100AB8EEC00A83
:1006C000F3EE0E0A80EE201A1FED2D0A21EE000A2D
:1006D000BDEEC00A10EE100A00B222498880012047
:1006E0004870052088702048B0F9060000EE100A16
:1006F000B8EEC00AF3EE0E0A80EE201A1FED3A0A99
:1007000021EE000ABDEEC00A10EE100A01B2154833
:10071000A0F85C12012180F85912052180F85A12C4
:1007200001A8FFF7F8FD40F28121019888420BD023
:10073000491C0198884207D0491C0198884203D07F
:100740000198B0F5217F0BD10199A1F28121C8B2A6
:10075000012100EB8002054B03EB0212517000BF38
:1007600006B010BDC8250020000000208C490020E4
:1007700010B5002107E04AF2104200BF131EA2F19B
:100780000102FBD1491C8142F5D310BD10B50021F7
:1007900006E0282200BF131EA2F10102FBD1491C72
:1007A0008142F6D310BD000000B58BB00121880650
:1007B00005F08FF909220521F74804F09CFF092272
:1007C0000621F54804F097FF02208DF818006020FC
:1007D000059005A9F04804F003FF40208DF828009B
:1007E00002208DF8290000208DF82A0001208DF8C4
:1007F0002B000AA803F04FFF00208DF822008DF88F
:1008000023008DF824008DF825008DF826008DF842
:1008100027008DF81E008DF81F0008208DF820009D
:1008200003208DF82100ADF81C0007A9DB4803F078
:10083000B6FF0E208DF80E0001208DF80F0000206D
:100840008DF8100044F22000ADF8040044F240009E
:10085000ADF8060044F26000ADF808004FF48140A6
:10086000ADF80A000020ADF80C0001208DF8110051
:1008700001A804F01EF80F208DF80E0001208DF85D
:100880000F0000208DF8100044F2A000ADF8040025
:1008900044F2C000ADF8060044F2E000ADF80800F4
:1008A0004FF48240ADF80A000020ADF80C000120A2
:1008B0008DF8110001A803F0FCFF10208DF80E0048
:1008C00001208DF80F0000208DF8100045F2200067
:1008D000ADF8040045F24000ADF8060045F26000B6
:1008E000ADF808004FF4A140ADF80A000120ADF8C2
:1008F0000C008DF8110001A803F0DBFF11208DF82A
:100900000E0001208DF80F0000208DF8100045F238
:10091000A000ADF8040045F2C000ADF8060045F2B5
:10092000E000ADF808004FF4A240ADF80A00012045
:10093000ADF80C008DF8110001A803F0BAFF1220E9
:100940008DF80E0000208DF80F0001208DF81000AA
:100950000020ADF804004FF49040ADF806004FF6CB
:10096000FF70ADF808004FF47840ADF80A000120A0
:10097000ADF80C008DF8110001A803F09AFF0122D8
:100980000221864804F094FA01221021834804F0E1
:100990008FFA0BB000BD10B586B002217F4804F07D
:1009A000EFFA00287ED001AA00217C4804F065F906
:1009B00002217A4804F07FFB0198B0F5007F72D9DC
:1009C0000198B0F5027F6ED89DF80D0000286AD11D
:1009D0000198401EC4B204A9481E00F009FD0DF1A3
:1009E0001201481E00F004FD05A9481E00F000FD9C
:1009F000BDF80F1004EBC40000EB0410684A02EBD2
:100A0000C0000184BDF8111004EBC40000EB041019
:100A100002EBC0000183BDF8131004EBC40000EB2F
:100A2000041002EBC000C18204EBC40000EB041010
:100A3000114601EBC000C06900EE100AB8EEC00A12
:100A4000DFED580A60EE200A04EBC40000EB04104E
:100A500001EBC00090F8C20000EE100AB8EE400AA8
:100A600080EE801A04EBC40000EB041001EBC00020
:100A7000B0F8C00000EE100AB8EE400AC1EE000A5D
:100A8000BDEEE00A10EE100A00B204EBC40101EB67
:100A9000041102EBC101888204EBC40000EB0410D6
:100AA000114601E064E062E011F83000E8B307F0BD
:100AB000E5FE04EBC40101EB0411394A02EBC1016C
:100AC000D1F8B810411A04EBC40000EB041002EB9B
:100AD000C000B0F8BC00814233D904EBC40000EB85
:100AE0000410114601EBC00090F8B400401CC1B2E4
:100AF00004EBC40000EB041002EBC00080F8B4105B
:100B00000A2913DD012104EBC40000EB041002EB01
:100B1000C00080F83710002104EBC40000EB041083
:100B200002EBC00080F8B41015E00AE0002104EBED
:100B3000C40000EB04101A4A02EBC00080F8371022
:100B400009E0002104EBC40000EB0410144A02EB9E
:100B5000C00080F8B41007F091FE04EBC40101EB73
:100B600004110F4A02EBC101C1F8B80000BF00BF79
:100B700006B010BD4168491C416000210173016944
:100B8000491E0161818A491C1E2291FBF2F302FB7E
:100B90001311818270470000000402400068004089
:100BA000C82500200000B44310B586B01021FA48D3
:100BB00004F0E6F900286FD001AA0121F64804F0FC
:100BC0005CF81021F44804F076FA1021F24804F0A1
:100BD000B4F99DF80C00002871D19DF80D00002893
:100BE000FAD10198A0F28120C4B29DF80F004128EB
:100BF0000BD19DF81000432807D19DF8120000F09A
:100C00004000012801D0012000E000209DF80F10D5
:100C100042290BD19DF81010472907D19DF81210D9
:100C200001F04001012901D0012100E00021084329
:100C30009DF80F104A290BD19DF81010562907D1A5
:100C40009DF8121001F04001012901D0012100E0BE
:100C5000002108439DF80F104D290BD19DF810106D
:100C60004F2907D19DF8121001F04001012901D050
:100C7000012100E0002108439DF80F1050290CD1FC
:100C80009DF81010522908D19DF8121001F0400172
:100C9000012902D0012101E017E1002108439DF85C
:100CA0000F1053290CD19DF81010442908D19DF83C
:100CB000121001F04001012902D0012101E003E1FD
:100CC000002108439DF80F1053290BD19DF81010F7
:100CD000542907D19DF8121001F04001012901D0DB
:100CE000012100E0002108439DF80F1054290BD189
:100CF0009DF81010432907D19DF8121001F0400112
:100D0000012901D0012100E0002108439DF80F10C6
:100D100055290BD19DF810104D2907D19DF81210BF
:100D200001F04001012901D0012100E00021084328
:100D300030B1C4EB8411994A02EBC100FFF71AFFEE
:100D40009DF80F004D2815D19DF810004F2811D1A6
:100D50009DF8120000F0400001280BD09DF8130010
:100D600008B1012000E0002004EB84018C4A02EB72
:100D7000011148709DF80F00562827D19DF81000EA
:100D8000582823D19DF8120000F0400001281DD002
:100D9000DDF8131004EB8400814A02EB001041617E
:100DA00004EB8400114601EB0010B0F848000F215D
:100DB00090FBF1F104EB840002EB0010406990FB22
:100DC000F1F104EB840002EB001041619DF80F008B
:100DD000502811D19DF8100058280DD19DF812000F
:100DE00000F04000012807D0DDF8131004EB840068
:100DF0006B4A02EB001081619DF80F00492812D167
:100E00009DF8100051280ED19DF8120000F040000E
:100E1000012808D0BDF8130001B204EB8400604A39
:100E200002EB0010418204EB84005D4901EB0010ED
:100E3000407800B307F022FD04EB8401584A02EB2E
:100E40000111096C411A04EB840002EB0010B0F8A8
:100E5000440081420FD904EB8400114601EB0010DD
:100E600090F83C00401CC1B204EB840002EB00107F
:100E700080F83C1007E0002104EB8400484A02EBB4
:100E8000001080F83C1004EB8400454901EB001091
:100E900090F83C000A2807DD012104EB8400404A59
:100EA00002EB0010C17706E0002104EB84003C4A0D
:100EB00002EB0010C17707F0E1FC04EB8401384A33
:100EC00002EB0111086400BF00BF06B010BD70B591
:100ED000044604EBC40000EB0410324901EBC000EF
:100EE000B0F90600002808DD04EBC40000EB041094
:100EF00001EBC000B0F9060009E004EBC40000EB10
:100F00000410284901EBC000B0F90600404204EB90
:100F1000C40101EB0411234A02EBC101B1F8C41072
:100F2000884220DD04EBC40000EB0410114601EB05
:100F3000C000B0F90600002801DB012001E04FF0FD
:100F4000FF3004EBC40101EB0411164A02EBC101AE
:100F5000B1F8C410484301B204EBC40000EB041024
:100F600002EBC000C18004EBC40000EB04100D498B
:100F700011F8300040B9002104EBC40000EB04106C
:100F8000084A02EBC000C180042C0FDA4FF4007055
:100F9000054908600EE0000000680040E8370020C6
:100FA0008C490020C8250020C400002040F2FF101A
:100FB000224908600020214948720872082088727E
:100FC00004F00B00450004EBC40000EB04101C49C6
:100FD00001EBC000C18819480B30415302466B1C1D
:100FE000D118501900F004FA032C01D0072C03D1BA
:100FF0001249144803F04CFD70BD30B585B005466C
:101000000C461148019000208DF8090004208DF84D
:10101000080003208DF80A0056208DF80B004C21A3
:101020008DF80C108DF80D408DF80E50694605486E
:1010300003F02EFD0548447605B030BDC400002005
:10104000C825002000680040010103005825002049
:101050001CB50120022100230246CDE900104FF407
:1010600040711A4803F0ACF94FF48071174804F04E
:1010700033FB4FF40071154804F030FB1CBD70B514
:101080000446112C00DD11241148055D00261AE0EC
:101090004FF480710D4804F021FB05F0010028B1E8
:1010A0004FF40071094804F017FB04E04FF400719D
:1010B000064804F013FB4FF48071044804F00CFB65
:1010C0006D10701CC6B2082EE2DB70BD0004024039
:1010D000DC9800081CB50020009003460122F02196
:1010E00001901F4803F06CF91CBD10B510201C497D
:1010F00048834FF4FA6007F011FB20201849488319
:101100004FF4FA6007F00AFB4020154948834FF47A
:10111000FA6007F003FB8020114948834FF4FA601E
:1011200007F0FCFA10200E4908834FF4FA6007F02C
:10113000F5FA20200A4908834FF4FA6007F0EEFA26
:101140004020074908834FF4FA6007F0E7FA80204F
:10115000034908834FF4FA6007F0E0FA10BD00007D
:10116000000002400CE0864AB2F9E010D2F8E42018
:1011700010B200231A4603F022F81E2007F0CEFA20
:10118000F1E715E00021084602F006FF00220121E8
:10119000104602F0F1FB0021084602F096F9002209
:1011A0000121104602F0DFF94FF4FA6007F0B6FAB9
:1011B000E8E700BF03E04FF47A7007F0AFFAFAE710
:1011C0001CE001F0FAFA6F48007810B1012810D144
:1011D00002E0FFF78AFF0CE010206B4948830846C5
:1011E000406980F020004861402008838020088307
:1011F00000BF00BF4FF47A7007F090FAE1E705E016
:1012000000F078FB4FF47A7007F088FAF8E770B5D1
:101210000446002600BF07F0C0FC07F055FB064659
:10122000002006F0EAFC594908601923584A0021B9
:10123000584806F02DFF1E23574A0021574806F054
:1012400027FF2823564A0021564806F021FF322363
:10125000554A0021554806F01BFF3723544A002108
:10126000544806F015FF0220FEF7ABFF524801F08C
:10127000F8FE052007F052FA4F4801F0F2FE052073
:1012800007F04CFA4C4801F0ECFE052007F046FA56
:10129000002508E001220221002002F001FA64206A
:1012A00007F03CFA6D1C142DF4DB44484078B0B1D3
:1012B000424890F8510090B1404890F8A10070B1B8
:1012C0003E4890F8F10050B100220221104602F091
:1012D000E7F900220221104602F0E2F902E00120C3
:1012E000284908700020FFF7CAFE052007F04EF9D4
:1012F000304607F0EDFA70BD10B540F6B830FFF794
:1013000037FA04F06DFF4FF4806101F007022C4BB7
:1013100018684FF6FF0318402A4B034343EA0220A4
:10132000274B186000BF2848006840F00700264996
:101330000860FFF7CFFEFEF739FFFFF789FE01F0E7
:1013400085F9FEF757FFFFF72FFA00F0F3F800F0EA
:1013500081F900F055F800F045F801F0B7FA0221E4
:101360001A4801F085FB05F01FF90523184A0021F2
:10137000184806F08DFE05F03EFA002010BD000072
:10138000C825002058250020000002401000002041
:10139000D40C0020FF110008D40E0020C111000859
:1013A000D41E0020B3110008D420002083110008AF
:1013B000D422002065110008006400408C49002000
:1013C0000CED00E00000FA0530380240E83700205C
:1013D000D40400200F1200080020084908700120E2
:1013E0008870704710B5FFF7F7FF00F039FB10BDAC
:1013F00000220A7803780B7002707047582500208D
:1014000010B54548006840F002004349086042F2C8
:101410002730424908600720091F08803F482C38C0
:10142000008840F480703D492C3908803B481C38C6
:10143000008820F0010039491C390880081F008805
:1014400040F00100091F088034482C38008840F023
:10145000010032492C39088003231D22002101207C
:1014600002F000FF10BD10B52C481C38008800F0B9
:101470000100002847D000F04DFF002435E004EBC8
:10148000C40000EB0410264911F8300028B304EB27
:10149000C40000EB041001EBC0004078F0B104EB95
:1014A000C40000EB041001EBC0008078012806D0D6
:1014B000022805D004280BD005280DD104E00CE04B
:1014C00020B200F01FFC08E020B200F078FC04E03D
:1014D00020B200F035FE00E000BF02E020B200F0D4
:1014E0006EFCE0B2FFF7F3FC641C082CC7DB0D496F
:1014F0000D4801F0F3F90D48807820B10222094926
:101500000B4801F0F5FA05481C38008820F001006E
:1015100002491C39088010BD403802402C040040AC
:10152000C825002080470020006800405825002082
:10153000E83700201CB54048006840F010003E49E4
:1015400008603D481438006840F480003A49143976
:1015500008600120022100230A46CDE900104FF463
:10156000C061364802F02CFF07220921334802F0FF
:1015700007FF07220A21314802F002FF40F2D9207A
:101580002F4908814FF4037088810846008820F0B5
:1015900020000880032325220121062002F062FE9C
:1015A0004FF48070274B264A121D042100902648D4
:1015B00002F044FD01221021234803F038FF0323E9
:1015C00046220021072002F04DFE1D48808A40F08F
:1015D00080001B4988820846808940F40050888139
:1015E0001CBD70B504460D461848807D78B92A4662
:1015F0002146144807F004FB2946134803F0ABFECC
:101600000121114803F086FE01201049887570BD44
:1016100010B50F490C4803F027FF01280AD10C49E7
:10162000094803F0F0FE0A49074803F047FF00208D
:101630000649887510BD0000443802400000024091
:1016400000100140D8220020B86402405825002034
:10165000008000281CB5F548006840F40030F349CC
:101660000860F2481038006840F40010EF49103963
:1016700008600120022100230A46CDE900100C2158
:10168000EB4802F09DFE07220221E94802F078FEB5
:1016900007220321E64802F073FE4FF4B670E549D5
:1016A00008800C20091D0880E2480838008820F0D6
:1016B0002000E04908390880DE48001D008840F01D
:1016C0002000DC49091D0880032326220121042073
:1016D00002F0C8FD4FF48070D74BD64A121F042188
:1016E0000090D64802F0AAFC01221021D34803F052
:1016F0009EFE032311220121072002F0B3FDCD48F5
:101700000C30008840F08000CA490C310880C9487C
:10171000001D008840F40050C649091D08801CBD0A
:1017200010B5C749C54803F09FFE01280AD1C44936
:10173000C24803F068FEC249C04803F0BFFE002063
:10174000C049C87510BD10B52DED028B002440F2C4
:101750002531B848083804F08EFC58B1B54808382F
:1017600004F0C7FB0020B84908702021B74807F0F3
:1017700060FAABE040F22551AE48083804F07BFC3B
:101780000028F6D02021AB48083804F06BFC40F26A
:101790002551A848083804F0A5FCA648083804F0EC
:1017A000A8FBC4B2A848007800F0400008B3A648DF
:1017B000007800F0800020BBFF2C06D1A248007802
:1017C00040F08000A04908701BE09F48007800F0BE
:1017D0003F019E4844549C480078401C9A49087038
:1017E0000846007800F03F0028280ADD0020087035
:1017F00007E0EE2C05D19448007840F04000924973
:1018000008709148007800F0800000285ED0904871
:1018100090F82302022851D18D4890F8250209281A
:1018200049D2DFE800F0480515252C33383F470042
:101830008648C01D07F06CFEB0EE408AF0EE608A6C
:1018400051EC180B07F010FA01468248816533E02D
:101850007E48C01D07F05CFEB0EE408AF0EE608A64
:1018600051EC180B07F000FA01467A48C16523E0F5
:1018700000231A460221012002F07EF81CE000231A
:1018800001220221104601F06EFE15E00021012028
:1018900001F097FC10E000231A460221012001F01C
:1018A00062FE09E06B48826D00230221012002F0F4
:1018B00082F901E000E000BF00BF00BF00BF0020D0
:1018C000614908702021614807F0B3F9BDEC028B33
:1018D00010BD10B504465B48C07D50B9214657483D
:1018E00003F039FD0121554803F014FD012055494D
:1018F000C87510BD10B50024EE222146641C4E4868
:101900004254B1222146641C425410222146641CD8
:10191000425400222146641C42542146641C425415
:101920002146641C425401222146641C4254204634
:10193000611CCCB240490A54FF222046611CCCB243
:101940003D490A54FC222046611CCCB23A490A5453
:10195000FF222046611CCCB237490A542046611C44
:10196000CCB235490A54EE222046611CCCB2324931
:101970000A54B1222046611CCCB22F490A541222CB
:101980002046611CCCB22C490A5400222046611C1E
:10199000CCB229490A5402222046611CCCB2264905
:1019A0000A5400222046611CCCB223490A540A2260
:1019B0002046611CCCB220490A5400222046611CFA
:1019C000CCB21D490A542348826E23A1234807F054
:1019D00089FD224807F038F9C2B22046611CCCB21A
:1019E00015490A5408191D4907F035F91B4807F035
:1019F0002BF92044C4B2FF222046611CCCB20E4910
:101A00000A54FC222046611CCCB20B490A54FF2226
:101A10002046611CCCB208490A542046611CCCB255
:101A200005490A542046FFF754FF10BD40380240D4
:101A30000000024008440040F8230020A06002405B
:101A4000008020205825002014000020F8240020C9
:101A5000D82200208C490020253564007425002000
:101A600010B54FF40050FE490880FE49088024203C
:101A7000FB4988701320FB49887042F22830F849EE
:101A8000888043F69910F74988800120F64908704C
:101A90009FEDF60A084680ED010A012008724FF416
:101AA0007A704881012008734FF47A70C881400031
:101AB0000882EF498883EF48EA490A68026089880A
:101AC00081800120EB49C039087000204870052052
:101AD0008870002088806421E648C0380181C18078
:101AE000C168DFEDE51A9FEDE51ADFEDE50AB1EE1D
:101AF000040A3C3001F0B6F9DE48C038B0F90810ED
:101B0000F7EE001A9FEDDD1ADFEDDE0AB2EE000AF5
:101B1000643001F0A7F91422D349D648343807F0CD
:101B20006FF8D448C038CE490A68C0F818238988AD
:101B3000A0F81C130020CF49C03981F858020021B9
:101B4000CC48C03880F85912052180F85A1200217B
:101B5000A0F85C126421A0F86012A0F85E12D0F820
:101B60006412DFEDC51A9FEDC51ADFEDC50AB1EEAF
:101B7000040A00F5257001F075F9BE48C038B0F9C7
:101B80006012F7EE001A9FEDBD1ADFEDBE0AB2EE4D
:101B9000000A00F52F7001F065F91422B249BA4825
:101BA00007F02EF80024A2E004EBC40000EB0410C0
:101BB000B049C03901EBC000AD490968C0F8A010B8
:101BC000AB48416804EBC40000EB0410A94AC03ADA
:101BD00002EBC000C0F8A41004EBC40101EB041137
:101BE00002EBC10101F1A8000A22A149083107F066
:101BF00007F89F48418A04EBC40000EB04109D4A9B
:101C0000C03A02EBC000A0F8B21004EBC40000EB35
:101C10000410114601EBC000A030954B59699A6938
:101C2000DB6914300EC004EBC40000EB04109149D2
:101C3000C03901EBC000D0ED240A04EBC40000EB76
:101C4000041001EBC00090F8C20000EE100AB8EEDC
:101C5000400A60EE800A04EBC40000EB041001EBC4
:101C6000C000B0F8C00000EE100AB8EE400A20EE46
:101C7000800ADFED860A80EE201ABCEEC10A04EB72
:101C8000C40000EB041001EBC00080ED280A04EB57
:101C9000C40000EB041001EBC000818804EBC40019
:101CA00000EB0410734AC03A02EBC00090F8C20087
:101CB00011FB00F004EBC40101EB041102EBC101C4
:101CC000B1F8C010484300EE100AB8EEC00ADFEDCC
:101CD0006F0A80EE201ABDEEC10A10EE100A04EB66
:101CE000C40101EB041102EBC101C860641C082CA3
:101CF000FFF65AAF10BD002239210A54C2610021FB
:101D00008182704710B5044604EBC40000EB041058
:101D10005849C03901EBC000D0ED1D0A04EBC400E6
:101D200000EB041001EBC000B0F9080000EE100A4F
:101D3000B8EEC00A20EE800ABDEEC00A10EE100A0E
:101D400004EBC40101EB04114A4AC03A02EBC101A1
:101D5000486604EBC40000EB0410114601EBC00020
:101D6000B0F9181004EBC40000EB041002EBC00043
:101D7000C16704EBC40101EB041102EBC10101F1E5
:101D8000640001F07FF804EBC40000EB0410394953
:101D9000C03901EBC000C18804EBC40000EB0410A3
:101DA000344AC03A02EBC000806F084401B204EB31
:101DB000C40000EB041002EBC000C18010BD10B5E0
:101DC000044604EBC40000EB04102A49C03901EBBF
:101DD000C000818804EBC40000EB0410254AC03A1F
:101DE00002EBC00090F8C20011FB00F004EBC4014C
:101DF00001EB041102EBC101B1F8C010484300EE41
:101E0000100AB8EEC00ADFED210A80EE201ABDEEFE
:101E1000C10A10EE100A04EBC40101EB041102EB3D
:101E2000C101C86004EBC40000EB0410114601EBD3
:101E3000C000C06804EBC40101EB041102EBC10156
:101E4000C86304EBC40000EB0410114601EBC000B2
:101E5000407840BB04EBC40000EB041018E0000025
:101E6000160000201C0000209425002000008F4454
:101E7000A825002088260020CDCCCC3E0000000004
:101E8000CDCC4C3E9A99993EAC2800200000B4433A
:101E900001EBC000D0F8A40004EBC40101EB041175
:101EA00002EBC101C86304EBC40000EB0410FB4962
:101EB00001EBC00090F88C0080B304EBC40000EB91
:101EC000041001EBC000C06B002807DD04EBC40068
:101ED00000EB041001EBC000C06B08E004EBC40091
:101EE00000EB0410ED4901EBC000C06B404204EB75
:101EF000C40101EB0411E94A02EBC101D1F8A010C1
:101F000088421FD904EBC40000EB0410114601EB1A
:101F1000C000C06B002802DB012002E012E04FF09D
:101F2000FF3004EBC40101EB0411DC4A02EBC101F8
:101F3000D1F8A010484304EBC40101EB041102EBFB
:101F4000C101C86304EBC40000EB0410D34901EBEA
:101F5000C000C16904EBC40000EB0410CF4A02EBDF
:101F6000C000416504EBC40101EB041102EBC101A7
:101F700001F13C0000F086FF04EBC40000EB04100C
:101F8000C64901EBC000416E04EBC40000EB041035
:101F9000C24A02EBC000006D084400EE100AB8EE21
:101FA000C00A04EBC40000EB0410114601EBC000B2
:101FB000D0ED130A20EE200ABDEEC00A10EE100A82
:101FC00004EBC40101EB041102EBC101486604EB10
:101FD000C40000EB0410114601EBC00090F894001F
:101FE00080B304EBC40000EB041001EBC000406EB2
:101FF000002807DD04EBC40000EB041001EBC00077
:10200000406E08E004EBC40000EB0410A34901EBB0
:10201000C000406E404204EBC40101EB04119F4A32
:1020200002EBC101B1F8961088421FDD04EBC40039
:1020300000EB0410114601EBC000406E002802DBEB
:10204000012002E012E04FF0FF3004EBC40101EB8D
:102050000411924A02EBC101B1F89610484304EB17
:10206000C40101EB041102EBC101486604EBC4009A
:1020700000EB0410894901EBC000B0F9181004EB23
:10208000C40000EB0410854A02EBC000C16704EBFA
:10209000C40101EB041102EBC10101F1640000F085
:1020A000F1FE04EBC40000EB04107C4901EBC0001E
:1020B000C18804EBC40000EB0410784A02EBC000B6
:1020C000806F084401B204EBC40000EB041002EB83
:1020D000C000C18004EBC40000EB0410114601EB0A
:1020E000C000D0F8AC00002808DD04EBC40000EB11
:1020F000041001EBC000D0F8AC0009E004EBC40010
:1021000000EB0410654901EBC000D0F8AC00404280
:102110003C280ADA012004EBC40101EB04115F4AF8
:1021200002EBC10181F8340009E0002004EBC40196
:1021300001EB0411594A02EBC10181F8340010BDD2
:1021400010B5044604EBC40000EB0410534901EB46
:10215000C000B0F89A0004EBC40101EB04114F4A2F
:1021600002EBC101486604EBC40000EB0410114609
:1021700001EBC000B0F9181004EBC40000EB041030
:1021800002EBC000C16704EBC40101EB041102EBD8
:10219000C10101F1640000F075FE04EBC40000EB26
:1021A00004103E4901EBC000C18804EBC40000EB01
:1021B00004103A4A02EBC000806F084401B204EBFD
:1021C000C40000EB041002EBC000C18004EBC400AB
:1021D00000EB0410114601EBC000B0F90600002826
:1021E00008DD04EBC40000EB041001EBC000B0F903
:1021F000060009E004EBC40000EB0410274901EBE2
:10220000C000B0F9060040422549098A88421ADD1B
:1022100004EBC40000EB0410204901EBC000B0F94E
:102220000600002801DB012001E04FF0FF301C49CF
:10223000098A484301B204EBC40000EB0410174ABA
:1022400002EBC000C18004EBC40000EB0410134992
:1022500001EBC000B0F8A800F8B904EBC40000EB33
:10226000041001EBC000C06941F28831884219DDD9
:1022700004EBC40000EB0410084901EBC000B0F807
:10228000B000401C81B204EBC40000EB0410034A10
:1022900002EBC000A0F8B0100EE003E0C82500205B
:1022A00094250020002104EBC40000EB0410E64A52
:1022B00002EBC000A0F8B01004EBC40000EB041067
:1022C000E14901EBC000B0F8B000FA2821DD00219F
:1022D00004EBC40000EB0410DB4A02EBC000A0F8E2
:1022E000B01004EBC40000EB041002EBC000C161AD
:1022F000052004EBC40101EB041102EBC10188705D
:10230000012104EBC40000EB041002EBC00080F8D4
:10231000351010BD10B5002491E104EBC40000EBB2
:102320000410C94901EBC000018C04EBC40000EBB0
:102330000410C54A02EBC000008E081A01B204EB7B
:10234000C40000EB041002EBC000A0F8A81004EBDE
:10235000C40000EB0410114601EBC000808A04EBBE
:10236000C40101EB041102EBC101888404EBC40039
:1023700000EB0410114601EBC000C18A04EBC4005D
:1023800000EB041002EBC000C18404EBC40000EBBE
:102390000410114601EBC000018B04EBC40000EBFC
:1023A000041002EBC000018504EBC40000EB041034
:1023B000114601EBC000C16904EBC40000EB04103E
:1023C00002EBC000C16204EBC40000EB0410114634
:1023D00001EBC000018C04EBC40000EB041002EB25
:1023E000C000018604EBC40000EB0410114601EBB1
:1023F000C000B0F9A800002808DD04EBC40000EB21
:10240000041001EBC000B0F9A80009E004EBC4001F
:1024100000EB04108C4901EBC000B0F9A800404269
:10242000B0F57A6F2CDD04EBC40000EB0410864994
:1024300001EBC000B0F9A81004EBC40000EB0410DD
:10244000814A02EBC000B0F9A800002801DB01209E
:1024500001E04FF0FF3004EBC40202EB04127A4BB0
:1024600003EBC202B2F8C02000FB121001B204EB71
:10247000C40000EB04101A4602EBC000A0F8A8103C
:1024800004EBC40000EB04106F4901EBC000C1690C
:1024900004EBC40000EB04106B4A02EBC000B0F97F
:1024A000A800014404EBC40000EB041002EBC000E0
:1024B000C16104EBC40000EB0410114601EBC00045
:1024C000C16804EBC40000EB041002EBC000C0695B
:1024D000091A04EBC40000EB041002EBC000C0F8C2
:1024E000AC1004EBC40000EB0410114611F83000EE
:1024F00000286DD004EBC40000EB041001EBC00019
:10250000B0F90600002808DD04EBC40000EB04105D
:1025100001EBC000B0F9060009E004EBC40000EBD9
:102520000410494901EBC000B0F90600404204EB39
:10253000C40101EB0411444A02EBC101B1F8C4101B
:10254000491E884244DD04EBC40000EB0410114630
:1025500001EBC000B0F8B200401C81B204EBC40033
:1025600000EB041002EBC000A0F8B21004EBC400B2
:1025700000EB0410114601EBC000B0F8B200B0F55A
:102580007A7F1ADD012104EBC40000EB041002EB9A
:10259000C00080F8361004EBC40000EB04101146B4
:1025A00001EBC00090F89800E0B1002004EBC401FA
:1025B00001EB041102F8310014E0002104EBC40027
:1025C00000EB0410204A02EBC00080F8361009E04E
:1025D000002104EBC40000EB04101B4A02EBC00016
:1025E000A0F8B21004EBC40000EB0410164901EB94
:1025F000C000407878B104EBC40000EB041001EB9C
:10260000C000C16904EBC40000EB04100E4A02EBE9
:10261000C000C0F8A41004EBC40000EB04100A4989
:1026200001EBC00090F8390040B104EBC40101EBAC
:102630000411054A02EBC100FFF75DFB641C082C86
:10264000FFF66BAE10BD0000C82500201CB50120B0
:1026500000210B460246CDE900104FF470418D4831
:1026600001F0AEFE012000210B460A46CDE9001024
:102670004FF47071884801F0A3FE1CBD2DE9FC41A8
:10268000FF25FF24FF2600224FF47041814803F00C
:1026900027F80120FEF77AF840217F4803F002F87E
:1026A000074680217C4802F0FDFF47EA4007611C95
:1026B000794802F0F7FF47EA80074FF40071764847
:1026C00002F0F0FF47EAC00004400F2C5ED00A2061
:1026D000FEF74EF84021704802F0E4FF07468021E3
:1026E0006D4802F0DFFF47EA4007691C6A4802F0C4
:1026F000D9FF47EA80074FF40071674802F0D2FF24
:1027000047EAC00004400F2C40D0012000210B46B6
:102710000246CDE900104FF470715F4801F050FEA1
:10272000012000210B460A46CDE900104FF470410C
:10273000584801F045FE00224FF47071564802F0EF
:10274000CFFF0220FEF714F84FF48051514802F0F9
:10275000A9FFC7004FF400514E4802F0A3FF47EA1B
:1027600080074FF480414B4802F09CFF47EA400746
:102770004FF40041474802F095FF3843054044EAD2
:102780000510C043C6B23046BDE8FC81F043C0B27C
:10279000FAE710B50821404802F084FF04460421FE
:1027A0003D4802F07FFF44EA400401213A4802F02C
:1027B00079FF44EA8000C0B210BD10B5FFF75EFF9C
:1027C000412844D012DC212831D008DC11281ED049
:1027D000122820D0142822D0182858D123E02228EB
:1027E00029D024282BD0282851D12CE081283ED074
:1027F00006DC42282FD0442831D0482847D132E087
:10280000822838D084283AD0882840D13BE0012063
:10281000FEF735FC3BE00220FEF731FC37E00320F9
:10282000FEF72DFC33E00420FEF729FC2FE0052005
:10283000FEF725FC2BE00620FEF721FC27E0072011
:10284000FEF71DFC23E00820FEF719FC1FE009201D
:10285000FEF715FC1BE00A20FEF711FC17E00B2029
:10286000FEF70DFC13E00C20FEF709FC0FE00D2035
:10287000FEF705FC0BE00E20FEF701FC07E00F2041
:10288000FEF7FDFB03E00020FEF7F9FB00BF00BFF1
:1028900010BD000000040240000802400146088804
:1028A0004A88904201D1012070470020FCE7014690
:1028B0004888401C1E2290FBF2F302FB13000A889A
:1028C000904201D1012070470020FCE700205F49C1
:1028D000488008805E4948800880704730B585B0E0
:1028E00005460C4600205B4908702046FFF7D6FFDE
:1028F00018B1012058494871A5E02188201D00EB3E
:1029000001104079422810D12188201D00EB0110D0
:102910008079472809D12088401C1E2190FBF1F2C4
:1029200001FB1200208005B030BD2188201D00EB86
:1029300001100068B0F5806F09D200208DF8080002
:102940002188201D00EB0110006800901CE0218808
:10295000201D00EB0110006800F0704058B1218884
:10296000201D00EB0110006820F070412288201D1E
:1029700000EB0210016004208DF808002188201D62
:1029800000EB0110006801903448854205D1012216
:102990002E49334800F0ABF904E002222C493148BB
:1029A00000F0A5F92188201D00EB011000798DF8B9
:1029B0000A0000208DF809009DF80A202388201DB8
:1029C00000EB0310411D0DF10B0006F019F92088F2
:1029D000401C1E2190FBF1F201FB1200208017E049
:1029E0001C480078401C1B490870084600780A28DB
:1029F0000EDD1A48854205D11B480068401C1A4963
:102A0000086004E019480068401C1849086005E0A7
:102A10006946284602F03CF80428E1D000BF12487D
:102A20000068052805DB01200B49087000200E49CD
:102A300008600E480068052805DB0120064908707B
:102A400000200A49086000BF6DE700009C45002097
:102A50008047002027000020582500200064004007
:102A6000182C0020E8370020280000202C0000202F
:102A700030B502460023012904D10120F64C6070D4
:102A8000062303E00120F44CA070062300202CE074
:102A90000024C0EB801502EBC5052C61C0EB80154E
:102AA00002EBC5052C73C0EB801542F83540C0EB36
:102AB000801502EBC5056C600025C0EB801402EBAD
:102AC000C404E5820024C0EB801502EBC505AC828E
:102AD000C0EB801502EBC505AC600025C0EB80148F
:102AE00002EBC40484F82550401C9842D0DB30BD72
:102AF0002DE9F04105460E4617464FF00008012F1C
:102B000002D14FF0060801E04FF006080024E9E08A
:102B1000C4EB841005EBC000006901287EDBC4EB28
:102B2000841005EBC000017BC4EB841005EBC000F2
:102B3000007B401CC4EB841205EBC20210731E29FB
:102B40006DDB3046FFF7B3FE60B1C4EB841005EBDC
:102B5000C0008068401CC4EB841105EBC101886093
:102B6000BDE8F081C4EB841105EBC10101F1140053
:102B7000FFF794FE30B10020C4EB841105EBC101D6
:102B80008860EDE7C4EB841005EBC0000069401ECF
:102B9000C4EB841105EBC10108610020C4EB841172
:102BA00005EBC1010873C4EB841105EBC10188601A
:102BB000C4EB841005EBC0001830C4EB841105EBA6
:102BC000C101898A00EB011072880168301D00EB99
:102BD00002100160C4EB841005EBC0001830C4EB98
:102BE000841105EBC101898A00EB0110017972881B
:102BF000301D00EB02100171C4EB841005EBC00026
:102C00001830C4EB841105EBC101898A00EB011077
:102C1000417B7288301D00EB021001E052E031E090
:102C20004173C4EB841305EBC3031833C4EB841C5A
:102C300005EBCC0CBCF814C003EB0C13591DB6F813
:102C400002C0331D03EB0C131A79331D03EB0C1375
:102C5000581D05F0D5FF7088401C1E2190FBF1F235
:102C600001FB12007080C4EB841005EBC000808A69
:102C7000401C90FBF1F201FB1200C4EB841105EB48
:102C8000C1018882C4EB841005EBC00080680A286B
:102C90000BD8C4EB841055F83000C4EB841105EB5D
:102CA000C1014968401A32281BDD4FF480706B491E
:102CB00008836B48C4EB841105EBC1010861012F47
:102CC00001D100BF0DE014B1012C08D103E00120B7
:102CD0006149087004E001205F49087000E000BF0E
:102CE00000BF641C4445FFF613AF00BF38E72DE971
:102CF000F04104460E4617464FF00008FF25318884
:102D0000301D00EB0110407B08B9BDE8F081012FB8
:102D100002D14FF0060809E04FF006083188301D57
:102D200000EB01100088A0F2013085B245450DDAB4
:102D3000C5EB851104EBC10101F11400FFF7B7FDEC
:102D400048B1012F03D101204349C87082E001201E
:102D5000414908717EE0C5EB851004EBC0000069B5
:102D6000401CC5EB851104EBC1010861C5EB851062
:102D700054F83000401CC5EB851144F8310031880F
:102D8000301D00EB01100268C5EB851004EBC0009C
:102D90001830C5EB851104EBC101C98A00EB0110A5
:102DA00002603188301D00EB01100279C5EB8510FF
:102DB00004EBC0001830C5EB851104EBC101C98AD2
:102DC00000EB011002713188301D00EB0110427BD5
:102DD000C5EB851004EBC0001830C5EB851104EB82
:102DE000C101C98A00EB01104273C5EB851304EBE6
:102DF000C3031833C5EB851C04EBCC0CBCF816C020
:102E000003EB0C131A79C5EB851304EBC3031833DA
:102E1000C5EB851C04EBCC0CBCF816C003EB0C1303
:102E2000581DB6F800C0331D03EB0C13591D05F0F7
:102E3000E7FEC5EB851004EBC000C08A401C1E21D4
:102E400090FBF1F201FB120081B2C5EB851004EB9F
:102E5000C000C18200BF58E7582500200000024092
:102E6000F0D8FFFF002282610160C261002303628B
:102E7000436280ED031A80ED010AC0ED020AC0ED45
:102E8000041A704701688269891AC161C269016ABE
:102E9000511A00EE101AB8EEC00AD0ED010A20EE69
:102EA000200A90ED021AC16900EE901AF8EEE00ACD
:102EB00001EE200AC269416A0A44016AA2EB41019B
:102EC00000EE901AF8EEE00A90ED031A01EE200AE7
:102ED000BDEEC00A10EE101A4161026A4262C26978
:102EE0000262704710B54FF48050FE490880B7EE7B
:102EF000000A084680ED010A4FF48050FA49088024
:102F0000B7EE000A084680ED010A4FF48050F749F9
:102F10000880B7EE000A084680ED010A0020F44957
:102F200008709FEDF40A084680ED010A012008723E
:102F30004FF47A704881012008734FF4FA70C88109
:102F4000C00008824010EC490882EC49E54A05CAF5
:102F5000C1E9120200204870022008704FF49670F8
:102F600088806421E5488160C1800021C1605030C3
:102F7000DC4A06CAC0E912120021503880F851100C
:102F80000220DE4981F850004FF49671DB48A0F82A
:102F9000541064218165A0F856100021C165A0304D
:102FA000D04A06CAC0E912120021A03880F8A11048
:102FB0000220D24981F8A0004FF49671CF48A0F8C2
:102FC000A4106421C0F8A810A0F8A6100021C0F831
:102FD000AC10F030C34A06CAC0E912120021F03822
:102FE00080F8F1100220C54981F8F0004FF4967185
:102FF000C248A0F8F4106421C0F8F810A0F8F61048
:103000000021C0F8FC10002428E004EB8401BB4A36
:1030100002EB011101F120001422B54905F0F0FD89
:1030200004EB8400B54901EB0010B3490A68426320
:1030300089880187B048C18804EB8400AF4A02EB5D
:103040000010418704EB8400114601EB0010AA4BED
:103050009968DA681B693C300EC0641C052CD4DB0F
:1030600010BD10B586B00446002001908DF80D000B
:103070008DF80C0008208DF80E0001208DF80F004F
:1030800000218DF810108DF811108DF812108DF8A8
:1030900013108DF814108DF815108DF8161001A965
:1030A000204601F0F5FC06B010BD0FB438B506ABF4
:1030B0000093009B02CB0093009B04CB0093904BAA
:1030C0005B885B1C1E2493FBF4F504FB15338C4CCE
:1030D0002488A34205D101238A4C237138BC5DF8B2
:1030E00014FB00F54073864C6588241D04EB051421
:1030F00023609DF81430012B22D10424804B5D887D
:103100001B1D03EB05131C7141247D4B5D881B1DAA
:1031100003EB05135C714324794B5D881B1D03EBA6
:1031200005139C710024764B5D881B1D03EB051372
:10313000DC71734B5D881B1D03EB05131C722CE0C7
:103140009DF81430022B28D108246D4B5D881B1D7F
:1031500003EB05131C714124694B5D881B1D03EBB8
:1031600005135C714324664B5D881B1D03EB05133F
:103170009C710024624B5D881B1D03EB0513DC7101
:103180005F4B5D881B1D03EB05131C725C4B5C8859
:103190001B1D03EB0413C3F80920594B5D881B1D4D
:1031A00003EB05135973564B5B885B1C1E2493FB82
:1031B000F4F504FB1533524C63800023009300BFE9
:1031C0008CE710B54E4A5288521C1E2392FBF3F432
:1031D00003FB14224A4B1B889A4203D10122494B1C
:1031E0001A7110BD00F54072454B5C881B1D03EB46
:1031F00004131A600423424A5488121D02EB04127D
:10320000137142233E4A5488121D02EB041253717B
:1032100047233B4A5488121D02EB0412937100238A
:10322000374A5488121D02EB0412D371344A548871
:10323000121D02EB04121372314A5388121D02EB65
:10324000031251732E4A5288521C1E2392FBF3F430
:1032500003FB14222A4B5A8000BFC2E70FB438B5D3
:1032600006AB0093009B02CB0093009B04CB009322
:10327000234B5B885B1C1E2493FBF4F504FB153386
:103280001F4C2488A34205D101231E4C237138BC56
:103290005DF814FB00F54073194C6588241D04EBA0
:1032A000051423609DF81430012B35D10424144BF0
:1032B0005D881B1D03EB05131C714424104B5D88B6
:1032C0001B1D03EB05135C7143240D4B5D881B1D17
:1032D00003EB05139C710024094B5D881B1D03EB58
:1032E000051311E0340000203C00002044000020C1
:1032F0006449002000003444784900208C490020B3
:103300008047002058250020DC71FE4B5D881B1D86
:1033100003EB05131C722CE09DF81430022B28D10E
:103320000824F84B5D881B1D03EB05131C71442416
:10333000F44B5D881B1D03EB05135C714324F14BBB
:103340005D881B1D03EB05139C710024ED4B5D880C
:103350001B1D03EB0513DC71EA4B5D881B1D03EBA2
:1033600005131C72E74B5C881B1D03EB0413C3F8A9
:103370000920E44B5D881B1D03EB05135973E14BDA
:103380005B885B1C1E2493FBF4F504FB1533DD4CBA
:1033900063800023009300BF79E70FB478B507ABD3
:1033A0000093009B02CB0093009B04CB0093D54B72
:1033B0005B885B1C1E2493FBF4F504FB1533D14C96
:1033C0002488A34205D10123CF4C237178BC5DF83A
:1033D00014FB00F54073CB4C6588241D04EB0514E9
:1033E00023609DF81830012B22D10424C54B5D8841
:1033F0001B1D03EB05131C714A24C24B5D881B1D6A
:1034000003EB05135C715624BE4B5D881B1D03EB5B
:1034100005139C710024BB4B5D881B1D03EB05133A
:10342000DC71B84B5D881B1D03EB05131C7238E083
:103430009DF81830022B34D100EB8004B34D05EB1E
:103440000414B4F8484054433C2594FBF5F3082594
:10345000AC4C6688241D04EB061425714A25A94C42
:103460006688241D04EB061465715625A54C6688F4
:10347000241D04EB0614A5710025A24C6688241DAA
:1034800004EB0614E5719F4C6688241D04EB0614BA
:1034900025729C4C6588241D04EB0514C4F8093082
:1034A00000BF984B5D881B1D03EB05135973954BAB
:1034B0005B885B1C1E2493FBF4F504FB1533914CD5
:1034C00063800023009300BF80E710B58D4A5288C7
:1034D000521C1E2392FBF3F403FB1422894B1B881E
:1034E0009A4203D10122884B1A7110BD00F5407237
:1034F000844B5C881B1D03EB04131A600423814A70
:103500005488121D02EB0412137149237D4A54881A
:10351000121D02EB0412537151237A4A5488121D72
:1035200002EB041293710023764A5488121D02EBB9
:103530000412D3718023734A5488121D02EB0412C3
:103540001372704A5388121D02EB031251736D4AB5
:103550005288521C1E2392FBF3F403FB1422694B86
:103560005A8000BFC1E70FB438B506AB0093009B8B
:1035700002CB0093009B04CB0093624B5B885B1CE7
:103580001E2493FBF4F504FB15335E4C2488A34200
:1035900005D101235C4C237138BC5DF814FB00F5A8
:1035A0004073584C6588241D04EB051423609DF876
:1035B0001430012B22D10424524B5D881B1D03EBD8
:1035C00005131C714D244F4B5D881B1D03EB051328
:1035D0005C714F244B4B5D881B1D03EB05139C71E5
:1035E0000024484B5D881B1D03EB0513DC71454B24
:1035F0005D881B1D03EB05131C723DE09DF8143024
:10360000022B39D108243F4B5D881B1D03EB0513AA
:103610001C714D243B4B5D881B1D03EB05135C7136
:103620004F24384B5D881B1D03EB05139C71002450
:10363000344B5D881B1D03EB0513DC71314B5D883A
:103640001B1D03EB05131C722E4B5D881B1D03EB2A
:1036500005135A722B4B5D881B1D03EB05139C72DF
:10366000284B5D881B1D03EB0513DC72254B5D8821
:103670001B1D03EB05131C73224B5D881B1D03EB05
:10368000051359731F4B5B885B1C1E2493FBF4F5D9
:1036900004FB15331B4C63800023009300BF7BE7C2
:1036A00070B586B006460C46154600208DF80C0015
:1036B0008DF80D0006F540700190012C0ED104200C
:1036C0008DF80E004D208DF80F004F218DF8101051
:1036D00000218DF811108DF812101FE0022C1DD161
:1036E00008208DF80E004D208DF80F004F218DF829
:1036F000101000218DF811108DF812108DF8135054
:1037000006E0000080470020582500208C4900205A
:103710008DF814108DF815108DF8161001A9FE48BB
:1037200001F0B6F906B070BD0FB438B50021002223
:1037300006AB0093009B02CB0093009B04CB00934D
:10374000F64B5B885B1C1E2493FBF4F504FB1533DE
:10375000F24C2488A34205D10123F14C237138BCDB
:103760005DF814FB00F54073EC4C6588241D04EBF8
:10377000051423609DF81430012B22D10424E74B5B
:103780005D881B1D03EB05131C715024E34B5D8802
:103790001B1D03EB05135C714124E04B5D881B1D71
:1037A00003EB05139C710024DC4B5D881B1D03EBB0
:1037B0000513DC71D94B5D881B1D03EB05131C72CF
:1037C0002CE09DF81430022B28D10824D34B5D88BF
:1037D0001B1D03EB05131C715024D04B5D881B1D72
:1037E00003EB05135C714124CC4B5D881B1D03EB7F
:1037F00005139C710024C94B5D881B1D03EB051349
:10380000DC71C64B5D881B1D03EB05131C72C34B9B
:103810005C881B1D03EB0413C3F80920BF4B5D88B4
:103820001B1D03EB05135973BC4B5B885B1C1E24EB
:1038300093FBF4F504FB1533B84C6380002300932D
:1038400000BF8CE710B5B54A5288521C1E2392FB6C
:10385000F3F403FB1422B14B1B889A4203D10122DB
:10386000AF4B1A7110BD00F54072AC4B5C881B1D4C
:1038700003EB04131A600423A84A5488121D02EBB8
:10388000041213715023A54A5488121D02EB04122E
:1038900053714523A14A5488121D02EB04129371FF
:1038A00000239E4A5488121D02EB0412D3719B4AD6
:1038B0005488121D02EB04121372984A5388121D89
:1038C00002EB03125173954A5288521C1E2392FB3D
:1038D000F3F403FB1422914B5A8000BFC2E710B5EA
:1038E0008E4A5288521C1E2392FBF3F403FB1422CF
:1038F0008A4B1B889A4203D10122894B1A7110BD51
:1039000000F54072854B5C881B1D03EB04131A60A5
:103910000423824A5488121D02EB041213715023AF
:103920007E4A5488121D02EB0412537152237B4AC3
:103930005488121D02EB041293710023774A5488B5
:10394000121D02EB0412D371744A5488121D02EB4B
:1039500004121372714A5388121D02EB0312517341
:103960006E4A5288521C1E2392FBF3F403FB14226E
:103970006A4B5A8000BFC2E70FB438B506AB00935C
:10398000009B02CB0093009B04CB0093634B5B88AE
:103990005B1C1E2493FBF4F504FB15335F4C248859
:1039A000A34205D101235E4C237138BC5DF814FBA2
:1039B00000F54073594C6588241D04EB0514236001
:1039C0009DF81430012B22D10424544B5D881B1D1B
:1039D00003EB05131C715024504B5D881B1D03EB3A
:1039E00005135C7158244D4B5D881B1D03EB0513BB
:1039F0009C710024494B5D881B1D03EB0513DC7192
:103A0000464B5D881B1D03EB05131C722CE09DF8D3
:103A10001430022B28D10824404B5D881B1D03EB7A
:103A200005131C7150243D4B5D881B1D03EB0513D2
:103A30005C714124394B5D881B1D03EB05139C71A0
:103A40000024364B5D881B1D03EB0513DC71334BE3
:103A50005D881B1D03EB05131C72304B5C881B1D1E
:103A600003EB0413C3F809202C4B5D881B1D03EBEB
:103A700005135973294B5B885B1C1E2493FBF4F5DB
:103A800004FB1533254C63800023009300BF8CE7B3
:103A90000FB438B506AB0093009B02CB0093009B9C
:103AA00004CB00931D4B5B885B1C1E2493FBF4F539
:103AB00004FB1533194C2488A34205D10123184C6B
:103AC000237138BC5DF814FB00F54073134C658816
:103AD000241D04EB051423609DF81430012B29D11B
:103AE00004240E4B5D881B1D03EB05131C7153242E
:103AF0000A4B5D881B1D03EB05135C714424074BC7
:103B00005D881B1D03EB05139C710024034B5D882E
:103B10001B1D03EB051305E00064004080470020F7
:103B200058250020DC71FE4B5D881B1D03EB05133F
:103B30001C722CE09DF81430022B28D10824F84B7D
:103B40005D881B1D03EB05131C715324F44B5D882A
:103B50001B1D03EB05135C714424F14B5D881B1D99
:103B600003EB05139C710024ED4B5D881B1D03EBDB
:103B70000513DC71EA4B5D881B1D03EB05131C72FA
:103B8000E74B5C881B1D03EB0413C3F80920E44BCF
:103B90005D881B1D03EB05135973E14B5B885B1CB0
:103BA0001E2493FBF4F504FB1533DD4C63800023E6
:103BB000009300BF85E70FB438B506AB0093009BB8
:103BC00002CB0093009B04CB0093D54B5B885B1C1E
:103BD0001E2493FBF4F504FB1533D14C2488A34237
:103BE00005D10123CF4C237138BC5DF814FB00F5DF
:103BF0004073CB4C6588241D04EB051423609DF8AD
:103C00001430012B22D10424C54B5D881B1D03EB0E
:103C100005131C715324C24B5D881B1D03EB051358
:103C20005C715024BE4B5D881B1D03EB05139C711A
:103C30000024BB4B5D881B1D03EB0513DC71402486
:103C4000B74B5D881B1D03EB05131C729DF81430E8
:103C5000022B28D10824B24B5D881B1D03EB0513F2
:103C60001C715324AE4B5D881B1D03EB05135C7167
:103C70005024AB4B5D881B1D03EB05139C71002486
:103C8000A74B5D881B1D03EB0513DC71A44B5D88FE
:103C90001B1D03EB05131C72A14B5C881B1D03EB62
:103CA0000413C3F809209E4B5D881B1D03EB05130D
:103CB00059739B4B5B885B1C1E2493FBF4F504FB40
:103CC0001533974C63800023009300BF8CE710B539
:103CD000934A5288521C1E2392FBF3F403FB1422D6
:103CE0008F4B1B889A4203D101228E4B1A7110BD53
:103CF00000F540728A4B5C881B1D03EB04131A60AD
:103D00000423874A5488121D02EB041213715323B3
:103D1000834A5488121D02EB041253715423804AC3
:103D20005488121D02EB0412937100237C4A5488BC
:103D3000121D02EB0412D371794A5488121D02EB52
:103D400004121372764A5388121D02EB0312517348
:103D5000734A5288521C1E2392FBF3F403FB142275
:103D60006F4B5A8000BFC2E70FB438B506AA009265
:103D7000009A02CA0092009A126800EE102A009A75
:103D8000121D0092664A5288521C1E2392FBF3F4C5
:103D900003FB1422624B1B889A4205D10122614B1E
:103DA0001A7138BC5DF814FB00F540725C4B5C88FE
:103DB0001B1D03EB04131A609DF81420022A33D153
:103DC000F8EEC00A9FED581AC0EE811AFDEEE10A26
:103DD00010EE902A0824524B5D881B1D03EB05133F
:103DE0001C7154244E4B5D881B1D03EB05135C7145
:103DF00043244B4B5D881B1D03EB05139C71002472
:103E0000474B5D881B1D03EB0513DC71444B5D883C
:103E10001B1D03EB05131C72414B5C881B1D03EB40
:103E20000413C3F8092000BF3D4A5488121D02EB59
:103E3000041251733A4A5288521C1E2392FBF3F427
:103E400003FB1422364B5A800022009200BFA8E7E1
:103E50000FB438B506AB0093009B02CB0093009BD8
:103E600004CB00932E4B5B885B1C1E2493FBF4F564
:103E700004FB15332A4C2488A34205D10123294C85
:103E8000237138BC5DF814FB00F54073244C658841
:103E9000241D04EB051423609DF81430012B22D15E
:103EA00004241F4B5D881B1D03EB05131C71552457
:103EB0001B4B5D881B1D03EB05135C714D24184BD8
:103EC0005D881B1D03EB05139C710024144B5D885A
:103ED0001B1D03EB0513DC71114B5D881B1D03EBF0
:103EE00005131C7244E09DF81430022B40D10824C5
:103EF0000B4B5D881B1D03EB05131C715524084BF0
:103F00005D881B1D03EB05135C714D24044B5D881C
:103F10001B1D03EB05139C710024014B5D8805E01C
:103F200080470020582500200000C8421B1D03EBDD
:103F30000513DC713F4B5D881B1D03EB05131C72E1
:103F40003C4B5D881B1D03EB05135A72394B5D8892
:103F50001B1D03EB05139C72364B5D881B1D03EB89
:103F60000513DC72334B5D881B1D03EB05131C73BB
:103F7000304B5D881B1D03EB051359732D4B5B887C
:103F80005B1C1E2493FBF4F504FB1533294C638062
:103F90000023009300BF74E710B5264A5288521CD4
:103FA0001E2392FBF3F403FB1422224B1B889A423C
:103FB00003D10122204B1A7110BD00F540721D4B38
:103FC0005C881B1D03EB04131A600423194A5488F0
:103FD000121D02EB041213715623164A5488121D47
:103FE00002EB041253715823124A5488121D02EB3B
:103FF0000412937100230F4A5488121D02EB04121D
:10400000D3710C4A5488121D02EB04121372094A30
:104010005388121D02EB03125173064A5288521C38
:104020001E2392FBF3F403FB1422024B5A8000BFC1
:10403000C2E7000080470020582500202DE9F0410C
:104040000C461546069E4C4FB84209D939464B4F8F
:104050003F6847F48007DFF824C1CCF8007008E01F
:104060004749464F3F6847F40017DFF810C1CCF8C6
:10407000007000BF076807F00107002FFAD1471A48
:10408000103F4FF0180CB7FBFCF7FAB2062A10DB12
:10409000CF68A2F1060C0CEB4C0C4FEA4C0C0CF167
:1040A000100C4FF03D0808FA0CF847EA0807CF60FB
:1040B0002FE0042A0EDBCF68A2F1040C0CEB4C0CB1
:1040C0004FEA4C084FF03D0C0CFA08FC47EA0C078D
:1040D000CF601EE0022A10DB8F68A2F1020C0CEB0D
:1040E0004C0C4FEA4C0C0CF1100C4FF03D0808FA48
:1040F0000CF847EA08078F600BE08F6802EB420C70
:104100004FEA4C084FF03D0C0CFA08FC47EA0C074C
:104110008F608560C360466000270760076847F0CE
:10412000400707600768076007680760076847F48B
:10413000806707600768076007680760076847F4DB
:10414000803707600768076007680760076847EA05
:1041500044670760BDE8F081026822F00102026056
:1041600000BF026802F00102002AFAD14160026831
:1041700042F00102026070470064024030380240A1
:104180000060024030B502460B464FF6FF7000213A
:1041900012E0555C684000240AE000F0010525B1FA
:1041A0004AF2010585EA600000E04010651CECB2AF
:1041B000082CF2DB4D1CE9B29942EADB30BD2DE957
:1041C000FE4305460E4617469846280A8DF801001C
:1041D000E8B28DF80000300A8DF80300F0B28DF8D7
:1041E0000200380A8DF80500F8B28DF804004FEA95
:1041F00018208DF8070008F0FF008DF80600082150
:104200006846FFF7BFFF04462046E11704EB116143
:104210000912A4EB0121C9B28DF80810E11704EBD3
:104220001161090A8DF809100A216846FDF7D9F9CC
:10423000BDE8FE834A0A52020243FE4B1A607047F1
:104240000146072323EA01021202FA4B1B1D1868DC
:104250004FF6FF031840F84B18431043F54B1B1D56
:10426000186070472DE9F0410746884614461D4600
:104270002846FFF7E5FFC5F1040007FA00F60F2016
:10428000284100EA0800064306F00F06E21704EB97
:10429000D2625211920002F1E022D2F800212146AE
:1042A000E31704EBD3635B11A4EB431C012303FA74
:1042B0000CF31A432046E31704EBD3635B119B0016
:1042C00003F1E023C3F80021DC48005D40EA06105A
:1042D000DA490855BDE8F081F0B503460846CD1728
:1042E00001EB9575AD10A1EB8505AD062C0ED448FC
:1042F000006840F48040D24D2860CD1701EB9575E1
:10430000AE10D04D55F826500F26A640B5430846AE
:10431000CE1701EB9676B710CA4E46F82750CD1748
:1043200001EB9575AE10C74D55F8265003FA04F60B
:104330003543CE1701EB9676B710C24E46F827509C
:10434000C148006801258D402843BF4D286002F018
:10435000010040B1BC480C30006801258D40284365
:10436000B94D0C35286002F0020040B1B648083063
:10437000006801258D402843B34D08352860F0BD05
:1043800030B5CC1000F1200353F824304C07E50E73
:104390000F24AC40A343CD1000F1200444F8253095
:1043A000CC1000F1200353F824304C07E40E02FA3D
:1043B00004F42343CD1000F1200444F8253030BD2F
:1043C0002DE9F0470C46DDE90867002100258C4601
:1043D00000BF60E04FF0010808FA01F504EA050C9F
:1043E000AC4557D1D0F800804FEA410A4FF003099D
:1043F00009FA0AF928EA0908C0F80080D0F8008014
:104400004FEA410902FA09F948EA0908C0F80080B0
:10441000012A01D0022A27D1D0F808804FEA410AA8
:104420004FF0030909FA0AF928EA0908C0F80880D8
:10443000D0F808804FEA410906FA09F948EA090864
:10444000C0F80880D0F804904FF0010808FA01F88D
:1044500029EA0809C0F80490D0F8048003FA01F9A9
:1044600048EA0908C0F80480D0F80C804FEA410AF5
:104470004FF0030909FA0AF928EA0908C0F80C8084
:10448000D0F80C804FEA410907FA09F948EA09080F
:10449000C0F80C80491C10299CD3BDE8F08710B5EA
:1044A00064480830006840F0040062490831086040
:1044B0006348001F006840F080506149091F086090
:1044C0006248406840F4807060494860084600686F
:1044D00040F0040008600846006840F002000860F0
:1044E000FBF75CFE10BD5448001D5249091D0860D1
:1044F0007047F0B504460D4600210020504E443E62
:10450000366846F480364E4F443F3E6001E04E1C14
:10451000B1B24B4E443E366806F400361EB941F641
:10452000FF76B142F3DB41F6FF76B14201D10120C3
:1045300063E0434E361F366846F08056404F3F1FBB
:104540003E60424E366846F44046404F3E603C4E28
:104550003C3E366846F41446394F3C3F3E60384E88
:10456000443E366826F08076354F443F3E6045EA4B
:1045700084160127C7EB520746EA074646EA036658
:1045800046F480062E4F403F3E603E1F366846F0A0
:1045900080763F1F3E6000BF294E443E366806F0DD
:1045A0000076002EF8D02A4E366846F48076284FE2
:1045B0003E603E46366846F400763E603E463668CB
:1045C00046F480663E603E46366846F005063E602C
:1045D0001B4E3C3E366826F00306194F3C3F3E60BA
:1045E0003E46366846F002063E6000BF144E3C3E32
:1045F000366806F00C06082EF8D1F0BDF0B504467A
:104600000D4616461F460E484438006840F001002B
:104610000B4944390860002009493C3908600848C2
:10462000443800680B4908400549443908600A4885
:10463000091D13E008ED00E00000FA0500E400E0C9
:104640004438024008380140003C014000700040FE
:10465000003C0240FFFFF6FE103000240860081FF7
:10466000006820F48020091F0860002006490860C7
:104670003B46324629462046FFF73BFF00210846CD
:10468000FFF7D8FDF0BD00000C380240324901436D
:10469000324A1160704770B5002100230F22C478A0
:1046A0001CB32E4C246804F4E064C4F5E064C4F345
:1046B0000721C1F10404E3B20A4144789C40E1B20D
:1046C0008478144021430C07210E254C0578615550
:1046D000047804F01F050124AC4005786D11AD008D
:1046E00005F1E025C5F8004109E0047804F01F0554
:1046F0000124AC401B4D0678761145F8264070BD6C
:10470000194A0A400243154B1B1F1A60704739B102
:10471000124A121D12680243104B1B1D1A6006E05C
:104720000E4A121D126882430C4B1B1D1A60704703
:10473000042808D14FF0E021096941F004014FF04D
:10474000E022116107E04FF0E021096921F0040146
:104750004FF0E022116170470000FA050CED00E017
:1047600000E400E080E100E080FFFF1F10B5044698
:10477000FE48844209D10121480601F012FA0021C5
:104780004FF0007001F00DFA08E00121880601F0F9
:1047900008FA00214FF0806001F003FA10BD30B537
:1047A000024600200023146824F0020414601468F8
:1047B00044F00104146000E05B1C546804F0010440
:1047C0001CB94FF6FF74A342F6D1546804F00104FB
:1047D0000CB900206CE08C79012C04D1146844F0F1
:1047E0008004146003E0146824F080041460CC7921
:1047F000012C04D1146844F04004146003E01468F0
:1048000024F0400414600C7A012C04D1146844F0A4
:104810002004146003E0146824F0200414604C7A2F
:10482000012C04D1146844F01004146003E01468EF
:1048300024F0100414608C7A012C04D1146844F024
:104840000804146003E0146824F008041460CC7AAF
:10485000012C04D1146844F00404146003E01468CB
:1048600024F0040414608C78A407CD7844EA05642D
:104870000D7944EA05444D7944EA05540D886D1ECE
:104880002C43D461146824F001041460002300E078
:104890005B1C546804F001041CB14FF6FF74A34282
:1048A000F6D1546804F001040CB1002000E00120AE
:1048B00030BD10B50021837A012202FA03F1AC4A1F
:1048C000126842F00102AA4B1A60A94A1C3212680F
:1048D0008A43A74B1C331A60027BCAB9A44A0C3224
:1048E00012688A43A24B0C331A604288C38842EA9A
:1048F00003439F4A4032847A42F8343002888388E6
:1049000042EA03439A4A4032847A02EBC40253607B
:10491000027B012A19D1964A0C3212680A43944B41
:104920000C331A604288038842EA0343904A4032BB
:10493000847A42F83430C288838842EA03438C4A3E
:104940004032847A02EBC4025360C27A3AB9884A90
:10495000121D12688A43864B1B1D1A6006E0844AAA
:10496000121D12680A43824B1B1D1A60028932B95C
:104970007F4A143212688A437D4B14331A600289CD
:10498000012A06D17A4A143212680A43784B14334A
:104990001A60427B012A06D1754A1C3212680A430A
:1049A000734B1C331A60724A126822F00102704B7A
:1049B0001A6010BD00218171C17101724172817252
:1049C000C1728170C1700321017102214171012105
:1049D000018070476649096841F00101644A11602D
:1049E0001146096843F60E729143614A11601146FF
:1049F000096841EA002111601146096821F00101AE
:104A00001160704721B1026842F48032026003E015
:104A1000026822F4803202607047E1B1026842F01D
:104A2000800202604FF4C272125842F480734FF455
:104A3000C27213504FF4CA72125842F480734FF48A
:104A4000CA7213504FF4D272125842F480734FF46A
:104A5000D27213501BE0026822F0800202604FF411
:104A6000C272125822F480734FF4C27213504FF482
:104A7000CA72125822F480734FF4CA7213504FF462
:104A8000D272125822F480734FF4D27213507047CE
:104A900010B502460020936803F08063B3F1806F85
:104AA00000D110E0936803F00063B3F1006F01D10F
:104AB000012008E0936803F08053B3F1805F01D1D7
:104AC000022000E00420042879D002F5C07303EB33
:104AD00000131B6803F0010402F5C07303EB00131D
:104AE0001C600B7A7BB94B7A0C8843EA445302F57D
:104AF000C07404EB00142468234302F5C07404EB73
:104B00000014236010E00B7A4C6843EAC4034C7A2B
:104B1000234302F5C07404EB00142468234302F518
:104B2000C07404EB001423608B7A03F00F038B72C4
:104B300002F5C07303EB00135B6823F00F0402F56A
:104B4000C07303EB00135C6002F5C07303EB00134A
:104B50005B688C7A234302F5C07404EB0014636035
:104B60008B7B1C064B7B44EA034403E0006400405B
:104B7000006600400B7B44EA0323CC7A234302F512
:104B8000C07404EB0014A3608B7C1C064B7C44EACD
:104B900003440B7C44EA0323CC7B234302F5C0741B
:104BA00004EB0014E36002F5C07303EB00131B6811
:104BB00043F0010402F5C07303EB00131C6010BD49
:104BC00010B50246002321B1012907D002290FD1D7
:104BD00009E09068F94C00EA04030BE09068F84C97
:104BE00000EA040306E09068F64C00EA040301E0E2
:104BF000002300BF00BFF44C181BA34216D007DCF3
:104C000083B16FF08060184470B1022818D111E0B0
:104C1000B0F5007F10D0ED4C204448B1B0F5003F16
:104C20000ED10BE002230DE000230BE0002309E08E
:104C3000002307E0012305E0012303E0012301E055
:104C4000002300BF00BFD8B210BD21B1012907D099
:104C500002290FD109E0826842F0800282600AE0F6
:104C6000826842F40042826005E0826842F40002F9
:104C7000826000E000BF00BF704710B500F5D87338
:104C800003EB01131B6803F004031372137A53B987
:104C900000F5D87303EB01131B6840F2FF7404EABC
:104CA0005353136009E000F5D87303EB01131B683D
:104CB0006FF0604404EAD303536000F5D87303EB4C
:104CC00001131B6803F00203537200F5D87303EB62
:104CD00001135B6803F00F03937200F5D87303EBC5
:104CE00001135B681B0AD37400F5D87303EB01133F
:104CF0009B68D37200F5D87303EB01139B681C0A01
:104D0000147300F5D87303EB01139B681C0C5473E8
:104D100000F5D87303EB01139B681B0E937300F52A
:104D2000D87303EB0113DB68D37300F5D87303EB7F
:104D30000113DB681C0A147400F5D87303EB01132C
:104D4000DB681C0C547400F5D87303EB0113DB68AB
:104D50001B0E937421B9C36843F02003C36003E0C2
:104D6000036943F02003036110BD21B9C26842F01A
:104D70002002C26003E0026942F020020261704733
:104D80000246002019B9D36803F0030006E00129A8
:104D900003D1136903F0030000E00020704710B551
:104DA00002460B4600204FF6FF71BBB9146824F091
:104DB000020444F00104146000E0491E546804F049
:104DC0000304012C01D00029F7D1546804F0030436
:104DD000012C01D0002032E0012030E0012B13D162
:104DE000146824F00304146000E0491E546804F0C1
:104DF00003040CB10029F8D1546804F003040CB189
:104E000000201CE001201AE0022B17D1146824F0C6
:104E1000010444F00204146000E0491E546804F0E8
:104E20000304022C01D00029F7D1546804F00304D4
:104E3000022C01D0002002E0012000E0002010BD83
:104E4000014600200A6822F0010242F002020A60D4
:104E50004A6802F00302022A00D10120704701468D
:104E60004FF6FF7200200B6823F002030B6000E096
:104E7000521E4B6803F00203022B01D1002AF7D126
:104E80004B6803F00203022B00D00120704701465B
:104E900000208A6902F070007047014600208A698C
:104EA000100E7047014600208A69C2F30740704720
:104EB0001AB143690B43436102E043698B43436189
:104EC000704710B50246002001F4700343B19369A6
:104ED000C1F3130423400BB101202DE000202BE08F
:104EE00001F0807343B15368C1F3130423400BB145
:104EF000012021E000201FE001F0006343B193682E
:104F0000C1F3130423400BB1012015E0002013E08E
:104F100001F0007343B1D368C1F3130423400BB114
:104F2000012009E0002007E01369C1F313042340C6
:104F30000BB1012000E0002010BD0022244B99425B
:104F400002D10023836111E0C1F3130201F0007369
:104F50000BB1C2600AE001F080630BB1026105E0B1
:104F600001F000630BB1826000E0426070470246CE
:104F7000002002EA01030BB1012000E0002070478D
:104F800070B504460D46002660692840002872D09E
:104F9000B5F5807F69D01DDC082D42D006DC012DDF
:104FA0002DD0022D31D0042D7FD134E0102D3ED0F4
:104FB000202D42D0402D78D145E0000003000004B0
:104FC0000003000800000310000100080001FFF7C3
:104FD0007000F030B5F5004F61D009DCB5F5007F09
:104FE0004AD0B5F5806F4DD0B5F5006F5DD150E07A
:104FF000B5F5803F2DD0B5F5003F56D12FE0A06824
:105000005549FFF7B4FF064651E0E0680321FFF77A
:10501000AEFF06464BE0E0680821FFF7A8FF064612
:1050200045E0E0681021FFF7A2FF06463FE0206957
:105030000321FFF79CFF064639E020690821FFF7AE
:1050400096FF064633E020691021FFF790FF0646E1
:105050002DE060680821FFF78AFF064627E06068B8
:105060001021FFF784FF064621E0A0690121FFF728
:105070007EFF06461BE01BE0A0690221FFF777FFD9
:10508000064614E0A0690421FFF771FF06460EE012
:105090000BE0A0697021FFF76AFF064607E0606831
:1050A0000421FFF764FF064601E0002600BF00E090
:1050B0000026304670BDB1F5007F3AD00FDC2029C4
:1050C00028D006DC01291CD004291DD0082940D194
:1050D0001DE0402921D0B1F5807F3AD126E0B1F51D
:1050E000004F31D006DCB1F5806F25D0B1F5006FEF
:1050F0002FD124E0B1F5803F12D0B1F5003F28D187
:1051000011E0154A826025E00822C26022E01022E8
:10511000C2601FE0082202611CE01022026119E057
:105120000822426016E01022426013E0042242602E
:1051300010E0042242600DE0042242600AE00022F6
:1051400082610422426005E0002282610422426002
:1051500000E000BF00BF704701010100016821F0BD
:10516000010101600021016041608160C160016155
:1051700021214161DB49884204D13D21D94A103ABD
:1051800091608CE0D7491831884205D14FF47461A1
:10519000D44A103A916082E0D2493031884205D138
:1051A0004FF47411CF4A103A916078E0CD494831FC
:1051B000884205D14FF07461CA4A103A91606EE09E
:1051C000C8496031884204D1C749C64A103AD16003
:1051D00065E0C4497831884204D1C449C14A103AD3
:1051E000D1605CE0BF499031884204D1C049BD4ADA
:1051F000103AD16053E0BB49A831884205D14FF045
:105200003D51B84A103AD16049E0BA49884204D1C8
:105210003D21B84A083A116041E0B6491831884248
:1052200005D14FF47461B34A083A116037E0B149CF
:105230003031884205D14FF47411AE4A083A1160FA
:105240002DE0AC494831884205D14FF07461A94A3C
:10525000083A116023E0A7496031884204D1A2498D
:10526000A44A121F11601AE0A2497831884204D181
:105270009E49A04A121F116011E09E499031884258
:1052800004D19B499B4A121F116008E09949A8313B
:10529000884204D14FF03D51964A121F1160704769
:1052A00010B500220268944B1A40CC680B68234367
:1052B0004C6923438C692343CC6923430C6A234301
:1052C0004C6A23438C6A23434C6B23438C6B2343EC
:1052D0001A430260426922F00702D1E90B342343EA
:1052E0001A4342610B6943604B6883608B68C360FB
:1052F00010BD0021016041608160C16001614161B8
:105300008161C161016241628162C1620163416385
:105310008163704721B1026842F00102026003E03C
:10532000026822F001020260704721B1026842F473
:105330000042026003E0026822F40042026070470B
:1053400021B1026842F02002026003E0026822F00C
:10535000200202607047416070470146486880B291
:10536000704722B1036843F40023036003E003683D
:1053700023F4002303600161704721B1026842F405
:105380008022026003E0026822F4802202607047FB
:105390000AB1016100E0C1607047014600200A685F
:1053A00002F400220AB1012000E00020704701460B
:1053B00000200A6802F001020AB1012000E000208A
:1053C0007047014600204A6902F03800704730B546
:1053D00003460A4600200024464DAB4202D2414912
:1053E000103901E04349103902F000550DB14C6805
:1053F00000E00C68414D2C4004EA02050DB101208B
:1054000000E0002030BD02463A4B9A4202D23548B5
:10541000103801E03748103801F000531BB1374B0A
:105420000B40C36002E0354B0B408360704710B502
:1054300001F080034BB122B1436943F08003436123
:1054400003E0436923F08003436180290BD02AB134
:10545000036801F01E042343036004E0036801F0C5
:105460001E04A343036010BD70B502460020002453
:105470000025204EB24202D21A4B103B01E01D4BD8
:10548000103B1F4E0E4036B11E2606EAD124166888
:1054900006EA040502E0566906F0800501F00056B0
:1054A0000EB15C6800E01C68144E344004EA01064A
:1054B00016B10DB1012000E0002070BD02460D4B79
:1054C0009A4202D20748103801E00A48103801F029
:1054D00000531BB1094B0B40C36002E0074B0B406C
:1054E00083607047106002403D000020400F0020A4
:1054F00000003D20106402403F801CF07D0F7D0FB6
:105500003C0F3C0F10B504468C48844208D1012161
:10551000084600F000FB0021012000F0FCFA5EE0EC
:105520008748844208D10121022000F0F4FA0021CA
:10553000022000F0F0FA52E08248844208D10121B2
:10554000042000F0E8FA0021042000F0E4FA46E02C
:105550007D48844208D10121082000F0DCFA0021B6
:10556000082000F0D8FA3AE07848844208D10121B6
:10557000102000F0D0FA0021102000F0CCFA2EE02C
:105580007348844208D10121202000F0C4FA002190
:10559000202000F0C0FA22E06E48844208D10121A8
:1055A000402000F0B8FA0021402000F0B4FA16E0E4
:1055B0006948844208D10121802000F0ACFA002122
:1055C000802000F0A8FA0AE06448844207D1012153
:1055D000801500F0A0FA0021A01500F09CFA10BD83
:1055E000F0B50A4600210023002400BF3DE001255C
:1055F00005FA01F3156805EA03049C4234D10568F5
:105600004F000326BE40B543056015794E00B540F6
:105610000668354305601579012D02D01579022DF4
:1056200016D185684F000326BE40B5438560557985
:105630004E00B540866835438560456801268E403A
:10564000B5434560456896798E40B6B235434560AE
:10565000C5684F000326BE40B543C560D5794E00EE
:10566000B540C6683543C560491C1029BFD3F0BD9D
:105670004FF6FF7101600021017141718171C171AB
:10568000704708B54FF480320092009A0A430092A6
:10569000009AC261C161009AC261C2690092C26986
:1056A000009208BD0246002013690B400BB1012097
:1056B00000E0002070470146086980B2704702464A
:1056C000002053690B400BB1012000E0002070471F
:1056D0000146486980B27047018370474183704733
:1056E0000AB1018300E0418370474161704742691C
:1056F0004A4042617047F0B5002300244D07ED0E8B
:1057000002FA05F3CE1000F1200555F826504E0799
:10571000F70E0F26BE40B543CF1000F1200646F825
:105720002750CE1000F1200555F8265045EA030415
:10573000CE1000F1200545F82640F0BD00000240E3
:105740000004024000080240000C02400010024029
:105750000014024000180240001C024000200240D9
:10576000FA48006840F00100F84908600020F74955
:1057700008310860F5480068F5490840F3490860B9
:10578000F448091D0860081F006820F48020091FE4
:1057900008600020ED490C31086070470021EB4A99
:1057A000921C117011460870704710B50146002216
:1057B000002300204A11012A02D1E44C236808E0AA
:1057C000022A03D1E14C7034236802E0DF4C7434C8
:1057D000236801F01F02012494401C400CB10120F9
:1057E00000E0002010BD38B5002000900024002506
:1057F00000BF3120FFF7D9FF05460098401C0090FC
:105800000098B0F5A06F01D0002DF2D03120FFF745
:10581000CCFF08B1012400E00024204638BD014639
:105820000020CA4A106820F0F80040EAC100106069
:105830007047C949086070470021C44A703211702E
:105840001170012802D004280AD104E00121BF4AC6
:105850007032117005E00521BC4A7032117000E011
:1058600000BF00BF7047BD490860704770B5049C19
:1058700041EA82150126C6EB530645EA0645054373
:1058800045EA0465B14E361D356070BDB249086603
:105890007047820142EA0172AC4B84331A60704750
:1058A000AD4988667047AC49C8647047024600201D
:1058B000A64B0833186820F0EC6042EA0103184355
:1058C000A24B083318607047024600209F4B0833F4
:1058D000186820F0784042EA010318439B4B0833D4
:1058E0001860704701460020984A0832106820F07E
:1058F000030008431060704794480830006800F0C7
:105900000C00704701460020904A0832106820F0D1
:10591000F000084310607047014600208B4A0832AF
:10592000106820F4E05008431060704701460020E2
:10593000864A0832106820F4604040EAC1001060D6
:105940007047F0B500210022002402250026022322
:105950007E4F08373F6807F00C0121B1042905D0BC
:10596000082937D105E07E4F076036E07D4F07609C
:1059700033E0764F3F1D3F68C7F38056734F3F1D9E
:105980003F6807F03F036EB1764FB7FBF3F7DFF8E0
:10599000BCC10CF1040CDCF800C0CCF3881C07FB84
:1059A0000CF40CE06E4FB7FBF3F7DFF8A0C10CF17D
:1059B000040CDCF800C0CCF3881C07FB0CF4634F2C
:1059C0003F1D3F68C7F301477F1C7D00B4FBF5F71F
:1059D000076002E0624F076000BF00BF5B4F0837FF
:1059E0003F6807F0F00109095F4F7A5C0768D7400C
:1059F0004760564F08373F6807F4E051890A5A4F0D
:105A00007A5C4768D7408760504F08373F6807F493
:105A10006041490B544F7A5C4768D740C760F0BD7E
:105A2000002100F44072B2F5407F0AD1474A0832A3
:105A3000116821F4F8114D4A02401143434A0832DB
:105A40001160424A70321268C0F30B031A433F4B95
:105A500070331A60704741494439086070473F49C4
:105A600040390860704742490860704739B1374A89
:105A7000303212680243354B30331A6006E0334A45
:105A8000303212688243314B30331A60704739B17B
:105A90002E4A3432126802432C4B34331A6006E02B
:105AA0002A4A343212688243284B34331A607047D2
:105AB00039B1264A383212680243244B38331A600F
:105AC00006E0224A383212688243204B38331A608B
:105AD000704739B11D4A4032126802431B4B4033B4
