:020000040800F2
:1000000068AF002001660008096600080B6600085A
:100010000D6600080F660008116600080000000069
:10002000000000000000000000000000136600084F
:100030001566000800000000AF83000893850008E3
:100040001B6600081B6600081B6600081B6600088C
:100050001B6600081B6600081B6600081B6600087C
:100060001B6600081B6600081B6600081B6600086C
:100070001B6600081B6600081B6600081B6600085C
:100080001B660008252700081B6600081B66000881
:100090006B0500081B6600081B6600081B6600084D
:1000A0001B6600081B6600081B6600081B6600082C
:1000B0001B0C00083F0E00081B6600081B660008AA
:1000C0001B6600081B6600081B6600081B6600080C
:1000D0001B6600081B6600084F2700081B66000807
:1000E0001B6600081B6600081B6600081B660008EC
:1000F0001B6600081B6600081B6600081B660008DC
:100100001B6600081B6600081B6600081B660008CB
:100110001B6600081B6600081B6600081B660008BB
:100120001B6600081B6600081B6600081B660008AB
:100130001B6600081B6600081B6600081B6600089B
:100140009F0800087D0900081B6600081B66000860
:100150001B6600081B6600082F2600081B660008A7
:100160001B6600081B6600081B6600081B6600086B
:100170001B6600081B6600081B6600081B6600085B
:100180001B6600081B660008DFF80CD008F0D6FCE0
:10019000004800475303000868AF002030BF72B624
:1001A000704762B6704780F3088870474FF49674C2
:1001B00000231A461946184604F07CFA204608F037
:1001C00023F8F5E7814C204604F064F9052008F097
:1001D0001BF8204604F05EF9052008F015F82046CB
:1001E00004F058F9052008F00FF8794EDFF8E4A183
:1001F000DFF8E481794C4FF0000944F620674FF4B2
:10020000FA7B3078D0B19AF804015546B0B1D8F8ED
:1002100000004042A060C4F89800384607F0F4FFA0
:1002200035F8D40F00F5B47028804D4686F800905C
:10023000384607F0E9FFA560C4F89850584607F023
:10024000E3FFDEE7664E80274FF02008DFF8949149
:100250004FF47A7A04F01BF899F80010484629B157
:1002600010217183416800254C6824E004F069F88E
:1002700025E02088010726D000F00F01802004F03F
:100280008EF82078C0F30311402004F088F820880D
:10029000C0F30321202004F082F86468504607F080
:1002A000B3FF402030833783A6F8188041F2707086
:1002B00007F0AAFF6D1C99F80000A842D9DC50464F
:1002C00007F0A2FFC6E737832078C0F30311402070
:1002D00004F065F8A6F81A80DFE74FF47A7402F0AC
:1002E000ECFC204607F090FFF9E710B508F064F940
:1002F00008F03CF80446002007F0DBFA3A491923DD
:100300003A4A086000213A4807F0C2FC1E23394AE5
:100310000021394807F0BCFC2823384A002138481E
:1003200007F0B6FC3723374A0021374807F0B0FC06
:10033000642007F069FF002004F061F8022004F057
:1003400092F8052007F0B5FE2046BDE8104008F001
:1003500011B810B540F6B83003F0D0FE06F0E1F861
:100360002A4908684FF6FF021040294A10430860E6
:100370002848016841F00701016003F0D7FF04F04D
:1003800067F804F025F803F0CFFE00F04BF800F01A
:100390000DF902F0E5F802F06DF900F029FD00F02A
:1003A0001BFC02F08AF803F068FC02211A4803F0F3
:1003B000FBFC06F099F90523184A0021184807F0BC
:1003C00067FC06F085FA002010BD000000640040C4
:1003D0002A000020382100202C000020A429002021
:1003E000000002403000002000000020C40C00206B
:1003F000DB020008C40E002045020008C41E0020D5
:10040000C5010008C4200020AD0100080CED00E08B
:100410000000FA053038024024470020C4040020C0
:10042000EB020008F0B501218BB0480605F0E2FDB3
:100430000121084605F0C0FD594C09220B21204638
:1004400005F076FC09220C21204605F071FC4FF4E2
:10045000C051022508918DF8245008A9204605F0C6
:10046000F3FB00248DF816408DF8174008208DF816
:1004700012408DF8140003264A4F8DF8134006945D
:100480008DF81560ADF8106004A9384604F07BFEC5
:1004900046F22000ADF8000046F24000ADF8020040
:1004A0008DF80A5046F260000125ADF804004FF4C3
:1004B000C1408DF80B508DF80C40ADF80600ADF83A
:1004C00008408DF80D50684604F0D1FE04208DF8E8
:1004D0000A0046F2A000ADF8000046F2C000ADF8F8
:1004E000020046F2E000ADF804004FF4C2408DF87F
:1004F0000B508DF80C40ADF80600ADF808408DF8B3
:100500000D50684604F0B3FE05208DF80A0046F24F
:100510002010ADF800004FF4C440ADF802004FF4D5
:10052000C840ADF8040046F220408DF80B508DF81D
:100530000C40ADF80600ADF808408DF80D50684647
:1005400004F095FE14208DF81C008DF81D608DF8C8
:100550001E408DF81F5007A804F0AFFD01220221B4
:10056000384605F0B3F80BB0F0BD10B50D4C86B0B1
:100570000221204605F0E2F800280FD00221204693
:1005800005F02DF90221204605F0C2F86A46002147
:10059000204604F0B7FF04490320887006B010BD60
:1005A00000000240006400404800002070B50121B6
:1005B0008AB0880605F01EFDFF4C09220521204661
:1005C00005F0B6FB09220621204605F0B1FB6021AB
:1005D000022608918DF8246008A9204605F034FB16
:1005E00040208DF810008DF8116000258DF8125014
:1005F00001248DF8134004A804F05FFD41208DF81C
:1006000010008DF811608DF812408DF8134004A889
:1006100004F053FD8DF81A508DF81B5008208DF80A
:1006200018008DF8165003208DF81750E34E8DF802
:100630001900ADF81400079505A9304604F0A3FD94
:100640000E208DF80A0044F22000ADF8000044F2BC
:100650004000ADF8020044F26000ADF804004FF431
:1006600081408DF80B408DF80C50ADF80600ADF8C8
:1006700008508DF80D40684604F0F9FD0F208DF804
:100680000A0044F2A000ADF8000044F2C000ADF84A
:10069000020044F2E000ADF804004FF482408DF80F
:1006A0000B408DF80C50ADF80600ADF808508DF8F1
:1006B0000D40684604F0DBFD10208DF80A0045F27D
:1006C0002000ADF8000045F24000ADF8020045F210
:1006D0006000ADF804004FF4A1408DF80B408DF898
:1006E0000C50ADF80600ADF808408DF80D40684696
:1006F00004F0BDFD11208DF80A0045F2A000ADF810
:10070000000045F2C000ADF8020045F2E000ADF88F
:1007100004004FF4A2408DF80B408DF80C50ADF85A
:100720000600ADF808408DF80D40684604F09FFDC6
:1007300012208DF80A0043F22000ADF800004FF4BB
:100740004150ADF8020043F26000ADF804004FF4F0
:1007500042508DF80B408DF80C50ADF80600ADF806
:1007600008408DF80D40684604F081FD13208DF897
:100770000A0043F2A000ADF800004FF44350ADF87A
:10078000020043F2E000ADF804004FF444508DF84D
:100790000B408DF80C50ADF80600ADF808408DF810
:1007A0000D40684604F063FD14208DF80A00ADF892
:1007B00000504FF49040ADF802004FF6FF70ADF8D6
:1007C00004004FF478408DF80B508DF80C40ADF8D4
:1007D0000600ADF808408DF80D40684604F047FD6E
:1007E00015208DF80A004BF22000ADF800004BF206
:1007F00040004BF280018DF80B408DF80C50ADF8A5
:100800000200ADF80410ADF80610ADF808408DF800
:100810000D40684604F02BFD16208DF80A004FF4B9
:100820008150ADF800004FF48250ADF802004FF453
:100830008350ADF804004FF484508DF80B408DF8D0
:100840000C50ADF80600ADF808408DF80D40684634
:1008500004F00DFD17208DF80A004FF48550ADF817
:1008600000004FF48650ADF802004FF48750ADF809
:1008700004004FF488508DF80B408DF80C50ADF803
:100880000600ADF808408DF80D40684604F0EFFC16
:1008900001221021304604F019FF0AB070BD10B5D6
:1008A000464C02212DED048B86B0204604F046FF15
:1008B00000285FD06A460021204604F023FE022172
:1008C000204604F08CFF0098A0F20120072851D8A0
:1008D0009DF8091000294DD1C4B20DF10B0003A9F8
:1008E00001F0FAFD0DF10D00411C01F0F5FD0DF1D7
:1008F0000F0004A901F0F0FD04EB840000EBC4023A
:100900002F48BDF80B1000EB02142184BDF80D0038
:100910002083BDF80F00E082B4F8C00007F09EFF0E
:1009200041EC190B94F8C20007F098FF41EC180B4A
:10093000E069DFED240A00EE100AB8EEC00A20EEEE
:10094000200A10EE100A07F0CEFF53EC182B07F028
:1009500005FF53EC192B07F001FF94ED321B53EC0C
:10096000112B07F0FBFE07F086FFA08207F0DCFCEE
:10097000C4F8B80006B0BDEC048B10BD2DE9F04101
:100980000E4C86B01021204604F0D8FE00287DD001
:100990006A460121204604F0B5FD1021204604F0EE
:1009A0001EFF1021204604F0B3FE9DF80800042825
:1009B0006CD19DF8090007E0000402400068004087
:1009C000382100200000B44300285FD1019800279F
:1009D00009217A4E059700F0FE05B1EB102F7CD16E
:1009E0000DF10B0005A9B7EE000A804603F06EFB7F
:1009F000019805EBC501C0B200EBC00006EB00108A
:100A000006EB011490F88C0000EE900AF8EE600AF4
:100A100080EE201ABDEEC10A10EE100AE06105A9B1
:100A20009FED670A404603F05DFBBDEEC00A10EE85
:100A3000100A208305A9B2EE040A404603F052FBD7
:100A400084ED080A0DF11100411C483401F044FD09
:100A5000BDF8110024F81E0F34F8020B34F8061903
:100A6000401A24F8020B14F8640918B184F8647071
:100A7000A4F86270B4F86600A4F86800B4F96200E3
:100A80000028B4F9620000DC404200E02CE0B0F540
:100A9000E16F11DDB4F96210B4F96200002802DAE6
:100AA0004FF0FF3000E001206FF0E00210FB02F099
:100AB00001EB0010A4F86200606AB4F96210084407
:100AC00060622069616A401A6067607828B194EDBD
:100AD000080A84ED1B0A606A206707F025FC05EB15
:100AE000C50106EB0111C86506B0BDE8F08110B57F
:100AF000044600EB840000EBC401324800EB011017
:100B0000B0F90610002902DDB0F9062002E0B0F9C4
:100B100006104A42B0F8C4108A4209DDB0F9062036
:100B2000002A02DA4FF0FF3200E001224A43C2807D
:100B30000178002201B9C2802349042C02D24FF46B
:100B4000007301E040F2FF130B604A720A72082240
:100B50008A72C38804F00B0201EB420020F80B3FBD
:100B6000411C01F0B9FC032C01D0072C05D1BDE8D4
:100B700010401549154804F035BC10BD10B586B0BD
:100B80000C461349019100218DF8091004218DF8BC
:100B9000081003218DF80A1056218DF80B104C21F6
:100BA0008DF80C108DF80D408DF80E006946074841
:100BB00004F018FC0748447006B010BDA4290020BA
:100BC00000007A4438210020C8200020006800403E
:100BD00001010300642E00207F48016841F00101FB
:100BE0000160000641F65731C1620B210185018881
:100BF00041F480710180018A21F001010182818923
:100C000041F001018181018841F00101018003234C
:100C10001C220121084603F085BD2DE9F0474FF065
:100C20008049B9F81000C0077ED00025DFF8ACA1DC
:100C30006B4E2F464FF0130805EBC5010AEB01146C
:100C4000204601F042FA207880B3607878B3A0782B
:100C5000072834D2DFE800F01004182C33222600D5
:100C6000B4F90400002100EE100A681CC0B2B8EE0E
:100C7000C00A01F051FB22E0681C94ED050AC0B2E5
:100C8000002101F015FB1AE0A16894F88C00002205
:100C90004143681CC0B201F021FA10E0E8B201F053
:100CA00049FA0CE0E8B201F0C1FA08E025E0FFE7FC
:100CB000681C94ED1E0AC0B2002101F061FB20788F
:100CC00008B307F031FBE16D401AB4F860108842B8
:100CD00019D994F85800401CC0B284F858000A286A
:100CE00013D9012084F82D0008EB051080B240F4E0
:100CF0008071706801F010FC15E0681CC0B2002122
:100D00009FED380AB5E784F8587008EB051080B2FB
:100D100084F82D7040F48071706801F0F5FB014695
:100D2000706801F0DEFB00E002E06D1C042D83DB47
:100D3000B9F8101021F00101A9F81010BDE8F087F2
:100D40002DE9F047284A1078411C1170002603282D
:100D500005D9167000220121104600F0E2FEDFF8EE
:100D60008C901F4F00254FF0120805EB850109EB11
:100D700001146078D0B107F0D7FA216C401AB4F8AA
:100D80004410884212D994F83C00401CC0B284F848
:100D90003C000A280CD90120E07708EB051080B24E
:100DA00040F48071786801F0B7FB0EE084F83C6095
:100DB00008EB051080B2E67740F48071786801F0A6
:100DC000A3FB0146786801F08CFB6D1C042DCCDB85
:100DD000B4E770477047704740380240A4290020AC
:100DE000300000200000000004000020E027002068
:100DF0001E48016841F0020101601D4942F227309E
:100E000008600720091F088019482C38018841F420
:100E10008071018016491C390A8822F001020A807B
:100E2000091F0A8842F001020A80018841F001018D
:100E3000018003231D220021012003F073BC10B5A3
:100E40000B4C1C3C2088C0070BD00A490A4802F012
:100E50001DFF0A48407A20B102220649084802F0E4
:100E6000C2FF208820F00100208010BD40380240E1
:100E70002C040040B863002000680040642E00206D
:100E8000244700202DE9F04FFF494FF400502DED8D
:100E9000088B81B0088010310880103924208870B8
:100EA000103113208870103942F2283088801031B8
:100EB00043F6991088809FEDF50BF34801274FF416
:100EC0007A7880ED020B103080ED020B1030002696
:100ED0000772A0F80A80067306709FEDEE0A4FF4C1
:100EE000FA7180ED010AC181A0F8108089001430E8
:100EF00000F1240ADFF890B381830BF1100055460E
:100F000090E80E00DBF81C00C5E93230C5E930126C
:100F10008AF800608AF8017004208AF802004FF213
:100F20005420AAF804004FF06409AAF80890AAF81F
:100F30000690DAF80C1005F13C009FEDD78AF0EE30
:100F4000481ADFEDD68AB0EE681A9FEDD59AB1EE59
:100F5000040AF0EE490A03F031F8B5F9081005F17A
:100F60006400F7EE001AB0EE681ADFEDCE9AB2EE2A
:100F7000000AF0EE690A03F021F805F18C00142252
:100F8000AAF1380107F038FB0BF11000544690E845
:100F90000E00DBF81C00C4E96630C4E9641204F8F2
:100FA000D06F05206770A070A680A4F80880A4F810
:100FB0000690E96804F13C00F0EE481AB0EE681AB9
:100FC000F0EE490AB1EE040A02F0F8FFB5F9081094
:100FD00004F16400F7EE001AB0EE681AF0EE690A48
:100FE000B2EE000A02F0EAFF04F18C001422AAF12A
:100FF000380107F001FBAAF124080025D34608F1C7
:1010000008009FEDA9BB009005EB85009E4F00EB0B
:10101000C5010BEB0114786B04F18006C4F8A00045
:10102000D8F80400C4F8A40004F1A8000A2200992A
:1010300007F0E2FAB8F81200A4F8B200B86CF96C44
:101040003A6D343686E80700B4F8C000843407F0FF
:1010500005FC8A4607464AEC1A0B94F83E0007F056
:10106000FDFB8946064649EC190BE06807F03BFC9E
:1010700094ED118B53EC182B07F0FEFA53EC192B5F
:1010800007F0FAFA53EC1A2B07F0F6FA53EC1B2B85
:1010900007F064FB07F00EFCE0614AEC1A7B49ECB8
:1010A000196B34F9800C07F0C8FB53EC182B07F0D0
:1010B000E3FA53EC192B07F0DFFA53EC1A2B07F085
:1010C000DBFA53EC1B2B07F049FB07F0D4FB44F889
:1010D000780C6D1C082D97DB01B0BDEC088BBDE8CA
:1010E000F08F00EB800101EBC001674810B558306C
:1010F00000EB0114D4ED1D0AB4F9080000EE100A4B
:10110000B8EEC00A20EE800ABDEEC00A10EE100A4A
:101110006066B4F91800E06704F1640002F05DFF56
:10112000E088A16F0844E08010BD70B500EB80013D
:1011300001EBC001544858302DED048B00EB011435
:10114000B4F8C00007F08AFB41EC190B94F8C20018
:1011500007F084FB41EC180BB4F9040007F06DFBB9
:1011600094ED320B53EC102B07F086FA53EC182B4E
:1011700007F082FA53EC192B07F07EFA9FED4A1B19
:1011800053EC112B07F0EAFA07F075FBE060E0681A
:10119000E063607810B9D4F8A400E06394F88C00A0
:1011A0004FF0FF3590B1E06B002801DDE16B01E00D
:1011B000E06B4142D4F8A000814207D9E16B0029DD
:1011C00001DA294600E001214143E163E0696065FD
:1011D00004F13C0002F001FF94F8940080B1606ECD
:1011E000002801DD616E01E0606E4142B4F89600B6
:1011F000814205DD616E002900DB012545436566FE
:10120000B4F91800E06704F1640002F0E6FEE0883B
:10121000A16F0844E080D4F8AC00002800DC404214
:101220003C2801DA012000E0002084F83400BDEC05
:10123000048B70BD00EB800101EBC001124810B5BA
:10124000583000EB0114B4F99A006066B4F9180044
:10125000E06704F1640002F0C0FEE088A16F08447A
:10126000E080B4F906000028B4F9060000DC404232
:1012700005492031098A88421DDDB4F9060000289D
:1012800016DA4FF0FF3014E0E020002000000000EC
:101290000000F03F0000FA43CDCCCC3E000000003F
:1012A000CDCC4C3E9A99993E0000000000807640DB
:1012B00001204843E080B4F9A800002131306228C1
:1012C00010D8B4F8B000401C80B2A4F8B000FA28DE
:1012D00007D9A4F8B010E1610520A070012084F8BE
:1012E000350010BDA4F8B01010BD2DE9F05F002549
:1012F000DFF840A1504F4FF4FA5B4FF001082E4643
:101300004FF0110905EB850000EBC5010AEB011454
:10131000208C218E401A00B2A4F8A800A18AA184D2
:10132000E18AE184218B2185E169E162218C2186BA
:1013300000F57A6159450BD9002802DA4FF0FF31E8
:1013400000E00121B4F8C02001FB1200A4F8A800BD
:10135000E069B4F9A8100844E061E069E168401A66
:10136000C4F8AC00207808B3B4F90610B4F8C4008F
:10137000091A0029B4F9061001DD081A00E0401A24
:10138000322813DDB4F8B200401CA4F8B200B4F85F
:10139000B200B0F57A7F06D984F8368094F89800C8
:1013A00030B1267004E084F8366001E0A4F8B26041
:1013B000607810B1E069C4F8A40094F8390018B15D
:1013C00084F83960E661A6822078F0B106F0ACFFBF
:1013D000D4F8B810401AB4F8BC10884215D994F863
:1013E000B400401CC0B284F8B4000A280AD909EB42
:1013F000051080B284F8378040F48071786801F07D
:101400008BF810E084F837600DE009EB051080B22E
:1014100084F8B46040F48071786801F075F8014692
:10142000786801F05EF86D1C082DFFF66BAFBDE823
:10143000F09F000038210020300000202DE9F0410D
:10144000FE494FF48040B7EE000A088081ED010AA2
:101450000831088081ED010A08314FF47A60088074
:101460009FEDF70A81ED010A083108809FEDF50A2A
:10147000F54881ED010A002101709FEDF40A4FF457
:101480007A7280ED010A0172428101735110C181AB
:101490000282ED4F88001437EB4E3882002407F1AA
:1014A000140804EB840108EB011505F12000142257
:1014B000E54907F0A1F870696863308B2887F888E0
:1014C0006887F069316A726A3C35641C85E80700F8
:1014D000052CE6DBBDE8F08100B585B000218DF874
:1014E00009108DF8081008228DF810108DF80A20C8
:1014F0008DF811100091012203918DF812108DF8D2
:101500000B20694603F06EFF05B000BD0FB4D04953
:101510002DE9F0414A880E88551CDDE9083405F0B4
:101520003F05B54206D1CB490120C872BDE8F001A4
:101530005DF814FB01EB021200F5407050609DF85D
:101540001C00412543260022012802D0022816D083
:101550002FE04C88042001EB04142072488801EB32
:1015600000104572488801EB00108672488801EB34
:101570000010C272488801EB0010027319E04F8816
:10158000082001EB07173872488801EB00104572FC
:10159000488801EB00108672488801EB0010C27287
:1015A000488801EB00100273488801EB0010C0F876
:1015B0000D40488801EB001043748878401C00F00F
:1015C0003F004880B2E730B5A14A538815885C1CBB
:1015D00004F03F04AC4203D19E490120C87230BDE3
:1015E00002EB031300F5407058605388042002EBAF
:1015F000031318725388422002EB03135872538866
:10160000472002EB031398725388002002EB031368
:10161000D872538802EB03131873508802EB001042
:1016200041749078401C00F03F00508030BD0FB4F2
:1016300087492DE9F0414A880E88551CDDE90834B8
:1016400005F03F05B54203D182490120C8726DE71C
:1016500001EB021200F5407050609DF81C0044251B
:1016600043260022012802D0022816D02FE04C8801
:10167000042001EB04142072488801EB001045722D
:10168000488801EB00108672488801EB0010C27296
:10169000488801EB0010027319E04F88082001EB25
:1016A00007173872488801EB00104572488801EB33
:1016B00000108672488801EB0010C272488801EB66
:1016C00000100273488801EB0010C0F80D404888F4
:1016D00001EB001043748878401C00F03F00488004
:1016E00024E70FB45A492DE9F0414A880D88541C6B
:1016F000DDE9083704F03F04AC4203D1554901202D
:10170000C87213E701EB021200F5407454609DF8B3
:101710001C204A2556260024012A02D0022A16D06F
:101720003BE04A88042001EB02121072488801EB6A
:1017300000104572488801EB00108672488801EB62
:101740000010C472488801EB0010047325E03E4A83
:1017500000EB8000283202EB00103C2230F8080C2D
:10176000784390FBF2F04F88082201EB07173A729A
:101770004A8801EB021255724A8801EB02129672F6
:101780004A8801EB0212D4724A8801EB02121473E8
:101790004A8801EB0212C2F80D00488801EB0010E4
:1017A00043748878401C00F03F004880BEE630B5A6
:1017B000274A538815885C1C04F03F04AC4203D1CF
:1017C00024490120C87230BD02EB031300F54070BC
:1017D00058605388042002EB031318725388492081
:1017E00002EB031358725388512002EB03139872D3
:1017F0005388002002EB0313D8725388802002EB39
:1018000003131873508802EB001041749078401C49
:1018100000F03F00508030BD0FB40D492DE9F0417C
:101820004A880E88551CDDE9083405F03F05B542AD
:1018300012D108490120C87278E600000800002093
:10184000CDCC6C40E4389641B827002000003444E9
:10185000B8630020642E002001EB021200F54070F6
:1018600050609DF81C204D254F260020012A02D0F3
:10187000022A17D03BE04C88042201EB04142272A8
:101880004A8801EB021255724A8801EB02129672E5
:101890004A8801EB0212D0724A88402001EB021202
:1018A000107324E04F88082201EB07173A724A8828
:1018B00001EB021255724A8801EB021296724A88B5
:1018C00001EB0212D0724A8801EB021210734A88AF
:1018D00001EB021254734A8801EB021290734A889A
:1018E00001EB0212D0734A8801EB0212107448888F
:1018F00001EB001043748878401C00F03F004880E2
:1019000014E610B586B0002300F5407000908DF805
:1019100008304D204F248DF80930012902D00229CA
:101920000CD01EE004218DF80C408DF80A108DF8C3
:101930000D308DF80B008DF80E3012E08DF80C4054
:1019400008218DF80D308DF810308DF80A108DF8C3
:101950000E308DF811308DF80B008DF80F208DF8BA
:1019600012306946FC4803F03DFD06B010BD0FB4CF
:10197000FA492DE9F0414A880D88541CDDE9083701
:1019800004F03F04AC4203D1F5490120C872CDE513
:1019900001EB021200F5407454609DF81C205025A4
:1019A00041260024012A02D0022A16D047E04A88A4
:1019B000042001EB02121072488801EB00104572FE
:1019C000488801EB00108672488801EB0010C47251
:1019D000488801EB0010047331E000EB8002E1481D
:1019E00000EB021010ED010A9FEDDF1A30F8080C31
:1019F00078434F88C0EE010A01EB071708223A72BC
:101A00004A8800EE100A01EB021255724A88B8EEBD
:101A1000C00A01EB021296724A8801EB021220EE14
:101A2000800AD4724A8801EB0212BDEEC00A147318
:101A30004A8810EE100A01EB0212C2F80D00488825
:101A400001EB001043748878401C00F03F00488090
:101A50006CE530B5C14A538815885C1C04F03F041E
:101A6000AC4203D1BE490120C87230BD02EB031362
:101A700000F5407058605388042002EB031318727D
:101A80005388502002EB031358725388452002EB11
:101A9000031398725388002002EB0313D872538803
:101AA00002EB03131873508802EB00104174907816
:101AB000401C00F03F00508030BD30B5A74A53882D
:101AC00015885C1C04F03F04AC4203D1A4490120FA
:101AD000C87230BD02EB031300F5407058605388A4
:101AE000042002EB031318725388502002EB0313F7
:101AF00058725388522002EB0313987253880020C7
:101B000002EB0313D872538802EB03131873508847
:101B100002EB001041749078401C00F03F005080B0
:101B200030BD0FB48D492DE9F0414A880E88551C0F
:101B3000DDE9083405F03F05B54203D188490120AD
:101B4000C872F3E401EB021200F5407050609DF89A
:101B50001C00502558260022012802D0022816D049
:101B60002FE04C88042001EB04142072488801EB1C
:101B700000104572488801EB00108672488801EB1E
:101B80000010C272488801EB0010027319E04F8800
:101B9000082001EB07173872488801EB00104572E6
:101BA000488801EB00108672488801EB0010C27271
:101BB000488801EB00100273488801EB0010C0F860
:101BC0000D40488801EB001043748878401C00F0F9
:101BD0003F004880AAE40FB460492DE9F0414A88EB
:101BE0000E88551CDDE9083405F03F05B54203D1E8
:101BF0005B490120C87299E401EB021200F54070C4
:101C000050609DF81C00532544260022012802D074
:101C1000022816D02FE04C88042001EB0414207217
:101C2000488801EB00104572488801EB001086726D
:101C3000488801EB0010C272488801EB0010027363
:101C400019E04F88082001EB07173872488801EB2C
:101C500000104572488801EB00108672488801EB3D
:101C60000010C272488801EB00100273488801EB33
:101C70000010C0F80D40488801EB001043748878CC
:101C8000401C00F03F00488050E40FB433492DE978
:101C9000F0414A880D88541CDDE9083704F03F0400
:101CA000AC4203D12E490120C8723FE401EB02127D
:101CB00000F5407454609DF81C20532550260024E4
:101CC000012A02D0022A17D03BE04A88042001EB07
:101CD00002121072488801EB00104572488801EB2F
:101CE00000108672488801EB0010C4724A884020B8
:101CF00001EB0212107324E01A4A00EB800002EBA1
:101D000000103C2230F8080C784390FBF2F04F882A
:101D1000082201EB07173A724A8801EB021255724A
:101D20004A8801EB021296724A8801EB0212D472C1
:101D30004A8801EB021214734A8801EB0212C2F8BE
:101D40000D00488801EB001043748878401C00F0B7
:101D50003F00488036E4000000640040B863002083
:101D6000642E0020E02700200000B44330B58C4AE8
:101D7000538815885C1C04F03F04AC4203D18949A8
:101D80000120C87230BD02EB031300F540705860AB
:101D90005388042002EB031318725388532002EB7C
:101DA000031358725388542002EB0313987253881C
:101DB000002002EB0313D872538802EB031318734D
:101DC000508802EB001041749078401C00F03F00F6
:101DD000508030BD0FB4724970B54A880D88541CCC
:101DE000069B9DED070A04F03F04AC4205D16D4906
:101DF0000120C87270BC5DF814FB01EB021200F503
:101E0000407050609DF814000022022825D1B8EEE1
:101E1000C00ADFED650A4D88082401EB051580EE48
:101E2000201A2C724D88542401EB05156C724D88D4
:101E3000432401EB0515AC724C8801EB0414E272EB
:101E40004C88BDEEC10A01EB041422734A8810EEDF
:101E5000100A01EB0212C2F80D00488801EB0010D5
:101E600043748878401C00F03F004880C2E70FB4FC
:101E70004B492DE9F0414A880E88551CDDE90834AC
:101E800005F03F05B54203D146490120C87227E459
:101E900001EB021200F5407050609DF81C205525A2
:101EA0004D260020012A02D0022A16D03AE04C88A2
:101EB000042201EB041422724A8801EB02125572CB
:101EC0004A8801EB021296724A8801EB0212D07224
:101ED0004A8801EB0212107324E04F88082201EBBC
:101EE00007173A724A8801EB021255724A8801EBD1
:101EF000021296724A8801EB0212D0724A8801EBF4
:101F0000021210734A8801EB021254734A8801EBE3
:101F1000021290734A8801EB0212D0734A8801EBD7
:101F200002121074488801EB001043748878401C3A
:101F300000F03F00488039E430B5194A53881588CD
:101F40005C1C04F03F04AC4203D116490120C87266
:101F500030BD02EB031300F5407058605388042035
:101F600002EB031318725388562002EB03135872C6
:101F70005388582002EB031398725388002002EB19
:101F80000313D872538802EB03131873508802EBC3
:101F9000001041749078401C00F03F00508030BD2C
:101FA000B8630020642E00200000C8422DE9F05FD5
:101FB000DFF8F0B307212DED028B0BF101028BF856
:101FC000001015201070F848002447F230520471B8
:101FD0008260012505734FF47A720261F24E50005F
:101FE000143606F120073081357387F88C103C7069
:101FF0007D704FF0020887F802804FF00A09A7F8B9
:1020000004906FF0C70AC7F808A03C61B7EE008AD9
:1020100087ED058A396907F13000DFEDE41ADFED5D
:10202000E48AB0EE681ADFEDE30AB6EE000A01F0CA
:10203000C5FF38469BF8011080F81C1100F8904F3E
:10204000457080F80280A0F80490C0F808A040F81D
:10205000104F80ED018A50F8201BF7EE001AB0EE09
:10206000681ADFEDD50AB6EE000A01F0A7FFDFF827
:102070003883002505EBC50007EB001404F1780058
:102080001422C94906F0B8FAC74904F158000A22D7
:10209000143106F0B1FA7089A4F86200B8F8201083
:1020A00024F8641FF1896180318AA180D8F8281052
:1020B000D8F82C00C4E90210F06920616D1C042DD1
:1020C000D8DBBDEC028BBDE8F09F90F82E10002904
:1020D00003D0002180F82E1041627047F8B5054604
:1020E000B64C0020009063881646581C228800F0E9
:1020F0003F00904203D1B2490120C872F8BD04EB01
:1021000003106A46093001F0B8FFAE480543608805
:1021100004EB001045606188009804EB011108721F
:10212000608804EB00104674A078401C00F03F006B
:102130006080F8BD2DE9F041054600EBC5019A48E5
:10214000343000EB011420692063607808B9206FF7
:10215000206394F87C009C4E4FF0FF3780B1F06B09
:102160000028F06B00DC4042D4F88010884207DD84
:10217000F06B002801DA384600E001204843F063A4
:10218000606AA06404F1300001F027FF96F8940023
:1021900070B1606C0028606C00DC4042B6F89610AC
:1021A000884205DD606C002800DB01274F4367642F
:1021B000616C94F88C0041436D1CE8B2BDE8F041BD
:1021C00000228BE7F8B505467C4C00200090628821
:1021D0000E46501C218800F03F00884203D1784908
:1021E0000120C872F8BDDFED790A04EB02106A46DF
:1021F00020EE200A0930BDEEC00A10EE101A01F0E0
:102200003CFF73480543608804EB0010456061881B
:10221000009804EB01110872608804EB001046740A
:10222000A078401C00F03F006080F8BD014670B50A
:1022300000EBC1025C48343000EB0214606F0028F0
:1022400001DD636F01E0606F4342574A01EBC1005B
:10225000343202EB00124D1C92ED080A616F02F15C
:102260000C00B3F5E16F18DD002902DA4FF0FF3101
:1022700000E0012100EE901AF8EEE00A9FED551AF9
:1022800000EE810A84ED030A02F0CAFB94ED030A12
:10229000E8B2BDE87040002194E700EE901AF2EE3B
:1022A000041AB8EEE01AC1EE210A30EE200AE9E77E
:1022B000F8B50646414C0020009062880D46501C3F
:1022C000218800F03F00884203D13D490120C872B7
:1022D000F8BDDFED410A04EB02106A4620EE200A49
:1022E0000930BDEEC00A10EE101A01F0C6FE61887A
:1022F00046F0704004EB011148606188009804EBDF
:1023000001110872608804EB00104574A078401C2D
:1023100000F03F006080F8BDF8B50546274C00206E
:10232000009062880E46501C218800F03F008842D1
:1023300003D123490120C872F8BDDFED280A04EB60
:1023400002106A4620EE200A0930BDEEC00A10EEE7
:10235000101A01F092FE22480543608804EB001039
:1023600045606188009804EB01110872608804EBF5
:1023700000104674A078401C00F03F006080F8BD5B
:10238000F8B505460D4C0020009062880E46501CA2
:10239000218800F03F00884224D109490120C872F9
:1023A000F8BD00002800002070290020AE47813FC2
:1023B00000000000EC51383DCDCC4C3EB86300200D
:1023C000642E0020000300F038210020002474490E
:1023D000000400F00000F0420050C34700007A44BF
:1023E000000100F05FED030A04EB02106A4620EEE4
:1023F000200A0930BDEEC00A10EE101A01F03DFEB1
:1024000024480543608804EB00104560618800980B
:1024100004EB01110872608804EB00104674A07888
:10242000401C00F03F006080BAE7F8B505461A4C42
:102430000020009062880E46501C218800F03F006A
:10244000884203D115490120C872A9E75FED1D0A32
:1024500004EB02106A4620EE200A0930BDEEC00AE5
:1024600010EE101A01F009FE0D480543608804EBD8
:10247000001045606188009804EB011108726088C3
:1024800004EB00104674A078401C00F03F00608010
:1024900086E70000000200F0B8630020642E0020F0
:1024A000000C00F010B5082007F06CFC0021416022
:1024B00010BD2949012048727047274910B50120F5
:1024C0004872FEF7DFFCFEF7B9FFFFF76FFDFFF77D
:1024D000E9FF2249486010BD0A7803780B7002704A
:1024E000704710B500E0104610B142688A42FAD138
:1024F000002908D04A684260084607F01BFC1749CB
:102500000878401E087010BD03E002888A4202D09D
:1025100040680028F9D1704770B50E460446FFF7B1
:10252000F3FF002809D10D4D297802E06468401CB2
:10253000C0B2814202D9002CF8D170BD002CFCD071
:10254000082007F01FFC0680616841606060287801
:10255000401C287070BD0000642E00203000002058
:102560007CB53D48016841F0100101603A481438DB
:10257000016841F48001016002200121CDE90001E0
:10258000364C024600234FF4C061204602F02DF97C
:1025900007220921204602F018F907220A212046C5
:1025A00002F013F92E4C40F2D92020814FF4037031
:1025B000A081208820F020002080032325220121F3
:1025C000062002F0AFF8A015274D0090254B221DE4
:1025D0000421284601F0DCFF01221021284603F0E7
:1025E00079FA032346220021072002F09BF8A08AF3
:1025F00040F08000A082A08940F40050A0817CBD02
:1026000070B51A4C0D46617B00290FD101462A4650
:10261000144805F0F1FF2946134D284603F003FA4C
:102620000121284603F0E1F90120607370BD70B507
:102630000F4D0D4C2946204603F062FA01280AD1BD
:102640002946204603F035FA2946204603F07BFA56
:1026500006490020487370BD443802400000024023
:1026600000100140E42B0020B8640240642E0020DA
:10267000008000287CB5F748016841F40031016012
:10268000F4481038016841F4001101600220012172
:10269000CDE90001F04C024600230C21204602F057
:1026A000A4F807220221204602F08FF80722032116
:1026B000204602F08AF8E9494FF4B67008800C20F1
:1026C0000C1D2080E5480838018821F02001018098
:1026D000208840F0200020800323262201210420AE
:1026E00002F020F8A015DD4ADE4D0090DC4B121FF1
:1026F0000421284601F04CFF01221021284603F056
:10270000E9F9032311220121072002F00BF8D34835
:102710000C30018841F080010180208840F4005095
:1027200020807CBD70B5D04DCE4C2946204603F0AC
:10273000E7F901280AD12946204603F0BAF92946CB
:10274000204603F000FAC9490020887370BD2DE9C6
:10275000F041C24C40F22531083C204603F05FFEB8
:10276000C34FC44D002618B1204603F0C1FD9BE2C3
:1027700040F225584146204603F051FE002872D011
:102780002021204603F048FE4146204603F066FE25
:10279000204603F0ADFDC1B26878B74A430613D5B1
:1027A000030619D4FF290CD000F03F031344401C4A
:1027B00083F82012687000F03F00282809D96E7055
:1027C00007E040F0800003E0EE2902D140F0400035
:1027D00068706878000646D592F82102012802D177
:1027E00092F823022870A24892F823320121C01DDA
:1027F000A24C062BBBD2DFE803F00327271630EEEE
:1028000092F825020828B2D181F31388BFF34F8FC5
:102810009B4801689B4A01F4E06111430160BFF3EA
:102820004F8F00BFFDE792F82522032A04D0062A25
:102830000BD0082A9BD10DE006F012FC51EC100BD6
:1028400006F019F8904908602EE29048017080F86F
:10285000901029E28E48017026E292F82532DB1EA4
:102860001E2B84D200E026E2DFE803F00F1B232CAE
:10287000353E464F586169727B1A848D969FA8AE8B
:10288000B6BDC4CAD1D8DFE5ECF3002000EB80016F
:1028900001EBC00104EB0111401C0E700828F5DBB0
:1028A00002E206F0DDFB51EC100B06F003F8A0701D
:1028B000FAE106F0D5FB51EC100B05F0FBFF84F8B4
:1028C000D200F1E106F0CCFB51EC100B05F0F2FF69
:1028D00084F8A201E8E106F0C3FB51EC100B05F00F
:1028E000E9FF84F87202DFE106F0BAFB51EC100B4D
:1028F00005F0C1FF2081D7E106F0B2FB51EC100BCF
:1029000005F0B9FFA4F8D800CEE106F0A9FB51EC20
:10291000100B05F0B0FFA4F8A801C5E106F0A0FB7C
:1029200051EC100B05F0A7FFA4F87802BCE106F00B
:1029300097FB51EC100B05F09EFFA080B4E106F070
:102940008FFB51EC100B05F096FFA4F8D400ABE11F
:1029500006F086FB51EC100B05F08DFFA4F8A401E6
:10296000A2E106F07DFB51EC100B05F084FFA4F80A
:10297000740299E106F074FB51EC100B05F09AFF1C
:10298000A4F8960090E106F06BFB51EC100B05F0FB
:1029900091FFA4F8660187E106F062FB51EC100B91
:1029A00005F088FFA4F836027EE106F059FB51ECF1
:1029B000100B05F07FFFA4F8060375E192F82802DA
:1029C00000B1012020706FE192F8280200B10120CF
:1029D00084F8D00068E164E092F8280200B1012098
:1029E00084F8A00160E192F8280200B1012084F887
:1029F000700259E192F8280200B10120607053E1A1
:102A000092F8280200B1012084F8D1004CE192F83C
:102A1000280200B1012084F8A10145E192F82802C2
:102A200000B1012084F871023EE12078002801D134
:102A300084F8391038E194F8D000002801D184F8E6
:102A4000091131E194F8A001002801D184F8D911CD
:102A50002AE11FE0403802400000024008440040E4
:102A6000042D0020A060024000802020642E002061
:102A7000042E002038000020E42B00203821002004
:102A80000CED00E00400FA052C000020A429002031
:102A90002A00002094F87002002801D184F8A912BD
:102AA00002E192F82532DB1E1E2B1BD2DFE803F079
:102AB0000F1B242D363F48515A636C757EFC87905E
:102AC00099A2ABB2B9C0C7CED5DCE3E9F1F70020DB
:102AD00000EB800101EBC00104EB0111401C0E7002
:102AE0000828F5DBE0E006F0BBFA51EC100B05F02E
:102AF000E1FE84F84203D7E006F0B2FA51EC100B85
:102B000005F0D8FE84F81204CEE006F0A9FA51ECE4
:102B1000100B05F0CFFE84F8E204C5E006F0A0FA41
:102B200051EC100B05F0C6FE84F8B205BCE006F0CF
:102B300097FA51EC100B05F09EFEA4F84803B3E0A1
:102B400006F08EFA51EC100B05F095FEA4F818046F
:102B5000AAE006F085FA51EC100B05F08CFEA4F803
:102B6000E804A1E006F07CFA51EC100B05F083FEBE
:102B7000A4F8B80598E006F073FA51EC100B05F0D4
:102B80007AFEA4F844038FE006F06AFA51EC100BC9
:102B900005F071FEA4F8140486E006F061FA51EC29
:102BA000100B05F068FEA4F8E4047DE006F058FA86
:102BB00051EC100B05F05FFEA4F8B40574E006F0CC
:102BC0004FFA51EC100B05F075FEA4F8D6036BE03C
:102BD00006F046FA51EC100B05F06CFEA4F8A604C2
:102BE00062E006F03DFA51EC100B05F063FEA4F82C
:102BF000760559E006F034FA51EC100B05F05AFE58
:102C0000A4F8460650E092F8280200B1012084F8AA
:102C1000400349E092F8280200B1012084F8100432
:102C200042E092F8280200B1012084F8E0043BE081
:102C300092F8280200B1012084F8B00534E092F83F
:102C4000280200B1012084F841032DE092F8280207
:102C500000B1012084F8110426E092F8280200B1A6
:102C6000012084F8E1041FE092F8280200B101205D
:102C700084F8B10518E094F84003A8B984F87913F2
:102C800012E094F8100478B984F849140CE006E0D6
:102C9000FFE794F8E00438B984F8191504E094F8D3
:102CA000B00508B984F8E9156E703846BDE8F04102
:102CB000202105F0BABCBDE8F0812DE9F05FFF4CA2
:102CC000EE20214684F82001B12081F8210122461E
:102CD000102182F822111146002581F82351134654
:102CE00082F82451052183F8255182F826111146D6
:102CF000012681F827614FF0FF0982F82891FC2214
:102D000081F829210A460C2182F82A9182F82B9118
:102D1000EB4A127803F235174FF0150A062A7DD2D6
:102D2000DFE802F07C7C7C032FFDE44AEE2182F890
:102D30002C11114681F82D01122081F82E01084630
:102D400080F82F51042081F8300181F8315181F849
:102D50003201084680F83351DA488268DAA1DB484C
:102D600006F056F9D94805F077FCD44981F83401CA
:102D70003846D64905F077FCD44805F06DFC15308F
:102D80002EE3CE4AEE214FF0120B82F82C111146A1
:102D9000DFF83C8381F82D0181F82EB1084604212B
:102DA00080F82F5180F8301198F802201120002A65
:102DB0007ED0C24880F8315180F8321180F833510A
:102DC000C1A1C24806F024F9C04805F045FCBB4942
:102DD00081F834013846BD4905F045FCBB4805F093
:102DE0003BFC1530C0B22118401CC0B2221881F83B
:102DF00020510821401C82F82011C0B22118401C2B
:102E000081F82051B8F91820C7B2AFA1AF4806F039
:102E1000FFF8AE4805F020FCE11900E0F6E281F889
:102E200020017F1CFFB2E019A84900F5907005F061
:102E30001AFCA64805F010FC3844C0B22118401C0A
:102E4000C0B2221881F820510C21401C82F82011B8
:102E5000C0B22118401C81F82051B8F91420C7B223
:102E600099A19A4806F0D4F8984805F0F5FBE119C5
:102E70007F1C81F82001FFB2E019944900F59070A1
:102E800005F0F1FB914805F0E7FB3844C0B221188A
:102E9000401CC0B2221881F820511121401C82F838
:102EA0002011C0B22118401C81F82051C7B200E0A7
:102EB00051E0B8F8962084A1844806F0A9F8834828
:102EC00005F0CAFBE1197F1C81F82001FFB2E0196F
:102ED0007E4900F5907005F0C6FB7C4805F0BCFB10
:102EE0003844C0B22118401CC0B2221881F82051C9
:102EF000401CC0B2211882F820A1401C81F820514A
:102F0000C0B22118401CC0B2221881F8206198F884
:102F10000010401C82F82011C0B2211800E084E2A9
:102F2000401CC0B2221881F820511921401C82F89F
:102F30002011C0B22118401C81F82051C0B22118C4
:102F4000401CC0B2221881F8206198F80110401C82
:102F500082F82011C0B298F8D2204746002A7DD0CE
:102F60002118401CC0B2231881F820510521401CB3
:102F700083F82011C0B22118401C81F8205100F0C4
:102F8000FF0851A1514806F043F8504805F064FB92
:102F900004EB080181F8200108F1010101F0FF08AC
:102FA00004EB0800494900F5907005F05CFB4748C8
:102FB00005F052FB4044C0B22118401CC0B2221898
:102FC00081F820510921401C82F82011C0B221183B
:102FD000401C81F82051B7F9E82000F0FF083AA121
:102FE0003A48D03706F014F8384805F035FB04EBC2
:102FF000080181F8200108F1010101F0FF0804EB4C
:103000000800324900F5907005F02DFB2F4805F0BF
:1030100023FB4044C0B22118401CC0B2221881F8E2
:1030200020510D21401C82F82011C0B22118401CF3
:1030300081F82051B7F9142000F0FF0822A123489D
:1030400005F0E6FF214805F007FB04EB080181F8D5
:10305000200108F1010101F0FF0800E07EE004EB2F
:1030600008001A4900F5907005F0FDFA174805F0C0
:10307000F3FA4044C0B22118401CC0B2221881F8B3
:103080002051401CC0B2211882F820B181F8205193
:10309000401C00F0FF08B7F896200BA10B4805F084
:1030A000B7FF0A4805F0D8FA04EB080181F82001BF
:1030B00008F1010101F0FF080CE00000E42B002002
:1030C00038000020A429002025640000732E002071
:1030D0003821002004EB0800FE4900F5907005F04F
:1030E000C2FAFC4805F0B8FA4044C0B22118401CAE
:1030F000C0B2221881F820511621401C82F82011FC
:10310000C0B22118401C81F82051C0B22118401CC7
:10311000C0B2221881F8206117F8011B401C82F808
:103120002011C0B22118401CC0B2221881F82051D1
:103130001A21401C82F82011C0B22118401C81F8CD
:103140002051C0B22118401CC0B2221881F8206161
:1031500017F8D119401C82F82011C0B297F8A221AB
:10316000002A7DD02118401CC0B2231881F82051BC
:103170000621401C83F82011C0B22118401C81F8A0
:10318000205100F0FF08AFF2C001D24805F040FF27
:10319000D04805F061FA04EB080181F8200108F13C
:1031A000010101F0FF0804EB0800CA4900F5907026
:1031B00005F059FAC74805F04FFA4044C0B221184B
:1031C000401CC0B2221881F820510A21401C82F80C
:1031D0002011C0B22118401C81F82051B7F9B82144
:1031E00000F0FF08AFF22011BA4805F011FFB9480E
:1031F00005F032FA04EB080181F8200108F1010121
:1032000001F0FF0804EB0800B24900F5907005F0EA
:103210002AFAB04805F020FA4044C0B22118401CF8
:10322000C0B2221881F820510E21401C82F82011D2
:10323000C0B22118401C81F82051B7F9B42100F028
:10324000FF08AFF27C11A34805F0E2FEA14805F0AB
:1032500003FA04EB080181F8200108F1010100E004
:1032600074E001F0FF0804EB08009A4900F5907043
:1032700005F0F9F9974805F0EFF94044C0B221187C
:10328000401CC0B2221881F820511321401C82F842
:103290002011C0B22118401C81F82051B7F8362205
:1032A00000F0FF08AFF2E0118A4805F0B1FE89484E
:1032B00005F0D2F904EB080181F8200108F10101C1
:1032C00001F0FF0804EB0800824900F5907005F05A
:1032D000CAF9804805F0C0F94044C0B22118401C2A
:1032E000C0B2221881F820511721401C82F8201109
:1032F000C0B22118401C81F82051C0B22118401CD6
:10330000C0B2221881F8206197F8A011401C82F801
:103310002011C0B22118401CC0B2221881F82051DF
:103320001B21401C82F82011C0B22118401C81F8DA
:103330002051C0B22118401CC0B2221881F820616F
:1033400097F8A111401C82F82011C0B297F87222A0
:10335000002A7DD02118401CC0B2231881F82051CA
:103360000721401C83F82011C0B22118401C81F8AD
:10337000205100F0FF08AFF2B021564805F048FE9A
:10338000544805F069F904EB080181F8200108F1BF
:10339000010101F0FF0804EB08004E4900F59070B0
:1033A00005F061F94B4805F057F94044C0B22118C7
:1033B000401CC0B2221881F820510B21401C82F819
:1033C0002011C0B22118401C81F82051B7F9882281
:1033D00000F0FF08AFF210313E4807F51C7758E3C4
:1033E000C0B22218401CC0B2231882F82091FC22DF
:1033F000401C83F82021C0B22218401C82F8209182
:10340000C0B22218401C82F82091C1B2324CA07B7D
:10341000002808D1314D284602F005FB012128463D
:1034200002F0E3FAA673BDE8F09F2D4AEE214FF0BB
:10343000050B82F82C11114681F82D01122081F81C
:103440002E01084680F82F5181F830B1112000E09C
:1034500058E3DFF8908098F84223002A7DD0084690
:1034600080F83151042081F83201084680F8335148
:10347000AFF2AC31174805F0CBFD164805F0ECF87B
:10348000174981F834013846124905F0ECF8114823
:1034900005F0E2F81530C0B22118401CC0B2221865
:1034A00081F820510821401C82F82011C0B2211857
:1034B000401C81F82051B8F95823C7B2AFF2F83157
:1034C000044805F0A5FD034805F0C6F8E11981F8A8
:1034D000200109E0732E0020642E0020A06002402D
:1034E000E42B0020382100207F1CFFB2E019FE49A8
:1034F00000F5907005F0B7F8FB4805F0ADF83844DA
:10350000C0B22118401CC0B2221881F820510C21F1
:10351000401C82F82011C0B22118401C81F82051B3
:10352000B8F95423C7B2AFF26041EF4805F070FD1F
:10353000ED4805F091F8E1197F1C81F82001FFB2F8
:10354000E019E94900F5907005F08DF8E64805F0BE
:1035500083F83844C0B2211800E05FE0401CC0B2DC
:10356000221881F820511121401C82F82011C0B28C
:103570002118401C81F82051B8F8D623C7B2AFF209
:10358000B841D94805F044FDD74805F065F8E11980
:103590007F1C81F82001FFB2E019D34900F590703B
:1035A00005F061F8D04805F057F83844C0B221184A
:1035B000401CC0B2221881F82051401CC0B2211812
:1035C00082F820A1401C81F82051C0B22118401C73
:1035D000C0B2221881F8206198F84013401C82F88C
:1035E0002011C0B22118401CC0B2221881F820510D
:1035F0001921401C82F82011C0B22118401C81F80A
:103600002051C0B22118401CC0B2221881F820619C
:1036100098F84113401C82F82011C0B298F8122487
:103620004746002A7ED02118401CC0B2231881F8DA
:103630002051401CC0B2211883F820B1401C81F8F1
:10364000205100F0FF08AFF28051A74805F0E0FCE0
:10365000A54805F001F804EB080181F8200108F104
:10366000010101F0FF0804EB08009F4900F590708C
:1036700004F0F9FF9C4804F0EFFF4044C0B2211869
:10368000401CC0B2221881F820510921401C82F848
:103690002011C0B22118401C81F82051B7F928240C
:1036A00000F0FF08AFF2E0518F4805F0B1FC8E4802
:1036B00004F0D2FF04EB080181F8200108F10101B8
:1036C00001F0FF0804EB0800874900F5907004F052
:1036D000CAFF854804F0C0FF4044C0B22118401C16
:1036E000C0B2221881F820510D21401C82F820110F
:1036F000C0B22118401C81F82051B7F9242400F0F1
:10370000FF08AFF23C61784805F082FC764804F08F
:10371000A3FF04EB080181F8200108F1010101F089
:10372000FF0800E072E004EB08006F4900F59070BC
:1037300004F099FF6C4804F08FFF4044C0B2211898
:10374000401CC0B2221881F820511221401C82F87E
:103750002011C0B22118401C81F82051B7F8A624CE
:1037600000F0FF08AFF2A0615F4805F051FC5E4831
:1037700004F072FF04EB080181F8200108F1010157
:1037800001F0FF0804EB0800574900F5907004F0C1
:103790006AFF554804F060FF4044C0B22118401C45
:1037A000C0B2221881F820511621401C82F8201145
:1037B000C0B22118401C81F82051C0B22118401C11
:1037C000C0B2221881F8206197F81014401C82F8CA
:1037D0002011C0B22118401CC0B2221881F820511B
:1037E0001A21401C82F82011C0B22118401C81F817
:1037F0002051C0B22118401CC0B2221881F82061AB
:1038000097F81114401C82F82011C0B297F8E224F6
:10381000002A68D02118401CC0B2231881F820511A
:103820000621401C83F82011C0B22118401C81F8E9
:10383000205100F0FF08AFF270712B4805F0E8FB53
:10384000294804F009FF04EB080181F8200108F180
:10385000010101F0FF0804EB0800234900F5907016
:1038600004F001FF204804F0F7FE4044C0B22118E4
:10387000401CC0B2221881F820510A21401C82F855
:103880002011C0B22118401C81F82051B7F9F8244A
:1038900000F0FF08AFF2D071134805F0B9FB1248F1
:1038A00004F0DAFE04EB080181F8200108F10101BF
:1038B00001F0FF0804EB08000B4900F5907004F0DC
:1038C000D2FE094804F0C8FE4044C0B22118401C92
:1038D000C0B2221881F820510E21401C82F820111C
:1038E000C0B2211802E08BE0732E002081F8205135
:1038F000401CB7F9F42400F0FF08AFF63401D248B9
:1039000005F086FBD04804F0A7FE04EB080181F81F
:10391000200108F1010101F0FF0804EB0800CA4989
:1039200000F5907004F09FFEC74804F095FE4044F7
:10393000C0B22118401CC0B2221881F820511321B6
:10394000401C82F82011C0B22118401C81F820517F
:10395000B7F8762500F0FF08AFF69401BA4805F0F5
:1039600057FBB94804F078FE04EB080181F8200108
:1039700008F1010101F0FF0804EB0800B24900F56D
:10398000907004F070FEB04804F066FE4044C0B28F
:103990002118401CC0B2221881F820511721401C68
:1039A00082F82011C0B22118401C81F82051C0B209
:1039B0002118401CC0B2221881F8206197F8E01449
:1039C000401C82F82011C0B22118401CC0B222183D
:1039D00081F820511B21401C82F82011C0B221180F
:1039E000401C81F82051C0B22118401CC0B22218DE
:1039F00081F8206197F8E114401C82F82011C0B2D0
:103A000097F8B225002A7DD02118401CC0B2231897
:103A100081F820510721401C83F82011C0B22118E1
:103A2000401C81F8205100F0FF08AFF66411864871
:103A300005F0EEFA844804F00FFE04EB080181F86B
:103A4000200108F1010101F0FF0804EB08007E49A4
:103A500000F5907004F007FE7B4804F0FDFD404443
:103A6000C0B22118401CC0B2221881F820510B218D
:103A7000401C82F82011C0B22118401C81F820514E
:103A8000B7F9C82500F0FF08AFF6C4116E4807F576
:103A9000B66705F0BDFA6C4804F0DEFD04EB0801E2
:103AA00081F8200108F1010101F0FF0804EB080092
:103AB000654900F5907004F0D6FD634804F0CCFD34
:103AC0004044C0B22118401CC0B2221881F82051D5
:103AD0000F21401C82F82011C0B22118401C81F82F
:103AE0002051B7F9142000F0FF08AFF62421564802
:103AF00005F08EFA544804F0AFFD04EB080181F89C
:103B0000200100E074E008F1010101F0FF0804EB7E
:103B100008004D4900F5907004F0A5FD4A4804F0F6
:103B20009BFD4044C0B22118401CC0B2221881F84D
:103B300020511421401C82F82011C0B22118401CD1
:103B400081F82051B7F8962000F0FF08AFF68821E1
:103B50003D4805F05DFA3C4804F07EFD04EB0801A9
:103B600081F8200108F1010101F0FF0804EB0800D1
:103B7000354900F5907004F076FD334804F06CFD93
:103B80004044C0B22118401CC0B2221881F8205114
:103B90001821401C82F82011C0B22118401C81F865
:103BA0002051C0B22118401CC0B2221881F82061F7
:103BB0003978401C82F82011C0B22118401CC0B2D4
:103BC000221881F820511C21401C82F82011C0B21B
:103BD0002118401C81F82051C0B22118401CC0B2ED
:103BE000221881F820617978401C82F82011C0B237
:103BF0002118401CC0B2221881F820511021401C0D
:103C000082F82011C0B22118401C81F82051C5B2A1
:103C10000E480FA14068406802880B4805F0F8F98B
:103C2000094804F019FD61196D1C81F82001EDB2FD
:103C30006019054900F5907004F015FD024804F084
:103C40000BFD2844FFF7CCBB732E00203000002072
:103C50002578000001884088814201D10120704709
:103C60000020704781780088491C01F03F018142A3
:103C700001D101207047002070474349002048804F
:103C8000088001F204414880088070472DE9F04126
:103C9000DFF8F88086B0064600250C4688F800500C
:103CA0000846FFF7D7FF28B139490120087306B04D
:103CB000BDE8F081208804EB00114868B0F5006F82
:103CC00007D28DF80850208804EB0010406800905F
:103CD0000CE0020F02D020F07040486004208DF804
:103CE0000800208804EB001040680190294FBE4274
:103CF00003D101222449284802E00222274928480A
:103D000000F0F9F8208804EB0010027A8DF80A2000
:103D10008DF80950208804EB00110DF10B000931DA
:103D200004F06AFC2078401C00F03F0020804446EC
:103D30000FE02078401CC0B220700A2809D9BE428A
:103D400003D16068401C606009E0A068401CA0606E
:103D500005E06946304601F045FB0428E9D060687B
:103D6000104E052805DB65604FF488717068FEF71A
:103D7000D3FBA06805289ADBA5604FF490717068AA
:103D8000FEF7CAFB93E70000B45F00203C00002070
:103D9000642E002000640040942E0020B8630020B0
:103DA000244700203000002030B501237F4A01293C
:103DB00017D0537206250022134602EB420101EB95
:103DC000C21400EBC401521C0B610B7340F8343079
:103DD0004B60CB828B828B6081F82530AA42ECDB72
:103DE00030BD1372E6E72DE9F05FDFF8C4B192460B
:103DF0000D4607464FF00608002606EB460000EB8E
:103E0000C61907EBC9042069012870DB207B411C1F
:103E100021731E2850D32846FFF724FF50B106EB2C
:103E2000460000EBC61007EBC0008068401CA06095
:103E3000BDE8F09F04F11400FFF70CFF40B106EB62
:103E4000460101EBC61107EBC10100208860EFE7D6
:103E50002069401E206100202073A060A08A69882C
:103E600004EB001005EB011180694860A08A6988A5
:103E700004EB001005EB0111007F0872A08A69882D
:103E800004EB001005EB011190F825004874A08A9E
:103E900004EB001168881D3105EB0010027A09302F
:103EA00004F0AAFBA878401C00F03F006880207D49
:103EB000401C00F03F00A082A0680A2805D857F8EF
:103EC00039006168401A322811DD3A494FF4807098
:103ED000088339482061BAF1010F08D00EB1012ED4
:103EE00005D14FF40471DBF80400FEF715FB761CD6
:103EF000464582DB9CE72DE9F041064608880D46E1
:103F000001EB00109046417C002919D0B8F1010F57
:103F100016D08088A0F2013080B2062810D200EBC3
:103F2000400101EBC01706EBC70404F11400FFF7D2
:103F300099FE48B101201D49B8F1010F02D0C872A5
:103F4000BDE8F0818872FBE72069401C206156F8CB
:103F50003700401C46F837002888E18A05EB00103E
:103F600004EB0111406888612888E18A05EB0010A4
:103F700004EB0111007A08772888E18A05EB00102C
:103F800004EB0111407C81F82500E08A298804EBCC
:103F9000001005EB0111027F1D30093104F02CFBEC
:103FA000A07D401C00F03F00E082C9E7642E0020A5
:103FB0003000002000000240F0D8FFFF00228261A4
:103FC0000160C2610262426280ED031A80ED010A63
:103FD000C0ED020AC0ED041A704701688269891AAF
:103FE000C161C169026AD0ED010A891A00EE101A96
:103FF00090ED021AC169B8EEC00A20EE200A00EE68
:10400000901AC169F8EEE00A01EE200A426A1144F2
:10401000026A90ED031A524201EB420100EE901A3F
:10402000F8EEE00A01EE200ABDEEC00A10EE101A0A
:1040300041614169D0ED040A00EE101AB8EEC00AE1
:1040400020EE200ABDEEC00A10EE101A4161016A8E
:104050004162C1690162704700680870020A4A70D3
:10406000000C8870000AC87070470B88498863F399
:104070000F0261F31F420260704730B513680D0EE6
:104080005C1C1460C55413680D0C5C1C1460C55492
:1040900013680D0A5C1C1460C55413685C1C146022
:1040A000C15430BD0A681318C01C1B68105C1BBAD1
:1040B00023F0FF031843121D0A6070470A6810447A
:1040C000921C00880A6040BA00B2704700B5FFF742
:1040D000E9FF00EE900AB8EEE01AC1EE000AB0EE79
:1040E000600A00BD00B5FFF7E9FF00EE900AB8EEE8
:1040F000E01AC1EE000AB0EE600A00BD10B5002261
:104100004AF2104403E02146491EFDD2521C82426D
:10411000F9D310BD002203E02821491EFDD2521C14
:104120008242F9D3704700007CB501250024234664
:104130002A464FF470417B48CDE9004500F055FB1D
:1041400000231A464FF470717748CDE9004500F01E
:104150004CFB7CBD2DE9FC5FDFF8C8814FF4704B50
:1041600000225946404601F0D8FD0120FFF7D2FF5A
:104170006D4F4021384601F0B8FD04468021384695
:1041800001F0B3FD44EA40044FF4807949463846D3
:1041900001F0ABFD44EA80044FF4007A5146384602
:1041A00001F0A3FD44EAC000C4B200260F2C57D092
:1041B0000A20FFF7A3FF4021384601F096FD05468F
:1041C0008021384601F091FD45EA400549463846D0
:1041D00001F08BFD45EA80055146384601F085FD2A
:1041E00045EAC00525400F2D3AD00124CDE90064F1
:1041F0004FF47079002322464946384600F0F5FA1C
:10420000CDE9006400231A4659464646404600F070
:10421000ECFA00224946384601F07FFD0220FFF704
:104220006DFF2103304601F060FDC4004FF40051E2
:10423000304601F05AFD44EA80044FF48041304694
:1042400001F053FD44EA40044FF40041304601F0D0
:104250004CFD044345EA0410C043C0B2BDE8FC9FD6
:104260003046FBE770B5304D0821284601F03DFD92
:1042700004460421284601F038FD44EA40040121A7
:10428000284601F032FD44EA8000C0B270BD10B58E
:10429000FFF760FF412837D014DC21282ED009DC3D
:1042A000112825D0122825D0142825D0182837D138
:1042B000042019E0222823D0242823D028282FD115
:1042C000082011E0812825D007DC42281ED0442890
:1042D0001ED0482824D10C2006E082281CD0842837
:1042E0001CD088281CD10020BDE8104000F087B801
:1042F0000120F9E70220F7E70320F5E70520F3E7BF
:104300000620F1E70720EFE70920EDE70A20EBE7B9
:104310000B20E9E70D20E7E70E20E5E70F20E3E7B4
:1043200010BD000000040240000802401CB500203F
:104330000090034601900122F021244800F055FA34
:104340001CBD2DE9F047214C102666834FF4FA6915
:10435000484603F059FF20276783484603F054FF7F
:1043600040256583484603F04FFF4FF08008A4F8CE
:104370001A80484603F048FF2683484603F044FF6E
:104380002783484603F040FF2583484603F03CFF5F
:10439000A4F818804846BDE8F04703F035BF2DE982
:1043A000F041884605460024084E4FF4FA6708E0BD
:1043B0007583384603F028FF3583384603F024FF21
:1043C000641C4445F4DBBDE8F081000000000240BD
:1043D0001CB501210220CDE900011B4C0A46002337
:1043E0004FF44071204600F000FAA115204601F07C
:1043F00090FC61152046BDE81C4001F08CBC2DE905
:10440000F041112800D9112010490F4F00240D5CF4
:104410004FF400784FF480763146384601F07BFC4B
:10442000E8074146384602D001F073FC01E001F094
:1044300072FC3146384601F06CFC641C6D08E4B235
:10444000082CE9D3BDE8F08100040240F09D00088B
:104450001CB50020009003460122019011020C4877
:1044600000F0C3F91CBD2DE9F041074600244FF4CC
:104470008075074E08E035836420FFF73FFE7583A3
:104480006420FFF73BFE641CBC42F4DBBDE8F08116
:104490000000024000B585B000218DF809108DF8AC
:1044A000081008228DF810108DF80A208DF81110D0
:1044B0000091012203918DF812108DF80B206946AE
:1044C00000F090FF05B000BD00B585B000218DF86B
:1044D00009108DF8081008228DF810108DF80A20A8
:1044E0008DF811100091802203918DF812108DF833
:1044F0000B20694600F076FFE4E700B585B00021A7
:104500008DF809108DF8081008228DF810108DF81C
:104510000A208DF811100091022203918DF81210DB
:104520008DF80B20694600F05DFFCBE700B585B044
:1045300000218DF809108DF8081008228DF8101050
:104540008DF80A208DF811100091812203918DF8C9
:1045500012108DF80B20694600F044FFB2E700B559
:1045600085B000218DF809108DF8081008228DF80B
:1045700010108DF80A208DF81110009182220391FD
:104580008DF812108DF80B20694600F02BFF99E78B
:10459000F0B5384C384D059EA04203D92F6847F43A
:1045A000800703E0354C2F6847F400172F6005683B
:1045B000ED07FCD1051B1827103DB5FBF7F5EDB253
:1045C0003D27062D08D3D4F80CC005EB45054FF068
:1045D000EC0E0EEB450507E0042D0BD3D4F80CC010
:1045E0002D1F05EB45056D00AF404CEA070CC4F8E4
:1045F0000CC010E0D4F808C0022D05EB450504D32B
:104600004FF0040E0EEB450500E06D00AF404CEAA4
:10461000070CC4F808C08260C360466000220260D4
:10462000026842F0400202600268026002680260B2
:10463000026842F4806202600268026002680260FE
:10464000026842F48032026002680260026802601E
:10465000026842EA41610160F0BD026822F0010295
:1046600002600268D207FCD14160016841F001019B
:104670000160704700640240303802400060024030
:1046800070B505464FF6FF7000234AF201040EE0B4
:10469000EA5C50400022C60702D084EA500000E0E5
:1046A0004008521CD2B2082AF5D35B1CDBB28B4205
:1046B000EED370BD3EB5040A8DF801408DF80000C0
:1046C000080A8DF80300100A8DF805008DF8042003
:1046D000180A8DF807008DF802108DF806300821B1
:1046E0006846FFF7CDFF8DF80800000A8DF8090035
:1046F0000A216846FDF784FF3EBD00006FF3080104
:104700000143AB48016070470721A94A8143121D4C
:1047100010684FF6FF031840A64B184340EA0120EB
:1047200010607047F0B5054614460F461E46184601
:10473000FFF7EAFFC6F1040085400F22F2403A403D
:104740002A436009800000F1E020D0F8001104F055
:104750001F050123AB401943C0F8001104F1E02408
:1047600094F8000440EA021084F80004F0BD70B52B
:104770008B071C0F904B1D6845F480451D608F4BC7
:1047800021F003052B44D3F808580F26A640B54363
:10479000C3F80858D3F80858A0400543C3F8085890
:1047A000874B1C680120884004431C60D10704D05B
:1047B00083490C310B6803430B60910704D5804992
:1047C00008310A6802430A6070BDCB0810B500EBDF
:1047D0008300036A4907C90E0F248C40A343036278
:1047E000036A8A401343036210BD2DE9F04F9946D6
:1047F000DDE909AC00234FF0010B4FF0030E0BFA7B
:1048000003F501EA0504AC422AD107685C000EFA00
:1048100004F6B7430760076802FA04F847EA080796
:104820000760012A01D0022A12D18768B743876046
:10483000D0F808800AFA04F748EA0708C0F80880A8
:104840004768AF434760476809FA03F52F4347605D
:10485000C568B543C560C5680CFA04F42543C56056
:104860005B1C102BCBD3BDE8F08F5148083001689A
:1048700041F0040101605048001F016841F080517F
:1048800001605048416841F480714160016841F025
:1048900004010160016841F002010160FBF77EBC88
:1048A00044484349001D091D08607047F0B5424D5A
:1048B0000024443D06462F68204647F480372F6089
:1048C00041F6FF7701E0641CA4B2D5F800C05FEAAE
:1048D0008C3C01D4BC42F6D3BC4201D10120F0BDD6
:1048E000354C241F276847F080572760354C2768D0
:1048F00047F440472760304C3C3C276847F4144756
:1049000027602F6827F080772F6041EA86112E4EAE
:10491000520806EB0242114341EA0361221F41F4AF
:1049200080011160296841F080712960296889013E
:10493000FCD526490A6842F480720A600A6842F48B
:1049400000720A600A6842F480620A600A6842F0F3
:1049500005020A60216821F003012160216841F00D
:10496000020121602168C1F381010229FAD1F0BD61
:10497000F0B5114C443C256845F0010525600E4E0C
:1049800000253C3E35602668114F3E402660271DBD
:10499000104E3E60266826F480262660064C383C81
:1049A0002560FFF783FFBDE8F04000210846A5E63B
:1049B00008ED00E00000FA054438024000300140F4
:1049C000003C0140007000400000FFFF003C02403E
:1049D000FFFFF6FE1030002490ED001AB4EEC01A6E
:1049E000F1EE10FA0CD271EE200AF4EEC00AF1EEEC
:1049F00010FA02D2C0ED000A704780ED000A70473D
:104A0000FDDD71EE600AF4EEC00AF1EE10FAF4DD9D
:104A1000F0E731EE401A70EEC00A81EE200A7047CE
:104A200010B504462DED028B90ED000A9FEDFE8A35
:104A3000F0EE480A04F024FCB5EEC00A84ED000A4A
:104A4000F1EE10FA03D230EE080A84ED000ABDEC54
:104A5000028B10BDDFEDF50AF54A90ED000A03E088
:104A600030EE200A80ED000A10EE101A9142F7D8BD
:104A7000F04A10EE101A914204DD30EE600A80ED2B
:104A8000000AF6E770470146002091ED001AB4EEE7
:104A9000E01AF1EE10FA02DDC1ED000A06E0B4EE14
:104AA000C01AF1EE10FA02D281ED000A012070471F
:104AB00010B5034600201C68944201DD1A6002E034
:104AC0008C4201DA1960012010BD01460020D1EDB1
:104AD000000AF4EEC00AF1EE10FA06DCB1EE400A6C
:104AE000F4EEC00AF1EE10FA02D281ED000A0120C4
:104AF000704730EE600A32EE612A31EE601A20EE25
:104B0000020AC0EE010A30EEA10A704710B5401A41
:104B1000029CE41A6043511A90FBF1F0184410BD56
:104B200090ED001AF0EEC11AF4EEC01AF1EE10FA90
:104B300004D29FEDC10A80ED000A704770EEC01AE2
:104B4000B5EEC01A80EEA10AF7EE001AF1EE10FAE7
:104B500008DD21EE001A31EEC00A00EE801A80ED69
:104B6000001A704770EE611A61EEA00A40EE010A69
:104B7000C0ED000A704730EE600ADFEDAB0AAF49C6
:104B800001E030EE200A10EE100A8842F9D8AC4954
:104B900010EE100A884202DD30EE600AF8E7704736
:104BA00030EE600ADFEDA10AA14901E030EE200AF3
:104BB00010EE100A8842F9D89E4910EE100A884279
:104BC00002DD30EE600AF8E77047B0EE401AB0EE52
:104BD000C10ADFED9C1A70EE211AB0EEC10A9FEDFA
:104BE000992A30EE020A30EE800ADFED972A9FED17
:104BF000972AF5EEC00AF1EE10FA0ADB70EEE11A20
:104C0000C1EE800A20EEA00A10EE222A9FED900A43
:104C100009E071EEE01AC0EE210A20EEA00A10EEC3
:104C2000222A9FED8C0AB5EEC01A02EE200AF1EEA0
:104C300010FA01D2B1EE400A704710B5DFED7B1AD1
:104C40007C4A7B4C01E030EE210A10EE103AA34280
:104C5000F9D801E030EE610A10EE103A9342F9DC27
:104C6000DFED7D2A9FED7D2A9FED7D1AB5EEC00A0E
:104C7000F1EE10FA60EE220A20EE023A25D243EE5F
:104C8000000A24E020EEE03A33EE603A03E0B0EEB2
:104C9000603A10EEA03A43EE010AC0ED000ADFEDE3
:104CA000710A30EE200A10EE100A904201DD30EE5B
:104CB000610AB5EEC00AF1EE10FA60EE220A60EE6B
:104CC000021A11D241EE800A10E043EE400AC0ED14
:104CD000000AF5EEC00AF1EE10FAD8D2D2E740EEA3
:104CE000010AC1ED000A10BD41EEC00AC1ED000A83
:104CF000F5EEC00AF1EE10FA04D220EEE00A30EE32
:104D0000600AECE7B0EE600A10EEA00AE7E7FCB537
:104D100015460E4607469FED484A0024F0EE443AF9
:104D200014E007EB840001A990ED000A6846FFF744
:104D300084FF06EB84009DED000A90ED001A641CD0
:104D400000EE014A9DED010A40EE013AAC42E8DB7B
:104D5000BDE8FC40F0EE630AB0EE440A35E7B4EE7D
:104D6000E00AF1EE10FA0FD8B4EEC10AF1EE10FA33
:104D70000AD8F4EEC10AF1EE10FA02D8B0EE600AD9
:104D80007047B0EE410A7047F4EEC00AF1EE10FA37
:104D90000AD8F4EEC10AF1EE10FA05D8B4EEC10A51
:104DA000F1EE10FAEFD9ECE7B4EEE00AF1EE10FA0A
:104DB000E4D87047884207DC904205DC914201DC70
:104DC0000846704710467047814204DC914202DC7D
:104DD0009042F8DDF6E78842F2DC704710EE100AE8
:104DE000F6EE000A204960EE200AA1EB600000EE1A
:104DF000100A20EE201AF7EE080A41EE400A20EED3
:104E0000800A704770B50C462DED028BB0EE408ADB
:104E100090ED000AD1ED000A054620EE000A0026BA
:104E200000EEA00A22E000000000B443DB0FC940FE
:104E3000DB0F49C0DB0F494000000000000034C315
:104E40000000344308E53C1EDE02493EB1507B3F82
:104E5000DB0F493FE4CB164083F9A23F7B81CF3E75
:104E60006666663EDB0FC93FDF59375F04F092FD8F
:104E700010EE100A8849F0EEC80A884201DA9FED68
:104E8000870AB4EEE00AF1EE10FA0EDD80EE801A29
:104E900095ED000A012620EE010A85ED000A94ED49
:104EA000000A20EE010A84ED000A3046BDEC028BB8
:104EB00070BD10B55FED230A794A7A4C01E030EEFF
:104EC000200A10EE103AA342F9D801E030EE600A51
:104ED00010EE103A9342F9DCB5EEC00A1FED221A2B
:104EE0005FED221AF1EE10FA20EE012A60EE212A7F
:104EF00002D202EE802A01E002EEC02A80ED002AF2
:104F00001FED282A30EE020A10EE100A904201DD51
:104F100030EE600AB5EEC00AF1EE10FA60EE010A5A
:104F200020EE211A02D241EE000A01E041EE400AD1
:104F3000C1ED000A10BDB0EEC01AF0EEE01AB4EEFA
:104F4000E11AF1EE10FA01D3B0EE600A7047B0EE4C
:104F5000C01AF0EEE01AB4EEE11AF1EE10FA01DC3C
:104F6000B0EE600A704770B5054600200E46087026
:104F7000802434EA050007D04BA1304603F060FBE3
:104F80006410002CF5DC70BD48A1F6E710B52DEDDE
:104F9000048BF0EE408A18EE901AB0EE608A11F1A0
:104FA000814F01D9FFEE008A18EE901AB7EE009AF1
:104FB000B1F17E5F01DDF0EE498AF5EEC08AB0EE18
:104FC000E80AF1EE10FA01DAB0EE418A20B10128C8
:104FD00013D002283DD054E0B5EEC08AF1EE10FAAD
:104FE00006DB78EE090A39EE400A04F0A1F93DE04B
:104FF00079EE480A04F09CF943E0F0EEC80A10EE9E
:10500000900A254988423CDBB5EEC08AF1EE10FAE1
:1050100010DB39EE400A20EE080A04F03DF870EE8D
:10502000499AB0EE480A04F037F870EE490A89EE62
:10503000A00A1BE028EE400A04F02EF870EE499A10
:10504000B1EE480A04F028F870EE490A89EEA00A89
:1050500017E0B5EEC08AF1EE10FA0ADBF0EE490A6D
:1050600039EE401A48EE000A81EE200A39EE400A75
:1050700007E079EE400A08EE609AC0EE090AB0EE49
:10508000600AF5EEC08AF1EE10FA01D2B1EE400AE4
:10509000BDEC048B10BD0000FFE6DB2EFFE6DB2E2F
:1050A000DB0F4940DB0F49C0300000003100000039
:1050B0002849084328490860704730B50F23C27853
:1050C00001780125FAB1244A126801F1E02102F4C5
:1050D000E062C2F5E062C2F30722C2F10404D340E9
:1050E0004278A24084781C401443220181F80024B5
:1050F000007800F01F018D404009800000F1E020A1
:10510000C0F8005130BD01F01F0085404809800003
:1051100000F1E020C0F8805130BD104A1140014339
:105120000D48001F016070470B4A121D00291168CD
:1051300001D0014300E08143116070474FF0E0214E
:105140000428086903D020F004000861704740F08B
:105150000400FAE70000FA050CED00E080FFFF1FF5
:10516000FE4910B588424FF0010101D14C0601E023
:105170004FF08064204600F06FFF2046BDE81040ED
:10518000002100F069BF10B50368002223F002037C
:105190000360036843F0010303604FF6FF7300E010
:1051A000521C4468E40701D19A42F9D14268D207FF
:1051B0003ED08A79012A02683CD022F08002026047
:1051C000CA79012A026838D022F0400202600A7AC5
:1051D000012A026834D022F0200202604A7A012AB1
:1051E000026830D022F0100202608A7A012A026836
:1051F0002CD022F008020260CA7A012A026828D064
:1052000022F0040202608A78CC78920742EA0462B3
:105210000C7942EA04424C79098842EA0452491E58
:105220000A43C261016821F001010160002114E01C
:10523000002010BD42F08002C1E742F04002C5E705
:1052400042F02002C9E742F01002CDE742F0080226
:10525000D1E742F00402D5E7491C4268D20701D0E9
:105260009942F9D14068C007E2D1012010BDF0B5E4
:10527000827ABB4D012191402A6842F001022A60E6
:10528000B74E1C3632688A433260B54A047BB54B50
:105290000C32A4B914688C4314604488C78844EA6B
:1052A0000744877A03EBC707C7F840460488878816
:1052B00044EA0744877A03EBC707C7F84446047BF0
:1052C000012C12D114680C431460847A026803EB39
:1052D000C4044FEA3242C4F84026847A426803EBA1
:1052E000C4034FEA3242C3F844269D4AC37A121DD2
:1052F000002B136806D00B431360994A03891432BC
:1053000013B104E08B43F7E713688B431360038901
:10531000012B02D113680B431360407B012802D19B
:10532000306808433060286820F001002860F0BD34
:1053300000218171C171017241728172C1728170EB
:10534000C170032101710221417101210180704767
:1053500083490A6842F001020A600A6843F60E7344
:105360009A430A600A6842EA00200860086820F050
:105370000100086070470029016802D041F48031C3
:1053800001E021F48031016070470029016813D0E9
:1053900041F080010160D0F8841141F48071C0F8BF
:1053A0008411D0F8941141F48071C0F89411D0F8B0
:1053B000A41141F4807112E021F080010160D0F865
:1053C000841121F48071C0F88411D0F8941121F473
:1053D0008071C0F89411D0F8A41121F48071C0F844
:1053E000A411704730B50246002093685B0108D4D1
:1053F0009068000101D5012003E09068C00037D516
:10540000022002EB0012D2F8803103F00103C2F84F
:1054100080310B7A73B3D2F880414D681C434B7ACC
:1054200043EAC5031C43C2F880418B7A03F00F03A3
:105430008B72D2F8843123F00F03C2F88431D2F892
:1054400084318C7A2343C2F88431CB7ACC6843EA26
:105450000423C2F88831CB7B096943EA0121C2F8F1
:105460008C11D2F8801141F00101C2F8801130BDD9
:10547000042030BDD2F880314C7A23430C8843EAB3
:105480004453C2F88031D0E7002221B1012905D070
:10549000022906D112E08268334801E0826833486D
:1054A00002403349501A8A4214D00ADCA2B16FF08C
:1054B000806010180FD002280CD10FE082682D48B0
:1054C000EEE7B0F5007F09D02B49401803D0B0F5C6
:1054D000003F03D000207047022070470120704732
:1054E00041B101290AD0022903D1816841F40001A8
:1054F00081607047816841F08001F9E7816841F47B
:105500000041F5E710B500EB0113D3F8B04114F0FA
:1055100004041472D3F8B04145D0E4085460D3F8C1
:10552000B04104F002045472D3F8B44104F00F0403
:105530009472D3F8B441240AD474D3F8B841D47225
:10554000D3F8B841240A1473D3F8B841240C547327
:10555000D3F8B841240E947310E0000000640040BA
:1055600000660040006000400300000400030008E3
:1055700000010008000003100001FFF7D3F8BC4150
:10558000D473D3F8BC41240A1474D3F8BC41240C5E
:105590005474D3F8BC311B0E937439B1016941F0D6
:1055A0002001016110BD640D1460B8E7C16841F0CD
:1055B0002001C16010BD21B1016941F020010161EC
:1055C0007047C16841F02001C16070470246002069
:1055D00029B1012902D1106900F003007047D06899
:1055E000FAE700234FF6FF7221B1012917D00229F3
:1055F00024D03AE0016821F0020141F0010101608C
:1056000000E0521E416801F00301012901D0002A87
:10561000F7D1406800F00300012823D124E001689D
:1056200021F00301016000E0521E4168890701D0AA
:10563000002AF9D14068800714D115E0016821F0F3
:10564000010141F00201016000E0521E416801F0D9
:105650000301022901D0002AF7D1406800F00300BD
:10566000022801D0002300E0012318467047026899
:10567000002122F0010242F002020260406800F0C4
:105680000300022800D101210846704702684FF646
:10569000FF71002322F00202026000E0491E42680E
:1056A000920701D50029F9D14068800700D4012371
:1056B000184670478069C0F3021000017047806986
:1056C000000E70478069C0F307407047002A4269A6
:1056D00001D00A4300E08A4342617047024600203D
:1056E00011F4700F03D0926904E001207047CB01E0
:1056F00004D552680A401103F7D170470B0101D558
:105700009268F7E78B0101D5D268F3E71269F1E7F8
:10571000534A914202D1002181617047C1F31302C3
:105720008B0101D5C26070474B0101D50261704702
:10573000090101D58260704742607047024600202F
:1057400053690B424AD0B1F5807F3BD013DC082966
:105750002ED007DC012926D0022927D004293DD1EB
:10576000D0682BE0102925D0202926D0402935D11A
:105770001069102130E0B1F5004F2BD00BDCB1F5F2
:10578000007F22D0B1F5806F22D0B1F5006F25D116
:105790009069702120E0B1F5803F11D0B1F5003F54
:1057A0001CD15068E5E790682E4915E0D06802E00A
:1057B000D068DEE7106903210EE0106908210BE0D4
:1057C0005068FBE79069012106E09069022103E03F
:1057D000906900E05068042100F03BB8704730B594
:1057E000082310240422B1F5007F1DD010DC2029ED
:1057F00029D007DC012921D0042922D0082900D191
:10580000C46030BD402920D0B1F5807FF9D10BE0D4
:105810000025B1F5004F06D008DCB1F5806F03D04C
:10582000B1F5006FEDD18561426030BDB1F5803FCB
:105830000DD0B1F5003FF8D1446030BD0949816019
:1058400030BDC36030BD036130BD046130BD436015
:1058500030BD024600200A4200D0012070470000FF
:105860007000F030010101002DE9F043016821F0E2
:10587000010101600021016041608160C16001613E
:1058800021214161B849B84A3D251039904202D1E1
:105890008D60BDE8F083B44A4FF4746618329042CC
:1058A00001D18E60F5E7B04A4FF474173032904260
:1058B00001D18F60EDE7AC4A4FF0746C48329042F2
:1058C00002D1C1F808C0E4E7A74BA84A6033984268
:1058D00001D1CA60DDE7A44CA54B7834A04201D1C8
:1058E000CB60D6E7DFF88082A24C08F190084045F3
:1058F00001D1CC60CDE7DFF870824FF03D5908F15F
:10590000A808404502D1C1F80C90C2E79A49DFF8D7
:1059100068820839404501D10D60BAE7964D1835C7
:10592000A84201D10E60B4E7934D3035A84201D1B1
:105930000F60AEE7904D4835A84202D1C1F800C0D3
:10594000A7E78D4D8C496035091FA84201D10A6037
:105950009FE7894A7832904201D10B6099E7864AE5
:105960009032904201D10C6093E7834AA832904272
:105970008FD1C1F800908CE730B503687F4ACC68BE
:1059800013400A682243D1E905452C432243CC69E0
:1059900022430C6A22434C6A22438C6A22434C6B9A
:1059A00022438C6B22431A430260426922F00703B0
:1059B000D1E90B2422431A4342610A6942604A68D2
:1059C00082608968C16030BD0021016041608160F2
:1059D000C160016141618161C161016241628162B5
:1059E000C16201634163816370470029016802D08D
:1059F00041F0010101E021F001010160704700293F
:105A0000016802D041F4004101E021F4004101604D
:105A100070470029016802D041F0200101E021F027
:105A200020010160704741607047406880B2704754
:105A3000002A026802D042F4002201E022F400228F
:105A40000260016170470029016802D041F48021A1
:105A500001E021F48021016070470AB101617047C3
:105A6000C1607047014600200968090300D5012084
:105A70007047014600200968C90700D0012070471F
:105A8000406900F03800704702463B4B00209A42C4
:105A900002D2354A103A01E0374A103A8B0001D55C
:105AA000526800E01268364B1A400A4200D00120CA
:105AB0007047314A904202D22B48103801E02E48FC
:105AC00010382F4A8B0001EA020101D5C1607047EE
:105AD000816070470B0607D5436912B143F080031C
