:020000040800F2
:1000000018BE00209DB00008A5B00008A7B00008E9
:10001000A9B00008ABB00008ADB0000800000000B7
:10002000000000000000000000000000AFB0000869
:10003000B1B000080000000093D60008F7D800080F
:10004000B7B00008B7B00008B7B00008B7B00008F4
:10005000B7B00008B7B00008B7B00008B7B00008E4
:10006000B7B00008B7B00008B7B00008B7B00008D4
:10007000B7B00008B7B00008B7B00008B7B00008C4
:10008000B7B0000815580008B7B00008B7B00008AE
:1000900089050008B7B00008B7B00008B7B000087D
:1000A000B7B00008B7B00008B7B00008B7B0000894
:1000B000951300083B1A0008B7B00008B7B0000855
:1000C000B7B00008B7B00008B7B00008B7B0000874
:1000D000B7B00008B7B000083B580008B7B0000838
:1000E000B7B00008B7B00008B7B00008B7B0000854
:1000F000B7B00008B7B00008B7B00008B7B0000844
:10010000B7B00008B7B00008B7B00008B7B0000833
:10011000B7B00008B7B00008B7B00008B7B0000823
:10012000B7B00008B7B00008B7B00008B7B0000813
:10013000B7B00008B7B00008B7B00008B7B0000803
:10014000B70D000875110008B7B00008B7B0000877
:10015000B7B00008B7B0000805570008B7B00008EE
:10016000B7B00008B7B00008B7B00008B7B00008D3
:10017000B7B00008B7B00008B7B00008B7B00008C3
:10018000B7B00008B7B00008DFF80CD00DF0D2FF10
:10019000004800470703000818BE002030BF72B6B1
:1001A000704762B6704780F30888704716E0784A57
:1001B00092ED1D0ABDEEC00A10EE102A11B2744A6B
:1001C00092ED210ABDEEC00A10EE102A10B20023F3
:1001D0001A4608F04AF946200DF064F9E7E700BF37
:1001E0004FF4FA700DF05EF903E04FF4FA700DF081
:1001F00059F9FAE74BE007F044FF6648007810B978
:1002000007F0BBFF3FE01020634948836148406826
:100210004468002533E0207800F00F0060B98020AA
:100220005D4908832078C0F30311402007F0DFFF09
:1002300020205949488311E0207800F00F018020E8
:1002400007F0D5FF2078C0F30311402007F0CFFF5F
:100250002088C0F30321202007F0C9FF64684FF411
:100260007A700DF01FF940204B49088380200883E5
:100270002020088341F270700DF014F96D1C454880
:100280000078A842C7DC4FF47A700DF00BF9B2E7A2
:1002900005E005F0B5FE4FF47A700DF003F9F8E7CC
:1002A00070B50446002500BF0DF03BFB0DF0D0F902
:1002B000054600200CF065FB384908601923384AD0
:1002C000002138480CF0A8FD1E23374A002137488A
:1002D0000CF0A2FD2823364A002136480CF09CFD84
:1002E0003723354A002135480CF096FD002007F0F1
:1002F000ACFF022007F0DFFF05200DF00BF82846C9
:100300000DF0AAF970BD10B540F6B83007F0E7FD62
:100310000AF02AFE4FF4806101F00702284B1868AA
:100320004FF6FF031840274B034343EA0220244BB8
:10033000186000BF2448006840F0070022490860A8
:1003400007F010FF07F0ACFF07F068FF07F0E2FDD1
:1003500000F042F800F090FB05F066F905F0F4F9C2
:1003600001F038FB00F0EEFF05F0C1F807F071F87E
:100370000221164807F030F90AF0DAFF0523144A83
:10038000002114480CF048FD0BF0F9F8002010BDD6
:10039000F82A002054000020000002400000002045
:1003A000EC0C002091020008EC0E0020F501000882
:1003B000EC1E0020DF010008EC200020AD01000849
:1003C0000CED00E00000FA0530380240D05100206A
:1003D000EC040020A102000800B58BB00121480602
:1003E0000AF03BFA012108460AF004FA09220B211F
:1003F000F7480AF044F809220C21F5480AF03FF8C2
:1004000002208DF81C004FF4C050069006A9F04859
:1004100009F0AAFF00208DF826008DF827008DF83E
:1004200028008DF829008DF82A008DF82B008DF812
:1004300022008DF8230008208DF8240003208DF879
:100440002500ADF8200008A9E24809F06CF8012069
:100450008DF8120000208DF8130001208DF8140093
:1004600040F68A10ADF808004FF42B60ADF80A0092
:1004700040F2FF70ADF80C004FF6F870ADF80E00CA
:100480000020ADF8100001208DF8150002A809F039
:10049000D4F802208DF8120000208DF813000120FE
:1004A0008DF8140040F68A10ADF8080040F6B82028
:1004B000ADF80A0040F2FF70ADF80C004FF6F8708E
:1004C000ADF80E000020ADF8100001208DF81500E9
:1004D00002A809F0B2F803208DF8120000208DF870
:1004E000130001208DF8140040F68A10ADF80800C2
:1004F0004FF42860ADF80A0040F2FF70ADF80C0030
:100500004FF6F870ADF80E000020ADF81000012095
:100510008DF8150002A809F090F804208DF812005B
:1005200000208DF8130001208DF814000820ADF88C
:1005300008004FF42050ADF80A0040F2FF70ADF80B
:100540000C004FF6F870ADF80E000020ADF810006A
:1005500001208DF8150002A809F06FF814208DF81D
:10056000040003208DF8050000208DF8060001200E
:100570008DF8070001A808F052FF012202219548DA
:1005800009F05AFB0BB000BD30B58BB00221914889
:1005900009F0BAFB002871D002218E4809F04FFC07
:1005A00002218C4809F08DFB06AA0021894809F038
:1005B00028FA9DF82000042860D19DF82100002829
:1005C000FAD19DF82300532822D106A8007B552894
:1005D0001ED18148006880F480507F490860042063
:1005E0008DF80C007D48029000208DF80D009DF8DC
:1005F00022008DF80E009DF822200DF123010DF14F
:100600000F000DF0C1F901A9724809F005F91DE1CB
:100610009DF823005A2832D106A8007B53282ED1FA
:100620000DF1260105A807F0BDFB06A8407B08B127
:10063000012000E000206A4908709DED050ABDEE2A
:10064000C00A10EE100A886004208DF80800634884
:10065000401C019000208DF809009DF822008DF8C3
:100660000A009DF822200DF123010DF10B000DF081
:100670008BF96946574809F0CFF8E7E014E19DF897
:100680002300462833D106A8007B4A282FD106A88C
:10069000407B08B1012000E00020524908700DF1B4
:1006A000260105A807F07EFB9DED050ABDEEC00AF8
:1006B00010EE100A00B24B49088104208DF80800A2
:1006C0004648401C019000208DF809009DF822004A
:1006D0008DF80A009DF822200DF123010DF10B0089
:1006E0000DF052F969463B4809F096F8AEE09DF8E6
:1006F0002300472835D106A8007B442831D106A81D
:10070000407B08B1012000E00020364981F8280133
:100710000DF1260105A807F045FB9DED050ABDEE8C
:10072000C00A10EE100A01B22E48A0F830110420C1
:100730008DF808002948401C019000208DF8090020
:100740009DF822008DF80A009DF822200DF123016A
:100750000DF10B000DF018F969461E4809F05CF820
:1007600074E09DF8230046283ED106A8007B5A2855
:100770003AD101201B4908700420887000211948D3
:1007800080F851100120174981F8280104211548EB
:1007900080F82A11002180F8791104208DF80C00CE
:1007A0000E48401C029000208DF80D009DF822009C
:1007B0008DF80E009DF822200DF123010DF10F00A0
:1007C0000DF0E2F801A9034809F026F83EE0000028
:1007D0000000024000640040140402401613140597
:1007E000B0300020982100209DF8230053282DD1FF
:1007F00006A8007B542829D106A8407B412825D192
:1008000006A8807B4C2821D100209249087092498B
:1008100048700021904880F8291104208DF80C00C0
:100820008E48029000208DF80D009DF822008DF872
:100830000E009DF822200DF123010DF10F000DF0A7
:10084000A3F801A9864808F0E7FF00BF854907988B
:10085000884229D19DF82300472826D106A8007B8D
:100860004C2822D10121804880F8F91180F88911A3
:1008700080F8491380F8391004208DF80C007B486B
:10088000029000208DF80D009DF822008DF80E00DA
:100890009DF822200DF123010DF10F000DF074F8E9
:1008A00001A96F4808F0B8FF9EE09DF823004D288D
:1008B0003FD106A8007B4F283BD106A8407B08B15A
:1008C000012000E0002004466CB10521664880F854
:1008D000521180F8C21105206349887005216248D1
:1008E00080F812130CE000215F4880F8521180F864
:1008F000C21100205C49887000215B4880F8121307
:1009000004208DF80C005948029000208DF80D004D
:100910009DF822008DF80E009DF822200DF1230194
:100920000DF10F000DF030F801A94D4808F074FFEB
:100930005AE09DF823004B2821D106A8007B4C28C3
:100940001DD1032406A8407B4949087004208DF876
:100950000C004648029000208DF80D009DF8220002
:100960008DF80E009DF822200DF123010DF10F00EE
:100970000DF00AF801A93A4808F04EFF34E09DF85E
:100980002300412830D106A8007B53282CD1042015
:100990008DF80C003548029000208DF80D000720DE
:1009A0008DF80E0041208DF80F0053218DF81010A6
:1009B0004B218DF811102C4890ED590ABDEEC00A5C
:1009C00010EE100A04B2284890ED050ABDEEC00AE8
:1009D00010EE100A05B2ADF81240ADF8145001A99E
:1009E0001F4808F019FF00BF0BB030BD10B586B02E
:1009F00004462048807800F0010048B11D48807806
:100A000000F0020020B91B48807800F00400F0B923
:100A1000207A28B900208DF80C00206880380190D9
:100A200000208DF80D00A07A8DF80E00A27A04F156
:100A30000B010DF10F000CF0A7FF9DF80F004030E7
:100A4000C0B28DF80F0001A9054808F0E5FE06B018
:100A500010BD0000B03000209821002017131405AD
:100A60000064004000050100F82A00200101050093
:100A7000443600206C00002000B58BB001218806B0
:100A800009F0EBFE09220521FE4809F0F8FC0922D5
:100A90000621FC4809F0F3FC02208DF818006020C4
:100AA000059005A9F74809F05FFC40208DF8280063
:100AB00002208DF8290000208DF82A0001208DF8F1
:100AC0002B000AA808F0ABFC41208DF8280002207A
:100AD0008DF8290001208DF82A008DF82B000AA836
:100AE00008F09DFC00208DF822008DF823008DF881
:100AF00024008DF825008DF826008DF827008DF84C
:100B00001E008DF81F0008208DF8200003208DF8AE
:100B10002100ADF81C0007A9DB4808F004FD0E20F9
:100B20008DF80E0001208DF80F0000208DF81000C8
:100B300044F22000ADF8040044F24000ADF8060095
:100B400044F26000ADF808004FF48140ADF80A00AF
:100B50000020ADF80C0001208DF8110001A808F06C
:100B60006CFD0F208DF80E0001208DF80F00002085
:100B70008DF8100044F2A000ADF8040044F2C0006B
:100B8000ADF8060044F2E000ADF808004FF48240F2
:100B9000ADF80A000020ADF80C0001208DF811001E
:100BA00001A808F04AFD10208DF80E0001208DF8F4
:100BB0000F0000208DF8100045F22000ADF8040071
:100BC00045F24000ADF8060045F26000ADF80800BF
:100BD0004FF4A140ADF80A000120ADF80C008DF8EB
:100BE000110001A808F029FD11208DF80E00012048
:100BF0008DF80F0000208DF8100045F2A000ADF830
:100C0000040045F2C000ADF8060045F2E000ADF882
:100C100008004FF4A240ADF80A000120ADF80C0026
:100C20008DF8110001A808F008FD12208DF80E00C3
:100C300001208DF80F0000208DF8100043F22000F5
:100C4000ADF804004FF44150ADF8060043F26000E7
:100C5000ADF808004FF44250ADF80A000120ADF89D
:100C60000C008DF8110001A808F0E7FC13208DF8A6
:100C70000E0001208DF80F0000208DF8100043F2C7
:100C8000A000ADF804004FF44350ADF8060043F265
:100C9000E000ADF808004FF44450ADF80A00012020
:100CA000ADF80C008DF8110001A808F0C6FC142066
:100CB0008DF80E0000208DF80F0001208DF8100037
:100CC0000020ADF804004FF49040ADF806004FF658
:100CD000FF70ADF808004FF47840ADF80A0001202D
:100CE000ADF80C008DF8110001A808F0A6FC152045
:100CF0008DF80E0001208DF80F0000208DF81000F7
:100D00004BF22000ADF804004BF24000ADF80600B5
:100D10004BF28000ADF80800ADF80A000120ADF8F4
:100D20000C008DF8110001A808F087FC16208DF842
:100D30000E0001208DF80F0000208DF81000ADF896
:100D40000400ADF806004FF48350ADF808004FF4EE
:100D50008450ADF80A000120ADF80C008DF81100A8
:100D600001A808F06AFC17208DF80E0001208DF80C
:100D70000F0000208DF810004FF48550ADF80400EE
:100D80004FF48650ADF806004FF48750ADF80800D8
:100D90004FF48850ADF80A000120ADF80C008DF832
:100DA000110001A808F049FC01221021364808F082
:100DB00043FF0BB000BD10B52DED0C8B86B00221AA
:100DC000314808F0A1FF00285BD001AA00212E487D
:100DD00008F017FE02212C4809F031F80198B0F50F
:100DE000007F7DD90198B0F5027F79D89DF80D007C
:100DF000002875D10198401EC4B204A9481E04F011
:100E0000ABFB0DF11201481E04F0A6FB05A9481E1C
:100E100004F0A2FB04EB840000EB44101B4901EB3F
:100E2000C000B0F81C011A498988884213D1BDF866
:100E30000F1004EB840000EB4410144A02EBC000D6
:100E40008186BDF8111004EB840000EB441002EB26
:100E5000C00041842CE0BDF80F1004EB840000EBCF
:100E600044100A4A02EBC0008186BDF911000CF063
:100E700053FF41EC100B04EB840000EB44100349DA
:100E800008E061E100040240006800409821002071
:100E90002821002001EBC00080ED0A0BBDF81310E3
:100EA00004EB840000EB4410F84A02EBC0004184DC
:100EB00004EB840000EB4410F44901EBC000818E88
:100EC00004EB840000EB4410F04A02EBC000B0F8E1
:100ED0004C00081A01B204EB840000EB441000E05F
:100EE00031E102EBC000A0F8001104EB840000EB3C
:100EF0004410114601EBC000008C04EB840101EBAF
:100F0000441102EBC101088704EB840000EB44109C
:100F1000114601EBC000418C04EB840000EB44104F
:100F200002EBC000418704EB840000EB4410114643
:100F300001EBC00090ED0A0B04EB840000EB4410C1
:100F400001EBC00080ED100B04EB840000EB4410BB
:100F500001EBC000016B04EB840000EB441002EBDA
:100F6000C000816404EB840000EB4410114601EBE7
:100F7000C000818E04EB840000EB441002EBC00043
:100F8000A0F84C1004EB840000EB4410114601EB78
:100F9000C000B0F90001002808DD04EB840000EB7C
:100FA000441001EBC000B0F9000109E004EB84003B
:100FB00000EB4410B54901EBC000B0F9000140421C
:100FC000B0F57A6F2CDD04EB840000EB4410AF49E0
:100FD00001EBC000B0F9001104EB840000EB4410F9
:100FE000AA4A02EBC000B0F90001002802DA4FF073
:100FF000FF3000E0012004EB840202EB4412A34B1B
:1010000003EBC202B2F8182100FB121001B204EB8C
:10101000840000EB44101A4602EBC000A0F8001157
:1010200004EB840000EB4410984901EBC000016B15
:1010300004EB840000EB4410944A02EBC000B0F9CA
:101040000001014404EB840000EB441002EBC000FB
:10105000016304EB840000EB4410114601EBC00077
:10106000016B04EB840000EB441002EBC0008069CC
:10107000091A04EB840000EB441002EBC000C0F836
:10108000041104EB840101EB441102EBC101B1F83E
:1010900018010CF052FE41EC1A0B04EB840101EB39
:1010A00044117A4A02EBC10191F81A010CF045FE95
:1010B00041EC1C0B04EB840000EB4410734A02EB80
:1010C000C000006B00EE100AB8EEC00ADFED700A37
:1010D00020EE200A10EE101A08460CF073FE53ECB6
:1010E0001C2B0CF0AAFD53EC1A2B0CF0A6FD41ECC6
:1010F000190B04EB840000EB4410644901EBC000C1
:1011000090ED481BB0EE410AF0EE610A53EC102B53
:1011100051EC190B0CF091FD0CF01CFE00B204EB2D
:10112000840101EB4411594A02EBC10108840CF01F
:1011300069FA04EB840101EB4411544A02EBC1014A
:10114000C1F8100100BF00BF06B0BDEC0C8B10BD94
:101150004168491C4160002101730169491E016118
:10116000828A511CCA1701EB92629211A1EB821282
:101170008282704700B587B01021464808F0C4FD50
:10118000F0B102AA0121434808F03BFC102141487C
:1011900008F055FE10213F4808F093FD029870B901
:1011A0009DF81300401EC0EBC0003B4901EB00104E
:1011B00001900698009002A80FC802F00EF800BF38
:1011C00007B000BD70B5044604EB840000EB44108A
:1011D0002E4901EBC000B0F90A00002808DD04EB3D
:1011E000840000EB441001EBC000B0F90A0009E0F4
:1011F00004EB840000EB4410244901EBC000B0F97B
:101200000A00404204EB840101EB44111F4A02EB47
:10121000C101B1F81C11884220DD04EB840000EB11
:101220004410114601EBC000B0F90A00002802DAB0
:101230004FF0FF3000E0012004EB840101EB44118A
:10124000124A02EBC101B1F81C11484301B204EB90
:10125000840000EB441002EBC000418104EB8400E9
:1012600000EB4410094911F8300040B9002104EBAB
:10127000840000EB4410054A02EBC0004181042CBD
:101280000EDA4FF40070054908600DE09821002047
:101290000000B44300680040F82A0020F02000203D
:1012A00040F2FF102249086000202149487208726C
:1012B0000820887204F00B00450004EB840000EB6A
:1012C00044101C4901EBC000418919480B304153BF
:1012D00002466B1CD118501904F03EF9032C01D0C2
:1012E000072C03D11249144808F096FA70BD30B5A6
:1012F00085B005460C461148019000208DF8090084
:1013000004208DF8080003208DF80A0056208DF87F
:101310000B004C218DF80C108DF80D408DF80E50FF
:101320006946054808F078FA0548447005B030BDB4
:10133000F0200020982100200068004001010300F7
:101340000039002010B5FB48006840F00100F94961
:10135000086041F657300906C8620B200885084628
:10136000008840F4807008800846008A20F0010060
:1013700008820846808940F001008881084600887C
:1013800040F00100088003231C220121084607F0D9
:10139000BFF810BD10B54FF08040008A00F001008A
:1013A00000287DD0E448007806287AD2DFE800F0F3
:1013B0007903203D5AC8E04890ED020AB1EE400A98
:1013C000DE4880ED710ADC4890ED030AB1EE400A78
:1013D000DA4880EDC50AD84890ED030AD74880ED79
:1013E000010AD54890ED020AD44880ED550A0EE175
:1013F000D14890ED040AD14880ED550ACE4890EDD1
:10140000040AB1EE400ACD4880ED710ACA4890ED59
:10141000030AB1EE400AC94880EDC50AC64890EDFE
:10142000030AC64880ED010AF1E0C34890ED070ABF
:10143000B1EE400AC14880EDC50ABF4890ED070AE9
:10144000BE4880ED010ABC4890ED040ABB4880ED1F
:10145000550AB94890ED040AB1EE400AB74880ED4C
:10146000710AD4E0B648008838BBB34890ED080A4A
:10147000B248D0ED590A30EE600AAF4880ED0D0A4F
:1014800090ED0D0AD0ED0A0A80EE201A80ED0B1ABD
:1014900090ED090AA948D0ED050A30EE600A01E096
:1014A00008E2B3E0A44880ED0E0A90ED0E0AD0EDFC
:1014B0000A0A80EE201A80ED0C1A9F48D0ED0A0A25
:1014C0009F48008800EE100AB8EE400AF4EEC00A09
:1014D000F1EE10FA05DD9A480088401C9849088012
:1014E00004E000209449087095490880934890EDE5
:1014F000710A9148D0ED0B0A30EE600A8F4880EDFA
:10150000710A90ED550A8C48D0ED0B0A30EE200A96
:101510008A4880ED550A90EDC50A8748D0ED0C0A3F
:1015200030EE600A854880EDC50A90ED010A8248D8
:10153000D0ED0C0A30EE200A804880ED010A66E00A
:101540007F480088F8B97D4890ED590AB1EE400A0D
:10155000794880ED0D0A90ED0D0AD0ED0A0A80EE73
:10156000201A80ED0B1A754890ED050AB1EE400A7D
:10157000714880ED0E0A90ED0E0AD0ED0A0A80EE59
:10158000201A80ED0C1A6C48D0ED0A0A6C480088CD
:1015900000EE100AB8EE400AF4EEC00AF1EE10FABE
:1015A00005DD67480088401C6549088004E000208C
:1015B0006149087062490880604890ED710A5E4890
:1015C000D0ED0B0A30EE600A5C4880ED710A90EDB8
:1015D000550A5948D0ED0B0A30EE200A574880EDE5
:1015E000550A90EDC50A5448D0ED0C0A30EE600A59
:1015F000524880EDC50A90ED010A4F48D0ED0C0A23
:1016000030EE200A4D4880ED010A00BF00BF00BF48
:101610004C48007800287DD000204A4908700024FA
:10162000A5E0C4EBC402454B03EB0211E0B201F0AC
:101630003BFDC4EBC400414901EB001000780028D9
:1016400069D0C4EBC40001EB00104078002862D0E0
:10165000C4EBC40001EB00108078012804D00228FC
:1016600017D0052873D135E0C4EBC401334A02EB2F
:10167000011191ED020AB0EE402AE0B2DFED321A1C
:101680009FED311ADFED300A9FED2F0A01F045FD85
:101690006BE0C4EBC401294A02EB011191ED020A8F
:1016A000B0EE402AC4EBC40102EB011191ED100A27
:1016B000F0EE401AC4EBC40102EB011191ED030AF4
:1016C000F0EE400AE0B29FED201A9FED1F0A01F0F4
:1016D00024FD4AE0C4EBC401184A02EB0111D1ED2C
:1016E000022AB0EE622AC4EBC40102EB0111D1ED73
:1016F000102AF0EE621AC4EBC40102EB0111D1ED25
:101700000F2AB0EE621AC4EBC40102EB0111D1ED55
:10171000032A01E02FE029E0F0EE620AC4EBC401E5
:1017200002EB0111D1ED042AB0EE620AE0B201F041
:10173000F4FC1AE04038024044360020F82A002029
:10174000060000200400002000000000FFE7E0B2D7
:101750001FED032A5FED041A1FED051A5FED060A5F
:101760001FED070A01F0D9FC00BF00BF641C042C68
:10177000FFF657AF9EE0012091490870042496E0DF
:10178000C4EBC4028F4B03EB0211E0B201F08CFCFE
:10179000C4EBC4008B4901EB00100078002875D021
:1017A000C4EBC40001EB0010407800287ED0C4EBED
:1017B000C40001EB00108078012804D0022817D063
:1017C000052864D135E0C4EBC4017E4A02EB011167
:1017D00091ED020AB0EE402AE0B25FED251A1FED4E
:1017E000261A5FED270A1FED280A01F096FC5CE03F
:1017F000C4EBC401734A02EB011191ED020AB0EE91
:10180000402AC4EBC40102EB011191ED100AF0EE85
:10181000401AC4EBC40102EB011191ED030AF0EE92
:10182000400AE0B21FED381A1FED390A01F075FCCD
:101830003BE0C4EBC401634A02EB0111D1ED022A83
:10184000B0EE622AC4EBC40102EB0111D1ED102A03
:10185000F0EE621AC4EBC40102EB0111D1ED0F2AC4
:10186000B0EE621AC4EBC40102EB0111D1ED032A00
:10187000F0EE620AC4EBC40102EB0111D1ED042ABF
:10188000B0EE620AE0B201F048FC0EE00EE0E0B219
:101890001FED532A5FED541A1FED551A5FED560ADE
:1018A0001FED570A01F039FC00BF00BF641C082C73
:1018B000FFF666AF4FF08040008A20F001004FF045
:1018C0008041088210BD70B53F490878411C3E4AEE
:1018D0001170032807DD0020114608700022012145
:1018E000104602F043FA002464E004EB8400374918
:1018F00001EB0010407800B30BF084FE04EB840190
:10190000324A02EB0111096C411A04EB840002EB2C
:101910000010B0F8440081420FD904EB8400114656
:1019200001EB001090F83C00401CC1B204EB8400B5
:1019300002EB001080F83C1007E0002104EB84006B
:10194000224A02EB001080F83C1004EB84001F498F
:1019500001EB001090F83C000A2812DD012104EB95
:1019600084001A4A02EB0010C177621C022343EA8A
:10197000021292B242F48071154A506803F016FECA
:1019800017E0002104EB8400104A02EB0010C1773D
:10199000621C022343EA021292B242F480710C4AA2
:1019A000506803F0F5FD054609494868294603F0EB
:1019B000D9FD641C042C98DB70BD704770477047DC
:1019C00004000020F82A002005000020C02E00207E
:1019D0005400002010B52748006840F00200254957
:1019E000086042F6DF60244908600620091F08806D
:1019F00021482C38008840F480701F492C39088019
:101A00001D481C38008820F001001B491C39088043
:101A1000081F008840F00100091F088016482C3874
:101A2000008840F0010014492C39088003231D224E
:101A30000021012006F06CFD10BD10B50E481C38C9
:101A4000008800F0010058B10C490D4805F009FD6F
:101A50000C48407A20B1022208490B4805F00CFEE0
:101A600005481C38008820F0010003491C39088013
:101A700010BD0000403802402C0400406872002075
:101A80000068004000390020D051002070B52DEDD5
:101A90000E8B00BF4FF40050FE490880FE490880BD
:101AA000FE4908802420FB4988701320FA49887079
:101AB0000120FA49887042F22830F649888043F6BE
:101AC0009910F549888046F6CC40F44988809FED0E
:101AD000F40BF04880ED020B9FEDF10BEE4880ED2A
:101AE000020B9FEDEF0B084680ED020B0120EE4943
:101AF00008729FEDEE0B084680ED040B002008767F
:101B000008709FEDEC0A084680ED010A4FF4FA7068
:101B1000488340F6B83088830120E74908729FED7A
:101B2000E70B084680ED040B0020087608709FED57
:101B3000E10A084680ED010A4FF4FA60E149888322
:101B4000052404EB840000EB4410DF4901EBC000E6
:101B500000F58070D14D2ECD18302EC0002004EB42
:101B6000840101EB4411D84A02F83100012004EB52
:101B7000840101EB441102EBC1014870052004EB24
:101B8000840101EB441102EBC10188704FF4B47081
:101B900004EB840101EB441102EBC10108819FEDCC
:101BA000CB0B04EB840000EB4410114601EBC000AA
:101BB00080ED040B002104EB840000EB441002EBE9
:101BC000C000418104EB840202EB4412BE4B03EBE4
:101BD000C202916904EB840202EB441203EBC202DD
:101BE00002F15800F7EE001A9FEDBA1ADFEDBA0ABB
:101BF0009FEDB80A05F05EFF04EB840000EB441093
:101C0000B14901EBC00090ED041BB0EE410AF0EECB
:101C1000610A51EC100B0CF09DF8054604EB8401B1
:101C200001EB4411A84A02EBC10101F198002946D9
:101C3000F7EE001A9FEDA91AF2EE040AB2EE040ABA
:101C400005F038FF04EB840101EB44119E4A02EBDE
:101C5000C10101F1D800202297490BF095FE002424
:101C600004EB840000EB4410974901EBC00000F541
:101C70008070894D2ECD18302EC0002004EB8401D9
:101C800001EB4411904A02F83100012004EB840179
:101C900001EB441102EBC1014870052004EB840103
:101CA00001EB441102EBC1018870002004EB8401B8
:101CB00001EB441102EBC10108819FED7C0B04EBA9
:101CC000840000EB4410114601EBC00080ED040BD2
:101CD000642104EB840000EB441002EBC00041815E
:101CE00004EB840202EB4412774B03EBC2029169CE
:101CF00004EB840202EB441203EBC20202F158002F
:101D0000DFED771A9FED751AF6EE000AB2EE040ABF
:101D100005F0D0FE04EB840000EB44106A4901EBAF
:101D2000C00090ED041BB0EE410AF0EE610A51ECE8
:101D3000100B0CF00FF8054604EB840101EB441185
:101D4000614A02EBC10101F198002946F7EE001A41
:101D50009FED621ADFED630AB2EE040A05F0AAFEF7
:101D600004EB840101EB4411574A02EBC10101F17C
:101D7000D80020224C490BF007FE4FF60C6104EB13
:101D8000840000EB4410504A02EBC000A0F8F210AF
:101D9000012004EB840101EB441102EBC10181F845
:101DA000D8009FED510A04EB840000EB441011466B
:101DB00001EBC00080ED370A012104EB840000EB49
:101DC000441002EBC00080F8E0109FED480B04EBDC
:101DD000840000EB4410114601EBC00080ED3A0B8B
:101DE0009FED440B04EB840000EB441001EBC000BA
:101DF00080ED480B00251AE105EB850000EB45104E
:101E0000314901EBC0002F490968C0F8F8102D488E
:101E1000416805EB850000EB45102B4A02EBC00042
:101E2000C0F8FC1005EB850101EB451102EBC10187
:101E300001F580700A22234908310BF0A5FD2148E5
:101E4000418A05EB850000EB45101F4A02EBC000FC
:101E5000A0F80A1105EB850000EB4510114601EBD7
:101E6000C000F830174B5A699969DB69C0E906135D
:101E7000426105EB850101EB4511134A02EBC101FB
:101E8000B1F818010BF059FF41EC1A0B05EB850175
:101E900034E0000008210020182100202821002023
:101EA000000000000000F03F38210020000000008A
:101EB00000408F400000FA4358210020000000003D
:101EC00000007940782100209821002000000000C7
:101ED00000000000CDCCCC3DCDCC4C3E000000003D
:101EE000CDCCCC3E6666663F00008C43000000000F
:101EF00000E09540000000201E1E164001EB451139
:101F0000FE4A02EBC10191F81A010BF016FF41ECF9
:101F10001C0B05EB850000EB4510F84A02EBC000F6
:101F200090ED370A10EE101A08460BF04BFF41EC0B
:101F30001E0B05EB850000EB4510F04901EBC000DE
:101F400090ED481BB0EE410AF0EE610A53EC102B05
:101F500051EC1E0B0BF0FFFD53EC1C2B0BF0FBFDAB
:101F600053EC1A2B0BF0F7FD9FEDE50B53EC102B08
:101F70000BF063FE0BF00DFF05EB850101EB451146
:101F8000DE4A02EBC101C1F8F80005EB850101EB67
:101F9000451102EBC101B1F818010BF0CEFE41EC86
:101FA0001A0B05EB850101EB4511D44A02EBC10187
:101FB00091F81A010BF0C1FE41EC1C0B05EB8501F9
:101FC00001EB4511CD4A02EBC101B1F908000BF05C
:101FD000A3FE41EC1E0B05EB850000EB4510C74945
:101FE00001EBC00090ED481BB0EE410AF0EE610A33
:101FF00053EC102B51EC1E0B0BF0ADFD53EC1C2BD6
:102000000BF0A9FD53EC1A2B0BF0A5FD9FEDBC0BBB
:1020100053EC102B0BF011FE0BF09CFE05EB850131
:1020200001EB4511B54A02EBC10188616D1C082D19
:10203000FFF6E2AEBDEC0E8B70BD002255210A54B6
:10204000026300210184704710B52DED048B044616
:1020500004EB840000EB4410A84A02EBC00090EDB2
:102060002A0A10EE101A08460BF0ACFE41EC190BD0
:1020700004EB840000EB4410A04901EBC00090ED9C
:10208000041BB0EE410AF0EE610A53EC102B51EC48
:10209000190B0BF060FD0BF05DFE04EB840101EB0E
:1020A0004411964A02EBC101C1F8980004EB840088
:1020B00000EB4410114601EBC00090ED0A0B04EB5D
:1020C000840000EB441001EBC00080ED2E0B04EB0C
:1020D000840101EB441102EBC10101F1980005F00C
:1020E00089FD04EB840101EB4411844A02EBC10138
:1020F000B1F90A000BF010FE41EC190B04EB84005F
:1021000000EB44107D4901EBC00090ED2C1BB0EEBC
:10211000410AF0EE610A53EC102B51EC190B0BF055
:1021200073FC0BF017FE01B204EB840000EB4410CB
:10213000724A02EBC0004181BDEC048B10BD10B5AA
:102140002DED0E8B044604EB840101EB44116B4A28
:1021500002EBC101B1F818010BF0EFFD41EC1A0BD5
:1021600004EB840101EB4411644A02EBC10191F8D4
:102170001A010BF0E2FD41EC1C0B04EB840101EBB6
:1021800044115E4A02EBC101B1F908000BF0C4FD35
:1021900041EC1E0B04EB840000EB4410574901EBAB
:1021A000C00090ED481BB0EE410AF0EE610A53EC1E
:1021B000102B51EC1E0B0BF0CEFC53EC1C2B0BF038
:1021C000CAFC53EC1A2B0BF0C6FC9FED4D0B53ECE5
:1021D000102B0BF032FD0BF0BDFD04EB840101EB85
:1021E0004411464A02EBC101886104EB840000EB14
:1021F0004410114601EBC000806904EB840101EB3F
:10220000441102EBC101886504EB840000EB44102B
:10221000114601EBC000407870B904EB840000EB7C
:10222000441001EBC000D0F8FC0004EB840101EB8A
:10223000441102EBC101886504EB840000EB4410FB
:102240002E4901EBC00090F8D80088B304EB84005D
:1022500000EB441001EBC000806D002807DD04EBAB
:10226000840000EB441001EBC000806D08E004EB3B
:10227000840000EB4410214901EBC000806D404216
:1022800004EB840101EB44111C4A02EBC101D1F8BB
:10229000F81088421FD904EB840000EB441011466B
:1022A00001EBC000806D002803DA4FF0FF3001E041
:1022B00011E0012004EB840101EB44110F4A02EB11
:1022C000C101D1F8F810484304EB840101EB44113B
:1022D00002EBC101886504EB840101EB4411074A5C
:1022E00002EBC101086B0BF017FD41EC100B04EB86
:1022F000840000EB4410014906E000009821002012
:10230000000000000080764001EBC00080ED1E0B55
:1023100004EB840101EB4411FA4A02EBC10101F123
:10232000580005F067FC04EB840000EB4410F54A0C
:1023300002EBC00090ED1A0A10EE101A08460BF0DE
:1023400041FD41EC190B04EB840000EB4410ED4916
:1023500001EBC00090ED1C1BB0EE410AF0EE610AEB
:1023600053EC102B51EC190B0BF0F5FB0BF0F2FCBE
:1023700004EB840101EB4411E24A02EBC101C1F814
:10238000980004EB840000EB4410114601EBC00000
:1023900090F8E000002867D004EB840101EB4411C1
:1023A00002EBC101D1F89810002908DD04EB84018B
:1023B00001EB441102EBC101D1F8981009E004EBE4
:1023C000840101EB4411CF4A02EBC101D1F898100E
:1023D000494208460BF0A0FC41EC180B04EB8400CA
:1023E00000EB4410C74901EBC00090ED3A1BB0EE82
:1023F000410AF0EE610A53EC102B51EC180B0BF074
:10240000F5FC31D204EB840101EB4411BD4A02EB2F
:10241000C101D1F89810002902DA4FF0FF3100E035
:10242000012108460BF078FC41EC190B04EB840009
:1024300000EB4410B34901EBC00090ED3A1BB0EE45
:10244000410AF0EE610A53EC102B51EC190B0BF022
:1024500082FB0BF07FFC04EB840101EB4411A94AE1
:1024600002EBC101C1F8980004EB840000EB4410BA
:10247000A44901EBC00090ED0A0B04EB840000EBD3
:10248000441001EBC00080ED2E0B04EB840101EB46
:1024900044119C4A02EBC10101F1980005F0AAFB2E
:1024A00004EB840101EB4411964A02EBC101B1F93E
:1024B0000A000BF031FC41EC190B04EB840000EB3B
:1024C0004410904901EBC00090ED2C1BB0EE410A86
:1024D000F0EE610A53EC102B51EC190B0BF094FA4F
:1024E0000BF038FC01B204EB840000EB4410854A89
:1024F00002EBC000418104EB840000EB4410114664
:1025000001EBC000D0F80401002808DD04EB8400D2
:1025100000EB441001EBC000D0F8040109E004EB2B
:10252000840000EB4410774901EBC000D0F80401AF
:1025300040423C280ADA012004EB840101EB4411FB
:10254000704A02EBC10181F8500009E0002004EB61
:10255000840101EB44116B4A02EBC10181F8500088
:10256000BDEC0E8B10BD10B52DED048B044604EBB5
:10257000840000EB4410634901EBC000B0F9F200A5
:1025800004EB840101EB44115E4A02EBC101C1F886
:10259000980004EB840000EB4410114601EBC000EE
:1025A00090ED0A0B04EB840000EB441001EBC0003B
:1025B00080ED2E0B04EB840101EB441102EBC10111
:1025C00001F1980005F016FB04EB840101EB4411C6
:1025D0004C4A02EBC101B1F90A000BF09DFB41EC42
:1025E000190B04EB840000EB4410464901EBC000DA
:1025F00090ED2C1BB0EE410AF0EE610A53EC102B6B
:1026000051EC190B0BF000FA0BF0A4FB01B204EB38
:10261000840000EB44103B4A02EBC000418104EB14
:10262000840000EB4410114601EBC000B0F90A0031
:10263000002808DD04EB840000EB441001EBC0002F
:10264000B0F90A0009E004EB840000EB44102D49C6
:1026500001EBC000B0F90A0040422B49898B884247
:102660001ADD04EB840000EB4410264901EBC000A6
:10267000B0F90A00002802DA4FF0FF3000E0012034
:102680002149898B484301B204EB840000EB4410DC
:102690001C4A02EBC000418104EB840000EB4410B3
:1026A000184901EBC000B0F90001002808DD04EB77
:1026B000840000EB441001EBC000B0F9000109E018
:1026C00004EB840000EB44100E4901EBC000B0F9AC
:1026D00000014042322819DA04EB840000EB441078
:1026E000084901EBC000B0F80801401C81B204EBBE
:1026F000840000EB4410034A02EBC000A0F808116C
:102700000EE000009821002038210020002104EB79
:10271000840000EB4410E84A02EBC000A0F8081166
:1027200004EB840000EB4410E34901EBC000B0F877
:102730000801FA2831DD002104EB840000EB44108D
:10274000DD4A02EBC000A0F8081104EB840000EBA6
:10275000441002EBC0000163052004EB840101EB8F
:10276000441102EBC1018870012104EB840000EBED
:10277000441002EBC00080F85110002004EB8401EB
:1027800001EB441102EBC1010881002104EB84003C
:1027900000EB441002EBC0000163BDEC048B10BDE4
:1027A00070B52DED088B002480E104EB840000EB74
:1027B0004410C14901EBC000B0F81C01BF49898831
:1027C000884235D104EB840101EB4411BA4A02EB93
:1027D000C101B1F818010BF0B0FA41EC180B04EB91
:1027E000840101EB4411B44A02EBC101096BB44A04
:1027F00052F82420881A0BF08FFA9FEDB20B53EC9D
:10280000102B0BF0A8F99FEDB10B53EC102B0BF034
:10281000A2F953EC182B0BF010FA41EC100B04EB5F
:10282000840000EB4410A44901EBC00080ED0A0BCA
:1028300004EB840000EB44109F4901EBC000006BE7
:102840009F4941F8240004EB840000EB44109A49AE
:1028500011F83000002876D004EB840000EB44101F
:1028600001EBC000B0F90A1004EB840000EB441047
:10287000914A02EBC000B0F81C01081A002812DDD2
:1028800004EB840000EB4410114601EBC000B0F9EA
:102890000A1004EB840000EB441002EBC000B0F817
:1028A0001C01081A12E004EB840000EB441082497A
:1028B00001EBC000B0F81C1104EB840000EB4410E5
:1028C0007D4A02EBC000B0F90A00081A322846DD42
:1028D00004EB840000EB4410774901EBC000B0F832
:1028E0000A01401C81B204EB840000EB4410724AE0
:1028F00002EBC000A0F80A1104EB840000EB4410C6
:10290000114601EBC000B0F80A01B0F57A7F1BDD7B
:10291000012104EB840000EB441002EBC00080F8BE
:10292000521004EB840000EB4410114601EBC00090
:1029300090F8F000E8B1002004EB840101EB4411B1
:1029400002F8310015E00AE0002104EB840000EBFE
:102950004410594A02EBC00080F8521009E00021EF
:1029600004EB840000EB4410534A02EBC000A0F8D3
:102970000A1104EB840000EB44104F4901EBC00046
:10298000407878B104EB840000EB441001EBC00008
:10299000016B04EB840000EB4410474A02EBC000DB
:1029A000C0F8FC1004EB840000EB4410424901EB3A
:1029B000C00090F8550040B104EB840101EB4411D4
:1029C0003D4A02EBC100FFF738FB04EB840000EB4B
:1029D0004410394911F83000E8B30AF013FE04EB53
:1029E000840101EB4411344A02EBC101D1F810110A
:1029F000411A04EB840000EB441002EBC000B0F875
:102A00001401814236D904EB840000EB44101146D6
:102A100001EBC00090F80C01401CC1B204EB840033
:102A200000EB441002EBC00080F80C110A2916DDFF
:102A3000012104EB840000EB441002EBC00080F89D
:102A40005310621C012343EA021292B242F48071D5
:102A5000204A506800E00DE002F0A8FD25E00021CA
:102A600004EB840000EB4410134A02EBC00080F832
:102A700053101AE0002104EB840000EB44100E4ACE
:102A800002EBC00080F80C11621C012343EA021221
:102A900092B242F480710F4A506802F079FD054607
:102AA0000C494868294602F05DFD641C082CFFF6BD
:102AB0007CAEBDEC088B70BD982100202821002041
:102AC000D82A00200000000000005940000000004B
:102AD00000004E4054000020F0B585B007460E4679
:102AE0001546781C009000208DF809008DF808002C
:102AF0008DF80A50002404E0315D0DF10B00015502
:102B0000641CAC42F8DB6946FE4806F085FE05B061
:102B1000F0BD7CB505460C46FBA103C9CDE900011B
:102B2000012C04D0022C06D0032C0CD107E0FC2091
:102B30008DF8070008E0FD208DF8070004E0FE2076
:102B40008DF8070000E07CBD00BF082269462846DA
:102B5000FFF7C2FF00BFF6E770B50024B1EE080A28
:102B6000EB4880ED000AB7EE000A80ED010A002074
:102B7000E849087000BFC4EBC400E74901EB00104E
:102B8000E34A06CAC0E91A120120C4EBC401E24AB2
:102B900002EB01110870C4EBC40102EB0111487093
:102BA0000020C4EBC40102EB011188709FEDDB0A29
:102BB000C4EBC400114601EB001080ED020A9FED4A
:102BC000D70AC4EBC40001EB001080ED030A9FEDAF
:102BD000D30AC4EBC40001EB001080ED010A9FEDA5
:102BE000D00AC4EBC40001EB001080ED0F0AB7EE71
:102BF000000AC4EBC40001EB001080ED100AC4EB26
:102C0000C40102EB011101F148002022C1490AF080
:102C1000BBFE0124C4EBC400BF4901EB0010BC4A59
:102C200006CAC0E91A120020C4EBC401BA4A02EB7A
:102C3000011108700120C4EBC40102EB01114870BE
:102C40000520C4EBC40102EB011188709FEDB30AAB
:102C5000C4EBC400114601EB001080ED020A9FEDA9
:102C6000AF0AC4EBC40001EB001080ED030A9FED36
:102C7000AB0AC4EBC40001EB001080ED010A9FED2C
:102C8000A80AC4EBC40001EB001080ED0F0AB7EEF8
:102C9000000AC4EBC40001EB001080ED100AC4EB85
:102CA000C40102EB011101F14800202299490AF008
:102CB0006BFE0224C4EBC400974901EB0011944A57
:102CC00005CAC1E91A020020C4EBC401924A02EB12
:102CD000011108700120C4EBC40102EB011148701E
:102CE0000520C4EBC40102EB011188709FED8B0A33
:102CF000C4EBC400114601EB001080ED020A9FED09
:102D0000870AC4EBC40001EB001080ED030A9FEDBD
:102D1000830AC4EBC40001EB001080ED010A9FEDB3
:102D2000800AC4EBC40001EB001080ED0F0AB7EE7F
:102D3000000AC4EBC40001EB001080ED100AC4EBE4
:102D4000C40102EB011101F14800202271490AF08F
:102D50001BFE0324C4EBC4006F4901EB00106C4A56
:102D600006CAC0E91A120120C4EBC4016A4A02EB88
:102D700001110870C4EBC40102EB0111487000207E
:102D8000C4EBC40102EB011188709FED640AC4EB2F
:102D9000C400114601EB001080ED020A9FED5F0AAE
:102DA000C4EBC40001EB001080ED030A9FED5B0A49
:102DB000C4EBC40001EB001080ED010A9FED580A3E
:102DC000C4EBC40001EB001080ED0F0AB7EE000A5F
:102DD000C4EBC40001EB001080ED100AC4EBC40189
:102DE00002EB011101F1480020224A490AF0CCFD12
:102DF0000424C4EBC400484901EB0010444A06CA4D
:102E0000C0E91A120120C4EBC401434A02EB0111CC
:102E10000870C4EBC40102EB011148700020C4EB40
:102E2000C40102EB011188709FED3C0AC4EBC400A1
:102E3000114601EB001080ED020A9FED380AC4EB49
:102E4000C40001EB001080ED030A9FED340AC4EBCF
:102E5000C40001EB001080ED010A9FED310AC4EBC4
:102E6000C40001EB001080ED0F0AB7EE000AC4EBBE
:102E7000C40001EB001080ED100AC4EBC40102EBAA
:102E8000011101F14800202222490AF07DFD0524AC
:102E9000C4EBC400204901EB00111D4A05CAC1E979
:102EA0001A020020C4EBC4011B4A02EB0111087096
:102EB0000120C4EBC40102EB011148700520C4EBF2
:102EC000C40102EB011188709FED140AC4EBC40029
:102ED000114601EB001080ED020A9FED100AC4EBD1
:102EE000C40001EB001080ED030A9FED0C0AC4EB57
:102EF000C40001EB001080ED010A9FED090AC4EB4C
:102F0000C4000FE000680040FFFFFFFFFFFFFF006D
:102F100008000020782E0020F82A00200000000081
:102F20000000C84201EB001080ED0F0AB7EE000A66
:102F3000C4EBC40001EB001080ED100AC4EBC40127
:102F400002EB011101F148002022D9490AF01CFDD1
:102F50000624C4EBC400D74901EB0011D64A05CAC8
:102F6000C1E91A020020C4EBC401D24A02EB0111EC
:102F700008700120C4EBC40102EB01114870052068
:102F8000C4EBC40102EB011188701FED1C0AC4EBF5
:102F9000C400114601EB001080ED020A1FED210A6A
:102FA000C4EBC40001EB001080ED030A1FED250AFD
:102FB000C4EBC40001EB001080ED010A1FED280AEC
:102FC000C4EBC40001EB001080ED0F0AB7EE000A5D
:102FD000C4EBC40001EB001080ED100AC4EBC40187
:102FE00002EB011101F148002022B1490AF0CCFCAA
:102FF0000724C4EBC400AF4901EB0010AE4A06CA77
:10300000C0E91A120120C4EBC401AA4A02EB011163
:103010000870C4EBC40102EB011148700020C4EB3E
:10302000C40102EB011188701FED440AC4EBC40017
:10303000114601EB001080ED020A1FED480AC4EBB7
:10304000C40001EB001080ED030A1FED4C0AC4EB35
:10305000C40001EB001080ED010A1FED4F0AC4EB24
:10306000C40001EB001080ED0F0AB7EE000AC4EBBC
:10307000C40001EB001080ED100AC4EBC40102EBA8
:10308000011101F14800202289490AF07DFC002548
:1030900007E0E8B20121FFF73CFD052004F01FFF27
:1030A0006D1C082DF5DB70BD70B52DED068B05464A
:1030B0000C4694ED010AD4ED1A0A20EE200A10EE17
:1030C000101A08460AF07EFE41EC1A0B9FED7B0BAE
:1030D00053EC102B0AF03FFD41EC190B9FED790BDF
:1030E00053EC102B0AF0A9FD41EC180B0AF096FEE8
:1030F00000EE100A84ED040A3920005D50B1002171
:10310000392001551FED7B0A84ED080A032128466A
:10311000FFF7FFFCBDEC068B70BD2DE9F0472DEDF0
:10312000068B8146B0EE40AAB0EE608AF0EE418A8E
:10313000B0EE619AF0EE429A10209FED641ADFED36
:10314000640AB0EE4A0A04F0B0FE04460C20B3EE66
:103150000E1AFBEE0E0AB0EE480A04F0A6FE054673
:103160000C209FED5C1A5FED930AB0EE680A04F044
:103170009CFE06460C20B1EE041A5FED980AB0EEF4
:10318000490A04F092FE07460C20B3EE021AFBEE49
:10319000020AB0EE690A04F088FE804620124E4909
:1031A00008704C70C5F3071088702807000E40EABD
:1031B0002620C8700E71C7F3071048713807000E3B
:1031C00040EA2820887181F8078008224846FFF7E6
:1031D00083FCBDEC068BBDE8F0870FB42DE9F04110
:1031E0002DED088B139C0EA8417B007B41EA002546
:1031F0000EA8807B01010EA8C07B41EA20170EA813
:10320000017CC07B00F00F0041EA00261021DFEDB9
:103210002F0A9FED2F0A284604F02DFE84ED080AA0
:103220000C21F3EE0E0ABBEE0E0A384604F023FE24
:1032300084ED070A0C21F3EE020ABBEE020A3046C7
:1032400004F019FE84ED060A94ED1A0AD4ED1B0A67
:1032500020EE200A10EE101A08460AF0B3FD41ECE9
:10326000190B94ED080ADFED1D0A20EE200A10EE7E
:10327000101A08460AF0A6FD41EC1B0B9FED0F0B40
:1032800053EC102B0AF0D9FC41EC1A0B53EC192B20
:103290000AF0D3FC41EC180B0AF0C0FD00EE100A56
:1032A00084ED050ABDEC088BBDE8F0015DF814FB68
:1032B000782E0020F82A0020080000204AD8124D5D
:1032C000FB21094000000000008066400000BF4272
:1032D0000000BFC20000FA43100000200000344389
:1032E00010B54FF48040FE490880B7EE000A08464A
:1032F00080ED010A4FF48040FA490880B7EE000AD9
:10330000084680ED010A4FF47A60F74908809FED86
:10331000F70A084680ED010A4FF47A60F449088004
:103320009FEDF40A084680ED010A0020F24908707A
:103330009FEDF20A084680ED010A002008724FF462
:103340007A704881002008734FF4FA70C8814000F9
:1033500008824000EA490882EA48E54A06CAC0E90C
:1033600012120020E74948700520087000204860CC
:103370006421E448C1600181002428E004EB840159
:10338000E04A02EB011101F120001422DA490AF0AF
:10339000FBFA04EB8400DB4901EB0010D8490A6812
:1033A000426389880187D648C18804EB8400D54AE6
:1033B00002EB0010418704EB8400114601EB001082
:1033C000CF4B9968DA681B693C300EC0641C052C31
:1033D000D4DB10BD10B586B00446002001908DF8F6
:1033E0000D008DF80C0008208DF80E0001208DF8DE
:1033F0000F0000218DF810108DF811108DF81210AB
:103400008DF813108DF814108DF815108DF8161016
:1034100001A9204606F000FA06B010BD0FB438B579
:10342000044606A80090009802C80090009804C8BE
:103430000090B54B5B88581CC31700EB93639B113E
:10344000A0EB8313B04D2D88AB4205D10120AF4BCB
:10345000D87238BC5DF814FB04F54070AA4B5D8847
:103460001B1D03EB051318609DF81400012822D1E1
:103470000423A5484588001D00EB05100371412376
:10348000A1484588001D00EB0510437143239E4869
:103490004588001D00EB0510837100239A4845887C
:1034A000001D00EB0510C37197484588001D00EB17
:1034B000051003722CE09DF81400022828D108237F
:1034C00091484588001D00EB0510037141238E488B
:1034D0004588001D00EB0510437143238A48458849
:1034E000001D00EB05108371002387484588001DEF
:1034F00000EB0510C37184484588001D00EB0510E2
:10350000037281484388001D00EB0310C0F80920B6
:103510007D484588001D00EB051041737A4B5B88A0
:10352000581CC31700EB93639B11A0EB8313764DDC
:103530006B800020009000BF8BE710B50246724BF5
:103540005B88581CC31700EB93639B11A0EB83139C
:103550006D4C2488A34203D101206C4BD87210BD5E
:1035600002F54070684B5C881B1D03EB0413186068
:10357000042365484488001D00EB041003714223B6
:1035800061484488001D00EB0410437147235E48E6
:103590004488001D00EB0410837100235A484488BE
:1035A000001D00EB0410C37157484488001D00EB58
:1035B0000410037254484388001D00EB031041734C
:1035C000514B5B88581CC31700EB93639B11A0EB16
:1035D00083134D4C638000BFC1E70FB438B5044678
:1035E00006A80090009802C80090009804C80090B7
:1035F000454B5B88581CC31700EB93639B11A0EBF2
:103600008313414D2D88AB4205D101203F4BD87229
:1036100038BC5DF814FB04F540703B4B5D881B1D06
:1036200003EB051318609DF81400012822D1042330
:1036300035484588001D00EB0510037144233248CE
:103640004588001D00EB0510437143232E48458833
:10365000001D00EB0510837100232B484588001DD9
:1036600000EB0510C37128484588001D00EB0510CC
:1036700003722CE09DF81400022828D10823224868
:103680004588001D00EB0510037144231E48458842
:10369000001D00EB0510437143231B484588001DA6
:1036A00000EB05108371002317484588001D00EBCF
:1036B0000510C37114484588001D00EB0510037206
:1036C00011484388001D00EB0310C0F809200E4884
:1036D0004588001D00EB051041730B4B5B8817E01C
:1036E000180000202000002028000020CDCC6C40D5
:1036F00030000020E4389641982E00200000344429
:10370000AC2E0020C02E002068720020003900205E
:10371000581CC31700EB93639B11A0EB8313F74D69
:103720006B800020009000BF72E70FB478B507A946
:103730000091009904C90091009908C90091EF4CCB
:103740006488611CCC1701EB9464A411A1EB841470
:10375000EA4D2D88AC4205D10121E94CE17278BCDB
:103760005DF814FB00F54071E44C6588241D04EB02
:10377000051421609DF81810012922D10424DF4985
:103780004D88091D01EB05110C714A24DB494D8858
:10379000091D01EB05114C715624D8494D88091DAE
:1037A00001EB05118C710024D4494D88091D01EBF2
:1037B0000511CC71D1494D88091D01EB05110C7221
:1037C00039E09DF81810022935D1441E04EB840419
:1037D000CC4D05EB0414B4F848405C433C2594FB05
:1037E000F5F10825C54C6688241D04EB06142571E7
:1037F0004A25C24C6688241D04EB061465715625C3
:10380000BE4C6688241D04EB0614A5710025BB4C34
:103810006688241D04EB0614E571B84C6688241DE7
:1038200004EB06142572B54C6588241D04EB0514C1
:10383000C4F8091000BFB1494D88091D01EB0511FD
:103840004A73AE4C6488611CCC1701EB9464A411DC
:10385000A1EB8414A94D6C800021009100BF7EE78C
:1038600010B50246A54B5B88581CC31700EB936349
:103870009B11A0EB8313A14C2488A34203D1012008
:103880009F4BD87210BD02F540709C4B5C881B1D8D
:1038900003EB04131860042398484488001D00EBD0
:1038A00004100371492395484488001D00EB04105F
:1038B0004371512391484488001D00EB041083712B
:1038C00000238E484488001D00EB0410C371802340
:1038D0008A484488001D00EB04100372874843881F
:1038E000001D00EB03104173844B5B88581CC31709
:1038F00000EB93639B11A0EB8313804C638000BFAC
:10390000C0E70FB438B5044606A80090009802C876
:103910000090009804C80090784B5B88581CC3172F
:1039200000EB93639B11A0EB8313744D2D88AB4286
:1039300005D10120724BD87238BC5DF814FB04F538
:1039400040706E4B5D881B1D03EB051318609DF8DE
:103950001400012823D1042368484588001D00EB8A
:10396000051003714D2365484588001D00EB0510C7
:1039700043714F2361484588001D00EB051083719A
:1039800000235E484588001D00EB0510C3714023ED
:103990005A484588001D00EB051003723DE09DF874
:1039A0001400022839D1082354484588001D00EB33
:1039B000051003714D2351484588001D00EB05108B
:1039C00043714F234D484588001D00EB051083715E
:1039D00000234A484588001D00EB0510C371474885
:1039E0004588001D00EB0510037244484588001D02
:1039F00000EB0510427241484588001D00EB0510A0
:103A000083723E484588001D00EB0510C3723B4899
:103A10004588001D00EB0510037338484588001DDC
:103A200000EB05104173354B5B88581CC31700EB46
:103A300093639B11A0EB8313304D6B8000200090AB
:103A400000BF79E770B586B006460C4615460020E3
:103A50008DF80C008DF80D0006F540700190012CDA
:103A60000ED104208DF80E004D208DF80F004F214F
:103A70008DF8101000218DF811108DF8121017E03C
:103A8000022C15D108208DF80E004D208DF80F0066
:103A90004F218DF8101000218DF811108DF81210A3
:103AA0008DF813508DF814108DF815108DF8161030
:103AB00001A9154805F0B0FE06B070BD0FB478B589
:103AC0000022002307A90091009904C900910099E0
:103AD00008C90091094C6488611CCC1701EB9464FF
:103AE000A411A1EB8414054D2D88AC420ED1012107
:103AF000034CE17278BC5DF814FB00006872002092
:103B000000390020C02E00200064004000F5407104
:103B1000FE4C6588241D04EB051421609DF81810E7
:103B2000012922D10424F9494D88091D01EB051111
:103B30000C715024F5494D88091D01EB05114C719C
:103B40004124F2494D88091D01EB05118C710024B7
:103B5000EE494D88091D01EB0511CC71EB494D88EB
:103B6000091D01EB05110C724BE09DF8181002299C
:103B700047D1441E04EB8404E54D05EB041494ED99
:103B8000130A9FEDE41AC0EE010A441E04EB8404FC
:103B900005EB0414B4F848405C4300EE104AB8EE5C
:103BA000C00A20EE800ABDEEC00A10EE101A0825E9
:103BB000D64C6688241D04EB061425715025D34C81
:103BC0006688241D04EB061465714125CF4C668878
:103BD000241D04EB0614A5710025CC4C6688241D19
:103BE00004EB0614E571C94C6688241D04EB061429
:103BF0002572C64C6588241D04EB0514C4F8091011
:103C000000BFC2494D88091D01EB05114A73BF4C25
:103C10006488611CCC1701EB9464A411A1EB84149B
:103C2000BA4D6C800021009100BF63E710B50246D9
:103C3000B64B5B88581CC31700EB93639B11A0EB3A
:103C40008313B24C2488A34203D10120B24BD87213
:103C500010BD02F54070AD4B5C881B1D03EB0413D7
:103C600018600423A9484488001D00EB0410037168
:103C70005023A6484488001D00EB041043714523DF
:103C8000A2484488001D00EB0410837100239F4864
:103C90004488001D00EB0410C3719C484488001D3B
:103CA00000EB0410037299484388001D00EB0310D9
:103CB0004173964B5B88581CC31700EB93639B11B1
:103CC000A0EB8313914C638000BFC1E710B502469F
:103CD0008E4B5B88581CC31700EB93639B11A0EBC2
:103CE00083138A4C2488A34203D101208A4BD872C3
:103CF00010BD02F54070854B5C881B1D03EB04135F
:103D00001860042381484488001D00EB04100371EF
:103D100050237E484488001D00EB04104371522359
:103D20007A484488001D00EB041083710023774813
:103D30004488001D00EB0410C37174484488001DC2
:103D400000EB0410037271484388001D00EB031060
:103D500041736E4B5B88581CC31700EB93639B1138
:103D6000A0EB8313694C638000BFC1E70FB438B583
:103D7000044606A80090009802C80090009804C865
:103D80000090624B5B88581CC31700EB93639B1138
:103D9000A0EB83135D4D2D88AB4205D101205E4B16
:103DA000D87238BC5DF814FB04F54070574B5D8841
:103DB0001B1D03EB051318609DF81400012822D188
:103DC000042352484588001D00EB05100371502361
:103DD0004E484588001D00EB0510437158234B48A1
:103DE0004588001D00EB0510837100234748458876
:103DF000001D00EB0510C37144484588001D00EB11
:103E0000051003722CE09DF81400022828D1082325
:103E10003E484588001D00EB0510037150233B48C8
:103E20004588001D00EB051043715823374845882D
:103E3000001D00EB05108371002334484588001DE8
:103E400000EB0510C37131484588001D00EB0510DB
:103E500003722E484388001D00EB0310C0F80920B0
:103E60002A484588001D00EB05104173274B5B88ED
:103E7000581CC31700EB93639B11A0EB8313234DD6
:103E80006B800020009000BF8BE70FB438B504466C
:103E900006A80090009802C80090009804C80090FE
:103EA0001A4B5B88581CC31700EB93639B11A0EB64
:103EB0008313164D2D88AB4205D10120164BD872C5
:103EC00038BC5DF814FB04F54070104B5D881B1D79
:103ED00003EB051318609DF8140001282BD104236F
:103EE0000A484588001D00EB05100371532307485D
:103EF0004588001D00EB05104371442303484588A5
:103F0000001D00EB05108371002307E0687200209C
:103F1000C02E00200000B44300390020FE48458830
:103F2000001D00EB0510C371FB484588001D00EB28
:103F3000051003722CE09DF81400022828D10823F4
:103F4000F5484588001D00EB051003715323F24826
:103F50004588001D00EB051043714423EE48458859
:103F6000001D00EB051083710023EB484588001D00
:103F700000EB0510C371E8484588001D00EB0510F3
:103F80000372E5484388001D00EB0310C0F80920C8
:103F9000E1484588001D00EB05104173DE4B5B884E
:103FA000581CC31700EB93639B11A0EB8313DA4DEE
:103FB0006B800020009000BF82E70FB478B507A99E
:103FC0000091009904C90091009908C90091D24C50
:103FD0006488611CCC1701EB9464A411A1EB8414D8
:103FE000CD4D2D88AC4205D10121CC4CE17278BC7D
:103FF0005DF814FB00F54071C74C6588241D04EB87
:10400000051421609DF81810012922D10424C24909
:104010004D88091D01EB05110C715324BE494D88D3
:10402000091D01EB05114C715024BB494D88091D38
:1040300001EB05118C710024B7494D88091D01EB76
:104040000511CC714024B4494D88091D01EB0511BF
:104050000C729DF81810022935D1441E04EB84041B
:10406000AF4D05EB0414B4F848405C433C2594FB89
:10407000F5F10825A84C6688241D04EB061425716B
:104080005325A54C6688241D04EB06146571502544
:10409000A14C6688241D04EB0614A57100259E4CD6
:1040A0006688241D04EB0614E5719B4C6688241D6C
:1040B00004EB06142572984C6588241D04EB051446
:1040C000C4F8091000BF94494D88091D01EB051182
:1040D0004A73914C6488611CCC1701EB9464A41161
:1040E000A1EB84148C4D6C800021009100BF7EE711
:1040F00010B50246884B5B88581CC31700EB9363CE
:104100009B11A0EB8313844C2488A34203D101208C
:10411000824BD87210BD02F540707F4B5C881B1D2E
:1041200003EB0413186004237B484488001D00EB54
:1041300004100371532378484488001D00EB0410D9
:104140004371542374484488001D00EB04108371AC
:10415000002371484488001D00EB0410C3716E48B1
:104160004488001D00EB041003726B484388001D57
:1041700000EB03104173684B5B88581CC31700EBBE
:1041800093639B11A0EB8313634C638000BFC1E773
:104190000FB438B5044606A80090009802C80090F5
:1041A0000098006800EE100A0098001D00905A4A1E
:1041B0005288501CC21700EB92629211A0EB82123F
:1041C000554B1B889A4205D10120544AD07238BC05
:1041D0005DF814FB04F540704F4A5388121D02EB42
:1041E000031210609DF81400022833D1F8EEC00AC3
:1041F0009FED4C1AC0EE811AFDEEE10A10EE900A16
:104200000823454A5588121D02EB051213715423E9
:10421000414A5588121D02EB0512537143233E4A51
:104220005588121D02EB0512937100233A4A5588F6
:10423000121D02EB0512D371374A5588121D02EB8D
:1042400005121372344A5388121D02EB0312C2F88E
:10425000090000BF30484388001D00EB0310417384
:104260002D4A5288501CC21700EB92629211A0EBAB
:104270008212294B5A800020009000BFA7E70FB49C
:1042800038B5044606A80090009802C8009000982F
:1042900004C80090204B5B88581CC31700EB936345
:1042A0009B11A0EB83131C4D2D88AB4205D101203F
:1042B0001A4BD87238BC5DF814FB04F54070164BED
:1042C0005D881B1D03EB051318609DF81400012881
:1042D0002AD1042310484588001D00EB0510037106
:1042E00055230D484588001D00EB051043714D23F3
:1042F00009484588001D00EB05108371002306481E
:104300004588001D00EB0510C37103484588001D5A
:1043100000EB0510037245E06872002000390020B0
:10432000C02E00200000C8429DF81400022839D198
:1043300008234F484588001D00EB051003715523E5
:104340004B484588001D00EB051043714D2348483C
:104350004588001D00EB0510837100234448458803
:10436000001D00EB0510C37141484588001D00EB9E
:10437000051003723E484588001D00EB051042728F
:104380003B484588001D00EB05108372384845887E
:10439000001D00EB0510C37235484588001D00EB79
:1043A0000510037332484588001D00EB051041736A
:1043B0002F4B5B88581CC31700EB93639B11A0EB3A
:1043C00083132B4D6B800020009000BF72E710B567
:1043D0000246274B5B88581CC31700EB93639B1165
:1043E000A0EB8313224C2488A34203D10120214B4C
:1043F000D87210BD02F540701D4B5C881B1D03EB8D
:104400000413186004231A484488001D00EB0410AC
:104410000371562316484488001D00EB04104371B5
:10442000582313484488001D00EB041083710023B7
:104430000F484488001D00EB0410C3710C484488E9
:10444000001D00EB0410037209484388001D00EBB7
:1044500003104173064B5B88581CC31700EB936332
:104460009B11A0EB8313024C638000BFC1E70000E7
:10447000687200200039002010B50720F749087045
:104480009FEDF70A084680ED010A41F28830886006
:104490001520F449087040F6340088601220F24973
:1044A00008700020F149087247F23050C8600020BF
:1044B00008744FF47A704861B2EE040A084680ED41
:1044C000010A4FF4FA60EA490881012008730020CC
:1044D000E84908700846007800EB400101EBC00095
:1044E000E54901EB401000F58070DE4BD3E9002177
:1044F0009B68C0E9151302650020DE49097801EBCD
:10450000410202EBC101DC4A02EB411108700120BB
:10451000D849097801EB410202EBC101D64A02EB0E
:10452000411148700220D349097801EB410202EBA6
:10453000C101D14A02EB4111C8709FEDD00ACD48AC
:10454000007800EB400101EBC000114601EB401088
:1045500080ED010A4FF4FA71C648007800EB400282
:1045600002EBC000C44A02EB401081600021C14848
:10457000007800EB400202EBC000BF4A02EB4010A3
:104580000161B7EE000ABB48007800EB400101EB87
:10459000C000114601EB401080ED050AB54A1278C3
:1045A00002EB420303EBC2020B4603EB421211691A
:1045B000B04A127802EB420303EBC202AE4B03EBAC
:1045C000421202F13000F7EE001A9FEDAC1ADFED57
:1045D000AC0AB6EE000A03F06DFAA64A127802EBB6
:1045E000420303EBC202A44B03EB42129168A14ABF
:1045F000127802EB420303EBC2029F4B03EB421221
:1046000002F17000F7EE001AB7EE001ADFED9D0A16
:104610009FED9D0A03F04EFA9649097801EB41029D
:1046200002EBC101944A02EB411101F1B000DFED50
:10463000971A9FED971ADFED910A9FED960A03F006
:1046400053FA8C49097801EB410202EBC1018A4A15
:1046500002EB411101F1E400DFED8C1A9FED871AA6
:10466000DFED860A9FED8C0A03F03EFA8149097856
:1046700001EB410202EBC1017F4A02EB411101F55E
:104680009C701822794909F07FF99FED750A7948E5
:10469000007800EB400101EBC000774901EB4010CE
:1046A00080ED4F0A0120734908700846007800EB3E
:1046B000400101EBC000704901EB401000F5807033
:1046C000684BD3E900219B68C0E9151302650020FF
:1046D0006849097801EB410202EBC101664A02EB2D
:1046E0004111087001206349097801EB410202EB96
:1046F000C101614A02EB4111487005205D4909780A
:1047000001EB410202EBC1015B4A02EB4111C870AF
:10471000B2EE040A5748007800EB400101EBC000FC
:10472000114601EB401080ED010A6FF0C7015148BE
:10473000007800EB400202EBC0004F4A02EB401051
:10474000816000214B48007800EB400202EBC00082
:10475000494A02EB40100161B7EE000A4548007873
:1047600000EB400101EBC000114601EB401080ED71
:10477000050A404A127802EB420303EBC2020B46E1
:1047800003EB421211693B4A127802EB420303EB3E
:10479000C202394B03EB421202F13000F7EE001A6D
:1047A0009FED361ADFED390AB6EE000A03F082F902
:1047B000002450E004EB440101EBC4012E4A02EB5B
:1047C000411101F58C700A22294909F0DDF82848C9
:1047D000418904EB440000EBC400274A02EB40107F
:1047E000A0F8221104EB440000EBC400114601EBD9
:1047F00040101F498989A0F824111D48C18904EB84
:10480000440000EBC40002EB4010A0F82611184849
:10481000018A04EB440000EBC40002EB4010A0F856
:10482000281104EB440000EBC400114601EB4010DA
:1048300000F58C700E4A51699269C0E905120C4866
:10484000C16904EB440000EBC4000B4A02EB4010CA
:10485000C0F83411641C042CACDB10BD50300020B7
:10486000000070425C30002068300020743000206E
:104870008C30002040000020B030002000000000FC
:10488000EC51383D6F12833A4260E53BCDCC4C3E53
:1048900017B7D1398FC2F53C8FC2753C2E21095C08
:1048A00019B100222E210A544262704730B52DED15
:1048B000028B81B00446B0EE408A0D460020009085
:1048C00044F48070FE494860002048720420087259
:1048D000082088729FEDFB0A28EE000ABDEEC00A90
:1048E00010EE101A6A46F6480B3003F067FAF449E6
:1048F000F54804F091FF01B0BDEC028B30BD70B5FE
:10490000044604EB440202EBC402F04B03EB4212F8
:10491000D2F8581104EB440202EBC40203EB42123A
:1049200002F1080004F0C9F804EB440303EBC403EC
:10493000E64D05EB4313DB6904EB440505EBC405C9
:10494000E24E06EB451595F8505103FB05F204EBDA
:10495000440303EBC403354605EB43139B6804EBA8
:10496000440505EBC40506EB451595F8505103FBCE
:1049700005F104EB440303EBC403354605EB431395
:1049800003F1E40003F0B9F804EB440000EBC400C9
:10499000294601EB401090ED430A04EB440000EB84
:1049A000C40001EB4010D0ED550A20EE200A04EBC4
:1049B000440000EBC40001EB401080ED010A04EB61
:1049C000440101EBC4012A4602EB4111D1ED4F0A2B
:1049D000B0EE600A04EB440101EBC40102EB4111AB
:1049E000081D04F04EF804EB440101EBC4012A4613
:1049F00002EB4111D1ED010AB0EE600A611CC8B2B0
:104A00000021FFF753FF70BD10B52DED048B82B070
:104A1000044604EB440000EBC400AC4901EB401039
:104A2000D0F83401002802DA4FF0FF3000E0012016
:104A300004EB440101EBC401A44A02EB4111C96932
:104A4000002902DA4FF0FF3100E00121484028B18F
:104A50009FED9F0A9F4880ED000A04E09FED9E0AAB
:104A60009C4880ED000A04EB440000EBC400974929
:104A700001EB4010D0F83401002808DD04EB4400BD
:104A800000EBC40001EB4010D0F8340109E004EB66
:104A9000440000EBC4008D4901EB4010D0F8340114
:104AA000404200EE100AB8EEC00A8A48D0ED000A73
:104AB000B2EE041A60EE810AB4EEE00AF1EE10FAEA
:104AC00029DD04EB440000EBC400804901EB4010F9
:104AD00090ED080A04EB440000EBC40001EB401029
:104AE000D0F83401002802DA4FF0FF3000E0012056
:104AF00000EE900AF8EEE00A764890ED001A00EE1B
:104B0000810A04EB440000EBC400704901EB401043
:104B100080ED030A25E004EB440000EBC4006B4980
:104B200001EB4010D0F8340100EE900AF8EEE00AF4
:104B3000B2EE041AC0EE811AB0EE610A04EB440032
:104B400000EBC40001EB4010D0ED080A70EE800AC3
:104B500004EB440000EBC40001EB4010C0ED030A7D
:104B600000BF04EB440101EBC401584A02EB4111C0
:104B700001F10C0003F01DFF04EB440000EBC40046
:104B8000524901EB401090ED081AF0EE410A04EB97
:104B9000440000EBC40001EB401090ED031AB0EEAE
:104BA000410A03F0EFFFB0EE408A04EB440000EB53
:104BB000C400464901EB4010807818B1B1EE480AB4
:104BC000B0EE408A04EB440000EBC4003F4901EB27
:104BD000401090ED2C0A20EE080A8DED010A04EB3E
:104BE000440000EBC40001EB401090ED2D0A3B485F
:104BF000D0ED000A60EE200A394890ED000A08EE78
:104C0000200A80ED000A374890ED000A3348D0EDC5
:104C1000000A30EE200A334880ED000A324890ED59
:104C2000000AB4EE408AF1EE10FA02D15FEDED8A8F
:104C300019E004EB440000EBC400244901EB4010F0
:104C4000D0ED2E0A274890ED001A80EE810A264802
:104C5000D0ED000A78EE600A60EE208A1FEDF90AB6
:104C6000204880ED000A04EB440000EBC400174923
:104C700001EB4010D0ED2F0A1C4890ED000A30EEF9
:104C8000681A90ED000A00EEC10A80ED000A90ED6E
:104C9000000AF0EE408AB7EE000A01A803F0F1FE28
:104CA0009DED010AB0EEC00AF7EE000A30EEC00A30
:104CB000B0EE409A0A4803F0E4FE0B4818E000000A
:104CC0003036002000007A4400680040B0300020F8
:104CD0000000B4423800002000002A433C000020BD
:104CE000440000204C00002048000020500000201C
:104CF00080ED008A9DED010AFC48D0ED000A30EEFF
:104D0000200A30EE280A8DED000AF7EE000ABFEE09
:104D1000000A684603F08EFE04EB440000EBC4007A
:104D2000F34901EB401090ED550ADDED000A20EE4D
:104D3000200A04EB440000EBC40001EB401080EDBE
:104D4000010A04EB440000EBC40001EB401090EDBD
:104D5000010AB5EEC00AF1EE10FA08DD04EB4400DA
:104D600000EBC40001EB401090ED010A0AE004EBF7
:104D7000440000EBC400DE4901EB401090ED010A55
:104D8000B1EE400A04EB440000EBC400D84901EB4B
:104D90004010D0ED4F0AB4EEE00AF1EE10FA27DD34
:104DA00004EB440000EBC40001EB401090ED010A5D
:104DB000B5EEC00AF1EE10FA02D24FF0FF3000E07B
:104DC000012000EE100AB8EEC00A04EB440000EB2C
:104DD000C400C74901EB4010D0ED4F0A20EE200A75
:104DE00004EB440000EBC40001EB401080ED010A2D
:104DF00004EB440101EBC401BD4A02EB4111D1EDCA
:104E0000010AB0EE600A611CC8B20021FFF74EFD36
:104E100002B0BDEC048B10BDF8B504460E46154635
:104E200000200090B3494988481CC11700EB9161EC
:104E30008911A0EB8111AF4A1288914203D1012060
:104E4000AD49C872F8BDAB494A88091D01EB021192
:104E5000481D6A46314602F0B1FF44F0704040F40C
:104E60004071A4484288001D00EB021001600098C8
:104E7000C1B2A0484288001D00EB021001719D489C
:104E80004188001D00EB011045739A494988481C70
:104E9000C11700EB91618911A0EB8111954A5180F6
:104EA00000BFCFE770B52DED048B044604EB440042
:104EB00000EBC4008E4901EB4010006904EB440193
:104EC00001EBC4018A4A02EB4111086304EB440080
:104ED00000EBC400114601EB4010407870B904EBC0
:104EE000440000EBC40001EB4010D0F8300104EBAB
:104EF000440101EBC40102EB4111086304EB4400DF
:104F000000EBC4007A4901EB401090F8400140B337
:104F10007A48806D002802DD7848806D02E077488D
:104F2000806D404204EB440101EBC401704A02EB86
:104F30004111D1F84411884213DD7048806D00287A
:104F400002DA4FF0FF3000E0012004EB440101EBF6
:104F5000C401674A02EB4111D1F844114843674943
:104F6000886504EB440101EBC401614A02EB411185
:104F7000486A08F0D1FE41EC100B04EB440000EB52
:104F8000C4005B4901EB401080ED140B04EB4401BD
:104F900001EBC401564A02EB411101F1300002F06D
:104FA00029FE04EB440101EBC401514A02EB41111B
:104FB00091F8500108F0C1FE41EC190B04EB4400DC
:104FC00000EBC4004A4901EB401090ED121BB0EE1B
:104FD000410AF0EE610A53EC102B51EC190B08F06A
:104FE000BAFD08F0B7FE0546611CC8B2002229468A
:104FF000FFF712FFBDEC048B70BD30B52DED028BB9
:1050000081B00446B0EE408A0D4600200090394938
:105010004988481CC11700EB91618911A0EB8111EF
:10502000344A1288914206D101203349C87201B036
:10503000BDEC028B30BD9FED320A28EE000ABDEEBA
:10504000C00A10EE101A2B4A5388121D02EB0312ED
:10505000501D6A4602F0B2FE44F0704040F4806198
:1050600024484288001D00EB021001600098C1B284
:1050700020484288001D00EB021001711D48418844
:10508000001D00EB011045731A494988481CC117DF
:1050900000EB91618911A0EB8111164A518000BF8C
:1050A000C5E710B5044604EB440000EBC40010490A
:1050B00001EB40104078C0B104EB440000EBC400A9
:1050C00001EB4010016904EB440000EBC400084A06
:1050D00002EB4010406A091A04EB440000EBC400E4
:1050E00002EB4010C0F8341126E00BE04400002031
:1050F000B030002068720020003900209821002084
:105100000024744904EB440000EBC400E94901EBBE
:105110004010D0F8301104EB440000EBC400E54A25
:1051200002EB4010406A091A04EB440000EBC40093
:1051300002EB4010C0F8341104EB440000EBC40053
:10514000DC4901EB4010D0F83401002802DA4FF0BE
:10515000FF3000E0012004EB440101EBC401D54A1B
:1051600002EB4111C969002902DA4FF0FF3100E07A
:105170000121484028B19FEDD00AD04880ED000AB7
:1051800004E09FEDCF0ACD4880ED000A04EB440017
:1051900000EBC400C74901EB4010D0F834010028EF
:1051A00008DD04EB440000EBC40001EB4010D0F834
:1051B000340109E004EB440000EBC400BD4901EBFD
:1051C0004010D0F83401404200EE100AB8EEC00A98
:1051D000BA48D0ED000AB2EE041A60EE810AB4EECD
:1051E000E00AF1EE10FA29DD04EB440000EBC40004
:1051F000B04901EB401090ED080A04EB440000EBCD
:10520000C40001EB4010D0F83401002802DA4FF05E
:10521000FF3000E0012000EE900AF8EEE00AA74817
:1052200090ED001A00EE810A04EB440000EBC4008C
:10523000A04901EB401080ED030A25E004EB440097
:1052400000EBC4009B4901EB4010D0F8340100EEA4
:10525000900AF8EEE00AB2EE041AC0EE811AB0EE3F
:10526000610A04EB440000EBC40001EB4010D0EDF8
:10527000080A70EE800A04EB440000EBC40001EB66
:105280004010C0ED030A00BF04EB440101EBC40170
:10529000884A02EB411101F10C0003F08AFB04EB98
:1052A000440101EBC401834A02EB4111D1ED030A31
:1052B000B0EE600A611CC8B20021FFF79EFE10BD6F
:1052C00030B52DED028B81B00446B0EE408A0D461C
:1052D000002000907B494988481CC11700EB916170
:1052E0008911A0EB8111774A1288914206D10120E1
:1052F0007549C87201B0BDEC028B30BD9FED730AD9
:1053000028EE000ABDEEC00A10EE101A6D4A53884E
:10531000121D02EB0312501D6A4602F04FFD44F0CD
:10532000704068494A88091D01EB02110860009825
:10533000C1B264484288001D00EB0210017161484F
:105340004188001D00EB011045735E494988481CE7
:10535000C11700EB91618911A0EB8111594A51806D
:1053600000BFC7E730B52DED028B81B00446B0EE2B
:10537000408A0D460020009052494988481CC117B8
:1053800000EB91618911A0EB81114E4A1288914284
:1053900006D101204C49C87201B0BDEC028B30BD72
:1053A0009FED4B0A28EE000ABDEEC00A10EE101A5F
:1053B000444A5388121D02EB0312501D6A4602F044
:1053C000FDFC44F0704040F400713E484288001DEE
:1053D00000EB021001600098C1B23A484288001DFB
:1053E00000EB0210017137484188001D00EB0110ED
:1053F000457334494988481CC11700EB91618911F4
:10540000A0EB81112F4A518000BFC5E730B52DEDCB
:10541000028B81B00446B0EE408A0D460020009019
:1054200028494988481CC11700EB91618911A0EBFC
:105430008111244A1288914206D101202249C87262
:1054400001B0BDEC028B30BD9FED210A28EE000AB1
:10545000BDEEC00A10EE101A1A4A5388121D02EB54
:105460000312501D6A4602F0A9FC44F0704040F45B
:10547000406114484288001D00EB02100160009852
:10548000C1B210484288001D00EB021001710D48A6
:105490004188001D00EB011045730A494988481CEA
:1054A000C11700EB91618911A0EB8111054A518070
:1054B00000BFC5E7B03000200000B4423800002033
:1054C00000002A4368720020003900200050C347C2
:1054D00000007A4410B5082009F0F0FE04460020D0
:1054E0006060204610BD012044494872704710B5E5
:1054F000FFF7F9FFFCF7CAFAFDF72EFBFDF7F0FE08
:10550000FEF7BAFFFFF7E6FF3D4948609FED3D0A11
:105510003D4880ED020A9FED3D0A80ED030A9FEDB4
:105520003C0A80ED040A9FED3B0A80ED050A9FEDE1
:10553000390A80ED060A9FED380A80ED070A9FEDD3
:10554000370A80ED080A9FED360A80ED090A9FEDC3
:10555000350A80ED0A0A10BD00220A7803780B7024
:105560000270704770B506460C46354600E06D681F
:1055700015B16868A042FAD14CB1606868602046F5
:1055800009F074FE1E480078401E1D49087070BD69
:1055900002460B46114605E00888984201D10846AC
:1055A000704749680029F7D10020F9E72DE9F0415B
:1055B000074688463C4641462046FFF7E9FF08B1CA
:1055C000BDE8F081002602E06468701CC6B20C4899
:1055D0000078B04201DD002CF6D16CB1082009F052
:1055E0006DFE0546A5F80080606868606560044847
:1055F0000078401C0249087000BFE1E70039002034
:1056000054000020CDCCB9C2443600200080C342F3
:1056100000008DC3000000000000B6C266E644C36F
:10562000CD4C65C30000FA431CB54048006840F00B
:1056300010003E4908603D481438006840F480007E
:105640003A49143908600120022100230A46CDE9B5
:1056500000104FF4C061364803F008F80722092112
:10566000334802F0E3FF07220A21314802F0DEFF4F
:1056700040F2D9202F4908814FF4037088810846F1
:10568000008820F020000880032325220121062025
:1056900002F03EFF4FF48070274B264A121D042172
:1056A0000090264802F020FE01221021234804F039
:1056B00082FD032346220021072002F029FF1D4816
:1056C000808A40F080001B4988820846808940F427
:1056D000005088811CBD70B504460D461848407BBB
:1056E00078B92A462146144808F04EF9294613484D
:1056F00004F0F5FC0121114804F0D0FC0120104910
:10570000487370BD10B50F490C4804F071FD0128B5
:105710000AD10C49094804F03AFD0A49074804F047
:1057200091FD00200649487310BD00004438024036
:10573000000002400010014080360020B8640240A2
:1057400000390020008000281CB5F748006840F4AC
:105750000030F5490860F4481038006840F4001043
:10576000F149103908600120022100230A46CDE9E1
:1057700000100C21ED4802F079FF07220221EB48CE
:1057800002F054FF07220321E84802F04FFF4FF4D4
:10579000B670E74908800C20091D0880E4480838E5
:1057A000008820F02000E24908390880E048001D08
:1057B000008840F02000DE49091D088003232622CE
:1057C0000121042002F0A4FE4FF48070D94BD84A86
:1057D000121F04210090D84802F086FD01221021FA
:1057E000D54804F0E8FC032311220121072002F030
:1057F0008FFECF480C30008840F08000CC490C313F
:105800000880CB48001D008840F40050C849091D9D
:1058100008801CBD10B5C949C74804F0E9FC01283F
:105820000AD1C649C44804F0B2FCC449C24804F0D5
:1058300009FD0020C249887310BD10B52DED028B03
:10584000002440F22531BA48083805F0D8FA58B19A
:10585000B748083805F011FA0020BA49087020212D
:10586000B94808F0AAF8B7E340F22551B048083823
:1058700005F0C5FA0028F6D02021AD48083805F01B
:10588000B5FA40F22551AA48083805F0EFFAA848C1
:10589000083805F0F2F9C4B2AA48007800F04000D8
:1058A00008B3A848007800F0800020BBFF2C06D188
:1058B000A448007840F08000A24908701BE0A1488D
:1058C000007800F03F01A04844549E480078401CF6
:1058D0009C4908700846007800F03F0028280ADD3F
:1058E0000020087007E0EE2C05D19648007840F0C3
:1058F0004000944908709348007800F08000002828
:10590000B1D0924890F82102012804D18F4890F834
:1059100023028F4908708D4890F8230208287AD214
:10592000DFE800F0042E2F3045F079EF874890F83B
:105930002502082821D1012080F3138800BF00BF71
:1059400000BF00BF00BF00BFBFF34F8F00BF00BF4D
:1059500000BF8048006800F4E0607F490843001DF4
:105960007C49086000BF00BF00BFBFF34F8F00BF7E
:1059700000BF00BF00BF00BFFDE700BF00BF23E3C3
:1059800022E321E3714890F82502032804D0062879
:1059900003D0082808D106E007E001206F4908700D
:1059A00081F8600101E000E000BF00BF0CE3674840
:1059B00090F82502C01E1E2871D2DFE800F00F1DEE
:1059C0002D3E4F606871798191A4D370F3FAF0EFA6
:1059D000EEEDECEBEAE9E8E7E6E5E4E3002008E0D9
:1059E000002100EB800202EB40125D4B03F8321005
:1059F000401C0828F4DB6BE15348C01D08F0CCFDC7
:105A0000B0EE408AF0EE608A51EC180B08F0C1F954
:105A1000534988705CE1D6E24B48C01D08F0BCFDDC
:105A2000B0EE408AF0EE608A51EC180B08F0B1F944
:105A3000C1B24B4880F82A114AE14348C01D08F022
:105A4000ABFDB0EE408AF0EE608A51EC180B08F026
:105A5000A0F9C1B2424880F8521239E13A48C01D5B
:105A600008F09AFDB0EE408AF0EE608A51EC180B17
:105A700008F08FF9C1B23A4880F87A1328E1324829
:105A8000C01D08F089FD364880ED040B20E12E484A
:105A9000C01D08F081FD324880ED4E0B18E116E183
:105AA0002948C01D08F078FD2D4880ED980B0FE1C6
:105AB0002548C01D08F070FD294880EDE20B07E184
:105AC0002148C01D08F068FDB0EE408AF0EE608A03
:105AD00051EC180B08F03EF900B221490881F7E0BB
